{
	"contracts/Zombiefactory.sol": {
		"ZombieFactory": {
			"abi": [
				{
					"anonymous": false,
					"inputs": [
						{
							"indexed": false,
							"internalType": "uint256",
							"name": "zombieId",
							"type": "uint256"
						},
						{
							"indexed": false,
							"internalType": "string",
							"name": "name",
							"type": "string"
						},
						{
							"indexed": false,
							"internalType": "uint256",
							"name": "dna",
							"type": "uint256"
						}
					],
					"name": "NewZombie",
					"type": "event"
				},
				{
					"inputs": [
						{
							"internalType": "string",
							"name": "_name",
							"type": "string"
						}
					],
					"name": "generateRandomZombie",
					"outputs": [],
					"stateMutability": "nonpayable",
					"type": "function"
				},
				{
					"inputs": [
						{
							"internalType": "uint256",
							"name": "",
							"type": "uint256"
						}
					],
					"name": "zombies",
					"outputs": [
						{
							"internalType": "uint256",
							"name": "dna",
							"type": "uint256"
						},
						{
							"internalType": "string",
							"name": "name",
							"type": "string"
						}
					],
					"stateMutability": "view",
					"type": "function"
				}
			],
			"devdoc": {
				"kind": "dev",
				"methods": {},
				"version": 1
			},
			"evm": {
				"assembly": "    /* \"contracts/Zombiefactory.sol\":33:1627  contract ZombieFactory {... */\n  mstore(0x40, 0x80)\n    /* \"contracts/Zombiefactory.sol\":79:81  16 */\n  0x10\n    /* \"contracts/Zombiefactory.sol\":62:81  uint dnaDigits = 16 */\n  0x00\n  sstore\n    /* \"contracts/Zombiefactory.sol\":160:169  dnaDigits */\n  sload(0x00)\n    /* \"contracts/Zombiefactory.sol\":154:156  10 */\n  0x0a\n    /* \"contracts/Zombiefactory.sol\":154:169  10 ** dnaDigits */\n  tag_1\n  swap2\n  swap1\n  tag_2\n  jump\t// in\ntag_1:\n    /* \"contracts/Zombiefactory.sol\":136:169  uint dnaModulus = 10 ** dnaDigits */\n  0x01\n  sstore\n    /* \"contracts/Zombiefactory.sol\":33:1627  contract ZombieFactory {... */\n  callvalue\n  dup1\n  iszero\n  tag_3\n  jumpi\n  0x00\n  dup1\n  revert\ntag_3:\n  pop\n  jump(tag_4)\n    /* \"#utility.yul\":7:187   */\ntag_5:\n    /* \"#utility.yul\":55:132   */\n  0x4e487b7100000000000000000000000000000000000000000000000000000000\n    /* \"#utility.yul\":52:53   */\n  0x00\n    /* \"#utility.yul\":45:133   */\n  mstore\n    /* \"#utility.yul\":152:156   */\n  0x11\n    /* \"#utility.yul\":149:150   */\n  0x04\n    /* \"#utility.yul\":142:157   */\n  mstore\n    /* \"#utility.yul\":176:180   */\n  0x24\n    /* \"#utility.yul\":173:174   */\n  0x00\n    /* \"#utility.yul\":166:181   */\n  revert\n    /* \"#utility.yul\":193:295   */\ntag_6:\n    /* \"#utility.yul\":235:243   */\n  0x00\n    /* \"#utility.yul\":282:287   */\n  dup2\n    /* \"#utility.yul\":279:280   */\n  0x01\n    /* \"#utility.yul\":275:288   */\n  shr\n    /* \"#utility.yul\":254:288   */\n  swap1\n  pop\n    /* \"#utility.yul\":193:295   */\n  swap2\n  swap1\n  pop\n  jump\t// out\n    /* \"#utility.yul\":301:1149   */\ntag_7:\n    /* \"#utility.yul\":362:367   */\n  0x00\n    /* \"#utility.yul\":369:373   */\n  dup1\n    /* \"#utility.yul\":393:399   */\n  dup3\n    /* \"#utility.yul\":384:399   */\n  swap2\n  pop\n    /* \"#utility.yul\":417:422   */\n  dup4\n    /* \"#utility.yul\":408:422   */\n  swap1\n  pop\n    /* \"#utility.yul\":431:1143   */\ntag_14:\n    /* \"#utility.yul\":452:453   */\n  0x01\n    /* \"#utility.yul\":442:450   */\n  dup6\n    /* \"#utility.yul\":439:454   */\n  gt\n    /* \"#utility.yul\":431:1143   */\n  iszero\n  tag_16\n  jumpi\n    /* \"#utility.yul\":547:551   */\n  dup1\n    /* \"#utility.yul\":542:545   */\n  dup7\n    /* \"#utility.yul\":538:552   */\n  div\n    /* \"#utility.yul\":532:536   */\n  dup2\n    /* \"#utility.yul\":529:553   */\n  gt\n    /* \"#utility.yul\":526:576   */\n  iszero\n  tag_17\n  jumpi\n    /* \"#utility.yul\":556:574   */\n  tag_18\n  tag_5\n  jump\t// in\ntag_18:\n    /* \"#utility.yul\":526:576   */\ntag_17:\n    /* \"#utility.yul\":606:607   */\n  0x01\n    /* \"#utility.yul\":596:604   */\n  dup6\n    /* \"#utility.yul\":592:608   */\n  and\n    /* \"#utility.yul\":589:1040   */\n  iszero\n  tag_19\n  jumpi\n    /* \"#utility.yul\":1021:1025   */\n  dup1\n    /* \"#utility.yul\":1014:1019   */\n  dup3\n    /* \"#utility.yul\":1010:1026   */\n  mul\n    /* \"#utility.yul\":1001:1026   */\n  swap2\n  pop\n    /* \"#utility.yul\":589:1040   */\ntag_19:\n    /* \"#utility.yul\":1071:1075   */\n  dup1\n    /* \"#utility.yul\":1065:1069   */\n  dup2\n    /* \"#utility.yul\":1061:1076   */\n  mul\n    /* \"#utility.yul\":1053:1076   */\n  swap1\n  pop\n    /* \"#utility.yul\":1101:1133   */\n  tag_20\n    /* \"#utility.yul\":1124:1132   */\n  dup6\n    /* \"#utility.yul\":1101:1133   */\n  tag_6\n  jump\t// in\ntag_20:\n    /* \"#utility.yul\":1089:1133   */\n  swap5\n  pop\n    /* \"#utility.yul\":431:1143   */\n  jump(tag_14)\ntag_16:\n    /* \"#utility.yul\":301:1149   */\n  swap5\n  pop\n  swap5\n  swap3\n  pop\n  pop\n  pop\n  jump\t// out\n    /* \"#utility.yul\":1155:2228   */\ntag_8:\n    /* \"#utility.yul\":1209:1214   */\n  0x00\n    /* \"#utility.yul\":1400:1408   */\n  dup3\n    /* \"#utility.yul\":1390:1430   */\n  tag_22\n  jumpi\n    /* \"#utility.yul\":1421:1422   */\n  0x01\n    /* \"#utility.yul\":1412:1422   */\n  swap1\n  pop\n    /* \"#utility.yul\":1423:1428   */\n  jump(tag_21)\n    /* \"#utility.yul\":1390:1430   */\ntag_22:\n    /* \"#utility.yul\":1449:1453   */\n  dup2\n    /* \"#utility.yul\":1439:1475   */\n  tag_23\n  jumpi\n    /* \"#utility.yul\":1466:1467   */\n  0x00\n    /* \"#utility.yul\":1457:1467   */\n  swap1\n  pop\n    /* \"#utility.yul\":1468:1473   */\n  jump(tag_21)\n    /* \"#utility.yul\":1439:1475   */\ntag_23:\n    /* \"#utility.yul\":1535:1539   */\n  dup2\n    /* \"#utility.yul\":1583:1584   */\n  0x01\n    /* \"#utility.yul\":1578:1605   */\n  dup2\n  eq\n  tag_25\n  jumpi\n    /* \"#utility.yul\":1619:1620   */\n  0x02\n    /* \"#utility.yul\":1614:1805   */\n  dup2\n  eq\n  tag_26\n  jumpi\n    /* \"#utility.yul\":1528:1805   */\n  jump(tag_24)\n    /* \"#utility.yul\":1578:1605   */\ntag_25:\n    /* \"#utility.yul\":1596:1597   */\n  0x01\n    /* \"#utility.yul\":1587:1597   */\n  swap2\n  pop\n    /* \"#utility.yul\":1598:1603   */\n  pop\n  jump(tag_21)\n    /* \"#utility.yul\":1614:1805   */\ntag_26:\n    /* \"#utility.yul\":1659:1662   */\n  0xff\n    /* \"#utility.yul\":1649:1657   */\n  dup5\n    /* \"#utility.yul\":1646:1663   */\n  gt\n    /* \"#utility.yul\":1643:1686   */\n  iszero\n  tag_27\n  jumpi\n    /* \"#utility.yul\":1666:1684   */\n  tag_28\n  tag_5\n  jump\t// in\ntag_28:\n    /* \"#utility.yul\":1643:1686   */\ntag_27:\n    /* \"#utility.yul\":1715:1723   */\n  dup4\n    /* \"#utility.yul\":1712:1713   */\n  0x02\n    /* \"#utility.yul\":1708:1724   */\n  exp\n    /* \"#utility.yul\":1699:1724   */\n  swap2\n  pop\n    /* \"#utility.yul\":1750:1753   */\n  dup5\n    /* \"#utility.yul\":1743:1748   */\n  dup3\n    /* \"#utility.yul\":1740:1754   */\n  gt\n    /* \"#utility.yul\":1737:1777   */\n  iszero\n  tag_29\n  jumpi\n    /* \"#utility.yul\":1757:1775   */\n  tag_30\n  tag_5\n  jump\t// in\ntag_30:\n    /* \"#utility.yul\":1737:1777   */\ntag_29:\n    /* \"#utility.yul\":1790:1795   */\n  pop\n  jump(tag_21)\n    /* \"#utility.yul\":1528:1805   */\ntag_24:\n  pop\n    /* \"#utility.yul\":1914:1916   */\n  0x20\n    /* \"#utility.yul\":1904:1912   */\n  dup4\n    /* \"#utility.yul\":1901:1917   */\n  lt\n    /* \"#utility.yul\":1895:1898   */\n  0x0133\n    /* \"#utility.yul\":1889:1893   */\n  dup4\n    /* \"#utility.yul\":1886:1899   */\n  lt\n    /* \"#utility.yul\":1882:1918   */\n  and\n    /* \"#utility.yul\":1864:1866   */\n  0x4e\n    /* \"#utility.yul\":1854:1862   */\n  dup5\n    /* \"#utility.yul\":1851:1867   */\n  lt\n    /* \"#utility.yul\":1846:1848   */\n  0x0b\n    /* \"#utility.yul\":1840:1844   */\n  dup5\n    /* \"#utility.yul\":1837:1849   */\n  lt\n    /* \"#utility.yul\":1833:1868   */\n  and\n    /* \"#utility.yul\":1817:1928   */\n  or\n    /* \"#utility.yul\":1814:2060   */\n  iszero\n  tag_31\n  jumpi\n    /* \"#utility.yul\":1970:1978   */\n  dup3\n    /* \"#utility.yul\":1964:1968   */\n  dup3\n    /* \"#utility.yul\":1960:1979   */\n  exp\n    /* \"#utility.yul\":1951:1979   */\n  swap1\n  pop\n    /* \"#utility.yul\":2005:2008   */\n  dup4\n    /* \"#utility.yul\":1998:2003   */\n  dup2\n    /* \"#utility.yul\":1995:2009   */\n  gt\n    /* \"#utility.yul\":1992:2032   */\n  iszero\n  tag_32\n  jumpi\n    /* \"#utility.yul\":2012:2030   */\n  tag_33\n  tag_5\n  jump\t// in\ntag_33:\n    /* \"#utility.yul\":1992:2032   */\ntag_32:\n    /* \"#utility.yul\":2045:2050   */\n  jump(tag_21)\n    /* \"#utility.yul\":1814:2060   */\ntag_31:\n    /* \"#utility.yul\":2085:2127   */\n  tag_34\n    /* \"#utility.yul\":2123:2126   */\n  dup5\n    /* \"#utility.yul\":2113:2121   */\n  dup5\n    /* \"#utility.yul\":2107:2111   */\n  dup5\n    /* \"#utility.yul\":2104:2105   */\n  0x01\n    /* \"#utility.yul\":2085:2127   */\n  tag_7\n  jump\t// in\ntag_34:\n    /* \"#utility.yul\":2070:2127   */\n  swap3\n  pop\n  swap1\n  pop\n    /* \"#utility.yul\":2159:2163   */\n  dup2\n    /* \"#utility.yul\":2154:2157   */\n  dup5\n    /* \"#utility.yul\":2150:2164   */\n  div\n    /* \"#utility.yul\":2143:2148   */\n  dup2\n    /* \"#utility.yul\":2140:2165   */\n  gt\n    /* \"#utility.yul\":2137:2188   */\n  iszero\n  tag_35\n  jumpi\n    /* \"#utility.yul\":2168:2186   */\n  tag_36\n  tag_5\n  jump\t// in\ntag_36:\n    /* \"#utility.yul\":2137:2188   */\ntag_35:\n    /* \"#utility.yul\":2217:2221   */\n  dup2\n    /* \"#utility.yul\":2210:2215   */\n  dup2\n    /* \"#utility.yul\":2206:2222   */\n  mul\n    /* \"#utility.yul\":2197:2222   */\n  swap1\n  pop\n    /* \"#utility.yul\":1155:2228   */\ntag_21:\n  swap4\n  swap3\n  pop\n  pop\n  pop\n  jump\t// out\n    /* \"#utility.yul\":2234:2311   */\ntag_9:\n    /* \"#utility.yul\":2271:2278   */\n  0x00\n    /* \"#utility.yul\":2300:2305   */\n  dup2\n    /* \"#utility.yul\":2289:2305   */\n  swap1\n  pop\n    /* \"#utility.yul\":2234:2311   */\n  swap2\n  swap1\n  pop\n  jump\t// out\n    /* \"#utility.yul\":2317:2602   */\ntag_2:\n    /* \"#utility.yul\":2377:2382   */\n  0x00\n    /* \"#utility.yul\":2401:2424   */\n  tag_39\n    /* \"#utility.yul\":2419:2423   */\n  dup3\n    /* \"#utility.yul\":2401:2424   */\n  tag_9\n  jump\t// in\ntag_39:\n    /* \"#utility.yul\":2393:2424   */\n  swap2\n  pop\n    /* \"#utility.yul\":2445:2472   */\n  tag_40\n    /* \"#utility.yul\":2463:2471   */\n  dup4\n    /* \"#utility.yul\":2445:2472   */\n  tag_9\n  jump\t// in\ntag_40:\n    /* \"#utility.yul\":2433:2472   */\n  swap3\n  pop\n    /* \"#utility.yul\":2491:2595   */\n  tag_41\n    /* \"#utility.yul\":2528:2594   */\n  0xffffffffffffffffffffffffffffffffffffffffffffffffffffffffffffffff\n    /* \"#utility.yul\":2518:2526   */\n  dup5\n    /* \"#utility.yul\":2512:2516   */\n  dup5\n    /* \"#utility.yul\":2491:2595   */\n  tag_8\n  jump\t// in\ntag_41:\n    /* \"#utility.yul\":2482:2595   */\n  swap1\n  pop\n    /* \"#utility.yul\":2317:2602   */\n  swap3\n  swap2\n  pop\n  pop\n  jump\t// out\n    /* \"contracts/Zombiefactory.sol\":33:1627  contract ZombieFactory {... */\ntag_4:\n  dataSize(sub_0)\n  dup1\n  dataOffset(sub_0)\n  0x00\n  codecopy\n  0x00\n  return\nstop\n\nsub_0: assembly {\n        /* \"contracts/Zombiefactory.sol\":33:1627  contract ZombieFactory {... */\n      mstore(0x40, 0x80)\n      callvalue\n      dup1\n      iszero\n      tag_1\n      jumpi\n      0x00\n      dup1\n      revert\n    tag_1:\n      pop\n      jumpi(tag_2, lt(calldatasize, 0x04))\n      shr(0xe0, calldataload(0x00))\n      dup1\n      0x2052465e\n      eq\n      tag_3\n      jumpi\n      dup1\n      0xc6f15112\n      eq\n      tag_4\n      jumpi\n    tag_2:\n      0x00\n      dup1\n      revert\n        /* \"contracts/Zombiefactory.sol\":378:401  Zombie[] public zombies */\n    tag_3:\n      tag_5\n      0x04\n      dup1\n      calldatasize\n      sub\n      dup2\n      add\n      swap1\n      tag_6\n      swap2\n      swap1\n      tag_7\n      jump\t// in\n    tag_6:\n      tag_8\n      jump\t// in\n    tag_5:\n      mload(0x40)\n      tag_9\n      swap3\n      swap2\n      swap1\n      tag_10\n      jump\t// in\n    tag_9:\n      mload(0x40)\n      dup1\n      swap2\n      sub\n      swap1\n      return\n        /* \"contracts/Zombiefactory.sol\":1416:1624  function generateRandomZombie(string memory _name) public {... */\n    tag_4:\n      tag_11\n      0x04\n      dup1\n      calldatasize\n      sub\n      dup2\n      add\n      swap1\n      tag_12\n      swap2\n      swap1\n      tag_13\n      jump\t// in\n    tag_12:\n      tag_14\n      jump\t// in\n    tag_11:\n      stop\n        /* \"contracts/Zombiefactory.sol\":378:401  Zombie[] public zombies */\n    tag_8:\n      0x02\n      dup2\n      dup2\n      sload\n      dup2\n      lt\n      tag_15\n      jumpi\n      0x00\n      dup1\n      revert\n    tag_15:\n      swap1\n      0x00\n      mstore\n      keccak256(0x00, 0x20)\n      swap1\n      0x02\n      mul\n      add\n      0x00\n      swap2\n      pop\n      swap1\n      pop\n      dup1\n      0x00\n      add\n      sload\n      swap1\n      dup1\n      0x01\n      add\n      dup1\n      sload\n      tag_17\n      swap1\n      tag_18\n      jump\t// in\n    tag_17:\n      dup1\n      0x1f\n      add\n      0x20\n      dup1\n      swap2\n      div\n      mul\n      0x20\n      add\n      mload(0x40)\n      swap1\n      dup2\n      add\n      0x40\n      mstore\n      dup1\n      swap3\n      swap2\n      swap1\n      dup2\n      dup2\n      mstore\n      0x20\n      add\n      dup3\n      dup1\n      sload\n      tag_19\n      swap1\n      tag_18\n      jump\t// in\n    tag_19:\n      dup1\n      iszero\n      tag_20\n      jumpi\n      dup1\n      0x1f\n      lt\n      tag_21\n      jumpi\n      0x0100\n      dup1\n      dup4\n      sload\n      div\n      mul\n      dup4\n      mstore\n      swap2\n      0x20\n      add\n      swap2\n      jump(tag_20)\n    tag_21:\n      dup3\n      add\n      swap2\n      swap1\n      0x00\n      mstore\n      keccak256(0x00, 0x20)\n      swap1\n    tag_22:\n      dup2\n      sload\n      dup2\n      mstore\n      swap1\n      0x01\n      add\n      swap1\n      0x20\n      add\n      dup1\n      dup4\n      gt\n      tag_22\n      jumpi\n      dup3\n      swap1\n      sub\n      0x1f\n      and\n      dup3\n      add\n      swap2\n    tag_20:\n      pop\n      pop\n      pop\n      pop\n      pop\n      swap1\n      pop\n      dup3\n      jump\t// out\n        /* \"contracts/Zombiefactory.sol\":1416:1624  function generateRandomZombie(string memory _name) public {... */\n    tag_14:\n        /* \"contracts/Zombiefactory.sol\":1524:1525  0 */\n      0x00\n        /* \"contracts/Zombiefactory.sol\":1492:1508  ownerZombieCount */\n      0x04\n        /* \"contracts/Zombiefactory.sol\":1492:1520  ownerZombieCount[msg.sender] */\n      0x00\n        /* \"contracts/Zombiefactory.sol\":1509:1519  msg.sender */\n      caller\n        /* \"contracts/Zombiefactory.sol\":1492:1520  ownerZombieCount[msg.sender] */\n      0xffffffffffffffffffffffffffffffffffffffff\n      and\n      0xffffffffffffffffffffffffffffffffffffffff\n      and\n      dup2\n      mstore\n      0x20\n      add\n      swap1\n      dup2\n      mstore\n      0x20\n      add\n      0x00\n      keccak256\n      sload\n        /* \"contracts/Zombiefactory.sol\":1492:1525  ownerZombieCount[msg.sender] == 0 */\n      eq\n        /* \"contracts/Zombiefactory.sol\":1484:1526  require(ownerZombieCount[msg.sender] == 0) */\n      tag_24\n      jumpi\n      0x00\n      dup1\n      revert\n    tag_24:\n        /* \"contracts/Zombiefactory.sol\":1538:1550  uint randDna */\n      0x00\n        /* \"contracts/Zombiefactory.sol\":1553:1578  _generateRandomDna(_name) */\n      tag_25\n        /* \"contracts/Zombiefactory.sol\":1572:1577  _name */\n      dup3\n        /* \"contracts/Zombiefactory.sol\":1553:1571  _generateRandomDna */\n      tag_26\n        /* \"contracts/Zombiefactory.sol\":1553:1578  _generateRandomDna(_name) */\n      jump\t// in\n    tag_25:\n        /* \"contracts/Zombiefactory.sol\":1538:1578  uint randDna = _generateRandomDna(_name) */\n      swap1\n      pop\n        /* \"contracts/Zombiefactory.sol\":1588:1617  _createZombie(_name, randDna) */\n      tag_27\n        /* \"contracts/Zombiefactory.sol\":1602:1607  _name */\n      dup3\n        /* \"contracts/Zombiefactory.sol\":1609:1616  randDna */\n      dup3\n        /* \"contracts/Zombiefactory.sol\":1588:1601  _createZombie */\n      tag_28\n        /* \"contracts/Zombiefactory.sol\":1588:1617  _createZombie(_name, randDna) */\n      jump\t// in\n    tag_27:\n        /* \"contracts/Zombiefactory.sol\":1474:1624  {... */\n      pop\n        /* \"contracts/Zombiefactory.sol\":1416:1624  function generateRandomZombie(string memory _name) public {... */\n      pop\n      jump\t// out\n        /* \"contracts/Zombiefactory.sol\":1230:1410  function _generateRandomDna(string memory _str) private view returns (uint) {... */\n    tag_26:\n        /* \"contracts/Zombiefactory.sol\":1300:1304  uint */\n      0x00\n        /* \"contracts/Zombiefactory.sol\":1316:1325  uint rand */\n      dup1\n        /* \"contracts/Zombiefactory.sol\":1362:1366  _str */\n      dup3\n        /* \"contracts/Zombiefactory.sol\":1345:1367  abi.encodePacked(_str) */\n      add(0x20, mload(0x40))\n      tag_30\n      swap2\n      swap1\n      tag_31\n      jump\t// in\n    tag_30:\n      mload(0x40)\n      0x20\n      dup2\n      dup4\n      sub\n      sub\n      dup2\n      mstore\n      swap1\n      0x40\n      mstore\n        /* \"contracts/Zombiefactory.sol\":1335:1368  keccak256(abi.encodePacked(_str)) */\n      dup1\n      mload\n      swap1\n      0x20\n      add\n      keccak256\n        /* \"contracts/Zombiefactory.sol\":1330:1369  uint(keccak256(abi.encodePacked(_str))) */\n      0x00\n      shr\n        /* \"contracts/Zombiefactory.sol\":1316:1369  uint rand  =  uint(keccak256(abi.encodePacked(_str))) */\n      swap1\n      pop\n        /* \"contracts/Zombiefactory.sol\":1393:1403  dnaModulus */\n      sload(0x01)\n        /* \"contracts/Zombiefactory.sol\":1386:1390  rand */\n      dup2\n        /* \"contracts/Zombiefactory.sol\":1386:1403  rand % dnaModulus */\n      tag_32\n      swap2\n      swap1\n      tag_33\n      jump\t// in\n    tag_32:\n        /* \"contracts/Zombiefactory.sol\":1379:1403  return rand % dnaModulus */\n      swap2\n      pop\n      pop\n        /* \"contracts/Zombiefactory.sol\":1230:1410  function _generateRandomDna(string memory _str) private view returns (uint) {... */\n      swap2\n      swap1\n      pop\n      jump\t// out\n        /* \"contracts/Zombiefactory.sol\":852:1119  function _createZombie(string memory _name, uint _dna) internal {... */\n    tag_28:\n        /* \"contracts/Zombiefactory.sol\":926:933  zombies */\n      0x02\n        /* \"contracts/Zombiefactory.sol\":939:958  Zombie(_dna, _name) */\n      mload(0x40)\n      dup1\n      0x40\n      add\n      0x40\n      mstore\n      dup1\n        /* \"contracts/Zombiefactory.sol\":946:950  _dna */\n      dup4\n        /* \"contracts/Zombiefactory.sol\":939:958  Zombie(_dna, _name) */\n      dup2\n      mstore\n      0x20\n      add\n        /* \"contracts/Zombiefactory.sol\":952:957  _name */\n      dup5\n        /* \"contracts/Zombiefactory.sol\":939:958  Zombie(_dna, _name) */\n      dup2\n      mstore\n      pop\n        /* \"contracts/Zombiefactory.sol\":926:959  zombies.push(Zombie(_dna, _name)) */\n      swap1\n      dup1\n      0x01\n      dup2\n      sload\n      add\n      dup1\n      dup3\n      sstore\n      dup1\n      swap2\n      pop\n      pop\n      0x01\n      swap1\n      sub\n      swap1\n      0x00\n      mstore\n      keccak256(0x00, 0x20)\n      swap1\n      0x02\n      mul\n      add\n      0x00\n      swap1\n      swap2\n      swap1\n      swap2\n      swap1\n      swap2\n      pop\n      0x00\n      dup3\n      add\n      mload\n      dup2\n      0x00\n      add\n      sstore\n      0x20\n      dup3\n      add\n      mload\n      dup2\n      0x01\n      add\n      swap1\n      dup1\n      mload\n      swap1\n      0x20\n      add\n      swap1\n      tag_36\n      swap3\n      swap2\n      swap1\n      tag_37\n      jump\t// in\n    tag_36:\n      pop\n      pop\n      pop\n        /* \"contracts/Zombiefactory.sol\":1005:1015  msg.sender */\n      caller\n        /* \"contracts/Zombiefactory.sol\":969:982  zombieToOwner */\n      0x03\n        /* \"contracts/Zombiefactory.sol\":969:1002  zombieToOwner[zombies.length - 1] */\n      0x00\n        /* \"contracts/Zombiefactory.sol\":1000:1001  1 */\n      0x01\n        /* \"contracts/Zombiefactory.sol\":983:990  zombies */\n      0x02\n        /* \"contracts/Zombiefactory.sol\":983:997  zombies.length */\n      dup1\n      sload\n      swap1\n      pop\n        /* \"contracts/Zombiefactory.sol\":983:1001  zombies.length - 1 */\n      tag_38\n      swap2\n      swap1\n      tag_39\n      jump\t// in\n    tag_38:\n        /* \"contracts/Zombiefactory.sol\":969:1002  zombieToOwner[zombies.length - 1] */\n      dup2\n      mstore\n      0x20\n      add\n      swap1\n      dup2\n      mstore\n      0x20\n      add\n      0x00\n      keccak256\n      0x00\n        /* \"contracts/Zombiefactory.sol\":969:1015  zombieToOwner[zombies.length - 1] = msg.sender */\n      0x0100\n      exp\n      dup2\n      sload\n      dup2\n      0xffffffffffffffffffffffffffffffffffffffff\n      mul\n      not\n      and\n      swap1\n      dup4\n      0xffffffffffffffffffffffffffffffffffffffff\n      and\n      mul\n      or\n      swap1\n      sstore\n      pop\n        /* \"contracts/Zombiefactory.sol\":1025:1041  ownerZombieCount */\n      0x04\n        /* \"contracts/Zombiefactory.sol\":1025:1053  ownerZombieCount[msg.sender] */\n      0x00\n        /* \"contracts/Zombiefactory.sol\":1042:1052  msg.sender */\n      caller\n        /* \"contracts/Zombiefactory.sol\":1025:1053  ownerZombieCount[msg.sender] */\n      0xffffffffffffffffffffffffffffffffffffffff\n      and\n      0xffffffffffffffffffffffffffffffffffffffff\n      and\n      dup2\n      mstore\n      0x20\n      add\n      swap1\n      dup2\n      mstore\n      0x20\n      add\n      0x00\n      keccak256\n      0x00\n        /* \"contracts/Zombiefactory.sol\":1025:1055  ownerZombieCount[msg.sender]++ */\n      dup2\n      sload\n      dup1\n      swap3\n      swap2\n      swap1\n      tag_40\n      swap1\n      tag_41\n      jump\t// in\n    tag_40:\n      swap2\n      swap1\n      pop\n      sstore\n      pop\n        /* \"contracts/Zombiefactory.sol\":1070:1112  NewZombie(zombies.length - 1, _name, _dna) */\n      0x88f026aacbbecc90c18411df4b1185fd8d9be2470f1962f192bf84a27d0704b7\n        /* \"contracts/Zombiefactory.sol\":1097:1098  1 */\n      0x01\n        /* \"contracts/Zombiefactory.sol\":1080:1087  zombies */\n      0x02\n        /* \"contracts/Zombiefactory.sol\":1080:1094  zombies.length */\n      dup1\n      sload\n      swap1\n      pop\n        /* \"contracts/Zombiefactory.sol\":1080:1098  zombies.length - 1 */\n      tag_42\n      swap2\n      swap1\n      tag_39\n      jump\t// in\n    tag_42:\n        /* \"contracts/Zombiefactory.sol\":1100:1105  _name */\n      dup4\n        /* \"contracts/Zombiefactory.sol\":1107:1111  _dna */\n      dup4\n        /* \"contracts/Zombiefactory.sol\":1070:1112  NewZombie(zombies.length - 1, _name, _dna) */\n      mload(0x40)\n      tag_43\n      swap4\n      swap3\n      swap2\n      swap1\n      tag_44\n      jump\t// in\n    tag_43:\n      mload(0x40)\n      dup1\n      swap2\n      sub\n      swap1\n      log1\n        /* \"contracts/Zombiefactory.sol\":852:1119  function _createZombie(string memory _name, uint _dna) internal {... */\n      pop\n      pop\n      jump\t// out\n    tag_37:\n      dup3\n      dup1\n      sload\n      tag_45\n      swap1\n      tag_18\n      jump\t// in\n    tag_45:\n      swap1\n      0x00\n      mstore\n      keccak256(0x00, 0x20)\n      swap1\n      0x1f\n      add\n      0x20\n      swap1\n      div\n      dup2\n      add\n      swap3\n      dup3\n      tag_47\n      jumpi\n      0x00\n      dup6\n      sstore\n      jump(tag_46)\n    tag_47:\n      dup3\n      0x1f\n      lt\n      tag_48\n      jumpi\n      dup1\n      mload\n      not(0xff)\n      and\n      dup4\n      dup1\n      add\n      or\n      dup6\n      sstore\n      jump(tag_46)\n    tag_48:\n      dup3\n      dup1\n      add\n      0x01\n      add\n      dup6\n      sstore\n      dup3\n      iszero\n      tag_46\n      jumpi\n      swap2\n      dup3\n      add\n    tag_49:\n      dup3\n      dup2\n      gt\n      iszero\n      tag_50\n      jumpi\n      dup3\n      mload\n      dup3\n      sstore\n      swap2\n      0x20\n      add\n      swap2\n      swap1\n      0x01\n      add\n      swap1\n      jump(tag_49)\n    tag_50:\n    tag_46:\n      pop\n      swap1\n      pop\n      tag_51\n      swap2\n      swap1\n      tag_52\n      jump\t// in\n    tag_51:\n      pop\n      swap1\n      jump\t// out\n    tag_52:\n    tag_53:\n      dup1\n      dup3\n      gt\n      iszero\n      tag_54\n      jumpi\n      0x00\n      dup2\n      0x00\n      swap1\n      sstore\n      pop\n      0x01\n      add\n      jump(tag_53)\n    tag_54:\n      pop\n      swap1\n      jump\t// out\n        /* \"#utility.yul\":7:82   */\n    tag_55:\n        /* \"#utility.yul\":40:46   */\n      0x00\n        /* \"#utility.yul\":73:75   */\n      0x40\n        /* \"#utility.yul\":67:76   */\n      mload\n        /* \"#utility.yul\":57:76   */\n      swap1\n      pop\n        /* \"#utility.yul\":7:82   */\n      swap1\n      jump\t// out\n        /* \"#utility.yul\":88:205   */\n    tag_56:\n        /* \"#utility.yul\":197:198   */\n      0x00\n        /* \"#utility.yul\":194:195   */\n      dup1\n        /* \"#utility.yul\":187:199   */\n      revert\n        /* \"#utility.yul\":211:328   */\n    tag_57:\n        /* \"#utility.yul\":320:321   */\n      0x00\n        /* \"#utility.yul\":317:318   */\n      dup1\n        /* \"#utility.yul\":310:322   */\n      revert\n        /* \"#utility.yul\":334:411   */\n    tag_58:\n        /* \"#utility.yul\":371:378   */\n      0x00\n        /* \"#utility.yul\":400:405   */\n      dup2\n        /* \"#utility.yul\":389:405   */\n      swap1\n      pop\n        /* \"#utility.yul\":334:411   */\n      swap2\n      swap1\n      pop\n      jump\t// out\n        /* \"#utility.yul\":417:539   */\n    tag_59:\n        /* \"#utility.yul\":490:514   */\n      tag_87\n        /* \"#utility.yul\":508:513   */\n      dup2\n        /* \"#utility.yul\":490:514   */\n      tag_58\n      jump\t// in\n    tag_87:\n        /* \"#utility.yul\":483:488   */\n      dup2\n        /* \"#utility.yul\":480:515   */\n      eq\n        /* \"#utility.yul\":470:533   */\n      tag_88\n      jumpi\n        /* \"#utility.yul\":529:530   */\n      0x00\n        /* \"#utility.yul\":526:527   */\n      dup1\n        /* \"#utility.yul\":519:531   */\n      revert\n        /* \"#utility.yul\":470:533   */\n    tag_88:\n        /* \"#utility.yul\":417:539   */\n      pop\n      jump\t// out\n        /* \"#utility.yul\":545:684   */\n    tag_60:\n        /* \"#utility.yul\":591:596   */\n      0x00\n        /* \"#utility.yul\":629:635   */\n      dup2\n        /* \"#utility.yul\":616:636   */\n      calldataload\n        /* \"#utility.yul\":607:636   */\n      swap1\n      pop\n        /* \"#utility.yul\":645:678   */\n      tag_90\n        /* \"#utility.yul\":672:677   */\n      dup2\n        /* \"#utility.yul\":645:678   */\n      tag_59\n      jump\t// in\n    tag_90:\n        /* \"#utility.yul\":545:684   */\n      swap3\n      swap2\n      pop\n      pop\n      jump\t// out\n        /* \"#utility.yul\":690:1019   */\n    tag_7:\n        /* \"#utility.yul\":749:755   */\n      0x00\n        /* \"#utility.yul\":798:800   */\n      0x20\n        /* \"#utility.yul\":786:795   */\n      dup3\n        /* \"#utility.yul\":777:784   */\n      dup5\n        /* \"#utility.yul\":773:796   */\n      sub\n        /* \"#utility.yul\":769:801   */\n      slt\n        /* \"#utility.yul\":766:885   */\n      iszero\n      tag_92\n      jumpi\n        /* \"#utility.yul\":804:883   */\n      tag_93\n      tag_56\n      jump\t// in\n    tag_93:\n        /* \"#utility.yul\":766:885   */\n    tag_92:\n        /* \"#utility.yul\":924:925   */\n      0x00\n        /* \"#utility.yul\":949:1002   */\n      tag_94\n        /* \"#utility.yul\":994:1001   */\n      dup5\n        /* \"#utility.yul\":985:991   */\n      dup3\n        /* \"#utility.yul\":974:983   */\n      dup6\n        /* \"#utility.yul\":970:992   */\n      add\n        /* \"#utility.yul\":949:1002   */\n      tag_60\n      jump\t// in\n    tag_94:\n        /* \"#utility.yul\":939:1002   */\n      swap2\n      pop\n        /* \"#utility.yul\":895:1012   */\n      pop\n        /* \"#utility.yul\":690:1019   */\n      swap3\n      swap2\n      pop\n      pop\n      jump\t// out\n        /* \"#utility.yul\":1025:1143   */\n    tag_61:\n        /* \"#utility.yul\":1112:1136   */\n      tag_96\n        /* \"#utility.yul\":1130:1135   */\n      dup2\n        /* \"#utility.yul\":1112:1136   */\n      tag_58\n      jump\t// in\n    tag_96:\n        /* \"#utility.yul\":1107:1110   */\n      dup3\n        /* \"#utility.yul\":1100:1137   */\n      mstore\n        /* \"#utility.yul\":1025:1143   */\n      pop\n      pop\n      jump\t// out\n        /* \"#utility.yul\":1149:1248   */\n    tag_62:\n        /* \"#utility.yul\":1201:1207   */\n      0x00\n        /* \"#utility.yul\":1235:1240   */\n      dup2\n        /* \"#utility.yul\":1229:1241   */\n      mload\n        /* \"#utility.yul\":1219:1241   */\n      swap1\n      pop\n        /* \"#utility.yul\":1149:1248   */\n      swap2\n      swap1\n      pop\n      jump\t// out\n        /* \"#utility.yul\":1254:1423   */\n    tag_63:\n        /* \"#utility.yul\":1338:1349   */\n      0x00\n        /* \"#utility.yul\":1372:1378   */\n      dup3\n        /* \"#utility.yul\":1367:1370   */\n      dup3\n        /* \"#utility.yul\":1360:1379   */\n      mstore\n        /* \"#utility.yul\":1412:1416   */\n      0x20\n        /* \"#utility.yul\":1407:1410   */\n      dup3\n        /* \"#utility.yul\":1403:1417   */\n      add\n        /* \"#utility.yul\":1388:1417   */\n      swap1\n      pop\n        /* \"#utility.yul\":1254:1423   */\n      swap3\n      swap2\n      pop\n      pop\n      jump\t// out\n        /* \"#utility.yul\":1429:1736   */\n    tag_64:\n        /* \"#utility.yul\":1497:1498   */\n      0x00\n        /* \"#utility.yul\":1507:1620   */\n    tag_100:\n        /* \"#utility.yul\":1521:1527   */\n      dup4\n        /* \"#utility.yul\":1518:1519   */\n      dup2\n        /* \"#utility.yul\":1515:1528   */\n      lt\n        /* \"#utility.yul\":1507:1620   */\n      iszero\n      tag_102\n      jumpi\n        /* \"#utility.yul\":1606:1607   */\n      dup1\n        /* \"#utility.yul\":1601:1604   */\n      dup3\n        /* \"#utility.yul\":1597:1608   */\n      add\n        /* \"#utility.yul\":1591:1609   */\n      mload\n        /* \"#utility.yul\":1587:1588   */\n      dup2\n        /* \"#utility.yul\":1582:1585   */\n      dup5\n        /* \"#utility.yul\":1578:1589   */\n      add\n        /* \"#utility.yul\":1571:1610   */\n      mstore\n        /* \"#utility.yul\":1543:1545   */\n      0x20\n        /* \"#utility.yul\":1540:1541   */\n      dup2\n        /* \"#utility.yul\":1536:1546   */\n      add\n        /* \"#utility.yul\":1531:1546   */\n      swap1\n      pop\n        /* \"#utility.yul\":1507:1620   */\n      jump(tag_100)\n    tag_102:\n        /* \"#utility.yul\":1638:1644   */\n      dup4\n        /* \"#utility.yul\":1635:1636   */\n      dup2\n        /* \"#utility.yul\":1632:1645   */\n      gt\n        /* \"#utility.yul\":1629:1730   */\n      iszero\n      tag_103\n      jumpi\n        /* \"#utility.yul\":1718:1719   */\n      0x00\n        /* \"#utility.yul\":1709:1715   */\n      dup5\n        /* \"#utility.yul\":1704:1707   */\n      dup5\n        /* \"#utility.yul\":1700:1716   */\n      add\n        /* \"#utility.yul\":1693:1720   */\n      mstore\n        /* \"#utility.yul\":1629:1730   */\n    tag_103:\n        /* \"#utility.yul\":1478:1736   */\n      pop\n        /* \"#utility.yul\":1429:1736   */\n      pop\n      pop\n      pop\n      jump\t// out\n        /* \"#utility.yul\":1742:1844   */\n    tag_65:\n        /* \"#utility.yul\":1783:1789   */\n      0x00\n        /* \"#utility.yul\":1834:1836   */\n      0x1f\n        /* \"#utility.yul\":1830:1837   */\n      not\n        /* \"#utility.yul\":1825:1827   */\n      0x1f\n        /* \"#utility.yul\":1818:1823   */\n      dup4\n        /* \"#utility.yul\":1814:1828   */\n      add\n        /* \"#utility.yul\":1810:1838   */\n      and\n        /* \"#utility.yul\":1800:1838   */\n      swap1\n      pop\n        /* \"#utility.yul\":1742:1844   */\n      swap2\n      swap1\n      pop\n      jump\t// out\n        /* \"#utility.yul\":1850:2214   */\n    tag_66:\n        /* \"#utility.yul\":1938:1941   */\n      0x00\n        /* \"#utility.yul\":1966:2005   */\n      tag_106\n        /* \"#utility.yul\":1999:2004   */\n      dup3\n        /* \"#utility.yul\":1966:2005   */\n      tag_62\n      jump\t// in\n    tag_106:\n        /* \"#utility.yul\":2021:2092   */\n      tag_107\n        /* \"#utility.yul\":2085:2091   */\n      dup2\n        /* \"#utility.yul\":2080:2083   */\n      dup6\n        /* \"#utility.yul\":2021:2092   */\n      tag_63\n      jump\t// in\n    tag_107:\n        /* \"#utility.yul\":2014:2092   */\n      swap4\n      pop\n        /* \"#utility.yul\":2101:2153   */\n      tag_108\n        /* \"#utility.yul\":2146:2152   */\n      dup2\n        /* \"#utility.yul\":2141:2144   */\n      dup6\n        /* \"#utility.yul\":2134:2138   */\n      0x20\n        /* \"#utility.yul\":2127:2132   */\n      dup7\n        /* \"#utility.yul\":2123:2139   */\n      add\n        /* \"#utility.yul\":2101:2153   */\n      tag_64\n      jump\t// in\n    tag_108:\n        /* \"#utility.yul\":2178:2207   */\n      tag_109\n        /* \"#utility.yul\":2200:2206   */\n      dup2\n        /* \"#utility.yul\":2178:2207   */\n      tag_65\n      jump\t// in\n    tag_109:\n        /* \"#utility.yul\":2173:2176   */\n      dup5\n        /* \"#utility.yul\":2169:2208   */\n      add\n        /* \"#utility.yul\":2162:2208   */\n      swap2\n      pop\n        /* \"#utility.yul\":1942:2214   */\n      pop\n        /* \"#utility.yul\":1850:2214   */\n      swap3\n      swap2\n      pop\n      pop\n      jump\t// out\n        /* \"#utility.yul\":2220:2643   */\n    tag_10:\n        /* \"#utility.yul\":2361:2365   */\n      0x00\n        /* \"#utility.yul\":2399:2401   */\n      0x40\n        /* \"#utility.yul\":2388:2397   */\n      dup3\n        /* \"#utility.yul\":2384:2402   */\n      add\n        /* \"#utility.yul\":2376:2402   */\n      swap1\n      pop\n        /* \"#utility.yul\":2412:2483   */\n      tag_111\n        /* \"#utility.yul\":2480:2481   */\n      0x00\n        /* \"#utility.yul\":2469:2478   */\n      dup4\n        /* \"#utility.yul\":2465:2482   */\n      add\n        /* \"#utility.yul\":2456:2462   */\n      dup6\n        /* \"#utility.yul\":2412:2483   */\n      tag_61\n      jump\t// in\n    tag_111:\n        /* \"#utility.yul\":2530:2539   */\n      dup2\n        /* \"#utility.yul\":2524:2528   */\n      dup2\n        /* \"#utility.yul\":2520:2540   */\n      sub\n        /* \"#utility.yul\":2515:2517   */\n      0x20\n        /* \"#utility.yul\":2504:2513   */\n      dup4\n        /* \"#utility.yul\":2500:2518   */\n      add\n        /* \"#utility.yul\":2493:2541   */\n      mstore\n        /* \"#utility.yul\":2558:2636   */\n      tag_112\n        /* \"#utility.yul\":2631:2635   */\n      dup2\n        /* \"#utility.yul\":2622:2628   */\n      dup5\n        /* \"#utility.yul\":2558:2636   */\n      tag_66\n      jump\t// in\n    tag_112:\n        /* \"#utility.yul\":2550:2636   */\n      swap1\n      pop\n        /* \"#utility.yul\":2220:2643   */\n      swap4\n      swap3\n      pop\n      pop\n      pop\n      jump\t// out\n        /* \"#utility.yul\":2649:2766   */\n    tag_67:\n        /* \"#utility.yul\":2758:2759   */\n      0x00\n        /* \"#utility.yul\":2755:2756   */\n      dup1\n        /* \"#utility.yul\":2748:2760   */\n      revert\n        /* \"#utility.yul\":2772:2889   */\n    tag_68:\n        /* \"#utility.yul\":2881:2882   */\n      0x00\n        /* \"#utility.yul\":2878:2879   */\n      dup1\n        /* \"#utility.yul\":2871:2883   */\n      revert\n        /* \"#utility.yul\":2895:3075   */\n    tag_69:\n        /* \"#utility.yul\":2943:3020   */\n      0x4e487b7100000000000000000000000000000000000000000000000000000000\n        /* \"#utility.yul\":2940:2941   */\n      0x00\n        /* \"#utility.yul\":2933:3021   */\n      mstore\n        /* \"#utility.yul\":3040:3044   */\n      0x41\n        /* \"#utility.yul\":3037:3038   */\n      0x04\n        /* \"#utility.yul\":3030:3045   */\n      mstore\n        /* \"#utility.yul\":3064:3068   */\n      0x24\n        /* \"#utility.yul\":3061:3062   */\n      0x00\n        /* \"#utility.yul\":3054:3069   */\n      revert\n        /* \"#utility.yul\":3081:3362   */\n    tag_70:\n        /* \"#utility.yul\":3164:3191   */\n      tag_117\n        /* \"#utility.yul\":3186:3190   */\n      dup3\n        /* \"#utility.yul\":3164:3191   */\n      tag_65\n      jump\t// in\n    tag_117:\n        /* \"#utility.yul\":3156:3162   */\n      dup2\n        /* \"#utility.yul\":3152:3192   */\n      add\n        /* \"#utility.yul\":3294:3300   */\n      dup2\n        /* \"#utility.yul\":3282:3292   */\n      dup2\n        /* \"#utility.yul\":3279:3301   */\n      lt\n        /* \"#utility.yul\":3258:3276   */\n      0xffffffffffffffff\n        /* \"#utility.yul\":3246:3256   */\n      dup3\n        /* \"#utility.yul\":3243:3277   */\n      gt\n        /* \"#utility.yul\":3240:3302   */\n      or\n        /* \"#utility.yul\":3237:3325   */\n      iszero\n      tag_118\n      jumpi\n        /* \"#utility.yul\":3305:3323   */\n      tag_119\n      tag_69\n      jump\t// in\n    tag_119:\n        /* \"#utility.yul\":3237:3325   */\n    tag_118:\n        /* \"#utility.yul\":3345:3355   */\n      dup1\n        /* \"#utility.yul\":3341:3343   */\n      0x40\n        /* \"#utility.yul\":3334:3356   */\n      mstore\n        /* \"#utility.yul\":3124:3362   */\n      pop\n        /* \"#utility.yul\":3081:3362   */\n      pop\n      pop\n      jump\t// out\n        /* \"#utility.yul\":3368:3497   */\n    tag_71:\n        /* \"#utility.yul\":3402:3408   */\n      0x00\n        /* \"#utility.yul\":3429:3449   */\n      tag_121\n      tag_55\n      jump\t// in\n    tag_121:\n        /* \"#utility.yul\":3419:3449   */\n      swap1\n      pop\n        /* \"#utility.yul\":3458:3491   */\n      tag_122\n        /* \"#utility.yul\":3486:3490   */\n      dup3\n        /* \"#utility.yul\":3478:3484   */\n      dup3\n        /* \"#utility.yul\":3458:3491   */\n      tag_70\n      jump\t// in\n    tag_122:\n        /* \"#utility.yul\":3368:3497   */\n      swap2\n      swap1\n      pop\n      jump\t// out\n        /* \"#utility.yul\":3503:3811   */\n    tag_72:\n        /* \"#utility.yul\":3565:3569   */\n      0x00\n        /* \"#utility.yul\":3655:3673   */\n      0xffffffffffffffff\n        /* \"#utility.yul\":3647:3653   */\n      dup3\n        /* \"#utility.yul\":3644:3674   */\n      gt\n        /* \"#utility.yul\":3641:3697   */\n      iszero\n      tag_124\n      jumpi\n        /* \"#utility.yul\":3677:3695   */\n      tag_125\n      tag_69\n      jump\t// in\n    tag_125:\n        /* \"#utility.yul\":3641:3697   */\n    tag_124:\n        /* \"#utility.yul\":3715:3744   */\n      tag_126\n        /* \"#utility.yul\":3737:3743   */\n      dup3\n        /* \"#utility.yul\":3715:3744   */\n      tag_65\n      jump\t// in\n    tag_126:\n        /* \"#utility.yul\":3707:3744   */\n      swap1\n      pop\n        /* \"#utility.yul\":3799:3803   */\n      0x20\n        /* \"#utility.yul\":3793:3797   */\n      dup2\n        /* \"#utility.yul\":3789:3804   */\n      add\n        /* \"#utility.yul\":3781:3804   */\n      swap1\n      pop\n        /* \"#utility.yul\":3503:3811   */\n      swap2\n      swap1\n      pop\n      jump\t// out\n        /* \"#utility.yul\":3817:3971   */\n    tag_73:\n        /* \"#utility.yul\":3901:3907   */\n      dup3\n        /* \"#utility.yul\":3896:3899   */\n      dup2\n        /* \"#utility.yul\":3891:3894   */\n      dup4\n        /* \"#utility.yul\":3878:3908   */\n      calldatacopy\n        /* \"#utility.yul\":3963:3964   */\n      0x00\n        /* \"#utility.yul\":3954:3960   */\n      dup4\n        /* \"#utility.yul\":3949:3952   */\n      dup4\n        /* \"#utility.yul\":3945:3961   */\n      add\n        /* \"#utility.yul\":3938:3965   */\n      mstore\n        /* \"#utility.yul\":3817:3971   */\n      pop\n      pop\n      pop\n      jump\t// out\n        /* \"#utility.yul\":3977:4389   */\n    tag_74:\n        /* \"#utility.yul\":4055:4060   */\n      0x00\n        /* \"#utility.yul\":4080:4146   */\n      tag_129\n        /* \"#utility.yul\":4096:4145   */\n      tag_130\n        /* \"#utility.yul\":4138:4144   */\n      dup5\n        /* \"#utility.yul\":4096:4145   */\n      tag_72\n      jump\t// in\n    tag_130:\n        /* \"#utility.yul\":4080:4146   */\n      tag_71\n      jump\t// in\n    tag_129:\n        /* \"#utility.yul\":4071:4146   */\n      swap1\n      pop\n        /* \"#utility.yul\":4169:4175   */\n      dup3\n        /* \"#utility.yul\":4162:4167   */\n      dup2\n        /* \"#utility.yul\":4155:4176   */\n      mstore\n        /* \"#utility.yul\":4207:4211   */\n      0x20\n        /* \"#utility.yul\":4200:4205   */\n      dup2\n        /* \"#utility.yul\":4196:4212   */\n      add\n        /* \"#utility.yul\":4245:4248   */\n      dup5\n        /* \"#utility.yul\":4236:4242   */\n      dup5\n        /* \"#utility.yul\":4231:4234   */\n      dup5\n        /* \"#utility.yul\":4227:4243   */\n      add\n        /* \"#utility.yul\":4224:4249   */\n      gt\n        /* \"#utility.yul\":4221:4333   */\n      iszero\n      tag_131\n      jumpi\n        /* \"#utility.yul\":4252:4331   */\n      tag_132\n      tag_68\n      jump\t// in\n    tag_132:\n        /* \"#utility.yul\":4221:4333   */\n    tag_131:\n        /* \"#utility.yul\":4342:4383   */\n      tag_133\n        /* \"#utility.yul\":4376:4382   */\n      dup5\n        /* \"#utility.yul\":4371:4374   */\n      dup3\n        /* \"#utility.yul\":4366:4369   */\n      dup6\n        /* \"#utility.yul\":4342:4383   */\n      tag_73\n      jump\t// in\n    tag_133:\n        /* \"#utility.yul\":4061:4389   */\n      pop\n        /* \"#utility.yul\":3977:4389   */\n      swap4\n      swap3\n      pop\n      pop\n      pop\n      jump\t// out\n        /* \"#utility.yul\":4409:4749   */\n    tag_75:\n        /* \"#utility.yul\":4465:4470   */\n      0x00\n        /* \"#utility.yul\":4514:4517   */\n      dup3\n        /* \"#utility.yul\":4507:4511   */\n      0x1f\n        /* \"#utility.yul\":4499:4505   */\n      dup4\n        /* \"#utility.yul\":4495:4512   */\n      add\n        /* \"#utility.yul\":4491:4518   */\n      slt\n        /* \"#utility.yul\":4481:4603   */\n      tag_135\n      jumpi\n        /* \"#utility.yul\":4522:4601   */\n      tag_136\n      tag_67\n      jump\t// in\n    tag_136:\n        /* \"#utility.yul\":4481:4603   */\n    tag_135:\n        /* \"#utility.yul\":4639:4645   */\n      dup2\n        /* \"#utility.yul\":4626:4646   */\n      calldataload\n        /* \"#utility.yul\":4664:4743   */\n      tag_137\n        /* \"#utility.yul\":4739:4742   */\n      dup5\n        /* \"#utility.yul\":4731:4737   */\n      dup3\n        /* \"#utility.yul\":4724:4728   */\n      0x20\n        /* \"#utility.yul\":4716:4722   */\n      dup7\n        /* \"#utility.yul\":4712:4729   */\n      add\n        /* \"#utility.yul\":4664:4743   */\n      tag_74\n      jump\t// in\n    tag_137:\n        /* \"#utility.yul\":4655:4743   */\n      swap2\n      pop\n        /* \"#utility.yul\":4471:4749   */\n      pop\n        /* \"#utility.yul\":4409:4749   */\n      swap3\n      swap2\n      pop\n      pop\n      jump\t// out\n        /* \"#utility.yul\":4755:5264   */\n    tag_13:\n        /* \"#utility.yul\":4824:4830   */\n      0x00\n        /* \"#utility.yul\":4873:4875   */\n      0x20\n        /* \"#utility.yul\":4861:4870   */\n      dup3\n        /* \"#utility.yul\":4852:4859   */\n      dup5\n        /* \"#utility.yul\":4848:4871   */\n      sub\n        /* \"#utility.yul\":4844:4876   */\n      slt\n        /* \"#utility.yul\":4841:4960   */\n      iszero\n      tag_139\n      jumpi\n        /* \"#utility.yul\":4879:4958   */\n      tag_140\n      tag_56\n      jump\t// in\n    tag_140:\n        /* \"#utility.yul\":4841:4960   */\n    tag_139:\n        /* \"#utility.yul\":5027:5028   */\n      0x00\n        /* \"#utility.yul\":5016:5025   */\n      dup3\n        /* \"#utility.yul\":5012:5029   */\n      add\n        /* \"#utility.yul\":4999:5030   */\n      calldataload\n        /* \"#utility.yul\":5057:5075   */\n      0xffffffffffffffff\n        /* \"#utility.yul\":5049:5055   */\n      dup2\n        /* \"#utility.yul\":5046:5076   */\n      gt\n        /* \"#utility.yul\":5043:5160   */\n      iszero\n      tag_141\n      jumpi\n        /* \"#utility.yul\":5079:5158   */\n      tag_142\n      tag_57\n      jump\t// in\n    tag_142:\n        /* \"#utility.yul\":5043:5160   */\n    tag_141:\n        /* \"#utility.yul\":5184:5247   */\n      tag_143\n        /* \"#utility.yul\":5239:5246   */\n      dup5\n        /* \"#utility.yul\":5230:5236   */\n      dup3\n        /* \"#utility.yul\":5219:5228   */\n      dup6\n        /* \"#utility.yul\":5215:5237   */\n      add\n        /* \"#utility.yul\":5184:5247   */\n      tag_75\n      jump\t// in\n    tag_143:\n        /* \"#utility.yul\":5174:5247   */\n      swap2\n      pop\n        /* \"#utility.yul\":4970:5257   */\n      pop\n        /* \"#utility.yul\":4755:5264   */\n      swap3\n      swap2\n      pop\n      pop\n      jump\t// out\n        /* \"#utility.yul\":5270:5450   */\n    tag_76:\n        /* \"#utility.yul\":5318:5395   */\n      0x4e487b7100000000000000000000000000000000000000000000000000000000\n        /* \"#utility.yul\":5315:5316   */\n      0x00\n        /* \"#utility.yul\":5308:5396   */\n      mstore\n        /* \"#utility.yul\":5415:5419   */\n      0x22\n        /* \"#utility.yul\":5412:5413   */\n      0x04\n        /* \"#utility.yul\":5405:5420   */\n      mstore\n        /* \"#utility.yul\":5439:5443   */\n      0x24\n        /* \"#utility.yul\":5436:5437   */\n      0x00\n        /* \"#utility.yul\":5429:5444   */\n      revert\n        /* \"#utility.yul\":5456:5776   */\n    tag_18:\n        /* \"#utility.yul\":5500:5506   */\n      0x00\n        /* \"#utility.yul\":5537:5538   */\n      0x02\n        /* \"#utility.yul\":5531:5535   */\n      dup3\n        /* \"#utility.yul\":5527:5539   */\n      div\n        /* \"#utility.yul\":5517:5539   */\n      swap1\n      pop\n        /* \"#utility.yul\":5584:5585   */\n      0x01\n        /* \"#utility.yul\":5578:5582   */\n      dup3\n        /* \"#utility.yul\":5574:5586   */\n      and\n        /* \"#utility.yul\":5605:5623   */\n      dup1\n        /* \"#utility.yul\":5595:5676   */\n      tag_146\n      jumpi\n        /* \"#utility.yul\":5661:5665   */\n      0x7f\n        /* \"#utility.yul\":5653:5659   */\n      dup3\n        /* \"#utility.yul\":5649:5666   */\n      and\n        /* \"#utility.yul\":5639:5666   */\n      swap2\n      pop\n        /* \"#utility.yul\":5595:5676   */\n    tag_146:\n        /* \"#utility.yul\":5723:5725   */\n      0x20\n        /* \"#utility.yul\":5715:5721   */\n      dup3\n        /* \"#utility.yul\":5712:5726   */\n      lt\n        /* \"#utility.yul\":5692:5710   */\n      dup2\n        /* \"#utility.yul\":5689:5727   */\n      sub\n        /* \"#utility.yul\":5686:5770   */\n      tag_147\n      jumpi\n        /* \"#utility.yul\":5742:5760   */\n      tag_148\n      tag_76\n      jump\t// in\n    tag_148:\n        /* \"#utility.yul\":5686:5770   */\n    tag_147:\n        /* \"#utility.yul\":5507:5776   */\n      pop\n        /* \"#utility.yul\":5456:5776   */\n      swap2\n      swap1\n      pop\n      jump\t// out\n        /* \"#utility.yul\":5782:5930   */\n    tag_77:\n        /* \"#utility.yul\":5884:5895   */\n      0x00\n        /* \"#utility.yul\":5921:5924   */\n      dup2\n        /* \"#utility.yul\":5906:5924   */\n      swap1\n      pop\n        /* \"#utility.yul\":5782:5930   */\n      swap3\n      swap2\n      pop\n      pop\n      jump\t// out\n        /* \"#utility.yul\":5936:6313   */\n    tag_78:\n        /* \"#utility.yul\":6042:6045   */\n      0x00\n        /* \"#utility.yul\":6070:6109   */\n      tag_151\n        /* \"#utility.yul\":6103:6108   */\n      dup3\n        /* \"#utility.yul\":6070:6109   */\n      tag_62\n      jump\t// in\n    tag_151:\n        /* \"#utility.yul\":6125:6214   */\n      tag_152\n        /* \"#utility.yul\":6207:6213   */\n      dup2\n        /* \"#utility.yul\":6202:6205   */\n      dup6\n        /* \"#utility.yul\":6125:6214   */\n      tag_77\n      jump\t// in\n    tag_152:\n        /* \"#utility.yul\":6118:6214   */\n      swap4\n      pop\n        /* \"#utility.yul\":6223:6275   */\n      tag_153\n        /* \"#utility.yul\":6268:6274   */\n      dup2\n        /* \"#utility.yul\":6263:6266   */\n      dup6\n        /* \"#utility.yul\":6256:6260   */\n      0x20\n        /* \"#utility.yul\":6249:6254   */\n      dup7\n        /* \"#utility.yul\":6245:6261   */\n      add\n        /* \"#utility.yul\":6223:6275   */\n      tag_64\n      jump\t// in\n    tag_153:\n        /* \"#utility.yul\":6300:6306   */\n      dup1\n        /* \"#utility.yul\":6295:6298   */\n      dup5\n        /* \"#utility.yul\":6291:6307   */\n      add\n        /* \"#utility.yul\":6284:6307   */\n      swap2\n      pop\n        /* \"#utility.yul\":6046:6313   */\n      pop\n        /* \"#utility.yul\":5936:6313   */\n      swap3\n      swap2\n      pop\n      pop\n      jump\t// out\n        /* \"#utility.yul\":6319:6594   */\n    tag_31:\n        /* \"#utility.yul\":6451:6454   */\n      0x00\n        /* \"#utility.yul\":6473:6568   */\n      tag_155\n        /* \"#utility.yul\":6564:6567   */\n      dup3\n        /* \"#utility.yul\":6555:6561   */\n      dup5\n        /* \"#utility.yul\":6473:6568   */\n      tag_78\n      jump\t// in\n    tag_155:\n        /* \"#utility.yul\":6466:6568   */\n      swap2\n      pop\n        /* \"#utility.yul\":6585:6588   */\n      dup2\n        /* \"#utility.yul\":6578:6588   */\n      swap1\n      pop\n        /* \"#utility.yul\":6319:6594   */\n      swap3\n      swap2\n      pop\n      pop\n      jump\t// out\n        /* \"#utility.yul\":6600:6780   */\n    tag_79:\n        /* \"#utility.yul\":6648:6725   */\n      0x4e487b7100000000000000000000000000000000000000000000000000000000\n        /* \"#utility.yul\":6645:6646   */\n      0x00\n        /* \"#utility.yul\":6638:6726   */\n      mstore\n        /* \"#utility.yul\":6745:6749   */\n      0x12\n        /* \"#utility.yul\":6742:6743   */\n      0x04\n        /* \"#utility.yul\":6735:6750   */\n      mstore\n        /* \"#utility.yul\":6769:6773   */\n      0x24\n        /* \"#utility.yul\":6766:6767   */\n      0x00\n        /* \"#utility.yul\":6759:6774   */\n      revert\n        /* \"#utility.yul\":6786:6962   */\n    tag_33:\n        /* \"#utility.yul\":6818:6819   */\n      0x00\n        /* \"#utility.yul\":6835:6855   */\n      tag_158\n        /* \"#utility.yul\":6853:6854   */\n      dup3\n        /* \"#utility.yul\":6835:6855   */\n      tag_58\n      jump\t// in\n    tag_158:\n        /* \"#utility.yul\":6830:6855   */\n      swap2\n      pop\n        /* \"#utility.yul\":6869:6889   */\n      tag_159\n        /* \"#utility.yul\":6887:6888   */\n      dup4\n        /* \"#utility.yul\":6869:6889   */\n      tag_58\n      jump\t// in\n    tag_159:\n        /* \"#utility.yul\":6864:6889   */\n      swap3\n      pop\n        /* \"#utility.yul\":6908:6909   */\n      dup3\n        /* \"#utility.yul\":6898:6933   */\n      tag_160\n      jumpi\n        /* \"#utility.yul\":6913:6931   */\n      tag_161\n      tag_79\n      jump\t// in\n    tag_161:\n        /* \"#utility.yul\":6898:6933   */\n    tag_160:\n        /* \"#utility.yul\":6954:6955   */\n      dup3\n        /* \"#utility.yul\":6951:6952   */\n      dup3\n        /* \"#utility.yul\":6947:6956   */\n      mod\n        /* \"#utility.yul\":6942:6956   */\n      swap1\n      pop\n        /* \"#utility.yul\":6786:6962   */\n      swap3\n      swap2\n      pop\n      pop\n      jump\t// out\n        /* \"#utility.yul\":6968:7148   */\n    tag_80:\n        /* \"#utility.yul\":7016:7093   */\n      0x4e487b7100000000000000000000000000000000000000000000000000000000\n        /* \"#utility.yul\":7013:7014   */\n      0x00\n        /* \"#utility.yul\":7006:7094   */\n      mstore\n        /* \"#utility.yul\":7113:7117   */\n      0x11\n        /* \"#utility.yul\":7110:7111   */\n      0x04\n        /* \"#utility.yul\":7103:7118   */\n      mstore\n        /* \"#utility.yul\":7137:7141   */\n      0x24\n        /* \"#utility.yul\":7134:7135   */\n      0x00\n        /* \"#utility.yul\":7127:7142   */\n      revert\n        /* \"#utility.yul\":7154:7345   */\n    tag_39:\n        /* \"#utility.yul\":7194:7198   */\n      0x00\n        /* \"#utility.yul\":7214:7234   */\n      tag_164\n        /* \"#utility.yul\":7232:7233   */\n      dup3\n        /* \"#utility.yul\":7214:7234   */\n      tag_58\n      jump\t// in\n    tag_164:\n        /* \"#utility.yul\":7209:7234   */\n      swap2\n      pop\n        /* \"#utility.yul\":7248:7268   */\n      tag_165\n        /* \"#utility.yul\":7266:7267   */\n      dup4\n        /* \"#utility.yul\":7248:7268   */\n      tag_58\n      jump\t// in\n    tag_165:\n        /* \"#utility.yul\":7243:7268   */\n      swap3\n      pop\n        /* \"#utility.yul\":7287:7288   */\n      dup3\n        /* \"#utility.yul\":7284:7285   */\n      dup3\n        /* \"#utility.yul\":7281:7289   */\n      lt\n        /* \"#utility.yul\":7278:7312   */\n      iszero\n      tag_166\n      jumpi\n        /* \"#utility.yul\":7292:7310   */\n      tag_167\n      tag_80\n      jump\t// in\n    tag_167:\n        /* \"#utility.yul\":7278:7312   */\n    tag_166:\n        /* \"#utility.yul\":7337:7338   */\n      dup3\n        /* \"#utility.yul\":7334:7335   */\n      dup3\n        /* \"#utility.yul\":7330:7339   */\n      sub\n        /* \"#utility.yul\":7322:7339   */\n      swap1\n      pop\n        /* \"#utility.yul\":7154:7345   */\n      swap3\n      swap2\n      pop\n      pop\n      jump\t// out\n        /* \"#utility.yul\":7351:7584   */\n    tag_41:\n        /* \"#utility.yul\":7390:7393   */\n      0x00\n        /* \"#utility.yul\":7413:7437   */\n      tag_169\n        /* \"#utility.yul\":7431:7436   */\n      dup3\n        /* \"#utility.yul\":7413:7437   */\n      tag_58\n      jump\t// in\n    tag_169:\n        /* \"#utility.yul\":7404:7437   */\n      swap2\n      pop\n        /* \"#utility.yul\":7459:7525   */\n      0xffffffffffffffffffffffffffffffffffffffffffffffffffffffffffffffff\n        /* \"#utility.yul\":7452:7457   */\n      dup3\n        /* \"#utility.yul\":7449:7526   */\n      sub\n        /* \"#utility.yul\":7446:7549   */\n      tag_170\n      jumpi\n        /* \"#utility.yul\":7529:7547   */\n      tag_171\n      tag_80\n      jump\t// in\n    tag_171:\n        /* \"#utility.yul\":7446:7549   */\n    tag_170:\n        /* \"#utility.yul\":7576:7577   */\n      0x01\n        /* \"#utility.yul\":7569:7574   */\n      dup3\n        /* \"#utility.yul\":7565:7578   */\n      add\n        /* \"#utility.yul\":7558:7578   */\n      swap1\n      pop\n        /* \"#utility.yul\":7351:7584   */\n      swap2\n      swap1\n      pop\n      jump\t// out\n        /* \"#utility.yul\":7590:8123   */\n    tag_44:\n        /* \"#utility.yul\":7759:7763   */\n      0x00\n        /* \"#utility.yul\":7797:7799   */\n      0x60\n        /* \"#utility.yul\":7786:7795   */\n      dup3\n        /* \"#utility.yul\":7782:7800   */\n      add\n        /* \"#utility.yul\":7774:7800   */\n      swap1\n      pop\n        /* \"#utility.yul\":7810:7881   */\n      tag_173\n        /* \"#utility.yul\":7878:7879   */\n      0x00\n        /* \"#utility.yul\":7867:7876   */\n      dup4\n        /* \"#utility.yul\":7863:7880   */\n      add\n        /* \"#utility.yul\":7854:7860   */\n      dup7\n        /* \"#utility.yul\":7810:7881   */\n      tag_61\n      jump\t// in\n    tag_173:\n        /* \"#utility.yul\":7928:7937   */\n      dup2\n        /* \"#utility.yul\":7922:7926   */\n      dup2\n        /* \"#utility.yul\":7918:7938   */\n      sub\n        /* \"#utility.yul\":7913:7915   */\n      0x20\n        /* \"#utility.yul\":7902:7911   */\n      dup4\n        /* \"#utility.yul\":7898:7916   */\n      add\n        /* \"#utility.yul\":7891:7939   */\n      mstore\n        /* \"#utility.yul\":7956:8034   */\n      tag_174\n        /* \"#utility.yul\":8029:8033   */\n      dup2\n        /* \"#utility.yul\":8020:8026   */\n      dup6\n        /* \"#utility.yul\":7956:8034   */\n      tag_66\n      jump\t// in\n    tag_174:\n        /* \"#utility.yul\":7948:8034   */\n      swap1\n      pop\n        /* \"#utility.yul\":8044:8116   */\n      tag_175\n        /* \"#utility.yul\":8112:8114   */\n      0x40\n        /* \"#utility.yul\":8101:8110   */\n      dup4\n        /* \"#utility.yul\":8097:8115   */\n      add\n        /* \"#utility.yul\":8088:8094   */\n      dup5\n        /* \"#utility.yul\":8044:8116   */\n      tag_61\n      jump\t// in\n    tag_175:\n        /* \"#utility.yul\":7590:8123   */\n      swap5\n      swap4\n      pop\n      pop\n      pop\n      pop\n      jump\t// out\n\n    auxdata: 0xa26469706673582212202142f1f9bb722f703f71344cd758cc59255dffeae48dd73394e41615bf4a30b564736f6c634300080e0033\n}\n",
				"bytecode": {
					"linkReferences": {},
					"object": "60806040526010600055600054600a6200001a9190620001be565b6001553480156200002a57600080fd5b506200020f565b7f4e487b7100000000000000000000000000000000000000000000000000000000600052601160045260246000fd5b60008160011c9050919050565b6000808291508390505b6001851115620000bf5780860481111562000097576200009662000031565b5b6001851615620000a75780820291505b8081029050620000b78562000060565b945062000077565b94509492505050565b600082620000da5760019050620001ad565b81620000ea5760009050620001ad565b81600181146200010357600281146200010e5762000144565b6001915050620001ad565b60ff84111562000123576200012262000031565b5b8360020a9150848211156200013d576200013c62000031565b5b50620001ad565b5060208310610133831016604e8410600b84101617156200017e5782820a90508381111562000178576200017762000031565b5b620001ad565b6200018d84848460016200006d565b92509050818404811115620001a757620001a662000031565b5b81810290505b9392505050565b6000819050919050565b6000620001cb82620001b4565b9150620001d883620001b4565b9250620002077fffffffffffffffffffffffffffffffffffffffffffffffffffffffffffffffff8484620000c8565b905092915050565b610903806200021f6000396000f3fe608060405234801561001057600080fd5b50600436106100365760003560e01c80632052465e1461003b578063c6f151121461006c575b600080fd5b6100556004803603810190610050919061044e565b610088565b604051610063929190610523565b60405180910390f35b61008660048036038101906100819190610688565b610144565b005b6002818154811061009857600080fd5b90600052602060002090600202016000915090508060000154908060010180546100c190610700565b80601f01602080910402602001604051908101604052809291908181526020018280546100ed90610700565b801561013a5780601f1061010f5761010080835404028352916020019161013a565b820191906000526020600020905b81548152906001019060200180831161011d57829003601f168201915b5050505050905082565b6000600460003373ffffffffffffffffffffffffffffffffffffffff1673ffffffffffffffffffffffffffffffffffffffff168152602001908152602001600020541461019057600080fd5b600061019b826101ab565b90506101a782826101f0565b5050565b600080826040516020016101bf919061076d565b6040516020818303038152906040528051906020012060001c9050600154816101e891906107b3565b915050919050565b60026040518060400160405280838152602001848152509080600181540180825580915050600190039060005260206000209060020201600090919091909150600082015181600001556020820151816001019080519060200190610256929190610361565b505050336003600060016002805490506102709190610813565b815260200190815260200160002060006101000a81548173ffffffffffffffffffffffffffffffffffffffff021916908373ffffffffffffffffffffffffffffffffffffffff160217905550600460003373ffffffffffffffffffffffffffffffffffffffff1673ffffffffffffffffffffffffffffffffffffffff168152602001908152602001600020600081548092919061030c90610847565b91905055507f88f026aacbbecc90c18411df4b1185fd8d9be2470f1962f192bf84a27d0704b760016002805490506103449190610813565b83836040516103559392919061088f565b60405180910390a15050565b82805461036d90610700565b90600052602060002090601f01602090048101928261038f57600085556103d6565b82601f106103a857805160ff19168380011785556103d6565b828001600101855582156103d6579182015b828111156103d55782518255916020019190600101906103ba565b5b5090506103e391906103e7565b5090565b5b808211156104005760008160009055506001016103e8565b5090565b6000604051905090565b600080fd5b600080fd5b6000819050919050565b61042b81610418565b811461043657600080fd5b50565b60008135905061044881610422565b92915050565b6000602082840312156104645761046361040e565b5b600061047284828501610439565b91505092915050565b61048481610418565b82525050565b600081519050919050565b600082825260208201905092915050565b60005b838110156104c45780820151818401526020810190506104a9565b838111156104d3576000848401525b50505050565b6000601f19601f8301169050919050565b60006104f58261048a565b6104ff8185610495565b935061050f8185602086016104a6565b610518816104d9565b840191505092915050565b6000604082019050610538600083018561047b565b818103602083015261054a81846104ea565b90509392505050565b600080fd5b600080fd5b7f4e487b7100000000000000000000000000000000000000000000000000000000600052604160045260246000fd5b610595826104d9565b810181811067ffffffffffffffff821117156105b4576105b361055d565b5b80604052505050565b60006105c7610404565b90506105d3828261058c565b919050565b600067ffffffffffffffff8211156105f3576105f261055d565b5b6105fc826104d9565b9050602081019050919050565b82818337600083830152505050565b600061062b610626846105d8565b6105bd565b90508281526020810184848401111561064757610646610558565b5b610652848285610609565b509392505050565b600082601f83011261066f5761066e610553565b5b813561067f848260208601610618565b91505092915050565b60006020828403121561069e5761069d61040e565b5b600082013567ffffffffffffffff8111156106bc576106bb610413565b5b6106c88482850161065a565b91505092915050565b7f4e487b7100000000000000000000000000000000000000000000000000000000600052602260045260246000fd5b6000600282049050600182168061071857607f821691505b60208210810361072b5761072a6106d1565b5b50919050565b600081905092915050565b60006107478261048a565b6107518185610731565b93506107618185602086016104a6565b80840191505092915050565b6000610779828461073c565b915081905092915050565b7f4e487b7100000000000000000000000000000000000000000000000000000000600052601260045260246000fd5b60006107be82610418565b91506107c983610418565b9250826107d9576107d8610784565b5b828206905092915050565b7f4e487b7100000000000000000000000000000000000000000000000000000000600052601160045260246000fd5b600061081e82610418565b915061082983610418565b92508282101561083c5761083b6107e4565b5b828203905092915050565b600061085282610418565b91507fffffffffffffffffffffffffffffffffffffffffffffffffffffffffffffffff8203610884576108836107e4565b5b600182019050919050565b60006060820190506108a4600083018661047b565b81810360208301526108b681856104ea565b90506108c5604083018461047b565b94935050505056fea26469706673582212202142f1f9bb722f703f71344cd758cc59255dffeae48dd73394e41615bf4a30b564736f6c634300080e0033",
					"opcodes": "PUSH1 0x80 PUSH1 0x40 MSTORE PUSH1 0x10 PUSH1 0x0 SSTORE PUSH1 0x0 SLOAD PUSH1 0xA PUSH3 0x1A SWAP2 SWAP1 PUSH3 0x1BE JUMP JUMPDEST PUSH1 0x1 SSTORE CALLVALUE DUP1 ISZERO PUSH3 0x2A JUMPI PUSH1 0x0 DUP1 REVERT JUMPDEST POP PUSH3 0x20F JUMP JUMPDEST PUSH32 0x4E487B7100000000000000000000000000000000000000000000000000000000 PUSH1 0x0 MSTORE PUSH1 0x11 PUSH1 0x4 MSTORE PUSH1 0x24 PUSH1 0x0 REVERT JUMPDEST PUSH1 0x0 DUP2 PUSH1 0x1 SHR SWAP1 POP SWAP2 SWAP1 POP JUMP JUMPDEST PUSH1 0x0 DUP1 DUP3 SWAP2 POP DUP4 SWAP1 POP JUMPDEST PUSH1 0x1 DUP6 GT ISZERO PUSH3 0xBF JUMPI DUP1 DUP7 DIV DUP2 GT ISZERO PUSH3 0x97 JUMPI PUSH3 0x96 PUSH3 0x31 JUMP JUMPDEST JUMPDEST PUSH1 0x1 DUP6 AND ISZERO PUSH3 0xA7 JUMPI DUP1 DUP3 MUL SWAP2 POP JUMPDEST DUP1 DUP2 MUL SWAP1 POP PUSH3 0xB7 DUP6 PUSH3 0x60 JUMP JUMPDEST SWAP5 POP PUSH3 0x77 JUMP JUMPDEST SWAP5 POP SWAP5 SWAP3 POP POP POP JUMP JUMPDEST PUSH1 0x0 DUP3 PUSH3 0xDA JUMPI PUSH1 0x1 SWAP1 POP PUSH3 0x1AD JUMP JUMPDEST DUP2 PUSH3 0xEA JUMPI PUSH1 0x0 SWAP1 POP PUSH3 0x1AD JUMP JUMPDEST DUP2 PUSH1 0x1 DUP2 EQ PUSH3 0x103 JUMPI PUSH1 0x2 DUP2 EQ PUSH3 0x10E JUMPI PUSH3 0x144 JUMP JUMPDEST PUSH1 0x1 SWAP2 POP POP PUSH3 0x1AD JUMP JUMPDEST PUSH1 0xFF DUP5 GT ISZERO PUSH3 0x123 JUMPI PUSH3 0x122 PUSH3 0x31 JUMP JUMPDEST JUMPDEST DUP4 PUSH1 0x2 EXP SWAP2 POP DUP5 DUP3 GT ISZERO PUSH3 0x13D JUMPI PUSH3 0x13C PUSH3 0x31 JUMP JUMPDEST JUMPDEST POP PUSH3 0x1AD JUMP JUMPDEST POP PUSH1 0x20 DUP4 LT PUSH2 0x133 DUP4 LT AND PUSH1 0x4E DUP5 LT PUSH1 0xB DUP5 LT AND OR ISZERO PUSH3 0x17E JUMPI DUP3 DUP3 EXP SWAP1 POP DUP4 DUP2 GT ISZERO PUSH3 0x178 JUMPI PUSH3 0x177 PUSH3 0x31 JUMP JUMPDEST JUMPDEST PUSH3 0x1AD JUMP JUMPDEST PUSH3 0x18D DUP5 DUP5 DUP5 PUSH1 0x1 PUSH3 0x6D JUMP JUMPDEST SWAP3 POP SWAP1 POP DUP2 DUP5 DIV DUP2 GT ISZERO PUSH3 0x1A7 JUMPI PUSH3 0x1A6 PUSH3 0x31 JUMP JUMPDEST JUMPDEST DUP2 DUP2 MUL SWAP1 POP JUMPDEST SWAP4 SWAP3 POP POP POP JUMP JUMPDEST PUSH1 0x0 DUP2 SWAP1 POP SWAP2 SWAP1 POP JUMP JUMPDEST PUSH1 0x0 PUSH3 0x1CB DUP3 PUSH3 0x1B4 JUMP JUMPDEST SWAP2 POP PUSH3 0x1D8 DUP4 PUSH3 0x1B4 JUMP JUMPDEST SWAP3 POP PUSH3 0x207 PUSH32 0xFFFFFFFFFFFFFFFFFFFFFFFFFFFFFFFFFFFFFFFFFFFFFFFFFFFFFFFFFFFFFFFF DUP5 DUP5 PUSH3 0xC8 JUMP JUMPDEST SWAP1 POP SWAP3 SWAP2 POP POP JUMP JUMPDEST PUSH2 0x903 DUP1 PUSH3 0x21F PUSH1 0x0 CODECOPY PUSH1 0x0 RETURN INVALID PUSH1 0x80 PUSH1 0x40 MSTORE CALLVALUE DUP1 ISZERO PUSH2 0x10 JUMPI PUSH1 0x0 DUP1 REVERT JUMPDEST POP PUSH1 0x4 CALLDATASIZE LT PUSH2 0x36 JUMPI PUSH1 0x0 CALLDATALOAD PUSH1 0xE0 SHR DUP1 PUSH4 0x2052465E EQ PUSH2 0x3B JUMPI DUP1 PUSH4 0xC6F15112 EQ PUSH2 0x6C JUMPI JUMPDEST PUSH1 0x0 DUP1 REVERT JUMPDEST PUSH2 0x55 PUSH1 0x4 DUP1 CALLDATASIZE SUB DUP2 ADD SWAP1 PUSH2 0x50 SWAP2 SWAP1 PUSH2 0x44E JUMP JUMPDEST PUSH2 0x88 JUMP JUMPDEST PUSH1 0x40 MLOAD PUSH2 0x63 SWAP3 SWAP2 SWAP1 PUSH2 0x523 JUMP JUMPDEST PUSH1 0x40 MLOAD DUP1 SWAP2 SUB SWAP1 RETURN JUMPDEST PUSH2 0x86 PUSH1 0x4 DUP1 CALLDATASIZE SUB DUP2 ADD SWAP1 PUSH2 0x81 SWAP2 SWAP1 PUSH2 0x688 JUMP JUMPDEST PUSH2 0x144 JUMP JUMPDEST STOP JUMPDEST PUSH1 0x2 DUP2 DUP2 SLOAD DUP2 LT PUSH2 0x98 JUMPI PUSH1 0x0 DUP1 REVERT JUMPDEST SWAP1 PUSH1 0x0 MSTORE PUSH1 0x20 PUSH1 0x0 KECCAK256 SWAP1 PUSH1 0x2 MUL ADD PUSH1 0x0 SWAP2 POP SWAP1 POP DUP1 PUSH1 0x0 ADD SLOAD SWAP1 DUP1 PUSH1 0x1 ADD DUP1 SLOAD PUSH2 0xC1 SWAP1 PUSH2 0x700 JUMP JUMPDEST DUP1 PUSH1 0x1F ADD PUSH1 0x20 DUP1 SWAP2 DIV MUL PUSH1 0x20 ADD PUSH1 0x40 MLOAD SWAP1 DUP2 ADD PUSH1 0x40 MSTORE DUP1 SWAP3 SWAP2 SWAP1 DUP2 DUP2 MSTORE PUSH1 0x20 ADD DUP3 DUP1 SLOAD PUSH2 0xED SWAP1 PUSH2 0x700 JUMP JUMPDEST DUP1 ISZERO PUSH2 0x13A JUMPI DUP1 PUSH1 0x1F LT PUSH2 0x10F JUMPI PUSH2 0x100 DUP1 DUP4 SLOAD DIV MUL DUP4 MSTORE SWAP2 PUSH1 0x20 ADD SWAP2 PUSH2 0x13A JUMP JUMPDEST DUP3 ADD SWAP2 SWAP1 PUSH1 0x0 MSTORE PUSH1 0x20 PUSH1 0x0 KECCAK256 SWAP1 JUMPDEST DUP2 SLOAD DUP2 MSTORE SWAP1 PUSH1 0x1 ADD SWAP1 PUSH1 0x20 ADD DUP1 DUP4 GT PUSH2 0x11D JUMPI DUP3 SWAP1 SUB PUSH1 0x1F AND DUP3 ADD SWAP2 JUMPDEST POP POP POP POP POP SWAP1 POP DUP3 JUMP JUMPDEST PUSH1 0x0 PUSH1 0x4 PUSH1 0x0 CALLER PUSH20 0xFFFFFFFFFFFFFFFFFFFFFFFFFFFFFFFFFFFFFFFF AND PUSH20 0xFFFFFFFFFFFFFFFFFFFFFFFFFFFFFFFFFFFFFFFF AND DUP2 MSTORE PUSH1 0x20 ADD SWAP1 DUP2 MSTORE PUSH1 0x20 ADD PUSH1 0x0 KECCAK256 SLOAD EQ PUSH2 0x190 JUMPI PUSH1 0x0 DUP1 REVERT JUMPDEST PUSH1 0x0 PUSH2 0x19B DUP3 PUSH2 0x1AB JUMP JUMPDEST SWAP1 POP PUSH2 0x1A7 DUP3 DUP3 PUSH2 0x1F0 JUMP JUMPDEST POP POP JUMP JUMPDEST PUSH1 0x0 DUP1 DUP3 PUSH1 0x40 MLOAD PUSH1 0x20 ADD PUSH2 0x1BF SWAP2 SWAP1 PUSH2 0x76D JUMP JUMPDEST PUSH1 0x40 MLOAD PUSH1 0x20 DUP2 DUP4 SUB SUB DUP2 MSTORE SWAP1 PUSH1 0x40 MSTORE DUP1 MLOAD SWAP1 PUSH1 0x20 ADD KECCAK256 PUSH1 0x0 SHR SWAP1 POP PUSH1 0x1 SLOAD DUP2 PUSH2 0x1E8 SWAP2 SWAP1 PUSH2 0x7B3 JUMP JUMPDEST SWAP2 POP POP SWAP2 SWAP1 POP JUMP JUMPDEST PUSH1 0x2 PUSH1 0x40 MLOAD DUP1 PUSH1 0x40 ADD PUSH1 0x40 MSTORE DUP1 DUP4 DUP2 MSTORE PUSH1 0x20 ADD DUP5 DUP2 MSTORE POP SWAP1 DUP1 PUSH1 0x1 DUP2 SLOAD ADD DUP1 DUP3 SSTORE DUP1 SWAP2 POP POP PUSH1 0x1 SWAP1 SUB SWAP1 PUSH1 0x0 MSTORE PUSH1 0x20 PUSH1 0x0 KECCAK256 SWAP1 PUSH1 0x2 MUL ADD PUSH1 0x0 SWAP1 SWAP2 SWAP1 SWAP2 SWAP1 SWAP2 POP PUSH1 0x0 DUP3 ADD MLOAD DUP2 PUSH1 0x0 ADD SSTORE PUSH1 0x20 DUP3 ADD MLOAD DUP2 PUSH1 0x1 ADD SWAP1 DUP1 MLOAD SWAP1 PUSH1 0x20 ADD SWAP1 PUSH2 0x256 SWAP3 SWAP2 SWAP1 PUSH2 0x361 JUMP JUMPDEST POP POP POP CALLER PUSH1 0x3 PUSH1 0x0 PUSH1 0x1 PUSH1 0x2 DUP1 SLOAD SWAP1 POP PUSH2 0x270 SWAP2 SWAP1 PUSH2 0x813 JUMP JUMPDEST DUP2 MSTORE PUSH1 0x20 ADD SWAP1 DUP2 MSTORE PUSH1 0x20 ADD PUSH1 0x0 KECCAK256 PUSH1 0x0 PUSH2 0x100 EXP DUP2 SLOAD DUP2 PUSH20 0xFFFFFFFFFFFFFFFFFFFFFFFFFFFFFFFFFFFFFFFF MUL NOT AND SWAP1 DUP4 PUSH20 0xFFFFFFFFFFFFFFFFFFFFFFFFFFFFFFFFFFFFFFFF AND MUL OR SWAP1 SSTORE POP PUSH1 0x4 PUSH1 0x0 CALLER PUSH20 0xFFFFFFFFFFFFFFFFFFFFFFFFFFFFFFFFFFFFFFFF AND PUSH20 0xFFFFFFFFFFFFFFFFFFFFFFFFFFFFFFFFFFFFFFFF AND DUP2 MSTORE PUSH1 0x20 ADD SWAP1 DUP2 MSTORE PUSH1 0x20 ADD PUSH1 0x0 KECCAK256 PUSH1 0x0 DUP2 SLOAD DUP1 SWAP3 SWAP2 SWAP1 PUSH2 0x30C SWAP1 PUSH2 0x847 JUMP JUMPDEST SWAP2 SWAP1 POP SSTORE POP PUSH32 0x88F026AACBBECC90C18411DF4B1185FD8D9BE2470F1962F192BF84A27D0704B7 PUSH1 0x1 PUSH1 0x2 DUP1 SLOAD SWAP1 POP PUSH2 0x344 SWAP2 SWAP1 PUSH2 0x813 JUMP JUMPDEST DUP4 DUP4 PUSH1 0x40 MLOAD PUSH2 0x355 SWAP4 SWAP3 SWAP2 SWAP1 PUSH2 0x88F JUMP JUMPDEST PUSH1 0x40 MLOAD DUP1 SWAP2 SUB SWAP1 LOG1 POP POP JUMP JUMPDEST DUP3 DUP1 SLOAD PUSH2 0x36D SWAP1 PUSH2 0x700 JUMP JUMPDEST SWAP1 PUSH1 0x0 MSTORE PUSH1 0x20 PUSH1 0x0 KECCAK256 SWAP1 PUSH1 0x1F ADD PUSH1 0x20 SWAP1 DIV DUP2 ADD SWAP3 DUP3 PUSH2 0x38F JUMPI PUSH1 0x0 DUP6 SSTORE PUSH2 0x3D6 JUMP JUMPDEST DUP3 PUSH1 0x1F LT PUSH2 0x3A8 JUMPI DUP1 MLOAD PUSH1 0xFF NOT AND DUP4 DUP1 ADD OR DUP6 SSTORE PUSH2 0x3D6 JUMP JUMPDEST DUP3 DUP1 ADD PUSH1 0x1 ADD DUP6 SSTORE DUP3 ISZERO PUSH2 0x3D6 JUMPI SWAP2 DUP3 ADD JUMPDEST DUP3 DUP2 GT ISZERO PUSH2 0x3D5 JUMPI DUP3 MLOAD DUP3 SSTORE SWAP2 PUSH1 0x20 ADD SWAP2 SWAP1 PUSH1 0x1 ADD SWAP1 PUSH2 0x3BA JUMP JUMPDEST JUMPDEST POP SWAP1 POP PUSH2 0x3E3 SWAP2 SWAP1 PUSH2 0x3E7 JUMP JUMPDEST POP SWAP1 JUMP JUMPDEST JUMPDEST DUP1 DUP3 GT ISZERO PUSH2 0x400 JUMPI PUSH1 0x0 DUP2 PUSH1 0x0 SWAP1 SSTORE POP PUSH1 0x1 ADD PUSH2 0x3E8 JUMP JUMPDEST POP SWAP1 JUMP JUMPDEST PUSH1 0x0 PUSH1 0x40 MLOAD SWAP1 POP SWAP1 JUMP JUMPDEST PUSH1 0x0 DUP1 REVERT JUMPDEST PUSH1 0x0 DUP1 REVERT JUMPDEST PUSH1 0x0 DUP2 SWAP1 POP SWAP2 SWAP1 POP JUMP JUMPDEST PUSH2 0x42B DUP2 PUSH2 0x418 JUMP JUMPDEST DUP2 EQ PUSH2 0x436 JUMPI PUSH1 0x0 DUP1 REVERT JUMPDEST POP JUMP JUMPDEST PUSH1 0x0 DUP2 CALLDATALOAD SWAP1 POP PUSH2 0x448 DUP2 PUSH2 0x422 JUMP JUMPDEST SWAP3 SWAP2 POP POP JUMP JUMPDEST PUSH1 0x0 PUSH1 0x20 DUP3 DUP5 SUB SLT ISZERO PUSH2 0x464 JUMPI PUSH2 0x463 PUSH2 0x40E JUMP JUMPDEST JUMPDEST PUSH1 0x0 PUSH2 0x472 DUP5 DUP3 DUP6 ADD PUSH2 0x439 JUMP JUMPDEST SWAP2 POP POP SWAP3 SWAP2 POP POP JUMP JUMPDEST PUSH2 0x484 DUP2 PUSH2 0x418 JUMP JUMPDEST DUP3 MSTORE POP POP JUMP JUMPDEST PUSH1 0x0 DUP2 MLOAD SWAP1 POP SWAP2 SWAP1 POP JUMP JUMPDEST PUSH1 0x0 DUP3 DUP3 MSTORE PUSH1 0x20 DUP3 ADD SWAP1 POP SWAP3 SWAP2 POP POP JUMP JUMPDEST PUSH1 0x0 JUMPDEST DUP4 DUP2 LT ISZERO PUSH2 0x4C4 JUMPI DUP1 DUP3 ADD MLOAD DUP2 DUP5 ADD MSTORE PUSH1 0x20 DUP2 ADD SWAP1 POP PUSH2 0x4A9 JUMP JUMPDEST DUP4 DUP2 GT ISZERO PUSH2 0x4D3 JUMPI PUSH1 0x0 DUP5 DUP5 ADD MSTORE JUMPDEST POP POP POP POP JUMP JUMPDEST PUSH1 0x0 PUSH1 0x1F NOT PUSH1 0x1F DUP4 ADD AND SWAP1 POP SWAP2 SWAP1 POP JUMP JUMPDEST PUSH1 0x0 PUSH2 0x4F5 DUP3 PUSH2 0x48A JUMP JUMPDEST PUSH2 0x4FF DUP2 DUP6 PUSH2 0x495 JUMP JUMPDEST SWAP4 POP PUSH2 0x50F DUP2 DUP6 PUSH1 0x20 DUP7 ADD PUSH2 0x4A6 JUMP JUMPDEST PUSH2 0x518 DUP2 PUSH2 0x4D9 JUMP JUMPDEST DUP5 ADD SWAP2 POP POP SWAP3 SWAP2 POP POP JUMP JUMPDEST PUSH1 0x0 PUSH1 0x40 DUP3 ADD SWAP1 POP PUSH2 0x538 PUSH1 0x0 DUP4 ADD DUP6 PUSH2 0x47B JUMP JUMPDEST DUP2 DUP2 SUB PUSH1 0x20 DUP4 ADD MSTORE PUSH2 0x54A DUP2 DUP5 PUSH2 0x4EA JUMP JUMPDEST SWAP1 POP SWAP4 SWAP3 POP POP POP JUMP JUMPDEST PUSH1 0x0 DUP1 REVERT JUMPDEST PUSH1 0x0 DUP1 REVERT JUMPDEST PUSH32 0x4E487B7100000000000000000000000000000000000000000000000000000000 PUSH1 0x0 MSTORE PUSH1 0x41 PUSH1 0x4 MSTORE PUSH1 0x24 PUSH1 0x0 REVERT JUMPDEST PUSH2 0x595 DUP3 PUSH2 0x4D9 JUMP JUMPDEST DUP2 ADD DUP2 DUP2 LT PUSH8 0xFFFFFFFFFFFFFFFF DUP3 GT OR ISZERO PUSH2 0x5B4 JUMPI PUSH2 0x5B3 PUSH2 0x55D JUMP JUMPDEST JUMPDEST DUP1 PUSH1 0x40 MSTORE POP POP POP JUMP JUMPDEST PUSH1 0x0 PUSH2 0x5C7 PUSH2 0x404 JUMP JUMPDEST SWAP1 POP PUSH2 0x5D3 DUP3 DUP3 PUSH2 0x58C JUMP JUMPDEST SWAP2 SWAP1 POP JUMP JUMPDEST PUSH1 0x0 PUSH8 0xFFFFFFFFFFFFFFFF DUP3 GT ISZERO PUSH2 0x5F3 JUMPI PUSH2 0x5F2 PUSH2 0x55D JUMP JUMPDEST JUMPDEST PUSH2 0x5FC DUP3 PUSH2 0x4D9 JUMP JUMPDEST SWAP1 POP PUSH1 0x20 DUP2 ADD SWAP1 POP SWAP2 SWAP1 POP JUMP JUMPDEST DUP3 DUP2 DUP4 CALLDATACOPY PUSH1 0x0 DUP4 DUP4 ADD MSTORE POP POP POP JUMP JUMPDEST PUSH1 0x0 PUSH2 0x62B PUSH2 0x626 DUP5 PUSH2 0x5D8 JUMP JUMPDEST PUSH2 0x5BD JUMP JUMPDEST SWAP1 POP DUP3 DUP2 MSTORE PUSH1 0x20 DUP2 ADD DUP5 DUP5 DUP5 ADD GT ISZERO PUSH2 0x647 JUMPI PUSH2 0x646 PUSH2 0x558 JUMP JUMPDEST JUMPDEST PUSH2 0x652 DUP5 DUP3 DUP6 PUSH2 0x609 JUMP JUMPDEST POP SWAP4 SWAP3 POP POP POP JUMP JUMPDEST PUSH1 0x0 DUP3 PUSH1 0x1F DUP4 ADD SLT PUSH2 0x66F JUMPI PUSH2 0x66E PUSH2 0x553 JUMP JUMPDEST JUMPDEST DUP2 CALLDATALOAD PUSH2 0x67F DUP5 DUP3 PUSH1 0x20 DUP7 ADD PUSH2 0x618 JUMP JUMPDEST SWAP2 POP POP SWAP3 SWAP2 POP POP JUMP JUMPDEST PUSH1 0x0 PUSH1 0x20 DUP3 DUP5 SUB SLT ISZERO PUSH2 0x69E JUMPI PUSH2 0x69D PUSH2 0x40E JUMP JUMPDEST JUMPDEST PUSH1 0x0 DUP3 ADD CALLDATALOAD PUSH8 0xFFFFFFFFFFFFFFFF DUP2 GT ISZERO PUSH2 0x6BC JUMPI PUSH2 0x6BB PUSH2 0x413 JUMP JUMPDEST JUMPDEST PUSH2 0x6C8 DUP5 DUP3 DUP6 ADD PUSH2 0x65A JUMP JUMPDEST SWAP2 POP POP SWAP3 SWAP2 POP POP JUMP JUMPDEST PUSH32 0x4E487B7100000000000000000000000000000000000000000000000000000000 PUSH1 0x0 MSTORE PUSH1 0x22 PUSH1 0x4 MSTORE PUSH1 0x24 PUSH1 0x0 REVERT JUMPDEST PUSH1 0x0 PUSH1 0x2 DUP3 DIV SWAP1 POP PUSH1 0x1 DUP3 AND DUP1 PUSH2 0x718 JUMPI PUSH1 0x7F DUP3 AND SWAP2 POP JUMPDEST PUSH1 0x20 DUP3 LT DUP2 SUB PUSH2 0x72B JUMPI PUSH2 0x72A PUSH2 0x6D1 JUMP JUMPDEST JUMPDEST POP SWAP2 SWAP1 POP JUMP JUMPDEST PUSH1 0x0 DUP2 SWAP1 POP SWAP3 SWAP2 POP POP JUMP JUMPDEST PUSH1 0x0 PUSH2 0x747 DUP3 PUSH2 0x48A JUMP JUMPDEST PUSH2 0x751 DUP2 DUP6 PUSH2 0x731 JUMP JUMPDEST SWAP4 POP PUSH2 0x761 DUP2 DUP6 PUSH1 0x20 DUP7 ADD PUSH2 0x4A6 JUMP JUMPDEST DUP1 DUP5 ADD SWAP2 POP POP SWAP3 SWAP2 POP POP JUMP JUMPDEST PUSH1 0x0 PUSH2 0x779 DUP3 DUP5 PUSH2 0x73C JUMP JUMPDEST SWAP2 POP DUP2 SWAP1 POP SWAP3 SWAP2 POP POP JUMP JUMPDEST PUSH32 0x4E487B7100000000000000000000000000000000000000000000000000000000 PUSH1 0x0 MSTORE PUSH1 0x12 PUSH1 0x4 MSTORE PUSH1 0x24 PUSH1 0x0 REVERT JUMPDEST PUSH1 0x0 PUSH2 0x7BE DUP3 PUSH2 0x418 JUMP JUMPDEST SWAP2 POP PUSH2 0x7C9 DUP4 PUSH2 0x418 JUMP JUMPDEST SWAP3 POP DUP3 PUSH2 0x7D9 JUMPI PUSH2 0x7D8 PUSH2 0x784 JUMP JUMPDEST JUMPDEST DUP3 DUP3 MOD SWAP1 POP SWAP3 SWAP2 POP POP JUMP JUMPDEST PUSH32 0x4E487B7100000000000000000000000000000000000000000000000000000000 PUSH1 0x0 MSTORE PUSH1 0x11 PUSH1 0x4 MSTORE PUSH1 0x24 PUSH1 0x0 REVERT JUMPDEST PUSH1 0x0 PUSH2 0x81E DUP3 PUSH2 0x418 JUMP JUMPDEST SWAP2 POP PUSH2 0x829 DUP4 PUSH2 0x418 JUMP JUMPDEST SWAP3 POP DUP3 DUP3 LT ISZERO PUSH2 0x83C JUMPI PUSH2 0x83B PUSH2 0x7E4 JUMP JUMPDEST JUMPDEST DUP3 DUP3 SUB SWAP1 POP SWAP3 SWAP2 POP POP JUMP JUMPDEST PUSH1 0x0 PUSH2 0x852 DUP3 PUSH2 0x418 JUMP JUMPDEST SWAP2 POP PUSH32 0xFFFFFFFFFFFFFFFFFFFFFFFFFFFFFFFFFFFFFFFFFFFFFFFFFFFFFFFFFFFFFFFF DUP3 SUB PUSH2 0x884 JUMPI PUSH2 0x883 PUSH2 0x7E4 JUMP JUMPDEST JUMPDEST PUSH1 0x1 DUP3 ADD SWAP1 POP SWAP2 SWAP1 POP JUMP JUMPDEST PUSH1 0x0 PUSH1 0x60 DUP3 ADD SWAP1 POP PUSH2 0x8A4 PUSH1 0x0 DUP4 ADD DUP7 PUSH2 0x47B JUMP JUMPDEST DUP2 DUP2 SUB PUSH1 0x20 DUP4 ADD MSTORE PUSH2 0x8B6 DUP2 DUP6 PUSH2 0x4EA JUMP JUMPDEST SWAP1 POP PUSH2 0x8C5 PUSH1 0x40 DUP4 ADD DUP5 PUSH2 0x47B JUMP JUMPDEST SWAP5 SWAP4 POP POP POP POP JUMP INVALID LOG2 PUSH5 0x6970667358 0x22 SLT KECCAK256 0x21 TIMESTAMP CALL 0xF9 0xBB PUSH19 0x2F703F71344CD758CC59255DFFEAE48DD73394 0xE4 AND ISZERO 0xBF 0x4A ADDRESS 0xB5 PUSH5 0x736F6C6343 STOP ADDMOD 0xE STOP CALLER "
				},
				"gasEstimates": {
					"creation": {
						"codeDepositCost": "461400",
						"executionCost": "infinite",
						"totalCost": "infinite"
					},
					"external": {
						"generateRandomZombie(string)": "infinite",
						"zombies(uint256)": "infinite"
					},
					"internal": {
						"_createZombie(string memory,uint256)": "infinite",
						"_generateRandomDna(string memory)": "infinite"
					}
				},
				"methodIdentifiers": {
					"generateRandomZombie(string)": "c6f15112",
					"zombies(uint256)": "2052465e"
				}
			},
			"storageLayout": {
				"storage": [
					{
						"astId": 4,
						"contract": "contracts/Zombiefactory.sol:ZombieFactory",
						"label": "dnaDigits",
						"offset": 0,
						"slot": "0",
						"type": "t_uint256"
					},
					{
						"astId": 9,
						"contract": "contracts/Zombiefactory.sol:ZombieFactory",
						"label": "dnaModulus",
						"offset": 0,
						"slot": "1",
						"type": "t_uint256"
					},
					{
						"astId": 26,
						"contract": "contracts/Zombiefactory.sol:ZombieFactory",
						"label": "zombies",
						"offset": 0,
						"slot": "2",
						"type": "t_array(t_struct(Zombie)22_storage)dyn_storage"
					},
					{
						"astId": 30,
						"contract": "contracts/Zombiefactory.sol:ZombieFactory",
						"label": "zombieToOwner",
						"offset": 0,
						"slot": "3",
						"type": "t_mapping(t_uint256,t_address)"
					},
					{
						"astId": 34,
						"contract": "contracts/Zombiefactory.sol:ZombieFactory",
						"label": "ownerZombieCount",
						"offset": 0,
						"slot": "4",
						"type": "t_mapping(t_address,t_uint256)"
					}
				],
				"types": {
					"t_address": {
						"encoding": "inplace",
						"label": "address",
						"numberOfBytes": "20"
					},
					"t_array(t_struct(Zombie)22_storage)dyn_storage": {
						"base": "t_struct(Zombie)22_storage",
						"encoding": "dynamic_array",
						"label": "struct ZombieFactory.Zombie[]",
						"numberOfBytes": "32"
					},
					"t_mapping(t_address,t_uint256)": {
						"encoding": "mapping",
						"key": "t_address",
						"label": "mapping(address => uint256)",
						"numberOfBytes": "32",
						"value": "t_uint256"
					},
					"t_mapping(t_uint256,t_address)": {
						"encoding": "mapping",
						"key": "t_uint256",
						"label": "mapping(uint256 => address)",
						"numberOfBytes": "32",
						"value": "t_address"
					},
					"t_string_storage": {
						"encoding": "bytes",
						"label": "string",
						"numberOfBytes": "32"
					},
					"t_struct(Zombie)22_storage": {
						"encoding": "inplace",
						"label": "struct ZombieFactory.Zombie",
						"members": [
							{
								"astId": 19,
								"contract": "contracts/Zombiefactory.sol:ZombieFactory",
								"label": "dna",
								"offset": 0,
								"slot": "0",
								"type": "t_uint256"
							},
							{
								"astId": 21,
								"contract": "contracts/Zombiefactory.sol:ZombieFactory",
								"label": "name",
								"offset": 0,
								"slot": "1",
								"type": "t_string_storage"
							}
						],
						"numberOfBytes": "64"
					},
					"t_uint256": {
						"encoding": "inplace",
						"label": "uint256",
						"numberOfBytes": "32"
					}
				}
			},
			"userdoc": {
				"kind": "user",
				"methods": {},
				"version": 1
			}
		}
	}
}