{
	"contracts/Zombiefeeding.sol": {
		"ZombieFeeding": {
			"abi": [
				{
					"anonymous": false,
					"inputs": [
						{
							"indexed": false,
							"internalType": "uint256",
							"name": "zombieId",
							"type": "uint256"
						},
						{
							"indexed": false,
							"internalType": "string",
							"name": "name",
							"type": "string"
						},
						{
							"indexed": false,
							"internalType": "uint256",
							"name": "dna",
							"type": "uint256"
						}
					],
					"name": "NewZombie",
					"type": "event"
				},
				{
					"anonymous": false,
					"inputs": [
						{
							"indexed": true,
							"internalType": "address",
							"name": "previousOwner",
							"type": "address"
						},
						{
							"indexed": true,
							"internalType": "address",
							"name": "newOwner",
							"type": "address"
						}
					],
					"name": "OwnershipTransferred",
					"type": "event"
				},
				{
					"inputs": [
						{
							"internalType": "uint256",
							"name": "_zombieId",
							"type": "uint256"
						},
						{
							"internalType": "uint256",
							"name": "_kittyId",
							"type": "uint256"
						}
					],
					"name": "feedOnKitty",
					"outputs": [],
					"stateMutability": "nonpayable",
					"type": "function"
				},
				{
					"inputs": [
						{
							"internalType": "string",
							"name": "_name",
							"type": "string"
						}
					],
					"name": "generateRandomZombie",
					"outputs": [],
					"stateMutability": "nonpayable",
					"type": "function"
				},
				{
					"inputs": [],
					"name": "isOwner",
					"outputs": [
						{
							"internalType": "bool",
							"name": "",
							"type": "bool"
						}
					],
					"stateMutability": "view",
					"type": "function"
				},
				{
					"inputs": [],
					"name": "owner",
					"outputs": [
						{
							"internalType": "address",
							"name": "",
							"type": "address"
						}
					],
					"stateMutability": "view",
					"type": "function"
				},
				{
					"inputs": [],
					"name": "renounceOwnership",
					"outputs": [],
					"stateMutability": "nonpayable",
					"type": "function"
				},
				{
					"inputs": [
						{
							"internalType": "address",
							"name": "_address",
							"type": "address"
						}
					],
					"name": "setKittyContractAddress",
					"outputs": [],
					"stateMutability": "nonpayable",
					"type": "function"
				},
				{
					"inputs": [
						{
							"internalType": "address",
							"name": "newOwner",
							"type": "address"
						}
					],
					"name": "transferOwnership",
					"outputs": [],
					"stateMutability": "nonpayable",
					"type": "function"
				},
				{
					"inputs": [
						{
							"internalType": "uint256",
							"name": "",
							"type": "uint256"
						}
					],
					"name": "zombies",
					"outputs": [
						{
							"internalType": "uint256",
							"name": "dna",
							"type": "uint256"
						},
						{
							"internalType": "string",
							"name": "name",
							"type": "string"
						},
						{
							"internalType": "uint32",
							"name": "level",
							"type": "uint32"
						},
						{
							"internalType": "uint32",
							"name": "readyTime",
							"type": "uint32"
						}
					],
					"stateMutability": "view",
					"type": "function"
				}
			],
			"devdoc": {
				"kind": "dev",
				"methods": {
					"isOwner()": {
						"returns": {
							"_0": "true if `msg.sender` is the owner of the contract."
						}
					},
					"owner()": {
						"returns": {
							"_0": "the address of the owner."
						}
					},
					"renounceOwnership()": {
						"details": "Allows the current owner to relinquish control of the contract."
					},
					"transferOwnership(address)": {
						"details": "Allows the current owner to transfer control of the contract to a newOwner.",
						"params": {
							"newOwner": "The address to transfer ownership to."
						}
					}
				},
				"version": 1
			},
			"evm": {
				"assembly": "    /* \"contracts/Zombiefeeding.sol\":447:1795  contract ZombieFeeding is ZombieFactory {... */\n  mstore(0x40, 0x80)\n    /* \"contracts/Zombiefactory.sol\":121:123  16 */\n  0x10\n    /* \"contracts/Zombiefactory.sol\":104:123  uint dnaDigits = 16 */\n  0x01\n  sstore\n    /* \"contracts/Zombiefactory.sol\":202:211  dnaDigits */\n  sload(0x01)\n    /* \"contracts/Zombiefactory.sol\":196:198  10 */\n  0x0a\n    /* \"contracts/Zombiefactory.sol\":196:211  10 ** dnaDigits */\n  tag_1\n  swap2\n  swap1\n  tag_2\n  jump\t// in\ntag_1:\n    /* \"contracts/Zombiefactory.sol\":178:211  uint dnaModulus = 10 ** dnaDigits */\n  0x02\n  sstore\n    /* \"contracts/Zombiefactory.sol\":322:328  1 days */\n  0x015180\n    /* \"contracts/Zombiefactory.sol\":302:328  uint cooldownTime = 1 days */\n  0x03\n  sstore\n    /* \"contracts/Zombiefeeding.sol\":447:1795  contract ZombieFeeding is ZombieFactory {... */\n  callvalue\n  dup1\n  iszero\n  tag_3\n  jumpi\n  0x00\n  dup1\n  revert\ntag_3:\n  pop\n    /* \"contracts/OwnableZombie.sol\":593:603  msg.sender */\n  caller\n    /* \"contracts/OwnableZombie.sol\":584:590  _owner */\n  0x00\n  dup1\n    /* \"contracts/OwnableZombie.sol\":584:603  _owner = msg.sender */\n  0x0100\n  exp\n  dup2\n  sload\n  dup2\n  0xffffffffffffffffffffffffffffffffffffffff\n  mul\n  not\n  and\n  swap1\n  dup4\n  0xffffffffffffffffffffffffffffffffffffffff\n  and\n  mul\n  or\n  swap1\n  sstore\n  pop\n    /* \"contracts/OwnableZombie.sol\":648:654  _owner */\n  0x00\n  dup1\n  sload\n  swap1\n  0x0100\n  exp\n  swap1\n  div\n  0xffffffffffffffffffffffffffffffffffffffff\n  and\n    /* \"contracts/OwnableZombie.sol\":615:655  OwnershipTransferred(address(0), _owner) */\n  0xffffffffffffffffffffffffffffffffffffffff\n  and\n    /* \"contracts/OwnableZombie.sol\":644:645  0 */\n  0x00\n    /* \"contracts/OwnableZombie.sol\":615:655  OwnershipTransferred(address(0), _owner) */\n  0xffffffffffffffffffffffffffffffffffffffff\n  and\n  0x8be0079c531659141344cd1fd0a4f28419497f9722a3daafe3b4186f6b6457e0\n  mload(0x40)\n  mload(0x40)\n  dup1\n  swap2\n  sub\n  swap1\n  log3\n    /* \"contracts/Zombiefeeding.sol\":447:1795  contract ZombieFeeding is ZombieFactory {... */\n  jump(tag_6)\n    /* \"#utility.yul\":7:187   */\ntag_7:\n    /* \"#utility.yul\":55:132   */\n  0x4e487b7100000000000000000000000000000000000000000000000000000000\n    /* \"#utility.yul\":52:53   */\n  0x00\n    /* \"#utility.yul\":45:133   */\n  mstore\n    /* \"#utility.yul\":152:156   */\n  0x11\n    /* \"#utility.yul\":149:150   */\n  0x04\n    /* \"#utility.yul\":142:157   */\n  mstore\n    /* \"#utility.yul\":176:180   */\n  0x24\n    /* \"#utility.yul\":173:174   */\n  0x00\n    /* \"#utility.yul\":166:181   */\n  revert\n    /* \"#utility.yul\":193:295   */\ntag_8:\n    /* \"#utility.yul\":235:243   */\n  0x00\n    /* \"#utility.yul\":282:287   */\n  dup2\n    /* \"#utility.yul\":279:280   */\n  0x01\n    /* \"#utility.yul\":275:288   */\n  shr\n    /* \"#utility.yul\":254:288   */\n  swap1\n  pop\n    /* \"#utility.yul\":193:295   */\n  swap2\n  swap1\n  pop\n  jump\t// out\n    /* \"#utility.yul\":301:1149   */\ntag_9:\n    /* \"#utility.yul\":362:367   */\n  0x00\n    /* \"#utility.yul\":369:373   */\n  dup1\n    /* \"#utility.yul\":393:399   */\n  dup3\n    /* \"#utility.yul\":384:399   */\n  swap2\n  pop\n    /* \"#utility.yul\":417:422   */\n  dup4\n    /* \"#utility.yul\":408:422   */\n  swap1\n  pop\n    /* \"#utility.yul\":431:1143   */\ntag_16:\n    /* \"#utility.yul\":452:453   */\n  0x01\n    /* \"#utility.yul\":442:450   */\n  dup6\n    /* \"#utility.yul\":439:454   */\n  gt\n    /* \"#utility.yul\":431:1143   */\n  iszero\n  tag_18\n  jumpi\n    /* \"#utility.yul\":547:551   */\n  dup1\n    /* \"#utility.yul\":542:545   */\n  dup7\n    /* \"#utility.yul\":538:552   */\n  div\n    /* \"#utility.yul\":532:536   */\n  dup2\n    /* \"#utility.yul\":529:553   */\n  gt\n    /* \"#utility.yul\":526:576   */\n  iszero\n  tag_19\n  jumpi\n    /* \"#utility.yul\":556:574   */\n  tag_20\n  tag_7\n  jump\t// in\ntag_20:\n    /* \"#utility.yul\":526:576   */\ntag_19:\n    /* \"#utility.yul\":606:607   */\n  0x01\n    /* \"#utility.yul\":596:604   */\n  dup6\n    /* \"#utility.yul\":592:608   */\n  and\n    /* \"#utility.yul\":589:1040   */\n  iszero\n  tag_21\n  jumpi\n    /* \"#utility.yul\":1021:1025   */\n  dup1\n    /* \"#utility.yul\":1014:1019   */\n  dup3\n    /* \"#utility.yul\":1010:1026   */\n  mul\n    /* \"#utility.yul\":1001:1026   */\n  swap2\n  pop\n    /* \"#utility.yul\":589:1040   */\ntag_21:\n    /* \"#utility.yul\":1071:1075   */\n  dup1\n    /* \"#utility.yul\":1065:1069   */\n  dup2\n    /* \"#utility.yul\":1061:1076   */\n  mul\n    /* \"#utility.yul\":1053:1076   */\n  swap1\n  pop\n    /* \"#utility.yul\":1101:1133   */\n  tag_22\n    /* \"#utility.yul\":1124:1132   */\n  dup6\n    /* \"#utility.yul\":1101:1133   */\n  tag_8\n  jump\t// in\ntag_22:\n    /* \"#utility.yul\":1089:1133   */\n  swap5\n  pop\n    /* \"#utility.yul\":431:1143   */\n  jump(tag_16)\ntag_18:\n    /* \"#utility.yul\":301:1149   */\n  swap5\n  pop\n  swap5\n  swap3\n  pop\n  pop\n  pop\n  jump\t// out\n    /* \"#utility.yul\":1155:2228   */\ntag_10:\n    /* \"#utility.yul\":1209:1214   */\n  0x00\n    /* \"#utility.yul\":1400:1408   */\n  dup3\n    /* \"#utility.yul\":1390:1430   */\n  tag_24\n  jumpi\n    /* \"#utility.yul\":1421:1422   */\n  0x01\n    /* \"#utility.yul\":1412:1422   */\n  swap1\n  pop\n    /* \"#utility.yul\":1423:1428   */\n  jump(tag_23)\n    /* \"#utility.yul\":1390:1430   */\ntag_24:\n    /* \"#utility.yul\":1449:1453   */\n  dup2\n    /* \"#utility.yul\":1439:1475   */\n  tag_25\n  jumpi\n    /* \"#utility.yul\":1466:1467   */\n  0x00\n    /* \"#utility.yul\":1457:1467   */\n  swap1\n  pop\n    /* \"#utility.yul\":1468:1473   */\n  jump(tag_23)\n    /* \"#utility.yul\":1439:1475   */\ntag_25:\n    /* \"#utility.yul\":1535:1539   */\n  dup2\n    /* \"#utility.yul\":1583:1584   */\n  0x01\n    /* \"#utility.yul\":1578:1605   */\n  dup2\n  eq\n  tag_27\n  jumpi\n    /* \"#utility.yul\":1619:1620   */\n  0x02\n    /* \"#utility.yul\":1614:1805   */\n  dup2\n  eq\n  tag_28\n  jumpi\n    /* \"#utility.yul\":1528:1805   */\n  jump(tag_26)\n    /* \"#utility.yul\":1578:1605   */\ntag_27:\n    /* \"#utility.yul\":1596:1597   */\n  0x01\n    /* \"#utility.yul\":1587:1597   */\n  swap2\n  pop\n    /* \"#utility.yul\":1598:1603   */\n  pop\n  jump(tag_23)\n    /* \"#utility.yul\":1614:1805   */\ntag_28:\n    /* \"#utility.yul\":1659:1662   */\n  0xff\n    /* \"#utility.yul\":1649:1657   */\n  dup5\n    /* \"#utility.yul\":1646:1663   */\n  gt\n    /* \"#utility.yul\":1643:1686   */\n  iszero\n  tag_29\n  jumpi\n    /* \"#utility.yul\":1666:1684   */\n  tag_30\n  tag_7\n  jump\t// in\ntag_30:\n    /* \"#utility.yul\":1643:1686   */\ntag_29:\n    /* \"#utility.yul\":1715:1723   */\n  dup4\n    /* \"#utility.yul\":1712:1713   */\n  0x02\n    /* \"#utility.yul\":1708:1724   */\n  exp\n    /* \"#utility.yul\":1699:1724   */\n  swap2\n  pop\n    /* \"#utility.yul\":1750:1753   */\n  dup5\n    /* \"#utility.yul\":1743:1748   */\n  dup3\n    /* \"#utility.yul\":1740:1754   */\n  gt\n    /* \"#utility.yul\":1737:1777   */\n  iszero\n  tag_31\n  jumpi\n    /* \"#utility.yul\":1757:1775   */\n  tag_32\n  tag_7\n  jump\t// in\ntag_32:\n    /* \"#utility.yul\":1737:1777   */\ntag_31:\n    /* \"#utility.yul\":1790:1795   */\n  pop\n  jump(tag_23)\n    /* \"#utility.yul\":1528:1805   */\ntag_26:\n  pop\n    /* \"#utility.yul\":1914:1916   */\n  0x20\n    /* \"#utility.yul\":1904:1912   */\n  dup4\n    /* \"#utility.yul\":1901:1917   */\n  lt\n    /* \"#utility.yul\":1895:1898   */\n  0x0133\n    /* \"#utility.yul\":1889:1893   */\n  dup4\n    /* \"#utility.yul\":1886:1899   */\n  lt\n    /* \"#utility.yul\":1882:1918   */\n  and\n    /* \"#utility.yul\":1864:1866   */\n  0x4e\n    /* \"#utility.yul\":1854:1862   */\n  dup5\n    /* \"#utility.yul\":1851:1867   */\n  lt\n    /* \"#utility.yul\":1846:1848   */\n  0x0b\n    /* \"#utility.yul\":1840:1844   */\n  dup5\n    /* \"#utility.yul\":1837:1849   */\n  lt\n    /* \"#utility.yul\":1833:1868   */\n  and\n    /* \"#utility.yul\":1817:1928   */\n  or\n    /* \"#utility.yul\":1814:2060   */\n  iszero\n  tag_33\n  jumpi\n    /* \"#utility.yul\":1970:1978   */\n  dup3\n    /* \"#utility.yul\":1964:1968   */\n  dup3\n    /* \"#utility.yul\":1960:1979   */\n  exp\n    /* \"#utility.yul\":1951:1979   */\n  swap1\n  pop\n    /* \"#utility.yul\":2005:2008   */\n  dup4\n    /* \"#utility.yul\":1998:2003   */\n  dup2\n    /* \"#utility.yul\":1995:2009   */\n  gt\n    /* \"#utility.yul\":1992:2032   */\n  iszero\n  tag_34\n  jumpi\n    /* \"#utility.yul\":2012:2030   */\n  tag_35\n  tag_7\n  jump\t// in\ntag_35:\n    /* \"#utility.yul\":1992:2032   */\ntag_34:\n    /* \"#utility.yul\":2045:2050   */\n  jump(tag_23)\n    /* \"#utility.yul\":1814:2060   */\ntag_33:\n    /* \"#utility.yul\":2085:2127   */\n  tag_36\n    /* \"#utility.yul\":2123:2126   */\n  dup5\n    /* \"#utility.yul\":2113:2121   */\n  dup5\n    /* \"#utility.yul\":2107:2111   */\n  dup5\n    /* \"#utility.yul\":2104:2105   */\n  0x01\n    /* \"#utility.yul\":2085:2127   */\n  tag_9\n  jump\t// in\ntag_36:\n    /* \"#utility.yul\":2070:2127   */\n  swap3\n  pop\n  swap1\n  pop\n    /* \"#utility.yul\":2159:2163   */\n  dup2\n    /* \"#utility.yul\":2154:2157   */\n  dup5\n    /* \"#utility.yul\":2150:2164   */\n  div\n    /* \"#utility.yul\":2143:2148   */\n  dup2\n    /* \"#utility.yul\":2140:2165   */\n  gt\n    /* \"#utility.yul\":2137:2188   */\n  iszero\n  tag_37\n  jumpi\n    /* \"#utility.yul\":2168:2186   */\n  tag_38\n  tag_7\n  jump\t// in\ntag_38:\n    /* \"#utility.yul\":2137:2188   */\ntag_37:\n    /* \"#utility.yul\":2217:2221   */\n  dup2\n    /* \"#utility.yul\":2210:2215   */\n  dup2\n    /* \"#utility.yul\":2206:2222   */\n  mul\n    /* \"#utility.yul\":2197:2222   */\n  swap1\n  pop\n    /* \"#utility.yul\":1155:2228   */\ntag_23:\n  swap4\n  swap3\n  pop\n  pop\n  pop\n  jump\t// out\n    /* \"#utility.yul\":2234:2311   */\ntag_11:\n    /* \"#utility.yul\":2271:2278   */\n  0x00\n    /* \"#utility.yul\":2300:2305   */\n  dup2\n    /* \"#utility.yul\":2289:2305   */\n  swap1\n  pop\n    /* \"#utility.yul\":2234:2311   */\n  swap2\n  swap1\n  pop\n  jump\t// out\n    /* \"#utility.yul\":2317:2602   */\ntag_2:\n    /* \"#utility.yul\":2377:2382   */\n  0x00\n    /* \"#utility.yul\":2401:2424   */\n  tag_41\n    /* \"#utility.yul\":2419:2423   */\n  dup3\n    /* \"#utility.yul\":2401:2424   */\n  tag_11\n  jump\t// in\ntag_41:\n    /* \"#utility.yul\":2393:2424   */\n  swap2\n  pop\n    /* \"#utility.yul\":2445:2472   */\n  tag_42\n    /* \"#utility.yul\":2463:2471   */\n  dup4\n    /* \"#utility.yul\":2445:2472   */\n  tag_11\n  jump\t// in\ntag_42:\n    /* \"#utility.yul\":2433:2472   */\n  swap3\n  pop\n    /* \"#utility.yul\":2491:2595   */\n  tag_43\n    /* \"#utility.yul\":2528:2594   */\n  0xffffffffffffffffffffffffffffffffffffffffffffffffffffffffffffffff\n    /* \"#utility.yul\":2518:2526   */\n  dup5\n    /* \"#utility.yul\":2512:2516   */\n  dup5\n    /* \"#utility.yul\":2491:2595   */\n  tag_10\n  jump\t// in\ntag_43:\n    /* \"#utility.yul\":2482:2595   */\n  swap1\n  pop\n    /* \"#utility.yul\":2317:2602   */\n  swap3\n  swap2\n  pop\n  pop\n  jump\t// out\n    /* \"contracts/Zombiefeeding.sol\":447:1795  contract ZombieFeeding is ZombieFactory {... */\ntag_6:\n  dataSize(sub_0)\n  dup1\n  dataOffset(sub_0)\n  0x00\n  codecopy\n  0x00\n  return\nstop\n\nsub_0: assembly {\n        /* \"contracts/Zombiefeeding.sol\":447:1795  contract ZombieFeeding is ZombieFactory {... */\n      mstore(0x40, 0x80)\n      callvalue\n      dup1\n      iszero\n      tag_1\n      jumpi\n      0x00\n      dup1\n      revert\n    tag_1:\n      pop\n      jumpi(tag_2, lt(calldatasize, 0x04))\n      shr(0xe0, calldataload(0x00))\n      dup1\n      0x8da5cb5b\n      gt\n      tag_11\n      jumpi\n      dup1\n      0x8da5cb5b\n      eq\n      tag_7\n      jumpi\n      dup1\n      0x8f32d59b\n      eq\n      tag_8\n      jumpi\n      dup1\n      0xc6f15112\n      eq\n      tag_9\n      jumpi\n      dup1\n      0xf2fde38b\n      eq\n      tag_10\n      jumpi\n      jump(tag_2)\n    tag_11:\n      dup1\n      0x17a7f4cc\n      eq\n      tag_3\n      jumpi\n      dup1\n      0x2052465e\n      eq\n      tag_4\n      jumpi\n      dup1\n      0x5f4623f1\n      eq\n      tag_5\n      jumpi\n      dup1\n      0x715018a6\n      eq\n      tag_6\n      jumpi\n    tag_2:\n      0x00\n      dup1\n      revert\n        /* \"contracts/Zombiefeeding.sol\":1293:1511  function feedOnKitty(uint _zombieId, uint _kittyId) public {... */\n    tag_3:\n      tag_12\n      0x04\n      dup1\n      calldatasize\n      sub\n      dup2\n      add\n      swap1\n      tag_13\n      swap2\n      swap1\n      tag_14\n      jump\t// in\n    tag_13:\n      tag_15\n      jump\t// in\n    tag_12:\n      stop\n        /* \"contracts/Zombiefactory.sol\":499:522  Zombie[] public zombies */\n    tag_4:\n      tag_16\n      0x04\n      dup1\n      calldatasize\n      sub\n      dup2\n      add\n      swap1\n      tag_17\n      swap2\n      swap1\n      tag_18\n      jump\t// in\n    tag_17:\n      tag_19\n      jump\t// in\n    tag_16:\n      mload(0x40)\n      tag_20\n      swap5\n      swap4\n      swap3\n      swap2\n      swap1\n      tag_21\n      jump\t// in\n    tag_20:\n      mload(0x40)\n      dup1\n      swap2\n      sub\n      swap1\n      return\n        /* \"contracts/Zombiefeeding.sol\":533:660  function setKittyContractAddress(address _address) external onlyOwner {... */\n    tag_5:\n      tag_22\n      0x04\n      dup1\n      calldatasize\n      sub\n      dup2\n      add\n      swap1\n      tag_23\n      swap2\n      swap1\n      tag_24\n      jump\t// in\n    tag_23:\n      tag_25\n      jump\t// in\n    tag_22:\n      stop\n        /* \"contracts/OwnableZombie.sol\":1369:1499  function renounceOwnership() public onlyOwner {... */\n    tag_6:\n      tag_26\n      tag_27\n      jump\t// in\n    tag_26:\n      stop\n        /* \"contracts/OwnableZombie.sol\":719:791  function owner() public view returns(address) {... */\n    tag_7:\n      tag_28\n      tag_29\n      jump\t// in\n    tag_28:\n      mload(0x40)\n      tag_30\n      swap2\n      swap1\n      tag_31\n      jump\t// in\n    tag_30:\n      mload(0x40)\n      dup1\n      swap2\n      sub\n      swap1\n      return\n        /* \"contracts/OwnableZombie.sol\":1017:1102  function isOwner() public view returns(bool) {... */\n    tag_8:\n      tag_32\n      tag_33\n      jump\t// in\n    tag_32:\n      mload(0x40)\n      tag_34\n      swap2\n      swap1\n      tag_35\n      jump\t// in\n    tag_34:\n      mload(0x40)\n      dup1\n      swap2\n      sub\n      swap1\n      return\n        /* \"contracts/Zombiefactory.sol\":1613:1821  function generateRandomZombie(string memory _name) public {... */\n    tag_9:\n      tag_36\n      0x04\n      dup1\n      calldatasize\n      sub\n      dup2\n      add\n      swap1\n      tag_37\n      swap2\n      swap1\n      tag_38\n      jump\t// in\n    tag_37:\n      tag_39\n      jump\t// in\n    tag_36:\n      stop\n        /* \"contracts/OwnableZombie.sol\":1663:1766  function transferOwnership(address newOwner) public onlyOwner {... */\n    tag_10:\n      tag_40\n      0x04\n      dup1\n      calldatasize\n      sub\n      dup2\n      add\n      swap1\n      tag_41\n      swap2\n      swap1\n      tag_24\n      jump\t// in\n    tag_41:\n      tag_42\n      jump\t// in\n    tag_40:\n      stop\n        /* \"contracts/Zombiefeeding.sol\":1293:1511  function feedOnKitty(uint _zombieId, uint _kittyId) public {... */\n    tag_15:\n        /* \"contracts/Zombiefeeding.sol\":1362:1375  uint kittyDna */\n      0x00\n        /* \"contracts/Zombiefeeding.sol\":1417:1430  kittyContract */\n      0x07\n      0x00\n      swap1\n      sload\n      swap1\n      0x0100\n      exp\n      swap1\n      div\n      0xffffffffffffffffffffffffffffffffffffffff\n      and\n        /* \"contracts/Zombiefeeding.sol\":1417:1439  kittyContract.getKitty */\n      0xffffffffffffffffffffffffffffffffffffffff\n      and\n      0xe98b7f4d\n        /* \"contracts/Zombiefeeding.sol\":1440:1448  _kittyId */\n      dup4\n        /* \"contracts/Zombiefeeding.sol\":1417:1449  kittyContract.getKitty(_kittyId) */\n      mload(0x40)\n      dup3\n      0xffffffff\n      and\n      0xe0\n      shl\n      dup2\n      mstore\n      0x04\n      add\n      tag_44\n      swap2\n      swap1\n      tag_45\n      jump\t// in\n    tag_44:\n      0x0140\n      mload(0x40)\n      dup1\n      dup4\n      sub\n      dup2\n      dup7\n      gas\n      staticcall\n      iszero\n      dup1\n      iszero\n      tag_47\n      jumpi\n      returndatasize\n      0x00\n      dup1\n      returndatacopy\n      revert(0x00, returndatasize)\n    tag_47:\n      pop\n      pop\n      pop\n      pop\n      mload(0x40)\n      returndatasize\n      not(0x1f)\n      0x1f\n      dup3\n      add\n      and\n      dup3\n      add\n      dup1\n      0x40\n      mstore\n      pop\n      dup2\n      add\n      swap1\n      tag_48\n      swap2\n      swap1\n      tag_49\n      jump\t// in\n    tag_48:\n        /* \"contracts/Zombiefeeding.sol\":1385:1449  ( , , , , , , , , , kittyDna) = kittyContract.getKitty(_kittyId) */\n      swap1\n      swap2\n      swap3\n      swap4\n      swap5\n      swap6\n      swap7\n      swap8\n      swap9\n      pop\n      swap1\n      swap2\n      swap3\n      swap4\n      swap5\n      swap6\n      swap7\n      swap8\n      pop\n      swap1\n      swap2\n      swap3\n      swap4\n      swap5\n      swap6\n      swap7\n      pop\n      swap1\n      swap2\n      swap3\n      swap4\n      swap5\n      swap6\n      pop\n      swap1\n      swap2\n      swap3\n      swap4\n      swap5\n      pop\n      swap1\n      swap2\n      swap3\n      swap4\n      pop\n      swap1\n      swap2\n      swap3\n      pop\n      swap1\n      swap2\n      pop\n      swap1\n      pop\n      dup1\n      swap2\n      pop\n      pop\n        /* \"contracts/Zombiefeeding.sol\":1459:1504  feedAndMultiply(_zombieId, kittyDna, \"kitty\") */\n      tag_50\n        /* \"contracts/Zombiefeeding.sol\":1475:1484  _zombieId */\n      dup4\n        /* \"contracts/Zombiefeeding.sol\":1486:1494  kittyDna */\n      dup3\n        /* \"contracts/Zombiefeeding.sol\":1459:1504  feedAndMultiply(_zombieId, kittyDna, \"kitty\") */\n      mload(0x40)\n      dup1\n      0x40\n      add\n      0x40\n      mstore\n      dup1\n      0x05\n      dup2\n      mstore\n      0x20\n      add\n      0x6b69747479000000000000000000000000000000000000000000000000000000\n      dup2\n      mstore\n      pop\n        /* \"contracts/Zombiefeeding.sol\":1459:1474  feedAndMultiply */\n      tag_51\n        /* \"contracts/Zombiefeeding.sol\":1459:1504  feedAndMultiply(_zombieId, kittyDna, \"kitty\") */\n      jump\t// in\n    tag_50:\n        /* \"contracts/Zombiefeeding.sol\":1352:1511  {... */\n      pop\n        /* \"contracts/Zombiefeeding.sol\":1293:1511  function feedOnKitty(uint _zombieId, uint _kittyId) public {... */\n      pop\n      pop\n      jump\t// out\n        /* \"contracts/Zombiefactory.sol\":499:522  Zombie[] public zombies */\n    tag_19:\n      0x04\n      dup2\n      dup2\n      sload\n      dup2\n      lt\n      tag_52\n      jumpi\n      0x00\n      dup1\n      revert\n    tag_52:\n      swap1\n      0x00\n      mstore\n      keccak256(0x00, 0x20)\n      swap1\n      0x03\n      mul\n      add\n      0x00\n      swap2\n      pop\n      swap1\n      pop\n      dup1\n      0x00\n      add\n      sload\n      swap1\n      dup1\n      0x01\n      add\n      dup1\n      sload\n      tag_54\n      swap1\n      tag_55\n      jump\t// in\n    tag_54:\n      dup1\n      0x1f\n      add\n      0x20\n      dup1\n      swap2\n      div\n      mul\n      0x20\n      add\n      mload(0x40)\n      swap1\n      dup2\n      add\n      0x40\n      mstore\n      dup1\n      swap3\n      swap2\n      swap1\n      dup2\n      dup2\n      mstore\n      0x20\n      add\n      dup3\n      dup1\n      sload\n      tag_56\n      swap1\n      tag_55\n      jump\t// in\n    tag_56:\n      dup1\n      iszero\n      tag_57\n      jumpi\n      dup1\n      0x1f\n      lt\n      tag_58\n      jumpi\n      0x0100\n      dup1\n      dup4\n      sload\n      div\n      mul\n      dup4\n      mstore\n      swap2\n      0x20\n      add\n      swap2\n      jump(tag_57)\n    tag_58:\n      dup3\n      add\n      swap2\n      swap1\n      0x00\n      mstore\n      keccak256(0x00, 0x20)\n      swap1\n    tag_59:\n      dup2\n      sload\n      dup2\n      mstore\n      swap1\n      0x01\n      add\n      swap1\n      0x20\n      add\n      dup1\n      dup4\n      gt\n      tag_59\n      jumpi\n      dup3\n      swap1\n      sub\n      0x1f\n      and\n      dup3\n      add\n      swap2\n    tag_57:\n      pop\n      pop\n      pop\n      pop\n      pop\n      swap1\n      dup1\n      0x02\n      add\n      0x00\n      swap1\n      sload\n      swap1\n      0x0100\n      exp\n      swap1\n      div\n      0xffffffff\n      and\n      swap1\n      dup1\n      0x02\n      add\n      0x04\n      swap1\n      sload\n      swap1\n      0x0100\n      exp\n      swap1\n      div\n      0xffffffff\n      and\n      swap1\n      pop\n      dup5\n      jump\t// out\n        /* \"contracts/Zombiefeeding.sol\":533:660  function setKittyContractAddress(address _address) external onlyOwner {... */\n    tag_25:\n        /* \"contracts/OwnableZombie.sol\":910:919  isOwner() */\n      tag_61\n        /* \"contracts/OwnableZombie.sol\":910:917  isOwner */\n      tag_33\n        /* \"contracts/OwnableZombie.sol\":910:919  isOwner() */\n      jump\t// in\n    tag_61:\n        /* \"contracts/OwnableZombie.sol\":902:920  require(isOwner()) */\n      tag_62\n      jumpi\n      0x00\n      dup1\n      revert\n    tag_62:\n        /* \"contracts/Zombiefeeding.sol\":644:652  _address */\n      dup1\n        /* \"contracts/Zombiefeeding.sol\":613:626  kittyContract */\n      0x07\n      0x00\n        /* \"contracts/Zombiefeeding.sol\":613:653  kittyContract = KittyInterface(_address) */\n      0x0100\n      exp\n      dup2\n      sload\n      dup2\n      0xffffffffffffffffffffffffffffffffffffffff\n      mul\n      not\n      and\n      swap1\n      dup4\n      0xffffffffffffffffffffffffffffffffffffffff\n      and\n      mul\n      or\n      swap1\n      sstore\n      pop\n        /* \"contracts/Zombiefeeding.sol\":533:660  function setKittyContractAddress(address _address) external onlyOwner {... */\n      pop\n      jump\t// out\n        /* \"contracts/OwnableZombie.sol\":1369:1499  function renounceOwnership() public onlyOwner {... */\n    tag_27:\n        /* \"contracts/OwnableZombie.sol\":910:919  isOwner() */\n      tag_65\n        /* \"contracts/OwnableZombie.sol\":910:917  isOwner */\n      tag_33\n        /* \"contracts/OwnableZombie.sol\":910:919  isOwner() */\n      jump\t// in\n    tag_65:\n        /* \"contracts/OwnableZombie.sol\":902:920  require(isOwner()) */\n      tag_66\n      jumpi\n      0x00\n      dup1\n      revert\n    tag_66:\n        /* \"contracts/OwnableZombie.sol\":1464:1465  0 */\n      0x00\n        /* \"contracts/OwnableZombie.sol\":1427:1467  OwnershipTransferred(_owner, address(0)) */\n      0xffffffffffffffffffffffffffffffffffffffff\n      and\n        /* \"contracts/OwnableZombie.sol\":1448:1454  _owner */\n      0x00\n      dup1\n      sload\n      swap1\n      0x0100\n      exp\n      swap1\n      div\n      0xffffffffffffffffffffffffffffffffffffffff\n      and\n        /* \"contracts/OwnableZombie.sol\":1427:1467  OwnershipTransferred(_owner, address(0)) */\n      0xffffffffffffffffffffffffffffffffffffffff\n      and\n      0x8be0079c531659141344cd1fd0a4f28419497f9722a3daafe3b4186f6b6457e0\n      mload(0x40)\n      mload(0x40)\n      dup1\n      swap2\n      sub\n      swap1\n      log3\n        /* \"contracts/OwnableZombie.sol\":1491:1492  0 */\n      0x00\n        /* \"contracts/OwnableZombie.sol\":1474:1480  _owner */\n      dup1\n      0x00\n        /* \"contracts/OwnableZombie.sol\":1474:1493  _owner = address(0) */\n      0x0100\n      exp\n      dup2\n      sload\n      dup2\n      0xffffffffffffffffffffffffffffffffffffffff\n      mul\n      not\n      and\n      swap1\n      dup4\n      0xffffffffffffffffffffffffffffffffffffffff\n      and\n      mul\n      or\n      swap1\n      sstore\n      pop\n        /* \"contracts/OwnableZombie.sol\":1369:1499  function renounceOwnership() public onlyOwner {... */\n      jump\t// out\n        /* \"contracts/OwnableZombie.sol\":719:791  function owner() public view returns(address) {... */\n    tag_29:\n        /* \"contracts/OwnableZombie.sol\":756:763  address */\n      0x00\n        /* \"contracts/OwnableZombie.sol\":779:785  _owner */\n      dup1\n      0x00\n      swap1\n      sload\n      swap1\n      0x0100\n      exp\n      swap1\n      div\n      0xffffffffffffffffffffffffffffffffffffffff\n      and\n        /* \"contracts/OwnableZombie.sol\":772:785  return _owner */\n      swap1\n      pop\n        /* \"contracts/OwnableZombie.sol\":719:791  function owner() public view returns(address) {... */\n      swap1\n      jump\t// out\n        /* \"contracts/OwnableZombie.sol\":1017:1102  function isOwner() public view returns(bool) {... */\n    tag_33:\n        /* \"contracts/OwnableZombie.sol\":1056:1060  bool */\n      0x00\n        /* \"contracts/OwnableZombie.sol\":1090:1096  _owner */\n      dup1\n      0x00\n      swap1\n      sload\n      swap1\n      0x0100\n      exp\n      swap1\n      div\n      0xffffffffffffffffffffffffffffffffffffffff\n      and\n        /* \"contracts/OwnableZombie.sol\":1076:1096  msg.sender == _owner */\n      0xffffffffffffffffffffffffffffffffffffffff\n      and\n        /* \"contracts/OwnableZombie.sol\":1076:1086  msg.sender */\n      caller\n        /* \"contracts/OwnableZombie.sol\":1076:1096  msg.sender == _owner */\n      0xffffffffffffffffffffffffffffffffffffffff\n      and\n      eq\n        /* \"contracts/OwnableZombie.sol\":1069:1096  return msg.sender == _owner */\n      swap1\n      pop\n        /* \"contracts/OwnableZombie.sol\":1017:1102  function isOwner() public view returns(bool) {... */\n      swap1\n      jump\t// out\n        /* \"contracts/Zombiefactory.sol\":1613:1821  function generateRandomZombie(string memory _name) public {... */\n    tag_39:\n        /* \"contracts/Zombiefactory.sol\":1721:1722  0 */\n      0x00\n        /* \"contracts/Zombiefactory.sol\":1689:1705  ownerZombieCount */\n      0x06\n        /* \"contracts/Zombiefactory.sol\":1689:1717  ownerZombieCount[msg.sender] */\n      0x00\n        /* \"contracts/Zombiefactory.sol\":1706:1716  msg.sender */\n      caller\n        /* \"contracts/Zombiefactory.sol\":1689:1717  ownerZombieCount[msg.sender] */\n      0xffffffffffffffffffffffffffffffffffffffff\n      and\n      0xffffffffffffffffffffffffffffffffffffffff\n      and\n      dup2\n      mstore\n      0x20\n      add\n      swap1\n      dup2\n      mstore\n      0x20\n      add\n      0x00\n      keccak256\n      sload\n        /* \"contracts/Zombiefactory.sol\":1689:1722  ownerZombieCount[msg.sender] == 0 */\n      eq\n        /* \"contracts/Zombiefactory.sol\":1681:1723  require(ownerZombieCount[msg.sender] == 0) */\n      tag_71\n      jumpi\n      0x00\n      dup1\n      revert\n    tag_71:\n        /* \"contracts/Zombiefactory.sol\":1735:1747  uint randDna */\n      0x00\n        /* \"contracts/Zombiefactory.sol\":1750:1775  _generateRandomDna(_name) */\n      tag_72\n        /* \"contracts/Zombiefactory.sol\":1769:1774  _name */\n      dup3\n        /* \"contracts/Zombiefactory.sol\":1750:1768  _generateRandomDna */\n      tag_73\n        /* \"contracts/Zombiefactory.sol\":1750:1775  _generateRandomDna(_name) */\n      jump\t// in\n    tag_72:\n        /* \"contracts/Zombiefactory.sol\":1735:1775  uint randDna = _generateRandomDna(_name) */\n      swap1\n      pop\n        /* \"contracts/Zombiefactory.sol\":1785:1814  _createZombie(_name, randDna) */\n      tag_74\n        /* \"contracts/Zombiefactory.sol\":1799:1804  _name */\n      dup3\n        /* \"contracts/Zombiefactory.sol\":1806:1813  randDna */\n      dup3\n        /* \"contracts/Zombiefactory.sol\":1785:1798  _createZombie */\n      tag_75\n        /* \"contracts/Zombiefactory.sol\":1785:1814  _createZombie(_name, randDna) */\n      jump\t// in\n    tag_74:\n        /* \"contracts/Zombiefactory.sol\":1671:1821  {... */\n      pop\n        /* \"contracts/Zombiefactory.sol\":1613:1821  function generateRandomZombie(string memory _name) public {... */\n      pop\n      jump\t// out\n        /* \"contracts/OwnableZombie.sol\":1663:1766  function transferOwnership(address newOwner) public onlyOwner {... */\n    tag_42:\n        /* \"contracts/OwnableZombie.sol\":910:919  isOwner() */\n      tag_77\n        /* \"contracts/OwnableZombie.sol\":910:917  isOwner */\n      tag_33\n        /* \"contracts/OwnableZombie.sol\":910:919  isOwner() */\n      jump\t// in\n    tag_77:\n        /* \"contracts/OwnableZombie.sol\":902:920  require(isOwner()) */\n      tag_78\n      jumpi\n      0x00\n      dup1\n      revert\n    tag_78:\n        /* \"contracts/OwnableZombie.sol\":1732:1760  _transferOwnership(newOwner) */\n      tag_80\n        /* \"contracts/OwnableZombie.sol\":1751:1759  newOwner */\n      dup2\n        /* \"contracts/OwnableZombie.sol\":1732:1750  _transferOwnership */\n      tag_81\n        /* \"contracts/OwnableZombie.sol\":1732:1760  _transferOwnership(newOwner) */\n      jump\t// in\n    tag_80:\n        /* \"contracts/OwnableZombie.sol\":1663:1766  function transferOwnership(address newOwner) public onlyOwner {... */\n      pop\n      jump\t// out\n        /* \"contracts/Zombiefeeding.sol\":666:1287  function feedAndMultiply(uint _zombieId, uint _targetDna, string memory _species) internal {... */\n    tag_51:\n        /* \"contracts/Zombiefeeding.sol\":807:808  0 */\n      0x00\n        /* \"contracts/Zombiefeeding.sol\":775:791  ownerZombieCount */\n      0x06\n        /* \"contracts/Zombiefeeding.sol\":775:803  ownerZombieCount[msg.sender] */\n      0x00\n        /* \"contracts/Zombiefeeding.sol\":792:802  msg.sender */\n      caller\n        /* \"contracts/Zombiefeeding.sol\":775:803  ownerZombieCount[msg.sender] */\n      0xffffffffffffffffffffffffffffffffffffffff\n      and\n      0xffffffffffffffffffffffffffffffffffffffff\n      and\n      dup2\n      mstore\n      0x20\n      add\n      swap1\n      dup2\n      mstore\n      0x20\n      add\n      0x00\n      keccak256\n      sload\n        /* \"contracts/Zombiefeeding.sol\":775:808  ownerZombieCount[msg.sender] == 0 */\n      eq\n        /* \"contracts/Zombiefeeding.sol\":767:809  require(ownerZombieCount[msg.sender] == 0) */\n      tag_83\n      jumpi\n      0x00\n      dup1\n      revert\n    tag_83:\n        /* \"contracts/Zombiefeeding.sol\":846:869  Zombie storage myZombie */\n      0x00\n        /* \"contracts/Zombiefeeding.sol\":872:879  zombies */\n      0x04\n        /* \"contracts/Zombiefeeding.sol\":880:889  _zombieId */\n      dup5\n        /* \"contracts/Zombiefeeding.sol\":872:890  zombies[_zombieId] */\n      dup2\n      sload\n      dup2\n      lt\n      tag_84\n      jumpi\n      tag_85\n      tag_86\n      jump\t// in\n    tag_85:\n    tag_84:\n      swap1\n      0x00\n      mstore\n      keccak256(0x00, 0x20)\n      swap1\n      0x03\n      mul\n      add\n        /* \"contracts/Zombiefeeding.sol\":846:890  Zombie storage myZombie = zombies[_zombieId] */\n      swap1\n      pop\n        /* \"contracts/Zombiefeeding.sol\":908:926  _isReady(myZombie) */\n      tag_88\n        /* \"contracts/Zombiefeeding.sol\":917:925  myZombie */\n      dup2\n        /* \"contracts/Zombiefeeding.sol\":908:916  _isReady */\n      tag_89\n        /* \"contracts/Zombiefeeding.sol\":908:926  _isReady(myZombie) */\n      jump\t// in\n    tag_88:\n        /* \"contracts/Zombiefeeding.sol\":900:927  require(_isReady(myZombie)) */\n      tag_90\n      jumpi\n      0x00\n      dup1\n      revert\n    tag_90:\n        /* \"contracts/Zombiefeeding.sol\":963:973  dnaModulus */\n      sload(0x02)\n        /* \"contracts/Zombiefeeding.sol\":950:960  _targetDna */\n      dup4\n        /* \"contracts/Zombiefeeding.sol\":950:973  _targetDna % dnaModulus */\n      tag_91\n      swap2\n      swap1\n      tag_92\n      jump\t// in\n    tag_91:\n        /* \"contracts/Zombiefeeding.sol\":937:973  _targetDna = _targetDna % dnaModulus */\n      swap3\n      pop\n        /* \"contracts/Zombiefeeding.sol\":1006:1017  uint newDna */\n      0x00\n        /* \"contracts/Zombiefeeding.sol\":1050:1051  2 */\n      0x02\n        /* \"contracts/Zombiefeeding.sol\":1034:1042  myZombie */\n      dup3\n        /* \"contracts/Zombiefeeding.sol\":1034:1046  myZombie.dna */\n      0x00\n      add\n      sload\n        /* \"contracts/Zombiefeeding.sol\":1021:1031  _targetDna */\n      dup6\n        /* \"contracts/Zombiefeeding.sol\":1021:1046  _targetDna + myZombie.dna */\n      tag_93\n      swap2\n      swap1\n      tag_94\n      jump\t// in\n    tag_93:\n        /* \"contracts/Zombiefeeding.sol\":1020:1051  (_targetDna + myZombie.dna) / 2 */\n      tag_95\n      swap2\n      swap1\n      tag_96\n      jump\t// in\n    tag_95:\n        /* \"contracts/Zombiefeeding.sol\":1006:1051  uint newDna = (_targetDna + myZombie.dna) / 2 */\n      swap1\n      pop\n        /* \"contracts/Zombiefeeding.sol\":1116:1141  abi.encodePacked(\"kitty\") */\n      add(0x20, mload(0x40))\n      tag_97\n      swap1\n      tag_98\n      jump\t// in\n    tag_97:\n      mload(0x40)\n      0x20\n      dup2\n      dup4\n      sub\n      sub\n      dup2\n      mstore\n      swap1\n      0x40\n      mstore\n        /* \"contracts/Zombiefeeding.sol\":1106:1142  keccak256(abi.encodePacked(\"kitty\")) */\n      dup1\n      mload\n      swap1\n      0x20\n      add\n      keccak256\n        /* \"contracts/Zombiefeeding.sol\":1092:1100  _species */\n      dup4\n        /* \"contracts/Zombiefeeding.sol\":1075:1101  abi.encodePacked(_species) */\n      add(0x20, mload(0x40))\n      tag_99\n      swap2\n      swap1\n      tag_100\n      jump\t// in\n    tag_99:\n      mload(0x40)\n      0x20\n      dup2\n      dup4\n      sub\n      sub\n      dup2\n      mstore\n      swap1\n      0x40\n      mstore\n        /* \"contracts/Zombiefeeding.sol\":1065:1102  keccak256(abi.encodePacked(_species)) */\n      dup1\n      mload\n      swap1\n      0x20\n      add\n      keccak256\n        /* \"contracts/Zombiefeeding.sol\":1065:1142  keccak256(abi.encodePacked(_species)) == keccak256(abi.encodePacked(\"kitty\")) */\n      sub\n        /* \"contracts/Zombiefeeding.sol\":1061:1204  if (keccak256(abi.encodePacked(_species)) == keccak256(abi.encodePacked(\"kitty\"))) {... */\n      tag_101\n      jumpi\n        /* \"contracts/Zombiefeeding.sol\":1191:1193  99 */\n      0x63\n        /* \"contracts/Zombiefeeding.sol\":1185:1188  100 */\n      0x64\n        /* \"contracts/Zombiefeeding.sol\":1176:1182  newDna */\n      dup3\n        /* \"contracts/Zombiefeeding.sol\":1176:1188  newDna % 100 */\n      tag_102\n      swap2\n      swap1\n      tag_92\n      jump\t// in\n    tag_102:\n        /* \"contracts/Zombiefeeding.sol\":1167:1173  newDna */\n      dup3\n        /* \"contracts/Zombiefeeding.sol\":1167:1188  newDna - newDna % 100 */\n      tag_103\n      swap2\n      swap1\n      tag_104\n      jump\t// in\n    tag_103:\n        /* \"contracts/Zombiefeeding.sol\":1167:1193  newDna - newDna % 100 + 99 */\n      tag_105\n      swap2\n      swap1\n      tag_94\n      jump\t// in\n    tag_105:\n        /* \"contracts/Zombiefeeding.sol\":1158:1193  newDna = newDna - newDna % 100 + 99 */\n      swap1\n      pop\n        /* \"contracts/Zombiefeeding.sol\":1061:1204  if (keccak256(abi.encodePacked(_species)) == keccak256(abi.encodePacked(\"kitty\"))) {... */\n    tag_101:\n        /* \"contracts/Zombiefeeding.sol\":1213:1244  _createZombie(\"NoName\", newDna) */\n      tag_106\n      mload(0x40)\n      dup1\n      0x40\n      add\n      0x40\n      mstore\n      dup1\n      0x06\n      dup2\n      mstore\n      0x20\n      add\n      0x4e6f4e616d650000000000000000000000000000000000000000000000000000\n      dup2\n      mstore\n      pop\n        /* \"contracts/Zombiefeeding.sol\":1237:1243  newDna */\n      dup3\n        /* \"contracts/Zombiefeeding.sol\":1213:1226  _createZombie */\n      tag_75\n        /* \"contracts/Zombiefeeding.sol\":1213:1244  _createZombie(\"NoName\", newDna) */\n      jump\t// in\n    tag_106:\n        /* \"contracts/Zombiefeeding.sol\":1254:1280  _triggerCooldown(myZombie) */\n      tag_107\n        /* \"contracts/Zombiefeeding.sol\":1271:1279  myZombie */\n      dup3\n        /* \"contracts/Zombiefeeding.sol\":1254:1270  _triggerCooldown */\n      tag_108\n        /* \"contracts/Zombiefeeding.sol\":1254:1280  _triggerCooldown(myZombie) */\n      jump\t// in\n    tag_107:\n        /* \"contracts/Zombiefeeding.sol\":757:1287  {... */\n      pop\n      pop\n        /* \"contracts/Zombiefeeding.sol\":666:1287  function feedAndMultiply(uint _zombieId, uint _targetDna, string memory _species) internal {... */\n      pop\n      pop\n      pop\n      jump\t// out\n        /* \"contracts/Zombiefactory.sol\":1427:1607  function _generateRandomDna(string memory _str) private view returns (uint) {... */\n    tag_73:\n        /* \"contracts/Zombiefactory.sol\":1497:1501  uint */\n      0x00\n        /* \"contracts/Zombiefactory.sol\":1513:1522  uint rand */\n      dup1\n        /* \"contracts/Zombiefactory.sol\":1559:1563  _str */\n      dup3\n        /* \"contracts/Zombiefactory.sol\":1542:1564  abi.encodePacked(_str) */\n      add(0x20, mload(0x40))\n      tag_110\n      swap2\n      swap1\n      tag_100\n      jump\t// in\n    tag_110:\n      mload(0x40)\n      0x20\n      dup2\n      dup4\n      sub\n      sub\n      dup2\n      mstore\n      swap1\n      0x40\n      mstore\n        /* \"contracts/Zombiefactory.sol\":1532:1565  keccak256(abi.encodePacked(_str)) */\n      dup1\n      mload\n      swap1\n      0x20\n      add\n      keccak256\n        /* \"contracts/Zombiefactory.sol\":1527:1566  uint(keccak256(abi.encodePacked(_str))) */\n      0x00\n      shr\n        /* \"contracts/Zombiefactory.sol\":1513:1566  uint rand  =  uint(keccak256(abi.encodePacked(_str))) */\n      swap1\n      pop\n        /* \"contracts/Zombiefactory.sol\":1590:1600  dnaModulus */\n      sload(0x02)\n        /* \"contracts/Zombiefactory.sol\":1583:1587  rand */\n      dup2\n        /* \"contracts/Zombiefactory.sol\":1583:1600  rand % dnaModulus */\n      tag_111\n      swap2\n      swap1\n      tag_92\n      jump\t// in\n    tag_111:\n        /* \"contracts/Zombiefactory.sol\":1576:1600  return rand % dnaModulus */\n      swap2\n      pop\n      pop\n        /* \"contracts/Zombiefactory.sol\":1427:1607  function _generateRandomDna(string memory _str) private view returns (uint) {... */\n      swap2\n      swap1\n      pop\n      jump\t// out\n        /* \"contracts/Zombiefactory.sol\":973:1316  function _createZombie(string memory _name, uint _dna) internal {... */\n    tag_75:\n        /* \"contracts/Zombiefactory.sol\":1047:1054  zombies */\n      0x04\n        /* \"contracts/Zombiefactory.sol\":1060:1122  Zombie(_dna, _name, 1, uint32(block.timestamp + cooldownTime)) */\n      mload(0x40)\n      dup1\n      0x80\n      add\n      0x40\n      mstore\n      dup1\n        /* \"contracts/Zombiefactory.sol\":1067:1071  _dna */\n      dup4\n        /* \"contracts/Zombiefactory.sol\":1060:1122  Zombie(_dna, _name, 1, uint32(block.timestamp + cooldownTime)) */\n      dup2\n      mstore\n      0x20\n      add\n        /* \"contracts/Zombiefactory.sol\":1073:1078  _name */\n      dup5\n        /* \"contracts/Zombiefactory.sol\":1060:1122  Zombie(_dna, _name, 1, uint32(block.timestamp + cooldownTime)) */\n      dup2\n      mstore\n      0x20\n      add\n        /* \"contracts/Zombiefactory.sol\":1080:1081  1 */\n      0x01\n        /* \"contracts/Zombiefactory.sol\":1060:1122  Zombie(_dna, _name, 1, uint32(block.timestamp + cooldownTime)) */\n      0xffffffff\n      and\n      dup2\n      mstore\n      0x20\n      add\n        /* \"contracts/Zombiefactory.sol\":1108:1120  cooldownTime */\n      sload(0x03)\n        /* \"contracts/Zombiefactory.sol\":1090:1105  block.timestamp */\n      timestamp\n        /* \"contracts/Zombiefactory.sol\":1090:1120  block.timestamp + cooldownTime */\n      tag_113\n      swap2\n      swap1\n      tag_94\n      jump\t// in\n    tag_113:\n        /* \"contracts/Zombiefactory.sol\":1060:1122  Zombie(_dna, _name, 1, uint32(block.timestamp + cooldownTime)) */\n      0xffffffff\n      and\n      dup2\n      mstore\n      pop\n        /* \"contracts/Zombiefactory.sol\":1047:1123  zombies.push(Zombie(_dna, _name, 1, uint32(block.timestamp + cooldownTime))) */\n      swap1\n      dup1\n      0x01\n      dup2\n      sload\n      add\n      dup1\n      dup3\n      sstore\n      dup1\n      swap2\n      pop\n      pop\n      0x01\n      swap1\n      sub\n      swap1\n      0x00\n      mstore\n      keccak256(0x00, 0x20)\n      swap1\n      0x03\n      mul\n      add\n      0x00\n      swap1\n      swap2\n      swap1\n      swap2\n      swap1\n      swap2\n      pop\n      0x00\n      dup3\n      add\n      mload\n      dup2\n      0x00\n      add\n      sstore\n      0x20\n      dup3\n      add\n      mload\n      dup2\n      0x01\n      add\n      swap1\n      dup1\n      mload\n      swap1\n      0x20\n      add\n      swap1\n      tag_115\n      swap3\n      swap2\n      swap1\n      tag_116\n      jump\t// in\n    tag_115:\n      pop\n      0x40\n      dup3\n      add\n      mload\n      dup2\n      0x02\n      add\n      exp(0x0100, 0x00)\n      dup2\n      sload\n      dup2\n      0xffffffff\n      mul\n      not\n      and\n      swap1\n      dup4\n      0xffffffff\n      and\n      mul\n      or\n      swap1\n      sstore\n      pop\n      0x60\n      dup3\n      add\n      mload\n      dup2\n      0x02\n      add\n      exp(0x0100, 0x04)\n      dup2\n      sload\n      dup2\n      0xffffffff\n      mul\n      not\n      and\n      swap1\n      dup4\n      0xffffffff\n      and\n      mul\n      or\n      swap1\n      sstore\n      pop\n      pop\n      pop\n        /* \"contracts/Zombiefactory.sol\":1202:1212  msg.sender */\n      caller\n        /* \"contracts/Zombiefactory.sol\":1166:1179  zombieToOwner */\n      0x05\n        /* \"contracts/Zombiefactory.sol\":1166:1199  zombieToOwner[zombies.length - 1] */\n      0x00\n        /* \"contracts/Zombiefactory.sol\":1197:1198  1 */\n      0x01\n        /* \"contracts/Zombiefactory.sol\":1180:1187  zombies */\n      0x04\n        /* \"contracts/Zombiefactory.sol\":1180:1194  zombies.length */\n      dup1\n      sload\n      swap1\n      pop\n        /* \"contracts/Zombiefactory.sol\":1180:1198  zombies.length - 1 */\n      tag_117\n      swap2\n      swap1\n      tag_104\n      jump\t// in\n    tag_117:\n        /* \"contracts/Zombiefactory.sol\":1166:1199  zombieToOwner[zombies.length - 1] */\n      dup2\n      mstore\n      0x20\n      add\n      swap1\n      dup2\n      mstore\n      0x20\n      add\n      0x00\n      keccak256\n      0x00\n        /* \"contracts/Zombiefactory.sol\":1166:1212  zombieToOwner[zombies.length - 1] = msg.sender */\n      0x0100\n      exp\n      dup2\n      sload\n      dup2\n      0xffffffffffffffffffffffffffffffffffffffff\n      mul\n      not\n      and\n      swap1\n      dup4\n      0xffffffffffffffffffffffffffffffffffffffff\n      and\n      mul\n      or\n      swap1\n      sstore\n      pop\n        /* \"contracts/Zombiefactory.sol\":1222:1238  ownerZombieCount */\n      0x06\n        /* \"contracts/Zombiefactory.sol\":1222:1250  ownerZombieCount[msg.sender] */\n      0x00\n        /* \"contracts/Zombiefactory.sol\":1239:1249  msg.sender */\n      caller\n        /* \"contracts/Zombiefactory.sol\":1222:1250  ownerZombieCount[msg.sender] */\n      0xffffffffffffffffffffffffffffffffffffffff\n      and\n      0xffffffffffffffffffffffffffffffffffffffff\n      and\n      dup2\n      mstore\n      0x20\n      add\n      swap1\n      dup2\n      mstore\n      0x20\n      add\n      0x00\n      keccak256\n      0x00\n        /* \"contracts/Zombiefactory.sol\":1222:1252  ownerZombieCount[msg.sender]++ */\n      dup2\n      sload\n      dup1\n      swap3\n      swap2\n      swap1\n      tag_118\n      swap1\n      tag_119\n      jump\t// in\n    tag_118:\n      swap2\n      swap1\n      pop\n      sstore\n      pop\n        /* \"contracts/Zombiefactory.sol\":1267:1309  NewZombie(zombies.length - 1, _name, _dna) */\n      0x88f026aacbbecc90c18411df4b1185fd8d9be2470f1962f192bf84a27d0704b7\n        /* \"contracts/Zombiefactory.sol\":1294:1295  1 */\n      0x01\n        /* \"contracts/Zombiefactory.sol\":1277:1284  zombies */\n      0x04\n        /* \"contracts/Zombiefactory.sol\":1277:1291  zombies.length */\n      dup1\n      sload\n      swap1\n      pop\n        /* \"contracts/Zombiefactory.sol\":1277:1295  zombies.length - 1 */\n      tag_120\n      swap2\n      swap1\n      tag_104\n      jump\t// in\n    tag_120:\n        /* \"contracts/Zombiefactory.sol\":1297:1302  _name */\n      dup4\n        /* \"contracts/Zombiefactory.sol\":1304:1308  _dna */\n      dup4\n        /* \"contracts/Zombiefactory.sol\":1267:1309  NewZombie(zombies.length - 1, _name, _dna) */\n      mload(0x40)\n      tag_121\n      swap4\n      swap3\n      swap2\n      swap1\n      tag_122\n      jump\t// in\n    tag_121:\n      mload(0x40)\n      dup1\n      swap2\n      sub\n      swap1\n      log1\n        /* \"contracts/Zombiefactory.sol\":973:1316  function _createZombie(string memory _name, uint _dna) internal {... */\n      pop\n      pop\n      jump\t// out\n        /* \"contracts/OwnableZombie.sol\":1903:2076  function _transferOwnership(address newOwner) internal {... */\n    tag_81:\n        /* \"contracts/OwnableZombie.sol\":1993:1994  0 */\n      0x00\n        /* \"contracts/OwnableZombie.sol\":1973:1995  newOwner != address(0) */\n      0xffffffffffffffffffffffffffffffffffffffff\n      and\n        /* \"contracts/OwnableZombie.sol\":1973:1981  newOwner */\n      dup2\n        /* \"contracts/OwnableZombie.sol\":1973:1995  newOwner != address(0) */\n      0xffffffffffffffffffffffffffffffffffffffff\n      and\n      sub\n        /* \"contracts/OwnableZombie.sol\":1965:1996  require(newOwner != address(0)) */\n      tag_124\n      jumpi\n      0x00\n      dup1\n      revert\n    tag_124:\n        /* \"contracts/OwnableZombie.sol\":2037:2045  newOwner */\n      dup1\n        /* \"contracts/OwnableZombie.sol\":2008:2046  OwnershipTransferred(_owner, newOwner) */\n      0xffffffffffffffffffffffffffffffffffffffff\n      and\n        /* \"contracts/OwnableZombie.sol\":2029:2035  _owner */\n      0x00\n      dup1\n      sload\n      swap1\n      0x0100\n      exp\n      swap1\n      div\n      0xffffffffffffffffffffffffffffffffffffffff\n      and\n        /* \"contracts/OwnableZombie.sol\":2008:2046  OwnershipTransferred(_owner, newOwner) */\n      0xffffffffffffffffffffffffffffffffffffffff\n      and\n      0x8be0079c531659141344cd1fd0a4f28419497f9722a3daafe3b4186f6b6457e0\n      mload(0x40)\n      mload(0x40)\n      dup1\n      swap2\n      sub\n      swap1\n      log3\n        /* \"contracts/OwnableZombie.sol\":2062:2070  newOwner */\n      dup1\n        /* \"contracts/OwnableZombie.sol\":2053:2059  _owner */\n      0x00\n      dup1\n        /* \"contracts/OwnableZombie.sol\":2053:2070  _owner = newOwner */\n      0x0100\n      exp\n      dup2\n      sload\n      dup2\n      0xffffffffffffffffffffffffffffffffffffffff\n      mul\n      not\n      and\n      swap1\n      dup4\n      0xffffffffffffffffffffffffffffffffffffffff\n      and\n      mul\n      or\n      swap1\n      sstore\n      pop\n        /* \"contracts/OwnableZombie.sol\":1903:2076  function _transferOwnership(address newOwner) internal {... */\n      pop\n      jump\t// out\n        /* \"contracts/Zombiefeeding.sol\":1661:1793  function _isReady(Zombie storage _zombie) internal view returns(bool) {... */\n    tag_89:\n        /* \"contracts/Zombiefeeding.sol\":1725:1729  bool */\n      0x00\n        /* \"contracts/Zombiefeeding.sol\":1770:1785  block.timestamp */\n      timestamp\n        /* \"contracts/Zombiefeeding.sol\":1749:1756  _zombie */\n      dup3\n        /* \"contracts/Zombiefeeding.sol\":1749:1766  _zombie.readyTime */\n      0x02\n      add\n      0x04\n      swap1\n      sload\n      swap1\n      0x0100\n      exp\n      swap1\n      div\n      0xffffffff\n      and\n        /* \"contracts/Zombiefeeding.sol\":1749:1785  _zombie.readyTime <= block.timestamp */\n      0xffffffff\n      and\n      gt\n      iszero\n        /* \"contracts/Zombiefeeding.sol\":1741:1786  return (_zombie.readyTime <= block.timestamp) */\n      swap1\n      pop\n        /* \"contracts/Zombiefeeding.sol\":1661:1793  function _isReady(Zombie storage _zombie) internal view returns(bool) {... */\n      swap2\n      swap1\n      pop\n      jump\t// out\n        /* \"contracts/Zombiefeeding.sol\":1517:1651  function _triggerCooldown(Zombie storage _zombie) internal {... */\n    tag_108:\n        /* \"contracts/Zombiefeeding.sol\":1631:1643  cooldownTime */\n      sload(0x03)\n        /* \"contracts/Zombiefeeding.sol\":1613:1628  block.timestamp */\n      timestamp\n        /* \"contracts/Zombiefeeding.sol\":1613:1643  block.timestamp + cooldownTime */\n      tag_127\n      swap2\n      swap1\n      tag_94\n      jump\t// in\n    tag_127:\n        /* \"contracts/Zombiefeeding.sol\":1586:1593  _zombie */\n      dup2\n        /* \"contracts/Zombiefeeding.sol\":1586:1603  _zombie.readyTime */\n      0x02\n      add\n      0x04\n        /* \"contracts/Zombiefeeding.sol\":1586:1644  _zombie.readyTime = uint32(block.timestamp + cooldownTime) */\n      0x0100\n      exp\n      dup2\n      sload\n      dup2\n      0xffffffff\n      mul\n      not\n      and\n      swap1\n      dup4\n      0xffffffff\n      and\n      mul\n      or\n      swap1\n      sstore\n      pop\n        /* \"contracts/Zombiefeeding.sol\":1517:1651  function _triggerCooldown(Zombie storage _zombie) internal {... */\n      pop\n      jump\t// out\n    tag_116:\n      dup3\n      dup1\n      sload\n      tag_128\n      swap1\n      tag_55\n      jump\t// in\n    tag_128:\n      swap1\n      0x00\n      mstore\n      keccak256(0x00, 0x20)\n      swap1\n      0x1f\n      add\n      0x20\n      swap1\n      div\n      dup2\n      add\n      swap3\n      dup3\n      tag_130\n      jumpi\n      0x00\n      dup6\n      sstore\n      jump(tag_129)\n    tag_130:\n      dup3\n      0x1f\n      lt\n      tag_131\n      jumpi\n      dup1\n      mload\n      not(0xff)\n      and\n      dup4\n      dup1\n      add\n      or\n      dup6\n      sstore\n      jump(tag_129)\n    tag_131:\n      dup3\n      dup1\n      add\n      0x01\n      add\n      dup6\n      sstore\n      dup3\n      iszero\n      tag_129\n      jumpi\n      swap2\n      dup3\n      add\n    tag_132:\n      dup3\n      dup2\n      gt\n      iszero\n      tag_133\n      jumpi\n      dup3\n      mload\n      dup3\n      sstore\n      swap2\n      0x20\n      add\n      swap2\n      swap1\n      0x01\n      add\n      swap1\n      jump(tag_132)\n    tag_133:\n    tag_129:\n      pop\n      swap1\n      pop\n      tag_134\n      swap2\n      swap1\n      tag_135\n      jump\t// in\n    tag_134:\n      pop\n      swap1\n      jump\t// out\n    tag_135:\n    tag_136:\n      dup1\n      dup3\n      gt\n      iszero\n      tag_137\n      jumpi\n      0x00\n      dup2\n      0x00\n      swap1\n      sstore\n      pop\n      0x01\n      add\n      jump(tag_136)\n    tag_137:\n      pop\n      swap1\n      jump\t// out\n        /* \"#utility.yul\":7:82   */\n    tag_138:\n        /* \"#utility.yul\":40:46   */\n      0x00\n        /* \"#utility.yul\":73:75   */\n      0x40\n        /* \"#utility.yul\":67:76   */\n      mload\n        /* \"#utility.yul\":57:76   */\n      swap1\n      pop\n        /* \"#utility.yul\":7:82   */\n      swap1\n      jump\t// out\n        /* \"#utility.yul\":88:205   */\n    tag_139:\n        /* \"#utility.yul\":197:198   */\n      0x00\n        /* \"#utility.yul\":194:195   */\n      dup1\n        /* \"#utility.yul\":187:199   */\n      revert\n        /* \"#utility.yul\":211:328   */\n    tag_140:\n        /* \"#utility.yul\":320:321   */\n      0x00\n        /* \"#utility.yul\":317:318   */\n      dup1\n        /* \"#utility.yul\":310:322   */\n      revert\n        /* \"#utility.yul\":334:411   */\n    tag_141:\n        /* \"#utility.yul\":371:378   */\n      0x00\n        /* \"#utility.yul\":400:405   */\n      dup2\n        /* \"#utility.yul\":389:405   */\n      swap1\n      pop\n        /* \"#utility.yul\":334:411   */\n      swap2\n      swap1\n      pop\n      jump\t// out\n        /* \"#utility.yul\":417:539   */\n    tag_142:\n        /* \"#utility.yul\":490:514   */\n      tag_184\n        /* \"#utility.yul\":508:513   */\n      dup2\n        /* \"#utility.yul\":490:514   */\n      tag_141\n      jump\t// in\n    tag_184:\n        /* \"#utility.yul\":483:488   */\n      dup2\n        /* \"#utility.yul\":480:515   */\n      eq\n        /* \"#utility.yul\":470:533   */\n      tag_185\n      jumpi\n        /* \"#utility.yul\":529:530   */\n      0x00\n        /* \"#utility.yul\":526:527   */\n      dup1\n        /* \"#utility.yul\":519:531   */\n      revert\n        /* \"#utility.yul\":470:533   */\n    tag_185:\n        /* \"#utility.yul\":417:539   */\n      pop\n      jump\t// out\n        /* \"#utility.yul\":545:684   */\n    tag_143:\n        /* \"#utility.yul\":591:596   */\n      0x00\n        /* \"#utility.yul\":629:635   */\n      dup2\n        /* \"#utility.yul\":616:636   */\n      calldataload\n        /* \"#utility.yul\":607:636   */\n      swap1\n      pop\n        /* \"#utility.yul\":645:678   */\n      tag_187\n        /* \"#utility.yul\":672:677   */\n      dup2\n        /* \"#utility.yul\":645:678   */\n      tag_142\n      jump\t// in\n    tag_187:\n        /* \"#utility.yul\":545:684   */\n      swap3\n      swap2\n      pop\n      pop\n      jump\t// out\n        /* \"#utility.yul\":690:1164   */\n    tag_14:\n        /* \"#utility.yul\":758:764   */\n      0x00\n        /* \"#utility.yul\":766:772   */\n      dup1\n        /* \"#utility.yul\":815:817   */\n      0x40\n        /* \"#utility.yul\":803:812   */\n      dup4\n        /* \"#utility.yul\":794:801   */\n      dup6\n        /* \"#utility.yul\":790:813   */\n      sub\n        /* \"#utility.yul\":786:818   */\n      slt\n        /* \"#utility.yul\":783:902   */\n      iszero\n      tag_189\n      jumpi\n        /* \"#utility.yul\":821:900   */\n      tag_190\n      tag_139\n      jump\t// in\n    tag_190:\n        /* \"#utility.yul\":783:902   */\n    tag_189:\n        /* \"#utility.yul\":941:942   */\n      0x00\n        /* \"#utility.yul\":966:1019   */\n      tag_191\n        /* \"#utility.yul\":1011:1018   */\n      dup6\n        /* \"#utility.yul\":1002:1008   */\n      dup3\n        /* \"#utility.yul\":991:1000   */\n      dup7\n        /* \"#utility.yul\":987:1009   */\n      add\n        /* \"#utility.yul\":966:1019   */\n      tag_143\n      jump\t// in\n    tag_191:\n        /* \"#utility.yul\":956:1019   */\n      swap3\n      pop\n        /* \"#utility.yul\":912:1029   */\n      pop\n        /* \"#utility.yul\":1068:1070   */\n      0x20\n        /* \"#utility.yul\":1094:1147   */\n      tag_192\n        /* \"#utility.yul\":1139:1146   */\n      dup6\n        /* \"#utility.yul\":1130:1136   */\n      dup3\n        /* \"#utility.yul\":1119:1128   */\n      dup7\n        /* \"#utility.yul\":1115:1137   */\n      add\n        /* \"#utility.yul\":1094:1147   */\n      tag_143\n      jump\t// in\n    tag_192:\n        /* \"#utility.yul\":1084:1147   */\n      swap2\n      pop\n        /* \"#utility.yul\":1039:1157   */\n      pop\n        /* \"#utility.yul\":690:1164   */\n      swap3\n      pop\n      swap3\n      swap1\n      pop\n      jump\t// out\n        /* \"#utility.yul\":1170:1499   */\n    tag_18:\n        /* \"#utility.yul\":1229:1235   */\n      0x00\n        /* \"#utility.yul\":1278:1280   */\n      0x20\n        /* \"#utility.yul\":1266:1275   */\n      dup3\n        /* \"#utility.yul\":1257:1264   */\n      dup5\n        /* \"#utility.yul\":1253:1276   */\n      sub\n        /* \"#utility.yul\":1249:1281   */\n      slt\n        /* \"#utility.yul\":1246:1365   */\n      iszero\n      tag_194\n      jumpi\n        /* \"#utility.yul\":1284:1363   */\n      tag_195\n      tag_139\n      jump\t// in\n    tag_195:\n        /* \"#utility.yul\":1246:1365   */\n    tag_194:\n        /* \"#utility.yul\":1404:1405   */\n      0x00\n        /* \"#utility.yul\":1429:1482   */\n      tag_196\n        /* \"#utility.yul\":1474:1481   */\n      dup5\n        /* \"#utility.yul\":1465:1471   */\n      dup3\n        /* \"#utility.yul\":1454:1463   */\n      dup6\n        /* \"#utility.yul\":1450:1472   */\n      add\n        /* \"#utility.yul\":1429:1482   */\n      tag_143\n      jump\t// in\n    tag_196:\n        /* \"#utility.yul\":1419:1482   */\n      swap2\n      pop\n        /* \"#utility.yul\":1375:1492   */\n      pop\n        /* \"#utility.yul\":1170:1499   */\n      swap3\n      swap2\n      pop\n      pop\n      jump\t// out\n        /* \"#utility.yul\":1505:1623   */\n    tag_144:\n        /* \"#utility.yul\":1592:1616   */\n      tag_198\n        /* \"#utility.yul\":1610:1615   */\n      dup2\n        /* \"#utility.yul\":1592:1616   */\n      tag_141\n      jump\t// in\n    tag_198:\n        /* \"#utility.yul\":1587:1590   */\n      dup3\n        /* \"#utility.yul\":1580:1617   */\n      mstore\n        /* \"#utility.yul\":1505:1623   */\n      pop\n      pop\n      jump\t// out\n        /* \"#utility.yul\":1629:1728   */\n    tag_145:\n        /* \"#utility.yul\":1681:1687   */\n      0x00\n        /* \"#utility.yul\":1715:1720   */\n      dup2\n        /* \"#utility.yul\":1709:1721   */\n      mload\n        /* \"#utility.yul\":1699:1721   */\n      swap1\n      pop\n        /* \"#utility.yul\":1629:1728   */\n      swap2\n      swap1\n      pop\n      jump\t// out\n        /* \"#utility.yul\":1734:1903   */\n    tag_146:\n        /* \"#utility.yul\":1818:1829   */\n      0x00\n        /* \"#utility.yul\":1852:1858   */\n      dup3\n        /* \"#utility.yul\":1847:1850   */\n      dup3\n        /* \"#utility.yul\":1840:1859   */\n      mstore\n        /* \"#utility.yul\":1892:1896   */\n      0x20\n        /* \"#utility.yul\":1887:1890   */\n      dup3\n        /* \"#utility.yul\":1883:1897   */\n      add\n        /* \"#utility.yul\":1868:1897   */\n      swap1\n      pop\n        /* \"#utility.yul\":1734:1903   */\n      swap3\n      swap2\n      pop\n      pop\n      jump\t// out\n        /* \"#utility.yul\":1909:2216   */\n    tag_147:\n        /* \"#utility.yul\":1977:1978   */\n      0x00\n        /* \"#utility.yul\":1987:2100   */\n    tag_202:\n        /* \"#utility.yul\":2001:2007   */\n      dup4\n        /* \"#utility.yul\":1998:1999   */\n      dup2\n        /* \"#utility.yul\":1995:2008   */\n      lt\n        /* \"#utility.yul\":1987:2100   */\n      iszero\n      tag_204\n      jumpi\n        /* \"#utility.yul\":2086:2087   */\n      dup1\n        /* \"#utility.yul\":2081:2084   */\n      dup3\n        /* \"#utility.yul\":2077:2088   */\n      add\n        /* \"#utility.yul\":2071:2089   */\n      mload\n        /* \"#utility.yul\":2067:2068   */\n      dup2\n        /* \"#utility.yul\":2062:2065   */\n      dup5\n        /* \"#utility.yul\":2058:2069   */\n      add\n        /* \"#utility.yul\":2051:2090   */\n      mstore\n        /* \"#utility.yul\":2023:2025   */\n      0x20\n        /* \"#utility.yul\":2020:2021   */\n      dup2\n        /* \"#utility.yul\":2016:2026   */\n      add\n        /* \"#utility.yul\":2011:2026   */\n      swap1\n      pop\n        /* \"#utility.yul\":1987:2100   */\n      jump(tag_202)\n    tag_204:\n        /* \"#utility.yul\":2118:2124   */\n      dup4\n        /* \"#utility.yul\":2115:2116   */\n      dup2\n        /* \"#utility.yul\":2112:2125   */\n      gt\n        /* \"#utility.yul\":2109:2210   */\n      iszero\n      tag_205\n      jumpi\n        /* \"#utility.yul\":2198:2199   */\n      0x00\n        /* \"#utility.yul\":2189:2195   */\n      dup5\n        /* \"#utility.yul\":2184:2187   */\n      dup5\n        /* \"#utility.yul\":2180:2196   */\n      add\n        /* \"#utility.yul\":2173:2200   */\n      mstore\n        /* \"#utility.yul\":2109:2210   */\n    tag_205:\n        /* \"#utility.yul\":1958:2216   */\n      pop\n        /* \"#utility.yul\":1909:2216   */\n      pop\n      pop\n      pop\n      jump\t// out\n        /* \"#utility.yul\":2222:2324   */\n    tag_148:\n        /* \"#utility.yul\":2263:2269   */\n      0x00\n        /* \"#utility.yul\":2314:2316   */\n      0x1f\n        /* \"#utility.yul\":2310:2317   */\n      not\n        /* \"#utility.yul\":2305:2307   */\n      0x1f\n        /* \"#utility.yul\":2298:2303   */\n      dup4\n        /* \"#utility.yul\":2294:2308   */\n      add\n        /* \"#utility.yul\":2290:2318   */\n      and\n        /* \"#utility.yul\":2280:2318   */\n      swap1\n      pop\n        /* \"#utility.yul\":2222:2324   */\n      swap2\n      swap1\n      pop\n      jump\t// out\n        /* \"#utility.yul\":2330:2694   */\n    tag_149:\n        /* \"#utility.yul\":2418:2421   */\n      0x00\n        /* \"#utility.yul\":2446:2485   */\n      tag_208\n        /* \"#utility.yul\":2479:2484   */\n      dup3\n        /* \"#utility.yul\":2446:2485   */\n      tag_145\n      jump\t// in\n    tag_208:\n        /* \"#utility.yul\":2501:2572   */\n      tag_209\n        /* \"#utility.yul\":2565:2571   */\n      dup2\n        /* \"#utility.yul\":2560:2563   */\n      dup6\n        /* \"#utility.yul\":2501:2572   */\n      tag_146\n      jump\t// in\n    tag_209:\n        /* \"#utility.yul\":2494:2572   */\n      swap4\n      pop\n        /* \"#utility.yul\":2581:2633   */\n      tag_210\n        /* \"#utility.yul\":2626:2632   */\n      dup2\n        /* \"#utility.yul\":2621:2624   */\n      dup6\n        /* \"#utility.yul\":2614:2618   */\n      0x20\n        /* \"#utility.yul\":2607:2612   */\n      dup7\n        /* \"#utility.yul\":2603:2619   */\n      add\n        /* \"#utility.yul\":2581:2633   */\n      tag_147\n      jump\t// in\n    tag_210:\n        /* \"#utility.yul\":2658:2687   */\n      tag_211\n        /* \"#utility.yul\":2680:2686   */\n      dup2\n        /* \"#utility.yul\":2658:2687   */\n      tag_148\n      jump\t// in\n    tag_211:\n        /* \"#utility.yul\":2653:2656   */\n      dup5\n        /* \"#utility.yul\":2649:2688   */\n      add\n        /* \"#utility.yul\":2642:2688   */\n      swap2\n      pop\n        /* \"#utility.yul\":2422:2694   */\n      pop\n        /* \"#utility.yul\":2330:2694   */\n      swap3\n      swap2\n      pop\n      pop\n      jump\t// out\n        /* \"#utility.yul\":2700:2793   */\n    tag_150:\n        /* \"#utility.yul\":2736:2743   */\n      0x00\n        /* \"#utility.yul\":2776:2786   */\n      0xffffffff\n        /* \"#utility.yul\":2769:2774   */\n      dup3\n        /* \"#utility.yul\":2765:2787   */\n      and\n        /* \"#utility.yul\":2754:2787   */\n      swap1\n      pop\n        /* \"#utility.yul\":2700:2793   */\n      swap2\n      swap1\n      pop\n      jump\t// out\n        /* \"#utility.yul\":2799:2914   */\n    tag_151:\n        /* \"#utility.yul\":2884:2907   */\n      tag_214\n        /* \"#utility.yul\":2901:2906   */\n      dup2\n        /* \"#utility.yul\":2884:2907   */\n      tag_150\n      jump\t// in\n    tag_214:\n        /* \"#utility.yul\":2879:2882   */\n      dup3\n        /* \"#utility.yul\":2872:2908   */\n      mstore\n        /* \"#utility.yul\":2799:2914   */\n      pop\n      pop\n      jump\t// out\n        /* \"#utility.yul\":2920:3556   */\n    tag_21:\n        /* \"#utility.yul\":3113:3117   */\n      0x00\n        /* \"#utility.yul\":3151:3154   */\n      0x80\n        /* \"#utility.yul\":3140:3149   */\n      dup3\n        /* \"#utility.yul\":3136:3155   */\n      add\n        /* \"#utility.yul\":3128:3155   */\n      swap1\n      pop\n        /* \"#utility.yul\":3165:3236   */\n      tag_216\n        /* \"#utility.yul\":3233:3234   */\n      0x00\n        /* \"#utility.yul\":3222:3231   */\n      dup4\n        /* \"#utility.yul\":3218:3235   */\n      add\n        /* \"#utility.yul\":3209:3215   */\n      dup8\n        /* \"#utility.yul\":3165:3236   */\n      tag_144\n      jump\t// in\n    tag_216:\n        /* \"#utility.yul\":3283:3292   */\n      dup2\n        /* \"#utility.yul\":3277:3281   */\n      dup2\n        /* \"#utility.yul\":3273:3293   */\n      sub\n        /* \"#utility.yul\":3268:3270   */\n      0x20\n        /* \"#utility.yul\":3257:3266   */\n      dup4\n        /* \"#utility.yul\":3253:3271   */\n      add\n        /* \"#utility.yul\":3246:3294   */\n      mstore\n        /* \"#utility.yul\":3311:3389   */\n      tag_217\n        /* \"#utility.yul\":3384:3388   */\n      dup2\n        /* \"#utility.yul\":3375:3381   */\n      dup7\n        /* \"#utility.yul\":3311:3389   */\n      tag_149\n      jump\t// in\n    tag_217:\n        /* \"#utility.yul\":3303:3389   */\n      swap1\n      pop\n        /* \"#utility.yul\":3399:3469   */\n      tag_218\n        /* \"#utility.yul\":3465:3467   */\n      0x40\n        /* \"#utility.yul\":3454:3463   */\n      dup4\n        /* \"#utility.yul\":3450:3468   */\n      add\n        /* \"#utility.yul\":3441:3447   */\n      dup6\n        /* \"#utility.yul\":3399:3469   */\n      tag_151\n      jump\t// in\n    tag_218:\n        /* \"#utility.yul\":3479:3549   */\n      tag_219\n        /* \"#utility.yul\":3545:3547   */\n      0x60\n        /* \"#utility.yul\":3534:3543   */\n      dup4\n        /* \"#utility.yul\":3530:3548   */\n      add\n        /* \"#utility.yul\":3521:3527   */\n      dup5\n        /* \"#utility.yul\":3479:3549   */\n      tag_151\n      jump\t// in\n    tag_219:\n        /* \"#utility.yul\":2920:3556   */\n      swap6\n      swap5\n      pop\n      pop\n      pop\n      pop\n      pop\n      jump\t// out\n        /* \"#utility.yul\":3562:3688   */\n    tag_152:\n        /* \"#utility.yul\":3599:3606   */\n      0x00\n        /* \"#utility.yul\":3639:3681   */\n      0xffffffffffffffffffffffffffffffffffffffff\n        /* \"#utility.yul\":3632:3637   */\n      dup3\n        /* \"#utility.yul\":3628:3682   */\n      and\n        /* \"#utility.yul\":3617:3682   */\n      swap1\n      pop\n        /* \"#utility.yul\":3562:3688   */\n      swap2\n      swap1\n      pop\n      jump\t// out\n        /* \"#utility.yul\":3694:3790   */\n    tag_153:\n        /* \"#utility.yul\":3731:3738   */\n      0x00\n        /* \"#utility.yul\":3760:3784   */\n      tag_222\n        /* \"#utility.yul\":3778:3783   */\n      dup3\n        /* \"#utility.yul\":3760:3784   */\n      tag_152\n      jump\t// in\n    tag_222:\n        /* \"#utility.yul\":3749:3784   */\n      swap1\n      pop\n        /* \"#utility.yul\":3694:3790   */\n      swap2\n      swap1\n      pop\n      jump\t// out\n        /* \"#utility.yul\":3796:3918   */\n    tag_154:\n        /* \"#utility.yul\":3869:3893   */\n      tag_224\n        /* \"#utility.yul\":3887:3892   */\n      dup2\n        /* \"#utility.yul\":3869:3893   */\n      tag_153\n      jump\t// in\n    tag_224:\n        /* \"#utility.yul\":3862:3867   */\n      dup2\n        /* \"#utility.yul\":3859:3894   */\n      eq\n        /* \"#utility.yul\":3849:3912   */\n      tag_225\n      jumpi\n        /* \"#utility.yul\":3908:3909   */\n      0x00\n        /* \"#utility.yul\":3905:3906   */\n      dup1\n        /* \"#utility.yul\":3898:3910   */\n      revert\n        /* \"#utility.yul\":3849:3912   */\n    tag_225:\n        /* \"#utility.yul\":3796:3918   */\n      pop\n      jump\t// out\n        /* \"#utility.yul\":3924:4063   */\n    tag_155:\n        /* \"#utility.yul\":3970:3975   */\n      0x00\n        /* \"#utility.yul\":4008:4014   */\n      dup2\n        /* \"#utility.yul\":3995:4015   */\n      calldataload\n        /* \"#utility.yul\":3986:4015   */\n      swap1\n      pop\n        /* \"#utility.yul\":4024:4057   */\n      tag_227\n        /* \"#utility.yul\":4051:4056   */\n      dup2\n        /* \"#utility.yul\":4024:4057   */\n      tag_154\n      jump\t// in\n    tag_227:\n        /* \"#utility.yul\":3924:4063   */\n      swap3\n      swap2\n      pop\n      pop\n      jump\t// out\n        /* \"#utility.yul\":4069:4398   */\n    tag_24:\n        /* \"#utility.yul\":4128:4134   */\n      0x00\n        /* \"#utility.yul\":4177:4179   */\n      0x20\n        /* \"#utility.yul\":4165:4174   */\n      dup3\n        /* \"#utility.yul\":4156:4163   */\n      dup5\n        /* \"#utility.yul\":4152:4175   */\n      sub\n        /* \"#utility.yul\":4148:4180   */\n      slt\n        /* \"#utility.yul\":4145:4264   */\n      iszero\n      tag_229\n      jumpi\n        /* \"#utility.yul\":4183:4262   */\n      tag_230\n      tag_139\n      jump\t// in\n    tag_230:\n        /* \"#utility.yul\":4145:4264   */\n    tag_229:\n        /* \"#utility.yul\":4303:4304   */\n      0x00\n        /* \"#utility.yul\":4328:4381   */\n      tag_231\n        /* \"#utility.yul\":4373:4380   */\n      dup5\n        /* \"#utility.yul\":4364:4370   */\n      dup3\n        /* \"#utility.yul\":4353:4362   */\n      dup6\n        /* \"#utility.yul\":4349:4371   */\n      add\n        /* \"#utility.yul\":4328:4381   */\n      tag_155\n      jump\t// in\n    tag_231:\n        /* \"#utility.yul\":4318:4381   */\n      swap2\n      pop\n        /* \"#utility.yul\":4274:4391   */\n      pop\n        /* \"#utility.yul\":4069:4398   */\n      swap3\n      swap2\n      pop\n      pop\n      jump\t// out\n        /* \"#utility.yul\":4404:4522   */\n    tag_156:\n        /* \"#utility.yul\":4491:4515   */\n      tag_233\n        /* \"#utility.yul\":4509:4514   */\n      dup2\n        /* \"#utility.yul\":4491:4515   */\n      tag_153\n      jump\t// in\n    tag_233:\n        /* \"#utility.yul\":4486:4489   */\n      dup3\n        /* \"#utility.yul\":4479:4516   */\n      mstore\n        /* \"#utility.yul\":4404:4522   */\n      pop\n      pop\n      jump\t// out\n        /* \"#utility.yul\":4528:4750   */\n    tag_31:\n        /* \"#utility.yul\":4621:4625   */\n      0x00\n        /* \"#utility.yul\":4659:4661   */\n      0x20\n        /* \"#utility.yul\":4648:4657   */\n      dup3\n        /* \"#utility.yul\":4644:4662   */\n      add\n        /* \"#utility.yul\":4636:4662   */\n      swap1\n      pop\n        /* \"#utility.yul\":4672:4743   */\n      tag_235\n        /* \"#utility.yul\":4740:4741   */\n      0x00\n        /* \"#utility.yul\":4729:4738   */\n      dup4\n        /* \"#utility.yul\":4725:4742   */\n      add\n        /* \"#utility.yul\":4716:4722   */\n      dup5\n        /* \"#utility.yul\":4672:4743   */\n      tag_156\n      jump\t// in\n    tag_235:\n        /* \"#utility.yul\":4528:4750   */\n      swap3\n      swap2\n      pop\n      pop\n      jump\t// out\n        /* \"#utility.yul\":4756:4846   */\n    tag_157:\n        /* \"#utility.yul\":4790:4797   */\n      0x00\n        /* \"#utility.yul\":4833:4838   */\n      dup2\n        /* \"#utility.yul\":4826:4839   */\n      iszero\n        /* \"#utility.yul\":4819:4840   */\n      iszero\n        /* \"#utility.yul\":4808:4840   */\n      swap1\n      pop\n        /* \"#utility.yul\":4756:4846   */\n      swap2\n      swap1\n      pop\n      jump\t// out\n        /* \"#utility.yul\":4852:4961   */\n    tag_158:\n        /* \"#utility.yul\":4933:4954   */\n      tag_238\n        /* \"#utility.yul\":4948:4953   */\n      dup2\n        /* \"#utility.yul\":4933:4954   */\n      tag_157\n      jump\t// in\n    tag_238:\n        /* \"#utility.yul\":4928:4931   */\n      dup3\n        /* \"#utility.yul\":4921:4955   */\n      mstore\n        /* \"#utility.yul\":4852:4961   */\n      pop\n      pop\n      jump\t// out\n        /* \"#utility.yul\":4967:5177   */\n    tag_35:\n        /* \"#utility.yul\":5054:5058   */\n      0x00\n        /* \"#utility.yul\":5092:5094   */\n      0x20\n        /* \"#utility.yul\":5081:5090   */\n      dup3\n        /* \"#utility.yul\":5077:5095   */\n      add\n        /* \"#utility.yul\":5069:5095   */\n      swap1\n      pop\n        /* \"#utility.yul\":5105:5170   */\n      tag_240\n        /* \"#utility.yul\":5167:5168   */\n      0x00\n        /* \"#utility.yul\":5156:5165   */\n      dup4\n        /* \"#utility.yul\":5152:5169   */\n      add\n        /* \"#utility.yul\":5143:5149   */\n      dup5\n        /* \"#utility.yul\":5105:5170   */\n      tag_158\n      jump\t// in\n    tag_240:\n        /* \"#utility.yul\":4967:5177   */\n      swap3\n      swap2\n      pop\n      pop\n      jump\t// out\n        /* \"#utility.yul\":5183:5300   */\n    tag_159:\n        /* \"#utility.yul\":5292:5293   */\n      0x00\n        /* \"#utility.yul\":5289:5290   */\n      dup1\n        /* \"#utility.yul\":5282:5294   */\n      revert\n        /* \"#utility.yul\":5306:5423   */\n    tag_160:\n        /* \"#utility.yul\":5415:5416   */\n      0x00\n        /* \"#utility.yul\":5412:5413   */\n      dup1\n        /* \"#utility.yul\":5405:5417   */\n      revert\n        /* \"#utility.yul\":5429:5609   */\n    tag_161:\n        /* \"#utility.yul\":5477:5554   */\n      0x4e487b7100000000000000000000000000000000000000000000000000000000\n        /* \"#utility.yul\":5474:5475   */\n      0x00\n        /* \"#utility.yul\":5467:5555   */\n      mstore\n        /* \"#utility.yul\":5574:5578   */\n      0x41\n        /* \"#utility.yul\":5571:5572   */\n      0x04\n        /* \"#utility.yul\":5564:5579   */\n      mstore\n        /* \"#utility.yul\":5598:5602   */\n      0x24\n        /* \"#utility.yul\":5595:5596   */\n      0x00\n        /* \"#utility.yul\":5588:5603   */\n      revert\n        /* \"#utility.yul\":5615:5896   */\n    tag_162:\n        /* \"#utility.yul\":5698:5725   */\n      tag_245\n        /* \"#utility.yul\":5720:5724   */\n      dup3\n        /* \"#utility.yul\":5698:5725   */\n      tag_148\n      jump\t// in\n    tag_245:\n        /* \"#utility.yul\":5690:5696   */\n      dup2\n        /* \"#utility.yul\":5686:5726   */\n      add\n        /* \"#utility.yul\":5828:5834   */\n      dup2\n        /* \"#utility.yul\":5816:5826   */\n      dup2\n        /* \"#utility.yul\":5813:5835   */\n      lt\n        /* \"#utility.yul\":5792:5810   */\n      0xffffffffffffffff\n        /* \"#utility.yul\":5780:5790   */\n      dup3\n        /* \"#utility.yul\":5777:5811   */\n      gt\n        /* \"#utility.yul\":5774:5836   */\n      or\n        /* \"#utility.yul\":5771:5859   */\n      iszero\n      tag_246\n      jumpi\n        /* \"#utility.yul\":5839:5857   */\n      tag_247\n      tag_161\n      jump\t// in\n    tag_247:\n        /* \"#utility.yul\":5771:5859   */\n    tag_246:\n        /* \"#utility.yul\":5879:5889   */\n      dup1\n        /* \"#utility.yul\":5875:5877   */\n      0x40\n        /* \"#utility.yul\":5868:5890   */\n      mstore\n        /* \"#utility.yul\":5658:5896   */\n      pop\n        /* \"#utility.yul\":5615:5896   */\n      pop\n      pop\n      jump\t// out\n        /* \"#utility.yul\":5902:6031   */\n    tag_163:\n        /* \"#utility.yul\":5936:5942   */\n      0x00\n        /* \"#utility.yul\":5963:5983   */\n      tag_249\n      tag_138\n      jump\t// in\n    tag_249:\n        /* \"#utility.yul\":5953:5983   */\n      swap1\n      pop\n        /* \"#utility.yul\":5992:6025   */\n      tag_250\n        /* \"#utility.yul\":6020:6024   */\n      dup3\n        /* \"#utility.yul\":6012:6018   */\n      dup3\n        /* \"#utility.yul\":5992:6025   */\n      tag_162\n      jump\t// in\n    tag_250:\n        /* \"#utility.yul\":5902:6031   */\n      swap2\n      swap1\n      pop\n      jump\t// out\n        /* \"#utility.yul\":6037:6345   */\n    tag_164:\n        /* \"#utility.yul\":6099:6103   */\n      0x00\n        /* \"#utility.yul\":6189:6207   */\n      0xffffffffffffffff\n        /* \"#utility.yul\":6181:6187   */\n      dup3\n        /* \"#utility.yul\":6178:6208   */\n      gt\n        /* \"#utility.yul\":6175:6231   */\n      iszero\n      tag_252\n      jumpi\n        /* \"#utility.yul\":6211:6229   */\n      tag_253\n      tag_161\n      jump\t// in\n    tag_253:\n        /* \"#utility.yul\":6175:6231   */\n    tag_252:\n        /* \"#utility.yul\":6249:6278   */\n      tag_254\n        /* \"#utility.yul\":6271:6277   */\n      dup3\n        /* \"#utility.yul\":6249:6278   */\n      tag_148\n      jump\t// in\n    tag_254:\n        /* \"#utility.yul\":6241:6278   */\n      swap1\n      pop\n        /* \"#utility.yul\":6333:6337   */\n      0x20\n        /* \"#utility.yul\":6327:6331   */\n      dup2\n        /* \"#utility.yul\":6323:6338   */\n      add\n        /* \"#utility.yul\":6315:6338   */\n      swap1\n      pop\n        /* \"#utility.yul\":6037:6345   */\n      swap2\n      swap1\n      pop\n      jump\t// out\n        /* \"#utility.yul\":6351:6505   */\n    tag_165:\n        /* \"#utility.yul\":6435:6441   */\n      dup3\n        /* \"#utility.yul\":6430:6433   */\n      dup2\n        /* \"#utility.yul\":6425:6428   */\n      dup4\n        /* \"#utility.yul\":6412:6442   */\n      calldatacopy\n        /* \"#utility.yul\":6497:6498   */\n      0x00\n        /* \"#utility.yul\":6488:6494   */\n      dup4\n        /* \"#utility.yul\":6483:6486   */\n      dup4\n        /* \"#utility.yul\":6479:6495   */\n      add\n        /* \"#utility.yul\":6472:6499   */\n      mstore\n        /* \"#utility.yul\":6351:6505   */\n      pop\n      pop\n      pop\n      jump\t// out\n        /* \"#utility.yul\":6511:6923   */\n    tag_166:\n        /* \"#utility.yul\":6589:6594   */\n      0x00\n        /* \"#utility.yul\":6614:6680   */\n      tag_257\n        /* \"#utility.yul\":6630:6679   */\n      tag_258\n        /* \"#utility.yul\":6672:6678   */\n      dup5\n        /* \"#utility.yul\":6630:6679   */\n      tag_164\n      jump\t// in\n    tag_258:\n        /* \"#utility.yul\":6614:6680   */\n      tag_163\n      jump\t// in\n    tag_257:\n        /* \"#utility.yul\":6605:6680   */\n      swap1\n      pop\n        /* \"#utility.yul\":6703:6709   */\n      dup3\n        /* \"#utility.yul\":6696:6701   */\n      dup2\n        /* \"#utility.yul\":6689:6710   */\n      mstore\n        /* \"#utility.yul\":6741:6745   */\n      0x20\n        /* \"#utility.yul\":6734:6739   */\n      dup2\n        /* \"#utility.yul\":6730:6746   */\n      add\n        /* \"#utility.yul\":6779:6782   */\n      dup5\n        /* \"#utility.yul\":6770:6776   */\n      dup5\n        /* \"#utility.yul\":6765:6768   */\n      dup5\n        /* \"#utility.yul\":6761:6777   */\n      add\n        /* \"#utility.yul\":6758:6783   */\n      gt\n        /* \"#utility.yul\":6755:6867   */\n      iszero\n      tag_259\n      jumpi\n        /* \"#utility.yul\":6786:6865   */\n      tag_260\n      tag_160\n      jump\t// in\n    tag_260:\n        /* \"#utility.yul\":6755:6867   */\n    tag_259:\n        /* \"#utility.yul\":6876:6917   */\n      tag_261\n        /* \"#utility.yul\":6910:6916   */\n      dup5\n        /* \"#utility.yul\":6905:6908   */\n      dup3\n        /* \"#utility.yul\":6900:6903   */\n      dup6\n        /* \"#utility.yul\":6876:6917   */\n      tag_165\n      jump\t// in\n    tag_261:\n        /* \"#utility.yul\":6595:6923   */\n      pop\n        /* \"#utility.yul\":6511:6923   */\n      swap4\n      swap3\n      pop\n      pop\n      pop\n      jump\t// out\n        /* \"#utility.yul\":6943:7283   */\n    tag_167:\n        /* \"#utility.yul\":6999:7004   */\n      0x00\n        /* \"#utility.yul\":7048:7051   */\n      dup3\n        /* \"#utility.yul\":7041:7045   */\n      0x1f\n        /* \"#utility.yul\":7033:7039   */\n      dup4\n        /* \"#utility.yul\":7029:7046   */\n      add\n        /* \"#utility.yul\":7025:7052   */\n      slt\n        /* \"#utility.yul\":7015:7137   */\n      tag_263\n      jumpi\n        /* \"#utility.yul\":7056:7135   */\n      tag_264\n      tag_159\n      jump\t// in\n    tag_264:\n        /* \"#utility.yul\":7015:7137   */\n    tag_263:\n        /* \"#utility.yul\":7173:7179   */\n      dup2\n        /* \"#utility.yul\":7160:7180   */\n      calldataload\n        /* \"#utility.yul\":7198:7277   */\n      tag_265\n        /* \"#utility.yul\":7273:7276   */\n      dup5\n        /* \"#utility.yul\":7265:7271   */\n      dup3\n        /* \"#utility.yul\":7258:7262   */\n      0x20\n        /* \"#utility.yul\":7250:7256   */\n      dup7\n        /* \"#utility.yul\":7246:7263   */\n      add\n        /* \"#utility.yul\":7198:7277   */\n      tag_166\n      jump\t// in\n    tag_265:\n        /* \"#utility.yul\":7189:7277   */\n      swap2\n      pop\n        /* \"#utility.yul\":7005:7283   */\n      pop\n        /* \"#utility.yul\":6943:7283   */\n      swap3\n      swap2\n      pop\n      pop\n      jump\t// out\n        /* \"#utility.yul\":7289:7798   */\n    tag_38:\n        /* \"#utility.yul\":7358:7364   */\n      0x00\n        /* \"#utility.yul\":7407:7409   */\n      0x20\n        /* \"#utility.yul\":7395:7404   */\n      dup3\n        /* \"#utility.yul\":7386:7393   */\n      dup5\n        /* \"#utility.yul\":7382:7405   */\n      sub\n        /* \"#utility.yul\":7378:7410   */\n      slt\n        /* \"#utility.yul\":7375:7494   */\n      iszero\n      tag_267\n      jumpi\n        /* \"#utility.yul\":7413:7492   */\n      tag_268\n      tag_139\n      jump\t// in\n    tag_268:\n        /* \"#utility.yul\":7375:7494   */\n    tag_267:\n        /* \"#utility.yul\":7561:7562   */\n      0x00\n        /* \"#utility.yul\":7550:7559   */\n      dup3\n        /* \"#utility.yul\":7546:7563   */\n      add\n        /* \"#utility.yul\":7533:7564   */\n      calldataload\n        /* \"#utility.yul\":7591:7609   */\n      0xffffffffffffffff\n        /* \"#utility.yul\":7583:7589   */\n      dup2\n        /* \"#utility.yul\":7580:7610   */\n      gt\n        /* \"#utility.yul\":7577:7694   */\n      iszero\n      tag_269\n      jumpi\n        /* \"#utility.yul\":7613:7692   */\n      tag_270\n      tag_140\n      jump\t// in\n    tag_270:\n        /* \"#utility.yul\":7577:7694   */\n    tag_269:\n        /* \"#utility.yul\":7718:7781   */\n      tag_271\n        /* \"#utility.yul\":7773:7780   */\n      dup5\n        /* \"#utility.yul\":7764:7770   */\n      dup3\n        /* \"#utility.yul\":7753:7762   */\n      dup6\n        /* \"#utility.yul\":7749:7771   */\n      add\n        /* \"#utility.yul\":7718:7781   */\n      tag_167\n      jump\t// in\n    tag_271:\n        /* \"#utility.yul\":7708:7781   */\n      swap2\n      pop\n        /* \"#utility.yul\":7504:7791   */\n      pop\n        /* \"#utility.yul\":7289:7798   */\n      swap3\n      swap2\n      pop\n      pop\n      jump\t// out\n        /* \"#utility.yul\":7804:8026   */\n    tag_45:\n        /* \"#utility.yul\":7897:7901   */\n      0x00\n        /* \"#utility.yul\":7935:7937   */\n      0x20\n        /* \"#utility.yul\":7924:7933   */\n      dup3\n        /* \"#utility.yul\":7920:7938   */\n      add\n        /* \"#utility.yul\":7912:7938   */\n      swap1\n      pop\n        /* \"#utility.yul\":7948:8019   */\n      tag_273\n        /* \"#utility.yul\":8016:8017   */\n      0x00\n        /* \"#utility.yul\":8005:8014   */\n      dup4\n        /* \"#utility.yul\":8001:8018   */\n      add\n        /* \"#utility.yul\":7992:7998   */\n      dup5\n        /* \"#utility.yul\":7948:8019   */\n      tag_144\n      jump\t// in\n    tag_273:\n        /* \"#utility.yul\":7804:8026   */\n      swap3\n      swap2\n      pop\n      pop\n      jump\t// out\n        /* \"#utility.yul\":8032:8148   */\n    tag_168:\n        /* \"#utility.yul\":8102:8123   */\n      tag_275\n        /* \"#utility.yul\":8117:8122   */\n      dup2\n        /* \"#utility.yul\":8102:8123   */\n      tag_157\n      jump\t// in\n    tag_275:\n        /* \"#utility.yul\":8095:8100   */\n      dup2\n        /* \"#utility.yul\":8092:8124   */\n      eq\n        /* \"#utility.yul\":8082:8142   */\n      tag_276\n      jumpi\n        /* \"#utility.yul\":8138:8139   */\n      0x00\n        /* \"#utility.yul\":8135:8136   */\n      dup1\n        /* \"#utility.yul\":8128:8140   */\n      revert\n        /* \"#utility.yul\":8082:8142   */\n    tag_276:\n        /* \"#utility.yul\":8032:8148   */\n      pop\n      jump\t// out\n        /* \"#utility.yul\":8154:8291   */\n    tag_169:\n        /* \"#utility.yul\":8208:8213   */\n      0x00\n        /* \"#utility.yul\":8239:8245   */\n      dup2\n        /* \"#utility.yul\":8233:8246   */\n      mload\n        /* \"#utility.yul\":8224:8246   */\n      swap1\n      pop\n        /* \"#utility.yul\":8255:8285   */\n      tag_278\n        /* \"#utility.yul\":8279:8284   */\n      dup2\n        /* \"#utility.yul\":8255:8285   */\n      tag_168\n      jump\t// in\n    tag_278:\n        /* \"#utility.yul\":8154:8291   */\n      swap3\n      swap2\n      pop\n      pop\n      jump\t// out\n        /* \"#utility.yul\":8297:8440   */\n    tag_170:\n        /* \"#utility.yul\":8354:8359   */\n      0x00\n        /* \"#utility.yul\":8385:8391   */\n      dup2\n        /* \"#utility.yul\":8379:8392   */\n      mload\n        /* \"#utility.yul\":8370:8392   */\n      swap1\n      pop\n        /* \"#utility.yul\":8401:8434   */\n      tag_280\n        /* \"#utility.yul\":8428:8433   */\n      dup2\n        /* \"#utility.yul\":8401:8434   */\n      tag_142\n      jump\t// in\n    tag_280:\n        /* \"#utility.yul\":8297:8440   */\n      swap3\n      swap2\n      pop\n      pop\n      jump\t// out\n        /* \"#utility.yul\":8446:10196   */\n    tag_49:\n        /* \"#utility.yul\":8591:8597   */\n      0x00\n        /* \"#utility.yul\":8599:8605   */\n      dup1\n        /* \"#utility.yul\":8607:8613   */\n      0x00\n        /* \"#utility.yul\":8615:8621   */\n      dup1\n        /* \"#utility.yul\":8623:8629   */\n      0x00\n        /* \"#utility.yul\":8631:8637   */\n      dup1\n        /* \"#utility.yul\":8639:8645   */\n      0x00\n        /* \"#utility.yul\":8647:8653   */\n      dup1\n        /* \"#utility.yul\":8655:8661   */\n      0x00\n        /* \"#utility.yul\":8663:8669   */\n      dup1\n        /* \"#utility.yul\":8712:8715   */\n      0x0140\n        /* \"#utility.yul\":8700:8709   */\n      dup12\n        /* \"#utility.yul\":8691:8698   */\n      dup14\n        /* \"#utility.yul\":8687:8710   */\n      sub\n        /* \"#utility.yul\":8683:8716   */\n      slt\n        /* \"#utility.yul\":8680:8800   */\n      iszero\n      tag_282\n      jumpi\n        /* \"#utility.yul\":8719:8798   */\n      tag_283\n      tag_139\n      jump\t// in\n    tag_283:\n        /* \"#utility.yul\":8680:8800   */\n    tag_282:\n        /* \"#utility.yul\":8839:8840   */\n      0x00\n        /* \"#utility.yul\":8864:8925   */\n      tag_284\n        /* \"#utility.yul\":8917:8924   */\n      dup14\n        /* \"#utility.yul\":8908:8914   */\n      dup3\n        /* \"#utility.yul\":8897:8906   */\n      dup15\n        /* \"#utility.yul\":8893:8915   */\n      add\n        /* \"#utility.yul\":8864:8925   */\n      tag_169\n      jump\t// in\n    tag_284:\n        /* \"#utility.yul\":8854:8925   */\n      swap11\n      pop\n        /* \"#utility.yul\":8810:8935   */\n      pop\n        /* \"#utility.yul\":8974:8976   */\n      0x20\n        /* \"#utility.yul\":9000:9061   */\n      tag_285\n        /* \"#utility.yul\":9053:9060   */\n      dup14\n        /* \"#utility.yul\":9044:9050   */\n      dup3\n        /* \"#utility.yul\":9033:9042   */\n      dup15\n        /* \"#utility.yul\":9029:9051   */\n      add\n        /* \"#utility.yul\":9000:9061   */\n      tag_169\n      jump\t// in\n    tag_285:\n        /* \"#utility.yul\":8990:9061   */\n      swap10\n      pop\n        /* \"#utility.yul\":8945:9071   */\n      pop\n        /* \"#utility.yul\":9110:9112   */\n      0x40\n        /* \"#utility.yul\":9136:9200   */\n      tag_286\n        /* \"#utility.yul\":9192:9199   */\n      dup14\n        /* \"#utility.yul\":9183:9189   */\n      dup3\n        /* \"#utility.yul\":9172:9181   */\n      dup15\n        /* \"#utility.yul\":9168:9190   */\n      add\n        /* \"#utility.yul\":9136:9200   */\n      tag_170\n      jump\t// in\n    tag_286:\n        /* \"#utility.yul\":9126:9200   */\n      swap9\n      pop\n        /* \"#utility.yul\":9081:9210   */\n      pop\n        /* \"#utility.yul\":9249:9251   */\n      0x60\n        /* \"#utility.yul\":9275:9339   */\n      tag_287\n        /* \"#utility.yul\":9331:9338   */\n      dup14\n        /* \"#utility.yul\":9322:9328   */\n      dup3\n        /* \"#utility.yul\":9311:9320   */\n      dup15\n        /* \"#utility.yul\":9307:9329   */\n      add\n        /* \"#utility.yul\":9275:9339   */\n      tag_170\n      jump\t// in\n    tag_287:\n        /* \"#utility.yul\":9265:9339   */\n      swap8\n      pop\n        /* \"#utility.yul\":9220:9349   */\n      pop\n        /* \"#utility.yul\":9388:9391   */\n      0x80\n        /* \"#utility.yul\":9415:9479   */\n      tag_288\n        /* \"#utility.yul\":9471:9478   */\n      dup14\n        /* \"#utility.yul\":9462:9468   */\n      dup3\n        /* \"#utility.yul\":9451:9460   */\n      dup15\n        /* \"#utility.yul\":9447:9469   */\n      add\n        /* \"#utility.yul\":9415:9479   */\n      tag_170\n      jump\t// in\n    tag_288:\n        /* \"#utility.yul\":9405:9479   */\n      swap7\n      pop\n        /* \"#utility.yul\":9359:9489   */\n      pop\n        /* \"#utility.yul\":9528:9531   */\n      0xa0\n        /* \"#utility.yul\":9555:9619   */\n      tag_289\n        /* \"#utility.yul\":9611:9618   */\n      dup14\n        /* \"#utility.yul\":9602:9608   */\n      dup3\n        /* \"#utility.yul\":9591:9600   */\n      dup15\n        /* \"#utility.yul\":9587:9609   */\n      add\n        /* \"#utility.yul\":9555:9619   */\n      tag_170\n      jump\t// in\n    tag_289:\n        /* \"#utility.yul\":9545:9619   */\n      swap6\n      pop\n        /* \"#utility.yul\":9499:9629   */\n      pop\n        /* \"#utility.yul\":9668:9671   */\n      0xc0\n        /* \"#utility.yul\":9695:9759   */\n      tag_290\n        /* \"#utility.yul\":9751:9758   */\n      dup14\n        /* \"#utility.yul\":9742:9748   */\n      dup3\n        /* \"#utility.yul\":9731:9740   */\n      dup15\n        /* \"#utility.yul\":9727:9749   */\n      add\n        /* \"#utility.yul\":9695:9759   */\n      tag_170\n      jump\t// in\n    tag_290:\n        /* \"#utility.yul\":9685:9759   */\n      swap5\n      pop\n        /* \"#utility.yul\":9639:9769   */\n      pop\n        /* \"#utility.yul\":9808:9811   */\n      0xe0\n        /* \"#utility.yul\":9835:9899   */\n      tag_291\n        /* \"#utility.yul\":9891:9898   */\n      dup14\n        /* \"#utility.yul\":9882:9888   */\n      dup3\n        /* \"#utility.yul\":9871:9880   */\n      dup15\n        /* \"#utility.yul\":9867:9889   */\n      add\n        /* \"#utility.yul\":9835:9899   */\n      tag_170\n      jump\t// in\n    tag_291:\n        /* \"#utility.yul\":9825:9899   */\n      swap4\n      pop\n        /* \"#utility.yul\":9779:9909   */\n      pop\n        /* \"#utility.yul\":9948:9951   */\n      0x0100\n        /* \"#utility.yul\":9975:10039   */\n      tag_292\n        /* \"#utility.yul\":10031:10038   */\n      dup14\n        /* \"#utility.yul\":10022:10028   */\n      dup3\n        /* \"#utility.yul\":10011:10020   */\n      dup15\n        /* \"#utility.yul\":10007:10029   */\n      add\n        /* \"#utility.yul\":9975:10039   */\n      tag_170\n      jump\t// in\n    tag_292:\n        /* \"#utility.yul\":9965:10039   */\n      swap3\n      pop\n        /* \"#utility.yul\":9919:10049   */\n      pop\n        /* \"#utility.yul\":10088:10091   */\n      0x0120\n        /* \"#utility.yul\":10115:10179   */\n      tag_293\n        /* \"#utility.yul\":10171:10178   */\n      dup14\n        /* \"#utility.yul\":10162:10168   */\n      dup3\n        /* \"#utility.yul\":10151:10160   */\n      dup15\n        /* \"#utility.yul\":10147:10169   */\n      add\n        /* \"#utility.yul\":10115:10179   */\n      tag_170\n      jump\t// in\n    tag_293:\n        /* \"#utility.yul\":10105:10179   */\n      swap2\n      pop\n        /* \"#utility.yul\":10059:10189   */\n      pop\n        /* \"#utility.yul\":8446:10196   */\n      swap3\n      swap6\n      swap9\n      swap12\n      swap2\n      swap5\n      swap8\n      swap11\n      pop\n      swap3\n      swap6\n      swap9\n      pop\n      jump\t// out\n        /* \"#utility.yul\":10202:10382   */\n    tag_171:\n        /* \"#utility.yul\":10250:10327   */\n      0x4e487b7100000000000000000000000000000000000000000000000000000000\n        /* \"#utility.yul\":10247:10248   */\n      0x00\n        /* \"#utility.yul\":10240:10328   */\n      mstore\n        /* \"#utility.yul\":10347:10351   */\n      0x22\n        /* \"#utility.yul\":10344:10345   */\n      0x04\n        /* \"#utility.yul\":10337:10352   */\n      mstore\n        /* \"#utility.yul\":10371:10375   */\n      0x24\n        /* \"#utility.yul\":10368:10369   */\n      0x00\n        /* \"#utility.yul\":10361:10376   */\n      revert\n        /* \"#utility.yul\":10388:10708   */\n    tag_55:\n        /* \"#utility.yul\":10432:10438   */\n      0x00\n        /* \"#utility.yul\":10469:10470   */\n      0x02\n        /* \"#utility.yul\":10463:10467   */\n      dup3\n        /* \"#utility.yul\":10459:10471   */\n      div\n        /* \"#utility.yul\":10449:10471   */\n      swap1\n      pop\n        /* \"#utility.yul\":10516:10517   */\n      0x01\n        /* \"#utility.yul\":10510:10514   */\n      dup3\n        /* \"#utility.yul\":10506:10518   */\n      and\n        /* \"#utility.yul\":10537:10555   */\n      dup1\n        /* \"#utility.yul\":10527:10608   */\n      tag_296\n      jumpi\n        /* \"#utility.yul\":10593:10597   */\n      0x7f\n        /* \"#utility.yul\":10585:10591   */\n      dup3\n        /* \"#utility.yul\":10581:10598   */\n      and\n        /* \"#utility.yul\":10571:10598   */\n      swap2\n      pop\n        /* \"#utility.yul\":10527:10608   */\n    tag_296:\n        /* \"#utility.yul\":10655:10657   */\n      0x20\n        /* \"#utility.yul\":10647:10653   */\n      dup3\n        /* \"#utility.yul\":10644:10658   */\n      lt\n        /* \"#utility.yul\":10624:10642   */\n      dup2\n        /* \"#utility.yul\":10621:10659   */\n      sub\n        /* \"#utility.yul\":10618:10702   */\n      tag_297\n      jumpi\n        /* \"#utility.yul\":10674:10692   */\n      tag_298\n      tag_171\n      jump\t// in\n    tag_298:\n        /* \"#utility.yul\":10618:10702   */\n    tag_297:\n        /* \"#utility.yul\":10439:10708   */\n      pop\n        /* \"#utility.yul\":10388:10708   */\n      swap2\n      swap1\n      pop\n      jump\t// out\n        /* \"#utility.yul\":10714:10894   */\n    tag_86:\n        /* \"#utility.yul\":10762:10839   */\n      0x4e487b7100000000000000000000000000000000000000000000000000000000\n        /* \"#utility.yul\":10759:10760   */\n      0x00\n        /* \"#utility.yul\":10752:10840   */\n      mstore\n        /* \"#utility.yul\":10859:10863   */\n      0x32\n        /* \"#utility.yul\":10856:10857   */\n      0x04\n        /* \"#utility.yul\":10849:10864   */\n      mstore\n        /* \"#utility.yul\":10883:10887   */\n      0x24\n        /* \"#utility.yul\":10880:10881   */\n      0x00\n        /* \"#utility.yul\":10873:10888   */\n      revert\n        /* \"#utility.yul\":10900:11080   */\n    tag_172:\n        /* \"#utility.yul\":10948:11025   */\n      0x4e487b7100000000000000000000000000000000000000000000000000000000\n        /* \"#utility.yul\":10945:10946   */\n      0x00\n        /* \"#utility.yul\":10938:11026   */\n      mstore\n        /* \"#utility.yul\":11045:11049   */\n      0x12\n        /* \"#utility.yul\":11042:11043   */\n      0x04\n        /* \"#utility.yul\":11035:11050   */\n      mstore\n        /* \"#utility.yul\":11069:11073   */\n      0x24\n        /* \"#utility.yul\":11066:11067   */\n      0x00\n        /* \"#utility.yul\":11059:11074   */\n      revert\n        /* \"#utility.yul\":11086:11262   */\n    tag_92:\n        /* \"#utility.yul\":11118:11119   */\n      0x00\n        /* \"#utility.yul\":11135:11155   */\n      tag_302\n        /* \"#utility.yul\":11153:11154   */\n      dup3\n        /* \"#utility.yul\":11135:11155   */\n      tag_141\n      jump\t// in\n    tag_302:\n        /* \"#utility.yul\":11130:11155   */\n      swap2\n      pop\n        /* \"#utility.yul\":11169:11189   */\n      tag_303\n        /* \"#utility.yul\":11187:11188   */\n      dup4\n        /* \"#utility.yul\":11169:11189   */\n      tag_141\n      jump\t// in\n    tag_303:\n        /* \"#utility.yul\":11164:11189   */\n      swap3\n      pop\n        /* \"#utility.yul\":11208:11209   */\n      dup3\n        /* \"#utility.yul\":11198:11233   */\n      tag_304\n      jumpi\n        /* \"#utility.yul\":11213:11231   */\n      tag_305\n      tag_172\n      jump\t// in\n    tag_305:\n        /* \"#utility.yul\":11198:11233   */\n    tag_304:\n        /* \"#utility.yul\":11254:11255   */\n      dup3\n        /* \"#utility.yul\":11251:11252   */\n      dup3\n        /* \"#utility.yul\":11247:11256   */\n      mod\n        /* \"#utility.yul\":11242:11256   */\n      swap1\n      pop\n        /* \"#utility.yul\":11086:11262   */\n      swap3\n      swap2\n      pop\n      pop\n      jump\t// out\n        /* \"#utility.yul\":11268:11448   */\n    tag_173:\n        /* \"#utility.yul\":11316:11393   */\n      0x4e487b7100000000000000000000000000000000000000000000000000000000\n        /* \"#utility.yul\":11313:11314   */\n      0x00\n        /* \"#utility.yul\":11306:11394   */\n      mstore\n        /* \"#utility.yul\":11413:11417   */\n      0x11\n        /* \"#utility.yul\":11410:11411   */\n      0x04\n        /* \"#utility.yul\":11403:11418   */\n      mstore\n        /* \"#utility.yul\":11437:11441   */\n      0x24\n        /* \"#utility.yul\":11434:11435   */\n      0x00\n        /* \"#utility.yul\":11427:11442   */\n      revert\n        /* \"#utility.yul\":11454:11759   */\n    tag_94:\n        /* \"#utility.yul\":11494:11497   */\n      0x00\n        /* \"#utility.yul\":11513:11533   */\n      tag_308\n        /* \"#utility.yul\":11531:11532   */\n      dup3\n        /* \"#utility.yul\":11513:11533   */\n      tag_141\n      jump\t// in\n    tag_308:\n        /* \"#utility.yul\":11508:11533   */\n      swap2\n      pop\n        /* \"#utility.yul\":11547:11567   */\n      tag_309\n        /* \"#utility.yul\":11565:11566   */\n      dup4\n        /* \"#utility.yul\":11547:11567   */\n      tag_141\n      jump\t// in\n    tag_309:\n        /* \"#utility.yul\":11542:11567   */\n      swap3\n      pop\n        /* \"#utility.yul\":11701:11702   */\n      dup3\n        /* \"#utility.yul\":11633:11699   */\n      0xffffffffffffffffffffffffffffffffffffffffffffffffffffffffffffffff\n        /* \"#utility.yul\":11629:11703   */\n      sub\n        /* \"#utility.yul\":11626:11627   */\n      dup3\n        /* \"#utility.yul\":11623:11704   */\n      gt\n        /* \"#utility.yul\":11620:11727   */\n      iszero\n      tag_310\n      jumpi\n        /* \"#utility.yul\":11707:11725   */\n      tag_311\n      tag_173\n      jump\t// in\n    tag_311:\n        /* \"#utility.yul\":11620:11727   */\n    tag_310:\n        /* \"#utility.yul\":11751:11752   */\n      dup3\n        /* \"#utility.yul\":11748:11749   */\n      dup3\n        /* \"#utility.yul\":11744:11753   */\n      add\n        /* \"#utility.yul\":11737:11753   */\n      swap1\n      pop\n        /* \"#utility.yul\":11454:11759   */\n      swap3\n      swap2\n      pop\n      pop\n      jump\t// out\n        /* \"#utility.yul\":11765:11950   */\n    tag_96:\n        /* \"#utility.yul\":11805:11806   */\n      0x00\n        /* \"#utility.yul\":11822:11842   */\n      tag_313\n        /* \"#utility.yul\":11840:11841   */\n      dup3\n        /* \"#utility.yul\":11822:11842   */\n      tag_141\n      jump\t// in\n    tag_313:\n        /* \"#utility.yul\":11817:11842   */\n      swap2\n      pop\n        /* \"#utility.yul\":11856:11876   */\n      tag_314\n        /* \"#utility.yul\":11874:11875   */\n      dup4\n        /* \"#utility.yul\":11856:11876   */\n      tag_141\n      jump\t// in\n    tag_314:\n        /* \"#utility.yul\":11851:11876   */\n      swap3\n      pop\n        /* \"#utility.yul\":11895:11896   */\n      dup3\n        /* \"#utility.yul\":11885:11920   */\n      tag_315\n      jumpi\n        /* \"#utility.yul\":11900:11918   */\n      tag_316\n      tag_172\n      jump\t// in\n    tag_316:\n        /* \"#utility.yul\":11885:11920   */\n    tag_315:\n        /* \"#utility.yul\":11942:11943   */\n      dup3\n        /* \"#utility.yul\":11939:11940   */\n      dup3\n        /* \"#utility.yul\":11935:11944   */\n      div\n        /* \"#utility.yul\":11930:11944   */\n      swap1\n      pop\n        /* \"#utility.yul\":11765:11950   */\n      swap3\n      swap2\n      pop\n      pop\n      jump\t// out\n        /* \"#utility.yul\":11956:12104   */\n    tag_174:\n        /* \"#utility.yul\":12058:12069   */\n      0x00\n        /* \"#utility.yul\":12095:12098   */\n      dup2\n        /* \"#utility.yul\":12080:12098   */\n      swap1\n      pop\n        /* \"#utility.yul\":11956:12104   */\n      swap3\n      swap2\n      pop\n      pop\n      jump\t// out\n        /* \"#utility.yul\":12110:12265   */\n    tag_175:\n        /* \"#utility.yul\":12250:12257   */\n      0x6b69747479000000000000000000000000000000000000000000000000000000\n        /* \"#utility.yul\":12246:12247   */\n      0x00\n        /* \"#utility.yul\":12238:12244   */\n      dup3\n        /* \"#utility.yul\":12234:12248   */\n      add\n        /* \"#utility.yul\":12227:12258   */\n      mstore\n        /* \"#utility.yul\":12110:12265   */\n      pop\n      jump\t// out\n        /* \"#utility.yul\":12271:12671   */\n    tag_176:\n        /* \"#utility.yul\":12431:12434   */\n      0x00\n        /* \"#utility.yul\":12452:12536   */\n      tag_320\n        /* \"#utility.yul\":12534:12535   */\n      0x05\n        /* \"#utility.yul\":12529:12532   */\n      dup4\n        /* \"#utility.yul\":12452:12536   */\n      tag_174\n      jump\t// in\n    tag_320:\n        /* \"#utility.yul\":12445:12536   */\n      swap2\n      pop\n        /* \"#utility.yul\":12545:12638   */\n      tag_321\n        /* \"#utility.yul\":12634:12637   */\n      dup3\n        /* \"#utility.yul\":12545:12638   */\n      tag_175\n      jump\t// in\n    tag_321:\n        /* \"#utility.yul\":12663:12664   */\n      0x05\n        /* \"#utility.yul\":12658:12661   */\n      dup3\n        /* \"#utility.yul\":12654:12665   */\n      add\n        /* \"#utility.yul\":12647:12665   */\n      swap1\n      pop\n        /* \"#utility.yul\":12271:12671   */\n      swap2\n      swap1\n      pop\n      jump\t// out\n        /* \"#utility.yul\":12677:13058   */\n    tag_98:\n        /* \"#utility.yul\":12862:12865   */\n      0x00\n        /* \"#utility.yul\":12884:13032   */\n      tag_323\n        /* \"#utility.yul\":13028:13031   */\n      dup3\n        /* \"#utility.yul\":12884:13032   */\n      tag_176\n      jump\t// in\n    tag_323:\n        /* \"#utility.yul\":12877:13032   */\n      swap2\n      pop\n        /* \"#utility.yul\":13049:13052   */\n      dup2\n        /* \"#utility.yul\":13042:13052   */\n      swap1\n      pop\n        /* \"#utility.yul\":12677:13058   */\n      swap2\n      swap1\n      pop\n      jump\t// out\n        /* \"#utility.yul\":13064:13441   */\n    tag_177:\n        /* \"#utility.yul\":13170:13173   */\n      0x00\n        /* \"#utility.yul\":13198:13237   */\n      tag_325\n        /* \"#utility.yul\":13231:13236   */\n      dup3\n        /* \"#utility.yul\":13198:13237   */\n      tag_145\n      jump\t// in\n    tag_325:\n        /* \"#utility.yul\":13253:13342   */\n      tag_326\n        /* \"#utility.yul\":13335:13341   */\n      dup2\n        /* \"#utility.yul\":13330:13333   */\n      dup6\n        /* \"#utility.yul\":13253:13342   */\n      tag_174\n      jump\t// in\n    tag_326:\n        /* \"#utility.yul\":13246:13342   */\n      swap4\n      pop\n        /* \"#utility.yul\":13351:13403   */\n      tag_327\n        /* \"#utility.yul\":13396:13402   */\n      dup2\n        /* \"#utility.yul\":13391:13394   */\n      dup6\n        /* \"#utility.yul\":13384:13388   */\n      0x20\n        /* \"#utility.yul\":13377:13382   */\n      dup7\n        /* \"#utility.yul\":13373:13389   */\n      add\n        /* \"#utility.yul\":13351:13403   */\n      tag_147\n      jump\t// in\n    tag_327:\n        /* \"#utility.yul\":13428:13434   */\n      dup1\n        /* \"#utility.yul\":13423:13426   */\n      dup5\n        /* \"#utility.yul\":13419:13435   */\n      add\n        /* \"#utility.yul\":13412:13435   */\n      swap2\n      pop\n        /* \"#utility.yul\":13174:13441   */\n      pop\n        /* \"#utility.yul\":13064:13441   */\n      swap3\n      swap2\n      pop\n      pop\n      jump\t// out\n        /* \"#utility.yul\":13447:13722   */\n    tag_100:\n        /* \"#utility.yul\":13579:13582   */\n      0x00\n        /* \"#utility.yul\":13601:13696   */\n      tag_329\n        /* \"#utility.yul\":13692:13695   */\n      dup3\n        /* \"#utility.yul\":13683:13689   */\n      dup5\n        /* \"#utility.yul\":13601:13696   */\n      tag_177\n      jump\t// in\n    tag_329:\n        /* \"#utility.yul\":13594:13696   */\n      swap2\n      pop\n        /* \"#utility.yul\":13713:13716   */\n      dup2\n        /* \"#utility.yul\":13706:13716   */\n      swap1\n      pop\n        /* \"#utility.yul\":13447:13722   */\n      swap3\n      swap2\n      pop\n      pop\n      jump\t// out\n        /* \"#utility.yul\":13728:13919   */\n    tag_104:\n        /* \"#utility.yul\":13768:13772   */\n      0x00\n        /* \"#utility.yul\":13788:13808   */\n      tag_331\n        /* \"#utility.yul\":13806:13807   */\n      dup3\n        /* \"#utility.yul\":13788:13808   */\n      tag_141\n      jump\t// in\n    tag_331:\n        /* \"#utility.yul\":13783:13808   */\n      swap2\n      pop\n        /* \"#utility.yul\":13822:13842   */\n      tag_332\n        /* \"#utility.yul\":13840:13841   */\n      dup4\n        /* \"#utility.yul\":13822:13842   */\n      tag_141\n      jump\t// in\n    tag_332:\n        /* \"#utility.yul\":13817:13842   */\n      swap3\n      pop\n        /* \"#utility.yul\":13861:13862   */\n      dup3\n        /* \"#utility.yul\":13858:13859   */\n      dup3\n        /* \"#utility.yul\":13855:13863   */\n      lt\n        /* \"#utility.yul\":13852:13886   */\n      iszero\n      tag_333\n      jumpi\n        /* \"#utility.yul\":13866:13884   */\n      tag_334\n      tag_173\n      jump\t// in\n    tag_334:\n        /* \"#utility.yul\":13852:13886   */\n    tag_333:\n        /* \"#utility.yul\":13911:13912   */\n      dup3\n        /* \"#utility.yul\":13908:13909   */\n      dup3\n        /* \"#utility.yul\":13904:13913   */\n      sub\n        /* \"#utility.yul\":13896:13913   */\n      swap1\n      pop\n        /* \"#utility.yul\":13728:13919   */\n      swap3\n      swap2\n      pop\n      pop\n      jump\t// out\n        /* \"#utility.yul\":13925:14158   */\n    tag_119:\n        /* \"#utility.yul\":13964:13967   */\n      0x00\n        /* \"#utility.yul\":13987:14011   */\n      tag_336\n        /* \"#utility.yul\":14005:14010   */\n      dup3\n        /* \"#utility.yul\":13987:14011   */\n      tag_141\n      jump\t// in\n    tag_336:\n        /* \"#utility.yul\":13978:14011   */\n      swap2\n      pop\n        /* \"#utility.yul\":14033:14099   */\n      0xffffffffffffffffffffffffffffffffffffffffffffffffffffffffffffffff\n        /* \"#utility.yul\":14026:14031   */\n      dup3\n        /* \"#utility.yul\":14023:14100   */\n      sub\n        /* \"#utility.yul\":14020:14123   */\n      tag_337\n      jumpi\n        /* \"#utility.yul\":14103:14121   */\n      tag_338\n      tag_173\n      jump\t// in\n    tag_338:\n        /* \"#utility.yul\":14020:14123   */\n    tag_337:\n        /* \"#utility.yul\":14150:14151   */\n      0x01\n        /* \"#utility.yul\":14143:14148   */\n      dup3\n        /* \"#utility.yul\":14139:14152   */\n      add\n        /* \"#utility.yul\":14132:14152   */\n      swap1\n      pop\n        /* \"#utility.yul\":13925:14158   */\n      swap2\n      swap1\n      pop\n      jump\t// out\n        /* \"#utility.yul\":14164:14697   */\n    tag_122:\n        /* \"#utility.yul\":14333:14337   */\n      0x00\n        /* \"#utility.yul\":14371:14373   */\n      0x60\n        /* \"#utility.yul\":14360:14369   */\n      dup3\n        /* \"#utility.yul\":14356:14374   */\n      add\n        /* \"#utility.yul\":14348:14374   */\n      swap1\n      pop\n        /* \"#utility.yul\":14384:14455   */\n      tag_340\n        /* \"#utility.yul\":14452:14453   */\n      0x00\n        /* \"#utility.yul\":14441:14450   */\n      dup4\n        /* \"#utility.yul\":14437:14454   */\n      add\n        /* \"#utility.yul\":14428:14434   */\n      dup7\n        /* \"#utility.yul\":14384:14455   */\n      tag_144\n      jump\t// in\n    tag_340:\n        /* \"#utility.yul\":14502:14511   */\n      dup2\n        /* \"#utility.yul\":14496:14500   */\n      dup2\n        /* \"#utility.yul\":14492:14512   */\n      sub\n        /* \"#utility.yul\":14487:14489   */\n      0x20\n        /* \"#utility.yul\":14476:14485   */\n      dup4\n        /* \"#utility.yul\":14472:14490   */\n      add\n        /* \"#utility.yul\":14465:14513   */\n      mstore\n        /* \"#utility.yul\":14530:14608   */\n      tag_341\n        /* \"#utility.yul\":14603:14607   */\n      dup2\n        /* \"#utility.yul\":14594:14600   */\n      dup6\n        /* \"#utility.yul\":14530:14608   */\n      tag_149\n      jump\t// in\n    tag_341:\n        /* \"#utility.yul\":14522:14608   */\n      swap1\n      pop\n        /* \"#utility.yul\":14618:14690   */\n      tag_342\n        /* \"#utility.yul\":14686:14688   */\n      0x40\n        /* \"#utility.yul\":14675:14684   */\n      dup4\n        /* \"#utility.yul\":14671:14689   */\n      add\n        /* \"#utility.yul\":14662:14668   */\n      dup5\n        /* \"#utility.yul\":14618:14690   */\n      tag_144\n      jump\t// in\n    tag_342:\n        /* \"#utility.yul\":14164:14697   */\n      swap5\n      swap4\n      pop\n      pop\n      pop\n      pop\n      jump\t// out\n\n    auxdata: 0xa264697066735822122076d6913be29441155a87a352f50d785a244888272b6c3cce4f2d7d92d0c390f064736f6c634300080e0033\n}\n",
				"bytecode": {
					"linkReferences": {},
					"object": "60806040526010600155600154600a6200001a919062000280565b600255620151806003553480156200003157600080fd5b50336000806101000a81548173ffffffffffffffffffffffffffffffffffffffff021916908373ffffffffffffffffffffffffffffffffffffffff16021790555060008054906101000a900473ffffffffffffffffffffffffffffffffffffffff1673ffffffffffffffffffffffffffffffffffffffff16600073ffffffffffffffffffffffffffffffffffffffff167f8be0079c531659141344cd1fd0a4f28419497f9722a3daafe3b4186f6b6457e060405160405180910390a3620002d1565b7f4e487b7100000000000000000000000000000000000000000000000000000000600052601160045260246000fd5b60008160011c9050919050565b6000808291508390505b60018511156200018157808604811115620001595762000158620000f3565b5b6001851615620001695780820291505b8081029050620001798562000122565b945062000139565b94509492505050565b6000826200019c57600190506200026f565b81620001ac57600090506200026f565b8160018114620001c55760028114620001d05762000206565b60019150506200026f565b60ff841115620001e557620001e4620000f3565b5b8360020a915084821115620001ff57620001fe620000f3565b5b506200026f565b5060208310610133831016604e8410600b8410161715620002405782820a9050838111156200023a5762000239620000f3565b5b6200026f565b6200024f84848460016200012f565b92509050818404811115620002695762000268620000f3565b5b81810290505b9392505050565b6000819050919050565b60006200028d8262000276565b91506200029a8362000276565b9250620002c97fffffffffffffffffffffffffffffffffffffffffffffffffffffffffffffffff84846200018a565b905092915050565b6113f380620002e16000396000f3fe608060405234801561001057600080fd5b50600436106100885760003560e01c80638da5cb5b1161005b5780638da5cb5b146101025780638f32d59b14610120578063c6f151121461013e578063f2fde38b1461015a57610088565b806317a7f4cc1461008d5780632052465e146100a95780635f4623f1146100dc578063715018a6146100f8575b600080fd5b6100a760048036038101906100a29190610b86565b610176565b005b6100c360048036038101906100be9190610bc6565b610294565b6040516100d39493929190610cba565b60405180910390f35b6100f660048036038101906100f19190610d64565b61037c565b005b6101006103d1565b005b61010a6104a0565b6040516101179190610da0565b60405180910390f35b6101286104c9565b6040516101359190610dd6565b60405180910390f35b61015860048036038101906101539190610f26565b610520565b005b610174600480360381019061016f9190610d64565b610587565b005b6000600760009054906101000a900473ffffffffffffffffffffffffffffffffffffffff1673ffffffffffffffffffffffffffffffffffffffff1663e98b7f4d836040518263ffffffff1660e01b81526004016101d39190610f6f565b61014060405180830381865afa1580156101f1573d6000803e3d6000fd5b505050506040513d601f19601f820116820180604052508101906102159190610fcb565b9091929394959697985090919293949596975090919293949596509091929394955090919293945090919293509091925090915090508091505061028f83826040518060400160405280600581526020017f6b697474790000000000000000000000000000000000000000000000000000008152506105a4565b505050565b600481815481106102a457600080fd5b90600052602060002090600302016000915090508060000154908060010180546102cd906110d9565b80601f01602080910402602001604051908101604052809291908181526020018280546102f9906110d9565b80156103465780601f1061031b57610100808354040283529160200191610346565b820191906000526020600020905b81548152906001019060200180831161032957829003601f168201915b5050505050908060020160009054906101000a900463ffffffff16908060020160049054906101000a900463ffffffff16905084565b6103846104c9565b61038d57600080fd5b80600760006101000a81548173ffffffffffffffffffffffffffffffffffffffff021916908373ffffffffffffffffffffffffffffffffffffffff16021790555050565b6103d96104c9565b6103e257600080fd5b600073ffffffffffffffffffffffffffffffffffffffff1660008054906101000a900473ffffffffffffffffffffffffffffffffffffffff1673ffffffffffffffffffffffffffffffffffffffff167f8be0079c531659141344cd1fd0a4f28419497f9722a3daafe3b4186f6b6457e060405160405180910390a360008060006101000a81548173ffffffffffffffffffffffffffffffffffffffff021916908373ffffffffffffffffffffffffffffffffffffffff160217905550565b60008060009054906101000a900473ffffffffffffffffffffffffffffffffffffffff16905090565b60008060009054906101000a900473ffffffffffffffffffffffffffffffffffffffff1673ffffffffffffffffffffffffffffffffffffffff163373ffffffffffffffffffffffffffffffffffffffff1614905090565b6000600660003373ffffffffffffffffffffffffffffffffffffffff1673ffffffffffffffffffffffffffffffffffffffff168152602001908152602001600020541461056c57600080fd5b60006105778261071f565b90506105838282610764565b5050565b61058f6104c9565b61059857600080fd5b6105a181610949565b50565b6000600660003373ffffffffffffffffffffffffffffffffffffffff1673ffffffffffffffffffffffffffffffffffffffff16815260200190815260200160002054146105f057600080fd5b6000600484815481106106065761060561110a565b5b9060005260206000209060030201905061061f81610a3f565b61062857600080fd5b600254836106369190611168565b92506000600282600001548561064c91906111c8565b610656919061121e565b9050604051602001610667906112a6565b604051602081830303815290604052805190602001208360405160200161068e91906112ec565b60405160208183030381529060405280519060200120036106d05760636064826106b89190611168565b826106c39190611303565b6106cd91906111c8565b90505b61070f6040518060400160405280600681526020017f4e6f4e616d65000000000000000000000000000000000000000000000000000081525082610764565b61071882610a66565b5050505050565b6000808260405160200161073391906112ec565b6040516020818303038152906040528051906020012060001c90506002548161075c9190611168565b915050919050565b60046040518060800160405280838152602001848152602001600163ffffffff1681526020016003544261079891906111c8565b63ffffffff1681525090806001815401808255809150506001900390600052602060002090600302016000909190919091506000820151816000015560208201518160010190805190602001906107f0929190610a99565b5060408201518160020160006101000a81548163ffffffff021916908363ffffffff16021790555060608201518160020160046101000a81548163ffffffff021916908363ffffffff1602179055505050336005600060016004805490506108589190611303565b815260200190815260200160002060006101000a81548173ffffffffffffffffffffffffffffffffffffffff021916908373ffffffffffffffffffffffffffffffffffffffff160217905550600660003373ffffffffffffffffffffffffffffffffffffffff1673ffffffffffffffffffffffffffffffffffffffff16815260200190815260200160002060008154809291906108f490611337565b91905055507f88f026aacbbecc90c18411df4b1185fd8d9be2470f1962f192bf84a27d0704b7600160048054905061092c9190611303565b838360405161093d9392919061137f565b60405180910390a15050565b600073ffffffffffffffffffffffffffffffffffffffff168173ffffffffffffffffffffffffffffffffffffffff160361098257600080fd5b8073ffffffffffffffffffffffffffffffffffffffff1660008054906101000a900473ffffffffffffffffffffffffffffffffffffffff1673ffffffffffffffffffffffffffffffffffffffff167f8be0079c531659141344cd1fd0a4f28419497f9722a3daafe3b4186f6b6457e060405160405180910390a3806000806101000a81548173ffffffffffffffffffffffffffffffffffffffff021916908373ffffffffffffffffffffffffffffffffffffffff16021790555050565b6000428260020160049054906101000a900463ffffffff1663ffffffff1611159050919050565b60035442610a7491906111c8565b8160020160046101000a81548163ffffffff021916908363ffffffff16021790555050565b828054610aa5906110d9565b90600052602060002090601f016020900481019282610ac75760008555610b0e565b82601f10610ae057805160ff1916838001178555610b0e565b82800160010185558215610b0e579182015b82811115610b0d578251825591602001919060010190610af2565b5b509050610b1b9190610b1f565b5090565b5b80821115610b38576000816000905550600101610b20565b5090565b6000604051905090565b600080fd5b600080fd5b6000819050919050565b610b6381610b50565b8114610b6e57600080fd5b50565b600081359050610b8081610b5a565b92915050565b60008060408385031215610b9d57610b9c610b46565b5b6000610bab85828601610b71565b9250506020610bbc85828601610b71565b9150509250929050565b600060208284031215610bdc57610bdb610b46565b5b6000610bea84828501610b71565b91505092915050565b610bfc81610b50565b82525050565b600081519050919050565b600082825260208201905092915050565b60005b83811015610c3c578082015181840152602081019050610c21565b83811115610c4b576000848401525b50505050565b6000601f19601f8301169050919050565b6000610c6d82610c02565b610c778185610c0d565b9350610c87818560208601610c1e565b610c9081610c51565b840191505092915050565b600063ffffffff82169050919050565b610cb481610c9b565b82525050565b6000608082019050610ccf6000830187610bf3565b8181036020830152610ce18186610c62565b9050610cf06040830185610cab565b610cfd6060830184610cab565b95945050505050565b600073ffffffffffffffffffffffffffffffffffffffff82169050919050565b6000610d3182610d06565b9050919050565b610d4181610d26565b8114610d4c57600080fd5b50565b600081359050610d5e81610d38565b92915050565b600060208284031215610d7a57610d79610b46565b5b6000610d8884828501610d4f565b91505092915050565b610d9a81610d26565b82525050565b6000602082019050610db56000830184610d91565b92915050565b60008115159050919050565b610dd081610dbb565b82525050565b6000602082019050610deb6000830184610dc7565b92915050565b600080fd5b600080fd5b7f4e487b7100000000000000000000000000000000000000000000000000000000600052604160045260246000fd5b610e3382610c51565b810181811067ffffffffffffffff82111715610e5257610e51610dfb565b5b80604052505050565b6000610e65610b3c565b9050610e718282610e2a565b919050565b600067ffffffffffffffff821115610e9157610e90610dfb565b5b610e9a82610c51565b9050602081019050919050565b82818337600083830152505050565b6000610ec9610ec484610e76565b610e5b565b905082815260208101848484011115610ee557610ee4610df6565b5b610ef0848285610ea7565b509392505050565b600082601f830112610f0d57610f0c610df1565b5b8135610f1d848260208601610eb6565b91505092915050565b600060208284031215610f3c57610f3b610b46565b5b600082013567ffffffffffffffff811115610f5a57610f59610b4b565b5b610f6684828501610ef8565b91505092915050565b6000602082019050610f846000830184610bf3565b92915050565b610f9381610dbb565b8114610f9e57600080fd5b50565b600081519050610fb081610f8a565b92915050565b600081519050610fc581610b5a565b92915050565b6000806000806000806000806000806101408b8d031215610fef57610fee610b46565b5b6000610ffd8d828e01610fa1565b9a5050602061100e8d828e01610fa1565b995050604061101f8d828e01610fb6565b98505060606110308d828e01610fb6565b97505060806110418d828e01610fb6565b96505060a06110528d828e01610fb6565b95505060c06110638d828e01610fb6565b94505060e06110748d828e01610fb6565b9350506101006110868d828e01610fb6565b9250506101206110988d828e01610fb6565b9150509295989b9194979a5092959850565b7f4e487b7100000000000000000000000000000000000000000000000000000000600052602260045260246000fd5b600060028204905060018216806110f157607f821691505b602082108103611104576111036110aa565b5b50919050565b7f4e487b7100000000000000000000000000000000000000000000000000000000600052603260045260246000fd5b7f4e487b7100000000000000000000000000000000000000000000000000000000600052601260045260246000fd5b600061117382610b50565b915061117e83610b50565b92508261118e5761118d611139565b5b828206905092915050565b7f4e487b7100000000000000000000000000000000000000000000000000000000600052601160045260246000fd5b60006111d382610b50565b91506111de83610b50565b9250827fffffffffffffffffffffffffffffffffffffffffffffffffffffffffffffffff0382111561121357611212611199565b5b828201905092915050565b600061122982610b50565b915061123483610b50565b92508261124457611243611139565b5b828204905092915050565b600081905092915050565b7f6b69747479000000000000000000000000000000000000000000000000000000600082015250565b600061129060058361124f565b915061129b8261125a565b600582019050919050565b60006112b182611283565b9150819050919050565b60006112c682610c02565b6112d0818561124f565b93506112e0818560208601610c1e565b80840191505092915050565b60006112f882846112bb565b915081905092915050565b600061130e82610b50565b915061131983610b50565b92508282101561132c5761132b611199565b5b828203905092915050565b600061134282610b50565b91507fffffffffffffffffffffffffffffffffffffffffffffffffffffffffffffffff820361137457611373611199565b5b600182019050919050565b60006060820190506113946000830186610bf3565b81810360208301526113a68185610c62565b90506113b56040830184610bf3565b94935050505056fea264697066735822122076d6913be29441155a87a352f50d785a244888272b6c3cce4f2d7d92d0c390f064736f6c634300080e0033",
					"opcodes": "PUSH1 0x80 PUSH1 0x40 MSTORE PUSH1 0x10 PUSH1 0x1 SSTORE PUSH1 0x1 SLOAD PUSH1 0xA PUSH3 0x1A SWAP2 SWAP1 PUSH3 0x280 JUMP JUMPDEST PUSH1 0x2 SSTORE PUSH3 0x15180 PUSH1 0x3 SSTORE CALLVALUE DUP1 ISZERO PUSH3 0x31 JUMPI PUSH1 0x0 DUP1 REVERT JUMPDEST POP CALLER PUSH1 0x0 DUP1 PUSH2 0x100 EXP DUP2 SLOAD DUP2 PUSH20 0xFFFFFFFFFFFFFFFFFFFFFFFFFFFFFFFFFFFFFFFF MUL NOT AND SWAP1 DUP4 PUSH20 0xFFFFFFFFFFFFFFFFFFFFFFFFFFFFFFFFFFFFFFFF AND MUL OR SWAP1 SSTORE POP PUSH1 0x0 DUP1 SLOAD SWAP1 PUSH2 0x100 EXP SWAP1 DIV PUSH20 0xFFFFFFFFFFFFFFFFFFFFFFFFFFFFFFFFFFFFFFFF AND PUSH20 0xFFFFFFFFFFFFFFFFFFFFFFFFFFFFFFFFFFFFFFFF AND PUSH1 0x0 PUSH20 0xFFFFFFFFFFFFFFFFFFFFFFFFFFFFFFFFFFFFFFFF AND PUSH32 0x8BE0079C531659141344CD1FD0A4F28419497F9722A3DAAFE3B4186F6B6457E0 PUSH1 0x40 MLOAD PUSH1 0x40 MLOAD DUP1 SWAP2 SUB SWAP1 LOG3 PUSH3 0x2D1 JUMP JUMPDEST PUSH32 0x4E487B7100000000000000000000000000000000000000000000000000000000 PUSH1 0x0 MSTORE PUSH1 0x11 PUSH1 0x4 MSTORE PUSH1 0x24 PUSH1 0x0 REVERT JUMPDEST PUSH1 0x0 DUP2 PUSH1 0x1 SHR SWAP1 POP SWAP2 SWAP1 POP JUMP JUMPDEST PUSH1 0x0 DUP1 DUP3 SWAP2 POP DUP4 SWAP1 POP JUMPDEST PUSH1 0x1 DUP6 GT ISZERO PUSH3 0x181 JUMPI DUP1 DUP7 DIV DUP2 GT ISZERO PUSH3 0x159 JUMPI PUSH3 0x158 PUSH3 0xF3 JUMP JUMPDEST JUMPDEST PUSH1 0x1 DUP6 AND ISZERO PUSH3 0x169 JUMPI DUP1 DUP3 MUL SWAP2 POP JUMPDEST DUP1 DUP2 MUL SWAP1 POP PUSH3 0x179 DUP6 PUSH3 0x122 JUMP JUMPDEST SWAP5 POP PUSH3 0x139 JUMP JUMPDEST SWAP5 POP SWAP5 SWAP3 POP POP POP JUMP JUMPDEST PUSH1 0x0 DUP3 PUSH3 0x19C JUMPI PUSH1 0x1 SWAP1 POP PUSH3 0x26F JUMP JUMPDEST DUP2 PUSH3 0x1AC JUMPI PUSH1 0x0 SWAP1 POP PUSH3 0x26F JUMP JUMPDEST DUP2 PUSH1 0x1 DUP2 EQ PUSH3 0x1C5 JUMPI PUSH1 0x2 DUP2 EQ PUSH3 0x1D0 JUMPI PUSH3 0x206 JUMP JUMPDEST PUSH1 0x1 SWAP2 POP POP PUSH3 0x26F JUMP JUMPDEST PUSH1 0xFF DUP5 GT ISZERO PUSH3 0x1E5 JUMPI PUSH3 0x1E4 PUSH3 0xF3 JUMP JUMPDEST JUMPDEST DUP4 PUSH1 0x2 EXP SWAP2 POP DUP5 DUP3 GT ISZERO PUSH3 0x1FF JUMPI PUSH3 0x1FE PUSH3 0xF3 JUMP JUMPDEST JUMPDEST POP PUSH3 0x26F JUMP JUMPDEST POP PUSH1 0x20 DUP4 LT PUSH2 0x133 DUP4 LT AND PUSH1 0x4E DUP5 LT PUSH1 0xB DUP5 LT AND OR ISZERO PUSH3 0x240 JUMPI DUP3 DUP3 EXP SWAP1 POP DUP4 DUP2 GT ISZERO PUSH3 0x23A JUMPI PUSH3 0x239 PUSH3 0xF3 JUMP JUMPDEST JUMPDEST PUSH3 0x26F JUMP JUMPDEST PUSH3 0x24F DUP5 DUP5 DUP5 PUSH1 0x1 PUSH3 0x12F JUMP JUMPDEST SWAP3 POP SWAP1 POP DUP2 DUP5 DIV DUP2 GT ISZERO PUSH3 0x269 JUMPI PUSH3 0x268 PUSH3 0xF3 JUMP JUMPDEST JUMPDEST DUP2 DUP2 MUL SWAP1 POP JUMPDEST SWAP4 SWAP3 POP POP POP JUMP JUMPDEST PUSH1 0x0 DUP2 SWAP1 POP SWAP2 SWAP1 POP JUMP JUMPDEST PUSH1 0x0 PUSH3 0x28D DUP3 PUSH3 0x276 JUMP JUMPDEST SWAP2 POP PUSH3 0x29A DUP4 PUSH3 0x276 JUMP JUMPDEST SWAP3 POP PUSH3 0x2C9 PUSH32 0xFFFFFFFFFFFFFFFFFFFFFFFFFFFFFFFFFFFFFFFFFFFFFFFFFFFFFFFFFFFFFFFF DUP5 DUP5 PUSH3 0x18A JUMP JUMPDEST SWAP1 POP SWAP3 SWAP2 POP POP JUMP JUMPDEST PUSH2 0x13F3 DUP1 PUSH3 0x2E1 PUSH1 0x0 CODECOPY PUSH1 0x0 RETURN INVALID PUSH1 0x80 PUSH1 0x40 MSTORE CALLVALUE DUP1 ISZERO PUSH2 0x10 JUMPI PUSH1 0x0 DUP1 REVERT JUMPDEST POP PUSH1 0x4 CALLDATASIZE LT PUSH2 0x88 JUMPI PUSH1 0x0 CALLDATALOAD PUSH1 0xE0 SHR DUP1 PUSH4 0x8DA5CB5B GT PUSH2 0x5B JUMPI DUP1 PUSH4 0x8DA5CB5B EQ PUSH2 0x102 JUMPI DUP1 PUSH4 0x8F32D59B EQ PUSH2 0x120 JUMPI DUP1 PUSH4 0xC6F15112 EQ PUSH2 0x13E JUMPI DUP1 PUSH4 0xF2FDE38B EQ PUSH2 0x15A JUMPI PUSH2 0x88 JUMP JUMPDEST DUP1 PUSH4 0x17A7F4CC EQ PUSH2 0x8D JUMPI DUP1 PUSH4 0x2052465E EQ PUSH2 0xA9 JUMPI DUP1 PUSH4 0x5F4623F1 EQ PUSH2 0xDC JUMPI DUP1 PUSH4 0x715018A6 EQ PUSH2 0xF8 JUMPI JUMPDEST PUSH1 0x0 DUP1 REVERT JUMPDEST PUSH2 0xA7 PUSH1 0x4 DUP1 CALLDATASIZE SUB DUP2 ADD SWAP1 PUSH2 0xA2 SWAP2 SWAP1 PUSH2 0xB86 JUMP JUMPDEST PUSH2 0x176 JUMP JUMPDEST STOP JUMPDEST PUSH2 0xC3 PUSH1 0x4 DUP1 CALLDATASIZE SUB DUP2 ADD SWAP1 PUSH2 0xBE SWAP2 SWAP1 PUSH2 0xBC6 JUMP JUMPDEST PUSH2 0x294 JUMP JUMPDEST PUSH1 0x40 MLOAD PUSH2 0xD3 SWAP5 SWAP4 SWAP3 SWAP2 SWAP1 PUSH2 0xCBA JUMP JUMPDEST PUSH1 0x40 MLOAD DUP1 SWAP2 SUB SWAP1 RETURN JUMPDEST PUSH2 0xF6 PUSH1 0x4 DUP1 CALLDATASIZE SUB DUP2 ADD SWAP1 PUSH2 0xF1 SWAP2 SWAP1 PUSH2 0xD64 JUMP JUMPDEST PUSH2 0x37C JUMP JUMPDEST STOP JUMPDEST PUSH2 0x100 PUSH2 0x3D1 JUMP JUMPDEST STOP JUMPDEST PUSH2 0x10A PUSH2 0x4A0 JUMP JUMPDEST PUSH1 0x40 MLOAD PUSH2 0x117 SWAP2 SWAP1 PUSH2 0xDA0 JUMP JUMPDEST PUSH1 0x40 MLOAD DUP1 SWAP2 SUB SWAP1 RETURN JUMPDEST PUSH2 0x128 PUSH2 0x4C9 JUMP JUMPDEST PUSH1 0x40 MLOAD PUSH2 0x135 SWAP2 SWAP1 PUSH2 0xDD6 JUMP JUMPDEST PUSH1 0x40 MLOAD DUP1 SWAP2 SUB SWAP1 RETURN JUMPDEST PUSH2 0x158 PUSH1 0x4 DUP1 CALLDATASIZE SUB DUP2 ADD SWAP1 PUSH2 0x153 SWAP2 SWAP1 PUSH2 0xF26 JUMP JUMPDEST PUSH2 0x520 JUMP JUMPDEST STOP JUMPDEST PUSH2 0x174 PUSH1 0x4 DUP1 CALLDATASIZE SUB DUP2 ADD SWAP1 PUSH2 0x16F SWAP2 SWAP1 PUSH2 0xD64 JUMP JUMPDEST PUSH2 0x587 JUMP JUMPDEST STOP JUMPDEST PUSH1 0x0 PUSH1 0x7 PUSH1 0x0 SWAP1 SLOAD SWAP1 PUSH2 0x100 EXP SWAP1 DIV PUSH20 0xFFFFFFFFFFFFFFFFFFFFFFFFFFFFFFFFFFFFFFFF AND PUSH20 0xFFFFFFFFFFFFFFFFFFFFFFFFFFFFFFFFFFFFFFFF AND PUSH4 0xE98B7F4D DUP4 PUSH1 0x40 MLOAD DUP3 PUSH4 0xFFFFFFFF AND PUSH1 0xE0 SHL DUP2 MSTORE PUSH1 0x4 ADD PUSH2 0x1D3 SWAP2 SWAP1 PUSH2 0xF6F JUMP JUMPDEST PUSH2 0x140 PUSH1 0x40 MLOAD DUP1 DUP4 SUB DUP2 DUP7 GAS STATICCALL ISZERO DUP1 ISZERO PUSH2 0x1F1 JUMPI RETURNDATASIZE PUSH1 0x0 DUP1 RETURNDATACOPY RETURNDATASIZE PUSH1 0x0 REVERT JUMPDEST POP POP POP POP PUSH1 0x40 MLOAD RETURNDATASIZE PUSH1 0x1F NOT PUSH1 0x1F DUP3 ADD AND DUP3 ADD DUP1 PUSH1 0x40 MSTORE POP DUP2 ADD SWAP1 PUSH2 0x215 SWAP2 SWAP1 PUSH2 0xFCB JUMP JUMPDEST SWAP1 SWAP2 SWAP3 SWAP4 SWAP5 SWAP6 SWAP7 SWAP8 SWAP9 POP SWAP1 SWAP2 SWAP3 SWAP4 SWAP5 SWAP6 SWAP7 SWAP8 POP SWAP1 SWAP2 SWAP3 SWAP4 SWAP5 SWAP6 SWAP7 POP SWAP1 SWAP2 SWAP3 SWAP4 SWAP5 SWAP6 POP SWAP1 SWAP2 SWAP3 SWAP4 SWAP5 POP SWAP1 SWAP2 SWAP3 SWAP4 POP SWAP1 SWAP2 SWAP3 POP SWAP1 SWAP2 POP SWAP1 POP DUP1 SWAP2 POP POP PUSH2 0x28F DUP4 DUP3 PUSH1 0x40 MLOAD DUP1 PUSH1 0x40 ADD PUSH1 0x40 MSTORE DUP1 PUSH1 0x5 DUP2 MSTORE PUSH1 0x20 ADD PUSH32 0x6B69747479000000000000000000000000000000000000000000000000000000 DUP2 MSTORE POP PUSH2 0x5A4 JUMP JUMPDEST POP POP POP JUMP JUMPDEST PUSH1 0x4 DUP2 DUP2 SLOAD DUP2 LT PUSH2 0x2A4 JUMPI PUSH1 0x0 DUP1 REVERT JUMPDEST SWAP1 PUSH1 0x0 MSTORE PUSH1 0x20 PUSH1 0x0 KECCAK256 SWAP1 PUSH1 0x3 MUL ADD PUSH1 0x0 SWAP2 POP SWAP1 POP DUP1 PUSH1 0x0 ADD SLOAD SWAP1 DUP1 PUSH1 0x1 ADD DUP1 SLOAD PUSH2 0x2CD SWAP1 PUSH2 0x10D9 JUMP JUMPDEST DUP1 PUSH1 0x1F ADD PUSH1 0x20 DUP1 SWAP2 DIV MUL PUSH1 0x20 ADD PUSH1 0x40 MLOAD SWAP1 DUP2 ADD PUSH1 0x40 MSTORE DUP1 SWAP3 SWAP2 SWAP1 DUP2 DUP2 MSTORE PUSH1 0x20 ADD DUP3 DUP1 SLOAD PUSH2 0x2F9 SWAP1 PUSH2 0x10D9 JUMP JUMPDEST DUP1 ISZERO PUSH2 0x346 JUMPI DUP1 PUSH1 0x1F LT PUSH2 0x31B JUMPI PUSH2 0x100 DUP1 DUP4 SLOAD DIV MUL DUP4 MSTORE SWAP2 PUSH1 0x20 ADD SWAP2 PUSH2 0x346 JUMP JUMPDEST DUP3 ADD SWAP2 SWAP1 PUSH1 0x0 MSTORE PUSH1 0x20 PUSH1 0x0 KECCAK256 SWAP1 JUMPDEST DUP2 SLOAD DUP2 MSTORE SWAP1 PUSH1 0x1 ADD SWAP1 PUSH1 0x20 ADD DUP1 DUP4 GT PUSH2 0x329 JUMPI DUP3 SWAP1 SUB PUSH1 0x1F AND DUP3 ADD SWAP2 JUMPDEST POP POP POP POP POP SWAP1 DUP1 PUSH1 0x2 ADD PUSH1 0x0 SWAP1 SLOAD SWAP1 PUSH2 0x100 EXP SWAP1 DIV PUSH4 0xFFFFFFFF AND SWAP1 DUP1 PUSH1 0x2 ADD PUSH1 0x4 SWAP1 SLOAD SWAP1 PUSH2 0x100 EXP SWAP1 DIV PUSH4 0xFFFFFFFF AND SWAP1 POP DUP5 JUMP JUMPDEST PUSH2 0x384 PUSH2 0x4C9 JUMP JUMPDEST PUSH2 0x38D JUMPI PUSH1 0x0 DUP1 REVERT JUMPDEST DUP1 PUSH1 0x7 PUSH1 0x0 PUSH2 0x100 EXP DUP2 SLOAD DUP2 PUSH20 0xFFFFFFFFFFFFFFFFFFFFFFFFFFFFFFFFFFFFFFFF MUL NOT AND SWAP1 DUP4 PUSH20 0xFFFFFFFFFFFFFFFFFFFFFFFFFFFFFFFFFFFFFFFF AND MUL OR SWAP1 SSTORE POP POP JUMP JUMPDEST PUSH2 0x3D9 PUSH2 0x4C9 JUMP JUMPDEST PUSH2 0x3E2 JUMPI PUSH1 0x0 DUP1 REVERT JUMPDEST PUSH1 0x0 PUSH20 0xFFFFFFFFFFFFFFFFFFFFFFFFFFFFFFFFFFFFFFFF AND PUSH1 0x0 DUP1 SLOAD SWAP1 PUSH2 0x100 EXP SWAP1 DIV PUSH20 0xFFFFFFFFFFFFFFFFFFFFFFFFFFFFFFFFFFFFFFFF AND PUSH20 0xFFFFFFFFFFFFFFFFFFFFFFFFFFFFFFFFFFFFFFFF AND PUSH32 0x8BE0079C531659141344CD1FD0A4F28419497F9722A3DAAFE3B4186F6B6457E0 PUSH1 0x40 MLOAD PUSH1 0x40 MLOAD DUP1 SWAP2 SUB SWAP1 LOG3 PUSH1 0x0 DUP1 PUSH1 0x0 PUSH2 0x100 EXP DUP2 SLOAD DUP2 PUSH20 0xFFFFFFFFFFFFFFFFFFFFFFFFFFFFFFFFFFFFFFFF MUL NOT AND SWAP1 DUP4 PUSH20 0xFFFFFFFFFFFFFFFFFFFFFFFFFFFFFFFFFFFFFFFF AND MUL OR SWAP1 SSTORE POP JUMP JUMPDEST PUSH1 0x0 DUP1 PUSH1 0x0 SWAP1 SLOAD SWAP1 PUSH2 0x100 EXP SWAP1 DIV PUSH20 0xFFFFFFFFFFFFFFFFFFFFFFFFFFFFFFFFFFFFFFFF AND SWAP1 POP SWAP1 JUMP JUMPDEST PUSH1 0x0 DUP1 PUSH1 0x0 SWAP1 SLOAD SWAP1 PUSH2 0x100 EXP SWAP1 DIV PUSH20 0xFFFFFFFFFFFFFFFFFFFFFFFFFFFFFFFFFFFFFFFF AND PUSH20 0xFFFFFFFFFFFFFFFFFFFFFFFFFFFFFFFFFFFFFFFF AND CALLER PUSH20 0xFFFFFFFFFFFFFFFFFFFFFFFFFFFFFFFFFFFFFFFF AND EQ SWAP1 POP SWAP1 JUMP JUMPDEST PUSH1 0x0 PUSH1 0x6 PUSH1 0x0 CALLER PUSH20 0xFFFFFFFFFFFFFFFFFFFFFFFFFFFFFFFFFFFFFFFF AND PUSH20 0xFFFFFFFFFFFFFFFFFFFFFFFFFFFFFFFFFFFFFFFF AND DUP2 MSTORE PUSH1 0x20 ADD SWAP1 DUP2 MSTORE PUSH1 0x20 ADD PUSH1 0x0 KECCAK256 SLOAD EQ PUSH2 0x56C JUMPI PUSH1 0x0 DUP1 REVERT JUMPDEST PUSH1 0x0 PUSH2 0x577 DUP3 PUSH2 0x71F JUMP JUMPDEST SWAP1 POP PUSH2 0x583 DUP3 DUP3 PUSH2 0x764 JUMP JUMPDEST POP POP JUMP JUMPDEST PUSH2 0x58F PUSH2 0x4C9 JUMP JUMPDEST PUSH2 0x598 JUMPI PUSH1 0x0 DUP1 REVERT JUMPDEST PUSH2 0x5A1 DUP2 PUSH2 0x949 JUMP JUMPDEST POP JUMP JUMPDEST PUSH1 0x0 PUSH1 0x6 PUSH1 0x0 CALLER PUSH20 0xFFFFFFFFFFFFFFFFFFFFFFFFFFFFFFFFFFFFFFFF AND PUSH20 0xFFFFFFFFFFFFFFFFFFFFFFFFFFFFFFFFFFFFFFFF AND DUP2 MSTORE PUSH1 0x20 ADD SWAP1 DUP2 MSTORE PUSH1 0x20 ADD PUSH1 0x0 KECCAK256 SLOAD EQ PUSH2 0x5F0 JUMPI PUSH1 0x0 DUP1 REVERT JUMPDEST PUSH1 0x0 PUSH1 0x4 DUP5 DUP2 SLOAD DUP2 LT PUSH2 0x606 JUMPI PUSH2 0x605 PUSH2 0x110A JUMP JUMPDEST JUMPDEST SWAP1 PUSH1 0x0 MSTORE PUSH1 0x20 PUSH1 0x0 KECCAK256 SWAP1 PUSH1 0x3 MUL ADD SWAP1 POP PUSH2 0x61F DUP2 PUSH2 0xA3F JUMP JUMPDEST PUSH2 0x628 JUMPI PUSH1 0x0 DUP1 REVERT JUMPDEST PUSH1 0x2 SLOAD DUP4 PUSH2 0x636 SWAP2 SWAP1 PUSH2 0x1168 JUMP JUMPDEST SWAP3 POP PUSH1 0x0 PUSH1 0x2 DUP3 PUSH1 0x0 ADD SLOAD DUP6 PUSH2 0x64C SWAP2 SWAP1 PUSH2 0x11C8 JUMP JUMPDEST PUSH2 0x656 SWAP2 SWAP1 PUSH2 0x121E JUMP JUMPDEST SWAP1 POP PUSH1 0x40 MLOAD PUSH1 0x20 ADD PUSH2 0x667 SWAP1 PUSH2 0x12A6 JUMP JUMPDEST PUSH1 0x40 MLOAD PUSH1 0x20 DUP2 DUP4 SUB SUB DUP2 MSTORE SWAP1 PUSH1 0x40 MSTORE DUP1 MLOAD SWAP1 PUSH1 0x20 ADD KECCAK256 DUP4 PUSH1 0x40 MLOAD PUSH1 0x20 ADD PUSH2 0x68E SWAP2 SWAP1 PUSH2 0x12EC JUMP JUMPDEST PUSH1 0x40 MLOAD PUSH1 0x20 DUP2 DUP4 SUB SUB DUP2 MSTORE SWAP1 PUSH1 0x40 MSTORE DUP1 MLOAD SWAP1 PUSH1 0x20 ADD KECCAK256 SUB PUSH2 0x6D0 JUMPI PUSH1 0x63 PUSH1 0x64 DUP3 PUSH2 0x6B8 SWAP2 SWAP1 PUSH2 0x1168 JUMP JUMPDEST DUP3 PUSH2 0x6C3 SWAP2 SWAP1 PUSH2 0x1303 JUMP JUMPDEST PUSH2 0x6CD SWAP2 SWAP1 PUSH2 0x11C8 JUMP JUMPDEST SWAP1 POP JUMPDEST PUSH2 0x70F PUSH1 0x40 MLOAD DUP1 PUSH1 0x40 ADD PUSH1 0x40 MSTORE DUP1 PUSH1 0x6 DUP2 MSTORE PUSH1 0x20 ADD PUSH32 0x4E6F4E616D650000000000000000000000000000000000000000000000000000 DUP2 MSTORE POP DUP3 PUSH2 0x764 JUMP JUMPDEST PUSH2 0x718 DUP3 PUSH2 0xA66 JUMP JUMPDEST POP POP POP POP POP JUMP JUMPDEST PUSH1 0x0 DUP1 DUP3 PUSH1 0x40 MLOAD PUSH1 0x20 ADD PUSH2 0x733 SWAP2 SWAP1 PUSH2 0x12EC JUMP JUMPDEST PUSH1 0x40 MLOAD PUSH1 0x20 DUP2 DUP4 SUB SUB DUP2 MSTORE SWAP1 PUSH1 0x40 MSTORE DUP1 MLOAD SWAP1 PUSH1 0x20 ADD KECCAK256 PUSH1 0x0 SHR SWAP1 POP PUSH1 0x2 SLOAD DUP2 PUSH2 0x75C SWAP2 SWAP1 PUSH2 0x1168 JUMP JUMPDEST SWAP2 POP POP SWAP2 SWAP1 POP JUMP JUMPDEST PUSH1 0x4 PUSH1 0x40 MLOAD DUP1 PUSH1 0x80 ADD PUSH1 0x40 MSTORE DUP1 DUP4 DUP2 MSTORE PUSH1 0x20 ADD DUP5 DUP2 MSTORE PUSH1 0x20 ADD PUSH1 0x1 PUSH4 0xFFFFFFFF AND DUP2 MSTORE PUSH1 0x20 ADD PUSH1 0x3 SLOAD TIMESTAMP PUSH2 0x798 SWAP2 SWAP1 PUSH2 0x11C8 JUMP JUMPDEST PUSH4 0xFFFFFFFF AND DUP2 MSTORE POP SWAP1 DUP1 PUSH1 0x1 DUP2 SLOAD ADD DUP1 DUP3 SSTORE DUP1 SWAP2 POP POP PUSH1 0x1 SWAP1 SUB SWAP1 PUSH1 0x0 MSTORE PUSH1 0x20 PUSH1 0x0 KECCAK256 SWAP1 PUSH1 0x3 MUL ADD PUSH1 0x0 SWAP1 SWAP2 SWAP1 SWAP2 SWAP1 SWAP2 POP PUSH1 0x0 DUP3 ADD MLOAD DUP2 PUSH1 0x0 ADD SSTORE PUSH1 0x20 DUP3 ADD MLOAD DUP2 PUSH1 0x1 ADD SWAP1 DUP1 MLOAD SWAP1 PUSH1 0x20 ADD SWAP1 PUSH2 0x7F0 SWAP3 SWAP2 SWAP1 PUSH2 0xA99 JUMP JUMPDEST POP PUSH1 0x40 DUP3 ADD MLOAD DUP2 PUSH1 0x2 ADD PUSH1 0x0 PUSH2 0x100 EXP DUP2 SLOAD DUP2 PUSH4 0xFFFFFFFF MUL NOT AND SWAP1 DUP4 PUSH4 0xFFFFFFFF AND MUL OR SWAP1 SSTORE POP PUSH1 0x60 DUP3 ADD MLOAD DUP2 PUSH1 0x2 ADD PUSH1 0x4 PUSH2 0x100 EXP DUP2 SLOAD DUP2 PUSH4 0xFFFFFFFF MUL NOT AND SWAP1 DUP4 PUSH4 0xFFFFFFFF AND MUL OR SWAP1 SSTORE POP POP POP CALLER PUSH1 0x5 PUSH1 0x0 PUSH1 0x1 PUSH1 0x4 DUP1 SLOAD SWAP1 POP PUSH2 0x858 SWAP2 SWAP1 PUSH2 0x1303 JUMP JUMPDEST DUP2 MSTORE PUSH1 0x20 ADD SWAP1 DUP2 MSTORE PUSH1 0x20 ADD PUSH1 0x0 KECCAK256 PUSH1 0x0 PUSH2 0x100 EXP DUP2 SLOAD DUP2 PUSH20 0xFFFFFFFFFFFFFFFFFFFFFFFFFFFFFFFFFFFFFFFF MUL NOT AND SWAP1 DUP4 PUSH20 0xFFFFFFFFFFFFFFFFFFFFFFFFFFFFFFFFFFFFFFFF AND MUL OR SWAP1 SSTORE POP PUSH1 0x6 PUSH1 0x0 CALLER PUSH20 0xFFFFFFFFFFFFFFFFFFFFFFFFFFFFFFFFFFFFFFFF AND PUSH20 0xFFFFFFFFFFFFFFFFFFFFFFFFFFFFFFFFFFFFFFFF AND DUP2 MSTORE PUSH1 0x20 ADD SWAP1 DUP2 MSTORE PUSH1 0x20 ADD PUSH1 0x0 KECCAK256 PUSH1 0x0 DUP2 SLOAD DUP1 SWAP3 SWAP2 SWAP1 PUSH2 0x8F4 SWAP1 PUSH2 0x1337 JUMP JUMPDEST SWAP2 SWAP1 POP SSTORE POP PUSH32 0x88F026AACBBECC90C18411DF4B1185FD8D9BE2470F1962F192BF84A27D0704B7 PUSH1 0x1 PUSH1 0x4 DUP1 SLOAD SWAP1 POP PUSH2 0x92C SWAP2 SWAP1 PUSH2 0x1303 JUMP JUMPDEST DUP4 DUP4 PUSH1 0x40 MLOAD PUSH2 0x93D SWAP4 SWAP3 SWAP2 SWAP1 PUSH2 0x137F JUMP JUMPDEST PUSH1 0x40 MLOAD DUP1 SWAP2 SUB SWAP1 LOG1 POP POP JUMP JUMPDEST PUSH1 0x0 PUSH20 0xFFFFFFFFFFFFFFFFFFFFFFFFFFFFFFFFFFFFFFFF AND DUP2 PUSH20 0xFFFFFFFFFFFFFFFFFFFFFFFFFFFFFFFFFFFFFFFF AND SUB PUSH2 0x982 JUMPI PUSH1 0x0 DUP1 REVERT JUMPDEST DUP1 PUSH20 0xFFFFFFFFFFFFFFFFFFFFFFFFFFFFFFFFFFFFFFFF AND PUSH1 0x0 DUP1 SLOAD SWAP1 PUSH2 0x100 EXP SWAP1 DIV PUSH20 0xFFFFFFFFFFFFFFFFFFFFFFFFFFFFFFFFFFFFFFFF AND PUSH20 0xFFFFFFFFFFFFFFFFFFFFFFFFFFFFFFFFFFFFFFFF AND PUSH32 0x8BE0079C531659141344CD1FD0A4F28419497F9722A3DAAFE3B4186F6B6457E0 PUSH1 0x40 MLOAD PUSH1 0x40 MLOAD DUP1 SWAP2 SUB SWAP1 LOG3 DUP1 PUSH1 0x0 DUP1 PUSH2 0x100 EXP DUP2 SLOAD DUP2 PUSH20 0xFFFFFFFFFFFFFFFFFFFFFFFFFFFFFFFFFFFFFFFF MUL NOT AND SWAP1 DUP4 PUSH20 0xFFFFFFFFFFFFFFFFFFFFFFFFFFFFFFFFFFFFFFFF AND MUL OR SWAP1 SSTORE POP POP JUMP JUMPDEST PUSH1 0x0 TIMESTAMP DUP3 PUSH1 0x2 ADD PUSH1 0x4 SWAP1 SLOAD SWAP1 PUSH2 0x100 EXP SWAP1 DIV PUSH4 0xFFFFFFFF AND PUSH4 0xFFFFFFFF AND GT ISZERO SWAP1 POP SWAP2 SWAP1 POP JUMP JUMPDEST PUSH1 0x3 SLOAD TIMESTAMP PUSH2 0xA74 SWAP2 SWAP1 PUSH2 0x11C8 JUMP JUMPDEST DUP2 PUSH1 0x2 ADD PUSH1 0x4 PUSH2 0x100 EXP DUP2 SLOAD DUP2 PUSH4 0xFFFFFFFF MUL NOT AND SWAP1 DUP4 PUSH4 0xFFFFFFFF AND MUL OR SWAP1 SSTORE POP POP JUMP JUMPDEST DUP3 DUP1 SLOAD PUSH2 0xAA5 SWAP1 PUSH2 0x10D9 JUMP JUMPDEST SWAP1 PUSH1 0x0 MSTORE PUSH1 0x20 PUSH1 0x0 KECCAK256 SWAP1 PUSH1 0x1F ADD PUSH1 0x20 SWAP1 DIV DUP2 ADD SWAP3 DUP3 PUSH2 0xAC7 JUMPI PUSH1 0x0 DUP6 SSTORE PUSH2 0xB0E JUMP JUMPDEST DUP3 PUSH1 0x1F LT PUSH2 0xAE0 JUMPI DUP1 MLOAD PUSH1 0xFF NOT AND DUP4 DUP1 ADD OR DUP6 SSTORE PUSH2 0xB0E JUMP JUMPDEST DUP3 DUP1 ADD PUSH1 0x1 ADD DUP6 SSTORE DUP3 ISZERO PUSH2 0xB0E JUMPI SWAP2 DUP3 ADD JUMPDEST DUP3 DUP2 GT ISZERO PUSH2 0xB0D JUMPI DUP3 MLOAD DUP3 SSTORE SWAP2 PUSH1 0x20 ADD SWAP2 SWAP1 PUSH1 0x1 ADD SWAP1 PUSH2 0xAF2 JUMP JUMPDEST JUMPDEST POP SWAP1 POP PUSH2 0xB1B SWAP2 SWAP1 PUSH2 0xB1F JUMP JUMPDEST POP SWAP1 JUMP JUMPDEST JUMPDEST DUP1 DUP3 GT ISZERO PUSH2 0xB38 JUMPI PUSH1 0x0 DUP2 PUSH1 0x0 SWAP1 SSTORE POP PUSH1 0x1 ADD PUSH2 0xB20 JUMP JUMPDEST POP SWAP1 JUMP JUMPDEST PUSH1 0x0 PUSH1 0x40 MLOAD SWAP1 POP SWAP1 JUMP JUMPDEST PUSH1 0x0 DUP1 REVERT JUMPDEST PUSH1 0x0 DUP1 REVERT JUMPDEST PUSH1 0x0 DUP2 SWAP1 POP SWAP2 SWAP1 POP JUMP JUMPDEST PUSH2 0xB63 DUP2 PUSH2 0xB50 JUMP JUMPDEST DUP2 EQ PUSH2 0xB6E JUMPI PUSH1 0x0 DUP1 REVERT JUMPDEST POP JUMP JUMPDEST PUSH1 0x0 DUP2 CALLDATALOAD SWAP1 POP PUSH2 0xB80 DUP2 PUSH2 0xB5A JUMP JUMPDEST SWAP3 SWAP2 POP POP JUMP JUMPDEST PUSH1 0x0 DUP1 PUSH1 0x40 DUP4 DUP6 SUB SLT ISZERO PUSH2 0xB9D JUMPI PUSH2 0xB9C PUSH2 0xB46 JUMP JUMPDEST JUMPDEST PUSH1 0x0 PUSH2 0xBAB DUP6 DUP3 DUP7 ADD PUSH2 0xB71 JUMP JUMPDEST SWAP3 POP POP PUSH1 0x20 PUSH2 0xBBC DUP6 DUP3 DUP7 ADD PUSH2 0xB71 JUMP JUMPDEST SWAP2 POP POP SWAP3 POP SWAP3 SWAP1 POP JUMP JUMPDEST PUSH1 0x0 PUSH1 0x20 DUP3 DUP5 SUB SLT ISZERO PUSH2 0xBDC JUMPI PUSH2 0xBDB PUSH2 0xB46 JUMP JUMPDEST JUMPDEST PUSH1 0x0 PUSH2 0xBEA DUP5 DUP3 DUP6 ADD PUSH2 0xB71 JUMP JUMPDEST SWAP2 POP POP SWAP3 SWAP2 POP POP JUMP JUMPDEST PUSH2 0xBFC DUP2 PUSH2 0xB50 JUMP JUMPDEST DUP3 MSTORE POP POP JUMP JUMPDEST PUSH1 0x0 DUP2 MLOAD SWAP1 POP SWAP2 SWAP1 POP JUMP JUMPDEST PUSH1 0x0 DUP3 DUP3 MSTORE PUSH1 0x20 DUP3 ADD SWAP1 POP SWAP3 SWAP2 POP POP JUMP JUMPDEST PUSH1 0x0 JUMPDEST DUP4 DUP2 LT ISZERO PUSH2 0xC3C JUMPI DUP1 DUP3 ADD MLOAD DUP2 DUP5 ADD MSTORE PUSH1 0x20 DUP2 ADD SWAP1 POP PUSH2 0xC21 JUMP JUMPDEST DUP4 DUP2 GT ISZERO PUSH2 0xC4B JUMPI PUSH1 0x0 DUP5 DUP5 ADD MSTORE JUMPDEST POP POP POP POP JUMP JUMPDEST PUSH1 0x0 PUSH1 0x1F NOT PUSH1 0x1F DUP4 ADD AND SWAP1 POP SWAP2 SWAP1 POP JUMP JUMPDEST PUSH1 0x0 PUSH2 0xC6D DUP3 PUSH2 0xC02 JUMP JUMPDEST PUSH2 0xC77 DUP2 DUP6 PUSH2 0xC0D JUMP JUMPDEST SWAP4 POP PUSH2 0xC87 DUP2 DUP6 PUSH1 0x20 DUP7 ADD PUSH2 0xC1E JUMP JUMPDEST PUSH2 0xC90 DUP2 PUSH2 0xC51 JUMP JUMPDEST DUP5 ADD SWAP2 POP POP SWAP3 SWAP2 POP POP JUMP JUMPDEST PUSH1 0x0 PUSH4 0xFFFFFFFF DUP3 AND SWAP1 POP SWAP2 SWAP1 POP JUMP JUMPDEST PUSH2 0xCB4 DUP2 PUSH2 0xC9B JUMP JUMPDEST DUP3 MSTORE POP POP JUMP JUMPDEST PUSH1 0x0 PUSH1 0x80 DUP3 ADD SWAP1 POP PUSH2 0xCCF PUSH1 0x0 DUP4 ADD DUP8 PUSH2 0xBF3 JUMP JUMPDEST DUP2 DUP2 SUB PUSH1 0x20 DUP4 ADD MSTORE PUSH2 0xCE1 DUP2 DUP7 PUSH2 0xC62 JUMP JUMPDEST SWAP1 POP PUSH2 0xCF0 PUSH1 0x40 DUP4 ADD DUP6 PUSH2 0xCAB JUMP JUMPDEST PUSH2 0xCFD PUSH1 0x60 DUP4 ADD DUP5 PUSH2 0xCAB JUMP JUMPDEST SWAP6 SWAP5 POP POP POP POP POP JUMP JUMPDEST PUSH1 0x0 PUSH20 0xFFFFFFFFFFFFFFFFFFFFFFFFFFFFFFFFFFFFFFFF DUP3 AND SWAP1 POP SWAP2 SWAP1 POP JUMP JUMPDEST PUSH1 0x0 PUSH2 0xD31 DUP3 PUSH2 0xD06 JUMP JUMPDEST SWAP1 POP SWAP2 SWAP1 POP JUMP JUMPDEST PUSH2 0xD41 DUP2 PUSH2 0xD26 JUMP JUMPDEST DUP2 EQ PUSH2 0xD4C JUMPI PUSH1 0x0 DUP1 REVERT JUMPDEST POP JUMP JUMPDEST PUSH1 0x0 DUP2 CALLDATALOAD SWAP1 POP PUSH2 0xD5E DUP2 PUSH2 0xD38 JUMP JUMPDEST SWAP3 SWAP2 POP POP JUMP JUMPDEST PUSH1 0x0 PUSH1 0x20 DUP3 DUP5 SUB SLT ISZERO PUSH2 0xD7A JUMPI PUSH2 0xD79 PUSH2 0xB46 JUMP JUMPDEST JUMPDEST PUSH1 0x0 PUSH2 0xD88 DUP5 DUP3 DUP6 ADD PUSH2 0xD4F JUMP JUMPDEST SWAP2 POP POP SWAP3 SWAP2 POP POP JUMP JUMPDEST PUSH2 0xD9A DUP2 PUSH2 0xD26 JUMP JUMPDEST DUP3 MSTORE POP POP JUMP JUMPDEST PUSH1 0x0 PUSH1 0x20 DUP3 ADD SWAP1 POP PUSH2 0xDB5 PUSH1 0x0 DUP4 ADD DUP5 PUSH2 0xD91 JUMP JUMPDEST SWAP3 SWAP2 POP POP JUMP JUMPDEST PUSH1 0x0 DUP2 ISZERO ISZERO SWAP1 POP SWAP2 SWAP1 POP JUMP JUMPDEST PUSH2 0xDD0 DUP2 PUSH2 0xDBB JUMP JUMPDEST DUP3 MSTORE POP POP JUMP JUMPDEST PUSH1 0x0 PUSH1 0x20 DUP3 ADD SWAP1 POP PUSH2 0xDEB PUSH1 0x0 DUP4 ADD DUP5 PUSH2 0xDC7 JUMP JUMPDEST SWAP3 SWAP2 POP POP JUMP JUMPDEST PUSH1 0x0 DUP1 REVERT JUMPDEST PUSH1 0x0 DUP1 REVERT JUMPDEST PUSH32 0x4E487B7100000000000000000000000000000000000000000000000000000000 PUSH1 0x0 MSTORE PUSH1 0x41 PUSH1 0x4 MSTORE PUSH1 0x24 PUSH1 0x0 REVERT JUMPDEST PUSH2 0xE33 DUP3 PUSH2 0xC51 JUMP JUMPDEST DUP2 ADD DUP2 DUP2 LT PUSH8 0xFFFFFFFFFFFFFFFF DUP3 GT OR ISZERO PUSH2 0xE52 JUMPI PUSH2 0xE51 PUSH2 0xDFB JUMP JUMPDEST JUMPDEST DUP1 PUSH1 0x40 MSTORE POP POP POP JUMP JUMPDEST PUSH1 0x0 PUSH2 0xE65 PUSH2 0xB3C JUMP JUMPDEST SWAP1 POP PUSH2 0xE71 DUP3 DUP3 PUSH2 0xE2A JUMP JUMPDEST SWAP2 SWAP1 POP JUMP JUMPDEST PUSH1 0x0 PUSH8 0xFFFFFFFFFFFFFFFF DUP3 GT ISZERO PUSH2 0xE91 JUMPI PUSH2 0xE90 PUSH2 0xDFB JUMP JUMPDEST JUMPDEST PUSH2 0xE9A DUP3 PUSH2 0xC51 JUMP JUMPDEST SWAP1 POP PUSH1 0x20 DUP2 ADD SWAP1 POP SWAP2 SWAP1 POP JUMP JUMPDEST DUP3 DUP2 DUP4 CALLDATACOPY PUSH1 0x0 DUP4 DUP4 ADD MSTORE POP POP POP JUMP JUMPDEST PUSH1 0x0 PUSH2 0xEC9 PUSH2 0xEC4 DUP5 PUSH2 0xE76 JUMP JUMPDEST PUSH2 0xE5B JUMP JUMPDEST SWAP1 POP DUP3 DUP2 MSTORE PUSH1 0x20 DUP2 ADD DUP5 DUP5 DUP5 ADD GT ISZERO PUSH2 0xEE5 JUMPI PUSH2 0xEE4 PUSH2 0xDF6 JUMP JUMPDEST JUMPDEST PUSH2 0xEF0 DUP5 DUP3 DUP6 PUSH2 0xEA7 JUMP JUMPDEST POP SWAP4 SWAP3 POP POP POP JUMP JUMPDEST PUSH1 0x0 DUP3 PUSH1 0x1F DUP4 ADD SLT PUSH2 0xF0D JUMPI PUSH2 0xF0C PUSH2 0xDF1 JUMP JUMPDEST JUMPDEST DUP2 CALLDATALOAD PUSH2 0xF1D DUP5 DUP3 PUSH1 0x20 DUP7 ADD PUSH2 0xEB6 JUMP JUMPDEST SWAP2 POP POP SWAP3 SWAP2 POP POP JUMP JUMPDEST PUSH1 0x0 PUSH1 0x20 DUP3 DUP5 SUB SLT ISZERO PUSH2 0xF3C JUMPI PUSH2 0xF3B PUSH2 0xB46 JUMP JUMPDEST JUMPDEST PUSH1 0x0 DUP3 ADD CALLDATALOAD PUSH8 0xFFFFFFFFFFFFFFFF DUP2 GT ISZERO PUSH2 0xF5A JUMPI PUSH2 0xF59 PUSH2 0xB4B JUMP JUMPDEST JUMPDEST PUSH2 0xF66 DUP5 DUP3 DUP6 ADD PUSH2 0xEF8 JUMP JUMPDEST SWAP2 POP POP SWAP3 SWAP2 POP POP JUMP JUMPDEST PUSH1 0x0 PUSH1 0x20 DUP3 ADD SWAP1 POP PUSH2 0xF84 PUSH1 0x0 DUP4 ADD DUP5 PUSH2 0xBF3 JUMP JUMPDEST SWAP3 SWAP2 POP POP JUMP JUMPDEST PUSH2 0xF93 DUP2 PUSH2 0xDBB JUMP JUMPDEST DUP2 EQ PUSH2 0xF9E JUMPI PUSH1 0x0 DUP1 REVERT JUMPDEST POP JUMP JUMPDEST PUSH1 0x0 DUP2 MLOAD SWAP1 POP PUSH2 0xFB0 DUP2 PUSH2 0xF8A JUMP JUMPDEST SWAP3 SWAP2 POP POP JUMP JUMPDEST PUSH1 0x0 DUP2 MLOAD SWAP1 POP PUSH2 0xFC5 DUP2 PUSH2 0xB5A JUMP JUMPDEST SWAP3 SWAP2 POP POP JUMP JUMPDEST PUSH1 0x0 DUP1 PUSH1 0x0 DUP1 PUSH1 0x0 DUP1 PUSH1 0x0 DUP1 PUSH1 0x0 DUP1 PUSH2 0x140 DUP12 DUP14 SUB SLT ISZERO PUSH2 0xFEF JUMPI PUSH2 0xFEE PUSH2 0xB46 JUMP JUMPDEST JUMPDEST PUSH1 0x0 PUSH2 0xFFD DUP14 DUP3 DUP15 ADD PUSH2 0xFA1 JUMP JUMPDEST SWAP11 POP POP PUSH1 0x20 PUSH2 0x100E DUP14 DUP3 DUP15 ADD PUSH2 0xFA1 JUMP JUMPDEST SWAP10 POP POP PUSH1 0x40 PUSH2 0x101F DUP14 DUP3 DUP15 ADD PUSH2 0xFB6 JUMP JUMPDEST SWAP9 POP POP PUSH1 0x60 PUSH2 0x1030 DUP14 DUP3 DUP15 ADD PUSH2 0xFB6 JUMP JUMPDEST SWAP8 POP POP PUSH1 0x80 PUSH2 0x1041 DUP14 DUP3 DUP15 ADD PUSH2 0xFB6 JUMP JUMPDEST SWAP7 POP POP PUSH1 0xA0 PUSH2 0x1052 DUP14 DUP3 DUP15 ADD PUSH2 0xFB6 JUMP JUMPDEST SWAP6 POP POP PUSH1 0xC0 PUSH2 0x1063 DUP14 DUP3 DUP15 ADD PUSH2 0xFB6 JUMP JUMPDEST SWAP5 POP POP PUSH1 0xE0 PUSH2 0x1074 DUP14 DUP3 DUP15 ADD PUSH2 0xFB6 JUMP JUMPDEST SWAP4 POP POP PUSH2 0x100 PUSH2 0x1086 DUP14 DUP3 DUP15 ADD PUSH2 0xFB6 JUMP JUMPDEST SWAP3 POP POP PUSH2 0x120 PUSH2 0x1098 DUP14 DUP3 DUP15 ADD PUSH2 0xFB6 JUMP JUMPDEST SWAP2 POP POP SWAP3 SWAP6 SWAP9 SWAP12 SWAP2 SWAP5 SWAP8 SWAP11 POP SWAP3 SWAP6 SWAP9 POP JUMP JUMPDEST PUSH32 0x4E487B7100000000000000000000000000000000000000000000000000000000 PUSH1 0x0 MSTORE PUSH1 0x22 PUSH1 0x4 MSTORE PUSH1 0x24 PUSH1 0x0 REVERT JUMPDEST PUSH1 0x0 PUSH1 0x2 DUP3 DIV SWAP1 POP PUSH1 0x1 DUP3 AND DUP1 PUSH2 0x10F1 JUMPI PUSH1 0x7F DUP3 AND SWAP2 POP JUMPDEST PUSH1 0x20 DUP3 LT DUP2 SUB PUSH2 0x1104 JUMPI PUSH2 0x1103 PUSH2 0x10AA JUMP JUMPDEST JUMPDEST POP SWAP2 SWAP1 POP JUMP JUMPDEST PUSH32 0x4E487B7100000000000000000000000000000000000000000000000000000000 PUSH1 0x0 MSTORE PUSH1 0x32 PUSH1 0x4 MSTORE PUSH1 0x24 PUSH1 0x0 REVERT JUMPDEST PUSH32 0x4E487B7100000000000000000000000000000000000000000000000000000000 PUSH1 0x0 MSTORE PUSH1 0x12 PUSH1 0x4 MSTORE PUSH1 0x24 PUSH1 0x0 REVERT JUMPDEST PUSH1 0x0 PUSH2 0x1173 DUP3 PUSH2 0xB50 JUMP JUMPDEST SWAP2 POP PUSH2 0x117E DUP4 PUSH2 0xB50 JUMP JUMPDEST SWAP3 POP DUP3 PUSH2 0x118E JUMPI PUSH2 0x118D PUSH2 0x1139 JUMP JUMPDEST JUMPDEST DUP3 DUP3 MOD SWAP1 POP SWAP3 SWAP2 POP POP JUMP JUMPDEST PUSH32 0x4E487B7100000000000000000000000000000000000000000000000000000000 PUSH1 0x0 MSTORE PUSH1 0x11 PUSH1 0x4 MSTORE PUSH1 0x24 PUSH1 0x0 REVERT JUMPDEST PUSH1 0x0 PUSH2 0x11D3 DUP3 PUSH2 0xB50 JUMP JUMPDEST SWAP2 POP PUSH2 0x11DE DUP4 PUSH2 0xB50 JUMP JUMPDEST SWAP3 POP DUP3 PUSH32 0xFFFFFFFFFFFFFFFFFFFFFFFFFFFFFFFFFFFFFFFFFFFFFFFFFFFFFFFFFFFFFFFF SUB DUP3 GT ISZERO PUSH2 0x1213 JUMPI PUSH2 0x1212 PUSH2 0x1199 JUMP JUMPDEST JUMPDEST DUP3 DUP3 ADD SWAP1 POP SWAP3 SWAP2 POP POP JUMP JUMPDEST PUSH1 0x0 PUSH2 0x1229 DUP3 PUSH2 0xB50 JUMP JUMPDEST SWAP2 POP PUSH2 0x1234 DUP4 PUSH2 0xB50 JUMP JUMPDEST SWAP3 POP DUP3 PUSH2 0x1244 JUMPI PUSH2 0x1243 PUSH2 0x1139 JUMP JUMPDEST JUMPDEST DUP3 DUP3 DIV SWAP1 POP SWAP3 SWAP2 POP POP JUMP JUMPDEST PUSH1 0x0 DUP2 SWAP1 POP SWAP3 SWAP2 POP POP JUMP JUMPDEST PUSH32 0x6B69747479000000000000000000000000000000000000000000000000000000 PUSH1 0x0 DUP3 ADD MSTORE POP JUMP JUMPDEST PUSH1 0x0 PUSH2 0x1290 PUSH1 0x5 DUP4 PUSH2 0x124F JUMP JUMPDEST SWAP2 POP PUSH2 0x129B DUP3 PUSH2 0x125A JUMP JUMPDEST PUSH1 0x5 DUP3 ADD SWAP1 POP SWAP2 SWAP1 POP JUMP JUMPDEST PUSH1 0x0 PUSH2 0x12B1 DUP3 PUSH2 0x1283 JUMP JUMPDEST SWAP2 POP DUP2 SWAP1 POP SWAP2 SWAP1 POP JUMP JUMPDEST PUSH1 0x0 PUSH2 0x12C6 DUP3 PUSH2 0xC02 JUMP JUMPDEST PUSH2 0x12D0 DUP2 DUP6 PUSH2 0x124F JUMP JUMPDEST SWAP4 POP PUSH2 0x12E0 DUP2 DUP6 PUSH1 0x20 DUP7 ADD PUSH2 0xC1E JUMP JUMPDEST DUP1 DUP5 ADD SWAP2 POP POP SWAP3 SWAP2 POP POP JUMP JUMPDEST PUSH1 0x0 PUSH2 0x12F8 DUP3 DUP5 PUSH2 0x12BB JUMP JUMPDEST SWAP2 POP DUP2 SWAP1 POP SWAP3 SWAP2 POP POP JUMP JUMPDEST PUSH1 0x0 PUSH2 0x130E DUP3 PUSH2 0xB50 JUMP JUMPDEST SWAP2 POP PUSH2 0x1319 DUP4 PUSH2 0xB50 JUMP JUMPDEST SWAP3 POP DUP3 DUP3 LT ISZERO PUSH2 0x132C JUMPI PUSH2 0x132B PUSH2 0x1199 JUMP JUMPDEST JUMPDEST DUP3 DUP3 SUB SWAP1 POP SWAP3 SWAP2 POP POP JUMP JUMPDEST PUSH1 0x0 PUSH2 0x1342 DUP3 PUSH2 0xB50 JUMP JUMPDEST SWAP2 POP PUSH32 0xFFFFFFFFFFFFFFFFFFFFFFFFFFFFFFFFFFFFFFFFFFFFFFFFFFFFFFFFFFFFFFFF DUP3 SUB PUSH2 0x1374 JUMPI PUSH2 0x1373 PUSH2 0x1199 JUMP JUMPDEST JUMPDEST PUSH1 0x1 DUP3 ADD SWAP1 POP SWAP2 SWAP1 POP JUMP JUMPDEST PUSH1 0x0 PUSH1 0x60 DUP3 ADD SWAP1 POP PUSH2 0x1394 PUSH1 0x0 DUP4 ADD DUP7 PUSH2 0xBF3 JUMP JUMPDEST DUP2 DUP2 SUB PUSH1 0x20 DUP4 ADD MSTORE PUSH2 0x13A6 DUP2 DUP6 PUSH2 0xC62 JUMP JUMPDEST SWAP1 POP PUSH2 0x13B5 PUSH1 0x40 DUP4 ADD DUP5 PUSH2 0xBF3 JUMP JUMPDEST SWAP5 SWAP4 POP POP POP POP JUMP INVALID LOG2 PUSH5 0x6970667358 0x22 SLT KECCAK256 PUSH23 0xD6913BE29441155A87A352F50D785A244888272B6C3CCE 0x4F 0x2D PUSH30 0x92D0C390F064736F6C634300080E00330000000000000000000000000000 "
				},
				"gasEstimates": {
					"creation": {
						"codeDepositCost": "1021400",
						"executionCost": "infinite",
						"totalCost": "infinite"
					},
					"external": {
						"feedOnKitty(uint256,uint256)": "infinite",
						"generateRandomZombie(string)": "infinite",
						"isOwner()": "2518",
						"owner()": "2522",
						"renounceOwnership()": "30361",
						"setKittyContractAddress(address)": "26972",
						"transferOwnership(address)": "30735",
						"zombies(uint256)": "infinite"
					},
					"internal": {
						"_isReady(struct ZombieFactory.Zombie storage pointer)": "2234",
						"_triggerCooldown(struct ZombieFactory.Zombie storage pointer)": "infinite",
						"feedAndMultiply(uint256,uint256,string memory)": "infinite"
					}
				},
				"methodIdentifiers": {
					"feedOnKitty(uint256,uint256)": "17a7f4cc",
					"generateRandomZombie(string)": "c6f15112",
					"isOwner()": "8f32d59b",
					"owner()": "8da5cb5b",
					"renounceOwnership()": "715018a6",
					"setKittyContractAddress(address)": "5f4623f1",
					"transferOwnership(address)": "f2fde38b",
					"zombies(uint256)": "2052465e"
				}
			},
			"storageLayout": {
				"storage": [
					{
						"astId": 4,
						"contract": "contracts/Zombiefeeding.sol:ZombieFeeding",
						"label": "_owner",
						"offset": 0,
						"slot": "0",
						"type": "t_address"
					},
					{
						"astId": 128,
						"contract": "contracts/Zombiefeeding.sol:ZombieFeeding",
						"label": "dnaDigits",
						"offset": 0,
						"slot": "1",
						"type": "t_uint256"
					},
					{
						"astId": 133,
						"contract": "contracts/Zombiefeeding.sol:ZombieFeeding",
						"label": "dnaModulus",
						"offset": 0,
						"slot": "2",
						"type": "t_uint256"
					},
					{
						"astId": 144,
						"contract": "contracts/Zombiefeeding.sol:ZombieFeeding",
						"label": "cooldownTime",
						"offset": 0,
						"slot": "3",
						"type": "t_uint256"
					},
					{
						"astId": 157,
						"contract": "contracts/Zombiefeeding.sol:ZombieFeeding",
						"label": "zombies",
						"offset": 0,
						"slot": "4",
						"type": "t_array(t_struct(Zombie)153_storage)dyn_storage"
					},
					{
						"astId": 161,
						"contract": "contracts/Zombiefeeding.sol:ZombieFeeding",
						"label": "zombieToOwner",
						"offset": 0,
						"slot": "5",
						"type": "t_mapping(t_uint256,t_address)"
					},
					{
						"astId": 165,
						"contract": "contracts/Zombiefeeding.sol:ZombieFeeding",
						"label": "ownerZombieCount",
						"offset": 0,
						"slot": "6",
						"type": "t_mapping(t_address,t_uint256)"
					},
					{
						"astId": 300,
						"contract": "contracts/Zombiefeeding.sol:ZombieFeeding",
						"label": "kittyContract",
						"offset": 0,
						"slot": "7",
						"type": "t_contract(KittyInterface)295"
					}
				],
				"types": {
					"t_address": {
						"encoding": "inplace",
						"label": "address",
						"numberOfBytes": "20"
					},
					"t_array(t_struct(Zombie)153_storage)dyn_storage": {
						"base": "t_struct(Zombie)153_storage",
						"encoding": "dynamic_array",
						"label": "struct ZombieFactory.Zombie[]",
						"numberOfBytes": "32"
					},
					"t_contract(KittyInterface)295": {
						"encoding": "inplace",
						"label": "contract KittyInterface",
						"numberOfBytes": "20"
					},
					"t_mapping(t_address,t_uint256)": {
						"encoding": "mapping",
						"key": "t_address",
						"label": "mapping(address => uint256)",
						"numberOfBytes": "32",
						"value": "t_uint256"
					},
					"t_mapping(t_uint256,t_address)": {
						"encoding": "mapping",
						"key": "t_uint256",
						"label": "mapping(uint256 => address)",
						"numberOfBytes": "32",
						"value": "t_address"
					},
					"t_string_storage": {
						"encoding": "bytes",
						"label": "string",
						"numberOfBytes": "32"
					},
					"t_struct(Zombie)153_storage": {
						"encoding": "inplace",
						"label": "struct ZombieFactory.Zombie",
						"members": [
							{
								"astId": 146,
								"contract": "contracts/Zombiefeeding.sol:ZombieFeeding",
								"label": "dna",
								"offset": 0,
								"slot": "0",
								"type": "t_uint256"
							},
							{
								"astId": 148,
								"contract": "contracts/Zombiefeeding.sol:ZombieFeeding",
								"label": "name",
								"offset": 0,
								"slot": "1",
								"type": "t_string_storage"
							},
							{
								"astId": 150,
								"contract": "contracts/Zombiefeeding.sol:ZombieFeeding",
								"label": "level",
								"offset": 0,
								"slot": "2",
								"type": "t_uint32"
							},
							{
								"astId": 152,
								"contract": "contracts/Zombiefeeding.sol:ZombieFeeding",
								"label": "readyTime",
								"offset": 4,
								"slot": "2",
								"type": "t_uint32"
							}
						],
						"numberOfBytes": "96"
					},
					"t_uint256": {
						"encoding": "inplace",
						"label": "uint256",
						"numberOfBytes": "32"
					},
					"t_uint32": {
						"encoding": "inplace",
						"label": "uint32",
						"numberOfBytes": "4"
					}
				}
			},
			"userdoc": {
				"kind": "user",
				"methods": {
					"renounceOwnership()": {
						"notice": "Renouncing to ownership will leave the contract without an owner. It will not be possible to call the functions with the `onlyOwner` modifier anymore."
					}
				},
				"version": 1
			}
		}
	}
}