{
	"contracts/Zombiefeeding.sol": {
		"ZombieFeeding": {
			"abi": [
				{
					"anonymous": false,
					"inputs": [
						{
							"indexed": false,
							"internalType": "uint256",
							"name": "zombieId",
							"type": "uint256"
						},
						{
							"indexed": false,
							"internalType": "string",
							"name": "name",
							"type": "string"
						},
						{
							"indexed": false,
							"internalType": "uint256",
							"name": "dna",
							"type": "uint256"
						}
					],
					"name": "NewZombie",
					"type": "event"
				},
				{
					"anonymous": false,
					"inputs": [
						{
							"indexed": true,
							"internalType": "address",
							"name": "previousOwner",
							"type": "address"
						},
						{
							"indexed": true,
							"internalType": "address",
							"name": "newOwner",
							"type": "address"
						}
					],
					"name": "OwnershipTransferred",
					"type": "event"
				},
				{
					"inputs": [
						{
							"internalType": "uint256",
							"name": "_zombieId",
							"type": "uint256"
						},
						{
							"internalType": "uint256",
							"name": "_targetDna",
							"type": "uint256"
						},
						{
							"internalType": "string",
							"name": "_species",
							"type": "string"
						}
					],
					"name": "feedAndMultiply",
					"outputs": [],
					"stateMutability": "nonpayable",
					"type": "function"
				},
				{
					"inputs": [
						{
							"internalType": "uint256",
							"name": "_zombieId",
							"type": "uint256"
						},
						{
							"internalType": "uint256",
							"name": "_kittyId",
							"type": "uint256"
						}
					],
					"name": "feedOnKitty",
					"outputs": [],
					"stateMutability": "nonpayable",
					"type": "function"
				},
				{
					"inputs": [
						{
							"internalType": "string",
							"name": "_name",
							"type": "string"
						}
					],
					"name": "generateRandomZombie",
					"outputs": [],
					"stateMutability": "nonpayable",
					"type": "function"
				},
				{
					"inputs": [],
					"name": "isOwner",
					"outputs": [
						{
							"internalType": "bool",
							"name": "",
							"type": "bool"
						}
					],
					"stateMutability": "view",
					"type": "function"
				},
				{
					"inputs": [],
					"name": "owner",
					"outputs": [
						{
							"internalType": "address",
							"name": "",
							"type": "address"
						}
					],
					"stateMutability": "view",
					"type": "function"
				},
				{
					"inputs": [],
					"name": "renounceOwnership",
					"outputs": [],
					"stateMutability": "nonpayable",
					"type": "function"
				},
				{
					"inputs": [
						{
							"internalType": "address",
							"name": "_address",
							"type": "address"
						}
					],
					"name": "setKittyContractAddress",
					"outputs": [],
					"stateMutability": "nonpayable",
					"type": "function"
				},
				{
					"inputs": [
						{
							"internalType": "address",
							"name": "newOwner",
							"type": "address"
						}
					],
					"name": "transferOwnership",
					"outputs": [],
					"stateMutability": "nonpayable",
					"type": "function"
				},
				{
					"inputs": [
						{
							"internalType": "uint256",
							"name": "",
							"type": "uint256"
						}
					],
					"name": "zombies",
					"outputs": [
						{
							"internalType": "uint256",
							"name": "dna",
							"type": "uint256"
						},
						{
							"internalType": "string",
							"name": "name",
							"type": "string"
						},
						{
							"internalType": "uint32",
							"name": "level",
							"type": "uint32"
						},
						{
							"internalType": "uint32",
							"name": "readyTime",
							"type": "uint32"
						}
					],
					"stateMutability": "view",
					"type": "function"
				}
			],
			"devdoc": {
				"kind": "dev",
				"methods": {
					"isOwner()": {
						"returns": {
							"_0": "true if `msg.sender` is the owner of the contract."
						}
					},
					"owner()": {
						"returns": {
							"_0": "the address of the owner."
						}
					},
					"renounceOwnership()": {
						"details": "Allows the current owner to relinquish control of the contract."
					},
					"transferOwnership(address)": {
						"details": "Allows the current owner to transfer control of the contract to a newOwner.",
						"params": {
							"newOwner": "The address to transfer ownership to."
						}
					}
				},
				"version": 1
			},
			"evm": {
				"assembly": "    /* \"contracts/Zombiefeeding.sol\":447:1720  contract ZombieFeeding is ZombieFactory {... */\n  mstore(0x40, 0x80)\n    /* \"contracts/Zombiefactory.sol\":121:123  16 */\n  0x10\n    /* \"contracts/Zombiefactory.sol\":104:123  uint dnaDigits = 16 */\n  0x01\n  sstore\n    /* \"contracts/Zombiefactory.sol\":202:211  dnaDigits */\n  sload(0x01)\n    /* \"contracts/Zombiefactory.sol\":196:198  10 */\n  0x0a\n    /* \"contracts/Zombiefactory.sol\":196:211  10 ** dnaDigits */\n  tag_1\n  swap2\n  swap1\n  tag_2\n  jump\t// in\ntag_1:\n    /* \"contracts/Zombiefactory.sol\":178:211  uint dnaModulus = 10 ** dnaDigits */\n  0x02\n  sstore\n    /* \"contracts/Zombiefactory.sol\":322:328  1 days */\n  0x015180\n    /* \"contracts/Zombiefactory.sol\":302:328  uint cooldownTime = 1 days */\n  0x03\n  sstore\n    /* \"contracts/Zombiefeeding.sol\":447:1720  contract ZombieFeeding is ZombieFactory {... */\n  callvalue\n  dup1\n  iszero\n  tag_3\n  jumpi\n  0x00\n  dup1\n  revert\ntag_3:\n  pop\n    /* \"contracts/OwnableZombie.sol\":593:603  msg.sender */\n  caller\n    /* \"contracts/OwnableZombie.sol\":584:590  _owner */\n  0x00\n  dup1\n    /* \"contracts/OwnableZombie.sol\":584:603  _owner = msg.sender */\n  0x0100\n  exp\n  dup2\n  sload\n  dup2\n  0xffffffffffffffffffffffffffffffffffffffff\n  mul\n  not\n  and\n  swap1\n  dup4\n  0xffffffffffffffffffffffffffffffffffffffff\n  and\n  mul\n  or\n  swap1\n  sstore\n  pop\n    /* \"contracts/OwnableZombie.sol\":648:654  _owner */\n  0x00\n  dup1\n  sload\n  swap1\n  0x0100\n  exp\n  swap1\n  div\n  0xffffffffffffffffffffffffffffffffffffffff\n  and\n    /* \"contracts/OwnableZombie.sol\":615:655  OwnershipTransferred(address(0), _owner) */\n  0xffffffffffffffffffffffffffffffffffffffff\n  and\n    /* \"contracts/OwnableZombie.sol\":644:645  0 */\n  0x00\n    /* \"contracts/OwnableZombie.sol\":615:655  OwnershipTransferred(address(0), _owner) */\n  0xffffffffffffffffffffffffffffffffffffffff\n  and\n  0x8be0079c531659141344cd1fd0a4f28419497f9722a3daafe3b4186f6b6457e0\n  mload(0x40)\n  mload(0x40)\n  dup1\n  swap2\n  sub\n  swap1\n  log3\n    /* \"contracts/Zombiefeeding.sol\":447:1720  contract ZombieFeeding is ZombieFactory {... */\n  jump(tag_6)\n    /* \"#utility.yul\":7:187   */\ntag_7:\n    /* \"#utility.yul\":55:132   */\n  0x4e487b7100000000000000000000000000000000000000000000000000000000\n    /* \"#utility.yul\":52:53   */\n  0x00\n    /* \"#utility.yul\":45:133   */\n  mstore\n    /* \"#utility.yul\":152:156   */\n  0x11\n    /* \"#utility.yul\":149:150   */\n  0x04\n    /* \"#utility.yul\":142:157   */\n  mstore\n    /* \"#utility.yul\":176:180   */\n  0x24\n    /* \"#utility.yul\":173:174   */\n  0x00\n    /* \"#utility.yul\":166:181   */\n  revert\n    /* \"#utility.yul\":193:295   */\ntag_8:\n    /* \"#utility.yul\":235:243   */\n  0x00\n    /* \"#utility.yul\":282:287   */\n  dup2\n    /* \"#utility.yul\":279:280   */\n  0x01\n    /* \"#utility.yul\":275:288   */\n  shr\n    /* \"#utility.yul\":254:288   */\n  swap1\n  pop\n    /* \"#utility.yul\":193:295   */\n  swap2\n  swap1\n  pop\n  jump\t// out\n    /* \"#utility.yul\":301:1149   */\ntag_9:\n    /* \"#utility.yul\":362:367   */\n  0x00\n    /* \"#utility.yul\":369:373   */\n  dup1\n    /* \"#utility.yul\":393:399   */\n  dup3\n    /* \"#utility.yul\":384:399   */\n  swap2\n  pop\n    /* \"#utility.yul\":417:422   */\n  dup4\n    /* \"#utility.yul\":408:422   */\n  swap1\n  pop\n    /* \"#utility.yul\":431:1143   */\ntag_16:\n    /* \"#utility.yul\":452:453   */\n  0x01\n    /* \"#utility.yul\":442:450   */\n  dup6\n    /* \"#utility.yul\":439:454   */\n  gt\n    /* \"#utility.yul\":431:1143   */\n  iszero\n  tag_18\n  jumpi\n    /* \"#utility.yul\":547:551   */\n  dup1\n    /* \"#utility.yul\":542:545   */\n  dup7\n    /* \"#utility.yul\":538:552   */\n  div\n    /* \"#utility.yul\":532:536   */\n  dup2\n    /* \"#utility.yul\":529:553   */\n  gt\n    /* \"#utility.yul\":526:576   */\n  iszero\n  tag_19\n  jumpi\n    /* \"#utility.yul\":556:574   */\n  tag_20\n  tag_7\n  jump\t// in\ntag_20:\n    /* \"#utility.yul\":526:576   */\ntag_19:\n    /* \"#utility.yul\":606:607   */\n  0x01\n    /* \"#utility.yul\":596:604   */\n  dup6\n    /* \"#utility.yul\":592:608   */\n  and\n    /* \"#utility.yul\":589:1040   */\n  iszero\n  tag_21\n  jumpi\n    /* \"#utility.yul\":1021:1025   */\n  dup1\n    /* \"#utility.yul\":1014:1019   */\n  dup3\n    /* \"#utility.yul\":1010:1026   */\n  mul\n    /* \"#utility.yul\":1001:1026   */\n  swap2\n  pop\n    /* \"#utility.yul\":589:1040   */\ntag_21:\n    /* \"#utility.yul\":1071:1075   */\n  dup1\n    /* \"#utility.yul\":1065:1069   */\n  dup2\n    /* \"#utility.yul\":1061:1076   */\n  mul\n    /* \"#utility.yul\":1053:1076   */\n  swap1\n  pop\n    /* \"#utility.yul\":1101:1133   */\n  tag_22\n    /* \"#utility.yul\":1124:1132   */\n  dup6\n    /* \"#utility.yul\":1101:1133   */\n  tag_8\n  jump\t// in\ntag_22:\n    /* \"#utility.yul\":1089:1133   */\n  swap5\n  pop\n    /* \"#utility.yul\":431:1143   */\n  jump(tag_16)\ntag_18:\n    /* \"#utility.yul\":301:1149   */\n  swap5\n  pop\n  swap5\n  swap3\n  pop\n  pop\n  pop\n  jump\t// out\n    /* \"#utility.yul\":1155:2228   */\ntag_10:\n    /* \"#utility.yul\":1209:1214   */\n  0x00\n    /* \"#utility.yul\":1400:1408   */\n  dup3\n    /* \"#utility.yul\":1390:1430   */\n  tag_24\n  jumpi\n    /* \"#utility.yul\":1421:1422   */\n  0x01\n    /* \"#utility.yul\":1412:1422   */\n  swap1\n  pop\n    /* \"#utility.yul\":1423:1428   */\n  jump(tag_23)\n    /* \"#utility.yul\":1390:1430   */\ntag_24:\n    /* \"#utility.yul\":1449:1453   */\n  dup2\n    /* \"#utility.yul\":1439:1475   */\n  tag_25\n  jumpi\n    /* \"#utility.yul\":1466:1467   */\n  0x00\n    /* \"#utility.yul\":1457:1467   */\n  swap1\n  pop\n    /* \"#utility.yul\":1468:1473   */\n  jump(tag_23)\n    /* \"#utility.yul\":1439:1475   */\ntag_25:\n    /* \"#utility.yul\":1535:1539   */\n  dup2\n    /* \"#utility.yul\":1583:1584   */\n  0x01\n    /* \"#utility.yul\":1578:1605   */\n  dup2\n  eq\n  tag_27\n  jumpi\n    /* \"#utility.yul\":1619:1620   */\n  0x02\n    /* \"#utility.yul\":1614:1805   */\n  dup2\n  eq\n  tag_28\n  jumpi\n    /* \"#utility.yul\":1528:1805   */\n  jump(tag_26)\n    /* \"#utility.yul\":1578:1605   */\ntag_27:\n    /* \"#utility.yul\":1596:1597   */\n  0x01\n    /* \"#utility.yul\":1587:1597   */\n  swap2\n  pop\n    /* \"#utility.yul\":1598:1603   */\n  pop\n  jump(tag_23)\n    /* \"#utility.yul\":1614:1805   */\ntag_28:\n    /* \"#utility.yul\":1659:1662   */\n  0xff\n    /* \"#utility.yul\":1649:1657   */\n  dup5\n    /* \"#utility.yul\":1646:1663   */\n  gt\n    /* \"#utility.yul\":1643:1686   */\n  iszero\n  tag_29\n  jumpi\n    /* \"#utility.yul\":1666:1684   */\n  tag_30\n  tag_7\n  jump\t// in\ntag_30:\n    /* \"#utility.yul\":1643:1686   */\ntag_29:\n    /* \"#utility.yul\":1715:1723   */\n  dup4\n    /* \"#utility.yul\":1712:1713   */\n  0x02\n    /* \"#utility.yul\":1708:1724   */\n  exp\n    /* \"#utility.yul\":1699:1724   */\n  swap2\n  pop\n    /* \"#utility.yul\":1750:1753   */\n  dup5\n    /* \"#utility.yul\":1743:1748   */\n  dup3\n    /* \"#utility.yul\":1740:1754   */\n  gt\n    /* \"#utility.yul\":1737:1777   */\n  iszero\n  tag_31\n  jumpi\n    /* \"#utility.yul\":1757:1775   */\n  tag_32\n  tag_7\n  jump\t// in\ntag_32:\n    /* \"#utility.yul\":1737:1777   */\ntag_31:\n    /* \"#utility.yul\":1790:1795   */\n  pop\n  jump(tag_23)\n    /* \"#utility.yul\":1528:1805   */\ntag_26:\n  pop\n    /* \"#utility.yul\":1914:1916   */\n  0x20\n    /* \"#utility.yul\":1904:1912   */\n  dup4\n    /* \"#utility.yul\":1901:1917   */\n  lt\n    /* \"#utility.yul\":1895:1898   */\n  0x0133\n    /* \"#utility.yul\":1889:1893   */\n  dup4\n    /* \"#utility.yul\":1886:1899   */\n  lt\n    /* \"#utility.yul\":1882:1918   */\n  and\n    /* \"#utility.yul\":1864:1866   */\n  0x4e\n    /* \"#utility.yul\":1854:1862   */\n  dup5\n    /* \"#utility.yul\":1851:1867   */\n  lt\n    /* \"#utility.yul\":1846:1848   */\n  0x0b\n    /* \"#utility.yul\":1840:1844   */\n  dup5\n    /* \"#utility.yul\":1837:1849   */\n  lt\n    /* \"#utility.yul\":1833:1868   */\n  and\n    /* \"#utility.yul\":1817:1928   */\n  or\n    /* \"#utility.yul\":1814:2060   */\n  iszero\n  tag_33\n  jumpi\n    /* \"#utility.yul\":1970:1978   */\n  dup3\n    /* \"#utility.yul\":1964:1968   */\n  dup3\n    /* \"#utility.yul\":1960:1979   */\n  exp\n    /* \"#utility.yul\":1951:1979   */\n  swap1\n  pop\n    /* \"#utility.yul\":2005:2008   */\n  dup4\n    /* \"#utility.yul\":1998:2003   */\n  dup2\n    /* \"#utility.yul\":1995:2009   */\n  gt\n    /* \"#utility.yul\":1992:2032   */\n  iszero\n  tag_34\n  jumpi\n    /* \"#utility.yul\":2012:2030   */\n  tag_35\n  tag_7\n  jump\t// in\ntag_35:\n    /* \"#utility.yul\":1992:2032   */\ntag_34:\n    /* \"#utility.yul\":2045:2050   */\n  jump(tag_23)\n    /* \"#utility.yul\":1814:2060   */\ntag_33:\n    /* \"#utility.yul\":2085:2127   */\n  tag_36\n    /* \"#utility.yul\":2123:2126   */\n  dup5\n    /* \"#utility.yul\":2113:2121   */\n  dup5\n    /* \"#utility.yul\":2107:2111   */\n  dup5\n    /* \"#utility.yul\":2104:2105   */\n  0x01\n    /* \"#utility.yul\":2085:2127   */\n  tag_9\n  jump\t// in\ntag_36:\n    /* \"#utility.yul\":2070:2127   */\n  swap3\n  pop\n  swap1\n  pop\n    /* \"#utility.yul\":2159:2163   */\n  dup2\n    /* \"#utility.yul\":2154:2157   */\n  dup5\n    /* \"#utility.yul\":2150:2164   */\n  div\n    /* \"#utility.yul\":2143:2148   */\n  dup2\n    /* \"#utility.yul\":2140:2165   */\n  gt\n    /* \"#utility.yul\":2137:2188   */\n  iszero\n  tag_37\n  jumpi\n    /* \"#utility.yul\":2168:2186   */\n  tag_38\n  tag_7\n  jump\t// in\ntag_38:\n    /* \"#utility.yul\":2137:2188   */\ntag_37:\n    /* \"#utility.yul\":2217:2221   */\n  dup2\n    /* \"#utility.yul\":2210:2215   */\n  dup2\n    /* \"#utility.yul\":2206:2222   */\n  mul\n    /* \"#utility.yul\":2197:2222   */\n  swap1\n  pop\n    /* \"#utility.yul\":1155:2228   */\ntag_23:\n  swap4\n  swap3\n  pop\n  pop\n  pop\n  jump\t// out\n    /* \"#utility.yul\":2234:2311   */\ntag_11:\n    /* \"#utility.yul\":2271:2278   */\n  0x00\n    /* \"#utility.yul\":2300:2305   */\n  dup2\n    /* \"#utility.yul\":2289:2305   */\n  swap1\n  pop\n    /* \"#utility.yul\":2234:2311   */\n  swap2\n  swap1\n  pop\n  jump\t// out\n    /* \"#utility.yul\":2317:2602   */\ntag_2:\n    /* \"#utility.yul\":2377:2382   */\n  0x00\n    /* \"#utility.yul\":2401:2424   */\n  tag_41\n    /* \"#utility.yul\":2419:2423   */\n  dup3\n    /* \"#utility.yul\":2401:2424   */\n  tag_11\n  jump\t// in\ntag_41:\n    /* \"#utility.yul\":2393:2424   */\n  swap2\n  pop\n    /* \"#utility.yul\":2445:2472   */\n  tag_42\n    /* \"#utility.yul\":2463:2471   */\n  dup4\n    /* \"#utility.yul\":2445:2472   */\n  tag_11\n  jump\t// in\ntag_42:\n    /* \"#utility.yul\":2433:2472   */\n  swap3\n  pop\n    /* \"#utility.yul\":2491:2595   */\n  tag_43\n    /* \"#utility.yul\":2528:2594   */\n  0xffffffffffffffffffffffffffffffffffffffffffffffffffffffffffffffff\n    /* \"#utility.yul\":2518:2526   */\n  dup5\n    /* \"#utility.yul\":2512:2516   */\n  dup5\n    /* \"#utility.yul\":2491:2595   */\n  tag_10\n  jump\t// in\ntag_43:\n    /* \"#utility.yul\":2482:2595   */\n  swap1\n  pop\n    /* \"#utility.yul\":2317:2602   */\n  swap3\n  swap2\n  pop\n  pop\n  jump\t// out\n    /* \"contracts/Zombiefeeding.sol\":447:1720  contract ZombieFeeding is ZombieFactory {... */\ntag_6:\n  dataSize(sub_0)\n  dup1\n  dataOffset(sub_0)\n  0x00\n  codecopy\n  0x00\n  return\nstop\n\nsub_0: assembly {\n        /* \"contracts/Zombiefeeding.sol\":447:1720  contract ZombieFeeding is ZombieFactory {... */\n      mstore(0x40, 0x80)\n      callvalue\n      dup1\n      iszero\n      tag_1\n      jumpi\n      0x00\n      dup1\n      revert\n    tag_1:\n      pop\n      jumpi(tag_2, lt(calldatasize, 0x04))\n      shr(0xe0, calldataload(0x00))\n      dup1\n      0x715018a6\n      gt\n      tag_12\n      jumpi\n      dup1\n      0x715018a6\n      eq\n      tag_7\n      jumpi\n      dup1\n      0x8da5cb5b\n      eq\n      tag_8\n      jumpi\n      dup1\n      0x8f32d59b\n      eq\n      tag_9\n      jumpi\n      dup1\n      0xc6f15112\n      eq\n      tag_10\n      jumpi\n      dup1\n      0xf2fde38b\n      eq\n      tag_11\n      jumpi\n      jump(tag_2)\n    tag_12:\n      dup1\n      0x17a7f4cc\n      eq\n      tag_3\n      jumpi\n      dup1\n      0x2052465e\n      eq\n      tag_4\n      jumpi\n      dup1\n      0x5f4623f1\n      eq\n      tag_5\n      jumpi\n      dup1\n      0x6b0bfc80\n      eq\n      tag_6\n      jumpi\n    tag_2:\n      0x00\n      dup1\n      revert\n        /* \"contracts/Zombiefeeding.sol\":1218:1436  function feedOnKitty(uint _zombieId, uint _kittyId) public {... */\n    tag_3:\n      tag_13\n      0x04\n      dup1\n      calldatasize\n      sub\n      dup2\n      add\n      swap1\n      tag_14\n      swap2\n      swap1\n      tag_15\n      jump\t// in\n    tag_14:\n      tag_16\n      jump\t// in\n    tag_13:\n      stop\n        /* \"contracts/Zombiefactory.sol\":499:522  Zombie[] public zombies */\n    tag_4:\n      tag_17\n      0x04\n      dup1\n      calldatasize\n      sub\n      dup2\n      add\n      swap1\n      tag_18\n      swap2\n      swap1\n      tag_19\n      jump\t// in\n    tag_18:\n      tag_20\n      jump\t// in\n    tag_17:\n      mload(0x40)\n      tag_21\n      swap5\n      swap4\n      swap3\n      swap2\n      swap1\n      tag_22\n      jump\t// in\n    tag_21:\n      mload(0x40)\n      dup1\n      swap2\n      sub\n      swap1\n      return\n        /* \"contracts/Zombiefeeding.sol\":533:660  function setKittyContractAddress(address _address) external onlyOwner {... */\n    tag_5:\n      tag_23\n      0x04\n      dup1\n      calldatasize\n      sub\n      dup2\n      add\n      swap1\n      tag_24\n      swap2\n      swap1\n      tag_25\n      jump\t// in\n    tag_24:\n      tag_26\n      jump\t// in\n    tag_23:\n      stop\n        /* \"contracts/Zombiefeeding.sol\":666:1212  function feedAndMultiply(uint _zombieId, uint _targetDna, string memory _species) public {... */\n    tag_6:\n      tag_27\n      0x04\n      dup1\n      calldatasize\n      sub\n      dup2\n      add\n      swap1\n      tag_28\n      swap2\n      swap1\n      tag_29\n      jump\t// in\n    tag_28:\n      tag_30\n      jump\t// in\n    tag_27:\n      stop\n        /* \"contracts/OwnableZombie.sol\":1369:1499  function renounceOwnership() public onlyOwner {... */\n    tag_7:\n      tag_31\n      tag_32\n      jump\t// in\n    tag_31:\n      stop\n        /* \"contracts/OwnableZombie.sol\":719:791  function owner() public view returns(address) {... */\n    tag_8:\n      tag_33\n      tag_34\n      jump\t// in\n    tag_33:\n      mload(0x40)\n      tag_35\n      swap2\n      swap1\n      tag_36\n      jump\t// in\n    tag_35:\n      mload(0x40)\n      dup1\n      swap2\n      sub\n      swap1\n      return\n        /* \"contracts/OwnableZombie.sol\":1017:1102  function isOwner() public view returns(bool) {... */\n    tag_9:\n      tag_37\n      tag_38\n      jump\t// in\n    tag_37:\n      mload(0x40)\n      tag_39\n      swap2\n      swap1\n      tag_40\n      jump\t// in\n    tag_39:\n      mload(0x40)\n      dup1\n      swap2\n      sub\n      swap1\n      return\n        /* \"contracts/Zombiefactory.sol\":1613:1821  function generateRandomZombie(string memory _name) public {... */\n    tag_10:\n      tag_41\n      0x04\n      dup1\n      calldatasize\n      sub\n      dup2\n      add\n      swap1\n      tag_42\n      swap2\n      swap1\n      tag_43\n      jump\t// in\n    tag_42:\n      tag_44\n      jump\t// in\n    tag_41:\n      stop\n        /* \"contracts/OwnableZombie.sol\":1663:1766  function transferOwnership(address newOwner) public onlyOwner {... */\n    tag_11:\n      tag_45\n      0x04\n      dup1\n      calldatasize\n      sub\n      dup2\n      add\n      swap1\n      tag_46\n      swap2\n      swap1\n      tag_25\n      jump\t// in\n    tag_46:\n      tag_47\n      jump\t// in\n    tag_45:\n      stop\n        /* \"contracts/Zombiefeeding.sol\":1218:1436  function feedOnKitty(uint _zombieId, uint _kittyId) public {... */\n    tag_16:\n        /* \"contracts/Zombiefeeding.sol\":1287:1300  uint kittyDna */\n      0x00\n        /* \"contracts/Zombiefeeding.sol\":1342:1355  kittyContract */\n      0x07\n      0x00\n      swap1\n      sload\n      swap1\n      0x0100\n      exp\n      swap1\n      div\n      0xffffffffffffffffffffffffffffffffffffffff\n      and\n        /* \"contracts/Zombiefeeding.sol\":1342:1364  kittyContract.getKitty */\n      0xffffffffffffffffffffffffffffffffffffffff\n      and\n      0xe98b7f4d\n        /* \"contracts/Zombiefeeding.sol\":1365:1373  _kittyId */\n      dup4\n        /* \"contracts/Zombiefeeding.sol\":1342:1374  kittyContract.getKitty(_kittyId) */\n      mload(0x40)\n      dup3\n      0xffffffff\n      and\n      0xe0\n      shl\n      dup2\n      mstore\n      0x04\n      add\n      tag_49\n      swap2\n      swap1\n      tag_50\n      jump\t// in\n    tag_49:\n      0x0140\n      mload(0x40)\n      dup1\n      dup4\n      sub\n      dup2\n      dup7\n      gas\n      staticcall\n      iszero\n      dup1\n      iszero\n      tag_52\n      jumpi\n      returndatasize\n      0x00\n      dup1\n      returndatacopy\n      revert(0x00, returndatasize)\n    tag_52:\n      pop\n      pop\n      pop\n      pop\n      mload(0x40)\n      returndatasize\n      not(0x1f)\n      0x1f\n      dup3\n      add\n      and\n      dup3\n      add\n      dup1\n      0x40\n      mstore\n      pop\n      dup2\n      add\n      swap1\n      tag_53\n      swap2\n      swap1\n      tag_54\n      jump\t// in\n    tag_53:\n        /* \"contracts/Zombiefeeding.sol\":1310:1374  ( , , , , , , , , , kittyDna) = kittyContract.getKitty(_kittyId) */\n      swap1\n      swap2\n      swap3\n      swap4\n      swap5\n      swap6\n      swap7\n      swap8\n      swap9\n      pop\n      swap1\n      swap2\n      swap3\n      swap4\n      swap5\n      swap6\n      swap7\n      swap8\n      pop\n      swap1\n      swap2\n      swap3\n      swap4\n      swap5\n      swap6\n      swap7\n      pop\n      swap1\n      swap2\n      swap3\n      swap4\n      swap5\n      swap6\n      pop\n      swap1\n      swap2\n      swap3\n      swap4\n      swap5\n      pop\n      swap1\n      swap2\n      swap3\n      swap4\n      pop\n      swap1\n      swap2\n      swap3\n      pop\n      swap1\n      swap2\n      pop\n      swap1\n      pop\n      dup1\n      swap2\n      pop\n      pop\n        /* \"contracts/Zombiefeeding.sol\":1384:1429  feedAndMultiply(_zombieId, kittyDna, \"kitty\") */\n      tag_55\n        /* \"contracts/Zombiefeeding.sol\":1400:1409  _zombieId */\n      dup4\n        /* \"contracts/Zombiefeeding.sol\":1411:1419  kittyDna */\n      dup3\n        /* \"contracts/Zombiefeeding.sol\":1384:1429  feedAndMultiply(_zombieId, kittyDna, \"kitty\") */\n      mload(0x40)\n      dup1\n      0x40\n      add\n      0x40\n      mstore\n      dup1\n      0x05\n      dup2\n      mstore\n      0x20\n      add\n      0x6b69747479000000000000000000000000000000000000000000000000000000\n      dup2\n      mstore\n      pop\n        /* \"contracts/Zombiefeeding.sol\":1384:1399  feedAndMultiply */\n      tag_30\n        /* \"contracts/Zombiefeeding.sol\":1384:1429  feedAndMultiply(_zombieId, kittyDna, \"kitty\") */\n      jump\t// in\n    tag_55:\n        /* \"contracts/Zombiefeeding.sol\":1277:1436  {... */\n      pop\n        /* \"contracts/Zombiefeeding.sol\":1218:1436  function feedOnKitty(uint _zombieId, uint _kittyId) public {... */\n      pop\n      pop\n      jump\t// out\n        /* \"contracts/Zombiefactory.sol\":499:522  Zombie[] public zombies */\n    tag_20:\n      0x04\n      dup2\n      dup2\n      sload\n      dup2\n      lt\n      tag_56\n      jumpi\n      0x00\n      dup1\n      revert\n    tag_56:\n      swap1\n      0x00\n      mstore\n      keccak256(0x00, 0x20)\n      swap1\n      0x03\n      mul\n      add\n      0x00\n      swap2\n      pop\n      swap1\n      pop\n      dup1\n      0x00\n      add\n      sload\n      swap1\n      dup1\n      0x01\n      add\n      dup1\n      sload\n      tag_58\n      swap1\n      tag_59\n      jump\t// in\n    tag_58:\n      dup1\n      0x1f\n      add\n      0x20\n      dup1\n      swap2\n      div\n      mul\n      0x20\n      add\n      mload(0x40)\n      swap1\n      dup2\n      add\n      0x40\n      mstore\n      dup1\n      swap3\n      swap2\n      swap1\n      dup2\n      dup2\n      mstore\n      0x20\n      add\n      dup3\n      dup1\n      sload\n      tag_60\n      swap1\n      tag_59\n      jump\t// in\n    tag_60:\n      dup1\n      iszero\n      tag_61\n      jumpi\n      dup1\n      0x1f\n      lt\n      tag_62\n      jumpi\n      0x0100\n      dup1\n      dup4\n      sload\n      div\n      mul\n      dup4\n      mstore\n      swap2\n      0x20\n      add\n      swap2\n      jump(tag_61)\n    tag_62:\n      dup3\n      add\n      swap2\n      swap1\n      0x00\n      mstore\n      keccak256(0x00, 0x20)\n      swap1\n    tag_63:\n      dup2\n      sload\n      dup2\n      mstore\n      swap1\n      0x01\n      add\n      swap1\n      0x20\n      add\n      dup1\n      dup4\n      gt\n      tag_63\n      jumpi\n      dup3\n      swap1\n      sub\n      0x1f\n      and\n      dup3\n      add\n      swap2\n    tag_61:\n      pop\n      pop\n      pop\n      pop\n      pop\n      swap1\n      dup1\n      0x02\n      add\n      0x00\n      swap1\n      sload\n      swap1\n      0x0100\n      exp\n      swap1\n      div\n      0xffffffff\n      and\n      swap1\n      dup1\n      0x02\n      add\n      0x04\n      swap1\n      sload\n      swap1\n      0x0100\n      exp\n      swap1\n      div\n      0xffffffff\n      and\n      swap1\n      pop\n      dup5\n      jump\t// out\n        /* \"contracts/Zombiefeeding.sol\":533:660  function setKittyContractAddress(address _address) external onlyOwner {... */\n    tag_26:\n        /* \"contracts/OwnableZombie.sol\":910:919  isOwner() */\n      tag_65\n        /* \"contracts/OwnableZombie.sol\":910:917  isOwner */\n      tag_38\n        /* \"contracts/OwnableZombie.sol\":910:919  isOwner() */\n      jump\t// in\n    tag_65:\n        /* \"contracts/OwnableZombie.sol\":902:920  require(isOwner()) */\n      tag_66\n      jumpi\n      0x00\n      dup1\n      revert\n    tag_66:\n        /* \"contracts/Zombiefeeding.sol\":644:652  _address */\n      dup1\n        /* \"contracts/Zombiefeeding.sol\":613:626  kittyContract */\n      0x07\n      0x00\n        /* \"contracts/Zombiefeeding.sol\":613:653  kittyContract = KittyInterface(_address) */\n      0x0100\n      exp\n      dup2\n      sload\n      dup2\n      0xffffffffffffffffffffffffffffffffffffffff\n      mul\n      not\n      and\n      swap1\n      dup4\n      0xffffffffffffffffffffffffffffffffffffffff\n      and\n      mul\n      or\n      swap1\n      sstore\n      pop\n        /* \"contracts/Zombiefeeding.sol\":533:660  function setKittyContractAddress(address _address) external onlyOwner {... */\n      pop\n      jump\t// out\n        /* \"contracts/Zombiefeeding.sol\":666:1212  function feedAndMultiply(uint _zombieId, uint _targetDna, string memory _species) public {... */\n    tag_30:\n        /* \"contracts/Zombiefeeding.sol\":805:806  0 */\n      0x00\n        /* \"contracts/Zombiefeeding.sol\":773:789  ownerZombieCount */\n      0x06\n        /* \"contracts/Zombiefeeding.sol\":773:801  ownerZombieCount[msg.sender] */\n      0x00\n        /* \"contracts/Zombiefeeding.sol\":790:800  msg.sender */\n      caller\n        /* \"contracts/Zombiefeeding.sol\":773:801  ownerZombieCount[msg.sender] */\n      0xffffffffffffffffffffffffffffffffffffffff\n      and\n      0xffffffffffffffffffffffffffffffffffffffff\n      and\n      dup2\n      mstore\n      0x20\n      add\n      swap1\n      dup2\n      mstore\n      0x20\n      add\n      0x00\n      keccak256\n      sload\n        /* \"contracts/Zombiefeeding.sol\":773:806  ownerZombieCount[msg.sender] == 0 */\n      eq\n        /* \"contracts/Zombiefeeding.sol\":765:807  require(ownerZombieCount[msg.sender] == 0) */\n      tag_69\n      jumpi\n      0x00\n      dup1\n      revert\n    tag_69:\n        /* \"contracts/Zombiefeeding.sol\":844:867  Zombie storage myZombie */\n      0x00\n        /* \"contracts/Zombiefeeding.sol\":870:877  zombies */\n      0x04\n        /* \"contracts/Zombiefeeding.sol\":878:887  _zombieId */\n      dup5\n        /* \"contracts/Zombiefeeding.sol\":870:888  zombies[_zombieId] */\n      dup2\n      sload\n      dup2\n      lt\n      tag_70\n      jumpi\n      tag_71\n      tag_72\n      jump\t// in\n    tag_71:\n    tag_70:\n      swap1\n      0x00\n      mstore\n      keccak256(0x00, 0x20)\n      swap1\n      0x03\n      mul\n      add\n        /* \"contracts/Zombiefeeding.sol\":844:888  Zombie storage myZombie = zombies[_zombieId] */\n      swap1\n      pop\n        /* \"contracts/Zombiefeeding.sol\":924:934  dnaModulus */\n      sload(0x02)\n        /* \"contracts/Zombiefeeding.sol\":911:921  _targetDna */\n      dup4\n        /* \"contracts/Zombiefeeding.sol\":911:934  _targetDna % dnaModulus */\n      tag_74\n      swap2\n      swap1\n      tag_75\n      jump\t// in\n    tag_74:\n        /* \"contracts/Zombiefeeding.sol\":898:934  _targetDna = _targetDna % dnaModulus */\n      swap3\n      pop\n        /* \"contracts/Zombiefeeding.sol\":967:978  uint newDna */\n      0x00\n        /* \"contracts/Zombiefeeding.sol\":1011:1012  2 */\n      0x02\n        /* \"contracts/Zombiefeeding.sol\":995:1003  myZombie */\n      dup3\n        /* \"contracts/Zombiefeeding.sol\":995:1007  myZombie.dna */\n      0x00\n      add\n      sload\n        /* \"contracts/Zombiefeeding.sol\":982:992  _targetDna */\n      dup6\n        /* \"contracts/Zombiefeeding.sol\":982:1007  _targetDna + myZombie.dna */\n      tag_76\n      swap2\n      swap1\n      tag_77\n      jump\t// in\n    tag_76:\n        /* \"contracts/Zombiefeeding.sol\":981:1012  (_targetDna + myZombie.dna) / 2 */\n      tag_78\n      swap2\n      swap1\n      tag_79\n      jump\t// in\n    tag_78:\n        /* \"contracts/Zombiefeeding.sol\":967:1012  uint newDna = (_targetDna + myZombie.dna) / 2 */\n      swap1\n      pop\n        /* \"contracts/Zombiefeeding.sol\":1077:1102  abi.encodePacked(\"kitty\") */\n      add(0x20, mload(0x40))\n      tag_80\n      swap1\n      tag_81\n      jump\t// in\n    tag_80:\n      mload(0x40)\n      0x20\n      dup2\n      dup4\n      sub\n      sub\n      dup2\n      mstore\n      swap1\n      0x40\n      mstore\n        /* \"contracts/Zombiefeeding.sol\":1067:1103  keccak256(abi.encodePacked(\"kitty\")) */\n      dup1\n      mload\n      swap1\n      0x20\n      add\n      keccak256\n        /* \"contracts/Zombiefeeding.sol\":1053:1061  _species */\n      dup4\n        /* \"contracts/Zombiefeeding.sol\":1036:1062  abi.encodePacked(_species) */\n      add(0x20, mload(0x40))\n      tag_82\n      swap2\n      swap1\n      tag_83\n      jump\t// in\n    tag_82:\n      mload(0x40)\n      0x20\n      dup2\n      dup4\n      sub\n      sub\n      dup2\n      mstore\n      swap1\n      0x40\n      mstore\n        /* \"contracts/Zombiefeeding.sol\":1026:1063  keccak256(abi.encodePacked(_species)) */\n      dup1\n      mload\n      swap1\n      0x20\n      add\n      keccak256\n        /* \"contracts/Zombiefeeding.sol\":1026:1103  keccak256(abi.encodePacked(_species)) == keccak256(abi.encodePacked(\"kitty\")) */\n      sub\n        /* \"contracts/Zombiefeeding.sol\":1022:1165  if (keccak256(abi.encodePacked(_species)) == keccak256(abi.encodePacked(\"kitty\"))) {... */\n      tag_84\n      jumpi\n        /* \"contracts/Zombiefeeding.sol\":1152:1154  99 */\n      0x63\n        /* \"contracts/Zombiefeeding.sol\":1146:1149  100 */\n      0x64\n        /* \"contracts/Zombiefeeding.sol\":1137:1143  newDna */\n      dup3\n        /* \"contracts/Zombiefeeding.sol\":1137:1149  newDna % 100 */\n      tag_85\n      swap2\n      swap1\n      tag_75\n      jump\t// in\n    tag_85:\n        /* \"contracts/Zombiefeeding.sol\":1128:1134  newDna */\n      dup3\n        /* \"contracts/Zombiefeeding.sol\":1128:1149  newDna - newDna % 100 */\n      tag_86\n      swap2\n      swap1\n      tag_87\n      jump\t// in\n    tag_86:\n        /* \"contracts/Zombiefeeding.sol\":1128:1154  newDna - newDna % 100 + 99 */\n      tag_88\n      swap2\n      swap1\n      tag_77\n      jump\t// in\n    tag_88:\n        /* \"contracts/Zombiefeeding.sol\":1119:1154  newDna = newDna - newDna % 100 + 99 */\n      swap1\n      pop\n        /* \"contracts/Zombiefeeding.sol\":1022:1165  if (keccak256(abi.encodePacked(_species)) == keccak256(abi.encodePacked(\"kitty\"))) {... */\n    tag_84:\n        /* \"contracts/Zombiefeeding.sol\":1174:1205  _createZombie(\"NoName\", newDna) */\n      tag_89\n      mload(0x40)\n      dup1\n      0x40\n      add\n      0x40\n      mstore\n      dup1\n      0x06\n      dup2\n      mstore\n      0x20\n      add\n      0x4e6f4e616d650000000000000000000000000000000000000000000000000000\n      dup2\n      mstore\n      pop\n        /* \"contracts/Zombiefeeding.sol\":1198:1204  newDna */\n      dup3\n        /* \"contracts/Zombiefeeding.sol\":1174:1187  _createZombie */\n      tag_90\n        /* \"contracts/Zombiefeeding.sol\":1174:1205  _createZombie(\"NoName\", newDna) */\n      jump\t// in\n    tag_89:\n        /* \"contracts/Zombiefeeding.sol\":755:1212  {... */\n      pop\n      pop\n        /* \"contracts/Zombiefeeding.sol\":666:1212  function feedAndMultiply(uint _zombieId, uint _targetDna, string memory _species) public {... */\n      pop\n      pop\n      pop\n      jump\t// out\n        /* \"contracts/OwnableZombie.sol\":1369:1499  function renounceOwnership() public onlyOwner {... */\n    tag_32:\n        /* \"contracts/OwnableZombie.sol\":910:919  isOwner() */\n      tag_92\n        /* \"contracts/OwnableZombie.sol\":910:917  isOwner */\n      tag_38\n        /* \"contracts/OwnableZombie.sol\":910:919  isOwner() */\n      jump\t// in\n    tag_92:\n        /* \"contracts/OwnableZombie.sol\":902:920  require(isOwner()) */\n      tag_93\n      jumpi\n      0x00\n      dup1\n      revert\n    tag_93:\n        /* \"contracts/OwnableZombie.sol\":1464:1465  0 */\n      0x00\n        /* \"contracts/OwnableZombie.sol\":1427:1467  OwnershipTransferred(_owner, address(0)) */\n      0xffffffffffffffffffffffffffffffffffffffff\n      and\n        /* \"contracts/OwnableZombie.sol\":1448:1454  _owner */\n      0x00\n      dup1\n      sload\n      swap1\n      0x0100\n      exp\n      swap1\n      div\n      0xffffffffffffffffffffffffffffffffffffffff\n      and\n        /* \"contracts/OwnableZombie.sol\":1427:1467  OwnershipTransferred(_owner, address(0)) */\n      0xffffffffffffffffffffffffffffffffffffffff\n      and\n      0x8be0079c531659141344cd1fd0a4f28419497f9722a3daafe3b4186f6b6457e0\n      mload(0x40)\n      mload(0x40)\n      dup1\n      swap2\n      sub\n      swap1\n      log3\n        /* \"contracts/OwnableZombie.sol\":1491:1492  0 */\n      0x00\n        /* \"contracts/OwnableZombie.sol\":1474:1480  _owner */\n      dup1\n      0x00\n        /* \"contracts/OwnableZombie.sol\":1474:1493  _owner = address(0) */\n      0x0100\n      exp\n      dup2\n      sload\n      dup2\n      0xffffffffffffffffffffffffffffffffffffffff\n      mul\n      not\n      and\n      swap1\n      dup4\n      0xffffffffffffffffffffffffffffffffffffffff\n      and\n      mul\n      or\n      swap1\n      sstore\n      pop\n        /* \"contracts/OwnableZombie.sol\":1369:1499  function renounceOwnership() public onlyOwner {... */\n      jump\t// out\n        /* \"contracts/OwnableZombie.sol\":719:791  function owner() public view returns(address) {... */\n    tag_34:\n        /* \"contracts/OwnableZombie.sol\":756:763  address */\n      0x00\n        /* \"contracts/OwnableZombie.sol\":779:785  _owner */\n      dup1\n      0x00\n      swap1\n      sload\n      swap1\n      0x0100\n      exp\n      swap1\n      div\n      0xffffffffffffffffffffffffffffffffffffffff\n      and\n        /* \"contracts/OwnableZombie.sol\":772:785  return _owner */\n      swap1\n      pop\n        /* \"contracts/OwnableZombie.sol\":719:791  function owner() public view returns(address) {... */\n      swap1\n      jump\t// out\n        /* \"contracts/OwnableZombie.sol\":1017:1102  function isOwner() public view returns(bool) {... */\n    tag_38:\n        /* \"contracts/OwnableZombie.sol\":1056:1060  bool */\n      0x00\n        /* \"contracts/OwnableZombie.sol\":1090:1096  _owner */\n      dup1\n      0x00\n      swap1\n      sload\n      swap1\n      0x0100\n      exp\n      swap1\n      div\n      0xffffffffffffffffffffffffffffffffffffffff\n      and\n        /* \"contracts/OwnableZombie.sol\":1076:1096  msg.sender == _owner */\n      0xffffffffffffffffffffffffffffffffffffffff\n      and\n        /* \"contracts/OwnableZombie.sol\":1076:1086  msg.sender */\n      caller\n        /* \"contracts/OwnableZombie.sol\":1076:1096  msg.sender == _owner */\n      0xffffffffffffffffffffffffffffffffffffffff\n      and\n      eq\n        /* \"contracts/OwnableZombie.sol\":1069:1096  return msg.sender == _owner */\n      swap1\n      pop\n        /* \"contracts/OwnableZombie.sol\":1017:1102  function isOwner() public view returns(bool) {... */\n      swap1\n      jump\t// out\n        /* \"contracts/Zombiefactory.sol\":1613:1821  function generateRandomZombie(string memory _name) public {... */\n    tag_44:\n        /* \"contracts/Zombiefactory.sol\":1721:1722  0 */\n      0x00\n        /* \"contracts/Zombiefactory.sol\":1689:1705  ownerZombieCount */\n      0x06\n        /* \"contracts/Zombiefactory.sol\":1689:1717  ownerZombieCount[msg.sender] */\n      0x00\n        /* \"contracts/Zombiefactory.sol\":1706:1716  msg.sender */\n      caller\n        /* \"contracts/Zombiefactory.sol\":1689:1717  ownerZombieCount[msg.sender] */\n      0xffffffffffffffffffffffffffffffffffffffff\n      and\n      0xffffffffffffffffffffffffffffffffffffffff\n      and\n      dup2\n      mstore\n      0x20\n      add\n      swap1\n      dup2\n      mstore\n      0x20\n      add\n      0x00\n      keccak256\n      sload\n        /* \"contracts/Zombiefactory.sol\":1689:1722  ownerZombieCount[msg.sender] == 0 */\n      eq\n        /* \"contracts/Zombiefactory.sol\":1681:1723  require(ownerZombieCount[msg.sender] == 0) */\n      tag_98\n      jumpi\n      0x00\n      dup1\n      revert\n    tag_98:\n        /* \"contracts/Zombiefactory.sol\":1735:1747  uint randDna */\n      0x00\n        /* \"contracts/Zombiefactory.sol\":1750:1775  _generateRandomDna(_name) */\n      tag_99\n        /* \"contracts/Zombiefactory.sol\":1769:1774  _name */\n      dup3\n        /* \"contracts/Zombiefactory.sol\":1750:1768  _generateRandomDna */\n      tag_100\n        /* \"contracts/Zombiefactory.sol\":1750:1775  _generateRandomDna(_name) */\n      jump\t// in\n    tag_99:\n        /* \"contracts/Zombiefactory.sol\":1735:1775  uint randDna = _generateRandomDna(_name) */\n      swap1\n      pop\n        /* \"contracts/Zombiefactory.sol\":1785:1814  _createZombie(_name, randDna) */\n      tag_101\n        /* \"contracts/Zombiefactory.sol\":1799:1804  _name */\n      dup3\n        /* \"contracts/Zombiefactory.sol\":1806:1813  randDna */\n      dup3\n        /* \"contracts/Zombiefactory.sol\":1785:1798  _createZombie */\n      tag_90\n        /* \"contracts/Zombiefactory.sol\":1785:1814  _createZombie(_name, randDna) */\n      jump\t// in\n    tag_101:\n        /* \"contracts/Zombiefactory.sol\":1671:1821  {... */\n      pop\n        /* \"contracts/Zombiefactory.sol\":1613:1821  function generateRandomZombie(string memory _name) public {... */\n      pop\n      jump\t// out\n        /* \"contracts/OwnableZombie.sol\":1663:1766  function transferOwnership(address newOwner) public onlyOwner {... */\n    tag_47:\n        /* \"contracts/OwnableZombie.sol\":910:919  isOwner() */\n      tag_103\n        /* \"contracts/OwnableZombie.sol\":910:917  isOwner */\n      tag_38\n        /* \"contracts/OwnableZombie.sol\":910:919  isOwner() */\n      jump\t// in\n    tag_103:\n        /* \"contracts/OwnableZombie.sol\":902:920  require(isOwner()) */\n      tag_104\n      jumpi\n      0x00\n      dup1\n      revert\n    tag_104:\n        /* \"contracts/OwnableZombie.sol\":1732:1760  _transferOwnership(newOwner) */\n      tag_106\n        /* \"contracts/OwnableZombie.sol\":1751:1759  newOwner */\n      dup2\n        /* \"contracts/OwnableZombie.sol\":1732:1750  _transferOwnership */\n      tag_107\n        /* \"contracts/OwnableZombie.sol\":1732:1760  _transferOwnership(newOwner) */\n      jump\t// in\n    tag_106:\n        /* \"contracts/OwnableZombie.sol\":1663:1766  function transferOwnership(address newOwner) public onlyOwner {... */\n      pop\n      jump\t// out\n        /* \"contracts/Zombiefactory.sol\":973:1316  function _createZombie(string memory _name, uint _dna) internal {... */\n    tag_90:\n        /* \"contracts/Zombiefactory.sol\":1047:1054  zombies */\n      0x04\n        /* \"contracts/Zombiefactory.sol\":1060:1122  Zombie(_dna, _name, 1, uint32(block.timestamp + cooldownTime)) */\n      mload(0x40)\n      dup1\n      0x80\n      add\n      0x40\n      mstore\n      dup1\n        /* \"contracts/Zombiefactory.sol\":1067:1071  _dna */\n      dup4\n        /* \"contracts/Zombiefactory.sol\":1060:1122  Zombie(_dna, _name, 1, uint32(block.timestamp + cooldownTime)) */\n      dup2\n      mstore\n      0x20\n      add\n        /* \"contracts/Zombiefactory.sol\":1073:1078  _name */\n      dup5\n        /* \"contracts/Zombiefactory.sol\":1060:1122  Zombie(_dna, _name, 1, uint32(block.timestamp + cooldownTime)) */\n      dup2\n      mstore\n      0x20\n      add\n        /* \"contracts/Zombiefactory.sol\":1080:1081  1 */\n      0x01\n        /* \"contracts/Zombiefactory.sol\":1060:1122  Zombie(_dna, _name, 1, uint32(block.timestamp + cooldownTime)) */\n      0xffffffff\n      and\n      dup2\n      mstore\n      0x20\n      add\n        /* \"contracts/Zombiefactory.sol\":1108:1120  cooldownTime */\n      sload(0x03)\n        /* \"contracts/Zombiefactory.sol\":1090:1105  block.timestamp */\n      timestamp\n        /* \"contracts/Zombiefactory.sol\":1090:1120  block.timestamp + cooldownTime */\n      tag_109\n      swap2\n      swap1\n      tag_77\n      jump\t// in\n    tag_109:\n        /* \"contracts/Zombiefactory.sol\":1060:1122  Zombie(_dna, _name, 1, uint32(block.timestamp + cooldownTime)) */\n      0xffffffff\n      and\n      dup2\n      mstore\n      pop\n        /* \"contracts/Zombiefactory.sol\":1047:1123  zombies.push(Zombie(_dna, _name, 1, uint32(block.timestamp + cooldownTime))) */\n      swap1\n      dup1\n      0x01\n      dup2\n      sload\n      add\n      dup1\n      dup3\n      sstore\n      dup1\n      swap2\n      pop\n      pop\n      0x01\n      swap1\n      sub\n      swap1\n      0x00\n      mstore\n      keccak256(0x00, 0x20)\n      swap1\n      0x03\n      mul\n      add\n      0x00\n      swap1\n      swap2\n      swap1\n      swap2\n      swap1\n      swap2\n      pop\n      0x00\n      dup3\n      add\n      mload\n      dup2\n      0x00\n      add\n      sstore\n      0x20\n      dup3\n      add\n      mload\n      dup2\n      0x01\n      add\n      swap1\n      dup1\n      mload\n      swap1\n      0x20\n      add\n      swap1\n      tag_111\n      swap3\n      swap2\n      swap1\n      tag_112\n      jump\t// in\n    tag_111:\n      pop\n      0x40\n      dup3\n      add\n      mload\n      dup2\n      0x02\n      add\n      exp(0x0100, 0x00)\n      dup2\n      sload\n      dup2\n      0xffffffff\n      mul\n      not\n      and\n      swap1\n      dup4\n      0xffffffff\n      and\n      mul\n      or\n      swap1\n      sstore\n      pop\n      0x60\n      dup3\n      add\n      mload\n      dup2\n      0x02\n      add\n      exp(0x0100, 0x04)\n      dup2\n      sload\n      dup2\n      0xffffffff\n      mul\n      not\n      and\n      swap1\n      dup4\n      0xffffffff\n      and\n      mul\n      or\n      swap1\n      sstore\n      pop\n      pop\n      pop\n        /* \"contracts/Zombiefactory.sol\":1202:1212  msg.sender */\n      caller\n        /* \"contracts/Zombiefactory.sol\":1166:1179  zombieToOwner */\n      0x05\n        /* \"contracts/Zombiefactory.sol\":1166:1199  zombieToOwner[zombies.length - 1] */\n      0x00\n        /* \"contracts/Zombiefactory.sol\":1197:1198  1 */\n      0x01\n        /* \"contracts/Zombiefactory.sol\":1180:1187  zombies */\n      0x04\n        /* \"contracts/Zombiefactory.sol\":1180:1194  zombies.length */\n      dup1\n      sload\n      swap1\n      pop\n        /* \"contracts/Zombiefactory.sol\":1180:1198  zombies.length - 1 */\n      tag_113\n      swap2\n      swap1\n      tag_87\n      jump\t// in\n    tag_113:\n        /* \"contracts/Zombiefactory.sol\":1166:1199  zombieToOwner[zombies.length - 1] */\n      dup2\n      mstore\n      0x20\n      add\n      swap1\n      dup2\n      mstore\n      0x20\n      add\n      0x00\n      keccak256\n      0x00\n        /* \"contracts/Zombiefactory.sol\":1166:1212  zombieToOwner[zombies.length - 1] = msg.sender */\n      0x0100\n      exp\n      dup2\n      sload\n      dup2\n      0xffffffffffffffffffffffffffffffffffffffff\n      mul\n      not\n      and\n      swap1\n      dup4\n      0xffffffffffffffffffffffffffffffffffffffff\n      and\n      mul\n      or\n      swap1\n      sstore\n      pop\n        /* \"contracts/Zombiefactory.sol\":1222:1238  ownerZombieCount */\n      0x06\n        /* \"contracts/Zombiefactory.sol\":1222:1250  ownerZombieCount[msg.sender] */\n      0x00\n        /* \"contracts/Zombiefactory.sol\":1239:1249  msg.sender */\n      caller\n        /* \"contracts/Zombiefactory.sol\":1222:1250  ownerZombieCount[msg.sender] */\n      0xffffffffffffffffffffffffffffffffffffffff\n      and\n      0xffffffffffffffffffffffffffffffffffffffff\n      and\n      dup2\n      mstore\n      0x20\n      add\n      swap1\n      dup2\n      mstore\n      0x20\n      add\n      0x00\n      keccak256\n      0x00\n        /* \"contracts/Zombiefactory.sol\":1222:1252  ownerZombieCount[msg.sender]++ */\n      dup2\n      sload\n      dup1\n      swap3\n      swap2\n      swap1\n      tag_114\n      swap1\n      tag_115\n      jump\t// in\n    tag_114:\n      swap2\n      swap1\n      pop\n      sstore\n      pop\n        /* \"contracts/Zombiefactory.sol\":1267:1309  NewZombie(zombies.length - 1, _name, _dna) */\n      0x88f026aacbbecc90c18411df4b1185fd8d9be2470f1962f192bf84a27d0704b7\n        /* \"contracts/Zombiefactory.sol\":1294:1295  1 */\n      0x01\n        /* \"contracts/Zombiefactory.sol\":1277:1284  zombies */\n      0x04\n        /* \"contracts/Zombiefactory.sol\":1277:1291  zombies.length */\n      dup1\n      sload\n      swap1\n      pop\n        /* \"contracts/Zombiefactory.sol\":1277:1295  zombies.length - 1 */\n      tag_116\n      swap2\n      swap1\n      tag_87\n      jump\t// in\n    tag_116:\n        /* \"contracts/Zombiefactory.sol\":1297:1302  _name */\n      dup4\n        /* \"contracts/Zombiefactory.sol\":1304:1308  _dna */\n      dup4\n        /* \"contracts/Zombiefactory.sol\":1267:1309  NewZombie(zombies.length - 1, _name, _dna) */\n      mload(0x40)\n      tag_117\n      swap4\n      swap3\n      swap2\n      swap1\n      tag_118\n      jump\t// in\n    tag_117:\n      mload(0x40)\n      dup1\n      swap2\n      sub\n      swap1\n      log1\n        /* \"contracts/Zombiefactory.sol\":973:1316  function _createZombie(string memory _name, uint _dna) internal {... */\n      pop\n      pop\n      jump\t// out\n        /* \"contracts/Zombiefactory.sol\":1427:1607  function _generateRandomDna(string memory _str) private view returns (uint) {... */\n    tag_100:\n        /* \"contracts/Zombiefactory.sol\":1497:1501  uint */\n      0x00\n        /* \"contracts/Zombiefactory.sol\":1513:1522  uint rand */\n      dup1\n        /* \"contracts/Zombiefactory.sol\":1559:1563  _str */\n      dup3\n        /* \"contracts/Zombiefactory.sol\":1542:1564  abi.encodePacked(_str) */\n      add(0x20, mload(0x40))\n      tag_120\n      swap2\n      swap1\n      tag_83\n      jump\t// in\n    tag_120:\n      mload(0x40)\n      0x20\n      dup2\n      dup4\n      sub\n      sub\n      dup2\n      mstore\n      swap1\n      0x40\n      mstore\n        /* \"contracts/Zombiefactory.sol\":1532:1565  keccak256(abi.encodePacked(_str)) */\n      dup1\n      mload\n      swap1\n      0x20\n      add\n      keccak256\n        /* \"contracts/Zombiefactory.sol\":1527:1566  uint(keccak256(abi.encodePacked(_str))) */\n      0x00\n      shr\n        /* \"contracts/Zombiefactory.sol\":1513:1566  uint rand  =  uint(keccak256(abi.encodePacked(_str))) */\n      swap1\n      pop\n        /* \"contracts/Zombiefactory.sol\":1590:1600  dnaModulus */\n      sload(0x02)\n        /* \"contracts/Zombiefactory.sol\":1583:1587  rand */\n      dup2\n        /* \"contracts/Zombiefactory.sol\":1583:1600  rand % dnaModulus */\n      tag_121\n      swap2\n      swap1\n      tag_75\n      jump\t// in\n    tag_121:\n        /* \"contracts/Zombiefactory.sol\":1576:1600  return rand % dnaModulus */\n      swap2\n      pop\n      pop\n        /* \"contracts/Zombiefactory.sol\":1427:1607  function _generateRandomDna(string memory _str) private view returns (uint) {... */\n      swap2\n      swap1\n      pop\n      jump\t// out\n        /* \"contracts/OwnableZombie.sol\":1903:2076  function _transferOwnership(address newOwner) internal {... */\n    tag_107:\n        /* \"contracts/OwnableZombie.sol\":1993:1994  0 */\n      0x00\n        /* \"contracts/OwnableZombie.sol\":1973:1995  newOwner != address(0) */\n      0xffffffffffffffffffffffffffffffffffffffff\n      and\n        /* \"contracts/OwnableZombie.sol\":1973:1981  newOwner */\n      dup2\n        /* \"contracts/OwnableZombie.sol\":1973:1995  newOwner != address(0) */\n      0xffffffffffffffffffffffffffffffffffffffff\n      and\n      sub\n        /* \"contracts/OwnableZombie.sol\":1965:1996  require(newOwner != address(0)) */\n      tag_123\n      jumpi\n      0x00\n      dup1\n      revert\n    tag_123:\n        /* \"contracts/OwnableZombie.sol\":2037:2045  newOwner */\n      dup1\n        /* \"contracts/OwnableZombie.sol\":2008:2046  OwnershipTransferred(_owner, newOwner) */\n      0xffffffffffffffffffffffffffffffffffffffff\n      and\n        /* \"contracts/OwnableZombie.sol\":2029:2035  _owner */\n      0x00\n      dup1\n      sload\n      swap1\n      0x0100\n      exp\n      swap1\n      div\n      0xffffffffffffffffffffffffffffffffffffffff\n      and\n        /* \"contracts/OwnableZombie.sol\":2008:2046  OwnershipTransferred(_owner, newOwner) */\n      0xffffffffffffffffffffffffffffffffffffffff\n      and\n      0x8be0079c531659141344cd1fd0a4f28419497f9722a3daafe3b4186f6b6457e0\n      mload(0x40)\n      mload(0x40)\n      dup1\n      swap2\n      sub\n      swap1\n      log3\n        /* \"contracts/OwnableZombie.sol\":2062:2070  newOwner */\n      dup1\n        /* \"contracts/OwnableZombie.sol\":2053:2059  _owner */\n      0x00\n      dup1\n        /* \"contracts/OwnableZombie.sol\":2053:2070  _owner = newOwner */\n      0x0100\n      exp\n      dup2\n      sload\n      dup2\n      0xffffffffffffffffffffffffffffffffffffffff\n      mul\n      not\n      and\n      swap1\n      dup4\n      0xffffffffffffffffffffffffffffffffffffffff\n      and\n      mul\n      or\n      swap1\n      sstore\n      pop\n        /* \"contracts/OwnableZombie.sol\":1903:2076  function _transferOwnership(address newOwner) internal {... */\n      pop\n      jump\t// out\n    tag_112:\n      dup3\n      dup1\n      sload\n      tag_124\n      swap1\n      tag_59\n      jump\t// in\n    tag_124:\n      swap1\n      0x00\n      mstore\n      keccak256(0x00, 0x20)\n      swap1\n      0x1f\n      add\n      0x20\n      swap1\n      div\n      dup2\n      add\n      swap3\n      dup3\n      tag_126\n      jumpi\n      0x00\n      dup6\n      sstore\n      jump(tag_125)\n    tag_126:\n      dup3\n      0x1f\n      lt\n      tag_127\n      jumpi\n      dup1\n      mload\n      not(0xff)\n      and\n      dup4\n      dup1\n      add\n      or\n      dup6\n      sstore\n      jump(tag_125)\n    tag_127:\n      dup3\n      dup1\n      add\n      0x01\n      add\n      dup6\n      sstore\n      dup3\n      iszero\n      tag_125\n      jumpi\n      swap2\n      dup3\n      add\n    tag_128:\n      dup3\n      dup2\n      gt\n      iszero\n      tag_129\n      jumpi\n      dup3\n      mload\n      dup3\n      sstore\n      swap2\n      0x20\n      add\n      swap2\n      swap1\n      0x01\n      add\n      swap1\n      jump(tag_128)\n    tag_129:\n    tag_125:\n      pop\n      swap1\n      pop\n      tag_130\n      swap2\n      swap1\n      tag_131\n      jump\t// in\n    tag_130:\n      pop\n      swap1\n      jump\t// out\n    tag_131:\n    tag_132:\n      dup1\n      dup3\n      gt\n      iszero\n      tag_133\n      jumpi\n      0x00\n      dup2\n      0x00\n      swap1\n      sstore\n      pop\n      0x01\n      add\n      jump(tag_132)\n    tag_133:\n      pop\n      swap1\n      jump\t// out\n        /* \"#utility.yul\":7:82   */\n    tag_134:\n        /* \"#utility.yul\":40:46   */\n      0x00\n        /* \"#utility.yul\":73:75   */\n      0x40\n        /* \"#utility.yul\":67:76   */\n      mload\n        /* \"#utility.yul\":57:76   */\n      swap1\n      pop\n        /* \"#utility.yul\":7:82   */\n      swap1\n      jump\t// out\n        /* \"#utility.yul\":88:205   */\n    tag_135:\n        /* \"#utility.yul\":197:198   */\n      0x00\n        /* \"#utility.yul\":194:195   */\n      dup1\n        /* \"#utility.yul\":187:199   */\n      revert\n        /* \"#utility.yul\":211:328   */\n    tag_136:\n        /* \"#utility.yul\":320:321   */\n      0x00\n        /* \"#utility.yul\":317:318   */\n      dup1\n        /* \"#utility.yul\":310:322   */\n      revert\n        /* \"#utility.yul\":334:411   */\n    tag_137:\n        /* \"#utility.yul\":371:378   */\n      0x00\n        /* \"#utility.yul\":400:405   */\n      dup2\n        /* \"#utility.yul\":389:405   */\n      swap1\n      pop\n        /* \"#utility.yul\":334:411   */\n      swap2\n      swap1\n      pop\n      jump\t// out\n        /* \"#utility.yul\":417:539   */\n    tag_138:\n        /* \"#utility.yul\":490:514   */\n      tag_180\n        /* \"#utility.yul\":508:513   */\n      dup2\n        /* \"#utility.yul\":490:514   */\n      tag_137\n      jump\t// in\n    tag_180:\n        /* \"#utility.yul\":483:488   */\n      dup2\n        /* \"#utility.yul\":480:515   */\n      eq\n        /* \"#utility.yul\":470:533   */\n      tag_181\n      jumpi\n        /* \"#utility.yul\":529:530   */\n      0x00\n        /* \"#utility.yul\":526:527   */\n      dup1\n        /* \"#utility.yul\":519:531   */\n      revert\n        /* \"#utility.yul\":470:533   */\n    tag_181:\n        /* \"#utility.yul\":417:539   */\n      pop\n      jump\t// out\n        /* \"#utility.yul\":545:684   */\n    tag_139:\n        /* \"#utility.yul\":591:596   */\n      0x00\n        /* \"#utility.yul\":629:635   */\n      dup2\n        /* \"#utility.yul\":616:636   */\n      calldataload\n        /* \"#utility.yul\":607:636   */\n      swap1\n      pop\n        /* \"#utility.yul\":645:678   */\n      tag_183\n        /* \"#utility.yul\":672:677   */\n      dup2\n        /* \"#utility.yul\":645:678   */\n      tag_138\n      jump\t// in\n    tag_183:\n        /* \"#utility.yul\":545:684   */\n      swap3\n      swap2\n      pop\n      pop\n      jump\t// out\n        /* \"#utility.yul\":690:1164   */\n    tag_15:\n        /* \"#utility.yul\":758:764   */\n      0x00\n        /* \"#utility.yul\":766:772   */\n      dup1\n        /* \"#utility.yul\":815:817   */\n      0x40\n        /* \"#utility.yul\":803:812   */\n      dup4\n        /* \"#utility.yul\":794:801   */\n      dup6\n        /* \"#utility.yul\":790:813   */\n      sub\n        /* \"#utility.yul\":786:818   */\n      slt\n        /* \"#utility.yul\":783:902   */\n      iszero\n      tag_185\n      jumpi\n        /* \"#utility.yul\":821:900   */\n      tag_186\n      tag_135\n      jump\t// in\n    tag_186:\n        /* \"#utility.yul\":783:902   */\n    tag_185:\n        /* \"#utility.yul\":941:942   */\n      0x00\n        /* \"#utility.yul\":966:1019   */\n      tag_187\n        /* \"#utility.yul\":1011:1018   */\n      dup6\n        /* \"#utility.yul\":1002:1008   */\n      dup3\n        /* \"#utility.yul\":991:1000   */\n      dup7\n        /* \"#utility.yul\":987:1009   */\n      add\n        /* \"#utility.yul\":966:1019   */\n      tag_139\n      jump\t// in\n    tag_187:\n        /* \"#utility.yul\":956:1019   */\n      swap3\n      pop\n        /* \"#utility.yul\":912:1029   */\n      pop\n        /* \"#utility.yul\":1068:1070   */\n      0x20\n        /* \"#utility.yul\":1094:1147   */\n      tag_188\n        /* \"#utility.yul\":1139:1146   */\n      dup6\n        /* \"#utility.yul\":1130:1136   */\n      dup3\n        /* \"#utility.yul\":1119:1128   */\n      dup7\n        /* \"#utility.yul\":1115:1137   */\n      add\n        /* \"#utility.yul\":1094:1147   */\n      tag_139\n      jump\t// in\n    tag_188:\n        /* \"#utility.yul\":1084:1147   */\n      swap2\n      pop\n        /* \"#utility.yul\":1039:1157   */\n      pop\n        /* \"#utility.yul\":690:1164   */\n      swap3\n      pop\n      swap3\n      swap1\n      pop\n      jump\t// out\n        /* \"#utility.yul\":1170:1499   */\n    tag_19:\n        /* \"#utility.yul\":1229:1235   */\n      0x00\n        /* \"#utility.yul\":1278:1280   */\n      0x20\n        /* \"#utility.yul\":1266:1275   */\n      dup3\n        /* \"#utility.yul\":1257:1264   */\n      dup5\n        /* \"#utility.yul\":1253:1276   */\n      sub\n        /* \"#utility.yul\":1249:1281   */\n      slt\n        /* \"#utility.yul\":1246:1365   */\n      iszero\n      tag_190\n      jumpi\n        /* \"#utility.yul\":1284:1363   */\n      tag_191\n      tag_135\n      jump\t// in\n    tag_191:\n        /* \"#utility.yul\":1246:1365   */\n    tag_190:\n        /* \"#utility.yul\":1404:1405   */\n      0x00\n        /* \"#utility.yul\":1429:1482   */\n      tag_192\n        /* \"#utility.yul\":1474:1481   */\n      dup5\n        /* \"#utility.yul\":1465:1471   */\n      dup3\n        /* \"#utility.yul\":1454:1463   */\n      dup6\n        /* \"#utility.yul\":1450:1472   */\n      add\n        /* \"#utility.yul\":1429:1482   */\n      tag_139\n      jump\t// in\n    tag_192:\n        /* \"#utility.yul\":1419:1482   */\n      swap2\n      pop\n        /* \"#utility.yul\":1375:1492   */\n      pop\n        /* \"#utility.yul\":1170:1499   */\n      swap3\n      swap2\n      pop\n      pop\n      jump\t// out\n        /* \"#utility.yul\":1505:1623   */\n    tag_140:\n        /* \"#utility.yul\":1592:1616   */\n      tag_194\n        /* \"#utility.yul\":1610:1615   */\n      dup2\n        /* \"#utility.yul\":1592:1616   */\n      tag_137\n      jump\t// in\n    tag_194:\n        /* \"#utility.yul\":1587:1590   */\n      dup3\n        /* \"#utility.yul\":1580:1617   */\n      mstore\n        /* \"#utility.yul\":1505:1623   */\n      pop\n      pop\n      jump\t// out\n        /* \"#utility.yul\":1629:1728   */\n    tag_141:\n        /* \"#utility.yul\":1681:1687   */\n      0x00\n        /* \"#utility.yul\":1715:1720   */\n      dup2\n        /* \"#utility.yul\":1709:1721   */\n      mload\n        /* \"#utility.yul\":1699:1721   */\n      swap1\n      pop\n        /* \"#utility.yul\":1629:1728   */\n      swap2\n      swap1\n      pop\n      jump\t// out\n        /* \"#utility.yul\":1734:1903   */\n    tag_142:\n        /* \"#utility.yul\":1818:1829   */\n      0x00\n        /* \"#utility.yul\":1852:1858   */\n      dup3\n        /* \"#utility.yul\":1847:1850   */\n      dup3\n        /* \"#utility.yul\":1840:1859   */\n      mstore\n        /* \"#utility.yul\":1892:1896   */\n      0x20\n        /* \"#utility.yul\":1887:1890   */\n      dup3\n        /* \"#utility.yul\":1883:1897   */\n      add\n        /* \"#utility.yul\":1868:1897   */\n      swap1\n      pop\n        /* \"#utility.yul\":1734:1903   */\n      swap3\n      swap2\n      pop\n      pop\n      jump\t// out\n        /* \"#utility.yul\":1909:2216   */\n    tag_143:\n        /* \"#utility.yul\":1977:1978   */\n      0x00\n        /* \"#utility.yul\":1987:2100   */\n    tag_198:\n        /* \"#utility.yul\":2001:2007   */\n      dup4\n        /* \"#utility.yul\":1998:1999   */\n      dup2\n        /* \"#utility.yul\":1995:2008   */\n      lt\n        /* \"#utility.yul\":1987:2100   */\n      iszero\n      tag_200\n      jumpi\n        /* \"#utility.yul\":2086:2087   */\n      dup1\n        /* \"#utility.yul\":2081:2084   */\n      dup3\n        /* \"#utility.yul\":2077:2088   */\n      add\n        /* \"#utility.yul\":2071:2089   */\n      mload\n        /* \"#utility.yul\":2067:2068   */\n      dup2\n        /* \"#utility.yul\":2062:2065   */\n      dup5\n        /* \"#utility.yul\":2058:2069   */\n      add\n        /* \"#utility.yul\":2051:2090   */\n      mstore\n        /* \"#utility.yul\":2023:2025   */\n      0x20\n        /* \"#utility.yul\":2020:2021   */\n      dup2\n        /* \"#utility.yul\":2016:2026   */\n      add\n        /* \"#utility.yul\":2011:2026   */\n      swap1\n      pop\n        /* \"#utility.yul\":1987:2100   */\n      jump(tag_198)\n    tag_200:\n        /* \"#utility.yul\":2118:2124   */\n      dup4\n        /* \"#utility.yul\":2115:2116   */\n      dup2\n        /* \"#utility.yul\":2112:2125   */\n      gt\n        /* \"#utility.yul\":2109:2210   */\n      iszero\n      tag_201\n      jumpi\n        /* \"#utility.yul\":2198:2199   */\n      0x00\n        /* \"#utility.yul\":2189:2195   */\n      dup5\n        /* \"#utility.yul\":2184:2187   */\n      dup5\n        /* \"#utility.yul\":2180:2196   */\n      add\n        /* \"#utility.yul\":2173:2200   */\n      mstore\n        /* \"#utility.yul\":2109:2210   */\n    tag_201:\n        /* \"#utility.yul\":1958:2216   */\n      pop\n        /* \"#utility.yul\":1909:2216   */\n      pop\n      pop\n      pop\n      jump\t// out\n        /* \"#utility.yul\":2222:2324   */\n    tag_144:\n        /* \"#utility.yul\":2263:2269   */\n      0x00\n        /* \"#utility.yul\":2314:2316   */\n      0x1f\n        /* \"#utility.yul\":2310:2317   */\n      not\n        /* \"#utility.yul\":2305:2307   */\n      0x1f\n        /* \"#utility.yul\":2298:2303   */\n      dup4\n        /* \"#utility.yul\":2294:2308   */\n      add\n        /* \"#utility.yul\":2290:2318   */\n      and\n        /* \"#utility.yul\":2280:2318   */\n      swap1\n      pop\n        /* \"#utility.yul\":2222:2324   */\n      swap2\n      swap1\n      pop\n      jump\t// out\n        /* \"#utility.yul\":2330:2694   */\n    tag_145:\n        /* \"#utility.yul\":2418:2421   */\n      0x00\n        /* \"#utility.yul\":2446:2485   */\n      tag_204\n        /* \"#utility.yul\":2479:2484   */\n      dup3\n        /* \"#utility.yul\":2446:2485   */\n      tag_141\n      jump\t// in\n    tag_204:\n        /* \"#utility.yul\":2501:2572   */\n      tag_205\n        /* \"#utility.yul\":2565:2571   */\n      dup2\n        /* \"#utility.yul\":2560:2563   */\n      dup6\n        /* \"#utility.yul\":2501:2572   */\n      tag_142\n      jump\t// in\n    tag_205:\n        /* \"#utility.yul\":2494:2572   */\n      swap4\n      pop\n        /* \"#utility.yul\":2581:2633   */\n      tag_206\n        /* \"#utility.yul\":2626:2632   */\n      dup2\n        /* \"#utility.yul\":2621:2624   */\n      dup6\n        /* \"#utility.yul\":2614:2618   */\n      0x20\n        /* \"#utility.yul\":2607:2612   */\n      dup7\n        /* \"#utility.yul\":2603:2619   */\n      add\n        /* \"#utility.yul\":2581:2633   */\n      tag_143\n      jump\t// in\n    tag_206:\n        /* \"#utility.yul\":2658:2687   */\n      tag_207\n        /* \"#utility.yul\":2680:2686   */\n      dup2\n        /* \"#utility.yul\":2658:2687   */\n      tag_144\n      jump\t// in\n    tag_207:\n        /* \"#utility.yul\":2653:2656   */\n      dup5\n        /* \"#utility.yul\":2649:2688   */\n      add\n        /* \"#utility.yul\":2642:2688   */\n      swap2\n      pop\n        /* \"#utility.yul\":2422:2694   */\n      pop\n        /* \"#utility.yul\":2330:2694   */\n      swap3\n      swap2\n      pop\n      pop\n      jump\t// out\n        /* \"#utility.yul\":2700:2793   */\n    tag_146:\n        /* \"#utility.yul\":2736:2743   */\n      0x00\n        /* \"#utility.yul\":2776:2786   */\n      0xffffffff\n        /* \"#utility.yul\":2769:2774   */\n      dup3\n        /* \"#utility.yul\":2765:2787   */\n      and\n        /* \"#utility.yul\":2754:2787   */\n      swap1\n      pop\n        /* \"#utility.yul\":2700:2793   */\n      swap2\n      swap1\n      pop\n      jump\t// out\n        /* \"#utility.yul\":2799:2914   */\n    tag_147:\n        /* \"#utility.yul\":2884:2907   */\n      tag_210\n        /* \"#utility.yul\":2901:2906   */\n      dup2\n        /* \"#utility.yul\":2884:2907   */\n      tag_146\n      jump\t// in\n    tag_210:\n        /* \"#utility.yul\":2879:2882   */\n      dup3\n        /* \"#utility.yul\":2872:2908   */\n      mstore\n        /* \"#utility.yul\":2799:2914   */\n      pop\n      pop\n      jump\t// out\n        /* \"#utility.yul\":2920:3556   */\n    tag_22:\n        /* \"#utility.yul\":3113:3117   */\n      0x00\n        /* \"#utility.yul\":3151:3154   */\n      0x80\n        /* \"#utility.yul\":3140:3149   */\n      dup3\n        /* \"#utility.yul\":3136:3155   */\n      add\n        /* \"#utility.yul\":3128:3155   */\n      swap1\n      pop\n        /* \"#utility.yul\":3165:3236   */\n      tag_212\n        /* \"#utility.yul\":3233:3234   */\n      0x00\n        /* \"#utility.yul\":3222:3231   */\n      dup4\n        /* \"#utility.yul\":3218:3235   */\n      add\n        /* \"#utility.yul\":3209:3215   */\n      dup8\n        /* \"#utility.yul\":3165:3236   */\n      tag_140\n      jump\t// in\n    tag_212:\n        /* \"#utility.yul\":3283:3292   */\n      dup2\n        /* \"#utility.yul\":3277:3281   */\n      dup2\n        /* \"#utility.yul\":3273:3293   */\n      sub\n        /* \"#utility.yul\":3268:3270   */\n      0x20\n        /* \"#utility.yul\":3257:3266   */\n      dup4\n        /* \"#utility.yul\":3253:3271   */\n      add\n        /* \"#utility.yul\":3246:3294   */\n      mstore\n        /* \"#utility.yul\":3311:3389   */\n      tag_213\n        /* \"#utility.yul\":3384:3388   */\n      dup2\n        /* \"#utility.yul\":3375:3381   */\n      dup7\n        /* \"#utility.yul\":3311:3389   */\n      tag_145\n      jump\t// in\n    tag_213:\n        /* \"#utility.yul\":3303:3389   */\n      swap1\n      pop\n        /* \"#utility.yul\":3399:3469   */\n      tag_214\n        /* \"#utility.yul\":3465:3467   */\n      0x40\n        /* \"#utility.yul\":3454:3463   */\n      dup4\n        /* \"#utility.yul\":3450:3468   */\n      add\n        /* \"#utility.yul\":3441:3447   */\n      dup6\n        /* \"#utility.yul\":3399:3469   */\n      tag_147\n      jump\t// in\n    tag_214:\n        /* \"#utility.yul\":3479:3549   */\n      tag_215\n        /* \"#utility.yul\":3545:3547   */\n      0x60\n        /* \"#utility.yul\":3534:3543   */\n      dup4\n        /* \"#utility.yul\":3530:3548   */\n      add\n        /* \"#utility.yul\":3521:3527   */\n      dup5\n        /* \"#utility.yul\":3479:3549   */\n      tag_147\n      jump\t// in\n    tag_215:\n        /* \"#utility.yul\":2920:3556   */\n      swap6\n      swap5\n      pop\n      pop\n      pop\n      pop\n      pop\n      jump\t// out\n        /* \"#utility.yul\":3562:3688   */\n    tag_148:\n        /* \"#utility.yul\":3599:3606   */\n      0x00\n        /* \"#utility.yul\":3639:3681   */\n      0xffffffffffffffffffffffffffffffffffffffff\n        /* \"#utility.yul\":3632:3637   */\n      dup3\n        /* \"#utility.yul\":3628:3682   */\n      and\n        /* \"#utility.yul\":3617:3682   */\n      swap1\n      pop\n        /* \"#utility.yul\":3562:3688   */\n      swap2\n      swap1\n      pop\n      jump\t// out\n        /* \"#utility.yul\":3694:3790   */\n    tag_149:\n        /* \"#utility.yul\":3731:3738   */\n      0x00\n        /* \"#utility.yul\":3760:3784   */\n      tag_218\n        /* \"#utility.yul\":3778:3783   */\n      dup3\n        /* \"#utility.yul\":3760:3784   */\n      tag_148\n      jump\t// in\n    tag_218:\n        /* \"#utility.yul\":3749:3784   */\n      swap1\n      pop\n        /* \"#utility.yul\":3694:3790   */\n      swap2\n      swap1\n      pop\n      jump\t// out\n        /* \"#utility.yul\":3796:3918   */\n    tag_150:\n        /* \"#utility.yul\":3869:3893   */\n      tag_220\n        /* \"#utility.yul\":3887:3892   */\n      dup2\n        /* \"#utility.yul\":3869:3893   */\n      tag_149\n      jump\t// in\n    tag_220:\n        /* \"#utility.yul\":3862:3867   */\n      dup2\n        /* \"#utility.yul\":3859:3894   */\n      eq\n        /* \"#utility.yul\":3849:3912   */\n      tag_221\n      jumpi\n        /* \"#utility.yul\":3908:3909   */\n      0x00\n        /* \"#utility.yul\":3905:3906   */\n      dup1\n        /* \"#utility.yul\":3898:3910   */\n      revert\n        /* \"#utility.yul\":3849:3912   */\n    tag_221:\n        /* \"#utility.yul\":3796:3918   */\n      pop\n      jump\t// out\n        /* \"#utility.yul\":3924:4063   */\n    tag_151:\n        /* \"#utility.yul\":3970:3975   */\n      0x00\n        /* \"#utility.yul\":4008:4014   */\n      dup2\n        /* \"#utility.yul\":3995:4015   */\n      calldataload\n        /* \"#utility.yul\":3986:4015   */\n      swap1\n      pop\n        /* \"#utility.yul\":4024:4057   */\n      tag_223\n        /* \"#utility.yul\":4051:4056   */\n      dup2\n        /* \"#utility.yul\":4024:4057   */\n      tag_150\n      jump\t// in\n    tag_223:\n        /* \"#utility.yul\":3924:4063   */\n      swap3\n      swap2\n      pop\n      pop\n      jump\t// out\n        /* \"#utility.yul\":4069:4398   */\n    tag_25:\n        /* \"#utility.yul\":4128:4134   */\n      0x00\n        /* \"#utility.yul\":4177:4179   */\n      0x20\n        /* \"#utility.yul\":4165:4174   */\n      dup3\n        /* \"#utility.yul\":4156:4163   */\n      dup5\n        /* \"#utility.yul\":4152:4175   */\n      sub\n        /* \"#utility.yul\":4148:4180   */\n      slt\n        /* \"#utility.yul\":4145:4264   */\n      iszero\n      tag_225\n      jumpi\n        /* \"#utility.yul\":4183:4262   */\n      tag_226\n      tag_135\n      jump\t// in\n    tag_226:\n        /* \"#utility.yul\":4145:4264   */\n    tag_225:\n        /* \"#utility.yul\":4303:4304   */\n      0x00\n        /* \"#utility.yul\":4328:4381   */\n      tag_227\n        /* \"#utility.yul\":4373:4380   */\n      dup5\n        /* \"#utility.yul\":4364:4370   */\n      dup3\n        /* \"#utility.yul\":4353:4362   */\n      dup6\n        /* \"#utility.yul\":4349:4371   */\n      add\n        /* \"#utility.yul\":4328:4381   */\n      tag_151\n      jump\t// in\n    tag_227:\n        /* \"#utility.yul\":4318:4381   */\n      swap2\n      pop\n        /* \"#utility.yul\":4274:4391   */\n      pop\n        /* \"#utility.yul\":4069:4398   */\n      swap3\n      swap2\n      pop\n      pop\n      jump\t// out\n        /* \"#utility.yul\":4404:4521   */\n    tag_152:\n        /* \"#utility.yul\":4513:4514   */\n      0x00\n        /* \"#utility.yul\":4510:4511   */\n      dup1\n        /* \"#utility.yul\":4503:4515   */\n      revert\n        /* \"#utility.yul\":4527:4644   */\n    tag_153:\n        /* \"#utility.yul\":4636:4637   */\n      0x00\n        /* \"#utility.yul\":4633:4634   */\n      dup1\n        /* \"#utility.yul\":4626:4638   */\n      revert\n        /* \"#utility.yul\":4650:4830   */\n    tag_154:\n        /* \"#utility.yul\":4698:4775   */\n      0x4e487b7100000000000000000000000000000000000000000000000000000000\n        /* \"#utility.yul\":4695:4696   */\n      0x00\n        /* \"#utility.yul\":4688:4776   */\n      mstore\n        /* \"#utility.yul\":4795:4799   */\n      0x41\n        /* \"#utility.yul\":4792:4793   */\n      0x04\n        /* \"#utility.yul\":4785:4800   */\n      mstore\n        /* \"#utility.yul\":4819:4823   */\n      0x24\n        /* \"#utility.yul\":4816:4817   */\n      0x00\n        /* \"#utility.yul\":4809:4824   */\n      revert\n        /* \"#utility.yul\":4836:5117   */\n    tag_155:\n        /* \"#utility.yul\":4919:4946   */\n      tag_232\n        /* \"#utility.yul\":4941:4945   */\n      dup3\n        /* \"#utility.yul\":4919:4946   */\n      tag_144\n      jump\t// in\n    tag_232:\n        /* \"#utility.yul\":4911:4917   */\n      dup2\n        /* \"#utility.yul\":4907:4947   */\n      add\n        /* \"#utility.yul\":5049:5055   */\n      dup2\n        /* \"#utility.yul\":5037:5047   */\n      dup2\n        /* \"#utility.yul\":5034:5056   */\n      lt\n        /* \"#utility.yul\":5013:5031   */\n      0xffffffffffffffff\n        /* \"#utility.yul\":5001:5011   */\n      dup3\n        /* \"#utility.yul\":4998:5032   */\n      gt\n        /* \"#utility.yul\":4995:5057   */\n      or\n        /* \"#utility.yul\":4992:5080   */\n      iszero\n      tag_233\n      jumpi\n        /* \"#utility.yul\":5060:5078   */\n      tag_234\n      tag_154\n      jump\t// in\n    tag_234:\n        /* \"#utility.yul\":4992:5080   */\n    tag_233:\n        /* \"#utility.yul\":5100:5110   */\n      dup1\n        /* \"#utility.yul\":5096:5098   */\n      0x40\n        /* \"#utility.yul\":5089:5111   */\n      mstore\n        /* \"#utility.yul\":4879:5117   */\n      pop\n        /* \"#utility.yul\":4836:5117   */\n      pop\n      pop\n      jump\t// out\n        /* \"#utility.yul\":5123:5252   */\n    tag_156:\n        /* \"#utility.yul\":5157:5163   */\n      0x00\n        /* \"#utility.yul\":5184:5204   */\n      tag_236\n      tag_134\n      jump\t// in\n    tag_236:\n        /* \"#utility.yul\":5174:5204   */\n      swap1\n      pop\n        /* \"#utility.yul\":5213:5246   */\n      tag_237\n        /* \"#utility.yul\":5241:5245   */\n      dup3\n        /* \"#utility.yul\":5233:5239   */\n      dup3\n        /* \"#utility.yul\":5213:5246   */\n      tag_155\n      jump\t// in\n    tag_237:\n        /* \"#utility.yul\":5123:5252   */\n      swap2\n      swap1\n      pop\n      jump\t// out\n        /* \"#utility.yul\":5258:5566   */\n    tag_157:\n        /* \"#utility.yul\":5320:5324   */\n      0x00\n        /* \"#utility.yul\":5410:5428   */\n      0xffffffffffffffff\n        /* \"#utility.yul\":5402:5408   */\n      dup3\n        /* \"#utility.yul\":5399:5429   */\n      gt\n        /* \"#utility.yul\":5396:5452   */\n      iszero\n      tag_239\n      jumpi\n        /* \"#utility.yul\":5432:5450   */\n      tag_240\n      tag_154\n      jump\t// in\n    tag_240:\n        /* \"#utility.yul\":5396:5452   */\n    tag_239:\n        /* \"#utility.yul\":5470:5499   */\n      tag_241\n        /* \"#utility.yul\":5492:5498   */\n      dup3\n        /* \"#utility.yul\":5470:5499   */\n      tag_144\n      jump\t// in\n    tag_241:\n        /* \"#utility.yul\":5462:5499   */\n      swap1\n      pop\n        /* \"#utility.yul\":5554:5558   */\n      0x20\n        /* \"#utility.yul\":5548:5552   */\n      dup2\n        /* \"#utility.yul\":5544:5559   */\n      add\n        /* \"#utility.yul\":5536:5559   */\n      swap1\n      pop\n        /* \"#utility.yul\":5258:5566   */\n      swap2\n      swap1\n      pop\n      jump\t// out\n        /* \"#utility.yul\":5572:5726   */\n    tag_158:\n        /* \"#utility.yul\":5656:5662   */\n      dup3\n        /* \"#utility.yul\":5651:5654   */\n      dup2\n        /* \"#utility.yul\":5646:5649   */\n      dup4\n        /* \"#utility.yul\":5633:5663   */\n      calldatacopy\n        /* \"#utility.yul\":5718:5719   */\n      0x00\n        /* \"#utility.yul\":5709:5715   */\n      dup4\n        /* \"#utility.yul\":5704:5707   */\n      dup4\n        /* \"#utility.yul\":5700:5716   */\n      add\n        /* \"#utility.yul\":5693:5720   */\n      mstore\n        /* \"#utility.yul\":5572:5726   */\n      pop\n      pop\n      pop\n      jump\t// out\n        /* \"#utility.yul\":5732:6144   */\n    tag_159:\n        /* \"#utility.yul\":5810:5815   */\n      0x00\n        /* \"#utility.yul\":5835:5901   */\n      tag_244\n        /* \"#utility.yul\":5851:5900   */\n      tag_245\n        /* \"#utility.yul\":5893:5899   */\n      dup5\n        /* \"#utility.yul\":5851:5900   */\n      tag_157\n      jump\t// in\n    tag_245:\n        /* \"#utility.yul\":5835:5901   */\n      tag_156\n      jump\t// in\n    tag_244:\n        /* \"#utility.yul\":5826:5901   */\n      swap1\n      pop\n        /* \"#utility.yul\":5924:5930   */\n      dup3\n        /* \"#utility.yul\":5917:5922   */\n      dup2\n        /* \"#utility.yul\":5910:5931   */\n      mstore\n        /* \"#utility.yul\":5962:5966   */\n      0x20\n        /* \"#utility.yul\":5955:5960   */\n      dup2\n        /* \"#utility.yul\":5951:5967   */\n      add\n        /* \"#utility.yul\":6000:6003   */\n      dup5\n        /* \"#utility.yul\":5991:5997   */\n      dup5\n        /* \"#utility.yul\":5986:5989   */\n      dup5\n        /* \"#utility.yul\":5982:5998   */\n      add\n        /* \"#utility.yul\":5979:6004   */\n      gt\n        /* \"#utility.yul\":5976:6088   */\n      iszero\n      tag_246\n      jumpi\n        /* \"#utility.yul\":6007:6086   */\n      tag_247\n      tag_153\n      jump\t// in\n    tag_247:\n        /* \"#utility.yul\":5976:6088   */\n    tag_246:\n        /* \"#utility.yul\":6097:6138   */\n      tag_248\n        /* \"#utility.yul\":6131:6137   */\n      dup5\n        /* \"#utility.yul\":6126:6129   */\n      dup3\n        /* \"#utility.yul\":6121:6124   */\n      dup6\n        /* \"#utility.yul\":6097:6138   */\n      tag_158\n      jump\t// in\n    tag_248:\n        /* \"#utility.yul\":5816:6144   */\n      pop\n        /* \"#utility.yul\":5732:6144   */\n      swap4\n      swap3\n      pop\n      pop\n      pop\n      jump\t// out\n        /* \"#utility.yul\":6164:6504   */\n    tag_160:\n        /* \"#utility.yul\":6220:6225   */\n      0x00\n        /* \"#utility.yul\":6269:6272   */\n      dup3\n        /* \"#utility.yul\":6262:6266   */\n      0x1f\n        /* \"#utility.yul\":6254:6260   */\n      dup4\n        /* \"#utility.yul\":6250:6267   */\n      add\n        /* \"#utility.yul\":6246:6273   */\n      slt\n        /* \"#utility.yul\":6236:6358   */\n      tag_250\n      jumpi\n        /* \"#utility.yul\":6277:6356   */\n      tag_251\n      tag_152\n      jump\t// in\n    tag_251:\n        /* \"#utility.yul\":6236:6358   */\n    tag_250:\n        /* \"#utility.yul\":6394:6400   */\n      dup2\n        /* \"#utility.yul\":6381:6401   */\n      calldataload\n        /* \"#utility.yul\":6419:6498   */\n      tag_252\n        /* \"#utility.yul\":6494:6497   */\n      dup5\n        /* \"#utility.yul\":6486:6492   */\n      dup3\n        /* \"#utility.yul\":6479:6483   */\n      0x20\n        /* \"#utility.yul\":6471:6477   */\n      dup7\n        /* \"#utility.yul\":6467:6484   */\n      add\n        /* \"#utility.yul\":6419:6498   */\n      tag_159\n      jump\t// in\n    tag_252:\n        /* \"#utility.yul\":6410:6498   */\n      swap2\n      pop\n        /* \"#utility.yul\":6226:6504   */\n      pop\n        /* \"#utility.yul\":6164:6504   */\n      swap3\n      swap2\n      pop\n      pop\n      jump\t// out\n        /* \"#utility.yul\":6510:7309   */\n    tag_29:\n        /* \"#utility.yul\":6597:6603   */\n      0x00\n        /* \"#utility.yul\":6605:6611   */\n      dup1\n        /* \"#utility.yul\":6613:6619   */\n      0x00\n        /* \"#utility.yul\":6662:6664   */\n      0x60\n        /* \"#utility.yul\":6650:6659   */\n      dup5\n        /* \"#utility.yul\":6641:6648   */\n      dup7\n        /* \"#utility.yul\":6637:6660   */\n      sub\n        /* \"#utility.yul\":6633:6665   */\n      slt\n        /* \"#utility.yul\":6630:6749   */\n      iszero\n      tag_254\n      jumpi\n        /* \"#utility.yul\":6668:6747   */\n      tag_255\n      tag_135\n      jump\t// in\n    tag_255:\n        /* \"#utility.yul\":6630:6749   */\n    tag_254:\n        /* \"#utility.yul\":6788:6789   */\n      0x00\n        /* \"#utility.yul\":6813:6866   */\n      tag_256\n        /* \"#utility.yul\":6858:6865   */\n      dup7\n        /* \"#utility.yul\":6849:6855   */\n      dup3\n        /* \"#utility.yul\":6838:6847   */\n      dup8\n        /* \"#utility.yul\":6834:6856   */\n      add\n        /* \"#utility.yul\":6813:6866   */\n      tag_139\n      jump\t// in\n    tag_256:\n        /* \"#utility.yul\":6803:6866   */\n      swap4\n      pop\n        /* \"#utility.yul\":6759:6876   */\n      pop\n        /* \"#utility.yul\":6915:6917   */\n      0x20\n        /* \"#utility.yul\":6941:6994   */\n      tag_257\n        /* \"#utility.yul\":6986:6993   */\n      dup7\n        /* \"#utility.yul\":6977:6983   */\n      dup3\n        /* \"#utility.yul\":6966:6975   */\n      dup8\n        /* \"#utility.yul\":6962:6984   */\n      add\n        /* \"#utility.yul\":6941:6994   */\n      tag_139\n      jump\t// in\n    tag_257:\n        /* \"#utility.yul\":6931:6994   */\n      swap3\n      pop\n        /* \"#utility.yul\":6886:7004   */\n      pop\n        /* \"#utility.yul\":7071:7073   */\n      0x40\n        /* \"#utility.yul\":7060:7069   */\n      dup5\n        /* \"#utility.yul\":7056:7074   */\n      add\n        /* \"#utility.yul\":7043:7075   */\n      calldataload\n        /* \"#utility.yul\":7102:7120   */\n      0xffffffffffffffff\n        /* \"#utility.yul\":7094:7100   */\n      dup2\n        /* \"#utility.yul\":7091:7121   */\n      gt\n        /* \"#utility.yul\":7088:7205   */\n      iszero\n      tag_258\n      jumpi\n        /* \"#utility.yul\":7124:7203   */\n      tag_259\n      tag_136\n      jump\t// in\n    tag_259:\n        /* \"#utility.yul\":7088:7205   */\n    tag_258:\n        /* \"#utility.yul\":7229:7292   */\n      tag_260\n        /* \"#utility.yul\":7284:7291   */\n      dup7\n        /* \"#utility.yul\":7275:7281   */\n      dup3\n        /* \"#utility.yul\":7264:7273   */\n      dup8\n        /* \"#utility.yul\":7260:7282   */\n      add\n        /* \"#utility.yul\":7229:7292   */\n      tag_160\n      jump\t// in\n    tag_260:\n        /* \"#utility.yul\":7219:7292   */\n      swap2\n      pop\n        /* \"#utility.yul\":7014:7302   */\n      pop\n        /* \"#utility.yul\":6510:7309   */\n      swap3\n      pop\n      swap3\n      pop\n      swap3\n      jump\t// out\n        /* \"#utility.yul\":7315:7433   */\n    tag_161:\n        /* \"#utility.yul\":7402:7426   */\n      tag_262\n        /* \"#utility.yul\":7420:7425   */\n      dup2\n        /* \"#utility.yul\":7402:7426   */\n      tag_149\n      jump\t// in\n    tag_262:\n        /* \"#utility.yul\":7397:7400   */\n      dup3\n        /* \"#utility.yul\":7390:7427   */\n      mstore\n        /* \"#utility.yul\":7315:7433   */\n      pop\n      pop\n      jump\t// out\n        /* \"#utility.yul\":7439:7661   */\n    tag_36:\n        /* \"#utility.yul\":7532:7536   */\n      0x00\n        /* \"#utility.yul\":7570:7572   */\n      0x20\n        /* \"#utility.yul\":7559:7568   */\n      dup3\n        /* \"#utility.yul\":7555:7573   */\n      add\n        /* \"#utility.yul\":7547:7573   */\n      swap1\n      pop\n        /* \"#utility.yul\":7583:7654   */\n      tag_264\n        /* \"#utility.yul\":7651:7652   */\n      0x00\n        /* \"#utility.yul\":7640:7649   */\n      dup4\n        /* \"#utility.yul\":7636:7653   */\n      add\n        /* \"#utility.yul\":7627:7633   */\n      dup5\n        /* \"#utility.yul\":7583:7654   */\n      tag_161\n      jump\t// in\n    tag_264:\n        /* \"#utility.yul\":7439:7661   */\n      swap3\n      swap2\n      pop\n      pop\n      jump\t// out\n        /* \"#utility.yul\":7667:7757   */\n    tag_162:\n        /* \"#utility.yul\":7701:7708   */\n      0x00\n        /* \"#utility.yul\":7744:7749   */\n      dup2\n        /* \"#utility.yul\":7737:7750   */\n      iszero\n        /* \"#utility.yul\":7730:7751   */\n      iszero\n        /* \"#utility.yul\":7719:7751   */\n      swap1\n      pop\n        /* \"#utility.yul\":7667:7757   */\n      swap2\n      swap1\n      pop\n      jump\t// out\n        /* \"#utility.yul\":7763:7872   */\n    tag_163:\n        /* \"#utility.yul\":7844:7865   */\n      tag_267\n        /* \"#utility.yul\":7859:7864   */\n      dup2\n        /* \"#utility.yul\":7844:7865   */\n      tag_162\n      jump\t// in\n    tag_267:\n        /* \"#utility.yul\":7839:7842   */\n      dup3\n        /* \"#utility.yul\":7832:7866   */\n      mstore\n        /* \"#utility.yul\":7763:7872   */\n      pop\n      pop\n      jump\t// out\n        /* \"#utility.yul\":7878:8088   */\n    tag_40:\n        /* \"#utility.yul\":7965:7969   */\n      0x00\n        /* \"#utility.yul\":8003:8005   */\n      0x20\n        /* \"#utility.yul\":7992:8001   */\n      dup3\n        /* \"#utility.yul\":7988:8006   */\n      add\n        /* \"#utility.yul\":7980:8006   */\n      swap1\n      pop\n        /* \"#utility.yul\":8016:8081   */\n      tag_269\n        /* \"#utility.yul\":8078:8079   */\n      0x00\n        /* \"#utility.yul\":8067:8076   */\n      dup4\n        /* \"#utility.yul\":8063:8080   */\n      add\n        /* \"#utility.yul\":8054:8060   */\n      dup5\n        /* \"#utility.yul\":8016:8081   */\n      tag_163\n      jump\t// in\n    tag_269:\n        /* \"#utility.yul\":7878:8088   */\n      swap3\n      swap2\n      pop\n      pop\n      jump\t// out\n        /* \"#utility.yul\":8094:8603   */\n    tag_43:\n        /* \"#utility.yul\":8163:8169   */\n      0x00\n        /* \"#utility.yul\":8212:8214   */\n      0x20\n        /* \"#utility.yul\":8200:8209   */\n      dup3\n        /* \"#utility.yul\":8191:8198   */\n      dup5\n        /* \"#utility.yul\":8187:8210   */\n      sub\n        /* \"#utility.yul\":8183:8215   */\n      slt\n        /* \"#utility.yul\":8180:8299   */\n      iszero\n      tag_271\n      jumpi\n        /* \"#utility.yul\":8218:8297   */\n      tag_272\n      tag_135\n      jump\t// in\n    tag_272:\n        /* \"#utility.yul\":8180:8299   */\n    tag_271:\n        /* \"#utility.yul\":8366:8367   */\n      0x00\n        /* \"#utility.yul\":8355:8364   */\n      dup3\n        /* \"#utility.yul\":8351:8368   */\n      add\n        /* \"#utility.yul\":8338:8369   */\n      calldataload\n        /* \"#utility.yul\":8396:8414   */\n      0xffffffffffffffff\n        /* \"#utility.yul\":8388:8394   */\n      dup2\n        /* \"#utility.yul\":8385:8415   */\n      gt\n        /* \"#utility.yul\":8382:8499   */\n      iszero\n      tag_273\n      jumpi\n        /* \"#utility.yul\":8418:8497   */\n      tag_274\n      tag_136\n      jump\t// in\n    tag_274:\n        /* \"#utility.yul\":8382:8499   */\n    tag_273:\n        /* \"#utility.yul\":8523:8586   */\n      tag_275\n        /* \"#utility.yul\":8578:8585   */\n      dup5\n        /* \"#utility.yul\":8569:8575   */\n      dup3\n        /* \"#utility.yul\":8558:8567   */\n      dup6\n        /* \"#utility.yul\":8554:8576   */\n      add\n        /* \"#utility.yul\":8523:8586   */\n      tag_160\n      jump\t// in\n    tag_275:\n        /* \"#utility.yul\":8513:8586   */\n      swap2\n      pop\n        /* \"#utility.yul\":8309:8596   */\n      pop\n        /* \"#utility.yul\":8094:8603   */\n      swap3\n      swap2\n      pop\n      pop\n      jump\t// out\n        /* \"#utility.yul\":8609:8831   */\n    tag_50:\n        /* \"#utility.yul\":8702:8706   */\n      0x00\n        /* \"#utility.yul\":8740:8742   */\n      0x20\n        /* \"#utility.yul\":8729:8738   */\n      dup3\n        /* \"#utility.yul\":8725:8743   */\n      add\n        /* \"#utility.yul\":8717:8743   */\n      swap1\n      pop\n        /* \"#utility.yul\":8753:8824   */\n      tag_277\n        /* \"#utility.yul\":8821:8822   */\n      0x00\n        /* \"#utility.yul\":8810:8819   */\n      dup4\n        /* \"#utility.yul\":8806:8823   */\n      add\n        /* \"#utility.yul\":8797:8803   */\n      dup5\n        /* \"#utility.yul\":8753:8824   */\n      tag_140\n      jump\t// in\n    tag_277:\n        /* \"#utility.yul\":8609:8831   */\n      swap3\n      swap2\n      pop\n      pop\n      jump\t// out\n        /* \"#utility.yul\":8837:8953   */\n    tag_164:\n        /* \"#utility.yul\":8907:8928   */\n      tag_279\n        /* \"#utility.yul\":8922:8927   */\n      dup2\n        /* \"#utility.yul\":8907:8928   */\n      tag_162\n      jump\t// in\n    tag_279:\n        /* \"#utility.yul\":8900:8905   */\n      dup2\n        /* \"#utility.yul\":8897:8929   */\n      eq\n        /* \"#utility.yul\":8887:8947   */\n      tag_280\n      jumpi\n        /* \"#utility.yul\":8943:8944   */\n      0x00\n        /* \"#utility.yul\":8940:8941   */\n      dup1\n        /* \"#utility.yul\":8933:8945   */\n      revert\n        /* \"#utility.yul\":8887:8947   */\n    tag_280:\n        /* \"#utility.yul\":8837:8953   */\n      pop\n      jump\t// out\n        /* \"#utility.yul\":8959:9096   */\n    tag_165:\n        /* \"#utility.yul\":9013:9018   */\n      0x00\n        /* \"#utility.yul\":9044:9050   */\n      dup2\n        /* \"#utility.yul\":9038:9051   */\n      mload\n        /* \"#utility.yul\":9029:9051   */\n      swap1\n      pop\n        /* \"#utility.yul\":9060:9090   */\n      tag_282\n        /* \"#utility.yul\":9084:9089   */\n      dup2\n        /* \"#utility.yul\":9060:9090   */\n      tag_164\n      jump\t// in\n    tag_282:\n        /* \"#utility.yul\":8959:9096   */\n      swap3\n      swap2\n      pop\n      pop\n      jump\t// out\n        /* \"#utility.yul\":9102:9245   */\n    tag_166:\n        /* \"#utility.yul\":9159:9164   */\n      0x00\n        /* \"#utility.yul\":9190:9196   */\n      dup2\n        /* \"#utility.yul\":9184:9197   */\n      mload\n        /* \"#utility.yul\":9175:9197   */\n      swap1\n      pop\n        /* \"#utility.yul\":9206:9239   */\n      tag_284\n        /* \"#utility.yul\":9233:9238   */\n      dup2\n        /* \"#utility.yul\":9206:9239   */\n      tag_138\n      jump\t// in\n    tag_284:\n        /* \"#utility.yul\":9102:9245   */\n      swap3\n      swap2\n      pop\n      pop\n      jump\t// out\n        /* \"#utility.yul\":9251:11001   */\n    tag_54:\n        /* \"#utility.yul\":9396:9402   */\n      0x00\n        /* \"#utility.yul\":9404:9410   */\n      dup1\n        /* \"#utility.yul\":9412:9418   */\n      0x00\n        /* \"#utility.yul\":9420:9426   */\n      dup1\n        /* \"#utility.yul\":9428:9434   */\n      0x00\n        /* \"#utility.yul\":9436:9442   */\n      dup1\n        /* \"#utility.yul\":9444:9450   */\n      0x00\n        /* \"#utility.yul\":9452:9458   */\n      dup1\n        /* \"#utility.yul\":9460:9466   */\n      0x00\n        /* \"#utility.yul\":9468:9474   */\n      dup1\n        /* \"#utility.yul\":9517:9520   */\n      0x0140\n        /* \"#utility.yul\":9505:9514   */\n      dup12\n        /* \"#utility.yul\":9496:9503   */\n      dup14\n        /* \"#utility.yul\":9492:9515   */\n      sub\n        /* \"#utility.yul\":9488:9521   */\n      slt\n        /* \"#utility.yul\":9485:9605   */\n      iszero\n      tag_286\n      jumpi\n        /* \"#utility.yul\":9524:9603   */\n      tag_287\n      tag_135\n      jump\t// in\n    tag_287:\n        /* \"#utility.yul\":9485:9605   */\n    tag_286:\n        /* \"#utility.yul\":9644:9645   */\n      0x00\n        /* \"#utility.yul\":9669:9730   */\n      tag_288\n        /* \"#utility.yul\":9722:9729   */\n      dup14\n        /* \"#utility.yul\":9713:9719   */\n      dup3\n        /* \"#utility.yul\":9702:9711   */\n      dup15\n        /* \"#utility.yul\":9698:9720   */\n      add\n        /* \"#utility.yul\":9669:9730   */\n      tag_165\n      jump\t// in\n    tag_288:\n        /* \"#utility.yul\":9659:9730   */\n      swap11\n      pop\n        /* \"#utility.yul\":9615:9740   */\n      pop\n        /* \"#utility.yul\":9779:9781   */\n      0x20\n        /* \"#utility.yul\":9805:9866   */\n      tag_289\n        /* \"#utility.yul\":9858:9865   */\n      dup14\n        /* \"#utility.yul\":9849:9855   */\n      dup3\n        /* \"#utility.yul\":9838:9847   */\n      dup15\n        /* \"#utility.yul\":9834:9856   */\n      add\n        /* \"#utility.yul\":9805:9866   */\n      tag_165\n      jump\t// in\n    tag_289:\n        /* \"#utility.yul\":9795:9866   */\n      swap10\n      pop\n        /* \"#utility.yul\":9750:9876   */\n      pop\n        /* \"#utility.yul\":9915:9917   */\n      0x40\n        /* \"#utility.yul\":9941:10005   */\n      tag_290\n        /* \"#utility.yul\":9997:10004   */\n      dup14\n        /* \"#utility.yul\":9988:9994   */\n      dup3\n        /* \"#utility.yul\":9977:9986   */\n      dup15\n        /* \"#utility.yul\":9973:9995   */\n      add\n        /* \"#utility.yul\":9941:10005   */\n      tag_166\n      jump\t// in\n    tag_290:\n        /* \"#utility.yul\":9931:10005   */\n      swap9\n      pop\n        /* \"#utility.yul\":9886:10015   */\n      pop\n        /* \"#utility.yul\":10054:10056   */\n      0x60\n        /* \"#utility.yul\":10080:10144   */\n      tag_291\n        /* \"#utility.yul\":10136:10143   */\n      dup14\n        /* \"#utility.yul\":10127:10133   */\n      dup3\n        /* \"#utility.yul\":10116:10125   */\n      dup15\n        /* \"#utility.yul\":10112:10134   */\n      add\n        /* \"#utility.yul\":10080:10144   */\n      tag_166\n      jump\t// in\n    tag_291:\n        /* \"#utility.yul\":10070:10144   */\n      swap8\n      pop\n        /* \"#utility.yul\":10025:10154   */\n      pop\n        /* \"#utility.yul\":10193:10196   */\n      0x80\n        /* \"#utility.yul\":10220:10284   */\n      tag_292\n        /* \"#utility.yul\":10276:10283   */\n      dup14\n        /* \"#utility.yul\":10267:10273   */\n      dup3\n        /* \"#utility.yul\":10256:10265   */\n      dup15\n        /* \"#utility.yul\":10252:10274   */\n      add\n        /* \"#utility.yul\":10220:10284   */\n      tag_166\n      jump\t// in\n    tag_292:\n        /* \"#utility.yul\":10210:10284   */\n      swap7\n      pop\n        /* \"#utility.yul\":10164:10294   */\n      pop\n        /* \"#utility.yul\":10333:10336   */\n      0xa0\n        /* \"#utility.yul\":10360:10424   */\n      tag_293\n        /* \"#utility.yul\":10416:10423   */\n      dup14\n        /* \"#utility.yul\":10407:10413   */\n      dup3\n        /* \"#utility.yul\":10396:10405   */\n      dup15\n        /* \"#utility.yul\":10392:10414   */\n      add\n        /* \"#utility.yul\":10360:10424   */\n      tag_166\n      jump\t// in\n    tag_293:\n        /* \"#utility.yul\":10350:10424   */\n      swap6\n      pop\n        /* \"#utility.yul\":10304:10434   */\n      pop\n        /* \"#utility.yul\":10473:10476   */\n      0xc0\n        /* \"#utility.yul\":10500:10564   */\n      tag_294\n        /* \"#utility.yul\":10556:10563   */\n      dup14\n        /* \"#utility.yul\":10547:10553   */\n      dup3\n        /* \"#utility.yul\":10536:10545   */\n      dup15\n        /* \"#utility.yul\":10532:10554   */\n      add\n        /* \"#utility.yul\":10500:10564   */\n      tag_166\n      jump\t// in\n    tag_294:\n        /* \"#utility.yul\":10490:10564   */\n      swap5\n      pop\n        /* \"#utility.yul\":10444:10574   */\n      pop\n        /* \"#utility.yul\":10613:10616   */\n      0xe0\n        /* \"#utility.yul\":10640:10704   */\n      tag_295\n        /* \"#utility.yul\":10696:10703   */\n      dup14\n        /* \"#utility.yul\":10687:10693   */\n      dup3\n        /* \"#utility.yul\":10676:10685   */\n      dup15\n        /* \"#utility.yul\":10672:10694   */\n      add\n        /* \"#utility.yul\":10640:10704   */\n      tag_166\n      jump\t// in\n    tag_295:\n        /* \"#utility.yul\":10630:10704   */\n      swap4\n      pop\n        /* \"#utility.yul\":10584:10714   */\n      pop\n        /* \"#utility.yul\":10753:10756   */\n      0x0100\n        /* \"#utility.yul\":10780:10844   */\n      tag_296\n        /* \"#utility.yul\":10836:10843   */\n      dup14\n        /* \"#utility.yul\":10827:10833   */\n      dup3\n        /* \"#utility.yul\":10816:10825   */\n      dup15\n        /* \"#utility.yul\":10812:10834   */\n      add\n        /* \"#utility.yul\":10780:10844   */\n      tag_166\n      jump\t// in\n    tag_296:\n        /* \"#utility.yul\":10770:10844   */\n      swap3\n      pop\n        /* \"#utility.yul\":10724:10854   */\n      pop\n        /* \"#utility.yul\":10893:10896   */\n      0x0120\n        /* \"#utility.yul\":10920:10984   */\n      tag_297\n        /* \"#utility.yul\":10976:10983   */\n      dup14\n        /* \"#utility.yul\":10967:10973   */\n      dup3\n        /* \"#utility.yul\":10956:10965   */\n      dup15\n        /* \"#utility.yul\":10952:10974   */\n      add\n        /* \"#utility.yul\":10920:10984   */\n      tag_166\n      jump\t// in\n    tag_297:\n        /* \"#utility.yul\":10910:10984   */\n      swap2\n      pop\n        /* \"#utility.yul\":10864:10994   */\n      pop\n        /* \"#utility.yul\":9251:11001   */\n      swap3\n      swap6\n      swap9\n      swap12\n      swap2\n      swap5\n      swap8\n      swap11\n      pop\n      swap3\n      swap6\n      swap9\n      pop\n      jump\t// out\n        /* \"#utility.yul\":11007:11187   */\n    tag_167:\n        /* \"#utility.yul\":11055:11132   */\n      0x4e487b7100000000000000000000000000000000000000000000000000000000\n        /* \"#utility.yul\":11052:11053   */\n      0x00\n        /* \"#utility.yul\":11045:11133   */\n      mstore\n        /* \"#utility.yul\":11152:11156   */\n      0x22\n        /* \"#utility.yul\":11149:11150   */\n      0x04\n        /* \"#utility.yul\":11142:11157   */\n      mstore\n        /* \"#utility.yul\":11176:11180   */\n      0x24\n        /* \"#utility.yul\":11173:11174   */\n      0x00\n        /* \"#utility.yul\":11166:11181   */\n      revert\n        /* \"#utility.yul\":11193:11513   */\n    tag_59:\n        /* \"#utility.yul\":11237:11243   */\n      0x00\n        /* \"#utility.yul\":11274:11275   */\n      0x02\n        /* \"#utility.yul\":11268:11272   */\n      dup3\n        /* \"#utility.yul\":11264:11276   */\n      div\n        /* \"#utility.yul\":11254:11276   */\n      swap1\n      pop\n        /* \"#utility.yul\":11321:11322   */\n      0x01\n        /* \"#utility.yul\":11315:11319   */\n      dup3\n        /* \"#utility.yul\":11311:11323   */\n      and\n        /* \"#utility.yul\":11342:11360   */\n      dup1\n        /* \"#utility.yul\":11332:11413   */\n      tag_300\n      jumpi\n        /* \"#utility.yul\":11398:11402   */\n      0x7f\n        /* \"#utility.yul\":11390:11396   */\n      dup3\n        /* \"#utility.yul\":11386:11403   */\n      and\n        /* \"#utility.yul\":11376:11403   */\n      swap2\n      pop\n        /* \"#utility.yul\":11332:11413   */\n    tag_300:\n        /* \"#utility.yul\":11460:11462   */\n      0x20\n        /* \"#utility.yul\":11452:11458   */\n      dup3\n        /* \"#utility.yul\":11449:11463   */\n      lt\n        /* \"#utility.yul\":11429:11447   */\n      dup2\n        /* \"#utility.yul\":11426:11464   */\n      sub\n        /* \"#utility.yul\":11423:11507   */\n      tag_301\n      jumpi\n        /* \"#utility.yul\":11479:11497   */\n      tag_302\n      tag_167\n      jump\t// in\n    tag_302:\n        /* \"#utility.yul\":11423:11507   */\n    tag_301:\n        /* \"#utility.yul\":11244:11513   */\n      pop\n        /* \"#utility.yul\":11193:11513   */\n      swap2\n      swap1\n      pop\n      jump\t// out\n        /* \"#utility.yul\":11519:11699   */\n    tag_72:\n        /* \"#utility.yul\":11567:11644   */\n      0x4e487b7100000000000000000000000000000000000000000000000000000000\n        /* \"#utility.yul\":11564:11565   */\n      0x00\n        /* \"#utility.yul\":11557:11645   */\n      mstore\n        /* \"#utility.yul\":11664:11668   */\n      0x32\n        /* \"#utility.yul\":11661:11662   */\n      0x04\n        /* \"#utility.yul\":11654:11669   */\n      mstore\n        /* \"#utility.yul\":11688:11692   */\n      0x24\n        /* \"#utility.yul\":11685:11686   */\n      0x00\n        /* \"#utility.yul\":11678:11693   */\n      revert\n        /* \"#utility.yul\":11705:11885   */\n    tag_168:\n        /* \"#utility.yul\":11753:11830   */\n      0x4e487b7100000000000000000000000000000000000000000000000000000000\n        /* \"#utility.yul\":11750:11751   */\n      0x00\n        /* \"#utility.yul\":11743:11831   */\n      mstore\n        /* \"#utility.yul\":11850:11854   */\n      0x12\n        /* \"#utility.yul\":11847:11848   */\n      0x04\n        /* \"#utility.yul\":11840:11855   */\n      mstore\n        /* \"#utility.yul\":11874:11878   */\n      0x24\n        /* \"#utility.yul\":11871:11872   */\n      0x00\n        /* \"#utility.yul\":11864:11879   */\n      revert\n        /* \"#utility.yul\":11891:12067   */\n    tag_75:\n        /* \"#utility.yul\":11923:11924   */\n      0x00\n        /* \"#utility.yul\":11940:11960   */\n      tag_306\n        /* \"#utility.yul\":11958:11959   */\n      dup3\n        /* \"#utility.yul\":11940:11960   */\n      tag_137\n      jump\t// in\n    tag_306:\n        /* \"#utility.yul\":11935:11960   */\n      swap2\n      pop\n        /* \"#utility.yul\":11974:11994   */\n      tag_307\n        /* \"#utility.yul\":11992:11993   */\n      dup4\n        /* \"#utility.yul\":11974:11994   */\n      tag_137\n      jump\t// in\n    tag_307:\n        /* \"#utility.yul\":11969:11994   */\n      swap3\n      pop\n        /* \"#utility.yul\":12013:12014   */\n      dup3\n        /* \"#utility.yul\":12003:12038   */\n      tag_308\n      jumpi\n        /* \"#utility.yul\":12018:12036   */\n      tag_309\n      tag_168\n      jump\t// in\n    tag_309:\n        /* \"#utility.yul\":12003:12038   */\n    tag_308:\n        /* \"#utility.yul\":12059:12060   */\n      dup3\n        /* \"#utility.yul\":12056:12057   */\n      dup3\n        /* \"#utility.yul\":12052:12061   */\n      mod\n        /* \"#utility.yul\":12047:12061   */\n      swap1\n      pop\n        /* \"#utility.yul\":11891:12067   */\n      swap3\n      swap2\n      pop\n      pop\n      jump\t// out\n        /* \"#utility.yul\":12073:12253   */\n    tag_169:\n        /* \"#utility.yul\":12121:12198   */\n      0x4e487b7100000000000000000000000000000000000000000000000000000000\n        /* \"#utility.yul\":12118:12119   */\n      0x00\n        /* \"#utility.yul\":12111:12199   */\n      mstore\n        /* \"#utility.yul\":12218:12222   */\n      0x11\n        /* \"#utility.yul\":12215:12216   */\n      0x04\n        /* \"#utility.yul\":12208:12223   */\n      mstore\n        /* \"#utility.yul\":12242:12246   */\n      0x24\n        /* \"#utility.yul\":12239:12240   */\n      0x00\n        /* \"#utility.yul\":12232:12247   */\n      revert\n        /* \"#utility.yul\":12259:12564   */\n    tag_77:\n        /* \"#utility.yul\":12299:12302   */\n      0x00\n        /* \"#utility.yul\":12318:12338   */\n      tag_312\n        /* \"#utility.yul\":12336:12337   */\n      dup3\n        /* \"#utility.yul\":12318:12338   */\n      tag_137\n      jump\t// in\n    tag_312:\n        /* \"#utility.yul\":12313:12338   */\n      swap2\n      pop\n        /* \"#utility.yul\":12352:12372   */\n      tag_313\n        /* \"#utility.yul\":12370:12371   */\n      dup4\n        /* \"#utility.yul\":12352:12372   */\n      tag_137\n      jump\t// in\n    tag_313:\n        /* \"#utility.yul\":12347:12372   */\n      swap3\n      pop\n        /* \"#utility.yul\":12506:12507   */\n      dup3\n        /* \"#utility.yul\":12438:12504   */\n      0xffffffffffffffffffffffffffffffffffffffffffffffffffffffffffffffff\n        /* \"#utility.yul\":12434:12508   */\n      sub\n        /* \"#utility.yul\":12431:12432   */\n      dup3\n        /* \"#utility.yul\":12428:12509   */\n      gt\n        /* \"#utility.yul\":12425:12532   */\n      iszero\n      tag_314\n      jumpi\n        /* \"#utility.yul\":12512:12530   */\n      tag_315\n      tag_169\n      jump\t// in\n    tag_315:\n        /* \"#utility.yul\":12425:12532   */\n    tag_314:\n        /* \"#utility.yul\":12556:12557   */\n      dup3\n        /* \"#utility.yul\":12553:12554   */\n      dup3\n        /* \"#utility.yul\":12549:12558   */\n      add\n        /* \"#utility.yul\":12542:12558   */\n      swap1\n      pop\n        /* \"#utility.yul\":12259:12564   */\n      swap3\n      swap2\n      pop\n      pop\n      jump\t// out\n        /* \"#utility.yul\":12570:12755   */\n    tag_79:\n        /* \"#utility.yul\":12610:12611   */\n      0x00\n        /* \"#utility.yul\":12627:12647   */\n      tag_317\n        /* \"#utility.yul\":12645:12646   */\n      dup3\n        /* \"#utility.yul\":12627:12647   */\n      tag_137\n      jump\t// in\n    tag_317:\n        /* \"#utility.yul\":12622:12647   */\n      swap2\n      pop\n        /* \"#utility.yul\":12661:12681   */\n      tag_318\n        /* \"#utility.yul\":12679:12680   */\n      dup4\n        /* \"#utility.yul\":12661:12681   */\n      tag_137\n      jump\t// in\n    tag_318:\n        /* \"#utility.yul\":12656:12681   */\n      swap3\n      pop\n        /* \"#utility.yul\":12700:12701   */\n      dup3\n        /* \"#utility.yul\":12690:12725   */\n      tag_319\n      jumpi\n        /* \"#utility.yul\":12705:12723   */\n      tag_320\n      tag_168\n      jump\t// in\n    tag_320:\n        /* \"#utility.yul\":12690:12725   */\n    tag_319:\n        /* \"#utility.yul\":12747:12748   */\n      dup3\n        /* \"#utility.yul\":12744:12745   */\n      dup3\n        /* \"#utility.yul\":12740:12749   */\n      div\n        /* \"#utility.yul\":12735:12749   */\n      swap1\n      pop\n        /* \"#utility.yul\":12570:12755   */\n      swap3\n      swap2\n      pop\n      pop\n      jump\t// out\n        /* \"#utility.yul\":12761:12909   */\n    tag_170:\n        /* \"#utility.yul\":12863:12874   */\n      0x00\n        /* \"#utility.yul\":12900:12903   */\n      dup2\n        /* \"#utility.yul\":12885:12903   */\n      swap1\n      pop\n        /* \"#utility.yul\":12761:12909   */\n      swap3\n      swap2\n      pop\n      pop\n      jump\t// out\n        /* \"#utility.yul\":12915:13070   */\n    tag_171:\n        /* \"#utility.yul\":13055:13062   */\n      0x6b69747479000000000000000000000000000000000000000000000000000000\n        /* \"#utility.yul\":13051:13052   */\n      0x00\n        /* \"#utility.yul\":13043:13049   */\n      dup3\n        /* \"#utility.yul\":13039:13053   */\n      add\n        /* \"#utility.yul\":13032:13063   */\n      mstore\n        /* \"#utility.yul\":12915:13070   */\n      pop\n      jump\t// out\n        /* \"#utility.yul\":13076:13476   */\n    tag_172:\n        /* \"#utility.yul\":13236:13239   */\n      0x00\n        /* \"#utility.yul\":13257:13341   */\n      tag_324\n        /* \"#utility.yul\":13339:13340   */\n      0x05\n        /* \"#utility.yul\":13334:13337   */\n      dup4\n        /* \"#utility.yul\":13257:13341   */\n      tag_170\n      jump\t// in\n    tag_324:\n        /* \"#utility.yul\":13250:13341   */\n      swap2\n      pop\n        /* \"#utility.yul\":13350:13443   */\n      tag_325\n        /* \"#utility.yul\":13439:13442   */\n      dup3\n        /* \"#utility.yul\":13350:13443   */\n      tag_171\n      jump\t// in\n    tag_325:\n        /* \"#utility.yul\":13468:13469   */\n      0x05\n        /* \"#utility.yul\":13463:13466   */\n      dup3\n        /* \"#utility.yul\":13459:13470   */\n      add\n        /* \"#utility.yul\":13452:13470   */\n      swap1\n      pop\n        /* \"#utility.yul\":13076:13476   */\n      swap2\n      swap1\n      pop\n      jump\t// out\n        /* \"#utility.yul\":13482:13863   */\n    tag_81:\n        /* \"#utility.yul\":13667:13670   */\n      0x00\n        /* \"#utility.yul\":13689:13837   */\n      tag_327\n        /* \"#utility.yul\":13833:13836   */\n      dup3\n        /* \"#utility.yul\":13689:13837   */\n      tag_172\n      jump\t// in\n    tag_327:\n        /* \"#utility.yul\":13682:13837   */\n      swap2\n      pop\n        /* \"#utility.yul\":13854:13857   */\n      dup2\n        /* \"#utility.yul\":13847:13857   */\n      swap1\n      pop\n        /* \"#utility.yul\":13482:13863   */\n      swap2\n      swap1\n      pop\n      jump\t// out\n        /* \"#utility.yul\":13869:14246   */\n    tag_173:\n        /* \"#utility.yul\":13975:13978   */\n      0x00\n        /* \"#utility.yul\":14003:14042   */\n      tag_329\n        /* \"#utility.yul\":14036:14041   */\n      dup3\n        /* \"#utility.yul\":14003:14042   */\n      tag_141\n      jump\t// in\n    tag_329:\n        /* \"#utility.yul\":14058:14147   */\n      tag_330\n        /* \"#utility.yul\":14140:14146   */\n      dup2\n        /* \"#utility.yul\":14135:14138   */\n      dup6\n        /* \"#utility.yul\":14058:14147   */\n      tag_170\n      jump\t// in\n    tag_330:\n        /* \"#utility.yul\":14051:14147   */\n      swap4\n      pop\n        /* \"#utility.yul\":14156:14208   */\n      tag_331\n        /* \"#utility.yul\":14201:14207   */\n      dup2\n        /* \"#utility.yul\":14196:14199   */\n      dup6\n        /* \"#utility.yul\":14189:14193   */\n      0x20\n        /* \"#utility.yul\":14182:14187   */\n      dup7\n        /* \"#utility.yul\":14178:14194   */\n      add\n        /* \"#utility.yul\":14156:14208   */\n      tag_143\n      jump\t// in\n    tag_331:\n        /* \"#utility.yul\":14233:14239   */\n      dup1\n        /* \"#utility.yul\":14228:14231   */\n      dup5\n        /* \"#utility.yul\":14224:14240   */\n      add\n        /* \"#utility.yul\":14217:14240   */\n      swap2\n      pop\n        /* \"#utility.yul\":13979:14246   */\n      pop\n        /* \"#utility.yul\":13869:14246   */\n      swap3\n      swap2\n      pop\n      pop\n      jump\t// out\n        /* \"#utility.yul\":14252:14527   */\n    tag_83:\n        /* \"#utility.yul\":14384:14387   */\n      0x00\n        /* \"#utility.yul\":14406:14501   */\n      tag_333\n        /* \"#utility.yul\":14497:14500   */\n      dup3\n        /* \"#utility.yul\":14488:14494   */\n      dup5\n        /* \"#utility.yul\":14406:14501   */\n      tag_173\n      jump\t// in\n    tag_333:\n        /* \"#utility.yul\":14399:14501   */\n      swap2\n      pop\n        /* \"#utility.yul\":14518:14521   */\n      dup2\n        /* \"#utility.yul\":14511:14521   */\n      swap1\n      pop\n        /* \"#utility.yul\":14252:14527   */\n      swap3\n      swap2\n      pop\n      pop\n      jump\t// out\n        /* \"#utility.yul\":14533:14724   */\n    tag_87:\n        /* \"#utility.yul\":14573:14577   */\n      0x00\n        /* \"#utility.yul\":14593:14613   */\n      tag_335\n        /* \"#utility.yul\":14611:14612   */\n      dup3\n        /* \"#utility.yul\":14593:14613   */\n      tag_137\n      jump\t// in\n    tag_335:\n        /* \"#utility.yul\":14588:14613   */\n      swap2\n      pop\n        /* \"#utility.yul\":14627:14647   */\n      tag_336\n        /* \"#utility.yul\":14645:14646   */\n      dup4\n        /* \"#utility.yul\":14627:14647   */\n      tag_137\n      jump\t// in\n    tag_336:\n        /* \"#utility.yul\":14622:14647   */\n      swap3\n      pop\n        /* \"#utility.yul\":14666:14667   */\n      dup3\n        /* \"#utility.yul\":14663:14664   */\n      dup3\n        /* \"#utility.yul\":14660:14668   */\n      lt\n        /* \"#utility.yul\":14657:14691   */\n      iszero\n      tag_337\n      jumpi\n        /* \"#utility.yul\":14671:14689   */\n      tag_338\n      tag_169\n      jump\t// in\n    tag_338:\n        /* \"#utility.yul\":14657:14691   */\n    tag_337:\n        /* \"#utility.yul\":14716:14717   */\n      dup3\n        /* \"#utility.yul\":14713:14714   */\n      dup3\n        /* \"#utility.yul\":14709:14718   */\n      sub\n        /* \"#utility.yul\":14701:14718   */\n      swap1\n      pop\n        /* \"#utility.yul\":14533:14724   */\n      swap3\n      swap2\n      pop\n      pop\n      jump\t// out\n        /* \"#utility.yul\":14730:14963   */\n    tag_115:\n        /* \"#utility.yul\":14769:14772   */\n      0x00\n        /* \"#utility.yul\":14792:14816   */\n      tag_340\n        /* \"#utility.yul\":14810:14815   */\n      dup3\n        /* \"#utility.yul\":14792:14816   */\n      tag_137\n      jump\t// in\n    tag_340:\n        /* \"#utility.yul\":14783:14816   */\n      swap2\n      pop\n        /* \"#utility.yul\":14838:14904   */\n      0xffffffffffffffffffffffffffffffffffffffffffffffffffffffffffffffff\n        /* \"#utility.yul\":14831:14836   */\n      dup3\n        /* \"#utility.yul\":14828:14905   */\n      sub\n        /* \"#utility.yul\":14825:14928   */\n      tag_341\n      jumpi\n        /* \"#utility.yul\":14908:14926   */\n      tag_342\n      tag_169\n      jump\t// in\n    tag_342:\n        /* \"#utility.yul\":14825:14928   */\n    tag_341:\n        /* \"#utility.yul\":14955:14956   */\n      0x01\n        /* \"#utility.yul\":14948:14953   */\n      dup3\n        /* \"#utility.yul\":14944:14957   */\n      add\n        /* \"#utility.yul\":14937:14957   */\n      swap1\n      pop\n        /* \"#utility.yul\":14730:14963   */\n      swap2\n      swap1\n      pop\n      jump\t// out\n        /* \"#utility.yul\":14969:15502   */\n    tag_118:\n        /* \"#utility.yul\":15138:15142   */\n      0x00\n        /* \"#utility.yul\":15176:15178   */\n      0x60\n        /* \"#utility.yul\":15165:15174   */\n      dup3\n        /* \"#utility.yul\":15161:15179   */\n      add\n        /* \"#utility.yul\":15153:15179   */\n      swap1\n      pop\n        /* \"#utility.yul\":15189:15260   */\n      tag_344\n        /* \"#utility.yul\":15257:15258   */\n      0x00\n        /* \"#utility.yul\":15246:15255   */\n      dup4\n        /* \"#utility.yul\":15242:15259   */\n      add\n        /* \"#utility.yul\":15233:15239   */\n      dup7\n        /* \"#utility.yul\":15189:15260   */\n      tag_140\n      jump\t// in\n    tag_344:\n        /* \"#utility.yul\":15307:15316   */\n      dup2\n        /* \"#utility.yul\":15301:15305   */\n      dup2\n        /* \"#utility.yul\":15297:15317   */\n      sub\n        /* \"#utility.yul\":15292:15294   */\n      0x20\n        /* \"#utility.yul\":15281:15290   */\n      dup4\n        /* \"#utility.yul\":15277:15295   */\n      add\n        /* \"#utility.yul\":15270:15318   */\n      mstore\n        /* \"#utility.yul\":15335:15413   */\n      tag_345\n        /* \"#utility.yul\":15408:15412   */\n      dup2\n        /* \"#utility.yul\":15399:15405   */\n      dup6\n        /* \"#utility.yul\":15335:15413   */\n      tag_145\n      jump\t// in\n    tag_345:\n        /* \"#utility.yul\":15327:15413   */\n      swap1\n      pop\n        /* \"#utility.yul\":15423:15495   */\n      tag_346\n        /* \"#utility.yul\":15491:15493   */\n      0x40\n        /* \"#utility.yul\":15480:15489   */\n      dup4\n        /* \"#utility.yul\":15476:15494   */\n      add\n        /* \"#utility.yul\":15467:15473   */\n      dup5\n        /* \"#utility.yul\":15423:15495   */\n      tag_140\n      jump\t// in\n    tag_346:\n        /* \"#utility.yul\":14969:15502   */\n      swap5\n      swap4\n      pop\n      pop\n      pop\n      pop\n      jump\t// out\n\n    auxdata: 0xa2646970667358221220377e6d1739f7592fdb9db88c87bc37662cb85da642fd2888e52f7c842214f4ef64736f6c634300080e0033\n}\n",
				"bytecode": {
					"linkReferences": {},
					"object": "60806040526010600155600154600a6200001a919062000280565b600255620151806003553480156200003157600080fd5b50336000806101000a81548173ffffffffffffffffffffffffffffffffffffffff021916908373ffffffffffffffffffffffffffffffffffffffff16021790555060008054906101000a900473ffffffffffffffffffffffffffffffffffffffff1673ffffffffffffffffffffffffffffffffffffffff16600073ffffffffffffffffffffffffffffffffffffffff167f8be0079c531659141344cd1fd0a4f28419497f9722a3daafe3b4186f6b6457e060405160405180910390a3620002d1565b7f4e487b7100000000000000000000000000000000000000000000000000000000600052601160045260246000fd5b60008160011c9050919050565b6000808291508390505b60018511156200018157808604811115620001595762000158620000f3565b5b6001851615620001695780820291505b8081029050620001798562000122565b945062000139565b94509492505050565b6000826200019c57600190506200026f565b81620001ac57600090506200026f565b8160018114620001c55760028114620001d05762000206565b60019150506200026f565b60ff841115620001e557620001e4620000f3565b5b8360020a915084821115620001ff57620001fe620000f3565b5b506200026f565b5060208310610133831016604e8410600b8410161715620002405782820a9050838111156200023a5762000239620000f3565b5b6200026f565b6200024f84848460016200012f565b92509050818404811115620002695762000268620000f3565b5b81810290505b9392505050565b6000819050919050565b60006200028d8262000276565b91506200029a8362000276565b9250620002c97fffffffffffffffffffffffffffffffffffffffffffffffffffffffffffffffff84846200018a565b905092915050565b61141480620002e16000396000f3fe608060405234801561001057600080fd5b50600436106100935760003560e01c8063715018a611610066578063715018a61461011f5780638da5cb5b146101295780638f32d59b14610147578063c6f1511214610165578063f2fde38b1461018157610093565b806317a7f4cc146100985780632052465e146100b45780635f4623f1146100e75780636b0bfc8014610103575b600080fd5b6100b260048036038101906100ad9190610b38565b61019d565b005b6100ce60048036038101906100c99190610b78565b6102bb565b6040516100de9493929190610c6c565b60405180910390f35b61010160048036038101906100fc9190610d16565b6103a3565b005b61011d60048036038101906101189190610e78565b6103f8565b005b610127610558565b005b610131610627565b60405161013e9190610ef6565b60405180910390f35b61014f610650565b60405161015c9190610f2c565b60405180910390f35b61017f600480360381019061017a9190610f47565b6106a7565b005b61019b60048036038101906101969190610d16565b61070e565b005b6000600760009054906101000a900473ffffffffffffffffffffffffffffffffffffffff1673ffffffffffffffffffffffffffffffffffffffff1663e98b7f4d836040518263ffffffff1660e01b81526004016101fa9190610f90565b61014060405180830381865afa158015610218573d6000803e3d6000fd5b505050506040513d601f19601f8201168201806040525081019061023c9190610fec565b909192939495969798509091929394959697509091929394959650909192939495509091929394509091929350909192509091509050809150506102b683826040518060400160405280600581526020017f6b697474790000000000000000000000000000000000000000000000000000008152506103f8565b505050565b600481815481106102cb57600080fd5b90600052602060002090600302016000915090508060000154908060010180546102f4906110fa565b80601f0160208091040260200160405190810160405280929190818152602001828054610320906110fa565b801561036d5780601f106103425761010080835404028352916020019161036d565b820191906000526020600020905b81548152906001019060200180831161035057829003601f168201915b5050505050908060020160009054906101000a900463ffffffff16908060020160049054906101000a900463ffffffff16905084565b6103ab610650565b6103b457600080fd5b80600760006101000a81548173ffffffffffffffffffffffffffffffffffffffff021916908373ffffffffffffffffffffffffffffffffffffffff16021790555050565b6000600660003373ffffffffffffffffffffffffffffffffffffffff1673ffffffffffffffffffffffffffffffffffffffff168152602001908152602001600020541461044457600080fd5b60006004848154811061045a5761045961112b565b5b90600052602060002090600302019050600254836104789190611189565b92506000600282600001548561048e91906111e9565b610498919061123f565b90506040516020016104a9906112c7565b60405160208183030381529060405280519060200120836040516020016104d0919061130d565b60405160208183030381529060405280519060200120036105125760636064826104fa9190611189565b826105059190611324565b61050f91906111e9565b90505b6105516040518060400160405280600681526020017f4e6f4e616d6500000000000000000000000000000000000000000000000000008152508261072b565b5050505050565b610560610650565b61056957600080fd5b600073ffffffffffffffffffffffffffffffffffffffff1660008054906101000a900473ffffffffffffffffffffffffffffffffffffffff1673ffffffffffffffffffffffffffffffffffffffff167f8be0079c531659141344cd1fd0a4f28419497f9722a3daafe3b4186f6b6457e060405160405180910390a360008060006101000a81548173ffffffffffffffffffffffffffffffffffffffff021916908373ffffffffffffffffffffffffffffffffffffffff160217905550565b60008060009054906101000a900473ffffffffffffffffffffffffffffffffffffffff16905090565b60008060009054906101000a900473ffffffffffffffffffffffffffffffffffffffff1673ffffffffffffffffffffffffffffffffffffffff163373ffffffffffffffffffffffffffffffffffffffff1614905090565b6000600660003373ffffffffffffffffffffffffffffffffffffffff1673ffffffffffffffffffffffffffffffffffffffff16815260200190815260200160002054146106f357600080fd5b60006106fe82610910565b905061070a828261072b565b5050565b610716610650565b61071f57600080fd5b61072881610955565b50565b60046040518060800160405280838152602001848152602001600163ffffffff1681526020016003544261075f91906111e9565b63ffffffff1681525090806001815401808255809150506001900390600052602060002090600302016000909190919091506000820151816000015560208201518160010190805190602001906107b7929190610a4b565b5060408201518160020160006101000a81548163ffffffff021916908363ffffffff16021790555060608201518160020160046101000a81548163ffffffff021916908363ffffffff16021790555050503360056000600160048054905061081f9190611324565b815260200190815260200160002060006101000a81548173ffffffffffffffffffffffffffffffffffffffff021916908373ffffffffffffffffffffffffffffffffffffffff160217905550600660003373ffffffffffffffffffffffffffffffffffffffff1673ffffffffffffffffffffffffffffffffffffffff16815260200190815260200160002060008154809291906108bb90611358565b91905055507f88f026aacbbecc90c18411df4b1185fd8d9be2470f1962f192bf84a27d0704b760016004805490506108f39190611324565b8383604051610904939291906113a0565b60405180910390a15050565b60008082604051602001610924919061130d565b6040516020818303038152906040528051906020012060001c90506002548161094d9190611189565b915050919050565b600073ffffffffffffffffffffffffffffffffffffffff168173ffffffffffffffffffffffffffffffffffffffff160361098e57600080fd5b8073ffffffffffffffffffffffffffffffffffffffff1660008054906101000a900473ffffffffffffffffffffffffffffffffffffffff1673ffffffffffffffffffffffffffffffffffffffff167f8be0079c531659141344cd1fd0a4f28419497f9722a3daafe3b4186f6b6457e060405160405180910390a3806000806101000a81548173ffffffffffffffffffffffffffffffffffffffff021916908373ffffffffffffffffffffffffffffffffffffffff16021790555050565b828054610a57906110fa565b90600052602060002090601f016020900481019282610a795760008555610ac0565b82601f10610a9257805160ff1916838001178555610ac0565b82800160010185558215610ac0579182015b82811115610abf578251825591602001919060010190610aa4565b5b509050610acd9190610ad1565b5090565b5b80821115610aea576000816000905550600101610ad2565b5090565b6000604051905090565b600080fd5b600080fd5b6000819050919050565b610b1581610b02565b8114610b2057600080fd5b50565b600081359050610b3281610b0c565b92915050565b60008060408385031215610b4f57610b4e610af8565b5b6000610b5d85828601610b23565b9250506020610b6e85828601610b23565b9150509250929050565b600060208284031215610b8e57610b8d610af8565b5b6000610b9c84828501610b23565b91505092915050565b610bae81610b02565b82525050565b600081519050919050565b600082825260208201905092915050565b60005b83811015610bee578082015181840152602081019050610bd3565b83811115610bfd576000848401525b50505050565b6000601f19601f8301169050919050565b6000610c1f82610bb4565b610c298185610bbf565b9350610c39818560208601610bd0565b610c4281610c03565b840191505092915050565b600063ffffffff82169050919050565b610c6681610c4d565b82525050565b6000608082019050610c816000830187610ba5565b8181036020830152610c938186610c14565b9050610ca26040830185610c5d565b610caf6060830184610c5d565b95945050505050565b600073ffffffffffffffffffffffffffffffffffffffff82169050919050565b6000610ce382610cb8565b9050919050565b610cf381610cd8565b8114610cfe57600080fd5b50565b600081359050610d1081610cea565b92915050565b600060208284031215610d2c57610d2b610af8565b5b6000610d3a84828501610d01565b91505092915050565b600080fd5b600080fd5b7f4e487b7100000000000000000000000000000000000000000000000000000000600052604160045260246000fd5b610d8582610c03565b810181811067ffffffffffffffff82111715610da457610da3610d4d565b5b80604052505050565b6000610db7610aee565b9050610dc38282610d7c565b919050565b600067ffffffffffffffff821115610de357610de2610d4d565b5b610dec82610c03565b9050602081019050919050565b82818337600083830152505050565b6000610e1b610e1684610dc8565b610dad565b905082815260208101848484011115610e3757610e36610d48565b5b610e42848285610df9565b509392505050565b600082601f830112610e5f57610e5e610d43565b5b8135610e6f848260208601610e08565b91505092915050565b600080600060608486031215610e9157610e90610af8565b5b6000610e9f86828701610b23565b9350506020610eb086828701610b23565b925050604084013567ffffffffffffffff811115610ed157610ed0610afd565b5b610edd86828701610e4a565b9150509250925092565b610ef081610cd8565b82525050565b6000602082019050610f0b6000830184610ee7565b92915050565b60008115159050919050565b610f2681610f11565b82525050565b6000602082019050610f416000830184610f1d565b92915050565b600060208284031215610f5d57610f5c610af8565b5b600082013567ffffffffffffffff811115610f7b57610f7a610afd565b5b610f8784828501610e4a565b91505092915050565b6000602082019050610fa56000830184610ba5565b92915050565b610fb481610f11565b8114610fbf57600080fd5b50565b600081519050610fd181610fab565b92915050565b600081519050610fe681610b0c565b92915050565b6000806000806000806000806000806101408b8d0312156110105761100f610af8565b5b600061101e8d828e01610fc2565b9a5050602061102f8d828e01610fc2565b99505060406110408d828e01610fd7565b98505060606110518d828e01610fd7565b97505060806110628d828e01610fd7565b96505060a06110738d828e01610fd7565b95505060c06110848d828e01610fd7565b94505060e06110958d828e01610fd7565b9350506101006110a78d828e01610fd7565b9250506101206110b98d828e01610fd7565b9150509295989b9194979a5092959850565b7f4e487b7100000000000000000000000000000000000000000000000000000000600052602260045260246000fd5b6000600282049050600182168061111257607f821691505b602082108103611125576111246110cb565b5b50919050565b7f4e487b7100000000000000000000000000000000000000000000000000000000600052603260045260246000fd5b7f4e487b7100000000000000000000000000000000000000000000000000000000600052601260045260246000fd5b600061119482610b02565b915061119f83610b02565b9250826111af576111ae61115a565b5b828206905092915050565b7f4e487b7100000000000000000000000000000000000000000000000000000000600052601160045260246000fd5b60006111f482610b02565b91506111ff83610b02565b9250827fffffffffffffffffffffffffffffffffffffffffffffffffffffffffffffffff03821115611234576112336111ba565b5b828201905092915050565b600061124a82610b02565b915061125583610b02565b9250826112655761126461115a565b5b828204905092915050565b600081905092915050565b7f6b69747479000000000000000000000000000000000000000000000000000000600082015250565b60006112b1600583611270565b91506112bc8261127b565b600582019050919050565b60006112d2826112a4565b9150819050919050565b60006112e782610bb4565b6112f18185611270565b9350611301818560208601610bd0565b80840191505092915050565b600061131982846112dc565b915081905092915050565b600061132f82610b02565b915061133a83610b02565b92508282101561134d5761134c6111ba565b5b828203905092915050565b600061136382610b02565b91507fffffffffffffffffffffffffffffffffffffffffffffffffffffffffffffffff8203611395576113946111ba565b5b600182019050919050565b60006060820190506113b56000830186610ba5565b81810360208301526113c78185610c14565b90506113d66040830184610ba5565b94935050505056fea2646970667358221220377e6d1739f7592fdb9db88c87bc37662cb85da642fd2888e52f7c842214f4ef64736f6c634300080e0033",
					"opcodes": "PUSH1 0x80 PUSH1 0x40 MSTORE PUSH1 0x10 PUSH1 0x1 SSTORE PUSH1 0x1 SLOAD PUSH1 0xA PUSH3 0x1A SWAP2 SWAP1 PUSH3 0x280 JUMP JUMPDEST PUSH1 0x2 SSTORE PUSH3 0x15180 PUSH1 0x3 SSTORE CALLVALUE DUP1 ISZERO PUSH3 0x31 JUMPI PUSH1 0x0 DUP1 REVERT JUMPDEST POP CALLER PUSH1 0x0 DUP1 PUSH2 0x100 EXP DUP2 SLOAD DUP2 PUSH20 0xFFFFFFFFFFFFFFFFFFFFFFFFFFFFFFFFFFFFFFFF MUL NOT AND SWAP1 DUP4 PUSH20 0xFFFFFFFFFFFFFFFFFFFFFFFFFFFFFFFFFFFFFFFF AND MUL OR SWAP1 SSTORE POP PUSH1 0x0 DUP1 SLOAD SWAP1 PUSH2 0x100 EXP SWAP1 DIV PUSH20 0xFFFFFFFFFFFFFFFFFFFFFFFFFFFFFFFFFFFFFFFF AND PUSH20 0xFFFFFFFFFFFFFFFFFFFFFFFFFFFFFFFFFFFFFFFF AND PUSH1 0x0 PUSH20 0xFFFFFFFFFFFFFFFFFFFFFFFFFFFFFFFFFFFFFFFF AND PUSH32 0x8BE0079C531659141344CD1FD0A4F28419497F9722A3DAAFE3B4186F6B6457E0 PUSH1 0x40 MLOAD PUSH1 0x40 MLOAD DUP1 SWAP2 SUB SWAP1 LOG3 PUSH3 0x2D1 JUMP JUMPDEST PUSH32 0x4E487B7100000000000000000000000000000000000000000000000000000000 PUSH1 0x0 MSTORE PUSH1 0x11 PUSH1 0x4 MSTORE PUSH1 0x24 PUSH1 0x0 REVERT JUMPDEST PUSH1 0x0 DUP2 PUSH1 0x1 SHR SWAP1 POP SWAP2 SWAP1 POP JUMP JUMPDEST PUSH1 0x0 DUP1 DUP3 SWAP2 POP DUP4 SWAP1 POP JUMPDEST PUSH1 0x1 DUP6 GT ISZERO PUSH3 0x181 JUMPI DUP1 DUP7 DIV DUP2 GT ISZERO PUSH3 0x159 JUMPI PUSH3 0x158 PUSH3 0xF3 JUMP JUMPDEST JUMPDEST PUSH1 0x1 DUP6 AND ISZERO PUSH3 0x169 JUMPI DUP1 DUP3 MUL SWAP2 POP JUMPDEST DUP1 DUP2 MUL SWAP1 POP PUSH3 0x179 DUP6 PUSH3 0x122 JUMP JUMPDEST SWAP5 POP PUSH3 0x139 JUMP JUMPDEST SWAP5 POP SWAP5 SWAP3 POP POP POP JUMP JUMPDEST PUSH1 0x0 DUP3 PUSH3 0x19C JUMPI PUSH1 0x1 SWAP1 POP PUSH3 0x26F JUMP JUMPDEST DUP2 PUSH3 0x1AC JUMPI PUSH1 0x0 SWAP1 POP PUSH3 0x26F JUMP JUMPDEST DUP2 PUSH1 0x1 DUP2 EQ PUSH3 0x1C5 JUMPI PUSH1 0x2 DUP2 EQ PUSH3 0x1D0 JUMPI PUSH3 0x206 JUMP JUMPDEST PUSH1 0x1 SWAP2 POP POP PUSH3 0x26F JUMP JUMPDEST PUSH1 0xFF DUP5 GT ISZERO PUSH3 0x1E5 JUMPI PUSH3 0x1E4 PUSH3 0xF3 JUMP JUMPDEST JUMPDEST DUP4 PUSH1 0x2 EXP SWAP2 POP DUP5 DUP3 GT ISZERO PUSH3 0x1FF JUMPI PUSH3 0x1FE PUSH3 0xF3 JUMP JUMPDEST JUMPDEST POP PUSH3 0x26F JUMP JUMPDEST POP PUSH1 0x20 DUP4 LT PUSH2 0x133 DUP4 LT AND PUSH1 0x4E DUP5 LT PUSH1 0xB DUP5 LT AND OR ISZERO PUSH3 0x240 JUMPI DUP3 DUP3 EXP SWAP1 POP DUP4 DUP2 GT ISZERO PUSH3 0x23A JUMPI PUSH3 0x239 PUSH3 0xF3 JUMP JUMPDEST JUMPDEST PUSH3 0x26F JUMP JUMPDEST PUSH3 0x24F DUP5 DUP5 DUP5 PUSH1 0x1 PUSH3 0x12F JUMP JUMPDEST SWAP3 POP SWAP1 POP DUP2 DUP5 DIV DUP2 GT ISZERO PUSH3 0x269 JUMPI PUSH3 0x268 PUSH3 0xF3 JUMP JUMPDEST JUMPDEST DUP2 DUP2 MUL SWAP1 POP JUMPDEST SWAP4 SWAP3 POP POP POP JUMP JUMPDEST PUSH1 0x0 DUP2 SWAP1 POP SWAP2 SWAP1 POP JUMP JUMPDEST PUSH1 0x0 PUSH3 0x28D DUP3 PUSH3 0x276 JUMP JUMPDEST SWAP2 POP PUSH3 0x29A DUP4 PUSH3 0x276 JUMP JUMPDEST SWAP3 POP PUSH3 0x2C9 PUSH32 0xFFFFFFFFFFFFFFFFFFFFFFFFFFFFFFFFFFFFFFFFFFFFFFFFFFFFFFFFFFFFFFFF DUP5 DUP5 PUSH3 0x18A JUMP JUMPDEST SWAP1 POP SWAP3 SWAP2 POP POP JUMP JUMPDEST PUSH2 0x1414 DUP1 PUSH3 0x2E1 PUSH1 0x0 CODECOPY PUSH1 0x0 RETURN INVALID PUSH1 0x80 PUSH1 0x40 MSTORE CALLVALUE DUP1 ISZERO PUSH2 0x10 JUMPI PUSH1 0x0 DUP1 REVERT JUMPDEST POP PUSH1 0x4 CALLDATASIZE LT PUSH2 0x93 JUMPI PUSH1 0x0 CALLDATALOAD PUSH1 0xE0 SHR DUP1 PUSH4 0x715018A6 GT PUSH2 0x66 JUMPI DUP1 PUSH4 0x715018A6 EQ PUSH2 0x11F JUMPI DUP1 PUSH4 0x8DA5CB5B EQ PUSH2 0x129 JUMPI DUP1 PUSH4 0x8F32D59B EQ PUSH2 0x147 JUMPI DUP1 PUSH4 0xC6F15112 EQ PUSH2 0x165 JUMPI DUP1 PUSH4 0xF2FDE38B EQ PUSH2 0x181 JUMPI PUSH2 0x93 JUMP JUMPDEST DUP1 PUSH4 0x17A7F4CC EQ PUSH2 0x98 JUMPI DUP1 PUSH4 0x2052465E EQ PUSH2 0xB4 JUMPI DUP1 PUSH4 0x5F4623F1 EQ PUSH2 0xE7 JUMPI DUP1 PUSH4 0x6B0BFC80 EQ PUSH2 0x103 JUMPI JUMPDEST PUSH1 0x0 DUP1 REVERT JUMPDEST PUSH2 0xB2 PUSH1 0x4 DUP1 CALLDATASIZE SUB DUP2 ADD SWAP1 PUSH2 0xAD SWAP2 SWAP1 PUSH2 0xB38 JUMP JUMPDEST PUSH2 0x19D JUMP JUMPDEST STOP JUMPDEST PUSH2 0xCE PUSH1 0x4 DUP1 CALLDATASIZE SUB DUP2 ADD SWAP1 PUSH2 0xC9 SWAP2 SWAP1 PUSH2 0xB78 JUMP JUMPDEST PUSH2 0x2BB JUMP JUMPDEST PUSH1 0x40 MLOAD PUSH2 0xDE SWAP5 SWAP4 SWAP3 SWAP2 SWAP1 PUSH2 0xC6C JUMP JUMPDEST PUSH1 0x40 MLOAD DUP1 SWAP2 SUB SWAP1 RETURN JUMPDEST PUSH2 0x101 PUSH1 0x4 DUP1 CALLDATASIZE SUB DUP2 ADD SWAP1 PUSH2 0xFC SWAP2 SWAP1 PUSH2 0xD16 JUMP JUMPDEST PUSH2 0x3A3 JUMP JUMPDEST STOP JUMPDEST PUSH2 0x11D PUSH1 0x4 DUP1 CALLDATASIZE SUB DUP2 ADD SWAP1 PUSH2 0x118 SWAP2 SWAP1 PUSH2 0xE78 JUMP JUMPDEST PUSH2 0x3F8 JUMP JUMPDEST STOP JUMPDEST PUSH2 0x127 PUSH2 0x558 JUMP JUMPDEST STOP JUMPDEST PUSH2 0x131 PUSH2 0x627 JUMP JUMPDEST PUSH1 0x40 MLOAD PUSH2 0x13E SWAP2 SWAP1 PUSH2 0xEF6 JUMP JUMPDEST PUSH1 0x40 MLOAD DUP1 SWAP2 SUB SWAP1 RETURN JUMPDEST PUSH2 0x14F PUSH2 0x650 JUMP JUMPDEST PUSH1 0x40 MLOAD PUSH2 0x15C SWAP2 SWAP1 PUSH2 0xF2C JUMP JUMPDEST PUSH1 0x40 MLOAD DUP1 SWAP2 SUB SWAP1 RETURN JUMPDEST PUSH2 0x17F PUSH1 0x4 DUP1 CALLDATASIZE SUB DUP2 ADD SWAP1 PUSH2 0x17A SWAP2 SWAP1 PUSH2 0xF47 JUMP JUMPDEST PUSH2 0x6A7 JUMP JUMPDEST STOP JUMPDEST PUSH2 0x19B PUSH1 0x4 DUP1 CALLDATASIZE SUB DUP2 ADD SWAP1 PUSH2 0x196 SWAP2 SWAP1 PUSH2 0xD16 JUMP JUMPDEST PUSH2 0x70E JUMP JUMPDEST STOP JUMPDEST PUSH1 0x0 PUSH1 0x7 PUSH1 0x0 SWAP1 SLOAD SWAP1 PUSH2 0x100 EXP SWAP1 DIV PUSH20 0xFFFFFFFFFFFFFFFFFFFFFFFFFFFFFFFFFFFFFFFF AND PUSH20 0xFFFFFFFFFFFFFFFFFFFFFFFFFFFFFFFFFFFFFFFF AND PUSH4 0xE98B7F4D DUP4 PUSH1 0x40 MLOAD DUP3 PUSH4 0xFFFFFFFF AND PUSH1 0xE0 SHL DUP2 MSTORE PUSH1 0x4 ADD PUSH2 0x1FA SWAP2 SWAP1 PUSH2 0xF90 JUMP JUMPDEST PUSH2 0x140 PUSH1 0x40 MLOAD DUP1 DUP4 SUB DUP2 DUP7 GAS STATICCALL ISZERO DUP1 ISZERO PUSH2 0x218 JUMPI RETURNDATASIZE PUSH1 0x0 DUP1 RETURNDATACOPY RETURNDATASIZE PUSH1 0x0 REVERT JUMPDEST POP POP POP POP PUSH1 0x40 MLOAD RETURNDATASIZE PUSH1 0x1F NOT PUSH1 0x1F DUP3 ADD AND DUP3 ADD DUP1 PUSH1 0x40 MSTORE POP DUP2 ADD SWAP1 PUSH2 0x23C SWAP2 SWAP1 PUSH2 0xFEC JUMP JUMPDEST SWAP1 SWAP2 SWAP3 SWAP4 SWAP5 SWAP6 SWAP7 SWAP8 SWAP9 POP SWAP1 SWAP2 SWAP3 SWAP4 SWAP5 SWAP6 SWAP7 SWAP8 POP SWAP1 SWAP2 SWAP3 SWAP4 SWAP5 SWAP6 SWAP7 POP SWAP1 SWAP2 SWAP3 SWAP4 SWAP5 SWAP6 POP SWAP1 SWAP2 SWAP3 SWAP4 SWAP5 POP SWAP1 SWAP2 SWAP3 SWAP4 POP SWAP1 SWAP2 SWAP3 POP SWAP1 SWAP2 POP SWAP1 POP DUP1 SWAP2 POP POP PUSH2 0x2B6 DUP4 DUP3 PUSH1 0x40 MLOAD DUP1 PUSH1 0x40 ADD PUSH1 0x40 MSTORE DUP1 PUSH1 0x5 DUP2 MSTORE PUSH1 0x20 ADD PUSH32 0x6B69747479000000000000000000000000000000000000000000000000000000 DUP2 MSTORE POP PUSH2 0x3F8 JUMP JUMPDEST POP POP POP JUMP JUMPDEST PUSH1 0x4 DUP2 DUP2 SLOAD DUP2 LT PUSH2 0x2CB JUMPI PUSH1 0x0 DUP1 REVERT JUMPDEST SWAP1 PUSH1 0x0 MSTORE PUSH1 0x20 PUSH1 0x0 KECCAK256 SWAP1 PUSH1 0x3 MUL ADD PUSH1 0x0 SWAP2 POP SWAP1 POP DUP1 PUSH1 0x0 ADD SLOAD SWAP1 DUP1 PUSH1 0x1 ADD DUP1 SLOAD PUSH2 0x2F4 SWAP1 PUSH2 0x10FA JUMP JUMPDEST DUP1 PUSH1 0x1F ADD PUSH1 0x20 DUP1 SWAP2 DIV MUL PUSH1 0x20 ADD PUSH1 0x40 MLOAD SWAP1 DUP2 ADD PUSH1 0x40 MSTORE DUP1 SWAP3 SWAP2 SWAP1 DUP2 DUP2 MSTORE PUSH1 0x20 ADD DUP3 DUP1 SLOAD PUSH2 0x320 SWAP1 PUSH2 0x10FA JUMP JUMPDEST DUP1 ISZERO PUSH2 0x36D JUMPI DUP1 PUSH1 0x1F LT PUSH2 0x342 JUMPI PUSH2 0x100 DUP1 DUP4 SLOAD DIV MUL DUP4 MSTORE SWAP2 PUSH1 0x20 ADD SWAP2 PUSH2 0x36D JUMP JUMPDEST DUP3 ADD SWAP2 SWAP1 PUSH1 0x0 MSTORE PUSH1 0x20 PUSH1 0x0 KECCAK256 SWAP1 JUMPDEST DUP2 SLOAD DUP2 MSTORE SWAP1 PUSH1 0x1 ADD SWAP1 PUSH1 0x20 ADD DUP1 DUP4 GT PUSH2 0x350 JUMPI DUP3 SWAP1 SUB PUSH1 0x1F AND DUP3 ADD SWAP2 JUMPDEST POP POP POP POP POP SWAP1 DUP1 PUSH1 0x2 ADD PUSH1 0x0 SWAP1 SLOAD SWAP1 PUSH2 0x100 EXP SWAP1 DIV PUSH4 0xFFFFFFFF AND SWAP1 DUP1 PUSH1 0x2 ADD PUSH1 0x4 SWAP1 SLOAD SWAP1 PUSH2 0x100 EXP SWAP1 DIV PUSH4 0xFFFFFFFF AND SWAP1 POP DUP5 JUMP JUMPDEST PUSH2 0x3AB PUSH2 0x650 JUMP JUMPDEST PUSH2 0x3B4 JUMPI PUSH1 0x0 DUP1 REVERT JUMPDEST DUP1 PUSH1 0x7 PUSH1 0x0 PUSH2 0x100 EXP DUP2 SLOAD DUP2 PUSH20 0xFFFFFFFFFFFFFFFFFFFFFFFFFFFFFFFFFFFFFFFF MUL NOT AND SWAP1 DUP4 PUSH20 0xFFFFFFFFFFFFFFFFFFFFFFFFFFFFFFFFFFFFFFFF AND MUL OR SWAP1 SSTORE POP POP JUMP JUMPDEST PUSH1 0x0 PUSH1 0x6 PUSH1 0x0 CALLER PUSH20 0xFFFFFFFFFFFFFFFFFFFFFFFFFFFFFFFFFFFFFFFF AND PUSH20 0xFFFFFFFFFFFFFFFFFFFFFFFFFFFFFFFFFFFFFFFF AND DUP2 MSTORE PUSH1 0x20 ADD SWAP1 DUP2 MSTORE PUSH1 0x20 ADD PUSH1 0x0 KECCAK256 SLOAD EQ PUSH2 0x444 JUMPI PUSH1 0x0 DUP1 REVERT JUMPDEST PUSH1 0x0 PUSH1 0x4 DUP5 DUP2 SLOAD DUP2 LT PUSH2 0x45A JUMPI PUSH2 0x459 PUSH2 0x112B JUMP JUMPDEST JUMPDEST SWAP1 PUSH1 0x0 MSTORE PUSH1 0x20 PUSH1 0x0 KECCAK256 SWAP1 PUSH1 0x3 MUL ADD SWAP1 POP PUSH1 0x2 SLOAD DUP4 PUSH2 0x478 SWAP2 SWAP1 PUSH2 0x1189 JUMP JUMPDEST SWAP3 POP PUSH1 0x0 PUSH1 0x2 DUP3 PUSH1 0x0 ADD SLOAD DUP6 PUSH2 0x48E SWAP2 SWAP1 PUSH2 0x11E9 JUMP JUMPDEST PUSH2 0x498 SWAP2 SWAP1 PUSH2 0x123F JUMP JUMPDEST SWAP1 POP PUSH1 0x40 MLOAD PUSH1 0x20 ADD PUSH2 0x4A9 SWAP1 PUSH2 0x12C7 JUMP JUMPDEST PUSH1 0x40 MLOAD PUSH1 0x20 DUP2 DUP4 SUB SUB DUP2 MSTORE SWAP1 PUSH1 0x40 MSTORE DUP1 MLOAD SWAP1 PUSH1 0x20 ADD KECCAK256 DUP4 PUSH1 0x40 MLOAD PUSH1 0x20 ADD PUSH2 0x4D0 SWAP2 SWAP1 PUSH2 0x130D JUMP JUMPDEST PUSH1 0x40 MLOAD PUSH1 0x20 DUP2 DUP4 SUB SUB DUP2 MSTORE SWAP1 PUSH1 0x40 MSTORE DUP1 MLOAD SWAP1 PUSH1 0x20 ADD KECCAK256 SUB PUSH2 0x512 JUMPI PUSH1 0x63 PUSH1 0x64 DUP3 PUSH2 0x4FA SWAP2 SWAP1 PUSH2 0x1189 JUMP JUMPDEST DUP3 PUSH2 0x505 SWAP2 SWAP1 PUSH2 0x1324 JUMP JUMPDEST PUSH2 0x50F SWAP2 SWAP1 PUSH2 0x11E9 JUMP JUMPDEST SWAP1 POP JUMPDEST PUSH2 0x551 PUSH1 0x40 MLOAD DUP1 PUSH1 0x40 ADD PUSH1 0x40 MSTORE DUP1 PUSH1 0x6 DUP2 MSTORE PUSH1 0x20 ADD PUSH32 0x4E6F4E616D650000000000000000000000000000000000000000000000000000 DUP2 MSTORE POP DUP3 PUSH2 0x72B JUMP JUMPDEST POP POP POP POP POP JUMP JUMPDEST PUSH2 0x560 PUSH2 0x650 JUMP JUMPDEST PUSH2 0x569 JUMPI PUSH1 0x0 DUP1 REVERT JUMPDEST PUSH1 0x0 PUSH20 0xFFFFFFFFFFFFFFFFFFFFFFFFFFFFFFFFFFFFFFFF AND PUSH1 0x0 DUP1 SLOAD SWAP1 PUSH2 0x100 EXP SWAP1 DIV PUSH20 0xFFFFFFFFFFFFFFFFFFFFFFFFFFFFFFFFFFFFFFFF AND PUSH20 0xFFFFFFFFFFFFFFFFFFFFFFFFFFFFFFFFFFFFFFFF AND PUSH32 0x8BE0079C531659141344CD1FD0A4F28419497F9722A3DAAFE3B4186F6B6457E0 PUSH1 0x40 MLOAD PUSH1 0x40 MLOAD DUP1 SWAP2 SUB SWAP1 LOG3 PUSH1 0x0 DUP1 PUSH1 0x0 PUSH2 0x100 EXP DUP2 SLOAD DUP2 PUSH20 0xFFFFFFFFFFFFFFFFFFFFFFFFFFFFFFFFFFFFFFFF MUL NOT AND SWAP1 DUP4 PUSH20 0xFFFFFFFFFFFFFFFFFFFFFFFFFFFFFFFFFFFFFFFF AND MUL OR SWAP1 SSTORE POP JUMP JUMPDEST PUSH1 0x0 DUP1 PUSH1 0x0 SWAP1 SLOAD SWAP1 PUSH2 0x100 EXP SWAP1 DIV PUSH20 0xFFFFFFFFFFFFFFFFFFFFFFFFFFFFFFFFFFFFFFFF AND SWAP1 POP SWAP1 JUMP JUMPDEST PUSH1 0x0 DUP1 PUSH1 0x0 SWAP1 SLOAD SWAP1 PUSH2 0x100 EXP SWAP1 DIV PUSH20 0xFFFFFFFFFFFFFFFFFFFFFFFFFFFFFFFFFFFFFFFF AND PUSH20 0xFFFFFFFFFFFFFFFFFFFFFFFFFFFFFFFFFFFFFFFF AND CALLER PUSH20 0xFFFFFFFFFFFFFFFFFFFFFFFFFFFFFFFFFFFFFFFF AND EQ SWAP1 POP SWAP1 JUMP JUMPDEST PUSH1 0x0 PUSH1 0x6 PUSH1 0x0 CALLER PUSH20 0xFFFFFFFFFFFFFFFFFFFFFFFFFFFFFFFFFFFFFFFF AND PUSH20 0xFFFFFFFFFFFFFFFFFFFFFFFFFFFFFFFFFFFFFFFF AND DUP2 MSTORE PUSH1 0x20 ADD SWAP1 DUP2 MSTORE PUSH1 0x20 ADD PUSH1 0x0 KECCAK256 SLOAD EQ PUSH2 0x6F3 JUMPI PUSH1 0x0 DUP1 REVERT JUMPDEST PUSH1 0x0 PUSH2 0x6FE DUP3 PUSH2 0x910 JUMP JUMPDEST SWAP1 POP PUSH2 0x70A DUP3 DUP3 PUSH2 0x72B JUMP JUMPDEST POP POP JUMP JUMPDEST PUSH2 0x716 PUSH2 0x650 JUMP JUMPDEST PUSH2 0x71F JUMPI PUSH1 0x0 DUP1 REVERT JUMPDEST PUSH2 0x728 DUP2 PUSH2 0x955 JUMP JUMPDEST POP JUMP JUMPDEST PUSH1 0x4 PUSH1 0x40 MLOAD DUP1 PUSH1 0x80 ADD PUSH1 0x40 MSTORE DUP1 DUP4 DUP2 MSTORE PUSH1 0x20 ADD DUP5 DUP2 MSTORE PUSH1 0x20 ADD PUSH1 0x1 PUSH4 0xFFFFFFFF AND DUP2 MSTORE PUSH1 0x20 ADD PUSH1 0x3 SLOAD TIMESTAMP PUSH2 0x75F SWAP2 SWAP1 PUSH2 0x11E9 JUMP JUMPDEST PUSH4 0xFFFFFFFF AND DUP2 MSTORE POP SWAP1 DUP1 PUSH1 0x1 DUP2 SLOAD ADD DUP1 DUP3 SSTORE DUP1 SWAP2 POP POP PUSH1 0x1 SWAP1 SUB SWAP1 PUSH1 0x0 MSTORE PUSH1 0x20 PUSH1 0x0 KECCAK256 SWAP1 PUSH1 0x3 MUL ADD PUSH1 0x0 SWAP1 SWAP2 SWAP1 SWAP2 SWAP1 SWAP2 POP PUSH1 0x0 DUP3 ADD MLOAD DUP2 PUSH1 0x0 ADD SSTORE PUSH1 0x20 DUP3 ADD MLOAD DUP2 PUSH1 0x1 ADD SWAP1 DUP1 MLOAD SWAP1 PUSH1 0x20 ADD SWAP1 PUSH2 0x7B7 SWAP3 SWAP2 SWAP1 PUSH2 0xA4B JUMP JUMPDEST POP PUSH1 0x40 DUP3 ADD MLOAD DUP2 PUSH1 0x2 ADD PUSH1 0x0 PUSH2 0x100 EXP DUP2 SLOAD DUP2 PUSH4 0xFFFFFFFF MUL NOT AND SWAP1 DUP4 PUSH4 0xFFFFFFFF AND MUL OR SWAP1 SSTORE POP PUSH1 0x60 DUP3 ADD MLOAD DUP2 PUSH1 0x2 ADD PUSH1 0x4 PUSH2 0x100 EXP DUP2 SLOAD DUP2 PUSH4 0xFFFFFFFF MUL NOT AND SWAP1 DUP4 PUSH4 0xFFFFFFFF AND MUL OR SWAP1 SSTORE POP POP POP CALLER PUSH1 0x5 PUSH1 0x0 PUSH1 0x1 PUSH1 0x4 DUP1 SLOAD SWAP1 POP PUSH2 0x81F SWAP2 SWAP1 PUSH2 0x1324 JUMP JUMPDEST DUP2 MSTORE PUSH1 0x20 ADD SWAP1 DUP2 MSTORE PUSH1 0x20 ADD PUSH1 0x0 KECCAK256 PUSH1 0x0 PUSH2 0x100 EXP DUP2 SLOAD DUP2 PUSH20 0xFFFFFFFFFFFFFFFFFFFFFFFFFFFFFFFFFFFFFFFF MUL NOT AND SWAP1 DUP4 PUSH20 0xFFFFFFFFFFFFFFFFFFFFFFFFFFFFFFFFFFFFFFFF AND MUL OR SWAP1 SSTORE POP PUSH1 0x6 PUSH1 0x0 CALLER PUSH20 0xFFFFFFFFFFFFFFFFFFFFFFFFFFFFFFFFFFFFFFFF AND PUSH20 0xFFFFFFFFFFFFFFFFFFFFFFFFFFFFFFFFFFFFFFFF AND DUP2 MSTORE PUSH1 0x20 ADD SWAP1 DUP2 MSTORE PUSH1 0x20 ADD PUSH1 0x0 KECCAK256 PUSH1 0x0 DUP2 SLOAD DUP1 SWAP3 SWAP2 SWAP1 PUSH2 0x8BB SWAP1 PUSH2 0x1358 JUMP JUMPDEST SWAP2 SWAP1 POP SSTORE POP PUSH32 0x88F026AACBBECC90C18411DF4B1185FD8D9BE2470F1962F192BF84A27D0704B7 PUSH1 0x1 PUSH1 0x4 DUP1 SLOAD SWAP1 POP PUSH2 0x8F3 SWAP2 SWAP1 PUSH2 0x1324 JUMP JUMPDEST DUP4 DUP4 PUSH1 0x40 MLOAD PUSH2 0x904 SWAP4 SWAP3 SWAP2 SWAP1 PUSH2 0x13A0 JUMP JUMPDEST PUSH1 0x40 MLOAD DUP1 SWAP2 SUB SWAP1 LOG1 POP POP JUMP JUMPDEST PUSH1 0x0 DUP1 DUP3 PUSH1 0x40 MLOAD PUSH1 0x20 ADD PUSH2 0x924 SWAP2 SWAP1 PUSH2 0x130D JUMP JUMPDEST PUSH1 0x40 MLOAD PUSH1 0x20 DUP2 DUP4 SUB SUB DUP2 MSTORE SWAP1 PUSH1 0x40 MSTORE DUP1 MLOAD SWAP1 PUSH1 0x20 ADD KECCAK256 PUSH1 0x0 SHR SWAP1 POP PUSH1 0x2 SLOAD DUP2 PUSH2 0x94D SWAP2 SWAP1 PUSH2 0x1189 JUMP JUMPDEST SWAP2 POP POP SWAP2 SWAP1 POP JUMP JUMPDEST PUSH1 0x0 PUSH20 0xFFFFFFFFFFFFFFFFFFFFFFFFFFFFFFFFFFFFFFFF AND DUP2 PUSH20 0xFFFFFFFFFFFFFFFFFFFFFFFFFFFFFFFFFFFFFFFF AND SUB PUSH2 0x98E JUMPI PUSH1 0x0 DUP1 REVERT JUMPDEST DUP1 PUSH20 0xFFFFFFFFFFFFFFFFFFFFFFFFFFFFFFFFFFFFFFFF AND PUSH1 0x0 DUP1 SLOAD SWAP1 PUSH2 0x100 EXP SWAP1 DIV PUSH20 0xFFFFFFFFFFFFFFFFFFFFFFFFFFFFFFFFFFFFFFFF AND PUSH20 0xFFFFFFFFFFFFFFFFFFFFFFFFFFFFFFFFFFFFFFFF AND PUSH32 0x8BE0079C531659141344CD1FD0A4F28419497F9722A3DAAFE3B4186F6B6457E0 PUSH1 0x40 MLOAD PUSH1 0x40 MLOAD DUP1 SWAP2 SUB SWAP1 LOG3 DUP1 PUSH1 0x0 DUP1 PUSH2 0x100 EXP DUP2 SLOAD DUP2 PUSH20 0xFFFFFFFFFFFFFFFFFFFFFFFFFFFFFFFFFFFFFFFF MUL NOT AND SWAP1 DUP4 PUSH20 0xFFFFFFFFFFFFFFFFFFFFFFFFFFFFFFFFFFFFFFFF AND MUL OR SWAP1 SSTORE POP POP JUMP JUMPDEST DUP3 DUP1 SLOAD PUSH2 0xA57 SWAP1 PUSH2 0x10FA JUMP JUMPDEST SWAP1 PUSH1 0x0 MSTORE PUSH1 0x20 PUSH1 0x0 KECCAK256 SWAP1 PUSH1 0x1F ADD PUSH1 0x20 SWAP1 DIV DUP2 ADD SWAP3 DUP3 PUSH2 0xA79 JUMPI PUSH1 0x0 DUP6 SSTORE PUSH2 0xAC0 JUMP JUMPDEST DUP3 PUSH1 0x1F LT PUSH2 0xA92 JUMPI DUP1 MLOAD PUSH1 0xFF NOT AND DUP4 DUP1 ADD OR DUP6 SSTORE PUSH2 0xAC0 JUMP JUMPDEST DUP3 DUP1 ADD PUSH1 0x1 ADD DUP6 SSTORE DUP3 ISZERO PUSH2 0xAC0 JUMPI SWAP2 DUP3 ADD JUMPDEST DUP3 DUP2 GT ISZERO PUSH2 0xABF JUMPI DUP3 MLOAD DUP3 SSTORE SWAP2 PUSH1 0x20 ADD SWAP2 SWAP1 PUSH1 0x1 ADD SWAP1 PUSH2 0xAA4 JUMP JUMPDEST JUMPDEST POP SWAP1 POP PUSH2 0xACD SWAP2 SWAP1 PUSH2 0xAD1 JUMP JUMPDEST POP SWAP1 JUMP JUMPDEST JUMPDEST DUP1 DUP3 GT ISZERO PUSH2 0xAEA JUMPI PUSH1 0x0 DUP2 PUSH1 0x0 SWAP1 SSTORE POP PUSH1 0x1 ADD PUSH2 0xAD2 JUMP JUMPDEST POP SWAP1 JUMP JUMPDEST PUSH1 0x0 PUSH1 0x40 MLOAD SWAP1 POP SWAP1 JUMP JUMPDEST PUSH1 0x0 DUP1 REVERT JUMPDEST PUSH1 0x0 DUP1 REVERT JUMPDEST PUSH1 0x0 DUP2 SWAP1 POP SWAP2 SWAP1 POP JUMP JUMPDEST PUSH2 0xB15 DUP2 PUSH2 0xB02 JUMP JUMPDEST DUP2 EQ PUSH2 0xB20 JUMPI PUSH1 0x0 DUP1 REVERT JUMPDEST POP JUMP JUMPDEST PUSH1 0x0 DUP2 CALLDATALOAD SWAP1 POP PUSH2 0xB32 DUP2 PUSH2 0xB0C JUMP JUMPDEST SWAP3 SWAP2 POP POP JUMP JUMPDEST PUSH1 0x0 DUP1 PUSH1 0x40 DUP4 DUP6 SUB SLT ISZERO PUSH2 0xB4F JUMPI PUSH2 0xB4E PUSH2 0xAF8 JUMP JUMPDEST JUMPDEST PUSH1 0x0 PUSH2 0xB5D DUP6 DUP3 DUP7 ADD PUSH2 0xB23 JUMP JUMPDEST SWAP3 POP POP PUSH1 0x20 PUSH2 0xB6E DUP6 DUP3 DUP7 ADD PUSH2 0xB23 JUMP JUMPDEST SWAP2 POP POP SWAP3 POP SWAP3 SWAP1 POP JUMP JUMPDEST PUSH1 0x0 PUSH1 0x20 DUP3 DUP5 SUB SLT ISZERO PUSH2 0xB8E JUMPI PUSH2 0xB8D PUSH2 0xAF8 JUMP JUMPDEST JUMPDEST PUSH1 0x0 PUSH2 0xB9C DUP5 DUP3 DUP6 ADD PUSH2 0xB23 JUMP JUMPDEST SWAP2 POP POP SWAP3 SWAP2 POP POP JUMP JUMPDEST PUSH2 0xBAE DUP2 PUSH2 0xB02 JUMP JUMPDEST DUP3 MSTORE POP POP JUMP JUMPDEST PUSH1 0x0 DUP2 MLOAD SWAP1 POP SWAP2 SWAP1 POP JUMP JUMPDEST PUSH1 0x0 DUP3 DUP3 MSTORE PUSH1 0x20 DUP3 ADD SWAP1 POP SWAP3 SWAP2 POP POP JUMP JUMPDEST PUSH1 0x0 JUMPDEST DUP4 DUP2 LT ISZERO PUSH2 0xBEE JUMPI DUP1 DUP3 ADD MLOAD DUP2 DUP5 ADD MSTORE PUSH1 0x20 DUP2 ADD SWAP1 POP PUSH2 0xBD3 JUMP JUMPDEST DUP4 DUP2 GT ISZERO PUSH2 0xBFD JUMPI PUSH1 0x0 DUP5 DUP5 ADD MSTORE JUMPDEST POP POP POP POP JUMP JUMPDEST PUSH1 0x0 PUSH1 0x1F NOT PUSH1 0x1F DUP4 ADD AND SWAP1 POP SWAP2 SWAP1 POP JUMP JUMPDEST PUSH1 0x0 PUSH2 0xC1F DUP3 PUSH2 0xBB4 JUMP JUMPDEST PUSH2 0xC29 DUP2 DUP6 PUSH2 0xBBF JUMP JUMPDEST SWAP4 POP PUSH2 0xC39 DUP2 DUP6 PUSH1 0x20 DUP7 ADD PUSH2 0xBD0 JUMP JUMPDEST PUSH2 0xC42 DUP2 PUSH2 0xC03 JUMP JUMPDEST DUP5 ADD SWAP2 POP POP SWAP3 SWAP2 POP POP JUMP JUMPDEST PUSH1 0x0 PUSH4 0xFFFFFFFF DUP3 AND SWAP1 POP SWAP2 SWAP1 POP JUMP JUMPDEST PUSH2 0xC66 DUP2 PUSH2 0xC4D JUMP JUMPDEST DUP3 MSTORE POP POP JUMP JUMPDEST PUSH1 0x0 PUSH1 0x80 DUP3 ADD SWAP1 POP PUSH2 0xC81 PUSH1 0x0 DUP4 ADD DUP8 PUSH2 0xBA5 JUMP JUMPDEST DUP2 DUP2 SUB PUSH1 0x20 DUP4 ADD MSTORE PUSH2 0xC93 DUP2 DUP7 PUSH2 0xC14 JUMP JUMPDEST SWAP1 POP PUSH2 0xCA2 PUSH1 0x40 DUP4 ADD DUP6 PUSH2 0xC5D JUMP JUMPDEST PUSH2 0xCAF PUSH1 0x60 DUP4 ADD DUP5 PUSH2 0xC5D JUMP JUMPDEST SWAP6 SWAP5 POP POP POP POP POP JUMP JUMPDEST PUSH1 0x0 PUSH20 0xFFFFFFFFFFFFFFFFFFFFFFFFFFFFFFFFFFFFFFFF DUP3 AND SWAP1 POP SWAP2 SWAP1 POP JUMP JUMPDEST PUSH1 0x0 PUSH2 0xCE3 DUP3 PUSH2 0xCB8 JUMP JUMPDEST SWAP1 POP SWAP2 SWAP1 POP JUMP JUMPDEST PUSH2 0xCF3 DUP2 PUSH2 0xCD8 JUMP JUMPDEST DUP2 EQ PUSH2 0xCFE JUMPI PUSH1 0x0 DUP1 REVERT JUMPDEST POP JUMP JUMPDEST PUSH1 0x0 DUP2 CALLDATALOAD SWAP1 POP PUSH2 0xD10 DUP2 PUSH2 0xCEA JUMP JUMPDEST SWAP3 SWAP2 POP POP JUMP JUMPDEST PUSH1 0x0 PUSH1 0x20 DUP3 DUP5 SUB SLT ISZERO PUSH2 0xD2C JUMPI PUSH2 0xD2B PUSH2 0xAF8 JUMP JUMPDEST JUMPDEST PUSH1 0x0 PUSH2 0xD3A DUP5 DUP3 DUP6 ADD PUSH2 0xD01 JUMP JUMPDEST SWAP2 POP POP SWAP3 SWAP2 POP POP JUMP JUMPDEST PUSH1 0x0 DUP1 REVERT JUMPDEST PUSH1 0x0 DUP1 REVERT JUMPDEST PUSH32 0x4E487B7100000000000000000000000000000000000000000000000000000000 PUSH1 0x0 MSTORE PUSH1 0x41 PUSH1 0x4 MSTORE PUSH1 0x24 PUSH1 0x0 REVERT JUMPDEST PUSH2 0xD85 DUP3 PUSH2 0xC03 JUMP JUMPDEST DUP2 ADD DUP2 DUP2 LT PUSH8 0xFFFFFFFFFFFFFFFF DUP3 GT OR ISZERO PUSH2 0xDA4 JUMPI PUSH2 0xDA3 PUSH2 0xD4D JUMP JUMPDEST JUMPDEST DUP1 PUSH1 0x40 MSTORE POP POP POP JUMP JUMPDEST PUSH1 0x0 PUSH2 0xDB7 PUSH2 0xAEE JUMP JUMPDEST SWAP1 POP PUSH2 0xDC3 DUP3 DUP3 PUSH2 0xD7C JUMP JUMPDEST SWAP2 SWAP1 POP JUMP JUMPDEST PUSH1 0x0 PUSH8 0xFFFFFFFFFFFFFFFF DUP3 GT ISZERO PUSH2 0xDE3 JUMPI PUSH2 0xDE2 PUSH2 0xD4D JUMP JUMPDEST JUMPDEST PUSH2 0xDEC DUP3 PUSH2 0xC03 JUMP JUMPDEST SWAP1 POP PUSH1 0x20 DUP2 ADD SWAP1 POP SWAP2 SWAP1 POP JUMP JUMPDEST DUP3 DUP2 DUP4 CALLDATACOPY PUSH1 0x0 DUP4 DUP4 ADD MSTORE POP POP POP JUMP JUMPDEST PUSH1 0x0 PUSH2 0xE1B PUSH2 0xE16 DUP5 PUSH2 0xDC8 JUMP JUMPDEST PUSH2 0xDAD JUMP JUMPDEST SWAP1 POP DUP3 DUP2 MSTORE PUSH1 0x20 DUP2 ADD DUP5 DUP5 DUP5 ADD GT ISZERO PUSH2 0xE37 JUMPI PUSH2 0xE36 PUSH2 0xD48 JUMP JUMPDEST JUMPDEST PUSH2 0xE42 DUP5 DUP3 DUP6 PUSH2 0xDF9 JUMP JUMPDEST POP SWAP4 SWAP3 POP POP POP JUMP JUMPDEST PUSH1 0x0 DUP3 PUSH1 0x1F DUP4 ADD SLT PUSH2 0xE5F JUMPI PUSH2 0xE5E PUSH2 0xD43 JUMP JUMPDEST JUMPDEST DUP2 CALLDATALOAD PUSH2 0xE6F DUP5 DUP3 PUSH1 0x20 DUP7 ADD PUSH2 0xE08 JUMP JUMPDEST SWAP2 POP POP SWAP3 SWAP2 POP POP JUMP JUMPDEST PUSH1 0x0 DUP1 PUSH1 0x0 PUSH1 0x60 DUP5 DUP7 SUB SLT ISZERO PUSH2 0xE91 JUMPI PUSH2 0xE90 PUSH2 0xAF8 JUMP JUMPDEST JUMPDEST PUSH1 0x0 PUSH2 0xE9F DUP7 DUP3 DUP8 ADD PUSH2 0xB23 JUMP JUMPDEST SWAP4 POP POP PUSH1 0x20 PUSH2 0xEB0 DUP7 DUP3 DUP8 ADD PUSH2 0xB23 JUMP JUMPDEST SWAP3 POP POP PUSH1 0x40 DUP5 ADD CALLDATALOAD PUSH8 0xFFFFFFFFFFFFFFFF DUP2 GT ISZERO PUSH2 0xED1 JUMPI PUSH2 0xED0 PUSH2 0xAFD JUMP JUMPDEST JUMPDEST PUSH2 0xEDD DUP7 DUP3 DUP8 ADD PUSH2 0xE4A JUMP JUMPDEST SWAP2 POP POP SWAP3 POP SWAP3 POP SWAP3 JUMP JUMPDEST PUSH2 0xEF0 DUP2 PUSH2 0xCD8 JUMP JUMPDEST DUP3 MSTORE POP POP JUMP JUMPDEST PUSH1 0x0 PUSH1 0x20 DUP3 ADD SWAP1 POP PUSH2 0xF0B PUSH1 0x0 DUP4 ADD DUP5 PUSH2 0xEE7 JUMP JUMPDEST SWAP3 SWAP2 POP POP JUMP JUMPDEST PUSH1 0x0 DUP2 ISZERO ISZERO SWAP1 POP SWAP2 SWAP1 POP JUMP JUMPDEST PUSH2 0xF26 DUP2 PUSH2 0xF11 JUMP JUMPDEST DUP3 MSTORE POP POP JUMP JUMPDEST PUSH1 0x0 PUSH1 0x20 DUP3 ADD SWAP1 POP PUSH2 0xF41 PUSH1 0x0 DUP4 ADD DUP5 PUSH2 0xF1D JUMP JUMPDEST SWAP3 SWAP2 POP POP JUMP JUMPDEST PUSH1 0x0 PUSH1 0x20 DUP3 DUP5 SUB SLT ISZERO PUSH2 0xF5D JUMPI PUSH2 0xF5C PUSH2 0xAF8 JUMP JUMPDEST JUMPDEST PUSH1 0x0 DUP3 ADD CALLDATALOAD PUSH8 0xFFFFFFFFFFFFFFFF DUP2 GT ISZERO PUSH2 0xF7B JUMPI PUSH2 0xF7A PUSH2 0xAFD JUMP JUMPDEST JUMPDEST PUSH2 0xF87 DUP5 DUP3 DUP6 ADD PUSH2 0xE4A JUMP JUMPDEST SWAP2 POP POP SWAP3 SWAP2 POP POP JUMP JUMPDEST PUSH1 0x0 PUSH1 0x20 DUP3 ADD SWAP1 POP PUSH2 0xFA5 PUSH1 0x0 DUP4 ADD DUP5 PUSH2 0xBA5 JUMP JUMPDEST SWAP3 SWAP2 POP POP JUMP JUMPDEST PUSH2 0xFB4 DUP2 PUSH2 0xF11 JUMP JUMPDEST DUP2 EQ PUSH2 0xFBF JUMPI PUSH1 0x0 DUP1 REVERT JUMPDEST POP JUMP JUMPDEST PUSH1 0x0 DUP2 MLOAD SWAP1 POP PUSH2 0xFD1 DUP2 PUSH2 0xFAB JUMP JUMPDEST SWAP3 SWAP2 POP POP JUMP JUMPDEST PUSH1 0x0 DUP2 MLOAD SWAP1 POP PUSH2 0xFE6 DUP2 PUSH2 0xB0C JUMP JUMPDEST SWAP3 SWAP2 POP POP JUMP JUMPDEST PUSH1 0x0 DUP1 PUSH1 0x0 DUP1 PUSH1 0x0 DUP1 PUSH1 0x0 DUP1 PUSH1 0x0 DUP1 PUSH2 0x140 DUP12 DUP14 SUB SLT ISZERO PUSH2 0x1010 JUMPI PUSH2 0x100F PUSH2 0xAF8 JUMP JUMPDEST JUMPDEST PUSH1 0x0 PUSH2 0x101E DUP14 DUP3 DUP15 ADD PUSH2 0xFC2 JUMP JUMPDEST SWAP11 POP POP PUSH1 0x20 PUSH2 0x102F DUP14 DUP3 DUP15 ADD PUSH2 0xFC2 JUMP JUMPDEST SWAP10 POP POP PUSH1 0x40 PUSH2 0x1040 DUP14 DUP3 DUP15 ADD PUSH2 0xFD7 JUMP JUMPDEST SWAP9 POP POP PUSH1 0x60 PUSH2 0x1051 DUP14 DUP3 DUP15 ADD PUSH2 0xFD7 JUMP JUMPDEST SWAP8 POP POP PUSH1 0x80 PUSH2 0x1062 DUP14 DUP3 DUP15 ADD PUSH2 0xFD7 JUMP JUMPDEST SWAP7 POP POP PUSH1 0xA0 PUSH2 0x1073 DUP14 DUP3 DUP15 ADD PUSH2 0xFD7 JUMP JUMPDEST SWAP6 POP POP PUSH1 0xC0 PUSH2 0x1084 DUP14 DUP3 DUP15 ADD PUSH2 0xFD7 JUMP JUMPDEST SWAP5 POP POP PUSH1 0xE0 PUSH2 0x1095 DUP14 DUP3 DUP15 ADD PUSH2 0xFD7 JUMP JUMPDEST SWAP4 POP POP PUSH2 0x100 PUSH2 0x10A7 DUP14 DUP3 DUP15 ADD PUSH2 0xFD7 JUMP JUMPDEST SWAP3 POP POP PUSH2 0x120 PUSH2 0x10B9 DUP14 DUP3 DUP15 ADD PUSH2 0xFD7 JUMP JUMPDEST SWAP2 POP POP SWAP3 SWAP6 SWAP9 SWAP12 SWAP2 SWAP5 SWAP8 SWAP11 POP SWAP3 SWAP6 SWAP9 POP JUMP JUMPDEST PUSH32 0x4E487B7100000000000000000000000000000000000000000000000000000000 PUSH1 0x0 MSTORE PUSH1 0x22 PUSH1 0x4 MSTORE PUSH1 0x24 PUSH1 0x0 REVERT JUMPDEST PUSH1 0x0 PUSH1 0x2 DUP3 DIV SWAP1 POP PUSH1 0x1 DUP3 AND DUP1 PUSH2 0x1112 JUMPI PUSH1 0x7F DUP3 AND SWAP2 POP JUMPDEST PUSH1 0x20 DUP3 LT DUP2 SUB PUSH2 0x1125 JUMPI PUSH2 0x1124 PUSH2 0x10CB JUMP JUMPDEST JUMPDEST POP SWAP2 SWAP1 POP JUMP JUMPDEST PUSH32 0x4E487B7100000000000000000000000000000000000000000000000000000000 PUSH1 0x0 MSTORE PUSH1 0x32 PUSH1 0x4 MSTORE PUSH1 0x24 PUSH1 0x0 REVERT JUMPDEST PUSH32 0x4E487B7100000000000000000000000000000000000000000000000000000000 PUSH1 0x0 MSTORE PUSH1 0x12 PUSH1 0x4 MSTORE PUSH1 0x24 PUSH1 0x0 REVERT JUMPDEST PUSH1 0x0 PUSH2 0x1194 DUP3 PUSH2 0xB02 JUMP JUMPDEST SWAP2 POP PUSH2 0x119F DUP4 PUSH2 0xB02 JUMP JUMPDEST SWAP3 POP DUP3 PUSH2 0x11AF JUMPI PUSH2 0x11AE PUSH2 0x115A JUMP JUMPDEST JUMPDEST DUP3 DUP3 MOD SWAP1 POP SWAP3 SWAP2 POP POP JUMP JUMPDEST PUSH32 0x4E487B7100000000000000000000000000000000000000000000000000000000 PUSH1 0x0 MSTORE PUSH1 0x11 PUSH1 0x4 MSTORE PUSH1 0x24 PUSH1 0x0 REVERT JUMPDEST PUSH1 0x0 PUSH2 0x11F4 DUP3 PUSH2 0xB02 JUMP JUMPDEST SWAP2 POP PUSH2 0x11FF DUP4 PUSH2 0xB02 JUMP JUMPDEST SWAP3 POP DUP3 PUSH32 0xFFFFFFFFFFFFFFFFFFFFFFFFFFFFFFFFFFFFFFFFFFFFFFFFFFFFFFFFFFFFFFFF SUB DUP3 GT ISZERO PUSH2 0x1234 JUMPI PUSH2 0x1233 PUSH2 0x11BA JUMP JUMPDEST JUMPDEST DUP3 DUP3 ADD SWAP1 POP SWAP3 SWAP2 POP POP JUMP JUMPDEST PUSH1 0x0 PUSH2 0x124A DUP3 PUSH2 0xB02 JUMP JUMPDEST SWAP2 POP PUSH2 0x1255 DUP4 PUSH2 0xB02 JUMP JUMPDEST SWAP3 POP DUP3 PUSH2 0x1265 JUMPI PUSH2 0x1264 PUSH2 0x115A JUMP JUMPDEST JUMPDEST DUP3 DUP3 DIV SWAP1 POP SWAP3 SWAP2 POP POP JUMP JUMPDEST PUSH1 0x0 DUP2 SWAP1 POP SWAP3 SWAP2 POP POP JUMP JUMPDEST PUSH32 0x6B69747479000000000000000000000000000000000000000000000000000000 PUSH1 0x0 DUP3 ADD MSTORE POP JUMP JUMPDEST PUSH1 0x0 PUSH2 0x12B1 PUSH1 0x5 DUP4 PUSH2 0x1270 JUMP JUMPDEST SWAP2 POP PUSH2 0x12BC DUP3 PUSH2 0x127B JUMP JUMPDEST PUSH1 0x5 DUP3 ADD SWAP1 POP SWAP2 SWAP1 POP JUMP JUMPDEST PUSH1 0x0 PUSH2 0x12D2 DUP3 PUSH2 0x12A4 JUMP JUMPDEST SWAP2 POP DUP2 SWAP1 POP SWAP2 SWAP1 POP JUMP JUMPDEST PUSH1 0x0 PUSH2 0x12E7 DUP3 PUSH2 0xBB4 JUMP JUMPDEST PUSH2 0x12F1 DUP2 DUP6 PUSH2 0x1270 JUMP JUMPDEST SWAP4 POP PUSH2 0x1301 DUP2 DUP6 PUSH1 0x20 DUP7 ADD PUSH2 0xBD0 JUMP JUMPDEST DUP1 DUP5 ADD SWAP2 POP POP SWAP3 SWAP2 POP POP JUMP JUMPDEST PUSH1 0x0 PUSH2 0x1319 DUP3 DUP5 PUSH2 0x12DC JUMP JUMPDEST SWAP2 POP DUP2 SWAP1 POP SWAP3 SWAP2 POP POP JUMP JUMPDEST PUSH1 0x0 PUSH2 0x132F DUP3 PUSH2 0xB02 JUMP JUMPDEST SWAP2 POP PUSH2 0x133A DUP4 PUSH2 0xB02 JUMP JUMPDEST SWAP3 POP DUP3 DUP3 LT ISZERO PUSH2 0x134D JUMPI PUSH2 0x134C PUSH2 0x11BA JUMP JUMPDEST JUMPDEST DUP3 DUP3 SUB SWAP1 POP SWAP3 SWAP2 POP POP JUMP JUMPDEST PUSH1 0x0 PUSH2 0x1363 DUP3 PUSH2 0xB02 JUMP JUMPDEST SWAP2 POP PUSH32 0xFFFFFFFFFFFFFFFFFFFFFFFFFFFFFFFFFFFFFFFFFFFFFFFFFFFFFFFFFFFFFFFF DUP3 SUB PUSH2 0x1395 JUMPI PUSH2 0x1394 PUSH2 0x11BA JUMP JUMPDEST JUMPDEST PUSH1 0x1 DUP3 ADD SWAP1 POP SWAP2 SWAP1 POP JUMP JUMPDEST PUSH1 0x0 PUSH1 0x60 DUP3 ADD SWAP1 POP PUSH2 0x13B5 PUSH1 0x0 DUP4 ADD DUP7 PUSH2 0xBA5 JUMP JUMPDEST DUP2 DUP2 SUB PUSH1 0x20 DUP4 ADD MSTORE PUSH2 0x13C7 DUP2 DUP6 PUSH2 0xC14 JUMP JUMPDEST SWAP1 POP PUSH2 0x13D6 PUSH1 0x40 DUP4 ADD DUP5 PUSH2 0xBA5 JUMP JUMPDEST SWAP5 SWAP4 POP POP POP POP JUMP INVALID LOG2 PUSH5 0x6970667358 0x22 SLT KECCAK256 CALLDATACOPY PUSH31 0x6D1739F7592FDB9DB88C87BC37662CB85DA642FD2888E52F7C842214F4EF64 PUSH20 0x6F6C634300080E00330000000000000000000000 "
				},
				"gasEstimates": {
					"creation": {
						"codeDepositCost": "1028000",
						"executionCost": "infinite",
						"totalCost": "infinite"
					},
					"external": {
						"feedAndMultiply(uint256,uint256,string)": "infinite",
						"feedOnKitty(uint256,uint256)": "infinite",
						"generateRandomZombie(string)": "infinite",
						"isOwner()": "2540",
						"owner()": "2544",
						"renounceOwnership()": "30294",
						"setKittyContractAddress(address)": "26972",
						"transferOwnership(address)": "30757",
						"zombies(uint256)": "infinite"
					},
					"internal": {
						"_isReady(struct ZombieFactory.Zombie storage pointer)": "infinite",
						"_triggerCooldown(struct ZombieFactory.Zombie storage pointer)": "infinite"
					}
				},
				"methodIdentifiers": {
					"feedAndMultiply(uint256,uint256,string)": "6b0bfc80",
					"feedOnKitty(uint256,uint256)": "17a7f4cc",
					"generateRandomZombie(string)": "c6f15112",
					"isOwner()": "8f32d59b",
					"owner()": "8da5cb5b",
					"renounceOwnership()": "715018a6",
					"setKittyContractAddress(address)": "5f4623f1",
					"transferOwnership(address)": "f2fde38b",
					"zombies(uint256)": "2052465e"
				}
			},
			"storageLayout": {
				"storage": [
					{
						"astId": 4,
						"contract": "contracts/Zombiefeeding.sol:ZombieFeeding",
						"label": "_owner",
						"offset": 0,
						"slot": "0",
						"type": "t_address"
					},
					{
						"astId": 128,
						"contract": "contracts/Zombiefeeding.sol:ZombieFeeding",
						"label": "dnaDigits",
						"offset": 0,
						"slot": "1",
						"type": "t_uint256"
					},
					{
						"astId": 133,
						"contract": "contracts/Zombiefeeding.sol:ZombieFeeding",
						"label": "dnaModulus",
						"offset": 0,
						"slot": "2",
						"type": "t_uint256"
					},
					{
						"astId": 144,
						"contract": "contracts/Zombiefeeding.sol:ZombieFeeding",
						"label": "cooldownTime",
						"offset": 0,
						"slot": "3",
						"type": "t_uint256"
					},
					{
						"astId": 157,
						"contract": "contracts/Zombiefeeding.sol:ZombieFeeding",
						"label": "zombies",
						"offset": 0,
						"slot": "4",
						"type": "t_array(t_struct(Zombie)153_storage)dyn_storage"
					},
					{
						"astId": 161,
						"contract": "contracts/Zombiefeeding.sol:ZombieFeeding",
						"label": "zombieToOwner",
						"offset": 0,
						"slot": "5",
						"type": "t_mapping(t_uint256,t_address)"
					},
					{
						"astId": 165,
						"contract": "contracts/Zombiefeeding.sol:ZombieFeeding",
						"label": "ownerZombieCount",
						"offset": 0,
						"slot": "6",
						"type": "t_mapping(t_address,t_uint256)"
					},
					{
						"astId": 300,
						"contract": "contracts/Zombiefeeding.sol:ZombieFeeding",
						"label": "kittyContract",
						"offset": 0,
						"slot": "7",
						"type": "t_contract(KittyInterface)295"
					}
				],
				"types": {
					"t_address": {
						"encoding": "inplace",
						"label": "address",
						"numberOfBytes": "20"
					},
					"t_array(t_struct(Zombie)153_storage)dyn_storage": {
						"base": "t_struct(Zombie)153_storage",
						"encoding": "dynamic_array",
						"label": "struct ZombieFactory.Zombie[]",
						"numberOfBytes": "32"
					},
					"t_contract(KittyInterface)295": {
						"encoding": "inplace",
						"label": "contract KittyInterface",
						"numberOfBytes": "20"
					},
					"t_mapping(t_address,t_uint256)": {
						"encoding": "mapping",
						"key": "t_address",
						"label": "mapping(address => uint256)",
						"numberOfBytes": "32",
						"value": "t_uint256"
					},
					"t_mapping(t_uint256,t_address)": {
						"encoding": "mapping",
						"key": "t_uint256",
						"label": "mapping(uint256 => address)",
						"numberOfBytes": "32",
						"value": "t_address"
					},
					"t_string_storage": {
						"encoding": "bytes",
						"label": "string",
						"numberOfBytes": "32"
					},
					"t_struct(Zombie)153_storage": {
						"encoding": "inplace",
						"label": "struct ZombieFactory.Zombie",
						"members": [
							{
								"astId": 146,
								"contract": "contracts/Zombiefeeding.sol:ZombieFeeding",
								"label": "dna",
								"offset": 0,
								"slot": "0",
								"type": "t_uint256"
							},
							{
								"astId": 148,
								"contract": "contracts/Zombiefeeding.sol:ZombieFeeding",
								"label": "name",
								"offset": 0,
								"slot": "1",
								"type": "t_string_storage"
							},
							{
								"astId": 150,
								"contract": "contracts/Zombiefeeding.sol:ZombieFeeding",
								"label": "level",
								"offset": 0,
								"slot": "2",
								"type": "t_uint32"
							},
							{
								"astId": 152,
								"contract": "contracts/Zombiefeeding.sol:ZombieFeeding",
								"label": "readyTime",
								"offset": 4,
								"slot": "2",
								"type": "t_uint32"
							}
						],
						"numberOfBytes": "96"
					},
					"t_uint256": {
						"encoding": "inplace",
						"label": "uint256",
						"numberOfBytes": "32"
					},
					"t_uint32": {
						"encoding": "inplace",
						"label": "uint32",
						"numberOfBytes": "4"
					}
				}
			},
			"userdoc": {
				"kind": "user",
				"methods": {
					"renounceOwnership()": {
						"notice": "Renouncing to ownership will leave the contract without an owner. It will not be possible to call the functions with the `onlyOwner` modifier anymore."
					}
				},
				"version": 1
			}
		}
	}
}