{
	"contracts/Zombiefeeding.sol": {
		"ZombieFeeding": {
			"abi": [
				{
					"anonymous": false,
					"inputs": [
						{
							"indexed": false,
							"internalType": "uint256",
							"name": "zombieId",
							"type": "uint256"
						},
						{
							"indexed": false,
							"internalType": "string",
							"name": "name",
							"type": "string"
						},
						{
							"indexed": false,
							"internalType": "uint256",
							"name": "dna",
							"type": "uint256"
						}
					],
					"name": "NewZombie",
					"type": "event"
				},
				{
					"inputs": [
						{
							"internalType": "uint256",
							"name": "_zombieId",
							"type": "uint256"
						},
						{
							"internalType": "uint256",
							"name": "_targetDna",
							"type": "uint256"
						}
					],
					"name": "feedAndMultiply",
					"outputs": [],
					"stateMutability": "nonpayable",
					"type": "function"
				},
				{
					"inputs": [
						{
							"internalType": "string",
							"name": "_name",
							"type": "string"
						}
					],
					"name": "generateRandomZombie",
					"outputs": [],
					"stateMutability": "nonpayable",
					"type": "function"
				},
				{
					"inputs": [
						{
							"internalType": "uint256",
							"name": "",
							"type": "uint256"
						}
					],
					"name": "zombies",
					"outputs": [
						{
							"internalType": "uint256",
							"name": "dna",
							"type": "uint256"
						},
						{
							"internalType": "string",
							"name": "name",
							"type": "string"
						}
					],
					"stateMutability": "view",
					"type": "function"
				}
			],
			"devdoc": {
				"kind": "dev",
				"methods": {},
				"version": 1
			},
			"evm": {
				"assembly": "    /* \"contracts/Zombiefeeding.sol\":64:432  contract ZombieFeeding is ZombieFactory {... */\n  mstore(0x40, 0x80)\n    /* \"contracts/Zombiefactory.sol\":79:81  16 */\n  0x10\n    /* \"contracts/Zombiefactory.sol\":62:81  uint dnaDigits = 16 */\n  0x00\n  sstore\n    /* \"contracts/Zombiefactory.sol\":160:169  dnaDigits */\n  sload(0x00)\n    /* \"contracts/Zombiefactory.sol\":154:156  10 */\n  0x0a\n    /* \"contracts/Zombiefactory.sol\":154:169  10 ** dnaDigits */\n  tag_1\n  swap2\n  swap1\n  tag_2\n  jump\t// in\ntag_1:\n    /* \"contracts/Zombiefactory.sol\":136:169  uint dnaModulus = 10 ** dnaDigits */\n  0x01\n  sstore\n    /* \"contracts/Zombiefeeding.sol\":64:432  contract ZombieFeeding is ZombieFactory {... */\n  callvalue\n  dup1\n  iszero\n  tag_3\n  jumpi\n  0x00\n  dup1\n  revert\ntag_3:\n  pop\n  jump(tag_4)\n    /* \"#utility.yul\":7:855   */\ntag_6:\n    /* \"#utility.yul\":68:73   */\n  0x00\n    /* \"#utility.yul\":75:79   */\n  dup1\n    /* \"#utility.yul\":99:105   */\n  dup3\n    /* \"#utility.yul\":90:105   */\n  swap2\n  pop\n    /* \"#utility.yul\":123:128   */\n  dup4\n    /* \"#utility.yul\":114:128   */\n  swap1\n  pop\n    /* \"#utility.yul\":137:849   */\ntag_8:\n    /* \"#utility.yul\":158:159   */\n  0x01\n    /* \"#utility.yul\":148:156   */\n  dup6\n    /* \"#utility.yul\":145:160   */\n  gt\n    /* \"#utility.yul\":137:849   */\n  iszero\n  tag_10\n  jumpi\n    /* \"#utility.yul\":253:257   */\n  dup1\n    /* \"#utility.yul\":248:251   */\n  dup7\n    /* \"#utility.yul\":244:258   */\n  div\n    /* \"#utility.yul\":238:242   */\n  dup2\n    /* \"#utility.yul\":235:259   */\n  gt\n    /* \"#utility.yul\":232:282   */\n  iszero\n  tag_11\n  jumpi\n    /* \"#utility.yul\":262:280   */\n  tag_12\n  tag_13\n  jump\t// in\ntag_12:\n    /* \"#utility.yul\":232:282   */\ntag_11:\n    /* \"#utility.yul\":312:313   */\n  0x01\n    /* \"#utility.yul\":302:310   */\n  dup6\n    /* \"#utility.yul\":298:314   */\n  and\n    /* \"#utility.yul\":295:746   */\n  iszero\n  tag_14\n  jumpi\n    /* \"#utility.yul\":727:731   */\n  dup1\n    /* \"#utility.yul\":720:725   */\n  dup3\n    /* \"#utility.yul\":716:732   */\n  mul\n    /* \"#utility.yul\":707:732   */\n  swap2\n  pop\n    /* \"#utility.yul\":295:746   */\ntag_14:\n    /* \"#utility.yul\":777:781   */\n  dup1\n    /* \"#utility.yul\":771:775   */\n  dup2\n    /* \"#utility.yul\":767:782   */\n  mul\n    /* \"#utility.yul\":759:782   */\n  swap1\n  pop\n    /* \"#utility.yul\":807:839   */\n  tag_15\n    /* \"#utility.yul\":830:838   */\n  dup6\n    /* \"#utility.yul\":807:839   */\n  tag_16\n  jump\t// in\ntag_15:\n    /* \"#utility.yul\":795:839   */\n  swap5\n  pop\n    /* \"#utility.yul\":137:849   */\n  jump(tag_8)\ntag_10:\n    /* \"#utility.yul\":7:855   */\n  swap5\n  pop\n  swap5\n  swap3\n  pop\n  pop\n  pop\n  jump\t// out\n    /* \"#utility.yul\":861:1146   */\ntag_2:\n    /* \"#utility.yul\":921:926   */\n  0x00\n    /* \"#utility.yul\":945:968   */\n  tag_18\n    /* \"#utility.yul\":963:967   */\n  dup3\n    /* \"#utility.yul\":945:968   */\n  tag_19\n  jump\t// in\ntag_18:\n    /* \"#utility.yul\":937:968   */\n  swap2\n  pop\n    /* \"#utility.yul\":989:1016   */\n  tag_20\n    /* \"#utility.yul\":1007:1015   */\n  dup4\n    /* \"#utility.yul\":989:1016   */\n  tag_19\n  jump\t// in\ntag_20:\n    /* \"#utility.yul\":977:1016   */\n  swap3\n  pop\n    /* \"#utility.yul\":1035:1139   */\n  tag_21\n    /* \"#utility.yul\":1072:1138   */\n  0xffffffffffffffffffffffffffffffffffffffffffffffffffffffffffffffff\n    /* \"#utility.yul\":1062:1070   */\n  dup5\n    /* \"#utility.yul\":1056:1060   */\n  dup5\n    /* \"#utility.yul\":1035:1139   */\n  tag_22\n  jump\t// in\ntag_21:\n    /* \"#utility.yul\":1026:1139   */\n  swap1\n  pop\n    /* \"#utility.yul\":861:1146   */\n  swap3\n  swap2\n  pop\n  pop\n  jump\t// out\n    /* \"#utility.yul\":1152:2225   */\ntag_22:\n    /* \"#utility.yul\":1206:1211   */\n  0x00\n    /* \"#utility.yul\":1397:1405   */\n  dup3\n    /* \"#utility.yul\":1387:1427   */\n  tag_24\n  jumpi\n    /* \"#utility.yul\":1418:1419   */\n  0x01\n    /* \"#utility.yul\":1409:1419   */\n  swap1\n  pop\n    /* \"#utility.yul\":1420:1425   */\n  jump(tag_23)\n    /* \"#utility.yul\":1387:1427   */\ntag_24:\n    /* \"#utility.yul\":1446:1450   */\n  dup2\n    /* \"#utility.yul\":1436:1472   */\n  tag_25\n  jumpi\n    /* \"#utility.yul\":1463:1464   */\n  0x00\n    /* \"#utility.yul\":1454:1464   */\n  swap1\n  pop\n    /* \"#utility.yul\":1465:1470   */\n  jump(tag_23)\n    /* \"#utility.yul\":1436:1472   */\ntag_25:\n    /* \"#utility.yul\":1532:1536   */\n  dup2\n    /* \"#utility.yul\":1580:1581   */\n  0x01\n    /* \"#utility.yul\":1575:1602   */\n  dup2\n  eq\n  tag_27\n  jumpi\n    /* \"#utility.yul\":1616:1617   */\n  0x02\n    /* \"#utility.yul\":1611:1802   */\n  dup2\n  eq\n  tag_28\n  jumpi\n    /* \"#utility.yul\":1525:1802   */\n  jump(tag_26)\n    /* \"#utility.yul\":1575:1602   */\ntag_27:\n    /* \"#utility.yul\":1593:1594   */\n  0x01\n    /* \"#utility.yul\":1584:1594   */\n  swap2\n  pop\n    /* \"#utility.yul\":1595:1600   */\n  pop\n  jump(tag_23)\n    /* \"#utility.yul\":1611:1802   */\ntag_28:\n    /* \"#utility.yul\":1656:1659   */\n  0xff\n    /* \"#utility.yul\":1646:1654   */\n  dup5\n    /* \"#utility.yul\":1643:1660   */\n  gt\n    /* \"#utility.yul\":1640:1683   */\n  iszero\n  tag_29\n  jumpi\n    /* \"#utility.yul\":1663:1681   */\n  tag_30\n  tag_13\n  jump\t// in\ntag_30:\n    /* \"#utility.yul\":1640:1683   */\ntag_29:\n    /* \"#utility.yul\":1712:1720   */\n  dup4\n    /* \"#utility.yul\":1709:1710   */\n  0x02\n    /* \"#utility.yul\":1705:1721   */\n  exp\n    /* \"#utility.yul\":1696:1721   */\n  swap2\n  pop\n    /* \"#utility.yul\":1747:1750   */\n  dup5\n    /* \"#utility.yul\":1740:1745   */\n  dup3\n    /* \"#utility.yul\":1737:1751   */\n  gt\n    /* \"#utility.yul\":1734:1774   */\n  iszero\n  tag_31\n  jumpi\n    /* \"#utility.yul\":1754:1772   */\n  tag_32\n  tag_13\n  jump\t// in\ntag_32:\n    /* \"#utility.yul\":1734:1774   */\ntag_31:\n    /* \"#utility.yul\":1787:1792   */\n  pop\n  jump(tag_23)\n    /* \"#utility.yul\":1525:1802   */\ntag_26:\n  pop\n    /* \"#utility.yul\":1911:1913   */\n  0x20\n    /* \"#utility.yul\":1901:1909   */\n  dup4\n    /* \"#utility.yul\":1898:1914   */\n  lt\n    /* \"#utility.yul\":1892:1895   */\n  0x0133\n    /* \"#utility.yul\":1886:1890   */\n  dup4\n    /* \"#utility.yul\":1883:1896   */\n  lt\n    /* \"#utility.yul\":1879:1915   */\n  and\n    /* \"#utility.yul\":1861:1863   */\n  0x4e\n    /* \"#utility.yul\":1851:1859   */\n  dup5\n    /* \"#utility.yul\":1848:1864   */\n  lt\n    /* \"#utility.yul\":1843:1845   */\n  0x0b\n    /* \"#utility.yul\":1837:1841   */\n  dup5\n    /* \"#utility.yul\":1834:1846   */\n  lt\n    /* \"#utility.yul\":1830:1865   */\n  and\n    /* \"#utility.yul\":1814:1925   */\n  or\n    /* \"#utility.yul\":1811:2057   */\n  iszero\n  tag_33\n  jumpi\n    /* \"#utility.yul\":1967:1975   */\n  dup3\n    /* \"#utility.yul\":1961:1965   */\n  dup3\n    /* \"#utility.yul\":1957:1976   */\n  exp\n    /* \"#utility.yul\":1948:1976   */\n  swap1\n  pop\n    /* \"#utility.yul\":2002:2005   */\n  dup4\n    /* \"#utility.yul\":1995:2000   */\n  dup2\n    /* \"#utility.yul\":1992:2006   */\n  gt\n    /* \"#utility.yul\":1989:2029   */\n  iszero\n  tag_34\n  jumpi\n    /* \"#utility.yul\":2009:2027   */\n  tag_35\n  tag_13\n  jump\t// in\ntag_35:\n    /* \"#utility.yul\":1989:2029   */\ntag_34:\n    /* \"#utility.yul\":2042:2047   */\n  jump(tag_23)\n    /* \"#utility.yul\":1811:2057   */\ntag_33:\n    /* \"#utility.yul\":2082:2124   */\n  tag_36\n    /* \"#utility.yul\":2120:2123   */\n  dup5\n    /* \"#utility.yul\":2110:2118   */\n  dup5\n    /* \"#utility.yul\":2104:2108   */\n  dup5\n    /* \"#utility.yul\":2101:2102   */\n  0x01\n    /* \"#utility.yul\":2082:2124   */\n  tag_6\n  jump\t// in\ntag_36:\n    /* \"#utility.yul\":2067:2124   */\n  swap3\n  pop\n  swap1\n  pop\n    /* \"#utility.yul\":2156:2160   */\n  dup2\n    /* \"#utility.yul\":2151:2154   */\n  dup5\n    /* \"#utility.yul\":2147:2161   */\n  div\n    /* \"#utility.yul\":2140:2145   */\n  dup2\n    /* \"#utility.yul\":2137:2162   */\n  gt\n    /* \"#utility.yul\":2134:2185   */\n  iszero\n  tag_37\n  jumpi\n    /* \"#utility.yul\":2165:2183   */\n  tag_38\n  tag_13\n  jump\t// in\ntag_38:\n    /* \"#utility.yul\":2134:2185   */\ntag_37:\n    /* \"#utility.yul\":2214:2218   */\n  dup2\n    /* \"#utility.yul\":2207:2212   */\n  dup2\n    /* \"#utility.yul\":2203:2219   */\n  mul\n    /* \"#utility.yul\":2194:2219   */\n  swap1\n  pop\n    /* \"#utility.yul\":1152:2225   */\ntag_23:\n  swap4\n  swap3\n  pop\n  pop\n  pop\n  jump\t// out\n    /* \"#utility.yul\":2231:2308   */\ntag_19:\n    /* \"#utility.yul\":2268:2275   */\n  0x00\n    /* \"#utility.yul\":2297:2302   */\n  dup2\n    /* \"#utility.yul\":2286:2302   */\n  swap1\n  pop\n    /* \"#utility.yul\":2231:2308   */\n  swap2\n  swap1\n  pop\n  jump\t// out\n    /* \"#utility.yul\":2314:2494   */\ntag_13:\n    /* \"#utility.yul\":2362:2439   */\n  0x4e487b7100000000000000000000000000000000000000000000000000000000\n    /* \"#utility.yul\":2359:2360   */\n  0x00\n    /* \"#utility.yul\":2352:2440   */\n  mstore\n    /* \"#utility.yul\":2459:2463   */\n  0x11\n    /* \"#utility.yul\":2456:2457   */\n  0x04\n    /* \"#utility.yul\":2449:2464   */\n  mstore\n    /* \"#utility.yul\":2483:2487   */\n  0x24\n    /* \"#utility.yul\":2480:2481   */\n  0x00\n    /* \"#utility.yul\":2473:2488   */\n  revert\n    /* \"#utility.yul\":2500:2602   */\ntag_16:\n    /* \"#utility.yul\":2542:2550   */\n  0x00\n    /* \"#utility.yul\":2589:2594   */\n  dup2\n    /* \"#utility.yul\":2586:2587   */\n  0x01\n    /* \"#utility.yul\":2582:2595   */\n  shr\n    /* \"#utility.yul\":2561:2595   */\n  swap1\n  pop\n    /* \"#utility.yul\":2500:2602   */\n  swap2\n  swap1\n  pop\n  jump\t// out\n    /* \"contracts/Zombiefeeding.sol\":64:432  contract ZombieFeeding is ZombieFactory {... */\ntag_4:\n  dataSize(sub_0)\n  dup1\n  dataOffset(sub_0)\n  0x00\n  codecopy\n  0x00\n  return\nstop\n\nsub_0: assembly {\n        /* \"contracts/Zombiefeeding.sol\":64:432  contract ZombieFeeding is ZombieFactory {... */\n      mstore(0x40, 0x80)\n      callvalue\n      dup1\n      iszero\n      tag_1\n      jumpi\n      0x00\n      dup1\n      revert\n    tag_1:\n      pop\n      jumpi(tag_2, lt(calldatasize, 0x04))\n      shr(0xe0, calldataload(0x00))\n      dup1\n      0x0dedffb8\n      eq\n      tag_3\n      jumpi\n      dup1\n      0x2052465e\n      eq\n      tag_4\n      jumpi\n      dup1\n      0xc6f15112\n      eq\n      tag_5\n      jumpi\n    tag_2:\n      0x00\n      dup1\n      revert\n        /* \"contracts/Zombiefeeding.sol\":110:430  function feedAndMultiply(uint _zombieId, uint _targetDna) public {... */\n    tag_3:\n      tag_6\n      0x04\n      dup1\n      calldatasize\n      sub\n      dup2\n      add\n      swap1\n      tag_7\n      swap2\n      swap1\n      tag_8\n      jump\t// in\n    tag_7:\n      tag_9\n      jump\t// in\n    tag_6:\n      stop\n        /* \"contracts/Zombiefactory.sol\":378:401  Zombie[] public zombies */\n    tag_4:\n      tag_10\n      0x04\n      dup1\n      calldatasize\n      sub\n      dup2\n      add\n      swap1\n      tag_11\n      swap2\n      swap1\n      tag_12\n      jump\t// in\n    tag_11:\n      tag_13\n      jump\t// in\n    tag_10:\n      mload(0x40)\n      tag_14\n      swap3\n      swap2\n      swap1\n      tag_15\n      jump\t// in\n    tag_14:\n      mload(0x40)\n      dup1\n      swap2\n      sub\n      swap1\n      return\n        /* \"contracts/Zombiefactory.sol\":1414:1622  function generateRandomZombie(string memory _name) public {... */\n    tag_5:\n      tag_16\n      0x04\n      dup1\n      calldatasize\n      sub\n      dup2\n      add\n      swap1\n      tag_17\n      swap2\n      swap1\n      tag_18\n      jump\t// in\n    tag_17:\n      tag_19\n      jump\t// in\n    tag_16:\n      stop\n        /* \"contracts/Zombiefeeding.sol\":110:430  function feedAndMultiply(uint _zombieId, uint _targetDna) public {... */\n    tag_9:\n        /* \"contracts/Zombiefeeding.sol\":225:226  0 */\n      0x00\n        /* \"contracts/Zombiefeeding.sol\":193:209  ownerZombieCount */\n      0x04\n        /* \"contracts/Zombiefeeding.sol\":193:221  ownerZombieCount[msg.sender] */\n      0x00\n        /* \"contracts/Zombiefeeding.sol\":210:220  msg.sender */\n      caller\n        /* \"contracts/Zombiefeeding.sol\":193:221  ownerZombieCount[msg.sender] */\n      0xffffffffffffffffffffffffffffffffffffffff\n      and\n      0xffffffffffffffffffffffffffffffffffffffff\n      and\n      dup2\n      mstore\n      0x20\n      add\n      swap1\n      dup2\n      mstore\n      0x20\n      add\n      0x00\n      keccak256\n      sload\n        /* \"contracts/Zombiefeeding.sol\":193:226  ownerZombieCount[msg.sender] == 0 */\n      eq\n        /* \"contracts/Zombiefeeding.sol\":185:227  require(ownerZombieCount[msg.sender] == 0) */\n      tag_21\n      jumpi\n      0x00\n      dup1\n      revert\n    tag_21:\n        /* \"contracts/Zombiefeeding.sol\":264:287  Zombie storage myZombie */\n      0x00\n        /* \"contracts/Zombiefeeding.sol\":290:297  zombies */\n      0x02\n        /* \"contracts/Zombiefeeding.sol\":298:307  _zombieId */\n      dup4\n        /* \"contracts/Zombiefeeding.sol\":290:308  zombies[_zombieId] */\n      dup2\n      sload\n      dup2\n      lt\n      tag_22\n      jumpi\n      tag_23\n      tag_24\n      jump\t// in\n    tag_23:\n    tag_22:\n      swap1\n      0x00\n      mstore\n      keccak256(0x00, 0x20)\n      swap1\n      0x02\n      mul\n      add\n        /* \"contracts/Zombiefeeding.sol\":264:308  Zombie storage myZombie = zombies[_zombieId] */\n      swap1\n      pop\n        /* \"contracts/Zombiefeeding.sol\":318:333  uint _targetDna */\n      0x00\n        /* \"contracts/Zombiefeeding.sol\":349:359  dnaModulus */\n      sload(0x01)\n        /* \"contracts/Zombiefeeding.sol\":336:346  _targetDna */\n      dup4\n        /* \"contracts/Zombiefeeding.sol\":336:359  _targetDna % dnaModulus */\n      tag_26\n      swap2\n      swap1\n      tag_27\n      jump\t// in\n    tag_26:\n        /* \"contracts/Zombiefeeding.sol\":318:359  uint _targetDna = _targetDna % dnaModulus */\n      swap1\n      pop\n        /* \"contracts/Zombiefeeding.sol\":369:380  uint newDna */\n      0x00\n        /* \"contracts/Zombiefeeding.sol\":413:414  2 */\n      0x02\n        /* \"contracts/Zombiefeeding.sol\":397:405  myZombie */\n      dup4\n        /* \"contracts/Zombiefeeding.sol\":397:409  myZombie.dna */\n      0x00\n      add\n      sload\n        /* \"contracts/Zombiefeeding.sol\":384:394  _targetDna */\n      dup4\n        /* \"contracts/Zombiefeeding.sol\":384:409  _targetDna + myZombie.dna */\n      tag_28\n      swap2\n      swap1\n      tag_29\n      jump\t// in\n    tag_28:\n        /* \"contracts/Zombiefeeding.sol\":383:414  (_targetDna + myZombie.dna) / 2 */\n      tag_30\n      swap2\n      swap1\n      tag_31\n      jump\t// in\n    tag_30:\n        /* \"contracts/Zombiefeeding.sol\":369:414  uint newDna = (_targetDna + myZombie.dna) / 2 */\n      swap1\n      pop\n        /* \"contracts/Zombiefeeding.sol\":175:430  {... */\n      pop\n      pop\n      pop\n        /* \"contracts/Zombiefeeding.sol\":110:430  function feedAndMultiply(uint _zombieId, uint _targetDna) public {... */\n      pop\n      pop\n      jump\t// out\n        /* \"contracts/Zombiefactory.sol\":378:401  Zombie[] public zombies */\n    tag_13:\n      0x02\n      dup2\n      dup2\n      sload\n      dup2\n      lt\n      tag_32\n      jumpi\n      0x00\n      dup1\n      revert\n    tag_32:\n      swap1\n      0x00\n      mstore\n      keccak256(0x00, 0x20)\n      swap1\n      0x02\n      mul\n      add\n      0x00\n      swap2\n      pop\n      swap1\n      pop\n      dup1\n      0x00\n      add\n      sload\n      swap1\n      dup1\n      0x01\n      add\n      dup1\n      sload\n      tag_34\n      swap1\n      tag_35\n      jump\t// in\n    tag_34:\n      dup1\n      0x1f\n      add\n      0x20\n      dup1\n      swap2\n      div\n      mul\n      0x20\n      add\n      mload(0x40)\n      swap1\n      dup2\n      add\n      0x40\n      mstore\n      dup1\n      swap3\n      swap2\n      swap1\n      dup2\n      dup2\n      mstore\n      0x20\n      add\n      dup3\n      dup1\n      sload\n      tag_36\n      swap1\n      tag_35\n      jump\t// in\n    tag_36:\n      dup1\n      iszero\n      tag_37\n      jumpi\n      dup1\n      0x1f\n      lt\n      tag_38\n      jumpi\n      0x0100\n      dup1\n      dup4\n      sload\n      div\n      mul\n      dup4\n      mstore\n      swap2\n      0x20\n      add\n      swap2\n      jump(tag_37)\n    tag_38:\n      dup3\n      add\n      swap2\n      swap1\n      0x00\n      mstore\n      keccak256(0x00, 0x20)\n      swap1\n    tag_39:\n      dup2\n      sload\n      dup2\n      mstore\n      swap1\n      0x01\n      add\n      swap1\n      0x20\n      add\n      dup1\n      dup4\n      gt\n      tag_39\n      jumpi\n      dup3\n      swap1\n      sub\n      0x1f\n      and\n      dup3\n      add\n      swap2\n    tag_37:\n      pop\n      pop\n      pop\n      pop\n      pop\n      swap1\n      pop\n      dup3\n      jump\t// out\n        /* \"contracts/Zombiefactory.sol\":1414:1622  function generateRandomZombie(string memory _name) public {... */\n    tag_19:\n        /* \"contracts/Zombiefactory.sol\":1522:1523  0 */\n      0x00\n        /* \"contracts/Zombiefactory.sol\":1490:1506  ownerZombieCount */\n      0x04\n        /* \"contracts/Zombiefactory.sol\":1490:1518  ownerZombieCount[msg.sender] */\n      0x00\n        /* \"contracts/Zombiefactory.sol\":1507:1517  msg.sender */\n      caller\n        /* \"contracts/Zombiefactory.sol\":1490:1518  ownerZombieCount[msg.sender] */\n      0xffffffffffffffffffffffffffffffffffffffff\n      and\n      0xffffffffffffffffffffffffffffffffffffffff\n      and\n      dup2\n      mstore\n      0x20\n      add\n      swap1\n      dup2\n      mstore\n      0x20\n      add\n      0x00\n      keccak256\n      sload\n        /* \"contracts/Zombiefactory.sol\":1490:1523  ownerZombieCount[msg.sender] == 0 */\n      eq\n        /* \"contracts/Zombiefactory.sol\":1482:1524  require(ownerZombieCount[msg.sender] == 0) */\n      tag_41\n      jumpi\n      0x00\n      dup1\n      revert\n    tag_41:\n        /* \"contracts/Zombiefactory.sol\":1536:1548  uint randDna */\n      0x00\n        /* \"contracts/Zombiefactory.sol\":1551:1576  _generateRandomDna(_name) */\n      tag_42\n        /* \"contracts/Zombiefactory.sol\":1570:1575  _name */\n      dup3\n        /* \"contracts/Zombiefactory.sol\":1551:1569  _generateRandomDna */\n      tag_43\n        /* \"contracts/Zombiefactory.sol\":1551:1576  _generateRandomDna(_name) */\n      jump\t// in\n    tag_42:\n        /* \"contracts/Zombiefactory.sol\":1536:1576  uint randDna = _generateRandomDna(_name) */\n      swap1\n      pop\n        /* \"contracts/Zombiefactory.sol\":1586:1615  _createZombie(_name, randDna) */\n      tag_44\n        /* \"contracts/Zombiefactory.sol\":1600:1605  _name */\n      dup3\n        /* \"contracts/Zombiefactory.sol\":1607:1614  randDna */\n      dup3\n        /* \"contracts/Zombiefactory.sol\":1586:1599  _createZombie */\n      tag_45\n        /* \"contracts/Zombiefactory.sol\":1586:1615  _createZombie(_name, randDna) */\n      jump\t// in\n    tag_44:\n        /* \"contracts/Zombiefactory.sol\":1472:1622  {... */\n      pop\n        /* \"contracts/Zombiefactory.sol\":1414:1622  function generateRandomZombie(string memory _name) public {... */\n      pop\n      jump\t// out\n        /* \"contracts/Zombiefactory.sol\":1228:1408  function _generateRandomDna(string memory _str) private view returns (uint) {... */\n    tag_43:\n        /* \"contracts/Zombiefactory.sol\":1298:1302  uint */\n      0x00\n        /* \"contracts/Zombiefactory.sol\":1314:1323  uint rand */\n      dup1\n        /* \"contracts/Zombiefactory.sol\":1360:1364  _str */\n      dup3\n        /* \"contracts/Zombiefactory.sol\":1343:1365  abi.encodePacked(_str) */\n      add(0x20, mload(0x40))\n      tag_47\n      swap2\n      swap1\n      tag_48\n      jump\t// in\n    tag_47:\n      mload(0x40)\n      0x20\n      dup2\n      dup4\n      sub\n      sub\n      dup2\n      mstore\n      swap1\n      0x40\n      mstore\n        /* \"contracts/Zombiefactory.sol\":1333:1366  keccak256(abi.encodePacked(_str)) */\n      dup1\n      mload\n      swap1\n      0x20\n      add\n      keccak256\n        /* \"contracts/Zombiefactory.sol\":1328:1367  uint(keccak256(abi.encodePacked(_str))) */\n      0x00\n      shr\n        /* \"contracts/Zombiefactory.sol\":1314:1367  uint rand  =  uint(keccak256(abi.encodePacked(_str))) */\n      swap1\n      pop\n        /* \"contracts/Zombiefactory.sol\":1391:1401  dnaModulus */\n      sload(0x01)\n        /* \"contracts/Zombiefactory.sol\":1384:1388  rand */\n      dup2\n        /* \"contracts/Zombiefactory.sol\":1384:1401  rand % dnaModulus */\n      tag_49\n      swap2\n      swap1\n      tag_27\n      jump\t// in\n    tag_49:\n        /* \"contracts/Zombiefactory.sol\":1377:1401  return rand % dnaModulus */\n      swap2\n      pop\n      pop\n        /* \"contracts/Zombiefactory.sol\":1228:1408  function _generateRandomDna(string memory _str) private view returns (uint) {... */\n      swap2\n      swap1\n      pop\n      jump\t// out\n        /* \"contracts/Zombiefactory.sol\":852:1118  function _createZombie(string memory _name, uint _dna) private {... */\n    tag_45:\n        /* \"contracts/Zombiefactory.sol\":925:932  zombies */\n      0x02\n        /* \"contracts/Zombiefactory.sol\":938:957  Zombie(_dna, _name) */\n      mload(0x40)\n      dup1\n      0x40\n      add\n      0x40\n      mstore\n      dup1\n        /* \"contracts/Zombiefactory.sol\":945:949  _dna */\n      dup4\n        /* \"contracts/Zombiefactory.sol\":938:957  Zombie(_dna, _name) */\n      dup2\n      mstore\n      0x20\n      add\n        /* \"contracts/Zombiefactory.sol\":951:956  _name */\n      dup5\n        /* \"contracts/Zombiefactory.sol\":938:957  Zombie(_dna, _name) */\n      dup2\n      mstore\n      pop\n        /* \"contracts/Zombiefactory.sol\":925:958  zombies.push(Zombie(_dna, _name)) */\n      swap1\n      dup1\n      0x01\n      dup2\n      sload\n      add\n      dup1\n      dup3\n      sstore\n      dup1\n      swap2\n      pop\n      pop\n      0x01\n      swap1\n      sub\n      swap1\n      0x00\n      mstore\n      keccak256(0x00, 0x20)\n      swap1\n      0x02\n      mul\n      add\n      0x00\n      swap1\n      swap2\n      swap1\n      swap2\n      swap1\n      swap2\n      pop\n      0x00\n      dup3\n      add\n      mload\n      dup2\n      0x00\n      add\n      sstore\n      0x20\n      dup3\n      add\n      mload\n      dup2\n      0x01\n      add\n      swap1\n      dup1\n      mload\n      swap1\n      0x20\n      add\n      swap1\n      tag_52\n      swap3\n      swap2\n      swap1\n      tag_53\n      jump\t// in\n    tag_52:\n      pop\n      pop\n      pop\n        /* \"contracts/Zombiefactory.sol\":1004:1014  msg.sender */\n      caller\n        /* \"contracts/Zombiefactory.sol\":968:981  zombieToOwner */\n      0x03\n        /* \"contracts/Zombiefactory.sol\":968:1001  zombieToOwner[zombies.length - 1] */\n      0x00\n        /* \"contracts/Zombiefactory.sol\":999:1000  1 */\n      0x01\n        /* \"contracts/Zombiefactory.sol\":982:989  zombies */\n      0x02\n        /* \"contracts/Zombiefactory.sol\":982:996  zombies.length */\n      dup1\n      sload\n      swap1\n      pop\n        /* \"contracts/Zombiefactory.sol\":982:1000  zombies.length - 1 */\n      tag_54\n      swap2\n      swap1\n      tag_55\n      jump\t// in\n    tag_54:\n        /* \"contracts/Zombiefactory.sol\":968:1001  zombieToOwner[zombies.length - 1] */\n      dup2\n      mstore\n      0x20\n      add\n      swap1\n      dup2\n      mstore\n      0x20\n      add\n      0x00\n      keccak256\n      0x00\n        /* \"contracts/Zombiefactory.sol\":968:1014  zombieToOwner[zombies.length - 1] = msg.sender */\n      0x0100\n      exp\n      dup2\n      sload\n      dup2\n      0xffffffffffffffffffffffffffffffffffffffff\n      mul\n      not\n      and\n      swap1\n      dup4\n      0xffffffffffffffffffffffffffffffffffffffff\n      and\n      mul\n      or\n      swap1\n      sstore\n      pop\n        /* \"contracts/Zombiefactory.sol\":1024:1040  ownerZombieCount */\n      0x04\n        /* \"contracts/Zombiefactory.sol\":1024:1052  ownerZombieCount[msg.sender] */\n      0x00\n        /* \"contracts/Zombiefactory.sol\":1041:1051  msg.sender */\n      caller\n        /* \"contracts/Zombiefactory.sol\":1024:1052  ownerZombieCount[msg.sender] */\n      0xffffffffffffffffffffffffffffffffffffffff\n      and\n      0xffffffffffffffffffffffffffffffffffffffff\n      and\n      dup2\n      mstore\n      0x20\n      add\n      swap1\n      dup2\n      mstore\n      0x20\n      add\n      0x00\n      keccak256\n      0x00\n        /* \"contracts/Zombiefactory.sol\":1024:1054  ownerZombieCount[msg.sender]++ */\n      dup2\n      sload\n      dup1\n      swap3\n      swap2\n      swap1\n      tag_56\n      swap1\n      tag_57\n      jump\t// in\n    tag_56:\n      swap2\n      swap1\n      pop\n      sstore\n      pop\n        /* \"contracts/Zombiefactory.sol\":1069:1111  NewZombie(zombies.length - 1, _name, _dna) */\n      0x88f026aacbbecc90c18411df4b1185fd8d9be2470f1962f192bf84a27d0704b7\n        /* \"contracts/Zombiefactory.sol\":1096:1097  1 */\n      0x01\n        /* \"contracts/Zombiefactory.sol\":1079:1086  zombies */\n      0x02\n        /* \"contracts/Zombiefactory.sol\":1079:1093  zombies.length */\n      dup1\n      sload\n      swap1\n      pop\n        /* \"contracts/Zombiefactory.sol\":1079:1097  zombies.length - 1 */\n      tag_58\n      swap2\n      swap1\n      tag_55\n      jump\t// in\n    tag_58:\n        /* \"contracts/Zombiefactory.sol\":1099:1104  _name */\n      dup4\n        /* \"contracts/Zombiefactory.sol\":1106:1110  _dna */\n      dup4\n        /* \"contracts/Zombiefactory.sol\":1069:1111  NewZombie(zombies.length - 1, _name, _dna) */\n      mload(0x40)\n      tag_59\n      swap4\n      swap3\n      swap2\n      swap1\n      tag_60\n      jump\t// in\n    tag_59:\n      mload(0x40)\n      dup1\n      swap2\n      sub\n      swap1\n      log1\n        /* \"contracts/Zombiefactory.sol\":852:1118  function _createZombie(string memory _name, uint _dna) private {... */\n      pop\n      pop\n      jump\t// out\n    tag_53:\n      dup3\n      dup1\n      sload\n      tag_61\n      swap1\n      tag_35\n      jump\t// in\n    tag_61:\n      swap1\n      0x00\n      mstore\n      keccak256(0x00, 0x20)\n      swap1\n      0x1f\n      add\n      0x20\n      swap1\n      div\n      dup2\n      add\n      swap3\n      dup3\n      tag_63\n      jumpi\n      0x00\n      dup6\n      sstore\n      jump(tag_62)\n    tag_63:\n      dup3\n      0x1f\n      lt\n      tag_64\n      jumpi\n      dup1\n      mload\n      not(0xff)\n      and\n      dup4\n      dup1\n      add\n      or\n      dup6\n      sstore\n      jump(tag_62)\n    tag_64:\n      dup3\n      dup1\n      add\n      0x01\n      add\n      dup6\n      sstore\n      dup3\n      iszero\n      tag_62\n      jumpi\n      swap2\n      dup3\n      add\n    tag_65:\n      dup3\n      dup2\n      gt\n      iszero\n      tag_66\n      jumpi\n      dup3\n      mload\n      dup3\n      sstore\n      swap2\n      0x20\n      add\n      swap2\n      swap1\n      0x01\n      add\n      swap1\n      jump(tag_65)\n    tag_66:\n    tag_62:\n      pop\n      swap1\n      pop\n      tag_67\n      swap2\n      swap1\n      tag_68\n      jump\t// in\n    tag_67:\n      pop\n      swap1\n      jump\t// out\n    tag_68:\n    tag_69:\n      dup1\n      dup3\n      gt\n      iszero\n      tag_70\n      jumpi\n      0x00\n      dup2\n      0x00\n      swap1\n      sstore\n      pop\n      0x01\n      add\n      jump(tag_69)\n    tag_70:\n      pop\n      swap1\n      jump\t// out\n        /* \"#utility.yul\":7:419   */\n    tag_72:\n        /* \"#utility.yul\":85:90   */\n      0x00\n        /* \"#utility.yul\":110:176   */\n      tag_74\n        /* \"#utility.yul\":126:175   */\n      tag_75\n        /* \"#utility.yul\":168:174   */\n      dup5\n        /* \"#utility.yul\":126:175   */\n      tag_76\n      jump\t// in\n    tag_75:\n        /* \"#utility.yul\":110:176   */\n      tag_77\n      jump\t// in\n    tag_74:\n        /* \"#utility.yul\":101:176   */\n      swap1\n      pop\n        /* \"#utility.yul\":199:205   */\n      dup3\n        /* \"#utility.yul\":192:197   */\n      dup2\n        /* \"#utility.yul\":185:206   */\n      mstore\n        /* \"#utility.yul\":237:241   */\n      0x20\n        /* \"#utility.yul\":230:235   */\n      dup2\n        /* \"#utility.yul\":226:242   */\n      add\n        /* \"#utility.yul\":275:278   */\n      dup5\n        /* \"#utility.yul\":266:272   */\n      dup5\n        /* \"#utility.yul\":261:264   */\n      dup5\n        /* \"#utility.yul\":257:273   */\n      add\n        /* \"#utility.yul\":254:279   */\n      gt\n        /* \"#utility.yul\":251:363   */\n      iszero\n      tag_78\n      jumpi\n        /* \"#utility.yul\":282:361   */\n      tag_79\n      tag_80\n      jump\t// in\n    tag_79:\n        /* \"#utility.yul\":251:363   */\n    tag_78:\n        /* \"#utility.yul\":372:413   */\n      tag_81\n        /* \"#utility.yul\":406:412   */\n      dup5\n        /* \"#utility.yul\":401:404   */\n      dup3\n        /* \"#utility.yul\":396:399   */\n      dup6\n        /* \"#utility.yul\":372:413   */\n      tag_82\n      jump\t// in\n    tag_81:\n        /* \"#utility.yul\":91:419   */\n      pop\n        /* \"#utility.yul\":7:419   */\n      swap4\n      swap3\n      pop\n      pop\n      pop\n      jump\t// out\n        /* \"#utility.yul\":439:779   */\n    tag_83:\n        /* \"#utility.yul\":495:500   */\n      0x00\n        /* \"#utility.yul\":544:547   */\n      dup3\n        /* \"#utility.yul\":537:541   */\n      0x1f\n        /* \"#utility.yul\":529:535   */\n      dup4\n        /* \"#utility.yul\":525:542   */\n      add\n        /* \"#utility.yul\":521:548   */\n      slt\n        /* \"#utility.yul\":511:633   */\n      tag_85\n      jumpi\n        /* \"#utility.yul\":552:631   */\n      tag_86\n      tag_87\n      jump\t// in\n    tag_86:\n        /* \"#utility.yul\":511:633   */\n    tag_85:\n        /* \"#utility.yul\":669:675   */\n      dup2\n        /* \"#utility.yul\":656:676   */\n      calldataload\n        /* \"#utility.yul\":694:773   */\n      tag_88\n        /* \"#utility.yul\":769:772   */\n      dup5\n        /* \"#utility.yul\":761:767   */\n      dup3\n        /* \"#utility.yul\":754:758   */\n      0x20\n        /* \"#utility.yul\":746:752   */\n      dup7\n        /* \"#utility.yul\":742:759   */\n      add\n        /* \"#utility.yul\":694:773   */\n      tag_72\n      jump\t// in\n    tag_88:\n        /* \"#utility.yul\":685:773   */\n      swap2\n      pop\n        /* \"#utility.yul\":501:779   */\n      pop\n        /* \"#utility.yul\":439:779   */\n      swap3\n      swap2\n      pop\n      pop\n      jump\t// out\n        /* \"#utility.yul\":785:924   */\n    tag_89:\n        /* \"#utility.yul\":831:836   */\n      0x00\n        /* \"#utility.yul\":869:875   */\n      dup2\n        /* \"#utility.yul\":856:876   */\n      calldataload\n        /* \"#utility.yul\":847:876   */\n      swap1\n      pop\n        /* \"#utility.yul\":885:918   */\n      tag_91\n        /* \"#utility.yul\":912:917   */\n      dup2\n        /* \"#utility.yul\":885:918   */\n      tag_92\n      jump\t// in\n    tag_91:\n        /* \"#utility.yul\":785:924   */\n      swap3\n      swap2\n      pop\n      pop\n      jump\t// out\n        /* \"#utility.yul\":930:1439   */\n    tag_18:\n        /* \"#utility.yul\":999:1005   */\n      0x00\n        /* \"#utility.yul\":1048:1050   */\n      0x20\n        /* \"#utility.yul\":1036:1045   */\n      dup3\n        /* \"#utility.yul\":1027:1034   */\n      dup5\n        /* \"#utility.yul\":1023:1046   */\n      sub\n        /* \"#utility.yul\":1019:1051   */\n      slt\n        /* \"#utility.yul\":1016:1135   */\n      iszero\n      tag_94\n      jumpi\n        /* \"#utility.yul\":1054:1133   */\n      tag_95\n      tag_96\n      jump\t// in\n    tag_95:\n        /* \"#utility.yul\":1016:1135   */\n    tag_94:\n        /* \"#utility.yul\":1202:1203   */\n      0x00\n        /* \"#utility.yul\":1191:1200   */\n      dup3\n        /* \"#utility.yul\":1187:1204   */\n      add\n        /* \"#utility.yul\":1174:1205   */\n      calldataload\n        /* \"#utility.yul\":1232:1250   */\n      0xffffffffffffffff\n        /* \"#utility.yul\":1224:1230   */\n      dup2\n        /* \"#utility.yul\":1221:1251   */\n      gt\n        /* \"#utility.yul\":1218:1335   */\n      iszero\n      tag_97\n      jumpi\n        /* \"#utility.yul\":1254:1333   */\n      tag_98\n      tag_99\n      jump\t// in\n    tag_98:\n        /* \"#utility.yul\":1218:1335   */\n    tag_97:\n        /* \"#utility.yul\":1359:1422   */\n      tag_100\n        /* \"#utility.yul\":1414:1421   */\n      dup5\n        /* \"#utility.yul\":1405:1411   */\n      dup3\n        /* \"#utility.yul\":1394:1403   */\n      dup6\n        /* \"#utility.yul\":1390:1412   */\n      add\n        /* \"#utility.yul\":1359:1422   */\n      tag_83\n      jump\t// in\n    tag_100:\n        /* \"#utility.yul\":1349:1422   */\n      swap2\n      pop\n        /* \"#utility.yul\":1145:1432   */\n      pop\n        /* \"#utility.yul\":930:1439   */\n      swap3\n      swap2\n      pop\n      pop\n      jump\t// out\n        /* \"#utility.yul\":1445:1774   */\n    tag_12:\n        /* \"#utility.yul\":1504:1510   */\n      0x00\n        /* \"#utility.yul\":1553:1555   */\n      0x20\n        /* \"#utility.yul\":1541:1550   */\n      dup3\n        /* \"#utility.yul\":1532:1539   */\n      dup5\n        /* \"#utility.yul\":1528:1551   */\n      sub\n        /* \"#utility.yul\":1524:1556   */\n      slt\n        /* \"#utility.yul\":1521:1640   */\n      iszero\n      tag_102\n      jumpi\n        /* \"#utility.yul\":1559:1638   */\n      tag_103\n      tag_96\n      jump\t// in\n    tag_103:\n        /* \"#utility.yul\":1521:1640   */\n    tag_102:\n        /* \"#utility.yul\":1679:1680   */\n      0x00\n        /* \"#utility.yul\":1704:1757   */\n      tag_104\n        /* \"#utility.yul\":1749:1756   */\n      dup5\n        /* \"#utility.yul\":1740:1746   */\n      dup3\n        /* \"#utility.yul\":1729:1738   */\n      dup6\n        /* \"#utility.yul\":1725:1747   */\n      add\n        /* \"#utility.yul\":1704:1757   */\n      tag_89\n      jump\t// in\n    tag_104:\n        /* \"#utility.yul\":1694:1757   */\n      swap2\n      pop\n        /* \"#utility.yul\":1650:1767   */\n      pop\n        /* \"#utility.yul\":1445:1774   */\n      swap3\n      swap2\n      pop\n      pop\n      jump\t// out\n        /* \"#utility.yul\":1780:2254   */\n    tag_8:\n        /* \"#utility.yul\":1848:1854   */\n      0x00\n        /* \"#utility.yul\":1856:1862   */\n      dup1\n        /* \"#utility.yul\":1905:1907   */\n      0x40\n        /* \"#utility.yul\":1893:1902   */\n      dup4\n        /* \"#utility.yul\":1884:1891   */\n      dup6\n        /* \"#utility.yul\":1880:1903   */\n      sub\n        /* \"#utility.yul\":1876:1908   */\n      slt\n        /* \"#utility.yul\":1873:1992   */\n      iszero\n      tag_106\n      jumpi\n        /* \"#utility.yul\":1911:1990   */\n      tag_107\n      tag_96\n      jump\t// in\n    tag_107:\n        /* \"#utility.yul\":1873:1992   */\n    tag_106:\n        /* \"#utility.yul\":2031:2032   */\n      0x00\n        /* \"#utility.yul\":2056:2109   */\n      tag_108\n        /* \"#utility.yul\":2101:2108   */\n      dup6\n        /* \"#utility.yul\":2092:2098   */\n      dup3\n        /* \"#utility.yul\":2081:2090   */\n      dup7\n        /* \"#utility.yul\":2077:2099   */\n      add\n        /* \"#utility.yul\":2056:2109   */\n      tag_89\n      jump\t// in\n    tag_108:\n        /* \"#utility.yul\":2046:2109   */\n      swap3\n      pop\n        /* \"#utility.yul\":2002:2119   */\n      pop\n        /* \"#utility.yul\":2158:2160   */\n      0x20\n        /* \"#utility.yul\":2184:2237   */\n      tag_109\n        /* \"#utility.yul\":2229:2236   */\n      dup6\n        /* \"#utility.yul\":2220:2226   */\n      dup3\n        /* \"#utility.yul\":2209:2218   */\n      dup7\n        /* \"#utility.yul\":2205:2227   */\n      add\n        /* \"#utility.yul\":2184:2237   */\n      tag_89\n      jump\t// in\n    tag_109:\n        /* \"#utility.yul\":2174:2237   */\n      swap2\n      pop\n        /* \"#utility.yul\":2129:2247   */\n      pop\n        /* \"#utility.yul\":1780:2254   */\n      swap3\n      pop\n      swap3\n      swap1\n      pop\n      jump\t// out\n        /* \"#utility.yul\":2260:2624   */\n    tag_110:\n        /* \"#utility.yul\":2348:2351   */\n      0x00\n        /* \"#utility.yul\":2376:2415   */\n      tag_112\n        /* \"#utility.yul\":2409:2414   */\n      dup3\n        /* \"#utility.yul\":2376:2415   */\n      tag_113\n      jump\t// in\n    tag_112:\n        /* \"#utility.yul\":2431:2502   */\n      tag_114\n        /* \"#utility.yul\":2495:2501   */\n      dup2\n        /* \"#utility.yul\":2490:2493   */\n      dup6\n        /* \"#utility.yul\":2431:2502   */\n      tag_115\n      jump\t// in\n    tag_114:\n        /* \"#utility.yul\":2424:2502   */\n      swap4\n      pop\n        /* \"#utility.yul\":2511:2563   */\n      tag_116\n        /* \"#utility.yul\":2556:2562   */\n      dup2\n        /* \"#utility.yul\":2551:2554   */\n      dup6\n        /* \"#utility.yul\":2544:2548   */\n      0x20\n        /* \"#utility.yul\":2537:2542   */\n      dup7\n        /* \"#utility.yul\":2533:2549   */\n      add\n        /* \"#utility.yul\":2511:2563   */\n      tag_117\n      jump\t// in\n    tag_116:\n        /* \"#utility.yul\":2588:2617   */\n      tag_118\n        /* \"#utility.yul\":2610:2616   */\n      dup2\n        /* \"#utility.yul\":2588:2617   */\n      tag_119\n      jump\t// in\n    tag_118:\n        /* \"#utility.yul\":2583:2586   */\n      dup5\n        /* \"#utility.yul\":2579:2618   */\n      add\n        /* \"#utility.yul\":2572:2618   */\n      swap2\n      pop\n        /* \"#utility.yul\":2352:2624   */\n      pop\n        /* \"#utility.yul\":2260:2624   */\n      swap3\n      swap2\n      pop\n      pop\n      jump\t// out\n        /* \"#utility.yul\":2630:3007   */\n    tag_120:\n        /* \"#utility.yul\":2736:2739   */\n      0x00\n        /* \"#utility.yul\":2764:2803   */\n      tag_122\n        /* \"#utility.yul\":2797:2802   */\n      dup3\n        /* \"#utility.yul\":2764:2803   */\n      tag_113\n      jump\t// in\n    tag_122:\n        /* \"#utility.yul\":2819:2908   */\n      tag_123\n        /* \"#utility.yul\":2901:2907   */\n      dup2\n        /* \"#utility.yul\":2896:2899   */\n      dup6\n        /* \"#utility.yul\":2819:2908   */\n      tag_124\n      jump\t// in\n    tag_123:\n        /* \"#utility.yul\":2812:2908   */\n      swap4\n      pop\n        /* \"#utility.yul\":2917:2969   */\n      tag_125\n        /* \"#utility.yul\":2962:2968   */\n      dup2\n        /* \"#utility.yul\":2957:2960   */\n      dup6\n        /* \"#utility.yul\":2950:2954   */\n      0x20\n        /* \"#utility.yul\":2943:2948   */\n      dup7\n        /* \"#utility.yul\":2939:2955   */\n      add\n        /* \"#utility.yul\":2917:2969   */\n      tag_117\n      jump\t// in\n    tag_125:\n        /* \"#utility.yul\":2994:3000   */\n      dup1\n        /* \"#utility.yul\":2989:2992   */\n      dup5\n        /* \"#utility.yul\":2985:3001   */\n      add\n        /* \"#utility.yul\":2978:3001   */\n      swap2\n      pop\n        /* \"#utility.yul\":2740:3007   */\n      pop\n        /* \"#utility.yul\":2630:3007   */\n      swap3\n      swap2\n      pop\n      pop\n      jump\t// out\n        /* \"#utility.yul\":3013:3131   */\n    tag_126:\n        /* \"#utility.yul\":3100:3124   */\n      tag_128\n        /* \"#utility.yul\":3118:3123   */\n      dup2\n        /* \"#utility.yul\":3100:3124   */\n      tag_129\n      jump\t// in\n    tag_128:\n        /* \"#utility.yul\":3095:3098   */\n      dup3\n        /* \"#utility.yul\":3088:3125   */\n      mstore\n        /* \"#utility.yul\":3013:3131   */\n      pop\n      pop\n      jump\t// out\n        /* \"#utility.yul\":3137:3412   */\n    tag_48:\n        /* \"#utility.yul\":3269:3272   */\n      0x00\n        /* \"#utility.yul\":3291:3386   */\n      tag_131\n        /* \"#utility.yul\":3382:3385   */\n      dup3\n        /* \"#utility.yul\":3373:3379   */\n      dup5\n        /* \"#utility.yul\":3291:3386   */\n      tag_120\n      jump\t// in\n    tag_131:\n        /* \"#utility.yul\":3284:3386   */\n      swap2\n      pop\n        /* \"#utility.yul\":3403:3406   */\n      dup2\n        /* \"#utility.yul\":3396:3406   */\n      swap1\n      pop\n        /* \"#utility.yul\":3137:3412   */\n      swap3\n      swap2\n      pop\n      pop\n      jump\t// out\n        /* \"#utility.yul\":3418:3841   */\n    tag_15:\n        /* \"#utility.yul\":3559:3563   */\n      0x00\n        /* \"#utility.yul\":3597:3599   */\n      0x40\n        /* \"#utility.yul\":3586:3595   */\n      dup3\n        /* \"#utility.yul\":3582:3600   */\n      add\n        /* \"#utility.yul\":3574:3600   */\n      swap1\n      pop\n        /* \"#utility.yul\":3610:3681   */\n      tag_133\n        /* \"#utility.yul\":3678:3679   */\n      0x00\n        /* \"#utility.yul\":3667:3676   */\n      dup4\n        /* \"#utility.yul\":3663:3680   */\n      add\n        /* \"#utility.yul\":3654:3660   */\n      dup6\n        /* \"#utility.yul\":3610:3681   */\n      tag_126\n      jump\t// in\n    tag_133:\n        /* \"#utility.yul\":3728:3737   */\n      dup2\n        /* \"#utility.yul\":3722:3726   */\n      dup2\n        /* \"#utility.yul\":3718:3738   */\n      sub\n        /* \"#utility.yul\":3713:3715   */\n      0x20\n        /* \"#utility.yul\":3702:3711   */\n      dup4\n        /* \"#utility.yul\":3698:3716   */\n      add\n        /* \"#utility.yul\":3691:3739   */\n      mstore\n        /* \"#utility.yul\":3756:3834   */\n      tag_134\n        /* \"#utility.yul\":3829:3833   */\n      dup2\n        /* \"#utility.yul\":3820:3826   */\n      dup5\n        /* \"#utility.yul\":3756:3834   */\n      tag_110\n      jump\t// in\n    tag_134:\n        /* \"#utility.yul\":3748:3834   */\n      swap1\n      pop\n        /* \"#utility.yul\":3418:3841   */\n      swap4\n      swap3\n      pop\n      pop\n      pop\n      jump\t// out\n        /* \"#utility.yul\":3847:4380   */\n    tag_60:\n        /* \"#utility.yul\":4016:4020   */\n      0x00\n        /* \"#utility.yul\":4054:4056   */\n      0x60\n        /* \"#utility.yul\":4043:4052   */\n      dup3\n        /* \"#utility.yul\":4039:4057   */\n      add\n        /* \"#utility.yul\":4031:4057   */\n      swap1\n      pop\n        /* \"#utility.yul\":4067:4138   */\n      tag_136\n        /* \"#utility.yul\":4135:4136   */\n      0x00\n        /* \"#utility.yul\":4124:4133   */\n      dup4\n        /* \"#utility.yul\":4120:4137   */\n      add\n        /* \"#utility.yul\":4111:4117   */\n      dup7\n        /* \"#utility.yul\":4067:4138   */\n      tag_126\n      jump\t// in\n    tag_136:\n        /* \"#utility.yul\":4185:4194   */\n      dup2\n        /* \"#utility.yul\":4179:4183   */\n      dup2\n        /* \"#utility.yul\":4175:4195   */\n      sub\n        /* \"#utility.yul\":4170:4172   */\n      0x20\n        /* \"#utility.yul\":4159:4168   */\n      dup4\n        /* \"#utility.yul\":4155:4173   */\n      add\n        /* \"#utility.yul\":4148:4196   */\n      mstore\n        /* \"#utility.yul\":4213:4291   */\n      tag_137\n        /* \"#utility.yul\":4286:4290   */\n      dup2\n        /* \"#utility.yul\":4277:4283   */\n      dup6\n        /* \"#utility.yul\":4213:4291   */\n      tag_110\n      jump\t// in\n    tag_137:\n        /* \"#utility.yul\":4205:4291   */\n      swap1\n      pop\n        /* \"#utility.yul\":4301:4373   */\n      tag_138\n        /* \"#utility.yul\":4369:4371   */\n      0x40\n        /* \"#utility.yul\":4358:4367   */\n      dup4\n        /* \"#utility.yul\":4354:4372   */\n      add\n        /* \"#utility.yul\":4345:4351   */\n      dup5\n        /* \"#utility.yul\":4301:4373   */\n      tag_126\n      jump\t// in\n    tag_138:\n        /* \"#utility.yul\":3847:4380   */\n      swap5\n      swap4\n      pop\n      pop\n      pop\n      pop\n      jump\t// out\n        /* \"#utility.yul\":4386:4515   */\n    tag_77:\n        /* \"#utility.yul\":4420:4426   */\n      0x00\n        /* \"#utility.yul\":4447:4467   */\n      tag_140\n      tag_141\n      jump\t// in\n    tag_140:\n        /* \"#utility.yul\":4437:4467   */\n      swap1\n      pop\n        /* \"#utility.yul\":4476:4509   */\n      tag_142\n        /* \"#utility.yul\":4504:4508   */\n      dup3\n        /* \"#utility.yul\":4496:4502   */\n      dup3\n        /* \"#utility.yul\":4476:4509   */\n      tag_143\n      jump\t// in\n    tag_142:\n        /* \"#utility.yul\":4386:4515   */\n      swap2\n      swap1\n      pop\n      jump\t// out\n        /* \"#utility.yul\":4521:4596   */\n    tag_141:\n        /* \"#utility.yul\":4554:4560   */\n      0x00\n        /* \"#utility.yul\":4587:4589   */\n      0x40\n        /* \"#utility.yul\":4581:4590   */\n      mload\n        /* \"#utility.yul\":4571:4590   */\n      swap1\n      pop\n        /* \"#utility.yul\":4521:4596   */\n      swap1\n      jump\t// out\n        /* \"#utility.yul\":4602:4910   */\n    tag_76:\n        /* \"#utility.yul\":4664:4668   */\n      0x00\n        /* \"#utility.yul\":4754:4772   */\n      0xffffffffffffffff\n        /* \"#utility.yul\":4746:4752   */\n      dup3\n        /* \"#utility.yul\":4743:4773   */\n      gt\n        /* \"#utility.yul\":4740:4796   */\n      iszero\n      tag_146\n      jumpi\n        /* \"#utility.yul\":4776:4794   */\n      tag_147\n      tag_148\n      jump\t// in\n    tag_147:\n        /* \"#utility.yul\":4740:4796   */\n    tag_146:\n        /* \"#utility.yul\":4814:4843   */\n      tag_149\n        /* \"#utility.yul\":4836:4842   */\n      dup3\n        /* \"#utility.yul\":4814:4843   */\n      tag_119\n      jump\t// in\n    tag_149:\n        /* \"#utility.yul\":4806:4843   */\n      swap1\n      pop\n        /* \"#utility.yul\":4898:4902   */\n      0x20\n        /* \"#utility.yul\":4892:4896   */\n      dup2\n        /* \"#utility.yul\":4888:4903   */\n      add\n        /* \"#utility.yul\":4880:4903   */\n      swap1\n      pop\n        /* \"#utility.yul\":4602:4910   */\n      swap2\n      swap1\n      pop\n      jump\t// out\n        /* \"#utility.yul\":4916:5015   */\n    tag_113:\n        /* \"#utility.yul\":4968:4974   */\n      0x00\n        /* \"#utility.yul\":5002:5007   */\n      dup2\n        /* \"#utility.yul\":4996:5008   */\n      mload\n        /* \"#utility.yul\":4986:5008   */\n      swap1\n      pop\n        /* \"#utility.yul\":4916:5015   */\n      swap2\n      swap1\n      pop\n      jump\t// out\n        /* \"#utility.yul\":5021:5190   */\n    tag_115:\n        /* \"#utility.yul\":5105:5116   */\n      0x00\n        /* \"#utility.yul\":5139:5145   */\n      dup3\n        /* \"#utility.yul\":5134:5137   */\n      dup3\n        /* \"#utility.yul\":5127:5146   */\n      mstore\n        /* \"#utility.yul\":5179:5183   */\n      0x20\n        /* \"#utility.yul\":5174:5177   */\n      dup3\n        /* \"#utility.yul\":5170:5184   */\n      add\n        /* \"#utility.yul\":5155:5184   */\n      swap1\n      pop\n        /* \"#utility.yul\":5021:5190   */\n      swap3\n      swap2\n      pop\n      pop\n      jump\t// out\n        /* \"#utility.yul\":5196:5344   */\n    tag_124:\n        /* \"#utility.yul\":5298:5309   */\n      0x00\n        /* \"#utility.yul\":5335:5338   */\n      dup2\n        /* \"#utility.yul\":5320:5338   */\n      swap1\n      pop\n        /* \"#utility.yul\":5196:5344   */\n      swap3\n      swap2\n      pop\n      pop\n      jump\t// out\n        /* \"#utility.yul\":5350:5655   */\n    tag_29:\n        /* \"#utility.yul\":5390:5393   */\n      0x00\n        /* \"#utility.yul\":5409:5429   */\n      tag_154\n        /* \"#utility.yul\":5427:5428   */\n      dup3\n        /* \"#utility.yul\":5409:5429   */\n      tag_129\n      jump\t// in\n    tag_154:\n        /* \"#utility.yul\":5404:5429   */\n      swap2\n      pop\n        /* \"#utility.yul\":5443:5463   */\n      tag_155\n        /* \"#utility.yul\":5461:5462   */\n      dup4\n        /* \"#utility.yul\":5443:5463   */\n      tag_129\n      jump\t// in\n    tag_155:\n        /* \"#utility.yul\":5438:5463   */\n      swap3\n      pop\n        /* \"#utility.yul\":5597:5598   */\n      dup3\n        /* \"#utility.yul\":5529:5595   */\n      0xffffffffffffffffffffffffffffffffffffffffffffffffffffffffffffffff\n        /* \"#utility.yul\":5525:5599   */\n      sub\n        /* \"#utility.yul\":5522:5523   */\n      dup3\n        /* \"#utility.yul\":5519:5600   */\n      gt\n        /* \"#utility.yul\":5516:5623   */\n      iszero\n      tag_156\n      jumpi\n        /* \"#utility.yul\":5603:5621   */\n      tag_157\n      tag_158\n      jump\t// in\n    tag_157:\n        /* \"#utility.yul\":5516:5623   */\n    tag_156:\n        /* \"#utility.yul\":5647:5648   */\n      dup3\n        /* \"#utility.yul\":5644:5645   */\n      dup3\n        /* \"#utility.yul\":5640:5649   */\n      add\n        /* \"#utility.yul\":5633:5649   */\n      swap1\n      pop\n        /* \"#utility.yul\":5350:5655   */\n      swap3\n      swap2\n      pop\n      pop\n      jump\t// out\n        /* \"#utility.yul\":5661:5846   */\n    tag_31:\n        /* \"#utility.yul\":5701:5702   */\n      0x00\n        /* \"#utility.yul\":5718:5738   */\n      tag_160\n        /* \"#utility.yul\":5736:5737   */\n      dup3\n        /* \"#utility.yul\":5718:5738   */\n      tag_129\n      jump\t// in\n    tag_160:\n        /* \"#utility.yul\":5713:5738   */\n      swap2\n      pop\n        /* \"#utility.yul\":5752:5772   */\n      tag_161\n        /* \"#utility.yul\":5770:5771   */\n      dup4\n        /* \"#utility.yul\":5752:5772   */\n      tag_129\n      jump\t// in\n    tag_161:\n        /* \"#utility.yul\":5747:5772   */\n      swap3\n      pop\n        /* \"#utility.yul\":5791:5792   */\n      dup3\n        /* \"#utility.yul\":5781:5816   */\n      tag_162\n      jumpi\n        /* \"#utility.yul\":5796:5814   */\n      tag_163\n      tag_164\n      jump\t// in\n    tag_163:\n        /* \"#utility.yul\":5781:5816   */\n    tag_162:\n        /* \"#utility.yul\":5838:5839   */\n      dup3\n        /* \"#utility.yul\":5835:5836   */\n      dup3\n        /* \"#utility.yul\":5831:5840   */\n      div\n        /* \"#utility.yul\":5826:5840   */\n      swap1\n      pop\n        /* \"#utility.yul\":5661:5846   */\n      swap3\n      swap2\n      pop\n      pop\n      jump\t// out\n        /* \"#utility.yul\":5852:6043   */\n    tag_55:\n        /* \"#utility.yul\":5892:5896   */\n      0x00\n        /* \"#utility.yul\":5912:5932   */\n      tag_166\n        /* \"#utility.yul\":5930:5931   */\n      dup3\n        /* \"#utility.yul\":5912:5932   */\n      tag_129\n      jump\t// in\n    tag_166:\n        /* \"#utility.yul\":5907:5932   */\n      swap2\n      pop\n        /* \"#utility.yul\":5946:5966   */\n      tag_167\n        /* \"#utility.yul\":5964:5965   */\n      dup4\n        /* \"#utility.yul\":5946:5966   */\n      tag_129\n      jump\t// in\n    tag_167:\n        /* \"#utility.yul\":5941:5966   */\n      swap3\n      pop\n        /* \"#utility.yul\":5985:5986   */\n      dup3\n        /* \"#utility.yul\":5982:5983   */\n      dup3\n        /* \"#utility.yul\":5979:5987   */\n      lt\n        /* \"#utility.yul\":5976:6010   */\n      iszero\n      tag_168\n      jumpi\n        /* \"#utility.yul\":5990:6008   */\n      tag_169\n      tag_158\n      jump\t// in\n    tag_169:\n        /* \"#utility.yul\":5976:6010   */\n    tag_168:\n        /* \"#utility.yul\":6035:6036   */\n      dup3\n        /* \"#utility.yul\":6032:6033   */\n      dup3\n        /* \"#utility.yul\":6028:6037   */\n      sub\n        /* \"#utility.yul\":6020:6037   */\n      swap1\n      pop\n        /* \"#utility.yul\":5852:6043   */\n      swap3\n      swap2\n      pop\n      pop\n      jump\t// out\n        /* \"#utility.yul\":6049:6126   */\n    tag_129:\n        /* \"#utility.yul\":6086:6093   */\n      0x00\n        /* \"#utility.yul\":6115:6120   */\n      dup2\n        /* \"#utility.yul\":6104:6120   */\n      swap1\n      pop\n        /* \"#utility.yul\":6049:6126   */\n      swap2\n      swap1\n      pop\n      jump\t// out\n        /* \"#utility.yul\":6132:6286   */\n    tag_82:\n        /* \"#utility.yul\":6216:6222   */\n      dup3\n        /* \"#utility.yul\":6211:6214   */\n      dup2\n        /* \"#utility.yul\":6206:6209   */\n      dup4\n        /* \"#utility.yul\":6193:6223   */\n      calldatacopy\n        /* \"#utility.yul\":6278:6279   */\n      0x00\n        /* \"#utility.yul\":6269:6275   */\n      dup4\n        /* \"#utility.yul\":6264:6267   */\n      dup4\n        /* \"#utility.yul\":6260:6276   */\n      add\n        /* \"#utility.yul\":6253:6280   */\n      mstore\n        /* \"#utility.yul\":6132:6286   */\n      pop\n      pop\n      pop\n      jump\t// out\n        /* \"#utility.yul\":6292:6599   */\n    tag_117:\n        /* \"#utility.yul\":6360:6361   */\n      0x00\n        /* \"#utility.yul\":6370:6483   */\n    tag_173:\n        /* \"#utility.yul\":6384:6390   */\n      dup4\n        /* \"#utility.yul\":6381:6382   */\n      dup2\n        /* \"#utility.yul\":6378:6391   */\n      lt\n        /* \"#utility.yul\":6370:6483   */\n      iszero\n      tag_175\n      jumpi\n        /* \"#utility.yul\":6469:6470   */\n      dup1\n        /* \"#utility.yul\":6464:6467   */\n      dup3\n        /* \"#utility.yul\":6460:6471   */\n      add\n        /* \"#utility.yul\":6454:6472   */\n      mload\n        /* \"#utility.yul\":6450:6451   */\n      dup2\n        /* \"#utility.yul\":6445:6448   */\n      dup5\n        /* \"#utility.yul\":6441:6452   */\n      add\n        /* \"#utility.yul\":6434:6473   */\n      mstore\n        /* \"#utility.yul\":6406:6408   */\n      0x20\n        /* \"#utility.yul\":6403:6404   */\n      dup2\n        /* \"#utility.yul\":6399:6409   */\n      add\n        /* \"#utility.yul\":6394:6409   */\n      swap1\n      pop\n        /* \"#utility.yul\":6370:6483   */\n      jump(tag_173)\n    tag_175:\n        /* \"#utility.yul\":6501:6507   */\n      dup4\n        /* \"#utility.yul\":6498:6499   */\n      dup2\n        /* \"#utility.yul\":6495:6508   */\n      gt\n        /* \"#utility.yul\":6492:6593   */\n      iszero\n      tag_176\n      jumpi\n        /* \"#utility.yul\":6581:6582   */\n      0x00\n        /* \"#utility.yul\":6572:6578   */\n      dup5\n        /* \"#utility.yul\":6567:6570   */\n      dup5\n        /* \"#utility.yul\":6563:6579   */\n      add\n        /* \"#utility.yul\":6556:6583   */\n      mstore\n        /* \"#utility.yul\":6492:6593   */\n    tag_176:\n        /* \"#utility.yul\":6341:6599   */\n      pop\n        /* \"#utility.yul\":6292:6599   */\n      pop\n      pop\n      pop\n      jump\t// out\n        /* \"#utility.yul\":6605:6925   */\n    tag_35:\n        /* \"#utility.yul\":6649:6655   */\n      0x00\n        /* \"#utility.yul\":6686:6687   */\n      0x02\n        /* \"#utility.yul\":6680:6684   */\n      dup3\n        /* \"#utility.yul\":6676:6688   */\n      div\n        /* \"#utility.yul\":6666:6688   */\n      swap1\n      pop\n        /* \"#utility.yul\":6733:6734   */\n      0x01\n        /* \"#utility.yul\":6727:6731   */\n      dup3\n        /* \"#utility.yul\":6723:6735   */\n      and\n        /* \"#utility.yul\":6754:6772   */\n      dup1\n        /* \"#utility.yul\":6744:6825   */\n      tag_178\n      jumpi\n        /* \"#utility.yul\":6810:6814   */\n      0x7f\n        /* \"#utility.yul\":6802:6808   */\n      dup3\n        /* \"#utility.yul\":6798:6815   */\n      and\n        /* \"#utility.yul\":6788:6815   */\n      swap2\n      pop\n        /* \"#utility.yul\":6744:6825   */\n    tag_178:\n        /* \"#utility.yul\":6872:6874   */\n      0x20\n        /* \"#utility.yul\":6864:6870   */\n      dup3\n        /* \"#utility.yul\":6861:6875   */\n      lt\n        /* \"#utility.yul\":6841:6859   */\n      dup2\n        /* \"#utility.yul\":6838:6876   */\n      eq\n        /* \"#utility.yul\":6835:6919   */\n      iszero\n      tag_179\n      jumpi\n        /* \"#utility.yul\":6891:6909   */\n      tag_180\n      tag_181\n      jump\t// in\n    tag_180:\n        /* \"#utility.yul\":6835:6919   */\n    tag_179:\n        /* \"#utility.yul\":6656:6925   */\n      pop\n        /* \"#utility.yul\":6605:6925   */\n      swap2\n      swap1\n      pop\n      jump\t// out\n        /* \"#utility.yul\":6931:7212   */\n    tag_143:\n        /* \"#utility.yul\":7014:7041   */\n      tag_183\n        /* \"#utility.yul\":7036:7040   */\n      dup3\n        /* \"#utility.yul\":7014:7041   */\n      tag_119\n      jump\t// in\n    tag_183:\n        /* \"#utility.yul\":7006:7012   */\n      dup2\n        /* \"#utility.yul\":7002:7042   */\n      add\n        /* \"#utility.yul\":7144:7150   */\n      dup2\n        /* \"#utility.yul\":7132:7142   */\n      dup2\n        /* \"#utility.yul\":7129:7151   */\n      lt\n        /* \"#utility.yul\":7108:7126   */\n      0xffffffffffffffff\n        /* \"#utility.yul\":7096:7106   */\n      dup3\n        /* \"#utility.yul\":7093:7127   */\n      gt\n        /* \"#utility.yul\":7090:7152   */\n      or\n        /* \"#utility.yul\":7087:7175   */\n      iszero\n      tag_184\n      jumpi\n        /* \"#utility.yul\":7155:7173   */\n      tag_185\n      tag_148\n      jump\t// in\n    tag_185:\n        /* \"#utility.yul\":7087:7175   */\n    tag_184:\n        /* \"#utility.yul\":7195:7205   */\n      dup1\n        /* \"#utility.yul\":7191:7193   */\n      0x40\n        /* \"#utility.yul\":7184:7206   */\n      mstore\n        /* \"#utility.yul\":6974:7212   */\n      pop\n        /* \"#utility.yul\":6931:7212   */\n      pop\n      pop\n      jump\t// out\n        /* \"#utility.yul\":7218:7451   */\n    tag_57:\n        /* \"#utility.yul\":7257:7260   */\n      0x00\n        /* \"#utility.yul\":7280:7304   */\n      tag_187\n        /* \"#utility.yul\":7298:7303   */\n      dup3\n        /* \"#utility.yul\":7280:7304   */\n      tag_129\n      jump\t// in\n    tag_187:\n        /* \"#utility.yul\":7271:7304   */\n      swap2\n      pop\n        /* \"#utility.yul\":7326:7392   */\n      0xffffffffffffffffffffffffffffffffffffffffffffffffffffffffffffffff\n        /* \"#utility.yul\":7319:7324   */\n      dup3\n        /* \"#utility.yul\":7316:7393   */\n      eq\n        /* \"#utility.yul\":7313:7416   */\n      iszero\n      tag_188\n      jumpi\n        /* \"#utility.yul\":7396:7414   */\n      tag_189\n      tag_158\n      jump\t// in\n    tag_189:\n        /* \"#utility.yul\":7313:7416   */\n    tag_188:\n        /* \"#utility.yul\":7443:7444   */\n      0x01\n        /* \"#utility.yul\":7436:7441   */\n      dup3\n        /* \"#utility.yul\":7432:7445   */\n      add\n        /* \"#utility.yul\":7425:7445   */\n      swap1\n      pop\n        /* \"#utility.yul\":7218:7451   */\n      swap2\n      swap1\n      pop\n      jump\t// out\n        /* \"#utility.yul\":7457:7633   */\n    tag_27:\n        /* \"#utility.yul\":7489:7490   */\n      0x00\n        /* \"#utility.yul\":7506:7526   */\n      tag_191\n        /* \"#utility.yul\":7524:7525   */\n      dup3\n        /* \"#utility.yul\":7506:7526   */\n      tag_129\n      jump\t// in\n    tag_191:\n        /* \"#utility.yul\":7501:7526   */\n      swap2\n      pop\n        /* \"#utility.yul\":7540:7560   */\n      tag_192\n        /* \"#utility.yul\":7558:7559   */\n      dup4\n        /* \"#utility.yul\":7540:7560   */\n      tag_129\n      jump\t// in\n    tag_192:\n        /* \"#utility.yul\":7535:7560   */\n      swap3\n      pop\n        /* \"#utility.yul\":7579:7580   */\n      dup3\n        /* \"#utility.yul\":7569:7604   */\n      tag_193\n      jumpi\n        /* \"#utility.yul\":7584:7602   */\n      tag_194\n      tag_164\n      jump\t// in\n    tag_194:\n        /* \"#utility.yul\":7569:7604   */\n    tag_193:\n        /* \"#utility.yul\":7625:7626   */\n      dup3\n        /* \"#utility.yul\":7622:7623   */\n      dup3\n        /* \"#utility.yul\":7618:7627   */\n      mod\n        /* \"#utility.yul\":7613:7627   */\n      swap1\n      pop\n        /* \"#utility.yul\":7457:7633   */\n      swap3\n      swap2\n      pop\n      pop\n      jump\t// out\n        /* \"#utility.yul\":7639:7819   */\n    tag_158:\n        /* \"#utility.yul\":7687:7764   */\n      0x4e487b7100000000000000000000000000000000000000000000000000000000\n        /* \"#utility.yul\":7684:7685   */\n      0x00\n        /* \"#utility.yul\":7677:7765   */\n      mstore\n        /* \"#utility.yul\":7784:7788   */\n      0x11\n        /* \"#utility.yul\":7781:7782   */\n      0x04\n        /* \"#utility.yul\":7774:7789   */\n      mstore\n        /* \"#utility.yul\":7808:7812   */\n      0x24\n        /* \"#utility.yul\":7805:7806   */\n      0x00\n        /* \"#utility.yul\":7798:7813   */\n      revert\n        /* \"#utility.yul\":7825:8005   */\n    tag_164:\n        /* \"#utility.yul\":7873:7950   */\n      0x4e487b7100000000000000000000000000000000000000000000000000000000\n        /* \"#utility.yul\":7870:7871   */\n      0x00\n        /* \"#utility.yul\":7863:7951   */\n      mstore\n        /* \"#utility.yul\":7970:7974   */\n      0x12\n        /* \"#utility.yul\":7967:7968   */\n      0x04\n        /* \"#utility.yul\":7960:7975   */\n      mstore\n        /* \"#utility.yul\":7994:7998   */\n      0x24\n        /* \"#utility.yul\":7991:7992   */\n      0x00\n        /* \"#utility.yul\":7984:7999   */\n      revert\n        /* \"#utility.yul\":8011:8191   */\n    tag_181:\n        /* \"#utility.yul\":8059:8136   */\n      0x4e487b7100000000000000000000000000000000000000000000000000000000\n        /* \"#utility.yul\":8056:8057   */\n      0x00\n        /* \"#utility.yul\":8049:8137   */\n      mstore\n        /* \"#utility.yul\":8156:8160   */\n      0x22\n        /* \"#utility.yul\":8153:8154   */\n      0x04\n        /* \"#utility.yul\":8146:8161   */\n      mstore\n        /* \"#utility.yul\":8180:8184   */\n      0x24\n        /* \"#utility.yul\":8177:8178   */\n      0x00\n        /* \"#utility.yul\":8170:8185   */\n      revert\n        /* \"#utility.yul\":8197:8377   */\n    tag_24:\n        /* \"#utility.yul\":8245:8322   */\n      0x4e487b7100000000000000000000000000000000000000000000000000000000\n        /* \"#utility.yul\":8242:8243   */\n      0x00\n        /* \"#utility.yul\":8235:8323   */\n      mstore\n        /* \"#utility.yul\":8342:8346   */\n      0x32\n        /* \"#utility.yul\":8339:8340   */\n      0x04\n        /* \"#utility.yul\":8332:8347   */\n      mstore\n        /* \"#utility.yul\":8366:8370   */\n      0x24\n        /* \"#utility.yul\":8363:8364   */\n      0x00\n        /* \"#utility.yul\":8356:8371   */\n      revert\n        /* \"#utility.yul\":8383:8563   */\n    tag_148:\n        /* \"#utility.yul\":8431:8508   */\n      0x4e487b7100000000000000000000000000000000000000000000000000000000\n        /* \"#utility.yul\":8428:8429   */\n      0x00\n        /* \"#utility.yul\":8421:8509   */\n      mstore\n        /* \"#utility.yul\":8528:8532   */\n      0x41\n        /* \"#utility.yul\":8525:8526   */\n      0x04\n        /* \"#utility.yul\":8518:8533   */\n      mstore\n        /* \"#utility.yul\":8552:8556   */\n      0x24\n        /* \"#utility.yul\":8549:8550   */\n      0x00\n        /* \"#utility.yul\":8542:8557   */\n      revert\n        /* \"#utility.yul\":8569:8686   */\n    tag_87:\n        /* \"#utility.yul\":8678:8679   */\n      0x00\n        /* \"#utility.yul\":8675:8676   */\n      dup1\n        /* \"#utility.yul\":8668:8680   */\n      revert\n        /* \"#utility.yul\":8692:8809   */\n    tag_80:\n        /* \"#utility.yul\":8801:8802   */\n      0x00\n        /* \"#utility.yul\":8798:8799   */\n      dup1\n        /* \"#utility.yul\":8791:8803   */\n      revert\n        /* \"#utility.yul\":8815:8932   */\n    tag_99:\n        /* \"#utility.yul\":8924:8925   */\n      0x00\n        /* \"#utility.yul\":8921:8922   */\n      dup1\n        /* \"#utility.yul\":8914:8926   */\n      revert\n        /* \"#utility.yul\":8938:9055   */\n    tag_96:\n        /* \"#utility.yul\":9047:9048   */\n      0x00\n        /* \"#utility.yul\":9044:9045   */\n      dup1\n        /* \"#utility.yul\":9037:9049   */\n      revert\n        /* \"#utility.yul\":9061:9163   */\n    tag_119:\n        /* \"#utility.yul\":9102:9108   */\n      0x00\n        /* \"#utility.yul\":9153:9155   */\n      0x1f\n        /* \"#utility.yul\":9149:9156   */\n      not\n        /* \"#utility.yul\":9144:9146   */\n      0x1f\n        /* \"#utility.yul\":9137:9142   */\n      dup4\n        /* \"#utility.yul\":9133:9147   */\n      add\n        /* \"#utility.yul\":9129:9157   */\n      and\n        /* \"#utility.yul\":9119:9157   */\n      swap1\n      pop\n        /* \"#utility.yul\":9061:9163   */\n      swap2\n      swap1\n      pop\n      jump\t// out\n        /* \"#utility.yul\":9169:9291   */\n    tag_92:\n        /* \"#utility.yul\":9242:9266   */\n      tag_206\n        /* \"#utility.yul\":9260:9265   */\n      dup2\n        /* \"#utility.yul\":9242:9266   */\n      tag_129\n      jump\t// in\n    tag_206:\n        /* \"#utility.yul\":9235:9240   */\n      dup2\n        /* \"#utility.yul\":9232:9267   */\n      eq\n        /* \"#utility.yul\":9222:9285   */\n      tag_207\n      jumpi\n        /* \"#utility.yul\":9281:9282   */\n      0x00\n        /* \"#utility.yul\":9278:9279   */\n      dup1\n        /* \"#utility.yul\":9271:9283   */\n      revert\n        /* \"#utility.yul\":9222:9285   */\n    tag_207:\n        /* \"#utility.yul\":9169:9291   */\n      pop\n      jump\t// out\n\n    auxdata: 0xa2646970667358221220e61219ce82e77416a12eae7a230782e58f5ead55a68fcb6e5b137c5694abb15f64736f6c63430008070033\n}\n",
				"bytecode": {
					"linkReferences": {},
					"object": "60806040526010600055600054600a6200001a91906200008c565b6001553480156200002a57600080fd5b506200020f565b6000808291508390505b600185111562000083578086048111156200005b576200005a620001d3565b5b60018516156200006b5780820291505b80810290506200007b8562000202565b94506200003b565b94509492505050565b60006200009982620001c9565b9150620000a683620001c9565b9250620000d57fffffffffffffffffffffffffffffffffffffffffffffffffffffffffffffffff8484620000dd565b905092915050565b600082620000ef5760019050620001c2565b81620000ff5760009050620001c2565b8160018114620001185760028114620001235762000159565b6001915050620001c2565b60ff841115620001385762000137620001d3565b5b8360020a915084821115620001525762000151620001d3565b5b50620001c2565b5060208310610133831016604e8410600b8410161715620001935782820a9050838111156200018d576200018c620001d3565b5b620001c2565b620001a2848484600162000031565b92509050818404811115620001bc57620001bb620001d3565b5b81810290505b9392505050565b6000819050919050565b7f4e487b7100000000000000000000000000000000000000000000000000000000600052601160045260246000fd5b60008160011c9050919050565b610acd806200021f6000396000f3fe608060405234801561001057600080fd5b50600436106100415760003560e01c80630dedffb8146100465780632052465e14610062578063c6f1511214610093575b600080fd5b610060600480360381019061005b91906105d1565b6100af565b005b61007c600480360381019061007791906105a4565b61015a565b60405161008a9291906106a1565b60405180910390f35b6100ad60048036038101906100a8919061055b565b610216565b005b6000600460003373ffffffffffffffffffffffffffffffffffffffff1673ffffffffffffffffffffffffffffffffffffffff16815260200190815260200160002054146100fb57600080fd5b600060028381548110610111576101106109fd565b5b90600052602060002090600202019050600060015483610131919061093f565b905060006002836000015483610147919061078c565b61015191906107e2565b90505050505050565b6002818154811061016a57600080fd5b906000526020600020906002020160009150905080600001549080600101805461019390610893565b80601f01602080910402602001604051908101604052809291908181526020018280546101bf90610893565b801561020c5780601f106101e15761010080835404028352916020019161020c565b820191906000526020600020905b8154815290600101906020018083116101ef57829003601f168201915b5050505050905082565b6000600460003373ffffffffffffffffffffffffffffffffffffffff1673ffffffffffffffffffffffffffffffffffffffff168152602001908152602001600020541461026257600080fd5b600061026d8261027d565b905061027982826102c2565b5050565b60008082604051602001610291919061068a565b6040516020818303038152906040528051906020012060001c9050600154816102ba919061093f565b915050919050565b60026040518060400160405280838152602001848152509080600181540180825580915050600190039060005260206000209060020201600090919091909150600082015181600001556020820151816001019080519060200190610328929190610433565b505050336003600060016002805490506103429190610813565b815260200190815260200160002060006101000a81548173ffffffffffffffffffffffffffffffffffffffff021916908373ffffffffffffffffffffffffffffffffffffffff160217905550600460003373ffffffffffffffffffffffffffffffffffffffff1673ffffffffffffffffffffffffffffffffffffffff16815260200190815260200160002060008154809291906103de906108f6565b91905055507f88f026aacbbecc90c18411df4b1185fd8d9be2470f1962f192bf84a27d0704b760016002805490506104169190610813565b8383604051610427939291906106d1565b60405180910390a15050565b82805461043f90610893565b90600052602060002090601f01602090048101928261046157600085556104a8565b82601f1061047a57805160ff19168380011785556104a8565b828001600101855582156104a8579182015b828111156104a757825182559160200191906001019061048c565b5b5090506104b591906104b9565b5090565b5b808211156104d25760008160009055506001016104ba565b5090565b60006104e96104e484610734565b61070f565b90508281526020810184848401111561050557610504610a60565b5b610510848285610851565b509392505050565b600082601f83011261052d5761052c610a5b565b5b813561053d8482602086016104d6565b91505092915050565b60008135905061055581610a80565b92915050565b60006020828403121561057157610570610a6a565b5b600082013567ffffffffffffffff81111561058f5761058e610a65565b5b61059b84828501610518565b91505092915050565b6000602082840312156105ba576105b9610a6a565b5b60006105c884828501610546565b91505092915050565b600080604083850312156105e8576105e7610a6a565b5b60006105f685828601610546565b925050602061060785828601610546565b9150509250929050565b600061061c82610765565b6106268185610770565b9350610636818560208601610860565b61063f81610a6f565b840191505092915050565b600061065582610765565b61065f8185610781565b935061066f818560208601610860565b80840191505092915050565b61068481610847565b82525050565b6000610696828461064a565b915081905092915050565b60006040820190506106b6600083018561067b565b81810360208301526106c88184610611565b90509392505050565b60006060820190506106e6600083018661067b565b81810360208301526106f88185610611565b9050610707604083018461067b565b949350505050565b600061071961072a565b905061072582826108c5565b919050565b6000604051905090565b600067ffffffffffffffff82111561074f5761074e610a2c565b5b61075882610a6f565b9050602081019050919050565b600081519050919050565b600082825260208201905092915050565b600081905092915050565b600061079782610847565b91506107a283610847565b9250827fffffffffffffffffffffffffffffffffffffffffffffffffffffffffffffffff038211156107d7576107d6610970565b5b828201905092915050565b60006107ed82610847565b91506107f883610847565b9250826108085761080761099f565b5b828204905092915050565b600061081e82610847565b915061082983610847565b92508282101561083c5761083b610970565b5b828203905092915050565b6000819050919050565b82818337600083830152505050565b60005b8381101561087e578082015181840152602081019050610863565b8381111561088d576000848401525b50505050565b600060028204905060018216806108ab57607f821691505b602082108114156108bf576108be6109ce565b5b50919050565b6108ce82610a6f565b810181811067ffffffffffffffff821117156108ed576108ec610a2c565b5b80604052505050565b600061090182610847565b91507fffffffffffffffffffffffffffffffffffffffffffffffffffffffffffffffff82141561093457610933610970565b5b600182019050919050565b600061094a82610847565b915061095583610847565b9250826109655761096461099f565b5b828206905092915050565b7f4e487b7100000000000000000000000000000000000000000000000000000000600052601160045260246000fd5b7f4e487b7100000000000000000000000000000000000000000000000000000000600052601260045260246000fd5b7f4e487b7100000000000000000000000000000000000000000000000000000000600052602260045260246000fd5b7f4e487b7100000000000000000000000000000000000000000000000000000000600052603260045260246000fd5b7f4e487b7100000000000000000000000000000000000000000000000000000000600052604160045260246000fd5b600080fd5b600080fd5b600080fd5b600080fd5b6000601f19601f8301169050919050565b610a8981610847565b8114610a9457600080fd5b5056fea2646970667358221220e61219ce82e77416a12eae7a230782e58f5ead55a68fcb6e5b137c5694abb15f64736f6c63430008070033",
					"opcodes": "PUSH1 0x80 PUSH1 0x40 MSTORE PUSH1 0x10 PUSH1 0x0 SSTORE PUSH1 0x0 SLOAD PUSH1 0xA PUSH3 0x1A SWAP2 SWAP1 PUSH3 0x8C JUMP JUMPDEST PUSH1 0x1 SSTORE CALLVALUE DUP1 ISZERO PUSH3 0x2A JUMPI PUSH1 0x0 DUP1 REVERT JUMPDEST POP PUSH3 0x20F JUMP JUMPDEST PUSH1 0x0 DUP1 DUP3 SWAP2 POP DUP4 SWAP1 POP JUMPDEST PUSH1 0x1 DUP6 GT ISZERO PUSH3 0x83 JUMPI DUP1 DUP7 DIV DUP2 GT ISZERO PUSH3 0x5B JUMPI PUSH3 0x5A PUSH3 0x1D3 JUMP JUMPDEST JUMPDEST PUSH1 0x1 DUP6 AND ISZERO PUSH3 0x6B JUMPI DUP1 DUP3 MUL SWAP2 POP JUMPDEST DUP1 DUP2 MUL SWAP1 POP PUSH3 0x7B DUP6 PUSH3 0x202 JUMP JUMPDEST SWAP5 POP PUSH3 0x3B JUMP JUMPDEST SWAP5 POP SWAP5 SWAP3 POP POP POP JUMP JUMPDEST PUSH1 0x0 PUSH3 0x99 DUP3 PUSH3 0x1C9 JUMP JUMPDEST SWAP2 POP PUSH3 0xA6 DUP4 PUSH3 0x1C9 JUMP JUMPDEST SWAP3 POP PUSH3 0xD5 PUSH32 0xFFFFFFFFFFFFFFFFFFFFFFFFFFFFFFFFFFFFFFFFFFFFFFFFFFFFFFFFFFFFFFFF DUP5 DUP5 PUSH3 0xDD JUMP JUMPDEST SWAP1 POP SWAP3 SWAP2 POP POP JUMP JUMPDEST PUSH1 0x0 DUP3 PUSH3 0xEF JUMPI PUSH1 0x1 SWAP1 POP PUSH3 0x1C2 JUMP JUMPDEST DUP2 PUSH3 0xFF JUMPI PUSH1 0x0 SWAP1 POP PUSH3 0x1C2 JUMP JUMPDEST DUP2 PUSH1 0x1 DUP2 EQ PUSH3 0x118 JUMPI PUSH1 0x2 DUP2 EQ PUSH3 0x123 JUMPI PUSH3 0x159 JUMP JUMPDEST PUSH1 0x1 SWAP2 POP POP PUSH3 0x1C2 JUMP JUMPDEST PUSH1 0xFF DUP5 GT ISZERO PUSH3 0x138 JUMPI PUSH3 0x137 PUSH3 0x1D3 JUMP JUMPDEST JUMPDEST DUP4 PUSH1 0x2 EXP SWAP2 POP DUP5 DUP3 GT ISZERO PUSH3 0x152 JUMPI PUSH3 0x151 PUSH3 0x1D3 JUMP JUMPDEST JUMPDEST POP PUSH3 0x1C2 JUMP JUMPDEST POP PUSH1 0x20 DUP4 LT PUSH2 0x133 DUP4 LT AND PUSH1 0x4E DUP5 LT PUSH1 0xB DUP5 LT AND OR ISZERO PUSH3 0x193 JUMPI DUP3 DUP3 EXP SWAP1 POP DUP4 DUP2 GT ISZERO PUSH3 0x18D JUMPI PUSH3 0x18C PUSH3 0x1D3 JUMP JUMPDEST JUMPDEST PUSH3 0x1C2 JUMP JUMPDEST PUSH3 0x1A2 DUP5 DUP5 DUP5 PUSH1 0x1 PUSH3 0x31 JUMP JUMPDEST SWAP3 POP SWAP1 POP DUP2 DUP5 DIV DUP2 GT ISZERO PUSH3 0x1BC JUMPI PUSH3 0x1BB PUSH3 0x1D3 JUMP JUMPDEST JUMPDEST DUP2 DUP2 MUL SWAP1 POP JUMPDEST SWAP4 SWAP3 POP POP POP JUMP JUMPDEST PUSH1 0x0 DUP2 SWAP1 POP SWAP2 SWAP1 POP JUMP JUMPDEST PUSH32 0x4E487B7100000000000000000000000000000000000000000000000000000000 PUSH1 0x0 MSTORE PUSH1 0x11 PUSH1 0x4 MSTORE PUSH1 0x24 PUSH1 0x0 REVERT JUMPDEST PUSH1 0x0 DUP2 PUSH1 0x1 SHR SWAP1 POP SWAP2 SWAP1 POP JUMP JUMPDEST PUSH2 0xACD DUP1 PUSH3 0x21F PUSH1 0x0 CODECOPY PUSH1 0x0 RETURN INVALID PUSH1 0x80 PUSH1 0x40 MSTORE CALLVALUE DUP1 ISZERO PUSH2 0x10 JUMPI PUSH1 0x0 DUP1 REVERT JUMPDEST POP PUSH1 0x4 CALLDATASIZE LT PUSH2 0x41 JUMPI PUSH1 0x0 CALLDATALOAD PUSH1 0xE0 SHR DUP1 PUSH4 0xDEDFFB8 EQ PUSH2 0x46 JUMPI DUP1 PUSH4 0x2052465E EQ PUSH2 0x62 JUMPI DUP1 PUSH4 0xC6F15112 EQ PUSH2 0x93 JUMPI JUMPDEST PUSH1 0x0 DUP1 REVERT JUMPDEST PUSH2 0x60 PUSH1 0x4 DUP1 CALLDATASIZE SUB DUP2 ADD SWAP1 PUSH2 0x5B SWAP2 SWAP1 PUSH2 0x5D1 JUMP JUMPDEST PUSH2 0xAF JUMP JUMPDEST STOP JUMPDEST PUSH2 0x7C PUSH1 0x4 DUP1 CALLDATASIZE SUB DUP2 ADD SWAP1 PUSH2 0x77 SWAP2 SWAP1 PUSH2 0x5A4 JUMP JUMPDEST PUSH2 0x15A JUMP JUMPDEST PUSH1 0x40 MLOAD PUSH2 0x8A SWAP3 SWAP2 SWAP1 PUSH2 0x6A1 JUMP JUMPDEST PUSH1 0x40 MLOAD DUP1 SWAP2 SUB SWAP1 RETURN JUMPDEST PUSH2 0xAD PUSH1 0x4 DUP1 CALLDATASIZE SUB DUP2 ADD SWAP1 PUSH2 0xA8 SWAP2 SWAP1 PUSH2 0x55B JUMP JUMPDEST PUSH2 0x216 JUMP JUMPDEST STOP JUMPDEST PUSH1 0x0 PUSH1 0x4 PUSH1 0x0 CALLER PUSH20 0xFFFFFFFFFFFFFFFFFFFFFFFFFFFFFFFFFFFFFFFF AND PUSH20 0xFFFFFFFFFFFFFFFFFFFFFFFFFFFFFFFFFFFFFFFF AND DUP2 MSTORE PUSH1 0x20 ADD SWAP1 DUP2 MSTORE PUSH1 0x20 ADD PUSH1 0x0 KECCAK256 SLOAD EQ PUSH2 0xFB JUMPI PUSH1 0x0 DUP1 REVERT JUMPDEST PUSH1 0x0 PUSH1 0x2 DUP4 DUP2 SLOAD DUP2 LT PUSH2 0x111 JUMPI PUSH2 0x110 PUSH2 0x9FD JUMP JUMPDEST JUMPDEST SWAP1 PUSH1 0x0 MSTORE PUSH1 0x20 PUSH1 0x0 KECCAK256 SWAP1 PUSH1 0x2 MUL ADD SWAP1 POP PUSH1 0x0 PUSH1 0x1 SLOAD DUP4 PUSH2 0x131 SWAP2 SWAP1 PUSH2 0x93F JUMP JUMPDEST SWAP1 POP PUSH1 0x0 PUSH1 0x2 DUP4 PUSH1 0x0 ADD SLOAD DUP4 PUSH2 0x147 SWAP2 SWAP1 PUSH2 0x78C JUMP JUMPDEST PUSH2 0x151 SWAP2 SWAP1 PUSH2 0x7E2 JUMP JUMPDEST SWAP1 POP POP POP POP POP POP JUMP JUMPDEST PUSH1 0x2 DUP2 DUP2 SLOAD DUP2 LT PUSH2 0x16A JUMPI PUSH1 0x0 DUP1 REVERT JUMPDEST SWAP1 PUSH1 0x0 MSTORE PUSH1 0x20 PUSH1 0x0 KECCAK256 SWAP1 PUSH1 0x2 MUL ADD PUSH1 0x0 SWAP2 POP SWAP1 POP DUP1 PUSH1 0x0 ADD SLOAD SWAP1 DUP1 PUSH1 0x1 ADD DUP1 SLOAD PUSH2 0x193 SWAP1 PUSH2 0x893 JUMP JUMPDEST DUP1 PUSH1 0x1F ADD PUSH1 0x20 DUP1 SWAP2 DIV MUL PUSH1 0x20 ADD PUSH1 0x40 MLOAD SWAP1 DUP2 ADD PUSH1 0x40 MSTORE DUP1 SWAP3 SWAP2 SWAP1 DUP2 DUP2 MSTORE PUSH1 0x20 ADD DUP3 DUP1 SLOAD PUSH2 0x1BF SWAP1 PUSH2 0x893 JUMP JUMPDEST DUP1 ISZERO PUSH2 0x20C JUMPI DUP1 PUSH1 0x1F LT PUSH2 0x1E1 JUMPI PUSH2 0x100 DUP1 DUP4 SLOAD DIV MUL DUP4 MSTORE SWAP2 PUSH1 0x20 ADD SWAP2 PUSH2 0x20C JUMP JUMPDEST DUP3 ADD SWAP2 SWAP1 PUSH1 0x0 MSTORE PUSH1 0x20 PUSH1 0x0 KECCAK256 SWAP1 JUMPDEST DUP2 SLOAD DUP2 MSTORE SWAP1 PUSH1 0x1 ADD SWAP1 PUSH1 0x20 ADD DUP1 DUP4 GT PUSH2 0x1EF JUMPI DUP3 SWAP1 SUB PUSH1 0x1F AND DUP3 ADD SWAP2 JUMPDEST POP POP POP POP POP SWAP1 POP DUP3 JUMP JUMPDEST PUSH1 0x0 PUSH1 0x4 PUSH1 0x0 CALLER PUSH20 0xFFFFFFFFFFFFFFFFFFFFFFFFFFFFFFFFFFFFFFFF AND PUSH20 0xFFFFFFFFFFFFFFFFFFFFFFFFFFFFFFFFFFFFFFFF AND DUP2 MSTORE PUSH1 0x20 ADD SWAP1 DUP2 MSTORE PUSH1 0x20 ADD PUSH1 0x0 KECCAK256 SLOAD EQ PUSH2 0x262 JUMPI PUSH1 0x0 DUP1 REVERT JUMPDEST PUSH1 0x0 PUSH2 0x26D DUP3 PUSH2 0x27D JUMP JUMPDEST SWAP1 POP PUSH2 0x279 DUP3 DUP3 PUSH2 0x2C2 JUMP JUMPDEST POP POP JUMP JUMPDEST PUSH1 0x0 DUP1 DUP3 PUSH1 0x40 MLOAD PUSH1 0x20 ADD PUSH2 0x291 SWAP2 SWAP1 PUSH2 0x68A JUMP JUMPDEST PUSH1 0x40 MLOAD PUSH1 0x20 DUP2 DUP4 SUB SUB DUP2 MSTORE SWAP1 PUSH1 0x40 MSTORE DUP1 MLOAD SWAP1 PUSH1 0x20 ADD KECCAK256 PUSH1 0x0 SHR SWAP1 POP PUSH1 0x1 SLOAD DUP2 PUSH2 0x2BA SWAP2 SWAP1 PUSH2 0x93F JUMP JUMPDEST SWAP2 POP POP SWAP2 SWAP1 POP JUMP JUMPDEST PUSH1 0x2 PUSH1 0x40 MLOAD DUP1 PUSH1 0x40 ADD PUSH1 0x40 MSTORE DUP1 DUP4 DUP2 MSTORE PUSH1 0x20 ADD DUP5 DUP2 MSTORE POP SWAP1 DUP1 PUSH1 0x1 DUP2 SLOAD ADD DUP1 DUP3 SSTORE DUP1 SWAP2 POP POP PUSH1 0x1 SWAP1 SUB SWAP1 PUSH1 0x0 MSTORE PUSH1 0x20 PUSH1 0x0 KECCAK256 SWAP1 PUSH1 0x2 MUL ADD PUSH1 0x0 SWAP1 SWAP2 SWAP1 SWAP2 SWAP1 SWAP2 POP PUSH1 0x0 DUP3 ADD MLOAD DUP2 PUSH1 0x0 ADD SSTORE PUSH1 0x20 DUP3 ADD MLOAD DUP2 PUSH1 0x1 ADD SWAP1 DUP1 MLOAD SWAP1 PUSH1 0x20 ADD SWAP1 PUSH2 0x328 SWAP3 SWAP2 SWAP1 PUSH2 0x433 JUMP JUMPDEST POP POP POP CALLER PUSH1 0x3 PUSH1 0x0 PUSH1 0x1 PUSH1 0x2 DUP1 SLOAD SWAP1 POP PUSH2 0x342 SWAP2 SWAP1 PUSH2 0x813 JUMP JUMPDEST DUP2 MSTORE PUSH1 0x20 ADD SWAP1 DUP2 MSTORE PUSH1 0x20 ADD PUSH1 0x0 KECCAK256 PUSH1 0x0 PUSH2 0x100 EXP DUP2 SLOAD DUP2 PUSH20 0xFFFFFFFFFFFFFFFFFFFFFFFFFFFFFFFFFFFFFFFF MUL NOT AND SWAP1 DUP4 PUSH20 0xFFFFFFFFFFFFFFFFFFFFFFFFFFFFFFFFFFFFFFFF AND MUL OR SWAP1 SSTORE POP PUSH1 0x4 PUSH1 0x0 CALLER PUSH20 0xFFFFFFFFFFFFFFFFFFFFFFFFFFFFFFFFFFFFFFFF AND PUSH20 0xFFFFFFFFFFFFFFFFFFFFFFFFFFFFFFFFFFFFFFFF AND DUP2 MSTORE PUSH1 0x20 ADD SWAP1 DUP2 MSTORE PUSH1 0x20 ADD PUSH1 0x0 KECCAK256 PUSH1 0x0 DUP2 SLOAD DUP1 SWAP3 SWAP2 SWAP1 PUSH2 0x3DE SWAP1 PUSH2 0x8F6 JUMP JUMPDEST SWAP2 SWAP1 POP SSTORE POP PUSH32 0x88F026AACBBECC90C18411DF4B1185FD8D9BE2470F1962F192BF84A27D0704B7 PUSH1 0x1 PUSH1 0x2 DUP1 SLOAD SWAP1 POP PUSH2 0x416 SWAP2 SWAP1 PUSH2 0x813 JUMP JUMPDEST DUP4 DUP4 PUSH1 0x40 MLOAD PUSH2 0x427 SWAP4 SWAP3 SWAP2 SWAP1 PUSH2 0x6D1 JUMP JUMPDEST PUSH1 0x40 MLOAD DUP1 SWAP2 SUB SWAP1 LOG1 POP POP JUMP JUMPDEST DUP3 DUP1 SLOAD PUSH2 0x43F SWAP1 PUSH2 0x893 JUMP JUMPDEST SWAP1 PUSH1 0x0 MSTORE PUSH1 0x20 PUSH1 0x0 KECCAK256 SWAP1 PUSH1 0x1F ADD PUSH1 0x20 SWAP1 DIV DUP2 ADD SWAP3 DUP3 PUSH2 0x461 JUMPI PUSH1 0x0 DUP6 SSTORE PUSH2 0x4A8 JUMP JUMPDEST DUP3 PUSH1 0x1F LT PUSH2 0x47A JUMPI DUP1 MLOAD PUSH1 0xFF NOT AND DUP4 DUP1 ADD OR DUP6 SSTORE PUSH2 0x4A8 JUMP JUMPDEST DUP3 DUP1 ADD PUSH1 0x1 ADD DUP6 SSTORE DUP3 ISZERO PUSH2 0x4A8 JUMPI SWAP2 DUP3 ADD JUMPDEST DUP3 DUP2 GT ISZERO PUSH2 0x4A7 JUMPI DUP3 MLOAD DUP3 SSTORE SWAP2 PUSH1 0x20 ADD SWAP2 SWAP1 PUSH1 0x1 ADD SWAP1 PUSH2 0x48C JUMP JUMPDEST JUMPDEST POP SWAP1 POP PUSH2 0x4B5 SWAP2 SWAP1 PUSH2 0x4B9 JUMP JUMPDEST POP SWAP1 JUMP JUMPDEST JUMPDEST DUP1 DUP3 GT ISZERO PUSH2 0x4D2 JUMPI PUSH1 0x0 DUP2 PUSH1 0x0 SWAP1 SSTORE POP PUSH1 0x1 ADD PUSH2 0x4BA JUMP JUMPDEST POP SWAP1 JUMP JUMPDEST PUSH1 0x0 PUSH2 0x4E9 PUSH2 0x4E4 DUP5 PUSH2 0x734 JUMP JUMPDEST PUSH2 0x70F JUMP JUMPDEST SWAP1 POP DUP3 DUP2 MSTORE PUSH1 0x20 DUP2 ADD DUP5 DUP5 DUP5 ADD GT ISZERO PUSH2 0x505 JUMPI PUSH2 0x504 PUSH2 0xA60 JUMP JUMPDEST JUMPDEST PUSH2 0x510 DUP5 DUP3 DUP6 PUSH2 0x851 JUMP JUMPDEST POP SWAP4 SWAP3 POP POP POP JUMP JUMPDEST PUSH1 0x0 DUP3 PUSH1 0x1F DUP4 ADD SLT PUSH2 0x52D JUMPI PUSH2 0x52C PUSH2 0xA5B JUMP JUMPDEST JUMPDEST DUP2 CALLDATALOAD PUSH2 0x53D DUP5 DUP3 PUSH1 0x20 DUP7 ADD PUSH2 0x4D6 JUMP JUMPDEST SWAP2 POP POP SWAP3 SWAP2 POP POP JUMP JUMPDEST PUSH1 0x0 DUP2 CALLDATALOAD SWAP1 POP PUSH2 0x555 DUP2 PUSH2 0xA80 JUMP JUMPDEST SWAP3 SWAP2 POP POP JUMP JUMPDEST PUSH1 0x0 PUSH1 0x20 DUP3 DUP5 SUB SLT ISZERO PUSH2 0x571 JUMPI PUSH2 0x570 PUSH2 0xA6A JUMP JUMPDEST JUMPDEST PUSH1 0x0 DUP3 ADD CALLDATALOAD PUSH8 0xFFFFFFFFFFFFFFFF DUP2 GT ISZERO PUSH2 0x58F JUMPI PUSH2 0x58E PUSH2 0xA65 JUMP JUMPDEST JUMPDEST PUSH2 0x59B DUP5 DUP3 DUP6 ADD PUSH2 0x518 JUMP JUMPDEST SWAP2 POP POP SWAP3 SWAP2 POP POP JUMP JUMPDEST PUSH1 0x0 PUSH1 0x20 DUP3 DUP5 SUB SLT ISZERO PUSH2 0x5BA JUMPI PUSH2 0x5B9 PUSH2 0xA6A JUMP JUMPDEST JUMPDEST PUSH1 0x0 PUSH2 0x5C8 DUP5 DUP3 DUP6 ADD PUSH2 0x546 JUMP JUMPDEST SWAP2 POP POP SWAP3 SWAP2 POP POP JUMP JUMPDEST PUSH1 0x0 DUP1 PUSH1 0x40 DUP4 DUP6 SUB SLT ISZERO PUSH2 0x5E8 JUMPI PUSH2 0x5E7 PUSH2 0xA6A JUMP JUMPDEST JUMPDEST PUSH1 0x0 PUSH2 0x5F6 DUP6 DUP3 DUP7 ADD PUSH2 0x546 JUMP JUMPDEST SWAP3 POP POP PUSH1 0x20 PUSH2 0x607 DUP6 DUP3 DUP7 ADD PUSH2 0x546 JUMP JUMPDEST SWAP2 POP POP SWAP3 POP SWAP3 SWAP1 POP JUMP JUMPDEST PUSH1 0x0 PUSH2 0x61C DUP3 PUSH2 0x765 JUMP JUMPDEST PUSH2 0x626 DUP2 DUP6 PUSH2 0x770 JUMP JUMPDEST SWAP4 POP PUSH2 0x636 DUP2 DUP6 PUSH1 0x20 DUP7 ADD PUSH2 0x860 JUMP JUMPDEST PUSH2 0x63F DUP2 PUSH2 0xA6F JUMP JUMPDEST DUP5 ADD SWAP2 POP POP SWAP3 SWAP2 POP POP JUMP JUMPDEST PUSH1 0x0 PUSH2 0x655 DUP3 PUSH2 0x765 JUMP JUMPDEST PUSH2 0x65F DUP2 DUP6 PUSH2 0x781 JUMP JUMPDEST SWAP4 POP PUSH2 0x66F DUP2 DUP6 PUSH1 0x20 DUP7 ADD PUSH2 0x860 JUMP JUMPDEST DUP1 DUP5 ADD SWAP2 POP POP SWAP3 SWAP2 POP POP JUMP JUMPDEST PUSH2 0x684 DUP2 PUSH2 0x847 JUMP JUMPDEST DUP3 MSTORE POP POP JUMP JUMPDEST PUSH1 0x0 PUSH2 0x696 DUP3 DUP5 PUSH2 0x64A JUMP JUMPDEST SWAP2 POP DUP2 SWAP1 POP SWAP3 SWAP2 POP POP JUMP JUMPDEST PUSH1 0x0 PUSH1 0x40 DUP3 ADD SWAP1 POP PUSH2 0x6B6 PUSH1 0x0 DUP4 ADD DUP6 PUSH2 0x67B JUMP JUMPDEST DUP2 DUP2 SUB PUSH1 0x20 DUP4 ADD MSTORE PUSH2 0x6C8 DUP2 DUP5 PUSH2 0x611 JUMP JUMPDEST SWAP1 POP SWAP4 SWAP3 POP POP POP JUMP JUMPDEST PUSH1 0x0 PUSH1 0x60 DUP3 ADD SWAP1 POP PUSH2 0x6E6 PUSH1 0x0 DUP4 ADD DUP7 PUSH2 0x67B JUMP JUMPDEST DUP2 DUP2 SUB PUSH1 0x20 DUP4 ADD MSTORE PUSH2 0x6F8 DUP2 DUP6 PUSH2 0x611 JUMP JUMPDEST SWAP1 POP PUSH2 0x707 PUSH1 0x40 DUP4 ADD DUP5 PUSH2 0x67B JUMP JUMPDEST SWAP5 SWAP4 POP POP POP POP JUMP JUMPDEST PUSH1 0x0 PUSH2 0x719 PUSH2 0x72A JUMP JUMPDEST SWAP1 POP PUSH2 0x725 DUP3 DUP3 PUSH2 0x8C5 JUMP JUMPDEST SWAP2 SWAP1 POP JUMP JUMPDEST PUSH1 0x0 PUSH1 0x40 MLOAD SWAP1 POP SWAP1 JUMP JUMPDEST PUSH1 0x0 PUSH8 0xFFFFFFFFFFFFFFFF DUP3 GT ISZERO PUSH2 0x74F JUMPI PUSH2 0x74E PUSH2 0xA2C JUMP JUMPDEST JUMPDEST PUSH2 0x758 DUP3 PUSH2 0xA6F JUMP JUMPDEST SWAP1 POP PUSH1 0x20 DUP2 ADD SWAP1 POP SWAP2 SWAP1 POP JUMP JUMPDEST PUSH1 0x0 DUP2 MLOAD SWAP1 POP SWAP2 SWAP1 POP JUMP JUMPDEST PUSH1 0x0 DUP3 DUP3 MSTORE PUSH1 0x20 DUP3 ADD SWAP1 POP SWAP3 SWAP2 POP POP JUMP JUMPDEST PUSH1 0x0 DUP2 SWAP1 POP SWAP3 SWAP2 POP POP JUMP JUMPDEST PUSH1 0x0 PUSH2 0x797 DUP3 PUSH2 0x847 JUMP JUMPDEST SWAP2 POP PUSH2 0x7A2 DUP4 PUSH2 0x847 JUMP JUMPDEST SWAP3 POP DUP3 PUSH32 0xFFFFFFFFFFFFFFFFFFFFFFFFFFFFFFFFFFFFFFFFFFFFFFFFFFFFFFFFFFFFFFFF SUB DUP3 GT ISZERO PUSH2 0x7D7 JUMPI PUSH2 0x7D6 PUSH2 0x970 JUMP JUMPDEST JUMPDEST DUP3 DUP3 ADD SWAP1 POP SWAP3 SWAP2 POP POP JUMP JUMPDEST PUSH1 0x0 PUSH2 0x7ED DUP3 PUSH2 0x847 JUMP JUMPDEST SWAP2 POP PUSH2 0x7F8 DUP4 PUSH2 0x847 JUMP JUMPDEST SWAP3 POP DUP3 PUSH2 0x808 JUMPI PUSH2 0x807 PUSH2 0x99F JUMP JUMPDEST JUMPDEST DUP3 DUP3 DIV SWAP1 POP SWAP3 SWAP2 POP POP JUMP JUMPDEST PUSH1 0x0 PUSH2 0x81E DUP3 PUSH2 0x847 JUMP JUMPDEST SWAP2 POP PUSH2 0x829 DUP4 PUSH2 0x847 JUMP JUMPDEST SWAP3 POP DUP3 DUP3 LT ISZERO PUSH2 0x83C JUMPI PUSH2 0x83B PUSH2 0x970 JUMP JUMPDEST JUMPDEST DUP3 DUP3 SUB SWAP1 POP SWAP3 SWAP2 POP POP JUMP JUMPDEST PUSH1 0x0 DUP2 SWAP1 POP SWAP2 SWAP1 POP JUMP JUMPDEST DUP3 DUP2 DUP4 CALLDATACOPY PUSH1 0x0 DUP4 DUP4 ADD MSTORE POP POP POP JUMP JUMPDEST PUSH1 0x0 JUMPDEST DUP4 DUP2 LT ISZERO PUSH2 0x87E JUMPI DUP1 DUP3 ADD MLOAD DUP2 DUP5 ADD MSTORE PUSH1 0x20 DUP2 ADD SWAP1 POP PUSH2 0x863 JUMP JUMPDEST DUP4 DUP2 GT ISZERO PUSH2 0x88D JUMPI PUSH1 0x0 DUP5 DUP5 ADD MSTORE JUMPDEST POP POP POP POP JUMP JUMPDEST PUSH1 0x0 PUSH1 0x2 DUP3 DIV SWAP1 POP PUSH1 0x1 DUP3 AND DUP1 PUSH2 0x8AB JUMPI PUSH1 0x7F DUP3 AND SWAP2 POP JUMPDEST PUSH1 0x20 DUP3 LT DUP2 EQ ISZERO PUSH2 0x8BF JUMPI PUSH2 0x8BE PUSH2 0x9CE JUMP JUMPDEST JUMPDEST POP SWAP2 SWAP1 POP JUMP JUMPDEST PUSH2 0x8CE DUP3 PUSH2 0xA6F JUMP JUMPDEST DUP2 ADD DUP2 DUP2 LT PUSH8 0xFFFFFFFFFFFFFFFF DUP3 GT OR ISZERO PUSH2 0x8ED JUMPI PUSH2 0x8EC PUSH2 0xA2C JUMP JUMPDEST JUMPDEST DUP1 PUSH1 0x40 MSTORE POP POP POP JUMP JUMPDEST PUSH1 0x0 PUSH2 0x901 DUP3 PUSH2 0x847 JUMP JUMPDEST SWAP2 POP PUSH32 0xFFFFFFFFFFFFFFFFFFFFFFFFFFFFFFFFFFFFFFFFFFFFFFFFFFFFFFFFFFFFFFFF DUP3 EQ ISZERO PUSH2 0x934 JUMPI PUSH2 0x933 PUSH2 0x970 JUMP JUMPDEST JUMPDEST PUSH1 0x1 DUP3 ADD SWAP1 POP SWAP2 SWAP1 POP JUMP JUMPDEST PUSH1 0x0 PUSH2 0x94A DUP3 PUSH2 0x847 JUMP JUMPDEST SWAP2 POP PUSH2 0x955 DUP4 PUSH2 0x847 JUMP JUMPDEST SWAP3 POP DUP3 PUSH2 0x965 JUMPI PUSH2 0x964 PUSH2 0x99F JUMP JUMPDEST JUMPDEST DUP3 DUP3 MOD SWAP1 POP SWAP3 SWAP2 POP POP JUMP JUMPDEST PUSH32 0x4E487B7100000000000000000000000000000000000000000000000000000000 PUSH1 0x0 MSTORE PUSH1 0x11 PUSH1 0x4 MSTORE PUSH1 0x24 PUSH1 0x0 REVERT JUMPDEST PUSH32 0x4E487B7100000000000000000000000000000000000000000000000000000000 PUSH1 0x0 MSTORE PUSH1 0x12 PUSH1 0x4 MSTORE PUSH1 0x24 PUSH1 0x0 REVERT JUMPDEST PUSH32 0x4E487B7100000000000000000000000000000000000000000000000000000000 PUSH1 0x0 MSTORE PUSH1 0x22 PUSH1 0x4 MSTORE PUSH1 0x24 PUSH1 0x0 REVERT JUMPDEST PUSH32 0x4E487B7100000000000000000000000000000000000000000000000000000000 PUSH1 0x0 MSTORE PUSH1 0x32 PUSH1 0x4 MSTORE PUSH1 0x24 PUSH1 0x0 REVERT JUMPDEST PUSH32 0x4E487B7100000000000000000000000000000000000000000000000000000000 PUSH1 0x0 MSTORE PUSH1 0x41 PUSH1 0x4 MSTORE PUSH1 0x24 PUSH1 0x0 REVERT JUMPDEST PUSH1 0x0 DUP1 REVERT JUMPDEST PUSH1 0x0 DUP1 REVERT JUMPDEST PUSH1 0x0 DUP1 REVERT JUMPDEST PUSH1 0x0 DUP1 REVERT JUMPDEST PUSH1 0x0 PUSH1 0x1F NOT PUSH1 0x1F DUP4 ADD AND SWAP1 POP SWAP2 SWAP1 POP JUMP JUMPDEST PUSH2 0xA89 DUP2 PUSH2 0x847 JUMP JUMPDEST DUP2 EQ PUSH2 0xA94 JUMPI PUSH1 0x0 DUP1 REVERT JUMPDEST POP JUMP INVALID LOG2 PUSH5 0x6970667358 0x22 SLT KECCAK256 0xE6 SLT NOT 0xCE DUP3 0xE7 PUSH21 0x16A12EAE7A230782E58F5EAD55A68FCB6E5B137C56 SWAP5 0xAB 0xB1 0x5F PUSH5 0x736F6C6343 STOP ADDMOD SMOD STOP CALLER "
				},
				"gasEstimates": {
					"creation": {
						"codeDepositCost": "553000",
						"executionCost": "infinite",
						"totalCost": "infinite"
					},
					"external": {
						"feedAndMultiply(uint256,uint256)": "infinite",
						"generateRandomZombie(string)": "infinite",
						"zombies(uint256)": "infinite"
					}
				},
				"methodIdentifiers": {
					"feedAndMultiply(uint256,uint256)": "0dedffb8",
					"generateRandomZombie(string)": "c6f15112",
					"zombies(uint256)": "2052465e"
				}
			},
			"storageLayout": {
				"storage": [
					{
						"astId": 4,
						"contract": "contracts/Zombiefeeding.sol:ZombieFeeding",
						"label": "dnaDigits",
						"offset": 0,
						"slot": "0",
						"type": "t_uint256"
					},
					{
						"astId": 9,
						"contract": "contracts/Zombiefeeding.sol:ZombieFeeding",
						"label": "dnaModulus",
						"offset": 0,
						"slot": "1",
						"type": "t_uint256"
					},
					{
						"astId": 26,
						"contract": "contracts/Zombiefeeding.sol:ZombieFeeding",
						"label": "zombies",
						"offset": 0,
						"slot": "2",
						"type": "t_array(t_struct(Zombie)22_storage)dyn_storage"
					},
					{
						"astId": 30,
						"contract": "contracts/Zombiefeeding.sol:ZombieFeeding",
						"label": "zombieToOwner",
						"offset": 0,
						"slot": "3",
						"type": "t_mapping(t_uint256,t_address)"
					},
					{
						"astId": 34,
						"contract": "contracts/Zombiefeeding.sol:ZombieFeeding",
						"label": "ownerZombieCount",
						"offset": 0,
						"slot": "4",
						"type": "t_mapping(t_address,t_uint256)"
					}
				],
				"types": {
					"t_address": {
						"encoding": "inplace",
						"label": "address",
						"numberOfBytes": "20"
					},
					"t_array(t_struct(Zombie)22_storage)dyn_storage": {
						"base": "t_struct(Zombie)22_storage",
						"encoding": "dynamic_array",
						"label": "struct ZombieFactory.Zombie[]",
						"numberOfBytes": "32"
					},
					"t_mapping(t_address,t_uint256)": {
						"encoding": "mapping",
						"key": "t_address",
						"label": "mapping(address => uint256)",
						"numberOfBytes": "32",
						"value": "t_uint256"
					},
					"t_mapping(t_uint256,t_address)": {
						"encoding": "mapping",
						"key": "t_uint256",
						"label": "mapping(uint256 => address)",
						"numberOfBytes": "32",
						"value": "t_address"
					},
					"t_string_storage": {
						"encoding": "bytes",
						"label": "string",
						"numberOfBytes": "32"
					},
					"t_struct(Zombie)22_storage": {
						"encoding": "inplace",
						"label": "struct ZombieFactory.Zombie",
						"members": [
							{
								"astId": 19,
								"contract": "contracts/Zombiefeeding.sol:ZombieFeeding",
								"label": "dna",
								"offset": 0,
								"slot": "0",
								"type": "t_uint256"
							},
							{
								"astId": 21,
								"contract": "contracts/Zombiefeeding.sol:ZombieFeeding",
								"label": "name",
								"offset": 0,
								"slot": "1",
								"type": "t_string_storage"
							}
						],
						"numberOfBytes": "64"
					},
					"t_uint256": {
						"encoding": "inplace",
						"label": "uint256",
						"numberOfBytes": "32"
					}
				}
			},
			"userdoc": {
				"kind": "user",
				"methods": {},
				"version": 1
			}
		}
	}
}