{
	"contracts/Zombiefeeding.sol": {
		"ZombieFeeding": {
			"abi": [
				{
					"anonymous": false,
					"inputs": [
						{
							"indexed": false,
							"internalType": "uint256",
							"name": "zombieId",
							"type": "uint256"
						},
						{
							"indexed": false,
							"internalType": "string",
							"name": "name",
							"type": "string"
						},
						{
							"indexed": false,
							"internalType": "uint256",
							"name": "dna",
							"type": "uint256"
						}
					],
					"name": "NewZombie",
					"type": "event"
				},
				{
					"anonymous": false,
					"inputs": [
						{
							"indexed": true,
							"internalType": "address",
							"name": "previousOwner",
							"type": "address"
						},
						{
							"indexed": true,
							"internalType": "address",
							"name": "newOwner",
							"type": "address"
						}
					],
					"name": "OwnershipTransferred",
					"type": "event"
				},
				{
					"inputs": [
						{
							"internalType": "uint256",
							"name": "_zombieId",
							"type": "uint256"
						},
						{
							"internalType": "uint256",
							"name": "_targetDna",
							"type": "uint256"
						},
						{
							"internalType": "string",
							"name": "_species",
							"type": "string"
						}
					],
					"name": "feedAndMultiply",
					"outputs": [],
					"stateMutability": "nonpayable",
					"type": "function"
				},
				{
					"inputs": [
						{
							"internalType": "uint256",
							"name": "_zombieId",
							"type": "uint256"
						},
						{
							"internalType": "uint256",
							"name": "_kittyId",
							"type": "uint256"
						}
					],
					"name": "feedOnKitty",
					"outputs": [],
					"stateMutability": "nonpayable",
					"type": "function"
				},
				{
					"inputs": [
						{
							"internalType": "string",
							"name": "_name",
							"type": "string"
						}
					],
					"name": "generateRandomZombie",
					"outputs": [],
					"stateMutability": "nonpayable",
					"type": "function"
				},
				{
					"inputs": [],
					"name": "isOwner",
					"outputs": [
						{
							"internalType": "bool",
							"name": "",
							"type": "bool"
						}
					],
					"stateMutability": "view",
					"type": "function"
				},
				{
					"inputs": [],
					"name": "owner",
					"outputs": [
						{
							"internalType": "address",
							"name": "",
							"type": "address"
						}
					],
					"stateMutability": "view",
					"type": "function"
				},
				{
					"inputs": [],
					"name": "renounceOwnership",
					"outputs": [],
					"stateMutability": "nonpayable",
					"type": "function"
				},
				{
					"inputs": [
						{
							"internalType": "address",
							"name": "_address",
							"type": "address"
						}
					],
					"name": "setKittyContractAddress",
					"outputs": [],
					"stateMutability": "nonpayable",
					"type": "function"
				},
				{
					"inputs": [
						{
							"internalType": "address",
							"name": "newOwner",
							"type": "address"
						}
					],
					"name": "transferOwnership",
					"outputs": [],
					"stateMutability": "nonpayable",
					"type": "function"
				},
				{
					"inputs": [
						{
							"internalType": "uint256",
							"name": "",
							"type": "uint256"
						}
					],
					"name": "zombies",
					"outputs": [
						{
							"internalType": "uint256",
							"name": "dna",
							"type": "uint256"
						},
						{
							"internalType": "string",
							"name": "name",
							"type": "string"
						}
					],
					"stateMutability": "view",
					"type": "function"
				}
			],
			"devdoc": {
				"kind": "dev",
				"methods": {
					"isOwner()": {
						"returns": {
							"_0": "true if `msg.sender` is the owner of the contract."
						}
					},
					"owner()": {
						"returns": {
							"_0": "the address of the owner."
						}
					},
					"renounceOwnership()": {
						"details": "Allows the current owner to relinquish control of the contract."
					},
					"transferOwnership(address)": {
						"details": "Allows the current owner to transfer control of the contract to a newOwner.",
						"params": {
							"newOwner": "The address to transfer ownership to."
						}
					}
				},
				"version": 1
			},
			"evm": {
				"assembly": "    /* \"contracts/Zombiefeeding.sol\":447:1443  contract ZombieFeeding is ZombieFactory {... */\n  mstore(0x40, 0x80)\n    /* \"contracts/Zombiefactory.sol\":121:123  16 */\n  0x10\n    /* \"contracts/Zombiefactory.sol\":104:123  uint dnaDigits = 16 */\n  0x01\n  sstore\n    /* \"contracts/Zombiefactory.sol\":202:211  dnaDigits */\n  sload(0x01)\n    /* \"contracts/Zombiefactory.sol\":196:198  10 */\n  0x0a\n    /* \"contracts/Zombiefactory.sol\":196:211  10 ** dnaDigits */\n  tag_1\n  swap2\n  swap1\n  tag_2\n  jump\t// in\ntag_1:\n    /* \"contracts/Zombiefactory.sol\":178:211  uint dnaModulus = 10 ** dnaDigits */\n  0x02\n  sstore\n    /* \"contracts/Zombiefeeding.sol\":447:1443  contract ZombieFeeding is ZombieFactory {... */\n  callvalue\n  dup1\n  iszero\n  tag_3\n  jumpi\n  0x00\n  dup1\n  revert\ntag_3:\n  pop\n    /* \"contracts/OwnableZombie.sol\":593:603  msg.sender */\n  caller\n    /* \"contracts/OwnableZombie.sol\":584:590  _owner */\n  0x00\n  dup1\n    /* \"contracts/OwnableZombie.sol\":584:603  _owner = msg.sender */\n  0x0100\n  exp\n  dup2\n  sload\n  dup2\n  0xffffffffffffffffffffffffffffffffffffffff\n  mul\n  not\n  and\n  swap1\n  dup4\n  0xffffffffffffffffffffffffffffffffffffffff\n  and\n  mul\n  or\n  swap1\n  sstore\n  pop\n    /* \"contracts/OwnableZombie.sol\":648:654  _owner */\n  0x00\n  dup1\n  sload\n  swap1\n  0x0100\n  exp\n  swap1\n  div\n  0xffffffffffffffffffffffffffffffffffffffff\n  and\n    /* \"contracts/OwnableZombie.sol\":615:655  OwnershipTransferred(address(0), _owner) */\n  0xffffffffffffffffffffffffffffffffffffffff\n  and\n    /* \"contracts/OwnableZombie.sol\":644:645  0 */\n  0x00\n    /* \"contracts/OwnableZombie.sol\":615:655  OwnershipTransferred(address(0), _owner) */\n  0xffffffffffffffffffffffffffffffffffffffff\n  and\n  0x8be0079c531659141344cd1fd0a4f28419497f9722a3daafe3b4186f6b6457e0\n  mload(0x40)\n  mload(0x40)\n  dup1\n  swap2\n  sub\n  swap1\n  log3\n    /* \"contracts/Zombiefeeding.sol\":447:1443  contract ZombieFeeding is ZombieFactory {... */\n  jump(tag_6)\n    /* \"#utility.yul\":7:187   */\ntag_7:\n    /* \"#utility.yul\":55:132   */\n  0x4e487b7100000000000000000000000000000000000000000000000000000000\n    /* \"#utility.yul\":52:53   */\n  0x00\n    /* \"#utility.yul\":45:133   */\n  mstore\n    /* \"#utility.yul\":152:156   */\n  0x11\n    /* \"#utility.yul\":149:150   */\n  0x04\n    /* \"#utility.yul\":142:157   */\n  mstore\n    /* \"#utility.yul\":176:180   */\n  0x24\n    /* \"#utility.yul\":173:174   */\n  0x00\n    /* \"#utility.yul\":166:181   */\n  revert\n    /* \"#utility.yul\":193:295   */\ntag_8:\n    /* \"#utility.yul\":235:243   */\n  0x00\n    /* \"#utility.yul\":282:287   */\n  dup2\n    /* \"#utility.yul\":279:280   */\n  0x01\n    /* \"#utility.yul\":275:288   */\n  shr\n    /* \"#utility.yul\":254:288   */\n  swap1\n  pop\n    /* \"#utility.yul\":193:295   */\n  swap2\n  swap1\n  pop\n  jump\t// out\n    /* \"#utility.yul\":301:1149   */\ntag_9:\n    /* \"#utility.yul\":362:367   */\n  0x00\n    /* \"#utility.yul\":369:373   */\n  dup1\n    /* \"#utility.yul\":393:399   */\n  dup3\n    /* \"#utility.yul\":384:399   */\n  swap2\n  pop\n    /* \"#utility.yul\":417:422   */\n  dup4\n    /* \"#utility.yul\":408:422   */\n  swap1\n  pop\n    /* \"#utility.yul\":431:1143   */\ntag_16:\n    /* \"#utility.yul\":452:453   */\n  0x01\n    /* \"#utility.yul\":442:450   */\n  dup6\n    /* \"#utility.yul\":439:454   */\n  gt\n    /* \"#utility.yul\":431:1143   */\n  iszero\n  tag_18\n  jumpi\n    /* \"#utility.yul\":547:551   */\n  dup1\n    /* \"#utility.yul\":542:545   */\n  dup7\n    /* \"#utility.yul\":538:552   */\n  div\n    /* \"#utility.yul\":532:536   */\n  dup2\n    /* \"#utility.yul\":529:553   */\n  gt\n    /* \"#utility.yul\":526:576   */\n  iszero\n  tag_19\n  jumpi\n    /* \"#utility.yul\":556:574   */\n  tag_20\n  tag_7\n  jump\t// in\ntag_20:\n    /* \"#utility.yul\":526:576   */\ntag_19:\n    /* \"#utility.yul\":606:607   */\n  0x01\n    /* \"#utility.yul\":596:604   */\n  dup6\n    /* \"#utility.yul\":592:608   */\n  and\n    /* \"#utility.yul\":589:1040   */\n  iszero\n  tag_21\n  jumpi\n    /* \"#utility.yul\":1021:1025   */\n  dup1\n    /* \"#utility.yul\":1014:1019   */\n  dup3\n    /* \"#utility.yul\":1010:1026   */\n  mul\n    /* \"#utility.yul\":1001:1026   */\n  swap2\n  pop\n    /* \"#utility.yul\":589:1040   */\ntag_21:\n    /* \"#utility.yul\":1071:1075   */\n  dup1\n    /* \"#utility.yul\":1065:1069   */\n  dup2\n    /* \"#utility.yul\":1061:1076   */\n  mul\n    /* \"#utility.yul\":1053:1076   */\n  swap1\n  pop\n    /* \"#utility.yul\":1101:1133   */\n  tag_22\n    /* \"#utility.yul\":1124:1132   */\n  dup6\n    /* \"#utility.yul\":1101:1133   */\n  tag_8\n  jump\t// in\ntag_22:\n    /* \"#utility.yul\":1089:1133   */\n  swap5\n  pop\n    /* \"#utility.yul\":431:1143   */\n  jump(tag_16)\ntag_18:\n    /* \"#utility.yul\":301:1149   */\n  swap5\n  pop\n  swap5\n  swap3\n  pop\n  pop\n  pop\n  jump\t// out\n    /* \"#utility.yul\":1155:2228   */\ntag_10:\n    /* \"#utility.yul\":1209:1214   */\n  0x00\n    /* \"#utility.yul\":1400:1408   */\n  dup3\n    /* \"#utility.yul\":1390:1430   */\n  tag_24\n  jumpi\n    /* \"#utility.yul\":1421:1422   */\n  0x01\n    /* \"#utility.yul\":1412:1422   */\n  swap1\n  pop\n    /* \"#utility.yul\":1423:1428   */\n  jump(tag_23)\n    /* \"#utility.yul\":1390:1430   */\ntag_24:\n    /* \"#utility.yul\":1449:1453   */\n  dup2\n    /* \"#utility.yul\":1439:1475   */\n  tag_25\n  jumpi\n    /* \"#utility.yul\":1466:1467   */\n  0x00\n    /* \"#utility.yul\":1457:1467   */\n  swap1\n  pop\n    /* \"#utility.yul\":1468:1473   */\n  jump(tag_23)\n    /* \"#utility.yul\":1439:1475   */\ntag_25:\n    /* \"#utility.yul\":1535:1539   */\n  dup2\n    /* \"#utility.yul\":1583:1584   */\n  0x01\n    /* \"#utility.yul\":1578:1605   */\n  dup2\n  eq\n  tag_27\n  jumpi\n    /* \"#utility.yul\":1619:1620   */\n  0x02\n    /* \"#utility.yul\":1614:1805   */\n  dup2\n  eq\n  tag_28\n  jumpi\n    /* \"#utility.yul\":1528:1805   */\n  jump(tag_26)\n    /* \"#utility.yul\":1578:1605   */\ntag_27:\n    /* \"#utility.yul\":1596:1597   */\n  0x01\n    /* \"#utility.yul\":1587:1597   */\n  swap2\n  pop\n    /* \"#utility.yul\":1598:1603   */\n  pop\n  jump(tag_23)\n    /* \"#utility.yul\":1614:1805   */\ntag_28:\n    /* \"#utility.yul\":1659:1662   */\n  0xff\n    /* \"#utility.yul\":1649:1657   */\n  dup5\n    /* \"#utility.yul\":1646:1663   */\n  gt\n    /* \"#utility.yul\":1643:1686   */\n  iszero\n  tag_29\n  jumpi\n    /* \"#utility.yul\":1666:1684   */\n  tag_30\n  tag_7\n  jump\t// in\ntag_30:\n    /* \"#utility.yul\":1643:1686   */\ntag_29:\n    /* \"#utility.yul\":1715:1723   */\n  dup4\n    /* \"#utility.yul\":1712:1713   */\n  0x02\n    /* \"#utility.yul\":1708:1724   */\n  exp\n    /* \"#utility.yul\":1699:1724   */\n  swap2\n  pop\n    /* \"#utility.yul\":1750:1753   */\n  dup5\n    /* \"#utility.yul\":1743:1748   */\n  dup3\n    /* \"#utility.yul\":1740:1754   */\n  gt\n    /* \"#utility.yul\":1737:1777   */\n  iszero\n  tag_31\n  jumpi\n    /* \"#utility.yul\":1757:1775   */\n  tag_32\n  tag_7\n  jump\t// in\ntag_32:\n    /* \"#utility.yul\":1737:1777   */\ntag_31:\n    /* \"#utility.yul\":1790:1795   */\n  pop\n  jump(tag_23)\n    /* \"#utility.yul\":1528:1805   */\ntag_26:\n  pop\n    /* \"#utility.yul\":1914:1916   */\n  0x20\n    /* \"#utility.yul\":1904:1912   */\n  dup4\n    /* \"#utility.yul\":1901:1917   */\n  lt\n    /* \"#utility.yul\":1895:1898   */\n  0x0133\n    /* \"#utility.yul\":1889:1893   */\n  dup4\n    /* \"#utility.yul\":1886:1899   */\n  lt\n    /* \"#utility.yul\":1882:1918   */\n  and\n    /* \"#utility.yul\":1864:1866   */\n  0x4e\n    /* \"#utility.yul\":1854:1862   */\n  dup5\n    /* \"#utility.yul\":1851:1867   */\n  lt\n    /* \"#utility.yul\":1846:1848   */\n  0x0b\n    /* \"#utility.yul\":1840:1844   */\n  dup5\n    /* \"#utility.yul\":1837:1849   */\n  lt\n    /* \"#utility.yul\":1833:1868   */\n  and\n    /* \"#utility.yul\":1817:1928   */\n  or\n    /* \"#utility.yul\":1814:2060   */\n  iszero\n  tag_33\n  jumpi\n    /* \"#utility.yul\":1970:1978   */\n  dup3\n    /* \"#utility.yul\":1964:1968   */\n  dup3\n    /* \"#utility.yul\":1960:1979   */\n  exp\n    /* \"#utility.yul\":1951:1979   */\n  swap1\n  pop\n    /* \"#utility.yul\":2005:2008   */\n  dup4\n    /* \"#utility.yul\":1998:2003   */\n  dup2\n    /* \"#utility.yul\":1995:2009   */\n  gt\n    /* \"#utility.yul\":1992:2032   */\n  iszero\n  tag_34\n  jumpi\n    /* \"#utility.yul\":2012:2030   */\n  tag_35\n  tag_7\n  jump\t// in\ntag_35:\n    /* \"#utility.yul\":1992:2032   */\ntag_34:\n    /* \"#utility.yul\":2045:2050   */\n  jump(tag_23)\n    /* \"#utility.yul\":1814:2060   */\ntag_33:\n    /* \"#utility.yul\":2085:2127   */\n  tag_36\n    /* \"#utility.yul\":2123:2126   */\n  dup5\n    /* \"#utility.yul\":2113:2121   */\n  dup5\n    /* \"#utility.yul\":2107:2111   */\n  dup5\n    /* \"#utility.yul\":2104:2105   */\n  0x01\n    /* \"#utility.yul\":2085:2127   */\n  tag_9\n  jump\t// in\ntag_36:\n    /* \"#utility.yul\":2070:2127   */\n  swap3\n  pop\n  swap1\n  pop\n    /* \"#utility.yul\":2159:2163   */\n  dup2\n    /* \"#utility.yul\":2154:2157   */\n  dup5\n    /* \"#utility.yul\":2150:2164   */\n  div\n    /* \"#utility.yul\":2143:2148   */\n  dup2\n    /* \"#utility.yul\":2140:2165   */\n  gt\n    /* \"#utility.yul\":2137:2188   */\n  iszero\n  tag_37\n  jumpi\n    /* \"#utility.yul\":2168:2186   */\n  tag_38\n  tag_7\n  jump\t// in\ntag_38:\n    /* \"#utility.yul\":2137:2188   */\ntag_37:\n    /* \"#utility.yul\":2217:2221   */\n  dup2\n    /* \"#utility.yul\":2210:2215   */\n  dup2\n    /* \"#utility.yul\":2206:2222   */\n  mul\n    /* \"#utility.yul\":2197:2222   */\n  swap1\n  pop\n    /* \"#utility.yul\":1155:2228   */\ntag_23:\n  swap4\n  swap3\n  pop\n  pop\n  pop\n  jump\t// out\n    /* \"#utility.yul\":2234:2311   */\ntag_11:\n    /* \"#utility.yul\":2271:2278   */\n  0x00\n    /* \"#utility.yul\":2300:2305   */\n  dup2\n    /* \"#utility.yul\":2289:2305   */\n  swap1\n  pop\n    /* \"#utility.yul\":2234:2311   */\n  swap2\n  swap1\n  pop\n  jump\t// out\n    /* \"#utility.yul\":2317:2602   */\ntag_2:\n    /* \"#utility.yul\":2377:2382   */\n  0x00\n    /* \"#utility.yul\":2401:2424   */\n  tag_41\n    /* \"#utility.yul\":2419:2423   */\n  dup3\n    /* \"#utility.yul\":2401:2424   */\n  tag_11\n  jump\t// in\ntag_41:\n    /* \"#utility.yul\":2393:2424   */\n  swap2\n  pop\n    /* \"#utility.yul\":2445:2472   */\n  tag_42\n    /* \"#utility.yul\":2463:2471   */\n  dup4\n    /* \"#utility.yul\":2445:2472   */\n  tag_11\n  jump\t// in\ntag_42:\n    /* \"#utility.yul\":2433:2472   */\n  swap3\n  pop\n    /* \"#utility.yul\":2491:2595   */\n  tag_43\n    /* \"#utility.yul\":2528:2594   */\n  0xffffffffffffffffffffffffffffffffffffffffffffffffffffffffffffffff\n    /* \"#utility.yul\":2518:2526   */\n  dup5\n    /* \"#utility.yul\":2512:2516   */\n  dup5\n    /* \"#utility.yul\":2491:2595   */\n  tag_10\n  jump\t// in\ntag_43:\n    /* \"#utility.yul\":2482:2595   */\n  swap1\n  pop\n    /* \"#utility.yul\":2317:2602   */\n  swap3\n  swap2\n  pop\n  pop\n  jump\t// out\n    /* \"contracts/Zombiefeeding.sol\":447:1443  contract ZombieFeeding is ZombieFactory {... */\ntag_6:\n  dataSize(sub_0)\n  dup1\n  dataOffset(sub_0)\n  0x00\n  codecopy\n  0x00\n  return\nstop\n\nsub_0: assembly {\n        /* \"contracts/Zombiefeeding.sol\":447:1443  contract ZombieFeeding is ZombieFactory {... */\n      mstore(0x40, 0x80)\n      callvalue\n      dup1\n      iszero\n      tag_1\n      jumpi\n      0x00\n      dup1\n      revert\n    tag_1:\n      pop\n      jumpi(tag_2, lt(calldatasize, 0x04))\n      shr(0xe0, calldataload(0x00))\n      dup1\n      0x715018a6\n      gt\n      tag_12\n      jumpi\n      dup1\n      0x715018a6\n      eq\n      tag_7\n      jumpi\n      dup1\n      0x8da5cb5b\n      eq\n      tag_8\n      jumpi\n      dup1\n      0x8f32d59b\n      eq\n      tag_9\n      jumpi\n      dup1\n      0xc6f15112\n      eq\n      tag_10\n      jumpi\n      dup1\n      0xf2fde38b\n      eq\n      tag_11\n      jumpi\n      jump(tag_2)\n    tag_12:\n      dup1\n      0x17a7f4cc\n      eq\n      tag_3\n      jumpi\n      dup1\n      0x2052465e\n      eq\n      tag_4\n      jumpi\n      dup1\n      0x5f4623f1\n      eq\n      tag_5\n      jumpi\n      dup1\n      0x6b0bfc80\n      eq\n      tag_6\n      jumpi\n    tag_2:\n      0x00\n      dup1\n      revert\n        /* \"contracts/Zombiefeeding.sol\":1218:1436  function feedOnKitty(uint _zombieId, uint _kittyId) public {... */\n    tag_3:\n      tag_13\n      0x04\n      dup1\n      calldatasize\n      sub\n      dup2\n      add\n      swap1\n      tag_14\n      swap2\n      swap1\n      tag_15\n      jump\t// in\n    tag_14:\n      tag_16\n      jump\t// in\n    tag_13:\n      stop\n        /* \"contracts/Zombiefactory.sol\":420:443  Zombie[] public zombies */\n    tag_4:\n      tag_17\n      0x04\n      dup1\n      calldatasize\n      sub\n      dup2\n      add\n      swap1\n      tag_18\n      swap2\n      swap1\n      tag_19\n      jump\t// in\n    tag_18:\n      tag_20\n      jump\t// in\n    tag_17:\n      mload(0x40)\n      tag_21\n      swap3\n      swap2\n      swap1\n      tag_22\n      jump\t// in\n    tag_21:\n      mload(0x40)\n      dup1\n      swap2\n      sub\n      swap1\n      return\n        /* \"contracts/Zombiefeeding.sol\":533:660  function setKittyContractAddress(address _address) external onlyOwner {... */\n    tag_5:\n      tag_23\n      0x04\n      dup1\n      calldatasize\n      sub\n      dup2\n      add\n      swap1\n      tag_24\n      swap2\n      swap1\n      tag_25\n      jump\t// in\n    tag_24:\n      tag_26\n      jump\t// in\n    tag_23:\n      stop\n        /* \"contracts/Zombiefeeding.sol\":666:1212  function feedAndMultiply(uint _zombieId, uint _targetDna, string memory _species) public {... */\n    tag_6:\n      tag_27\n      0x04\n      dup1\n      calldatasize\n      sub\n      dup2\n      add\n      swap1\n      tag_28\n      swap2\n      swap1\n      tag_29\n      jump\t// in\n    tag_28:\n      tag_30\n      jump\t// in\n    tag_27:\n      stop\n        /* \"contracts/OwnableZombie.sol\":1369:1499  function renounceOwnership() public onlyOwner {... */\n    tag_7:\n      tag_31\n      tag_32\n      jump\t// in\n    tag_31:\n      stop\n        /* \"contracts/OwnableZombie.sol\":719:791  function owner() public view returns(address) {... */\n    tag_8:\n      tag_33\n      tag_34\n      jump\t// in\n    tag_33:\n      mload(0x40)\n      tag_35\n      swap2\n      swap1\n      tag_36\n      jump\t// in\n    tag_35:\n      mload(0x40)\n      dup1\n      swap2\n      sub\n      swap1\n      return\n        /* \"contracts/OwnableZombie.sol\":1017:1102  function isOwner() public view returns(bool) {... */\n    tag_9:\n      tag_37\n      tag_38\n      jump\t// in\n    tag_37:\n      mload(0x40)\n      tag_39\n      swap2\n      swap1\n      tag_40\n      jump\t// in\n    tag_39:\n      mload(0x40)\n      dup1\n      swap2\n      sub\n      swap1\n      return\n        /* \"contracts/Zombiefactory.sol\":1458:1666  function generateRandomZombie(string memory _name) public {... */\n    tag_10:\n      tag_41\n      0x04\n      dup1\n      calldatasize\n      sub\n      dup2\n      add\n      swap1\n      tag_42\n      swap2\n      swap1\n      tag_43\n      jump\t// in\n    tag_42:\n      tag_44\n      jump\t// in\n    tag_41:\n      stop\n        /* \"contracts/OwnableZombie.sol\":1663:1766  function transferOwnership(address newOwner) public onlyOwner {... */\n    tag_11:\n      tag_45\n      0x04\n      dup1\n      calldatasize\n      sub\n      dup2\n      add\n      swap1\n      tag_46\n      swap2\n      swap1\n      tag_25\n      jump\t// in\n    tag_46:\n      tag_47\n      jump\t// in\n    tag_45:\n      stop\n        /* \"contracts/Zombiefeeding.sol\":1218:1436  function feedOnKitty(uint _zombieId, uint _kittyId) public {... */\n    tag_16:\n        /* \"contracts/Zombiefeeding.sol\":1287:1300  uint kittyDna */\n      0x00\n        /* \"contracts/Zombiefeeding.sol\":1342:1355  kittyContract */\n      0x06\n      0x00\n      swap1\n      sload\n      swap1\n      0x0100\n      exp\n      swap1\n      div\n      0xffffffffffffffffffffffffffffffffffffffff\n      and\n        /* \"contracts/Zombiefeeding.sol\":1342:1364  kittyContract.getKitty */\n      0xffffffffffffffffffffffffffffffffffffffff\n      and\n      0xe98b7f4d\n        /* \"contracts/Zombiefeeding.sol\":1365:1373  _kittyId */\n      dup4\n        /* \"contracts/Zombiefeeding.sol\":1342:1374  kittyContract.getKitty(_kittyId) */\n      mload(0x40)\n      dup3\n      0xffffffff\n      and\n      0xe0\n      shl\n      dup2\n      mstore\n      0x04\n      add\n      tag_49\n      swap2\n      swap1\n      tag_50\n      jump\t// in\n    tag_49:\n      0x0140\n      mload(0x40)\n      dup1\n      dup4\n      sub\n      dup2\n      dup7\n      gas\n      staticcall\n      iszero\n      dup1\n      iszero\n      tag_52\n      jumpi\n      returndatasize\n      0x00\n      dup1\n      returndatacopy\n      revert(0x00, returndatasize)\n    tag_52:\n      pop\n      pop\n      pop\n      pop\n      mload(0x40)\n      returndatasize\n      not(0x1f)\n      0x1f\n      dup3\n      add\n      and\n      dup3\n      add\n      dup1\n      0x40\n      mstore\n      pop\n      dup2\n      add\n      swap1\n      tag_53\n      swap2\n      swap1\n      tag_54\n      jump\t// in\n    tag_53:\n        /* \"contracts/Zombiefeeding.sol\":1310:1374  ( , , , , , , , , , kittyDna) = kittyContract.getKitty(_kittyId) */\n      swap1\n      swap2\n      swap3\n      swap4\n      swap5\n      swap6\n      swap7\n      swap8\n      swap9\n      pop\n      swap1\n      swap2\n      swap3\n      swap4\n      swap5\n      swap6\n      swap7\n      swap8\n      pop\n      swap1\n      swap2\n      swap3\n      swap4\n      swap5\n      swap6\n      swap7\n      pop\n      swap1\n      swap2\n      swap3\n      swap4\n      swap5\n      swap6\n      pop\n      swap1\n      swap2\n      swap3\n      swap4\n      swap5\n      pop\n      swap1\n      swap2\n      swap3\n      swap4\n      pop\n      swap1\n      swap2\n      swap3\n      pop\n      swap1\n      swap2\n      pop\n      swap1\n      pop\n      dup1\n      swap2\n      pop\n      pop\n        /* \"contracts/Zombiefeeding.sol\":1384:1429  feedAndMultiply(_zombieId, kittyDna, \"kitty\") */\n      tag_55\n        /* \"contracts/Zombiefeeding.sol\":1400:1409  _zombieId */\n      dup4\n        /* \"contracts/Zombiefeeding.sol\":1411:1419  kittyDna */\n      dup3\n        /* \"contracts/Zombiefeeding.sol\":1384:1429  feedAndMultiply(_zombieId, kittyDna, \"kitty\") */\n      mload(0x40)\n      dup1\n      0x40\n      add\n      0x40\n      mstore\n      dup1\n      0x05\n      dup2\n      mstore\n      0x20\n      add\n      0x6b69747479000000000000000000000000000000000000000000000000000000\n      dup2\n      mstore\n      pop\n        /* \"contracts/Zombiefeeding.sol\":1384:1399  feedAndMultiply */\n      tag_30\n        /* \"contracts/Zombiefeeding.sol\":1384:1429  feedAndMultiply(_zombieId, kittyDna, \"kitty\") */\n      jump\t// in\n    tag_55:\n        /* \"contracts/Zombiefeeding.sol\":1277:1436  {... */\n      pop\n        /* \"contracts/Zombiefeeding.sol\":1218:1436  function feedOnKitty(uint _zombieId, uint _kittyId) public {... */\n      pop\n      pop\n      jump\t// out\n        /* \"contracts/Zombiefactory.sol\":420:443  Zombie[] public zombies */\n    tag_20:\n      0x03\n      dup2\n      dup2\n      sload\n      dup2\n      lt\n      tag_56\n      jumpi\n      0x00\n      dup1\n      revert\n    tag_56:\n      swap1\n      0x00\n      mstore\n      keccak256(0x00, 0x20)\n      swap1\n      0x02\n      mul\n      add\n      0x00\n      swap2\n      pop\n      swap1\n      pop\n      dup1\n      0x00\n      add\n      sload\n      swap1\n      dup1\n      0x01\n      add\n      dup1\n      sload\n      tag_58\n      swap1\n      tag_59\n      jump\t// in\n    tag_58:\n      dup1\n      0x1f\n      add\n      0x20\n      dup1\n      swap2\n      div\n      mul\n      0x20\n      add\n      mload(0x40)\n      swap1\n      dup2\n      add\n      0x40\n      mstore\n      dup1\n      swap3\n      swap2\n      swap1\n      dup2\n      dup2\n      mstore\n      0x20\n      add\n      dup3\n      dup1\n      sload\n      tag_60\n      swap1\n      tag_59\n      jump\t// in\n    tag_60:\n      dup1\n      iszero\n      tag_61\n      jumpi\n      dup1\n      0x1f\n      lt\n      tag_62\n      jumpi\n      0x0100\n      dup1\n      dup4\n      sload\n      div\n      mul\n      dup4\n      mstore\n      swap2\n      0x20\n      add\n      swap2\n      jump(tag_61)\n    tag_62:\n      dup3\n      add\n      swap2\n      swap1\n      0x00\n      mstore\n      keccak256(0x00, 0x20)\n      swap1\n    tag_63:\n      dup2\n      sload\n      dup2\n      mstore\n      swap1\n      0x01\n      add\n      swap1\n      0x20\n      add\n      dup1\n      dup4\n      gt\n      tag_63\n      jumpi\n      dup3\n      swap1\n      sub\n      0x1f\n      and\n      dup3\n      add\n      swap2\n    tag_61:\n      pop\n      pop\n      pop\n      pop\n      pop\n      swap1\n      pop\n      dup3\n      jump\t// out\n        /* \"contracts/Zombiefeeding.sol\":533:660  function setKittyContractAddress(address _address) external onlyOwner {... */\n    tag_26:\n        /* \"contracts/OwnableZombie.sol\":910:919  isOwner() */\n      tag_65\n        /* \"contracts/OwnableZombie.sol\":910:917  isOwner */\n      tag_38\n        /* \"contracts/OwnableZombie.sol\":910:919  isOwner() */\n      jump\t// in\n    tag_65:\n        /* \"contracts/OwnableZombie.sol\":902:920  require(isOwner()) */\n      tag_66\n      jumpi\n      0x00\n      dup1\n      revert\n    tag_66:\n        /* \"contracts/Zombiefeeding.sol\":644:652  _address */\n      dup1\n        /* \"contracts/Zombiefeeding.sol\":613:626  kittyContract */\n      0x06\n      0x00\n        /* \"contracts/Zombiefeeding.sol\":613:653  kittyContract = KittyInterface(_address) */\n      0x0100\n      exp\n      dup2\n      sload\n      dup2\n      0xffffffffffffffffffffffffffffffffffffffff\n      mul\n      not\n      and\n      swap1\n      dup4\n      0xffffffffffffffffffffffffffffffffffffffff\n      and\n      mul\n      or\n      swap1\n      sstore\n      pop\n        /* \"contracts/Zombiefeeding.sol\":533:660  function setKittyContractAddress(address _address) external onlyOwner {... */\n      pop\n      jump\t// out\n        /* \"contracts/Zombiefeeding.sol\":666:1212  function feedAndMultiply(uint _zombieId, uint _targetDna, string memory _species) public {... */\n    tag_30:\n        /* \"contracts/Zombiefeeding.sol\":805:806  0 */\n      0x00\n        /* \"contracts/Zombiefeeding.sol\":773:789  ownerZombieCount */\n      0x05\n        /* \"contracts/Zombiefeeding.sol\":773:801  ownerZombieCount[msg.sender] */\n      0x00\n        /* \"contracts/Zombiefeeding.sol\":790:800  msg.sender */\n      caller\n        /* \"contracts/Zombiefeeding.sol\":773:801  ownerZombieCount[msg.sender] */\n      0xffffffffffffffffffffffffffffffffffffffff\n      and\n      0xffffffffffffffffffffffffffffffffffffffff\n      and\n      dup2\n      mstore\n      0x20\n      add\n      swap1\n      dup2\n      mstore\n      0x20\n      add\n      0x00\n      keccak256\n      sload\n        /* \"contracts/Zombiefeeding.sol\":773:806  ownerZombieCount[msg.sender] == 0 */\n      eq\n        /* \"contracts/Zombiefeeding.sol\":765:807  require(ownerZombieCount[msg.sender] == 0) */\n      tag_69\n      jumpi\n      0x00\n      dup1\n      revert\n    tag_69:\n        /* \"contracts/Zombiefeeding.sol\":844:867  Zombie storage myZombie */\n      0x00\n        /* \"contracts/Zombiefeeding.sol\":870:877  zombies */\n      0x03\n        /* \"contracts/Zombiefeeding.sol\":878:887  _zombieId */\n      dup5\n        /* \"contracts/Zombiefeeding.sol\":870:888  zombies[_zombieId] */\n      dup2\n      sload\n      dup2\n      lt\n      tag_70\n      jumpi\n      tag_71\n      tag_72\n      jump\t// in\n    tag_71:\n    tag_70:\n      swap1\n      0x00\n      mstore\n      keccak256(0x00, 0x20)\n      swap1\n      0x02\n      mul\n      add\n        /* \"contracts/Zombiefeeding.sol\":844:888  Zombie storage myZombie = zombies[_zombieId] */\n      swap1\n      pop\n        /* \"contracts/Zombiefeeding.sol\":924:934  dnaModulus */\n      sload(0x02)\n        /* \"contracts/Zombiefeeding.sol\":911:921  _targetDna */\n      dup4\n        /* \"contracts/Zombiefeeding.sol\":911:934  _targetDna % dnaModulus */\n      tag_74\n      swap2\n      swap1\n      tag_75\n      jump\t// in\n    tag_74:\n        /* \"contracts/Zombiefeeding.sol\":898:934  _targetDna = _targetDna % dnaModulus */\n      swap3\n      pop\n        /* \"contracts/Zombiefeeding.sol\":967:978  uint newDna */\n      0x00\n        /* \"contracts/Zombiefeeding.sol\":1011:1012  2 */\n      0x02\n        /* \"contracts/Zombiefeeding.sol\":995:1003  myZombie */\n      dup3\n        /* \"contracts/Zombiefeeding.sol\":995:1007  myZombie.dna */\n      0x00\n      add\n      sload\n        /* \"contracts/Zombiefeeding.sol\":982:992  _targetDna */\n      dup6\n        /* \"contracts/Zombiefeeding.sol\":982:1007  _targetDna + myZombie.dna */\n      tag_76\n      swap2\n      swap1\n      tag_77\n      jump\t// in\n    tag_76:\n        /* \"contracts/Zombiefeeding.sol\":981:1012  (_targetDna + myZombie.dna) / 2 */\n      tag_78\n      swap2\n      swap1\n      tag_79\n      jump\t// in\n    tag_78:\n        /* \"contracts/Zombiefeeding.sol\":967:1012  uint newDna = (_targetDna + myZombie.dna) / 2 */\n      swap1\n      pop\n        /* \"contracts/Zombiefeeding.sol\":1077:1102  abi.encodePacked(\"kitty\") */\n      add(0x20, mload(0x40))\n      tag_80\n      swap1\n      tag_81\n      jump\t// in\n    tag_80:\n      mload(0x40)\n      0x20\n      dup2\n      dup4\n      sub\n      sub\n      dup2\n      mstore\n      swap1\n      0x40\n      mstore\n        /* \"contracts/Zombiefeeding.sol\":1067:1103  keccak256(abi.encodePacked(\"kitty\")) */\n      dup1\n      mload\n      swap1\n      0x20\n      add\n      keccak256\n        /* \"contracts/Zombiefeeding.sol\":1053:1061  _species */\n      dup4\n        /* \"contracts/Zombiefeeding.sol\":1036:1062  abi.encodePacked(_species) */\n      add(0x20, mload(0x40))\n      tag_82\n      swap2\n      swap1\n      tag_83\n      jump\t// in\n    tag_82:\n      mload(0x40)\n      0x20\n      dup2\n      dup4\n      sub\n      sub\n      dup2\n      mstore\n      swap1\n      0x40\n      mstore\n        /* \"contracts/Zombiefeeding.sol\":1026:1063  keccak256(abi.encodePacked(_species)) */\n      dup1\n      mload\n      swap1\n      0x20\n      add\n      keccak256\n        /* \"contracts/Zombiefeeding.sol\":1026:1103  keccak256(abi.encodePacked(_species)) == keccak256(abi.encodePacked(\"kitty\")) */\n      sub\n        /* \"contracts/Zombiefeeding.sol\":1022:1165  if (keccak256(abi.encodePacked(_species)) == keccak256(abi.encodePacked(\"kitty\"))) {... */\n      tag_84\n      jumpi\n        /* \"contracts/Zombiefeeding.sol\":1152:1154  99 */\n      0x63\n        /* \"contracts/Zombiefeeding.sol\":1146:1149  100 */\n      0x64\n        /* \"contracts/Zombiefeeding.sol\":1137:1143  newDna */\n      dup3\n        /* \"contracts/Zombiefeeding.sol\":1137:1149  newDna % 100 */\n      tag_85\n      swap2\n      swap1\n      tag_75\n      jump\t// in\n    tag_85:\n        /* \"contracts/Zombiefeeding.sol\":1128:1134  newDna */\n      dup3\n        /* \"contracts/Zombiefeeding.sol\":1128:1149  newDna - newDna % 100 */\n      tag_86\n      swap2\n      swap1\n      tag_87\n      jump\t// in\n    tag_86:\n        /* \"contracts/Zombiefeeding.sol\":1128:1154  newDna - newDna % 100 + 99 */\n      tag_88\n      swap2\n      swap1\n      tag_77\n      jump\t// in\n    tag_88:\n        /* \"contracts/Zombiefeeding.sol\":1119:1154  newDna = newDna - newDna % 100 + 99 */\n      swap1\n      pop\n        /* \"contracts/Zombiefeeding.sol\":1022:1165  if (keccak256(abi.encodePacked(_species)) == keccak256(abi.encodePacked(\"kitty\"))) {... */\n    tag_84:\n        /* \"contracts/Zombiefeeding.sol\":1174:1205  _createZombie(\"NoName\", newDna) */\n      tag_89\n      mload(0x40)\n      dup1\n      0x40\n      add\n      0x40\n      mstore\n      dup1\n      0x06\n      dup2\n      mstore\n      0x20\n      add\n      0x4e6f4e616d650000000000000000000000000000000000000000000000000000\n      dup2\n      mstore\n      pop\n        /* \"contracts/Zombiefeeding.sol\":1198:1204  newDna */\n      dup3\n        /* \"contracts/Zombiefeeding.sol\":1174:1187  _createZombie */\n      tag_90\n        /* \"contracts/Zombiefeeding.sol\":1174:1205  _createZombie(\"NoName\", newDna) */\n      jump\t// in\n    tag_89:\n        /* \"contracts/Zombiefeeding.sol\":755:1212  {... */\n      pop\n      pop\n        /* \"contracts/Zombiefeeding.sol\":666:1212  function feedAndMultiply(uint _zombieId, uint _targetDna, string memory _species) public {... */\n      pop\n      pop\n      pop\n      jump\t// out\n        /* \"contracts/OwnableZombie.sol\":1369:1499  function renounceOwnership() public onlyOwner {... */\n    tag_32:\n        /* \"contracts/OwnableZombie.sol\":910:919  isOwner() */\n      tag_92\n        /* \"contracts/OwnableZombie.sol\":910:917  isOwner */\n      tag_38\n        /* \"contracts/OwnableZombie.sol\":910:919  isOwner() */\n      jump\t// in\n    tag_92:\n        /* \"contracts/OwnableZombie.sol\":902:920  require(isOwner()) */\n      tag_93\n      jumpi\n      0x00\n      dup1\n      revert\n    tag_93:\n        /* \"contracts/OwnableZombie.sol\":1464:1465  0 */\n      0x00\n        /* \"contracts/OwnableZombie.sol\":1427:1467  OwnershipTransferred(_owner, address(0)) */\n      0xffffffffffffffffffffffffffffffffffffffff\n      and\n        /* \"contracts/OwnableZombie.sol\":1448:1454  _owner */\n      0x00\n      dup1\n      sload\n      swap1\n      0x0100\n      exp\n      swap1\n      div\n      0xffffffffffffffffffffffffffffffffffffffff\n      and\n        /* \"contracts/OwnableZombie.sol\":1427:1467  OwnershipTransferred(_owner, address(0)) */\n      0xffffffffffffffffffffffffffffffffffffffff\n      and\n      0x8be0079c531659141344cd1fd0a4f28419497f9722a3daafe3b4186f6b6457e0\n      mload(0x40)\n      mload(0x40)\n      dup1\n      swap2\n      sub\n      swap1\n      log3\n        /* \"contracts/OwnableZombie.sol\":1491:1492  0 */\n      0x00\n        /* \"contracts/OwnableZombie.sol\":1474:1480  _owner */\n      dup1\n      0x00\n        /* \"contracts/OwnableZombie.sol\":1474:1493  _owner = address(0) */\n      0x0100\n      exp\n      dup2\n      sload\n      dup2\n      0xffffffffffffffffffffffffffffffffffffffff\n      mul\n      not\n      and\n      swap1\n      dup4\n      0xffffffffffffffffffffffffffffffffffffffff\n      and\n      mul\n      or\n      swap1\n      sstore\n      pop\n        /* \"contracts/OwnableZombie.sol\":1369:1499  function renounceOwnership() public onlyOwner {... */\n      jump\t// out\n        /* \"contracts/OwnableZombie.sol\":719:791  function owner() public view returns(address) {... */\n    tag_34:\n        /* \"contracts/OwnableZombie.sol\":756:763  address */\n      0x00\n        /* \"contracts/OwnableZombie.sol\":779:785  _owner */\n      dup1\n      0x00\n      swap1\n      sload\n      swap1\n      0x0100\n      exp\n      swap1\n      div\n      0xffffffffffffffffffffffffffffffffffffffff\n      and\n        /* \"contracts/OwnableZombie.sol\":772:785  return _owner */\n      swap1\n      pop\n        /* \"contracts/OwnableZombie.sol\":719:791  function owner() public view returns(address) {... */\n      swap1\n      jump\t// out\n        /* \"contracts/OwnableZombie.sol\":1017:1102  function isOwner() public view returns(bool) {... */\n    tag_38:\n        /* \"contracts/OwnableZombie.sol\":1056:1060  bool */\n      0x00\n        /* \"contracts/OwnableZombie.sol\":1090:1096  _owner */\n      dup1\n      0x00\n      swap1\n      sload\n      swap1\n      0x0100\n      exp\n      swap1\n      div\n      0xffffffffffffffffffffffffffffffffffffffff\n      and\n        /* \"contracts/OwnableZombie.sol\":1076:1096  msg.sender == _owner */\n      0xffffffffffffffffffffffffffffffffffffffff\n      and\n        /* \"contracts/OwnableZombie.sol\":1076:1086  msg.sender */\n      caller\n        /* \"contracts/OwnableZombie.sol\":1076:1096  msg.sender == _owner */\n      0xffffffffffffffffffffffffffffffffffffffff\n      and\n      eq\n        /* \"contracts/OwnableZombie.sol\":1069:1096  return msg.sender == _owner */\n      swap1\n      pop\n        /* \"contracts/OwnableZombie.sol\":1017:1102  function isOwner() public view returns(bool) {... */\n      swap1\n      jump\t// out\n        /* \"contracts/Zombiefactory.sol\":1458:1666  function generateRandomZombie(string memory _name) public {... */\n    tag_44:\n        /* \"contracts/Zombiefactory.sol\":1566:1567  0 */\n      0x00\n        /* \"contracts/Zombiefactory.sol\":1534:1550  ownerZombieCount */\n      0x05\n        /* \"contracts/Zombiefactory.sol\":1534:1562  ownerZombieCount[msg.sender] */\n      0x00\n        /* \"contracts/Zombiefactory.sol\":1551:1561  msg.sender */\n      caller\n        /* \"contracts/Zombiefactory.sol\":1534:1562  ownerZombieCount[msg.sender] */\n      0xffffffffffffffffffffffffffffffffffffffff\n      and\n      0xffffffffffffffffffffffffffffffffffffffff\n      and\n      dup2\n      mstore\n      0x20\n      add\n      swap1\n      dup2\n      mstore\n      0x20\n      add\n      0x00\n      keccak256\n      sload\n        /* \"contracts/Zombiefactory.sol\":1534:1567  ownerZombieCount[msg.sender] == 0 */\n      eq\n        /* \"contracts/Zombiefactory.sol\":1526:1568  require(ownerZombieCount[msg.sender] == 0) */\n      tag_98\n      jumpi\n      0x00\n      dup1\n      revert\n    tag_98:\n        /* \"contracts/Zombiefactory.sol\":1580:1592  uint randDna */\n      0x00\n        /* \"contracts/Zombiefactory.sol\":1595:1620  _generateRandomDna(_name) */\n      tag_99\n        /* \"contracts/Zombiefactory.sol\":1614:1619  _name */\n      dup3\n        /* \"contracts/Zombiefactory.sol\":1595:1613  _generateRandomDna */\n      tag_100\n        /* \"contracts/Zombiefactory.sol\":1595:1620  _generateRandomDna(_name) */\n      jump\t// in\n    tag_99:\n        /* \"contracts/Zombiefactory.sol\":1580:1620  uint randDna = _generateRandomDna(_name) */\n      swap1\n      pop\n        /* \"contracts/Zombiefactory.sol\":1630:1659  _createZombie(_name, randDna) */\n      tag_101\n        /* \"contracts/Zombiefactory.sol\":1644:1649  _name */\n      dup3\n        /* \"contracts/Zombiefactory.sol\":1651:1658  randDna */\n      dup3\n        /* \"contracts/Zombiefactory.sol\":1630:1643  _createZombie */\n      tag_90\n        /* \"contracts/Zombiefactory.sol\":1630:1659  _createZombie(_name, randDna) */\n      jump\t// in\n    tag_101:\n        /* \"contracts/Zombiefactory.sol\":1516:1666  {... */\n      pop\n        /* \"contracts/Zombiefactory.sol\":1458:1666  function generateRandomZombie(string memory _name) public {... */\n      pop\n      jump\t// out\n        /* \"contracts/OwnableZombie.sol\":1663:1766  function transferOwnership(address newOwner) public onlyOwner {... */\n    tag_47:\n        /* \"contracts/OwnableZombie.sol\":910:919  isOwner() */\n      tag_103\n        /* \"contracts/OwnableZombie.sol\":910:917  isOwner */\n      tag_38\n        /* \"contracts/OwnableZombie.sol\":910:919  isOwner() */\n      jump\t// in\n    tag_103:\n        /* \"contracts/OwnableZombie.sol\":902:920  require(isOwner()) */\n      tag_104\n      jumpi\n      0x00\n      dup1\n      revert\n    tag_104:\n        /* \"contracts/OwnableZombie.sol\":1732:1760  _transferOwnership(newOwner) */\n      tag_106\n        /* \"contracts/OwnableZombie.sol\":1751:1759  newOwner */\n      dup2\n        /* \"contracts/OwnableZombie.sol\":1732:1750  _transferOwnership */\n      tag_107\n        /* \"contracts/OwnableZombie.sol\":1732:1760  _transferOwnership(newOwner) */\n      jump\t// in\n    tag_106:\n        /* \"contracts/OwnableZombie.sol\":1663:1766  function transferOwnership(address newOwner) public onlyOwner {... */\n      pop\n      jump\t// out\n        /* \"contracts/Zombiefactory.sol\":894:1161  function _createZombie(string memory _name, uint _dna) internal {... */\n    tag_90:\n        /* \"contracts/Zombiefactory.sol\":968:975  zombies */\n      0x03\n        /* \"contracts/Zombiefactory.sol\":981:1000  Zombie(_dna, _name) */\n      mload(0x40)\n      dup1\n      0x40\n      add\n      0x40\n      mstore\n      dup1\n        /* \"contracts/Zombiefactory.sol\":988:992  _dna */\n      dup4\n        /* \"contracts/Zombiefactory.sol\":981:1000  Zombie(_dna, _name) */\n      dup2\n      mstore\n      0x20\n      add\n        /* \"contracts/Zombiefactory.sol\":994:999  _name */\n      dup5\n        /* \"contracts/Zombiefactory.sol\":981:1000  Zombie(_dna, _name) */\n      dup2\n      mstore\n      pop\n        /* \"contracts/Zombiefactory.sol\":968:1001  zombies.push(Zombie(_dna, _name)) */\n      swap1\n      dup1\n      0x01\n      dup2\n      sload\n      add\n      dup1\n      dup3\n      sstore\n      dup1\n      swap2\n      pop\n      pop\n      0x01\n      swap1\n      sub\n      swap1\n      0x00\n      mstore\n      keccak256(0x00, 0x20)\n      swap1\n      0x02\n      mul\n      add\n      0x00\n      swap1\n      swap2\n      swap1\n      swap2\n      swap1\n      swap2\n      pop\n      0x00\n      dup3\n      add\n      mload\n      dup2\n      0x00\n      add\n      sstore\n      0x20\n      dup3\n      add\n      mload\n      dup2\n      0x01\n      add\n      swap1\n      dup1\n      mload\n      swap1\n      0x20\n      add\n      swap1\n      tag_110\n      swap3\n      swap2\n      swap1\n      tag_111\n      jump\t// in\n    tag_110:\n      pop\n      pop\n      pop\n        /* \"contracts/Zombiefactory.sol\":1047:1057  msg.sender */\n      caller\n        /* \"contracts/Zombiefactory.sol\":1011:1024  zombieToOwner */\n      0x04\n        /* \"contracts/Zombiefactory.sol\":1011:1044  zombieToOwner[zombies.length - 1] */\n      0x00\n        /* \"contracts/Zombiefactory.sol\":1042:1043  1 */\n      0x01\n        /* \"contracts/Zombiefactory.sol\":1025:1032  zombies */\n      0x03\n        /* \"contracts/Zombiefactory.sol\":1025:1039  zombies.length */\n      dup1\n      sload\n      swap1\n      pop\n        /* \"contracts/Zombiefactory.sol\":1025:1043  zombies.length - 1 */\n      tag_112\n      swap2\n      swap1\n      tag_87\n      jump\t// in\n    tag_112:\n        /* \"contracts/Zombiefactory.sol\":1011:1044  zombieToOwner[zombies.length - 1] */\n      dup2\n      mstore\n      0x20\n      add\n      swap1\n      dup2\n      mstore\n      0x20\n      add\n      0x00\n      keccak256\n      0x00\n        /* \"contracts/Zombiefactory.sol\":1011:1057  zombieToOwner[zombies.length - 1] = msg.sender */\n      0x0100\n      exp\n      dup2\n      sload\n      dup2\n      0xffffffffffffffffffffffffffffffffffffffff\n      mul\n      not\n      and\n      swap1\n      dup4\n      0xffffffffffffffffffffffffffffffffffffffff\n      and\n      mul\n      or\n      swap1\n      sstore\n      pop\n        /* \"contracts/Zombiefactory.sol\":1067:1083  ownerZombieCount */\n      0x05\n        /* \"contracts/Zombiefactory.sol\":1067:1095  ownerZombieCount[msg.sender] */\n      0x00\n        /* \"contracts/Zombiefactory.sol\":1084:1094  msg.sender */\n      caller\n        /* \"contracts/Zombiefactory.sol\":1067:1095  ownerZombieCount[msg.sender] */\n      0xffffffffffffffffffffffffffffffffffffffff\n      and\n      0xffffffffffffffffffffffffffffffffffffffff\n      and\n      dup2\n      mstore\n      0x20\n      add\n      swap1\n      dup2\n      mstore\n      0x20\n      add\n      0x00\n      keccak256\n      0x00\n        /* \"contracts/Zombiefactory.sol\":1067:1097  ownerZombieCount[msg.sender]++ */\n      dup2\n      sload\n      dup1\n      swap3\n      swap2\n      swap1\n      tag_113\n      swap1\n      tag_114\n      jump\t// in\n    tag_113:\n      swap2\n      swap1\n      pop\n      sstore\n      pop\n        /* \"contracts/Zombiefactory.sol\":1112:1154  NewZombie(zombies.length - 1, _name, _dna) */\n      0x88f026aacbbecc90c18411df4b1185fd8d9be2470f1962f192bf84a27d0704b7\n        /* \"contracts/Zombiefactory.sol\":1139:1140  1 */\n      0x01\n        /* \"contracts/Zombiefactory.sol\":1122:1129  zombies */\n      0x03\n        /* \"contracts/Zombiefactory.sol\":1122:1136  zombies.length */\n      dup1\n      sload\n      swap1\n      pop\n        /* \"contracts/Zombiefactory.sol\":1122:1140  zombies.length - 1 */\n      tag_115\n      swap2\n      swap1\n      tag_87\n      jump\t// in\n    tag_115:\n        /* \"contracts/Zombiefactory.sol\":1142:1147  _name */\n      dup4\n        /* \"contracts/Zombiefactory.sol\":1149:1153  _dna */\n      dup4\n        /* \"contracts/Zombiefactory.sol\":1112:1154  NewZombie(zombies.length - 1, _name, _dna) */\n      mload(0x40)\n      tag_116\n      swap4\n      swap3\n      swap2\n      swap1\n      tag_117\n      jump\t// in\n    tag_116:\n      mload(0x40)\n      dup1\n      swap2\n      sub\n      swap1\n      log1\n        /* \"contracts/Zombiefactory.sol\":894:1161  function _createZombie(string memory _name, uint _dna) internal {... */\n      pop\n      pop\n      jump\t// out\n        /* \"contracts/Zombiefactory.sol\":1272:1452  function _generateRandomDna(string memory _str) private view returns (uint) {... */\n    tag_100:\n        /* \"contracts/Zombiefactory.sol\":1342:1346  uint */\n      0x00\n        /* \"contracts/Zombiefactory.sol\":1358:1367  uint rand */\n      dup1\n        /* \"contracts/Zombiefactory.sol\":1404:1408  _str */\n      dup3\n        /* \"contracts/Zombiefactory.sol\":1387:1409  abi.encodePacked(_str) */\n      add(0x20, mload(0x40))\n      tag_119\n      swap2\n      swap1\n      tag_83\n      jump\t// in\n    tag_119:\n      mload(0x40)\n      0x20\n      dup2\n      dup4\n      sub\n      sub\n      dup2\n      mstore\n      swap1\n      0x40\n      mstore\n        /* \"contracts/Zombiefactory.sol\":1377:1410  keccak256(abi.encodePacked(_str)) */\n      dup1\n      mload\n      swap1\n      0x20\n      add\n      keccak256\n        /* \"contracts/Zombiefactory.sol\":1372:1411  uint(keccak256(abi.encodePacked(_str))) */\n      0x00\n      shr\n        /* \"contracts/Zombiefactory.sol\":1358:1411  uint rand  =  uint(keccak256(abi.encodePacked(_str))) */\n      swap1\n      pop\n        /* \"contracts/Zombiefactory.sol\":1435:1445  dnaModulus */\n      sload(0x02)\n        /* \"contracts/Zombiefactory.sol\":1428:1432  rand */\n      dup2\n        /* \"contracts/Zombiefactory.sol\":1428:1445  rand % dnaModulus */\n      tag_120\n      swap2\n      swap1\n      tag_75\n      jump\t// in\n    tag_120:\n        /* \"contracts/Zombiefactory.sol\":1421:1445  return rand % dnaModulus */\n      swap2\n      pop\n      pop\n        /* \"contracts/Zombiefactory.sol\":1272:1452  function _generateRandomDna(string memory _str) private view returns (uint) {... */\n      swap2\n      swap1\n      pop\n      jump\t// out\n        /* \"contracts/OwnableZombie.sol\":1903:2076  function _transferOwnership(address newOwner) internal {... */\n    tag_107:\n        /* \"contracts/OwnableZombie.sol\":1993:1994  0 */\n      0x00\n        /* \"contracts/OwnableZombie.sol\":1973:1995  newOwner != address(0) */\n      0xffffffffffffffffffffffffffffffffffffffff\n      and\n        /* \"contracts/OwnableZombie.sol\":1973:1981  newOwner */\n      dup2\n        /* \"contracts/OwnableZombie.sol\":1973:1995  newOwner != address(0) */\n      0xffffffffffffffffffffffffffffffffffffffff\n      and\n      sub\n        /* \"contracts/OwnableZombie.sol\":1965:1996  require(newOwner != address(0)) */\n      tag_122\n      jumpi\n      0x00\n      dup1\n      revert\n    tag_122:\n        /* \"contracts/OwnableZombie.sol\":2037:2045  newOwner */\n      dup1\n        /* \"contracts/OwnableZombie.sol\":2008:2046  OwnershipTransferred(_owner, newOwner) */\n      0xffffffffffffffffffffffffffffffffffffffff\n      and\n        /* \"contracts/OwnableZombie.sol\":2029:2035  _owner */\n      0x00\n      dup1\n      sload\n      swap1\n      0x0100\n      exp\n      swap1\n      div\n      0xffffffffffffffffffffffffffffffffffffffff\n      and\n        /* \"contracts/OwnableZombie.sol\":2008:2046  OwnershipTransferred(_owner, newOwner) */\n      0xffffffffffffffffffffffffffffffffffffffff\n      and\n      0x8be0079c531659141344cd1fd0a4f28419497f9722a3daafe3b4186f6b6457e0\n      mload(0x40)\n      mload(0x40)\n      dup1\n      swap2\n      sub\n      swap1\n      log3\n        /* \"contracts/OwnableZombie.sol\":2062:2070  newOwner */\n      dup1\n        /* \"contracts/OwnableZombie.sol\":2053:2059  _owner */\n      0x00\n      dup1\n        /* \"contracts/OwnableZombie.sol\":2053:2070  _owner = newOwner */\n      0x0100\n      exp\n      dup2\n      sload\n      dup2\n      0xffffffffffffffffffffffffffffffffffffffff\n      mul\n      not\n      and\n      swap1\n      dup4\n      0xffffffffffffffffffffffffffffffffffffffff\n      and\n      mul\n      or\n      swap1\n      sstore\n      pop\n        /* \"contracts/OwnableZombie.sol\":1903:2076  function _transferOwnership(address newOwner) internal {... */\n      pop\n      jump\t// out\n    tag_111:\n      dup3\n      dup1\n      sload\n      tag_123\n      swap1\n      tag_59\n      jump\t// in\n    tag_123:\n      swap1\n      0x00\n      mstore\n      keccak256(0x00, 0x20)\n      swap1\n      0x1f\n      add\n      0x20\n      swap1\n      div\n      dup2\n      add\n      swap3\n      dup3\n      tag_125\n      jumpi\n      0x00\n      dup6\n      sstore\n      jump(tag_124)\n    tag_125:\n      dup3\n      0x1f\n      lt\n      tag_126\n      jumpi\n      dup1\n      mload\n      not(0xff)\n      and\n      dup4\n      dup1\n      add\n      or\n      dup6\n      sstore\n      jump(tag_124)\n    tag_126:\n      dup3\n      dup1\n      add\n      0x01\n      add\n      dup6\n      sstore\n      dup3\n      iszero\n      tag_124\n      jumpi\n      swap2\n      dup3\n      add\n    tag_127:\n      dup3\n      dup2\n      gt\n      iszero\n      tag_128\n      jumpi\n      dup3\n      mload\n      dup3\n      sstore\n      swap2\n      0x20\n      add\n      swap2\n      swap1\n      0x01\n      add\n      swap1\n      jump(tag_127)\n    tag_128:\n    tag_124:\n      pop\n      swap1\n      pop\n      tag_129\n      swap2\n      swap1\n      tag_130\n      jump\t// in\n    tag_129:\n      pop\n      swap1\n      jump\t// out\n    tag_130:\n    tag_131:\n      dup1\n      dup3\n      gt\n      iszero\n      tag_132\n      jumpi\n      0x00\n      dup2\n      0x00\n      swap1\n      sstore\n      pop\n      0x01\n      add\n      jump(tag_131)\n    tag_132:\n      pop\n      swap1\n      jump\t// out\n        /* \"#utility.yul\":7:82   */\n    tag_133:\n        /* \"#utility.yul\":40:46   */\n      0x00\n        /* \"#utility.yul\":73:75   */\n      0x40\n        /* \"#utility.yul\":67:76   */\n      mload\n        /* \"#utility.yul\":57:76   */\n      swap1\n      pop\n        /* \"#utility.yul\":7:82   */\n      swap1\n      jump\t// out\n        /* \"#utility.yul\":88:205   */\n    tag_134:\n        /* \"#utility.yul\":197:198   */\n      0x00\n        /* \"#utility.yul\":194:195   */\n      dup1\n        /* \"#utility.yul\":187:199   */\n      revert\n        /* \"#utility.yul\":211:328   */\n    tag_135:\n        /* \"#utility.yul\":320:321   */\n      0x00\n        /* \"#utility.yul\":317:318   */\n      dup1\n        /* \"#utility.yul\":310:322   */\n      revert\n        /* \"#utility.yul\":334:411   */\n    tag_136:\n        /* \"#utility.yul\":371:378   */\n      0x00\n        /* \"#utility.yul\":400:405   */\n      dup2\n        /* \"#utility.yul\":389:405   */\n      swap1\n      pop\n        /* \"#utility.yul\":334:411   */\n      swap2\n      swap1\n      pop\n      jump\t// out\n        /* \"#utility.yul\":417:539   */\n    tag_137:\n        /* \"#utility.yul\":490:514   */\n      tag_177\n        /* \"#utility.yul\":508:513   */\n      dup2\n        /* \"#utility.yul\":490:514   */\n      tag_136\n      jump\t// in\n    tag_177:\n        /* \"#utility.yul\":483:488   */\n      dup2\n        /* \"#utility.yul\":480:515   */\n      eq\n        /* \"#utility.yul\":470:533   */\n      tag_178\n      jumpi\n        /* \"#utility.yul\":529:530   */\n      0x00\n        /* \"#utility.yul\":526:527   */\n      dup1\n        /* \"#utility.yul\":519:531   */\n      revert\n        /* \"#utility.yul\":470:533   */\n    tag_178:\n        /* \"#utility.yul\":417:539   */\n      pop\n      jump\t// out\n        /* \"#utility.yul\":545:684   */\n    tag_138:\n        /* \"#utility.yul\":591:596   */\n      0x00\n        /* \"#utility.yul\":629:635   */\n      dup2\n        /* \"#utility.yul\":616:636   */\n      calldataload\n        /* \"#utility.yul\":607:636   */\n      swap1\n      pop\n        /* \"#utility.yul\":645:678   */\n      tag_180\n        /* \"#utility.yul\":672:677   */\n      dup2\n        /* \"#utility.yul\":645:678   */\n      tag_137\n      jump\t// in\n    tag_180:\n        /* \"#utility.yul\":545:684   */\n      swap3\n      swap2\n      pop\n      pop\n      jump\t// out\n        /* \"#utility.yul\":690:1164   */\n    tag_15:\n        /* \"#utility.yul\":758:764   */\n      0x00\n        /* \"#utility.yul\":766:772   */\n      dup1\n        /* \"#utility.yul\":815:817   */\n      0x40\n        /* \"#utility.yul\":803:812   */\n      dup4\n        /* \"#utility.yul\":794:801   */\n      dup6\n        /* \"#utility.yul\":790:813   */\n      sub\n        /* \"#utility.yul\":786:818   */\n      slt\n        /* \"#utility.yul\":783:902   */\n      iszero\n      tag_182\n      jumpi\n        /* \"#utility.yul\":821:900   */\n      tag_183\n      tag_134\n      jump\t// in\n    tag_183:\n        /* \"#utility.yul\":783:902   */\n    tag_182:\n        /* \"#utility.yul\":941:942   */\n      0x00\n        /* \"#utility.yul\":966:1019   */\n      tag_184\n        /* \"#utility.yul\":1011:1018   */\n      dup6\n        /* \"#utility.yul\":1002:1008   */\n      dup3\n        /* \"#utility.yul\":991:1000   */\n      dup7\n        /* \"#utility.yul\":987:1009   */\n      add\n        /* \"#utility.yul\":966:1019   */\n      tag_138\n      jump\t// in\n    tag_184:\n        /* \"#utility.yul\":956:1019   */\n      swap3\n      pop\n        /* \"#utility.yul\":912:1029   */\n      pop\n        /* \"#utility.yul\":1068:1070   */\n      0x20\n        /* \"#utility.yul\":1094:1147   */\n      tag_185\n        /* \"#utility.yul\":1139:1146   */\n      dup6\n        /* \"#utility.yul\":1130:1136   */\n      dup3\n        /* \"#utility.yul\":1119:1128   */\n      dup7\n        /* \"#utility.yul\":1115:1137   */\n      add\n        /* \"#utility.yul\":1094:1147   */\n      tag_138\n      jump\t// in\n    tag_185:\n        /* \"#utility.yul\":1084:1147   */\n      swap2\n      pop\n        /* \"#utility.yul\":1039:1157   */\n      pop\n        /* \"#utility.yul\":690:1164   */\n      swap3\n      pop\n      swap3\n      swap1\n      pop\n      jump\t// out\n        /* \"#utility.yul\":1170:1499   */\n    tag_19:\n        /* \"#utility.yul\":1229:1235   */\n      0x00\n        /* \"#utility.yul\":1278:1280   */\n      0x20\n        /* \"#utility.yul\":1266:1275   */\n      dup3\n        /* \"#utility.yul\":1257:1264   */\n      dup5\n        /* \"#utility.yul\":1253:1276   */\n      sub\n        /* \"#utility.yul\":1249:1281   */\n      slt\n        /* \"#utility.yul\":1246:1365   */\n      iszero\n      tag_187\n      jumpi\n        /* \"#utility.yul\":1284:1363   */\n      tag_188\n      tag_134\n      jump\t// in\n    tag_188:\n        /* \"#utility.yul\":1246:1365   */\n    tag_187:\n        /* \"#utility.yul\":1404:1405   */\n      0x00\n        /* \"#utility.yul\":1429:1482   */\n      tag_189\n        /* \"#utility.yul\":1474:1481   */\n      dup5\n        /* \"#utility.yul\":1465:1471   */\n      dup3\n        /* \"#utility.yul\":1454:1463   */\n      dup6\n        /* \"#utility.yul\":1450:1472   */\n      add\n        /* \"#utility.yul\":1429:1482   */\n      tag_138\n      jump\t// in\n    tag_189:\n        /* \"#utility.yul\":1419:1482   */\n      swap2\n      pop\n        /* \"#utility.yul\":1375:1492   */\n      pop\n        /* \"#utility.yul\":1170:1499   */\n      swap3\n      swap2\n      pop\n      pop\n      jump\t// out\n        /* \"#utility.yul\":1505:1623   */\n    tag_139:\n        /* \"#utility.yul\":1592:1616   */\n      tag_191\n        /* \"#utility.yul\":1610:1615   */\n      dup2\n        /* \"#utility.yul\":1592:1616   */\n      tag_136\n      jump\t// in\n    tag_191:\n        /* \"#utility.yul\":1587:1590   */\n      dup3\n        /* \"#utility.yul\":1580:1617   */\n      mstore\n        /* \"#utility.yul\":1505:1623   */\n      pop\n      pop\n      jump\t// out\n        /* \"#utility.yul\":1629:1728   */\n    tag_140:\n        /* \"#utility.yul\":1681:1687   */\n      0x00\n        /* \"#utility.yul\":1715:1720   */\n      dup2\n        /* \"#utility.yul\":1709:1721   */\n      mload\n        /* \"#utility.yul\":1699:1721   */\n      swap1\n      pop\n        /* \"#utility.yul\":1629:1728   */\n      swap2\n      swap1\n      pop\n      jump\t// out\n        /* \"#utility.yul\":1734:1903   */\n    tag_141:\n        /* \"#utility.yul\":1818:1829   */\n      0x00\n        /* \"#utility.yul\":1852:1858   */\n      dup3\n        /* \"#utility.yul\":1847:1850   */\n      dup3\n        /* \"#utility.yul\":1840:1859   */\n      mstore\n        /* \"#utility.yul\":1892:1896   */\n      0x20\n        /* \"#utility.yul\":1887:1890   */\n      dup3\n        /* \"#utility.yul\":1883:1897   */\n      add\n        /* \"#utility.yul\":1868:1897   */\n      swap1\n      pop\n        /* \"#utility.yul\":1734:1903   */\n      swap3\n      swap2\n      pop\n      pop\n      jump\t// out\n        /* \"#utility.yul\":1909:2216   */\n    tag_142:\n        /* \"#utility.yul\":1977:1978   */\n      0x00\n        /* \"#utility.yul\":1987:2100   */\n    tag_195:\n        /* \"#utility.yul\":2001:2007   */\n      dup4\n        /* \"#utility.yul\":1998:1999   */\n      dup2\n        /* \"#utility.yul\":1995:2008   */\n      lt\n        /* \"#utility.yul\":1987:2100   */\n      iszero\n      tag_197\n      jumpi\n        /* \"#utility.yul\":2086:2087   */\n      dup1\n        /* \"#utility.yul\":2081:2084   */\n      dup3\n        /* \"#utility.yul\":2077:2088   */\n      add\n        /* \"#utility.yul\":2071:2089   */\n      mload\n        /* \"#utility.yul\":2067:2068   */\n      dup2\n        /* \"#utility.yul\":2062:2065   */\n      dup5\n        /* \"#utility.yul\":2058:2069   */\n      add\n        /* \"#utility.yul\":2051:2090   */\n      mstore\n        /* \"#utility.yul\":2023:2025   */\n      0x20\n        /* \"#utility.yul\":2020:2021   */\n      dup2\n        /* \"#utility.yul\":2016:2026   */\n      add\n        /* \"#utility.yul\":2011:2026   */\n      swap1\n      pop\n        /* \"#utility.yul\":1987:2100   */\n      jump(tag_195)\n    tag_197:\n        /* \"#utility.yul\":2118:2124   */\n      dup4\n        /* \"#utility.yul\":2115:2116   */\n      dup2\n        /* \"#utility.yul\":2112:2125   */\n      gt\n        /* \"#utility.yul\":2109:2210   */\n      iszero\n      tag_198\n      jumpi\n        /* \"#utility.yul\":2198:2199   */\n      0x00\n        /* \"#utility.yul\":2189:2195   */\n      dup5\n        /* \"#utility.yul\":2184:2187   */\n      dup5\n        /* \"#utility.yul\":2180:2196   */\n      add\n        /* \"#utility.yul\":2173:2200   */\n      mstore\n        /* \"#utility.yul\":2109:2210   */\n    tag_198:\n        /* \"#utility.yul\":1958:2216   */\n      pop\n        /* \"#utility.yul\":1909:2216   */\n      pop\n      pop\n      pop\n      jump\t// out\n        /* \"#utility.yul\":2222:2324   */\n    tag_143:\n        /* \"#utility.yul\":2263:2269   */\n      0x00\n        /* \"#utility.yul\":2314:2316   */\n      0x1f\n        /* \"#utility.yul\":2310:2317   */\n      not\n        /* \"#utility.yul\":2305:2307   */\n      0x1f\n        /* \"#utility.yul\":2298:2303   */\n      dup4\n        /* \"#utility.yul\":2294:2308   */\n      add\n        /* \"#utility.yul\":2290:2318   */\n      and\n        /* \"#utility.yul\":2280:2318   */\n      swap1\n      pop\n        /* \"#utility.yul\":2222:2324   */\n      swap2\n      swap1\n      pop\n      jump\t// out\n        /* \"#utility.yul\":2330:2694   */\n    tag_144:\n        /* \"#utility.yul\":2418:2421   */\n      0x00\n        /* \"#utility.yul\":2446:2485   */\n      tag_201\n        /* \"#utility.yul\":2479:2484   */\n      dup3\n        /* \"#utility.yul\":2446:2485   */\n      tag_140\n      jump\t// in\n    tag_201:\n        /* \"#utility.yul\":2501:2572   */\n      tag_202\n        /* \"#utility.yul\":2565:2571   */\n      dup2\n        /* \"#utility.yul\":2560:2563   */\n      dup6\n        /* \"#utility.yul\":2501:2572   */\n      tag_141\n      jump\t// in\n    tag_202:\n        /* \"#utility.yul\":2494:2572   */\n      swap4\n      pop\n        /* \"#utility.yul\":2581:2633   */\n      tag_203\n        /* \"#utility.yul\":2626:2632   */\n      dup2\n        /* \"#utility.yul\":2621:2624   */\n      dup6\n        /* \"#utility.yul\":2614:2618   */\n      0x20\n        /* \"#utility.yul\":2607:2612   */\n      dup7\n        /* \"#utility.yul\":2603:2619   */\n      add\n        /* \"#utility.yul\":2581:2633   */\n      tag_142\n      jump\t// in\n    tag_203:\n        /* \"#utility.yul\":2658:2687   */\n      tag_204\n        /* \"#utility.yul\":2680:2686   */\n      dup2\n        /* \"#utility.yul\":2658:2687   */\n      tag_143\n      jump\t// in\n    tag_204:\n        /* \"#utility.yul\":2653:2656   */\n      dup5\n        /* \"#utility.yul\":2649:2688   */\n      add\n        /* \"#utility.yul\":2642:2688   */\n      swap2\n      pop\n        /* \"#utility.yul\":2422:2694   */\n      pop\n        /* \"#utility.yul\":2330:2694   */\n      swap3\n      swap2\n      pop\n      pop\n      jump\t// out\n        /* \"#utility.yul\":2700:3123   */\n    tag_22:\n        /* \"#utility.yul\":2841:2845   */\n      0x00\n        /* \"#utility.yul\":2879:2881   */\n      0x40\n        /* \"#utility.yul\":2868:2877   */\n      dup3\n        /* \"#utility.yul\":2864:2882   */\n      add\n        /* \"#utility.yul\":2856:2882   */\n      swap1\n      pop\n        /* \"#utility.yul\":2892:2963   */\n      tag_206\n        /* \"#utility.yul\":2960:2961   */\n      0x00\n        /* \"#utility.yul\":2949:2958   */\n      dup4\n        /* \"#utility.yul\":2945:2962   */\n      add\n        /* \"#utility.yul\":2936:2942   */\n      dup6\n        /* \"#utility.yul\":2892:2963   */\n      tag_139\n      jump\t// in\n    tag_206:\n        /* \"#utility.yul\":3010:3019   */\n      dup2\n        /* \"#utility.yul\":3004:3008   */\n      dup2\n        /* \"#utility.yul\":3000:3020   */\n      sub\n        /* \"#utility.yul\":2995:2997   */\n      0x20\n        /* \"#utility.yul\":2984:2993   */\n      dup4\n        /* \"#utility.yul\":2980:2998   */\n      add\n        /* \"#utility.yul\":2973:3021   */\n      mstore\n        /* \"#utility.yul\":3038:3116   */\n      tag_207\n        /* \"#utility.yul\":3111:3115   */\n      dup2\n        /* \"#utility.yul\":3102:3108   */\n      dup5\n        /* \"#utility.yul\":3038:3116   */\n      tag_144\n      jump\t// in\n    tag_207:\n        /* \"#utility.yul\":3030:3116   */\n      swap1\n      pop\n        /* \"#utility.yul\":2700:3123   */\n      swap4\n      swap3\n      pop\n      pop\n      pop\n      jump\t// out\n        /* \"#utility.yul\":3129:3255   */\n    tag_145:\n        /* \"#utility.yul\":3166:3173   */\n      0x00\n        /* \"#utility.yul\":3206:3248   */\n      0xffffffffffffffffffffffffffffffffffffffff\n        /* \"#utility.yul\":3199:3204   */\n      dup3\n        /* \"#utility.yul\":3195:3249   */\n      and\n        /* \"#utility.yul\":3184:3249   */\n      swap1\n      pop\n        /* \"#utility.yul\":3129:3255   */\n      swap2\n      swap1\n      pop\n      jump\t// out\n        /* \"#utility.yul\":3261:3357   */\n    tag_146:\n        /* \"#utility.yul\":3298:3305   */\n      0x00\n        /* \"#utility.yul\":3327:3351   */\n      tag_210\n        /* \"#utility.yul\":3345:3350   */\n      dup3\n        /* \"#utility.yul\":3327:3351   */\n      tag_145\n      jump\t// in\n    tag_210:\n        /* \"#utility.yul\":3316:3351   */\n      swap1\n      pop\n        /* \"#utility.yul\":3261:3357   */\n      swap2\n      swap1\n      pop\n      jump\t// out\n        /* \"#utility.yul\":3363:3485   */\n    tag_147:\n        /* \"#utility.yul\":3436:3460   */\n      tag_212\n        /* \"#utility.yul\":3454:3459   */\n      dup2\n        /* \"#utility.yul\":3436:3460   */\n      tag_146\n      jump\t// in\n    tag_212:\n        /* \"#utility.yul\":3429:3434   */\n      dup2\n        /* \"#utility.yul\":3426:3461   */\n      eq\n        /* \"#utility.yul\":3416:3479   */\n      tag_213\n      jumpi\n        /* \"#utility.yul\":3475:3476   */\n      0x00\n        /* \"#utility.yul\":3472:3473   */\n      dup1\n        /* \"#utility.yul\":3465:3477   */\n      revert\n        /* \"#utility.yul\":3416:3479   */\n    tag_213:\n        /* \"#utility.yul\":3363:3485   */\n      pop\n      jump\t// out\n        /* \"#utility.yul\":3491:3630   */\n    tag_148:\n        /* \"#utility.yul\":3537:3542   */\n      0x00\n        /* \"#utility.yul\":3575:3581   */\n      dup2\n        /* \"#utility.yul\":3562:3582   */\n      calldataload\n        /* \"#utility.yul\":3553:3582   */\n      swap1\n      pop\n        /* \"#utility.yul\":3591:3624   */\n      tag_215\n        /* \"#utility.yul\":3618:3623   */\n      dup2\n        /* \"#utility.yul\":3591:3624   */\n      tag_147\n      jump\t// in\n    tag_215:\n        /* \"#utility.yul\":3491:3630   */\n      swap3\n      swap2\n      pop\n      pop\n      jump\t// out\n        /* \"#utility.yul\":3636:3965   */\n    tag_25:\n        /* \"#utility.yul\":3695:3701   */\n      0x00\n        /* \"#utility.yul\":3744:3746   */\n      0x20\n        /* \"#utility.yul\":3732:3741   */\n      dup3\n        /* \"#utility.yul\":3723:3730   */\n      dup5\n        /* \"#utility.yul\":3719:3742   */\n      sub\n        /* \"#utility.yul\":3715:3747   */\n      slt\n        /* \"#utility.yul\":3712:3831   */\n      iszero\n      tag_217\n      jumpi\n        /* \"#utility.yul\":3750:3829   */\n      tag_218\n      tag_134\n      jump\t// in\n    tag_218:\n        /* \"#utility.yul\":3712:3831   */\n    tag_217:\n        /* \"#utility.yul\":3870:3871   */\n      0x00\n        /* \"#utility.yul\":3895:3948   */\n      tag_219\n        /* \"#utility.yul\":3940:3947   */\n      dup5\n        /* \"#utility.yul\":3931:3937   */\n      dup3\n        /* \"#utility.yul\":3920:3929   */\n      dup6\n        /* \"#utility.yul\":3916:3938   */\n      add\n        /* \"#utility.yul\":3895:3948   */\n      tag_148\n      jump\t// in\n    tag_219:\n        /* \"#utility.yul\":3885:3948   */\n      swap2\n      pop\n        /* \"#utility.yul\":3841:3958   */\n      pop\n        /* \"#utility.yul\":3636:3965   */\n      swap3\n      swap2\n      pop\n      pop\n      jump\t// out\n        /* \"#utility.yul\":3971:4088   */\n    tag_149:\n        /* \"#utility.yul\":4080:4081   */\n      0x00\n        /* \"#utility.yul\":4077:4078   */\n      dup1\n        /* \"#utility.yul\":4070:4082   */\n      revert\n        /* \"#utility.yul\":4094:4211   */\n    tag_150:\n        /* \"#utility.yul\":4203:4204   */\n      0x00\n        /* \"#utility.yul\":4200:4201   */\n      dup1\n        /* \"#utility.yul\":4193:4205   */\n      revert\n        /* \"#utility.yul\":4217:4397   */\n    tag_151:\n        /* \"#utility.yul\":4265:4342   */\n      0x4e487b7100000000000000000000000000000000000000000000000000000000\n        /* \"#utility.yul\":4262:4263   */\n      0x00\n        /* \"#utility.yul\":4255:4343   */\n      mstore\n        /* \"#utility.yul\":4362:4366   */\n      0x41\n        /* \"#utility.yul\":4359:4360   */\n      0x04\n        /* \"#utility.yul\":4352:4367   */\n      mstore\n        /* \"#utility.yul\":4386:4390   */\n      0x24\n        /* \"#utility.yul\":4383:4384   */\n      0x00\n        /* \"#utility.yul\":4376:4391   */\n      revert\n        /* \"#utility.yul\":4403:4684   */\n    tag_152:\n        /* \"#utility.yul\":4486:4513   */\n      tag_224\n        /* \"#utility.yul\":4508:4512   */\n      dup3\n        /* \"#utility.yul\":4486:4513   */\n      tag_143\n      jump\t// in\n    tag_224:\n        /* \"#utility.yul\":4478:4484   */\n      dup2\n        /* \"#utility.yul\":4474:4514   */\n      add\n        /* \"#utility.yul\":4616:4622   */\n      dup2\n        /* \"#utility.yul\":4604:4614   */\n      dup2\n        /* \"#utility.yul\":4601:4623   */\n      lt\n        /* \"#utility.yul\":4580:4598   */\n      0xffffffffffffffff\n        /* \"#utility.yul\":4568:4578   */\n      dup3\n        /* \"#utility.yul\":4565:4599   */\n      gt\n        /* \"#utility.yul\":4562:4624   */\n      or\n        /* \"#utility.yul\":4559:4647   */\n      iszero\n      tag_225\n      jumpi\n        /* \"#utility.yul\":4627:4645   */\n      tag_226\n      tag_151\n      jump\t// in\n    tag_226:\n        /* \"#utility.yul\":4559:4647   */\n    tag_225:\n        /* \"#utility.yul\":4667:4677   */\n      dup1\n        /* \"#utility.yul\":4663:4665   */\n      0x40\n        /* \"#utility.yul\":4656:4678   */\n      mstore\n        /* \"#utility.yul\":4446:4684   */\n      pop\n        /* \"#utility.yul\":4403:4684   */\n      pop\n      pop\n      jump\t// out\n        /* \"#utility.yul\":4690:4819   */\n    tag_153:\n        /* \"#utility.yul\":4724:4730   */\n      0x00\n        /* \"#utility.yul\":4751:4771   */\n      tag_228\n      tag_133\n      jump\t// in\n    tag_228:\n        /* \"#utility.yul\":4741:4771   */\n      swap1\n      pop\n        /* \"#utility.yul\":4780:4813   */\n      tag_229\n        /* \"#utility.yul\":4808:4812   */\n      dup3\n        /* \"#utility.yul\":4800:4806   */\n      dup3\n        /* \"#utility.yul\":4780:4813   */\n      tag_152\n      jump\t// in\n    tag_229:\n        /* \"#utility.yul\":4690:4819   */\n      swap2\n      swap1\n      pop\n      jump\t// out\n        /* \"#utility.yul\":4825:5133   */\n    tag_154:\n        /* \"#utility.yul\":4887:4891   */\n      0x00\n        /* \"#utility.yul\":4977:4995   */\n      0xffffffffffffffff\n        /* \"#utility.yul\":4969:4975   */\n      dup3\n        /* \"#utility.yul\":4966:4996   */\n      gt\n        /* \"#utility.yul\":4963:5019   */\n      iszero\n      tag_231\n      jumpi\n        /* \"#utility.yul\":4999:5017   */\n      tag_232\n      tag_151\n      jump\t// in\n    tag_232:\n        /* \"#utility.yul\":4963:5019   */\n    tag_231:\n        /* \"#utility.yul\":5037:5066   */\n      tag_233\n        /* \"#utility.yul\":5059:5065   */\n      dup3\n        /* \"#utility.yul\":5037:5066   */\n      tag_143\n      jump\t// in\n    tag_233:\n        /* \"#utility.yul\":5029:5066   */\n      swap1\n      pop\n        /* \"#utility.yul\":5121:5125   */\n      0x20\n        /* \"#utility.yul\":5115:5119   */\n      dup2\n        /* \"#utility.yul\":5111:5126   */\n      add\n        /* \"#utility.yul\":5103:5126   */\n      swap1\n      pop\n        /* \"#utility.yul\":4825:5133   */\n      swap2\n      swap1\n      pop\n      jump\t// out\n        /* \"#utility.yul\":5139:5293   */\n    tag_155:\n        /* \"#utility.yul\":5223:5229   */\n      dup3\n        /* \"#utility.yul\":5218:5221   */\n      dup2\n        /* \"#utility.yul\":5213:5216   */\n      dup4\n        /* \"#utility.yul\":5200:5230   */\n      calldatacopy\n        /* \"#utility.yul\":5285:5286   */\n      0x00\n        /* \"#utility.yul\":5276:5282   */\n      dup4\n        /* \"#utility.yul\":5271:5274   */\n      dup4\n        /* \"#utility.yul\":5267:5283   */\n      add\n        /* \"#utility.yul\":5260:5287   */\n      mstore\n        /* \"#utility.yul\":5139:5293   */\n      pop\n      pop\n      pop\n      jump\t// out\n        /* \"#utility.yul\":5299:5711   */\n    tag_156:\n        /* \"#utility.yul\":5377:5382   */\n      0x00\n        /* \"#utility.yul\":5402:5468   */\n      tag_236\n        /* \"#utility.yul\":5418:5467   */\n      tag_237\n        /* \"#utility.yul\":5460:5466   */\n      dup5\n        /* \"#utility.yul\":5418:5467   */\n      tag_154\n      jump\t// in\n    tag_237:\n        /* \"#utility.yul\":5402:5468   */\n      tag_153\n      jump\t// in\n    tag_236:\n        /* \"#utility.yul\":5393:5468   */\n      swap1\n      pop\n        /* \"#utility.yul\":5491:5497   */\n      dup3\n        /* \"#utility.yul\":5484:5489   */\n      dup2\n        /* \"#utility.yul\":5477:5498   */\n      mstore\n        /* \"#utility.yul\":5529:5533   */\n      0x20\n        /* \"#utility.yul\":5522:5527   */\n      dup2\n        /* \"#utility.yul\":5518:5534   */\n      add\n        /* \"#utility.yul\":5567:5570   */\n      dup5\n        /* \"#utility.yul\":5558:5564   */\n      dup5\n        /* \"#utility.yul\":5553:5556   */\n      dup5\n        /* \"#utility.yul\":5549:5565   */\n      add\n        /* \"#utility.yul\":5546:5571   */\n      gt\n        /* \"#utility.yul\":5543:5655   */\n      iszero\n      tag_238\n      jumpi\n        /* \"#utility.yul\":5574:5653   */\n      tag_239\n      tag_150\n      jump\t// in\n    tag_239:\n        /* \"#utility.yul\":5543:5655   */\n    tag_238:\n        /* \"#utility.yul\":5664:5705   */\n      tag_240\n        /* \"#utility.yul\":5698:5704   */\n      dup5\n        /* \"#utility.yul\":5693:5696   */\n      dup3\n        /* \"#utility.yul\":5688:5691   */\n      dup6\n        /* \"#utility.yul\":5664:5705   */\n      tag_155\n      jump\t// in\n    tag_240:\n        /* \"#utility.yul\":5383:5711   */\n      pop\n        /* \"#utility.yul\":5299:5711   */\n      swap4\n      swap3\n      pop\n      pop\n      pop\n      jump\t// out\n        /* \"#utility.yul\":5731:6071   */\n    tag_157:\n        /* \"#utility.yul\":5787:5792   */\n      0x00\n        /* \"#utility.yul\":5836:5839   */\n      dup3\n        /* \"#utility.yul\":5829:5833   */\n      0x1f\n        /* \"#utility.yul\":5821:5827   */\n      dup4\n        /* \"#utility.yul\":5817:5834   */\n      add\n        /* \"#utility.yul\":5813:5840   */\n      slt\n        /* \"#utility.yul\":5803:5925   */\n      tag_242\n      jumpi\n        /* \"#utility.yul\":5844:5923   */\n      tag_243\n      tag_149\n      jump\t// in\n    tag_243:\n        /* \"#utility.yul\":5803:5925   */\n    tag_242:\n        /* \"#utility.yul\":5961:5967   */\n      dup2\n        /* \"#utility.yul\":5948:5968   */\n      calldataload\n        /* \"#utility.yul\":5986:6065   */\n      tag_244\n        /* \"#utility.yul\":6061:6064   */\n      dup5\n        /* \"#utility.yul\":6053:6059   */\n      dup3\n        /* \"#utility.yul\":6046:6050   */\n      0x20\n        /* \"#utility.yul\":6038:6044   */\n      dup7\n        /* \"#utility.yul\":6034:6051   */\n      add\n        /* \"#utility.yul\":5986:6065   */\n      tag_156\n      jump\t// in\n    tag_244:\n        /* \"#utility.yul\":5977:6065   */\n      swap2\n      pop\n        /* \"#utility.yul\":5793:6071   */\n      pop\n        /* \"#utility.yul\":5731:6071   */\n      swap3\n      swap2\n      pop\n      pop\n      jump\t// out\n        /* \"#utility.yul\":6077:6876   */\n    tag_29:\n        /* \"#utility.yul\":6164:6170   */\n      0x00\n        /* \"#utility.yul\":6172:6178   */\n      dup1\n        /* \"#utility.yul\":6180:6186   */\n      0x00\n        /* \"#utility.yul\":6229:6231   */\n      0x60\n        /* \"#utility.yul\":6217:6226   */\n      dup5\n        /* \"#utility.yul\":6208:6215   */\n      dup7\n        /* \"#utility.yul\":6204:6227   */\n      sub\n        /* \"#utility.yul\":6200:6232   */\n      slt\n        /* \"#utility.yul\":6197:6316   */\n      iszero\n      tag_246\n      jumpi\n        /* \"#utility.yul\":6235:6314   */\n      tag_247\n      tag_134\n      jump\t// in\n    tag_247:\n        /* \"#utility.yul\":6197:6316   */\n    tag_246:\n        /* \"#utility.yul\":6355:6356   */\n      0x00\n        /* \"#utility.yul\":6380:6433   */\n      tag_248\n        /* \"#utility.yul\":6425:6432   */\n      dup7\n        /* \"#utility.yul\":6416:6422   */\n      dup3\n        /* \"#utility.yul\":6405:6414   */\n      dup8\n        /* \"#utility.yul\":6401:6423   */\n      add\n        /* \"#utility.yul\":6380:6433   */\n      tag_138\n      jump\t// in\n    tag_248:\n        /* \"#utility.yul\":6370:6433   */\n      swap4\n      pop\n        /* \"#utility.yul\":6326:6443   */\n      pop\n        /* \"#utility.yul\":6482:6484   */\n      0x20\n        /* \"#utility.yul\":6508:6561   */\n      tag_249\n        /* \"#utility.yul\":6553:6560   */\n      dup7\n        /* \"#utility.yul\":6544:6550   */\n      dup3\n        /* \"#utility.yul\":6533:6542   */\n      dup8\n        /* \"#utility.yul\":6529:6551   */\n      add\n        /* \"#utility.yul\":6508:6561   */\n      tag_138\n      jump\t// in\n    tag_249:\n        /* \"#utility.yul\":6498:6561   */\n      swap3\n      pop\n        /* \"#utility.yul\":6453:6571   */\n      pop\n        /* \"#utility.yul\":6638:6640   */\n      0x40\n        /* \"#utility.yul\":6627:6636   */\n      dup5\n        /* \"#utility.yul\":6623:6641   */\n      add\n        /* \"#utility.yul\":6610:6642   */\n      calldataload\n        /* \"#utility.yul\":6669:6687   */\n      0xffffffffffffffff\n        /* \"#utility.yul\":6661:6667   */\n      dup2\n        /* \"#utility.yul\":6658:6688   */\n      gt\n        /* \"#utility.yul\":6655:6772   */\n      iszero\n      tag_250\n      jumpi\n        /* \"#utility.yul\":6691:6770   */\n      tag_251\n      tag_135\n      jump\t// in\n    tag_251:\n        /* \"#utility.yul\":6655:6772   */\n    tag_250:\n        /* \"#utility.yul\":6796:6859   */\n      tag_252\n        /* \"#utility.yul\":6851:6858   */\n      dup7\n        /* \"#utility.yul\":6842:6848   */\n      dup3\n        /* \"#utility.yul\":6831:6840   */\n      dup8\n        /* \"#utility.yul\":6827:6849   */\n      add\n        /* \"#utility.yul\":6796:6859   */\n      tag_157\n      jump\t// in\n    tag_252:\n        /* \"#utility.yul\":6786:6859   */\n      swap2\n      pop\n        /* \"#utility.yul\":6581:6869   */\n      pop\n        /* \"#utility.yul\":6077:6876   */\n      swap3\n      pop\n      swap3\n      pop\n      swap3\n      jump\t// out\n        /* \"#utility.yul\":6882:7000   */\n    tag_158:\n        /* \"#utility.yul\":6969:6993   */\n      tag_254\n        /* \"#utility.yul\":6987:6992   */\n      dup2\n        /* \"#utility.yul\":6969:6993   */\n      tag_146\n      jump\t// in\n    tag_254:\n        /* \"#utility.yul\":6964:6967   */\n      dup3\n        /* \"#utility.yul\":6957:6994   */\n      mstore\n        /* \"#utility.yul\":6882:7000   */\n      pop\n      pop\n      jump\t// out\n        /* \"#utility.yul\":7006:7228   */\n    tag_36:\n        /* \"#utility.yul\":7099:7103   */\n      0x00\n        /* \"#utility.yul\":7137:7139   */\n      0x20\n        /* \"#utility.yul\":7126:7135   */\n      dup3\n        /* \"#utility.yul\":7122:7140   */\n      add\n        /* \"#utility.yul\":7114:7140   */\n      swap1\n      pop\n        /* \"#utility.yul\":7150:7221   */\n      tag_256\n        /* \"#utility.yul\":7218:7219   */\n      0x00\n        /* \"#utility.yul\":7207:7216   */\n      dup4\n        /* \"#utility.yul\":7203:7220   */\n      add\n        /* \"#utility.yul\":7194:7200   */\n      dup5\n        /* \"#utility.yul\":7150:7221   */\n      tag_158\n      jump\t// in\n    tag_256:\n        /* \"#utility.yul\":7006:7228   */\n      swap3\n      swap2\n      pop\n      pop\n      jump\t// out\n        /* \"#utility.yul\":7234:7324   */\n    tag_159:\n        /* \"#utility.yul\":7268:7275   */\n      0x00\n        /* \"#utility.yul\":7311:7316   */\n      dup2\n        /* \"#utility.yul\":7304:7317   */\n      iszero\n        /* \"#utility.yul\":7297:7318   */\n      iszero\n        /* \"#utility.yul\":7286:7318   */\n      swap1\n      pop\n        /* \"#utility.yul\":7234:7324   */\n      swap2\n      swap1\n      pop\n      jump\t// out\n        /* \"#utility.yul\":7330:7439   */\n    tag_160:\n        /* \"#utility.yul\":7411:7432   */\n      tag_259\n        /* \"#utility.yul\":7426:7431   */\n      dup2\n        /* \"#utility.yul\":7411:7432   */\n      tag_159\n      jump\t// in\n    tag_259:\n        /* \"#utility.yul\":7406:7409   */\n      dup3\n        /* \"#utility.yul\":7399:7433   */\n      mstore\n        /* \"#utility.yul\":7330:7439   */\n      pop\n      pop\n      jump\t// out\n        /* \"#utility.yul\":7445:7655   */\n    tag_40:\n        /* \"#utility.yul\":7532:7536   */\n      0x00\n        /* \"#utility.yul\":7570:7572   */\n      0x20\n        /* \"#utility.yul\":7559:7568   */\n      dup3\n        /* \"#utility.yul\":7555:7573   */\n      add\n        /* \"#utility.yul\":7547:7573   */\n      swap1\n      pop\n        /* \"#utility.yul\":7583:7648   */\n      tag_261\n        /* \"#utility.yul\":7645:7646   */\n      0x00\n        /* \"#utility.yul\":7634:7643   */\n      dup4\n        /* \"#utility.yul\":7630:7647   */\n      add\n        /* \"#utility.yul\":7621:7627   */\n      dup5\n        /* \"#utility.yul\":7583:7648   */\n      tag_160\n      jump\t// in\n    tag_261:\n        /* \"#utility.yul\":7445:7655   */\n      swap3\n      swap2\n      pop\n      pop\n      jump\t// out\n        /* \"#utility.yul\":7661:8170   */\n    tag_43:\n        /* \"#utility.yul\":7730:7736   */\n      0x00\n        /* \"#utility.yul\":7779:7781   */\n      0x20\n        /* \"#utility.yul\":7767:7776   */\n      dup3\n        /* \"#utility.yul\":7758:7765   */\n      dup5\n        /* \"#utility.yul\":7754:7777   */\n      sub\n        /* \"#utility.yul\":7750:7782   */\n      slt\n        /* \"#utility.yul\":7747:7866   */\n      iszero\n      tag_263\n      jumpi\n        /* \"#utility.yul\":7785:7864   */\n      tag_264\n      tag_134\n      jump\t// in\n    tag_264:\n        /* \"#utility.yul\":7747:7866   */\n    tag_263:\n        /* \"#utility.yul\":7933:7934   */\n      0x00\n        /* \"#utility.yul\":7922:7931   */\n      dup3\n        /* \"#utility.yul\":7918:7935   */\n      add\n        /* \"#utility.yul\":7905:7936   */\n      calldataload\n        /* \"#utility.yul\":7963:7981   */\n      0xffffffffffffffff\n        /* \"#utility.yul\":7955:7961   */\n      dup2\n        /* \"#utility.yul\":7952:7982   */\n      gt\n        /* \"#utility.yul\":7949:8066   */\n      iszero\n      tag_265\n      jumpi\n        /* \"#utility.yul\":7985:8064   */\n      tag_266\n      tag_135\n      jump\t// in\n    tag_266:\n        /* \"#utility.yul\":7949:8066   */\n    tag_265:\n        /* \"#utility.yul\":8090:8153   */\n      tag_267\n        /* \"#utility.yul\":8145:8152   */\n      dup5\n        /* \"#utility.yul\":8136:8142   */\n      dup3\n        /* \"#utility.yul\":8125:8134   */\n      dup6\n        /* \"#utility.yul\":8121:8143   */\n      add\n        /* \"#utility.yul\":8090:8153   */\n      tag_157\n      jump\t// in\n    tag_267:\n        /* \"#utility.yul\":8080:8153   */\n      swap2\n      pop\n        /* \"#utility.yul\":7876:8163   */\n      pop\n        /* \"#utility.yul\":7661:8170   */\n      swap3\n      swap2\n      pop\n      pop\n      jump\t// out\n        /* \"#utility.yul\":8176:8398   */\n    tag_50:\n        /* \"#utility.yul\":8269:8273   */\n      0x00\n        /* \"#utility.yul\":8307:8309   */\n      0x20\n        /* \"#utility.yul\":8296:8305   */\n      dup3\n        /* \"#utility.yul\":8292:8310   */\n      add\n        /* \"#utility.yul\":8284:8310   */\n      swap1\n      pop\n        /* \"#utility.yul\":8320:8391   */\n      tag_269\n        /* \"#utility.yul\":8388:8389   */\n      0x00\n        /* \"#utility.yul\":8377:8386   */\n      dup4\n        /* \"#utility.yul\":8373:8390   */\n      add\n        /* \"#utility.yul\":8364:8370   */\n      dup5\n        /* \"#utility.yul\":8320:8391   */\n      tag_139\n      jump\t// in\n    tag_269:\n        /* \"#utility.yul\":8176:8398   */\n      swap3\n      swap2\n      pop\n      pop\n      jump\t// out\n        /* \"#utility.yul\":8404:8520   */\n    tag_161:\n        /* \"#utility.yul\":8474:8495   */\n      tag_271\n        /* \"#utility.yul\":8489:8494   */\n      dup2\n        /* \"#utility.yul\":8474:8495   */\n      tag_159\n      jump\t// in\n    tag_271:\n        /* \"#utility.yul\":8467:8472   */\n      dup2\n        /* \"#utility.yul\":8464:8496   */\n      eq\n        /* \"#utility.yul\":8454:8514   */\n      tag_272\n      jumpi\n        /* \"#utility.yul\":8510:8511   */\n      0x00\n        /* \"#utility.yul\":8507:8508   */\n      dup1\n        /* \"#utility.yul\":8500:8512   */\n      revert\n        /* \"#utility.yul\":8454:8514   */\n    tag_272:\n        /* \"#utility.yul\":8404:8520   */\n      pop\n      jump\t// out\n        /* \"#utility.yul\":8526:8663   */\n    tag_162:\n        /* \"#utility.yul\":8580:8585   */\n      0x00\n        /* \"#utility.yul\":8611:8617   */\n      dup2\n        /* \"#utility.yul\":8605:8618   */\n      mload\n        /* \"#utility.yul\":8596:8618   */\n      swap1\n      pop\n        /* \"#utility.yul\":8627:8657   */\n      tag_274\n        /* \"#utility.yul\":8651:8656   */\n      dup2\n        /* \"#utility.yul\":8627:8657   */\n      tag_161\n      jump\t// in\n    tag_274:\n        /* \"#utility.yul\":8526:8663   */\n      swap3\n      swap2\n      pop\n      pop\n      jump\t// out\n        /* \"#utility.yul\":8669:8812   */\n    tag_163:\n        /* \"#utility.yul\":8726:8731   */\n      0x00\n        /* \"#utility.yul\":8757:8763   */\n      dup2\n        /* \"#utility.yul\":8751:8764   */\n      mload\n        /* \"#utility.yul\":8742:8764   */\n      swap1\n      pop\n        /* \"#utility.yul\":8773:8806   */\n      tag_276\n        /* \"#utility.yul\":8800:8805   */\n      dup2\n        /* \"#utility.yul\":8773:8806   */\n      tag_137\n      jump\t// in\n    tag_276:\n        /* \"#utility.yul\":8669:8812   */\n      swap3\n      swap2\n      pop\n      pop\n      jump\t// out\n        /* \"#utility.yul\":8818:10568   */\n    tag_54:\n        /* \"#utility.yul\":8963:8969   */\n      0x00\n        /* \"#utility.yul\":8971:8977   */\n      dup1\n        /* \"#utility.yul\":8979:8985   */\n      0x00\n        /* \"#utility.yul\":8987:8993   */\n      dup1\n        /* \"#utility.yul\":8995:9001   */\n      0x00\n        /* \"#utility.yul\":9003:9009   */\n      dup1\n        /* \"#utility.yul\":9011:9017   */\n      0x00\n        /* \"#utility.yul\":9019:9025   */\n      dup1\n        /* \"#utility.yul\":9027:9033   */\n      0x00\n        /* \"#utility.yul\":9035:9041   */\n      dup1\n        /* \"#utility.yul\":9084:9087   */\n      0x0140\n        /* \"#utility.yul\":9072:9081   */\n      dup12\n        /* \"#utility.yul\":9063:9070   */\n      dup14\n        /* \"#utility.yul\":9059:9082   */\n      sub\n        /* \"#utility.yul\":9055:9088   */\n      slt\n        /* \"#utility.yul\":9052:9172   */\n      iszero\n      tag_278\n      jumpi\n        /* \"#utility.yul\":9091:9170   */\n      tag_279\n      tag_134\n      jump\t// in\n    tag_279:\n        /* \"#utility.yul\":9052:9172   */\n    tag_278:\n        /* \"#utility.yul\":9211:9212   */\n      0x00\n        /* \"#utility.yul\":9236:9297   */\n      tag_280\n        /* \"#utility.yul\":9289:9296   */\n      dup14\n        /* \"#utility.yul\":9280:9286   */\n      dup3\n        /* \"#utility.yul\":9269:9278   */\n      dup15\n        /* \"#utility.yul\":9265:9287   */\n      add\n        /* \"#utility.yul\":9236:9297   */\n      tag_162\n      jump\t// in\n    tag_280:\n        /* \"#utility.yul\":9226:9297   */\n      swap11\n      pop\n        /* \"#utility.yul\":9182:9307   */\n      pop\n        /* \"#utility.yul\":9346:9348   */\n      0x20\n        /* \"#utility.yul\":9372:9433   */\n      tag_281\n        /* \"#utility.yul\":9425:9432   */\n      dup14\n        /* \"#utility.yul\":9416:9422   */\n      dup3\n        /* \"#utility.yul\":9405:9414   */\n      dup15\n        /* \"#utility.yul\":9401:9423   */\n      add\n        /* \"#utility.yul\":9372:9433   */\n      tag_162\n      jump\t// in\n    tag_281:\n        /* \"#utility.yul\":9362:9433   */\n      swap10\n      pop\n        /* \"#utility.yul\":9317:9443   */\n      pop\n        /* \"#utility.yul\":9482:9484   */\n      0x40\n        /* \"#utility.yul\":9508:9572   */\n      tag_282\n        /* \"#utility.yul\":9564:9571   */\n      dup14\n        /* \"#utility.yul\":9555:9561   */\n      dup3\n        /* \"#utility.yul\":9544:9553   */\n      dup15\n        /* \"#utility.yul\":9540:9562   */\n      add\n        /* \"#utility.yul\":9508:9572   */\n      tag_163\n      jump\t// in\n    tag_282:\n        /* \"#utility.yul\":9498:9572   */\n      swap9\n      pop\n        /* \"#utility.yul\":9453:9582   */\n      pop\n        /* \"#utility.yul\":9621:9623   */\n      0x60\n        /* \"#utility.yul\":9647:9711   */\n      tag_283\n        /* \"#utility.yul\":9703:9710   */\n      dup14\n        /* \"#utility.yul\":9694:9700   */\n      dup3\n        /* \"#utility.yul\":9683:9692   */\n      dup15\n        /* \"#utility.yul\":9679:9701   */\n      add\n        /* \"#utility.yul\":9647:9711   */\n      tag_163\n      jump\t// in\n    tag_283:\n        /* \"#utility.yul\":9637:9711   */\n      swap8\n      pop\n        /* \"#utility.yul\":9592:9721   */\n      pop\n        /* \"#utility.yul\":9760:9763   */\n      0x80\n        /* \"#utility.yul\":9787:9851   */\n      tag_284\n        /* \"#utility.yul\":9843:9850   */\n      dup14\n        /* \"#utility.yul\":9834:9840   */\n      dup3\n        /* \"#utility.yul\":9823:9832   */\n      dup15\n        /* \"#utility.yul\":9819:9841   */\n      add\n        /* \"#utility.yul\":9787:9851   */\n      tag_163\n      jump\t// in\n    tag_284:\n        /* \"#utility.yul\":9777:9851   */\n      swap7\n      pop\n        /* \"#utility.yul\":9731:9861   */\n      pop\n        /* \"#utility.yul\":9900:9903   */\n      0xa0\n        /* \"#utility.yul\":9927:9991   */\n      tag_285\n        /* \"#utility.yul\":9983:9990   */\n      dup14\n        /* \"#utility.yul\":9974:9980   */\n      dup3\n        /* \"#utility.yul\":9963:9972   */\n      dup15\n        /* \"#utility.yul\":9959:9981   */\n      add\n        /* \"#utility.yul\":9927:9991   */\n      tag_163\n      jump\t// in\n    tag_285:\n        /* \"#utility.yul\":9917:9991   */\n      swap6\n      pop\n        /* \"#utility.yul\":9871:10001   */\n      pop\n        /* \"#utility.yul\":10040:10043   */\n      0xc0\n        /* \"#utility.yul\":10067:10131   */\n      tag_286\n        /* \"#utility.yul\":10123:10130   */\n      dup14\n        /* \"#utility.yul\":10114:10120   */\n      dup3\n        /* \"#utility.yul\":10103:10112   */\n      dup15\n        /* \"#utility.yul\":10099:10121   */\n      add\n        /* \"#utility.yul\":10067:10131   */\n      tag_163\n      jump\t// in\n    tag_286:\n        /* \"#utility.yul\":10057:10131   */\n      swap5\n      pop\n        /* \"#utility.yul\":10011:10141   */\n      pop\n        /* \"#utility.yul\":10180:10183   */\n      0xe0\n        /* \"#utility.yul\":10207:10271   */\n      tag_287\n        /* \"#utility.yul\":10263:10270   */\n      dup14\n        /* \"#utility.yul\":10254:10260   */\n      dup3\n        /* \"#utility.yul\":10243:10252   */\n      dup15\n        /* \"#utility.yul\":10239:10261   */\n      add\n        /* \"#utility.yul\":10207:10271   */\n      tag_163\n      jump\t// in\n    tag_287:\n        /* \"#utility.yul\":10197:10271   */\n      swap4\n      pop\n        /* \"#utility.yul\":10151:10281   */\n      pop\n        /* \"#utility.yul\":10320:10323   */\n      0x0100\n        /* \"#utility.yul\":10347:10411   */\n      tag_288\n        /* \"#utility.yul\":10403:10410   */\n      dup14\n        /* \"#utility.yul\":10394:10400   */\n      dup3\n        /* \"#utility.yul\":10383:10392   */\n      dup15\n        /* \"#utility.yul\":10379:10401   */\n      add\n        /* \"#utility.yul\":10347:10411   */\n      tag_163\n      jump\t// in\n    tag_288:\n        /* \"#utility.yul\":10337:10411   */\n      swap3\n      pop\n        /* \"#utility.yul\":10291:10421   */\n      pop\n        /* \"#utility.yul\":10460:10463   */\n      0x0120\n        /* \"#utility.yul\":10487:10551   */\n      tag_289\n        /* \"#utility.yul\":10543:10550   */\n      dup14\n        /* \"#utility.yul\":10534:10540   */\n      dup3\n        /* \"#utility.yul\":10523:10532   */\n      dup15\n        /* \"#utility.yul\":10519:10541   */\n      add\n        /* \"#utility.yul\":10487:10551   */\n      tag_163\n      jump\t// in\n    tag_289:\n        /* \"#utility.yul\":10477:10551   */\n      swap2\n      pop\n        /* \"#utility.yul\":10431:10561   */\n      pop\n        /* \"#utility.yul\":8818:10568   */\n      swap3\n      swap6\n      swap9\n      swap12\n      swap2\n      swap5\n      swap8\n      swap11\n      pop\n      swap3\n      swap6\n      swap9\n      pop\n      jump\t// out\n        /* \"#utility.yul\":10574:10754   */\n    tag_164:\n        /* \"#utility.yul\":10622:10699   */\n      0x4e487b7100000000000000000000000000000000000000000000000000000000\n        /* \"#utility.yul\":10619:10620   */\n      0x00\n        /* \"#utility.yul\":10612:10700   */\n      mstore\n        /* \"#utility.yul\":10719:10723   */\n      0x22\n        /* \"#utility.yul\":10716:10717   */\n      0x04\n        /* \"#utility.yul\":10709:10724   */\n      mstore\n        /* \"#utility.yul\":10743:10747   */\n      0x24\n        /* \"#utility.yul\":10740:10741   */\n      0x00\n        /* \"#utility.yul\":10733:10748   */\n      revert\n        /* \"#utility.yul\":10760:11080   */\n    tag_59:\n        /* \"#utility.yul\":10804:10810   */\n      0x00\n        /* \"#utility.yul\":10841:10842   */\n      0x02\n        /* \"#utility.yul\":10835:10839   */\n      dup3\n        /* \"#utility.yul\":10831:10843   */\n      div\n        /* \"#utility.yul\":10821:10843   */\n      swap1\n      pop\n        /* \"#utility.yul\":10888:10889   */\n      0x01\n        /* \"#utility.yul\":10882:10886   */\n      dup3\n        /* \"#utility.yul\":10878:10890   */\n      and\n        /* \"#utility.yul\":10909:10927   */\n      dup1\n        /* \"#utility.yul\":10899:10980   */\n      tag_292\n      jumpi\n        /* \"#utility.yul\":10965:10969   */\n      0x7f\n        /* \"#utility.yul\":10957:10963   */\n      dup3\n        /* \"#utility.yul\":10953:10970   */\n      and\n        /* \"#utility.yul\":10943:10970   */\n      swap2\n      pop\n        /* \"#utility.yul\":10899:10980   */\n    tag_292:\n        /* \"#utility.yul\":11027:11029   */\n      0x20\n        /* \"#utility.yul\":11019:11025   */\n      dup3\n        /* \"#utility.yul\":11016:11030   */\n      lt\n        /* \"#utility.yul\":10996:11014   */\n      dup2\n        /* \"#utility.yul\":10993:11031   */\n      sub\n        /* \"#utility.yul\":10990:11074   */\n      tag_293\n      jumpi\n        /* \"#utility.yul\":11046:11064   */\n      tag_294\n      tag_164\n      jump\t// in\n    tag_294:\n        /* \"#utility.yul\":10990:11074   */\n    tag_293:\n        /* \"#utility.yul\":10811:11080   */\n      pop\n        /* \"#utility.yul\":10760:11080   */\n      swap2\n      swap1\n      pop\n      jump\t// out\n        /* \"#utility.yul\":11086:11266   */\n    tag_72:\n        /* \"#utility.yul\":11134:11211   */\n      0x4e487b7100000000000000000000000000000000000000000000000000000000\n        /* \"#utility.yul\":11131:11132   */\n      0x00\n        /* \"#utility.yul\":11124:11212   */\n      mstore\n        /* \"#utility.yul\":11231:11235   */\n      0x32\n        /* \"#utility.yul\":11228:11229   */\n      0x04\n        /* \"#utility.yul\":11221:11236   */\n      mstore\n        /* \"#utility.yul\":11255:11259   */\n      0x24\n        /* \"#utility.yul\":11252:11253   */\n      0x00\n        /* \"#utility.yul\":11245:11260   */\n      revert\n        /* \"#utility.yul\":11272:11452   */\n    tag_165:\n        /* \"#utility.yul\":11320:11397   */\n      0x4e487b7100000000000000000000000000000000000000000000000000000000\n        /* \"#utility.yul\":11317:11318   */\n      0x00\n        /* \"#utility.yul\":11310:11398   */\n      mstore\n        /* \"#utility.yul\":11417:11421   */\n      0x12\n        /* \"#utility.yul\":11414:11415   */\n      0x04\n        /* \"#utility.yul\":11407:11422   */\n      mstore\n        /* \"#utility.yul\":11441:11445   */\n      0x24\n        /* \"#utility.yul\":11438:11439   */\n      0x00\n        /* \"#utility.yul\":11431:11446   */\n      revert\n        /* \"#utility.yul\":11458:11634   */\n    tag_75:\n        /* \"#utility.yul\":11490:11491   */\n      0x00\n        /* \"#utility.yul\":11507:11527   */\n      tag_298\n        /* \"#utility.yul\":11525:11526   */\n      dup3\n        /* \"#utility.yul\":11507:11527   */\n      tag_136\n      jump\t// in\n    tag_298:\n        /* \"#utility.yul\":11502:11527   */\n      swap2\n      pop\n        /* \"#utility.yul\":11541:11561   */\n      tag_299\n        /* \"#utility.yul\":11559:11560   */\n      dup4\n        /* \"#utility.yul\":11541:11561   */\n      tag_136\n      jump\t// in\n    tag_299:\n        /* \"#utility.yul\":11536:11561   */\n      swap3\n      pop\n        /* \"#utility.yul\":11580:11581   */\n      dup3\n        /* \"#utility.yul\":11570:11605   */\n      tag_300\n      jumpi\n        /* \"#utility.yul\":11585:11603   */\n      tag_301\n      tag_165\n      jump\t// in\n    tag_301:\n        /* \"#utility.yul\":11570:11605   */\n    tag_300:\n        /* \"#utility.yul\":11626:11627   */\n      dup3\n        /* \"#utility.yul\":11623:11624   */\n      dup3\n        /* \"#utility.yul\":11619:11628   */\n      mod\n        /* \"#utility.yul\":11614:11628   */\n      swap1\n      pop\n        /* \"#utility.yul\":11458:11634   */\n      swap3\n      swap2\n      pop\n      pop\n      jump\t// out\n        /* \"#utility.yul\":11640:11820   */\n    tag_166:\n        /* \"#utility.yul\":11688:11765   */\n      0x4e487b7100000000000000000000000000000000000000000000000000000000\n        /* \"#utility.yul\":11685:11686   */\n      0x00\n        /* \"#utility.yul\":11678:11766   */\n      mstore\n        /* \"#utility.yul\":11785:11789   */\n      0x11\n        /* \"#utility.yul\":11782:11783   */\n      0x04\n        /* \"#utility.yul\":11775:11790   */\n      mstore\n        /* \"#utility.yul\":11809:11813   */\n      0x24\n        /* \"#utility.yul\":11806:11807   */\n      0x00\n        /* \"#utility.yul\":11799:11814   */\n      revert\n        /* \"#utility.yul\":11826:12131   */\n    tag_77:\n        /* \"#utility.yul\":11866:11869   */\n      0x00\n        /* \"#utility.yul\":11885:11905   */\n      tag_304\n        /* \"#utility.yul\":11903:11904   */\n      dup3\n        /* \"#utility.yul\":11885:11905   */\n      tag_136\n      jump\t// in\n    tag_304:\n        /* \"#utility.yul\":11880:11905   */\n      swap2\n      pop\n        /* \"#utility.yul\":11919:11939   */\n      tag_305\n        /* \"#utility.yul\":11937:11938   */\n      dup4\n        /* \"#utility.yul\":11919:11939   */\n      tag_136\n      jump\t// in\n    tag_305:\n        /* \"#utility.yul\":11914:11939   */\n      swap3\n      pop\n        /* \"#utility.yul\":12073:12074   */\n      dup3\n        /* \"#utility.yul\":12005:12071   */\n      0xffffffffffffffffffffffffffffffffffffffffffffffffffffffffffffffff\n        /* \"#utility.yul\":12001:12075   */\n      sub\n        /* \"#utility.yul\":11998:11999   */\n      dup3\n        /* \"#utility.yul\":11995:12076   */\n      gt\n        /* \"#utility.yul\":11992:12099   */\n      iszero\n      tag_306\n      jumpi\n        /* \"#utility.yul\":12079:12097   */\n      tag_307\n      tag_166\n      jump\t// in\n    tag_307:\n        /* \"#utility.yul\":11992:12099   */\n    tag_306:\n        /* \"#utility.yul\":12123:12124   */\n      dup3\n        /* \"#utility.yul\":12120:12121   */\n      dup3\n        /* \"#utility.yul\":12116:12125   */\n      add\n        /* \"#utility.yul\":12109:12125   */\n      swap1\n      pop\n        /* \"#utility.yul\":11826:12131   */\n      swap3\n      swap2\n      pop\n      pop\n      jump\t// out\n        /* \"#utility.yul\":12137:12322   */\n    tag_79:\n        /* \"#utility.yul\":12177:12178   */\n      0x00\n        /* \"#utility.yul\":12194:12214   */\n      tag_309\n        /* \"#utility.yul\":12212:12213   */\n      dup3\n        /* \"#utility.yul\":12194:12214   */\n      tag_136\n      jump\t// in\n    tag_309:\n        /* \"#utility.yul\":12189:12214   */\n      swap2\n      pop\n        /* \"#utility.yul\":12228:12248   */\n      tag_310\n        /* \"#utility.yul\":12246:12247   */\n      dup4\n        /* \"#utility.yul\":12228:12248   */\n      tag_136\n      jump\t// in\n    tag_310:\n        /* \"#utility.yul\":12223:12248   */\n      swap3\n      pop\n        /* \"#utility.yul\":12267:12268   */\n      dup3\n        /* \"#utility.yul\":12257:12292   */\n      tag_311\n      jumpi\n        /* \"#utility.yul\":12272:12290   */\n      tag_312\n      tag_165\n      jump\t// in\n    tag_312:\n        /* \"#utility.yul\":12257:12292   */\n    tag_311:\n        /* \"#utility.yul\":12314:12315   */\n      dup3\n        /* \"#utility.yul\":12311:12312   */\n      dup3\n        /* \"#utility.yul\":12307:12316   */\n      div\n        /* \"#utility.yul\":12302:12316   */\n      swap1\n      pop\n        /* \"#utility.yul\":12137:12322   */\n      swap3\n      swap2\n      pop\n      pop\n      jump\t// out\n        /* \"#utility.yul\":12328:12476   */\n    tag_167:\n        /* \"#utility.yul\":12430:12441   */\n      0x00\n        /* \"#utility.yul\":12467:12470   */\n      dup2\n        /* \"#utility.yul\":12452:12470   */\n      swap1\n      pop\n        /* \"#utility.yul\":12328:12476   */\n      swap3\n      swap2\n      pop\n      pop\n      jump\t// out\n        /* \"#utility.yul\":12482:12637   */\n    tag_168:\n        /* \"#utility.yul\":12622:12629   */\n      0x6b69747479000000000000000000000000000000000000000000000000000000\n        /* \"#utility.yul\":12618:12619   */\n      0x00\n        /* \"#utility.yul\":12610:12616   */\n      dup3\n        /* \"#utility.yul\":12606:12620   */\n      add\n        /* \"#utility.yul\":12599:12630   */\n      mstore\n        /* \"#utility.yul\":12482:12637   */\n      pop\n      jump\t// out\n        /* \"#utility.yul\":12643:13043   */\n    tag_169:\n        /* \"#utility.yul\":12803:12806   */\n      0x00\n        /* \"#utility.yul\":12824:12908   */\n      tag_316\n        /* \"#utility.yul\":12906:12907   */\n      0x05\n        /* \"#utility.yul\":12901:12904   */\n      dup4\n        /* \"#utility.yul\":12824:12908   */\n      tag_167\n      jump\t// in\n    tag_316:\n        /* \"#utility.yul\":12817:12908   */\n      swap2\n      pop\n        /* \"#utility.yul\":12917:13010   */\n      tag_317\n        /* \"#utility.yul\":13006:13009   */\n      dup3\n        /* \"#utility.yul\":12917:13010   */\n      tag_168\n      jump\t// in\n    tag_317:\n        /* \"#utility.yul\":13035:13036   */\n      0x05\n        /* \"#utility.yul\":13030:13033   */\n      dup3\n        /* \"#utility.yul\":13026:13037   */\n      add\n        /* \"#utility.yul\":13019:13037   */\n      swap1\n      pop\n        /* \"#utility.yul\":12643:13043   */\n      swap2\n      swap1\n      pop\n      jump\t// out\n        /* \"#utility.yul\":13049:13430   */\n    tag_81:\n        /* \"#utility.yul\":13234:13237   */\n      0x00\n        /* \"#utility.yul\":13256:13404   */\n      tag_319\n        /* \"#utility.yul\":13400:13403   */\n      dup3\n        /* \"#utility.yul\":13256:13404   */\n      tag_169\n      jump\t// in\n    tag_319:\n        /* \"#utility.yul\":13249:13404   */\n      swap2\n      pop\n        /* \"#utility.yul\":13421:13424   */\n      dup2\n        /* \"#utility.yul\":13414:13424   */\n      swap1\n      pop\n        /* \"#utility.yul\":13049:13430   */\n      swap2\n      swap1\n      pop\n      jump\t// out\n        /* \"#utility.yul\":13436:13813   */\n    tag_170:\n        /* \"#utility.yul\":13542:13545   */\n      0x00\n        /* \"#utility.yul\":13570:13609   */\n      tag_321\n        /* \"#utility.yul\":13603:13608   */\n      dup3\n        /* \"#utility.yul\":13570:13609   */\n      tag_140\n      jump\t// in\n    tag_321:\n        /* \"#utility.yul\":13625:13714   */\n      tag_322\n        /* \"#utility.yul\":13707:13713   */\n      dup2\n        /* \"#utility.yul\":13702:13705   */\n      dup6\n        /* \"#utility.yul\":13625:13714   */\n      tag_167\n      jump\t// in\n    tag_322:\n        /* \"#utility.yul\":13618:13714   */\n      swap4\n      pop\n        /* \"#utility.yul\":13723:13775   */\n      tag_323\n        /* \"#utility.yul\":13768:13774   */\n      dup2\n        /* \"#utility.yul\":13763:13766   */\n      dup6\n        /* \"#utility.yul\":13756:13760   */\n      0x20\n        /* \"#utility.yul\":13749:13754   */\n      dup7\n        /* \"#utility.yul\":13745:13761   */\n      add\n        /* \"#utility.yul\":13723:13775   */\n      tag_142\n      jump\t// in\n    tag_323:\n        /* \"#utility.yul\":13800:13806   */\n      dup1\n        /* \"#utility.yul\":13795:13798   */\n      dup5\n        /* \"#utility.yul\":13791:13807   */\n      add\n        /* \"#utility.yul\":13784:13807   */\n      swap2\n      pop\n        /* \"#utility.yul\":13546:13813   */\n      pop\n        /* \"#utility.yul\":13436:13813   */\n      swap3\n      swap2\n      pop\n      pop\n      jump\t// out\n        /* \"#utility.yul\":13819:14094   */\n    tag_83:\n        /* \"#utility.yul\":13951:13954   */\n      0x00\n        /* \"#utility.yul\":13973:14068   */\n      tag_325\n        /* \"#utility.yul\":14064:14067   */\n      dup3\n        /* \"#utility.yul\":14055:14061   */\n      dup5\n        /* \"#utility.yul\":13973:14068   */\n      tag_170\n      jump\t// in\n    tag_325:\n        /* \"#utility.yul\":13966:14068   */\n      swap2\n      pop\n        /* \"#utility.yul\":14085:14088   */\n      dup2\n        /* \"#utility.yul\":14078:14088   */\n      swap1\n      pop\n        /* \"#utility.yul\":13819:14094   */\n      swap3\n      swap2\n      pop\n      pop\n      jump\t// out\n        /* \"#utility.yul\":14100:14291   */\n    tag_87:\n        /* \"#utility.yul\":14140:14144   */\n      0x00\n        /* \"#utility.yul\":14160:14180   */\n      tag_327\n        /* \"#utility.yul\":14178:14179   */\n      dup3\n        /* \"#utility.yul\":14160:14180   */\n      tag_136\n      jump\t// in\n    tag_327:\n        /* \"#utility.yul\":14155:14180   */\n      swap2\n      pop\n        /* \"#utility.yul\":14194:14214   */\n      tag_328\n        /* \"#utility.yul\":14212:14213   */\n      dup4\n        /* \"#utility.yul\":14194:14214   */\n      tag_136\n      jump\t// in\n    tag_328:\n        /* \"#utility.yul\":14189:14214   */\n      swap3\n      pop\n        /* \"#utility.yul\":14233:14234   */\n      dup3\n        /* \"#utility.yul\":14230:14231   */\n      dup3\n        /* \"#utility.yul\":14227:14235   */\n      lt\n        /* \"#utility.yul\":14224:14258   */\n      iszero\n      tag_329\n      jumpi\n        /* \"#utility.yul\":14238:14256   */\n      tag_330\n      tag_166\n      jump\t// in\n    tag_330:\n        /* \"#utility.yul\":14224:14258   */\n    tag_329:\n        /* \"#utility.yul\":14283:14284   */\n      dup3\n        /* \"#utility.yul\":14280:14281   */\n      dup3\n        /* \"#utility.yul\":14276:14285   */\n      sub\n        /* \"#utility.yul\":14268:14285   */\n      swap1\n      pop\n        /* \"#utility.yul\":14100:14291   */\n      swap3\n      swap2\n      pop\n      pop\n      jump\t// out\n        /* \"#utility.yul\":14297:14530   */\n    tag_114:\n        /* \"#utility.yul\":14336:14339   */\n      0x00\n        /* \"#utility.yul\":14359:14383   */\n      tag_332\n        /* \"#utility.yul\":14377:14382   */\n      dup3\n        /* \"#utility.yul\":14359:14383   */\n      tag_136\n      jump\t// in\n    tag_332:\n        /* \"#utility.yul\":14350:14383   */\n      swap2\n      pop\n        /* \"#utility.yul\":14405:14471   */\n      0xffffffffffffffffffffffffffffffffffffffffffffffffffffffffffffffff\n        /* \"#utility.yul\":14398:14403   */\n      dup3\n        /* \"#utility.yul\":14395:14472   */\n      sub\n        /* \"#utility.yul\":14392:14495   */\n      tag_333\n      jumpi\n        /* \"#utility.yul\":14475:14493   */\n      tag_334\n      tag_166\n      jump\t// in\n    tag_334:\n        /* \"#utility.yul\":14392:14495   */\n    tag_333:\n        /* \"#utility.yul\":14522:14523   */\n      0x01\n        /* \"#utility.yul\":14515:14520   */\n      dup3\n        /* \"#utility.yul\":14511:14524   */\n      add\n        /* \"#utility.yul\":14504:14524   */\n      swap1\n      pop\n        /* \"#utility.yul\":14297:14530   */\n      swap2\n      swap1\n      pop\n      jump\t// out\n        /* \"#utility.yul\":14536:15069   */\n    tag_117:\n        /* \"#utility.yul\":14705:14709   */\n      0x00\n        /* \"#utility.yul\":14743:14745   */\n      0x60\n        /* \"#utility.yul\":14732:14741   */\n      dup3\n        /* \"#utility.yul\":14728:14746   */\n      add\n        /* \"#utility.yul\":14720:14746   */\n      swap1\n      pop\n        /* \"#utility.yul\":14756:14827   */\n      tag_336\n        /* \"#utility.yul\":14824:14825   */\n      0x00\n        /* \"#utility.yul\":14813:14822   */\n      dup4\n        /* \"#utility.yul\":14809:14826   */\n      add\n        /* \"#utility.yul\":14800:14806   */\n      dup7\n        /* \"#utility.yul\":14756:14827   */\n      tag_139\n      jump\t// in\n    tag_336:\n        /* \"#utility.yul\":14874:14883   */\n      dup2\n        /* \"#utility.yul\":14868:14872   */\n      dup2\n        /* \"#utility.yul\":14864:14884   */\n      sub\n        /* \"#utility.yul\":14859:14861   */\n      0x20\n        /* \"#utility.yul\":14848:14857   */\n      dup4\n        /* \"#utility.yul\":14844:14862   */\n      add\n        /* \"#utility.yul\":14837:14885   */\n      mstore\n        /* \"#utility.yul\":14902:14980   */\n      tag_337\n        /* \"#utility.yul\":14975:14979   */\n      dup2\n        /* \"#utility.yul\":14966:14972   */\n      dup6\n        /* \"#utility.yul\":14902:14980   */\n      tag_144\n      jump\t// in\n    tag_337:\n        /* \"#utility.yul\":14894:14980   */\n      swap1\n      pop\n        /* \"#utility.yul\":14990:15062   */\n      tag_338\n        /* \"#utility.yul\":15058:15060   */\n      0x40\n        /* \"#utility.yul\":15047:15056   */\n      dup4\n        /* \"#utility.yul\":15043:15061   */\n      add\n        /* \"#utility.yul\":15034:15040   */\n      dup5\n        /* \"#utility.yul\":14990:15062   */\n      tag_139\n      jump\t// in\n    tag_338:\n        /* \"#utility.yul\":14536:15069   */\n      swap5\n      swap4\n      pop\n      pop\n      pop\n      pop\n      jump\t// out\n\n    auxdata: 0xa26469706673582212207532f98a348de916aea3bc46f572d41feea9d66749f17d8f637ac4f84203b29864736f6c634300080e0033\n}\n",
				"bytecode": {
					"linkReferences": {},
					"object": "60806040526010600155600154600a6200001a919062000279565b6002553480156200002a57600080fd5b50336000806101000a81548173ffffffffffffffffffffffffffffffffffffffff021916908373ffffffffffffffffffffffffffffffffffffffff16021790555060008054906101000a900473ffffffffffffffffffffffffffffffffffffffff1673ffffffffffffffffffffffffffffffffffffffff16600073ffffffffffffffffffffffffffffffffffffffff167f8be0079c531659141344cd1fd0a4f28419497f9722a3daafe3b4186f6b6457e060405160405180910390a3620002ca565b7f4e487b7100000000000000000000000000000000000000000000000000000000600052601160045260246000fd5b60008160011c9050919050565b6000808291508390505b60018511156200017a57808604811115620001525762000151620000ec565b5b6001851615620001625780820291505b808102905062000172856200011b565b945062000132565b94509492505050565b60008262000195576001905062000268565b81620001a5576000905062000268565b8160018114620001be5760028114620001c957620001ff565b600191505062000268565b60ff841115620001de57620001dd620000ec565b5b8360020a915084821115620001f857620001f7620000ec565b5b5062000268565b5060208310610133831016604e8410600b8410161715620002395782820a905083811115620002335762000232620000ec565b5b62000268565b62000248848484600162000128565b92509050818404811115620002625762000261620000ec565b5b81810290505b9392505050565b6000819050919050565b600062000286826200026f565b915062000293836200026f565b9250620002c27fffffffffffffffffffffffffffffffffffffffffffffffffffffffffffffffff848462000183565b905092915050565b61133780620002da6000396000f3fe608060405234801561001057600080fd5b50600436106100935760003560e01c8063715018a611610066578063715018a61461011d5780638da5cb5b146101275780638f32d59b14610145578063c6f1511214610163578063f2fde38b1461017f57610093565b806317a7f4cc146100985780632052465e146100b45780635f4623f1146100e55780636b0bfc8014610101575b600080fd5b6100b260048036038101906100ad9190610a96565b61019b565b005b6100ce60048036038101906100c99190610ad6565b6102b9565b6040516100dc929190610bab565b60405180910390f35b6100ff60048036038101906100fa9190610c39565b610375565b005b61011b60048036038101906101169190610d9b565b6103ca565b005b61012561052a565b005b61012f6105f9565b60405161013c9190610e19565b60405180910390f35b61014d610622565b60405161015a9190610e4f565b60405180910390f35b61017d60048036038101906101789190610e6a565b610679565b005b61019960048036038101906101949190610c39565b6106e0565b005b6000600660009054906101000a900473ffffffffffffffffffffffffffffffffffffffff1673ffffffffffffffffffffffffffffffffffffffff1663e98b7f4d836040518263ffffffff1660e01b81526004016101f89190610eb3565b61014060405180830381865afa158015610216573d6000803e3d6000fd5b505050506040513d601f19601f8201168201806040525081019061023a9190610f0f565b909192939495969798509091929394959697509091929394959650909192939495509091929394509091929350909192509091509050809150506102b483826040518060400160405280600581526020017f6b697474790000000000000000000000000000000000000000000000000000008152506103ca565b505050565b600381815481106102c957600080fd5b90600052602060002090600202016000915090508060000154908060010180546102f29061101d565b80601f016020809104026020016040519081016040528092919081815260200182805461031e9061101d565b801561036b5780601f106103405761010080835404028352916020019161036b565b820191906000526020600020905b81548152906001019060200180831161034e57829003601f168201915b5050505050905082565b61037d610622565b61038657600080fd5b80600660006101000a81548173ffffffffffffffffffffffffffffffffffffffff021916908373ffffffffffffffffffffffffffffffffffffffff16021790555050565b6000600560003373ffffffffffffffffffffffffffffffffffffffff1673ffffffffffffffffffffffffffffffffffffffff168152602001908152602001600020541461041657600080fd5b60006003848154811061042c5761042b61104e565b5b906000526020600020906002020190506002548361044a91906110ac565b925060006002826000015485610460919061110c565b61046a9190611162565b905060405160200161047b906111ea565b60405160208183030381529060405280519060200120836040516020016104a29190611230565b60405160208183030381529060405280519060200120036104e45760636064826104cc91906110ac565b826104d79190611247565b6104e1919061110c565b90505b6105236040518060400160405280600681526020017f4e6f4e616d650000000000000000000000000000000000000000000000000000815250826106fd565b5050505050565b610532610622565b61053b57600080fd5b600073ffffffffffffffffffffffffffffffffffffffff1660008054906101000a900473ffffffffffffffffffffffffffffffffffffffff1673ffffffffffffffffffffffffffffffffffffffff167f8be0079c531659141344cd1fd0a4f28419497f9722a3daafe3b4186f6b6457e060405160405180910390a360008060006101000a81548173ffffffffffffffffffffffffffffffffffffffff021916908373ffffffffffffffffffffffffffffffffffffffff160217905550565b60008060009054906101000a900473ffffffffffffffffffffffffffffffffffffffff16905090565b60008060009054906101000a900473ffffffffffffffffffffffffffffffffffffffff1673ffffffffffffffffffffffffffffffffffffffff163373ffffffffffffffffffffffffffffffffffffffff1614905090565b6000600560003373ffffffffffffffffffffffffffffffffffffffff1673ffffffffffffffffffffffffffffffffffffffff16815260200190815260200160002054146106c557600080fd5b60006106d08261086e565b90506106dc82826106fd565b5050565b6106e8610622565b6106f157600080fd5b6106fa816108b3565b50565b600360405180604001604052808381526020018481525090806001815401808255809150506001900390600052602060002090600202016000909190919091506000820151816000015560208201518160010190805190602001906107639291906109a9565b5050503360046000600160038054905061077d9190611247565b815260200190815260200160002060006101000a81548173ffffffffffffffffffffffffffffffffffffffff021916908373ffffffffffffffffffffffffffffffffffffffff160217905550600560003373ffffffffffffffffffffffffffffffffffffffff1673ffffffffffffffffffffffffffffffffffffffff16815260200190815260200160002060008154809291906108199061127b565b91905055507f88f026aacbbecc90c18411df4b1185fd8d9be2470f1962f192bf84a27d0704b760016003805490506108519190611247565b8383604051610862939291906112c3565b60405180910390a15050565b600080826040516020016108829190611230565b6040516020818303038152906040528051906020012060001c9050600254816108ab91906110ac565b915050919050565b600073ffffffffffffffffffffffffffffffffffffffff168173ffffffffffffffffffffffffffffffffffffffff16036108ec57600080fd5b8073ffffffffffffffffffffffffffffffffffffffff1660008054906101000a900473ffffffffffffffffffffffffffffffffffffffff1673ffffffffffffffffffffffffffffffffffffffff167f8be0079c531659141344cd1fd0a4f28419497f9722a3daafe3b4186f6b6457e060405160405180910390a3806000806101000a81548173ffffffffffffffffffffffffffffffffffffffff021916908373ffffffffffffffffffffffffffffffffffffffff16021790555050565b8280546109b59061101d565b90600052602060002090601f0160209004810192826109d75760008555610a1e565b82601f106109f057805160ff1916838001178555610a1e565b82800160010185558215610a1e579182015b82811115610a1d578251825591602001919060010190610a02565b5b509050610a2b9190610a2f565b5090565b5b80821115610a48576000816000905550600101610a30565b5090565b6000604051905090565b600080fd5b600080fd5b6000819050919050565b610a7381610a60565b8114610a7e57600080fd5b50565b600081359050610a9081610a6a565b92915050565b60008060408385031215610aad57610aac610a56565b5b6000610abb85828601610a81565b9250506020610acc85828601610a81565b9150509250929050565b600060208284031215610aec57610aeb610a56565b5b6000610afa84828501610a81565b91505092915050565b610b0c81610a60565b82525050565b600081519050919050565b600082825260208201905092915050565b60005b83811015610b4c578082015181840152602081019050610b31565b83811115610b5b576000848401525b50505050565b6000601f19601f8301169050919050565b6000610b7d82610b12565b610b878185610b1d565b9350610b97818560208601610b2e565b610ba081610b61565b840191505092915050565b6000604082019050610bc06000830185610b03565b8181036020830152610bd28184610b72565b90509392505050565b600073ffffffffffffffffffffffffffffffffffffffff82169050919050565b6000610c0682610bdb565b9050919050565b610c1681610bfb565b8114610c2157600080fd5b50565b600081359050610c3381610c0d565b92915050565b600060208284031215610c4f57610c4e610a56565b5b6000610c5d84828501610c24565b91505092915050565b600080fd5b600080fd5b7f4e487b7100000000000000000000000000000000000000000000000000000000600052604160045260246000fd5b610ca882610b61565b810181811067ffffffffffffffff82111715610cc757610cc6610c70565b5b80604052505050565b6000610cda610a4c565b9050610ce68282610c9f565b919050565b600067ffffffffffffffff821115610d0657610d05610c70565b5b610d0f82610b61565b9050602081019050919050565b82818337600083830152505050565b6000610d3e610d3984610ceb565b610cd0565b905082815260208101848484011115610d5a57610d59610c6b565b5b610d65848285610d1c565b509392505050565b600082601f830112610d8257610d81610c66565b5b8135610d92848260208601610d2b565b91505092915050565b600080600060608486031215610db457610db3610a56565b5b6000610dc286828701610a81565b9350506020610dd386828701610a81565b925050604084013567ffffffffffffffff811115610df457610df3610a5b565b5b610e0086828701610d6d565b9150509250925092565b610e1381610bfb565b82525050565b6000602082019050610e2e6000830184610e0a565b92915050565b60008115159050919050565b610e4981610e34565b82525050565b6000602082019050610e646000830184610e40565b92915050565b600060208284031215610e8057610e7f610a56565b5b600082013567ffffffffffffffff811115610e9e57610e9d610a5b565b5b610eaa84828501610d6d565b91505092915050565b6000602082019050610ec86000830184610b03565b92915050565b610ed781610e34565b8114610ee257600080fd5b50565b600081519050610ef481610ece565b92915050565b600081519050610f0981610a6a565b92915050565b6000806000806000806000806000806101408b8d031215610f3357610f32610a56565b5b6000610f418d828e01610ee5565b9a50506020610f528d828e01610ee5565b9950506040610f638d828e01610efa565b9850506060610f748d828e01610efa565b9750506080610f858d828e01610efa565b96505060a0610f968d828e01610efa565b95505060c0610fa78d828e01610efa565b94505060e0610fb88d828e01610efa565b935050610100610fca8d828e01610efa565b925050610120610fdc8d828e01610efa565b9150509295989b9194979a5092959850565b7f4e487b7100000000000000000000000000000000000000000000000000000000600052602260045260246000fd5b6000600282049050600182168061103557607f821691505b60208210810361104857611047610fee565b5b50919050565b7f4e487b7100000000000000000000000000000000000000000000000000000000600052603260045260246000fd5b7f4e487b7100000000000000000000000000000000000000000000000000000000600052601260045260246000fd5b60006110b782610a60565b91506110c283610a60565b9250826110d2576110d161107d565b5b828206905092915050565b7f4e487b7100000000000000000000000000000000000000000000000000000000600052601160045260246000fd5b600061111782610a60565b915061112283610a60565b9250827fffffffffffffffffffffffffffffffffffffffffffffffffffffffffffffffff03821115611157576111566110dd565b5b828201905092915050565b600061116d82610a60565b915061117883610a60565b9250826111885761118761107d565b5b828204905092915050565b600081905092915050565b7f6b69747479000000000000000000000000000000000000000000000000000000600082015250565b60006111d4600583611193565b91506111df8261119e565b600582019050919050565b60006111f5826111c7565b9150819050919050565b600061120a82610b12565b6112148185611193565b9350611224818560208601610b2e565b80840191505092915050565b600061123c82846111ff565b915081905092915050565b600061125282610a60565b915061125d83610a60565b9250828210156112705761126f6110dd565b5b828203905092915050565b600061128682610a60565b91507fffffffffffffffffffffffffffffffffffffffffffffffffffffffffffffffff82036112b8576112b76110dd565b5b600182019050919050565b60006060820190506112d86000830186610b03565b81810360208301526112ea8185610b72565b90506112f96040830184610b03565b94935050505056fea26469706673582212207532f98a348de916aea3bc46f572d41feea9d66749f17d8f637ac4f84203b29864736f6c634300080e0033",
					"opcodes": "PUSH1 0x80 PUSH1 0x40 MSTORE PUSH1 0x10 PUSH1 0x1 SSTORE PUSH1 0x1 SLOAD PUSH1 0xA PUSH3 0x1A SWAP2 SWAP1 PUSH3 0x279 JUMP JUMPDEST PUSH1 0x2 SSTORE CALLVALUE DUP1 ISZERO PUSH3 0x2A JUMPI PUSH1 0x0 DUP1 REVERT JUMPDEST POP CALLER PUSH1 0x0 DUP1 PUSH2 0x100 EXP DUP2 SLOAD DUP2 PUSH20 0xFFFFFFFFFFFFFFFFFFFFFFFFFFFFFFFFFFFFFFFF MUL NOT AND SWAP1 DUP4 PUSH20 0xFFFFFFFFFFFFFFFFFFFFFFFFFFFFFFFFFFFFFFFF AND MUL OR SWAP1 SSTORE POP PUSH1 0x0 DUP1 SLOAD SWAP1 PUSH2 0x100 EXP SWAP1 DIV PUSH20 0xFFFFFFFFFFFFFFFFFFFFFFFFFFFFFFFFFFFFFFFF AND PUSH20 0xFFFFFFFFFFFFFFFFFFFFFFFFFFFFFFFFFFFFFFFF AND PUSH1 0x0 PUSH20 0xFFFFFFFFFFFFFFFFFFFFFFFFFFFFFFFFFFFFFFFF AND PUSH32 0x8BE0079C531659141344CD1FD0A4F28419497F9722A3DAAFE3B4186F6B6457E0 PUSH1 0x40 MLOAD PUSH1 0x40 MLOAD DUP1 SWAP2 SUB SWAP1 LOG3 PUSH3 0x2CA JUMP JUMPDEST PUSH32 0x4E487B7100000000000000000000000000000000000000000000000000000000 PUSH1 0x0 MSTORE PUSH1 0x11 PUSH1 0x4 MSTORE PUSH1 0x24 PUSH1 0x0 REVERT JUMPDEST PUSH1 0x0 DUP2 PUSH1 0x1 SHR SWAP1 POP SWAP2 SWAP1 POP JUMP JUMPDEST PUSH1 0x0 DUP1 DUP3 SWAP2 POP DUP4 SWAP1 POP JUMPDEST PUSH1 0x1 DUP6 GT ISZERO PUSH3 0x17A JUMPI DUP1 DUP7 DIV DUP2 GT ISZERO PUSH3 0x152 JUMPI PUSH3 0x151 PUSH3 0xEC JUMP JUMPDEST JUMPDEST PUSH1 0x1 DUP6 AND ISZERO PUSH3 0x162 JUMPI DUP1 DUP3 MUL SWAP2 POP JUMPDEST DUP1 DUP2 MUL SWAP1 POP PUSH3 0x172 DUP6 PUSH3 0x11B JUMP JUMPDEST SWAP5 POP PUSH3 0x132 JUMP JUMPDEST SWAP5 POP SWAP5 SWAP3 POP POP POP JUMP JUMPDEST PUSH1 0x0 DUP3 PUSH3 0x195 JUMPI PUSH1 0x1 SWAP1 POP PUSH3 0x268 JUMP JUMPDEST DUP2 PUSH3 0x1A5 JUMPI PUSH1 0x0 SWAP1 POP PUSH3 0x268 JUMP JUMPDEST DUP2 PUSH1 0x1 DUP2 EQ PUSH3 0x1BE JUMPI PUSH1 0x2 DUP2 EQ PUSH3 0x1C9 JUMPI PUSH3 0x1FF JUMP JUMPDEST PUSH1 0x1 SWAP2 POP POP PUSH3 0x268 JUMP JUMPDEST PUSH1 0xFF DUP5 GT ISZERO PUSH3 0x1DE JUMPI PUSH3 0x1DD PUSH3 0xEC JUMP JUMPDEST JUMPDEST DUP4 PUSH1 0x2 EXP SWAP2 POP DUP5 DUP3 GT ISZERO PUSH3 0x1F8 JUMPI PUSH3 0x1F7 PUSH3 0xEC JUMP JUMPDEST JUMPDEST POP PUSH3 0x268 JUMP JUMPDEST POP PUSH1 0x20 DUP4 LT PUSH2 0x133 DUP4 LT AND PUSH1 0x4E DUP5 LT PUSH1 0xB DUP5 LT AND OR ISZERO PUSH3 0x239 JUMPI DUP3 DUP3 EXP SWAP1 POP DUP4 DUP2 GT ISZERO PUSH3 0x233 JUMPI PUSH3 0x232 PUSH3 0xEC JUMP JUMPDEST JUMPDEST PUSH3 0x268 JUMP JUMPDEST PUSH3 0x248 DUP5 DUP5 DUP5 PUSH1 0x1 PUSH3 0x128 JUMP JUMPDEST SWAP3 POP SWAP1 POP DUP2 DUP5 DIV DUP2 GT ISZERO PUSH3 0x262 JUMPI PUSH3 0x261 PUSH3 0xEC JUMP JUMPDEST JUMPDEST DUP2 DUP2 MUL SWAP1 POP JUMPDEST SWAP4 SWAP3 POP POP POP JUMP JUMPDEST PUSH1 0x0 DUP2 SWAP1 POP SWAP2 SWAP1 POP JUMP JUMPDEST PUSH1 0x0 PUSH3 0x286 DUP3 PUSH3 0x26F JUMP JUMPDEST SWAP2 POP PUSH3 0x293 DUP4 PUSH3 0x26F JUMP JUMPDEST SWAP3 POP PUSH3 0x2C2 PUSH32 0xFFFFFFFFFFFFFFFFFFFFFFFFFFFFFFFFFFFFFFFFFFFFFFFFFFFFFFFFFFFFFFFF DUP5 DUP5 PUSH3 0x183 JUMP JUMPDEST SWAP1 POP SWAP3 SWAP2 POP POP JUMP JUMPDEST PUSH2 0x1337 DUP1 PUSH3 0x2DA PUSH1 0x0 CODECOPY PUSH1 0x0 RETURN INVALID PUSH1 0x80 PUSH1 0x40 MSTORE CALLVALUE DUP1 ISZERO PUSH2 0x10 JUMPI PUSH1 0x0 DUP1 REVERT JUMPDEST POP PUSH1 0x4 CALLDATASIZE LT PUSH2 0x93 JUMPI PUSH1 0x0 CALLDATALOAD PUSH1 0xE0 SHR DUP1 PUSH4 0x715018A6 GT PUSH2 0x66 JUMPI DUP1 PUSH4 0x715018A6 EQ PUSH2 0x11D JUMPI DUP1 PUSH4 0x8DA5CB5B EQ PUSH2 0x127 JUMPI DUP1 PUSH4 0x8F32D59B EQ PUSH2 0x145 JUMPI DUP1 PUSH4 0xC6F15112 EQ PUSH2 0x163 JUMPI DUP1 PUSH4 0xF2FDE38B EQ PUSH2 0x17F JUMPI PUSH2 0x93 JUMP JUMPDEST DUP1 PUSH4 0x17A7F4CC EQ PUSH2 0x98 JUMPI DUP1 PUSH4 0x2052465E EQ PUSH2 0xB4 JUMPI DUP1 PUSH4 0x5F4623F1 EQ PUSH2 0xE5 JUMPI DUP1 PUSH4 0x6B0BFC80 EQ PUSH2 0x101 JUMPI JUMPDEST PUSH1 0x0 DUP1 REVERT JUMPDEST PUSH2 0xB2 PUSH1 0x4 DUP1 CALLDATASIZE SUB DUP2 ADD SWAP1 PUSH2 0xAD SWAP2 SWAP1 PUSH2 0xA96 JUMP JUMPDEST PUSH2 0x19B JUMP JUMPDEST STOP JUMPDEST PUSH2 0xCE PUSH1 0x4 DUP1 CALLDATASIZE SUB DUP2 ADD SWAP1 PUSH2 0xC9 SWAP2 SWAP1 PUSH2 0xAD6 JUMP JUMPDEST PUSH2 0x2B9 JUMP JUMPDEST PUSH1 0x40 MLOAD PUSH2 0xDC SWAP3 SWAP2 SWAP1 PUSH2 0xBAB JUMP JUMPDEST PUSH1 0x40 MLOAD DUP1 SWAP2 SUB SWAP1 RETURN JUMPDEST PUSH2 0xFF PUSH1 0x4 DUP1 CALLDATASIZE SUB DUP2 ADD SWAP1 PUSH2 0xFA SWAP2 SWAP1 PUSH2 0xC39 JUMP JUMPDEST PUSH2 0x375 JUMP JUMPDEST STOP JUMPDEST PUSH2 0x11B PUSH1 0x4 DUP1 CALLDATASIZE SUB DUP2 ADD SWAP1 PUSH2 0x116 SWAP2 SWAP1 PUSH2 0xD9B JUMP JUMPDEST PUSH2 0x3CA JUMP JUMPDEST STOP JUMPDEST PUSH2 0x125 PUSH2 0x52A JUMP JUMPDEST STOP JUMPDEST PUSH2 0x12F PUSH2 0x5F9 JUMP JUMPDEST PUSH1 0x40 MLOAD PUSH2 0x13C SWAP2 SWAP1 PUSH2 0xE19 JUMP JUMPDEST PUSH1 0x40 MLOAD DUP1 SWAP2 SUB SWAP1 RETURN JUMPDEST PUSH2 0x14D PUSH2 0x622 JUMP JUMPDEST PUSH1 0x40 MLOAD PUSH2 0x15A SWAP2 SWAP1 PUSH2 0xE4F JUMP JUMPDEST PUSH1 0x40 MLOAD DUP1 SWAP2 SUB SWAP1 RETURN JUMPDEST PUSH2 0x17D PUSH1 0x4 DUP1 CALLDATASIZE SUB DUP2 ADD SWAP1 PUSH2 0x178 SWAP2 SWAP1 PUSH2 0xE6A JUMP JUMPDEST PUSH2 0x679 JUMP JUMPDEST STOP JUMPDEST PUSH2 0x199 PUSH1 0x4 DUP1 CALLDATASIZE SUB DUP2 ADD SWAP1 PUSH2 0x194 SWAP2 SWAP1 PUSH2 0xC39 JUMP JUMPDEST PUSH2 0x6E0 JUMP JUMPDEST STOP JUMPDEST PUSH1 0x0 PUSH1 0x6 PUSH1 0x0 SWAP1 SLOAD SWAP1 PUSH2 0x100 EXP SWAP1 DIV PUSH20 0xFFFFFFFFFFFFFFFFFFFFFFFFFFFFFFFFFFFFFFFF AND PUSH20 0xFFFFFFFFFFFFFFFFFFFFFFFFFFFFFFFFFFFFFFFF AND PUSH4 0xE98B7F4D DUP4 PUSH1 0x40 MLOAD DUP3 PUSH4 0xFFFFFFFF AND PUSH1 0xE0 SHL DUP2 MSTORE PUSH1 0x4 ADD PUSH2 0x1F8 SWAP2 SWAP1 PUSH2 0xEB3 JUMP JUMPDEST PUSH2 0x140 PUSH1 0x40 MLOAD DUP1 DUP4 SUB DUP2 DUP7 GAS STATICCALL ISZERO DUP1 ISZERO PUSH2 0x216 JUMPI RETURNDATASIZE PUSH1 0x0 DUP1 RETURNDATACOPY RETURNDATASIZE PUSH1 0x0 REVERT JUMPDEST POP POP POP POP PUSH1 0x40 MLOAD RETURNDATASIZE PUSH1 0x1F NOT PUSH1 0x1F DUP3 ADD AND DUP3 ADD DUP1 PUSH1 0x40 MSTORE POP DUP2 ADD SWAP1 PUSH2 0x23A SWAP2 SWAP1 PUSH2 0xF0F JUMP JUMPDEST SWAP1 SWAP2 SWAP3 SWAP4 SWAP5 SWAP6 SWAP7 SWAP8 SWAP9 POP SWAP1 SWAP2 SWAP3 SWAP4 SWAP5 SWAP6 SWAP7 SWAP8 POP SWAP1 SWAP2 SWAP3 SWAP4 SWAP5 SWAP6 SWAP7 POP SWAP1 SWAP2 SWAP3 SWAP4 SWAP5 SWAP6 POP SWAP1 SWAP2 SWAP3 SWAP4 SWAP5 POP SWAP1 SWAP2 SWAP3 SWAP4 POP SWAP1 SWAP2 SWAP3 POP SWAP1 SWAP2 POP SWAP1 POP DUP1 SWAP2 POP POP PUSH2 0x2B4 DUP4 DUP3 PUSH1 0x40 MLOAD DUP1 PUSH1 0x40 ADD PUSH1 0x40 MSTORE DUP1 PUSH1 0x5 DUP2 MSTORE PUSH1 0x20 ADD PUSH32 0x6B69747479000000000000000000000000000000000000000000000000000000 DUP2 MSTORE POP PUSH2 0x3CA JUMP JUMPDEST POP POP POP JUMP JUMPDEST PUSH1 0x3 DUP2 DUP2 SLOAD DUP2 LT PUSH2 0x2C9 JUMPI PUSH1 0x0 DUP1 REVERT JUMPDEST SWAP1 PUSH1 0x0 MSTORE PUSH1 0x20 PUSH1 0x0 KECCAK256 SWAP1 PUSH1 0x2 MUL ADD PUSH1 0x0 SWAP2 POP SWAP1 POP DUP1 PUSH1 0x0 ADD SLOAD SWAP1 DUP1 PUSH1 0x1 ADD DUP1 SLOAD PUSH2 0x2F2 SWAP1 PUSH2 0x101D JUMP JUMPDEST DUP1 PUSH1 0x1F ADD PUSH1 0x20 DUP1 SWAP2 DIV MUL PUSH1 0x20 ADD PUSH1 0x40 MLOAD SWAP1 DUP2 ADD PUSH1 0x40 MSTORE DUP1 SWAP3 SWAP2 SWAP1 DUP2 DUP2 MSTORE PUSH1 0x20 ADD DUP3 DUP1 SLOAD PUSH2 0x31E SWAP1 PUSH2 0x101D JUMP JUMPDEST DUP1 ISZERO PUSH2 0x36B JUMPI DUP1 PUSH1 0x1F LT PUSH2 0x340 JUMPI PUSH2 0x100 DUP1 DUP4 SLOAD DIV MUL DUP4 MSTORE SWAP2 PUSH1 0x20 ADD SWAP2 PUSH2 0x36B JUMP JUMPDEST DUP3 ADD SWAP2 SWAP1 PUSH1 0x0 MSTORE PUSH1 0x20 PUSH1 0x0 KECCAK256 SWAP1 JUMPDEST DUP2 SLOAD DUP2 MSTORE SWAP1 PUSH1 0x1 ADD SWAP1 PUSH1 0x20 ADD DUP1 DUP4 GT PUSH2 0x34E JUMPI DUP3 SWAP1 SUB PUSH1 0x1F AND DUP3 ADD SWAP2 JUMPDEST POP POP POP POP POP SWAP1 POP DUP3 JUMP JUMPDEST PUSH2 0x37D PUSH2 0x622 JUMP JUMPDEST PUSH2 0x386 JUMPI PUSH1 0x0 DUP1 REVERT JUMPDEST DUP1 PUSH1 0x6 PUSH1 0x0 PUSH2 0x100 EXP DUP2 SLOAD DUP2 PUSH20 0xFFFFFFFFFFFFFFFFFFFFFFFFFFFFFFFFFFFFFFFF MUL NOT AND SWAP1 DUP4 PUSH20 0xFFFFFFFFFFFFFFFFFFFFFFFFFFFFFFFFFFFFFFFF AND MUL OR SWAP1 SSTORE POP POP JUMP JUMPDEST PUSH1 0x0 PUSH1 0x5 PUSH1 0x0 CALLER PUSH20 0xFFFFFFFFFFFFFFFFFFFFFFFFFFFFFFFFFFFFFFFF AND PUSH20 0xFFFFFFFFFFFFFFFFFFFFFFFFFFFFFFFFFFFFFFFF AND DUP2 MSTORE PUSH1 0x20 ADD SWAP1 DUP2 MSTORE PUSH1 0x20 ADD PUSH1 0x0 KECCAK256 SLOAD EQ PUSH2 0x416 JUMPI PUSH1 0x0 DUP1 REVERT JUMPDEST PUSH1 0x0 PUSH1 0x3 DUP5 DUP2 SLOAD DUP2 LT PUSH2 0x42C JUMPI PUSH2 0x42B PUSH2 0x104E JUMP JUMPDEST JUMPDEST SWAP1 PUSH1 0x0 MSTORE PUSH1 0x20 PUSH1 0x0 KECCAK256 SWAP1 PUSH1 0x2 MUL ADD SWAP1 POP PUSH1 0x2 SLOAD DUP4 PUSH2 0x44A SWAP2 SWAP1 PUSH2 0x10AC JUMP JUMPDEST SWAP3 POP PUSH1 0x0 PUSH1 0x2 DUP3 PUSH1 0x0 ADD SLOAD DUP6 PUSH2 0x460 SWAP2 SWAP1 PUSH2 0x110C JUMP JUMPDEST PUSH2 0x46A SWAP2 SWAP1 PUSH2 0x1162 JUMP JUMPDEST SWAP1 POP PUSH1 0x40 MLOAD PUSH1 0x20 ADD PUSH2 0x47B SWAP1 PUSH2 0x11EA JUMP JUMPDEST PUSH1 0x40 MLOAD PUSH1 0x20 DUP2 DUP4 SUB SUB DUP2 MSTORE SWAP1 PUSH1 0x40 MSTORE DUP1 MLOAD SWAP1 PUSH1 0x20 ADD KECCAK256 DUP4 PUSH1 0x40 MLOAD PUSH1 0x20 ADD PUSH2 0x4A2 SWAP2 SWAP1 PUSH2 0x1230 JUMP JUMPDEST PUSH1 0x40 MLOAD PUSH1 0x20 DUP2 DUP4 SUB SUB DUP2 MSTORE SWAP1 PUSH1 0x40 MSTORE DUP1 MLOAD SWAP1 PUSH1 0x20 ADD KECCAK256 SUB PUSH2 0x4E4 JUMPI PUSH1 0x63 PUSH1 0x64 DUP3 PUSH2 0x4CC SWAP2 SWAP1 PUSH2 0x10AC JUMP JUMPDEST DUP3 PUSH2 0x4D7 SWAP2 SWAP1 PUSH2 0x1247 JUMP JUMPDEST PUSH2 0x4E1 SWAP2 SWAP1 PUSH2 0x110C JUMP JUMPDEST SWAP1 POP JUMPDEST PUSH2 0x523 PUSH1 0x40 MLOAD DUP1 PUSH1 0x40 ADD PUSH1 0x40 MSTORE DUP1 PUSH1 0x6 DUP2 MSTORE PUSH1 0x20 ADD PUSH32 0x4E6F4E616D650000000000000000000000000000000000000000000000000000 DUP2 MSTORE POP DUP3 PUSH2 0x6FD JUMP JUMPDEST POP POP POP POP POP JUMP JUMPDEST PUSH2 0x532 PUSH2 0x622 JUMP JUMPDEST PUSH2 0x53B JUMPI PUSH1 0x0 DUP1 REVERT JUMPDEST PUSH1 0x0 PUSH20 0xFFFFFFFFFFFFFFFFFFFFFFFFFFFFFFFFFFFFFFFF AND PUSH1 0x0 DUP1 SLOAD SWAP1 PUSH2 0x100 EXP SWAP1 DIV PUSH20 0xFFFFFFFFFFFFFFFFFFFFFFFFFFFFFFFFFFFFFFFF AND PUSH20 0xFFFFFFFFFFFFFFFFFFFFFFFFFFFFFFFFFFFFFFFF AND PUSH32 0x8BE0079C531659141344CD1FD0A4F28419497F9722A3DAAFE3B4186F6B6457E0 PUSH1 0x40 MLOAD PUSH1 0x40 MLOAD DUP1 SWAP2 SUB SWAP1 LOG3 PUSH1 0x0 DUP1 PUSH1 0x0 PUSH2 0x100 EXP DUP2 SLOAD DUP2 PUSH20 0xFFFFFFFFFFFFFFFFFFFFFFFFFFFFFFFFFFFFFFFF MUL NOT AND SWAP1 DUP4 PUSH20 0xFFFFFFFFFFFFFFFFFFFFFFFFFFFFFFFFFFFFFFFF AND MUL OR SWAP1 SSTORE POP JUMP JUMPDEST PUSH1 0x0 DUP1 PUSH1 0x0 SWAP1 SLOAD SWAP1 PUSH2 0x100 EXP SWAP1 DIV PUSH20 0xFFFFFFFFFFFFFFFFFFFFFFFFFFFFFFFFFFFFFFFF AND SWAP1 POP SWAP1 JUMP JUMPDEST PUSH1 0x0 DUP1 PUSH1 0x0 SWAP1 SLOAD SWAP1 PUSH2 0x100 EXP SWAP1 DIV PUSH20 0xFFFFFFFFFFFFFFFFFFFFFFFFFFFFFFFFFFFFFFFF AND PUSH20 0xFFFFFFFFFFFFFFFFFFFFFFFFFFFFFFFFFFFFFFFF AND CALLER PUSH20 0xFFFFFFFFFFFFFFFFFFFFFFFFFFFFFFFFFFFFFFFF AND EQ SWAP1 POP SWAP1 JUMP JUMPDEST PUSH1 0x0 PUSH1 0x5 PUSH1 0x0 CALLER PUSH20 0xFFFFFFFFFFFFFFFFFFFFFFFFFFFFFFFFFFFFFFFF AND PUSH20 0xFFFFFFFFFFFFFFFFFFFFFFFFFFFFFFFFFFFFFFFF AND DUP2 MSTORE PUSH1 0x20 ADD SWAP1 DUP2 MSTORE PUSH1 0x20 ADD PUSH1 0x0 KECCAK256 SLOAD EQ PUSH2 0x6C5 JUMPI PUSH1 0x0 DUP1 REVERT JUMPDEST PUSH1 0x0 PUSH2 0x6D0 DUP3 PUSH2 0x86E JUMP JUMPDEST SWAP1 POP PUSH2 0x6DC DUP3 DUP3 PUSH2 0x6FD JUMP JUMPDEST POP POP JUMP JUMPDEST PUSH2 0x6E8 PUSH2 0x622 JUMP JUMPDEST PUSH2 0x6F1 JUMPI PUSH1 0x0 DUP1 REVERT JUMPDEST PUSH2 0x6FA DUP2 PUSH2 0x8B3 JUMP JUMPDEST POP JUMP JUMPDEST PUSH1 0x3 PUSH1 0x40 MLOAD DUP1 PUSH1 0x40 ADD PUSH1 0x40 MSTORE DUP1 DUP4 DUP2 MSTORE PUSH1 0x20 ADD DUP5 DUP2 MSTORE POP SWAP1 DUP1 PUSH1 0x1 DUP2 SLOAD ADD DUP1 DUP3 SSTORE DUP1 SWAP2 POP POP PUSH1 0x1 SWAP1 SUB SWAP1 PUSH1 0x0 MSTORE PUSH1 0x20 PUSH1 0x0 KECCAK256 SWAP1 PUSH1 0x2 MUL ADD PUSH1 0x0 SWAP1 SWAP2 SWAP1 SWAP2 SWAP1 SWAP2 POP PUSH1 0x0 DUP3 ADD MLOAD DUP2 PUSH1 0x0 ADD SSTORE PUSH1 0x20 DUP3 ADD MLOAD DUP2 PUSH1 0x1 ADD SWAP1 DUP1 MLOAD SWAP1 PUSH1 0x20 ADD SWAP1 PUSH2 0x763 SWAP3 SWAP2 SWAP1 PUSH2 0x9A9 JUMP JUMPDEST POP POP POP CALLER PUSH1 0x4 PUSH1 0x0 PUSH1 0x1 PUSH1 0x3 DUP1 SLOAD SWAP1 POP PUSH2 0x77D SWAP2 SWAP1 PUSH2 0x1247 JUMP JUMPDEST DUP2 MSTORE PUSH1 0x20 ADD SWAP1 DUP2 MSTORE PUSH1 0x20 ADD PUSH1 0x0 KECCAK256 PUSH1 0x0 PUSH2 0x100 EXP DUP2 SLOAD DUP2 PUSH20 0xFFFFFFFFFFFFFFFFFFFFFFFFFFFFFFFFFFFFFFFF MUL NOT AND SWAP1 DUP4 PUSH20 0xFFFFFFFFFFFFFFFFFFFFFFFFFFFFFFFFFFFFFFFF AND MUL OR SWAP1 SSTORE POP PUSH1 0x5 PUSH1 0x0 CALLER PUSH20 0xFFFFFFFFFFFFFFFFFFFFFFFFFFFFFFFFFFFFFFFF AND PUSH20 0xFFFFFFFFFFFFFFFFFFFFFFFFFFFFFFFFFFFFFFFF AND DUP2 MSTORE PUSH1 0x20 ADD SWAP1 DUP2 MSTORE PUSH1 0x20 ADD PUSH1 0x0 KECCAK256 PUSH1 0x0 DUP2 SLOAD DUP1 SWAP3 SWAP2 SWAP1 PUSH2 0x819 SWAP1 PUSH2 0x127B JUMP JUMPDEST SWAP2 SWAP1 POP SSTORE POP PUSH32 0x88F026AACBBECC90C18411DF4B1185FD8D9BE2470F1962F192BF84A27D0704B7 PUSH1 0x1 PUSH1 0x3 DUP1 SLOAD SWAP1 POP PUSH2 0x851 SWAP2 SWAP1 PUSH2 0x1247 JUMP JUMPDEST DUP4 DUP4 PUSH1 0x40 MLOAD PUSH2 0x862 SWAP4 SWAP3 SWAP2 SWAP1 PUSH2 0x12C3 JUMP JUMPDEST PUSH1 0x40 MLOAD DUP1 SWAP2 SUB SWAP1 LOG1 POP POP JUMP JUMPDEST PUSH1 0x0 DUP1 DUP3 PUSH1 0x40 MLOAD PUSH1 0x20 ADD PUSH2 0x882 SWAP2 SWAP1 PUSH2 0x1230 JUMP JUMPDEST PUSH1 0x40 MLOAD PUSH1 0x20 DUP2 DUP4 SUB SUB DUP2 MSTORE SWAP1 PUSH1 0x40 MSTORE DUP1 MLOAD SWAP1 PUSH1 0x20 ADD KECCAK256 PUSH1 0x0 SHR SWAP1 POP PUSH1 0x2 SLOAD DUP2 PUSH2 0x8AB SWAP2 SWAP1 PUSH2 0x10AC JUMP JUMPDEST SWAP2 POP POP SWAP2 SWAP1 POP JUMP JUMPDEST PUSH1 0x0 PUSH20 0xFFFFFFFFFFFFFFFFFFFFFFFFFFFFFFFFFFFFFFFF AND DUP2 PUSH20 0xFFFFFFFFFFFFFFFFFFFFFFFFFFFFFFFFFFFFFFFF AND SUB PUSH2 0x8EC JUMPI PUSH1 0x0 DUP1 REVERT JUMPDEST DUP1 PUSH20 0xFFFFFFFFFFFFFFFFFFFFFFFFFFFFFFFFFFFFFFFF AND PUSH1 0x0 DUP1 SLOAD SWAP1 PUSH2 0x100 EXP SWAP1 DIV PUSH20 0xFFFFFFFFFFFFFFFFFFFFFFFFFFFFFFFFFFFFFFFF AND PUSH20 0xFFFFFFFFFFFFFFFFFFFFFFFFFFFFFFFFFFFFFFFF AND PUSH32 0x8BE0079C531659141344CD1FD0A4F28419497F9722A3DAAFE3B4186F6B6457E0 PUSH1 0x40 MLOAD PUSH1 0x40 MLOAD DUP1 SWAP2 SUB SWAP1 LOG3 DUP1 PUSH1 0x0 DUP1 PUSH2 0x100 EXP DUP2 SLOAD DUP2 PUSH20 0xFFFFFFFFFFFFFFFFFFFFFFFFFFFFFFFFFFFFFFFF MUL NOT AND SWAP1 DUP4 PUSH20 0xFFFFFFFFFFFFFFFFFFFFFFFFFFFFFFFFFFFFFFFF AND MUL OR SWAP1 SSTORE POP POP JUMP JUMPDEST DUP3 DUP1 SLOAD PUSH2 0x9B5 SWAP1 PUSH2 0x101D JUMP JUMPDEST SWAP1 PUSH1 0x0 MSTORE PUSH1 0x20 PUSH1 0x0 KECCAK256 SWAP1 PUSH1 0x1F ADD PUSH1 0x20 SWAP1 DIV DUP2 ADD SWAP3 DUP3 PUSH2 0x9D7 JUMPI PUSH1 0x0 DUP6 SSTORE PUSH2 0xA1E JUMP JUMPDEST DUP3 PUSH1 0x1F LT PUSH2 0x9F0 JUMPI DUP1 MLOAD PUSH1 0xFF NOT AND DUP4 DUP1 ADD OR DUP6 SSTORE PUSH2 0xA1E JUMP JUMPDEST DUP3 DUP1 ADD PUSH1 0x1 ADD DUP6 SSTORE DUP3 ISZERO PUSH2 0xA1E JUMPI SWAP2 DUP3 ADD JUMPDEST DUP3 DUP2 GT ISZERO PUSH2 0xA1D JUMPI DUP3 MLOAD DUP3 SSTORE SWAP2 PUSH1 0x20 ADD SWAP2 SWAP1 PUSH1 0x1 ADD SWAP1 PUSH2 0xA02 JUMP JUMPDEST JUMPDEST POP SWAP1 POP PUSH2 0xA2B SWAP2 SWAP1 PUSH2 0xA2F JUMP JUMPDEST POP SWAP1 JUMP JUMPDEST JUMPDEST DUP1 DUP3 GT ISZERO PUSH2 0xA48 JUMPI PUSH1 0x0 DUP2 PUSH1 0x0 SWAP1 SSTORE POP PUSH1 0x1 ADD PUSH2 0xA30 JUMP JUMPDEST POP SWAP1 JUMP JUMPDEST PUSH1 0x0 PUSH1 0x40 MLOAD SWAP1 POP SWAP1 JUMP JUMPDEST PUSH1 0x0 DUP1 REVERT JUMPDEST PUSH1 0x0 DUP1 REVERT JUMPDEST PUSH1 0x0 DUP2 SWAP1 POP SWAP2 SWAP1 POP JUMP JUMPDEST PUSH2 0xA73 DUP2 PUSH2 0xA60 JUMP JUMPDEST DUP2 EQ PUSH2 0xA7E JUMPI PUSH1 0x0 DUP1 REVERT JUMPDEST POP JUMP JUMPDEST PUSH1 0x0 DUP2 CALLDATALOAD SWAP1 POP PUSH2 0xA90 DUP2 PUSH2 0xA6A JUMP JUMPDEST SWAP3 SWAP2 POP POP JUMP JUMPDEST PUSH1 0x0 DUP1 PUSH1 0x40 DUP4 DUP6 SUB SLT ISZERO PUSH2 0xAAD JUMPI PUSH2 0xAAC PUSH2 0xA56 JUMP JUMPDEST JUMPDEST PUSH1 0x0 PUSH2 0xABB DUP6 DUP3 DUP7 ADD PUSH2 0xA81 JUMP JUMPDEST SWAP3 POP POP PUSH1 0x20 PUSH2 0xACC DUP6 DUP3 DUP7 ADD PUSH2 0xA81 JUMP JUMPDEST SWAP2 POP POP SWAP3 POP SWAP3 SWAP1 POP JUMP JUMPDEST PUSH1 0x0 PUSH1 0x20 DUP3 DUP5 SUB SLT ISZERO PUSH2 0xAEC JUMPI PUSH2 0xAEB PUSH2 0xA56 JUMP JUMPDEST JUMPDEST PUSH1 0x0 PUSH2 0xAFA DUP5 DUP3 DUP6 ADD PUSH2 0xA81 JUMP JUMPDEST SWAP2 POP POP SWAP3 SWAP2 POP POP JUMP JUMPDEST PUSH2 0xB0C DUP2 PUSH2 0xA60 JUMP JUMPDEST DUP3 MSTORE POP POP JUMP JUMPDEST PUSH1 0x0 DUP2 MLOAD SWAP1 POP SWAP2 SWAP1 POP JUMP JUMPDEST PUSH1 0x0 DUP3 DUP3 MSTORE PUSH1 0x20 DUP3 ADD SWAP1 POP SWAP3 SWAP2 POP POP JUMP JUMPDEST PUSH1 0x0 JUMPDEST DUP4 DUP2 LT ISZERO PUSH2 0xB4C JUMPI DUP1 DUP3 ADD MLOAD DUP2 DUP5 ADD MSTORE PUSH1 0x20 DUP2 ADD SWAP1 POP PUSH2 0xB31 JUMP JUMPDEST DUP4 DUP2 GT ISZERO PUSH2 0xB5B JUMPI PUSH1 0x0 DUP5 DUP5 ADD MSTORE JUMPDEST POP POP POP POP JUMP JUMPDEST PUSH1 0x0 PUSH1 0x1F NOT PUSH1 0x1F DUP4 ADD AND SWAP1 POP SWAP2 SWAP1 POP JUMP JUMPDEST PUSH1 0x0 PUSH2 0xB7D DUP3 PUSH2 0xB12 JUMP JUMPDEST PUSH2 0xB87 DUP2 DUP6 PUSH2 0xB1D JUMP JUMPDEST SWAP4 POP PUSH2 0xB97 DUP2 DUP6 PUSH1 0x20 DUP7 ADD PUSH2 0xB2E JUMP JUMPDEST PUSH2 0xBA0 DUP2 PUSH2 0xB61 JUMP JUMPDEST DUP5 ADD SWAP2 POP POP SWAP3 SWAP2 POP POP JUMP JUMPDEST PUSH1 0x0 PUSH1 0x40 DUP3 ADD SWAP1 POP PUSH2 0xBC0 PUSH1 0x0 DUP4 ADD DUP6 PUSH2 0xB03 JUMP JUMPDEST DUP2 DUP2 SUB PUSH1 0x20 DUP4 ADD MSTORE PUSH2 0xBD2 DUP2 DUP5 PUSH2 0xB72 JUMP JUMPDEST SWAP1 POP SWAP4 SWAP3 POP POP POP JUMP JUMPDEST PUSH1 0x0 PUSH20 0xFFFFFFFFFFFFFFFFFFFFFFFFFFFFFFFFFFFFFFFF DUP3 AND SWAP1 POP SWAP2 SWAP1 POP JUMP JUMPDEST PUSH1 0x0 PUSH2 0xC06 DUP3 PUSH2 0xBDB JUMP JUMPDEST SWAP1 POP SWAP2 SWAP1 POP JUMP JUMPDEST PUSH2 0xC16 DUP2 PUSH2 0xBFB JUMP JUMPDEST DUP2 EQ PUSH2 0xC21 JUMPI PUSH1 0x0 DUP1 REVERT JUMPDEST POP JUMP JUMPDEST PUSH1 0x0 DUP2 CALLDATALOAD SWAP1 POP PUSH2 0xC33 DUP2 PUSH2 0xC0D JUMP JUMPDEST SWAP3 SWAP2 POP POP JUMP JUMPDEST PUSH1 0x0 PUSH1 0x20 DUP3 DUP5 SUB SLT ISZERO PUSH2 0xC4F JUMPI PUSH2 0xC4E PUSH2 0xA56 JUMP JUMPDEST JUMPDEST PUSH1 0x0 PUSH2 0xC5D DUP5 DUP3 DUP6 ADD PUSH2 0xC24 JUMP JUMPDEST SWAP2 POP POP SWAP3 SWAP2 POP POP JUMP JUMPDEST PUSH1 0x0 DUP1 REVERT JUMPDEST PUSH1 0x0 DUP1 REVERT JUMPDEST PUSH32 0x4E487B7100000000000000000000000000000000000000000000000000000000 PUSH1 0x0 MSTORE PUSH1 0x41 PUSH1 0x4 MSTORE PUSH1 0x24 PUSH1 0x0 REVERT JUMPDEST PUSH2 0xCA8 DUP3 PUSH2 0xB61 JUMP JUMPDEST DUP2 ADD DUP2 DUP2 LT PUSH8 0xFFFFFFFFFFFFFFFF DUP3 GT OR ISZERO PUSH2 0xCC7 JUMPI PUSH2 0xCC6 PUSH2 0xC70 JUMP JUMPDEST JUMPDEST DUP1 PUSH1 0x40 MSTORE POP POP POP JUMP JUMPDEST PUSH1 0x0 PUSH2 0xCDA PUSH2 0xA4C JUMP JUMPDEST SWAP1 POP PUSH2 0xCE6 DUP3 DUP3 PUSH2 0xC9F JUMP JUMPDEST SWAP2 SWAP1 POP JUMP JUMPDEST PUSH1 0x0 PUSH8 0xFFFFFFFFFFFFFFFF DUP3 GT ISZERO PUSH2 0xD06 JUMPI PUSH2 0xD05 PUSH2 0xC70 JUMP JUMPDEST JUMPDEST PUSH2 0xD0F DUP3 PUSH2 0xB61 JUMP JUMPDEST SWAP1 POP PUSH1 0x20 DUP2 ADD SWAP1 POP SWAP2 SWAP1 POP JUMP JUMPDEST DUP3 DUP2 DUP4 CALLDATACOPY PUSH1 0x0 DUP4 DUP4 ADD MSTORE POP POP POP JUMP JUMPDEST PUSH1 0x0 PUSH2 0xD3E PUSH2 0xD39 DUP5 PUSH2 0xCEB JUMP JUMPDEST PUSH2 0xCD0 JUMP JUMPDEST SWAP1 POP DUP3 DUP2 MSTORE PUSH1 0x20 DUP2 ADD DUP5 DUP5 DUP5 ADD GT ISZERO PUSH2 0xD5A JUMPI PUSH2 0xD59 PUSH2 0xC6B JUMP JUMPDEST JUMPDEST PUSH2 0xD65 DUP5 DUP3 DUP6 PUSH2 0xD1C JUMP JUMPDEST POP SWAP4 SWAP3 POP POP POP JUMP JUMPDEST PUSH1 0x0 DUP3 PUSH1 0x1F DUP4 ADD SLT PUSH2 0xD82 JUMPI PUSH2 0xD81 PUSH2 0xC66 JUMP JUMPDEST JUMPDEST DUP2 CALLDATALOAD PUSH2 0xD92 DUP5 DUP3 PUSH1 0x20 DUP7 ADD PUSH2 0xD2B JUMP JUMPDEST SWAP2 POP POP SWAP3 SWAP2 POP POP JUMP JUMPDEST PUSH1 0x0 DUP1 PUSH1 0x0 PUSH1 0x60 DUP5 DUP7 SUB SLT ISZERO PUSH2 0xDB4 JUMPI PUSH2 0xDB3 PUSH2 0xA56 JUMP JUMPDEST JUMPDEST PUSH1 0x0 PUSH2 0xDC2 DUP7 DUP3 DUP8 ADD PUSH2 0xA81 JUMP JUMPDEST SWAP4 POP POP PUSH1 0x20 PUSH2 0xDD3 DUP7 DUP3 DUP8 ADD PUSH2 0xA81 JUMP JUMPDEST SWAP3 POP POP PUSH1 0x40 DUP5 ADD CALLDATALOAD PUSH8 0xFFFFFFFFFFFFFFFF DUP2 GT ISZERO PUSH2 0xDF4 JUMPI PUSH2 0xDF3 PUSH2 0xA5B JUMP JUMPDEST JUMPDEST PUSH2 0xE00 DUP7 DUP3 DUP8 ADD PUSH2 0xD6D JUMP JUMPDEST SWAP2 POP POP SWAP3 POP SWAP3 POP SWAP3 JUMP JUMPDEST PUSH2 0xE13 DUP2 PUSH2 0xBFB JUMP JUMPDEST DUP3 MSTORE POP POP JUMP JUMPDEST PUSH1 0x0 PUSH1 0x20 DUP3 ADD SWAP1 POP PUSH2 0xE2E PUSH1 0x0 DUP4 ADD DUP5 PUSH2 0xE0A JUMP JUMPDEST SWAP3 SWAP2 POP POP JUMP JUMPDEST PUSH1 0x0 DUP2 ISZERO ISZERO SWAP1 POP SWAP2 SWAP1 POP JUMP JUMPDEST PUSH2 0xE49 DUP2 PUSH2 0xE34 JUMP JUMPDEST DUP3 MSTORE POP POP JUMP JUMPDEST PUSH1 0x0 PUSH1 0x20 DUP3 ADD SWAP1 POP PUSH2 0xE64 PUSH1 0x0 DUP4 ADD DUP5 PUSH2 0xE40 JUMP JUMPDEST SWAP3 SWAP2 POP POP JUMP JUMPDEST PUSH1 0x0 PUSH1 0x20 DUP3 DUP5 SUB SLT ISZERO PUSH2 0xE80 JUMPI PUSH2 0xE7F PUSH2 0xA56 JUMP JUMPDEST JUMPDEST PUSH1 0x0 DUP3 ADD CALLDATALOAD PUSH8 0xFFFFFFFFFFFFFFFF DUP2 GT ISZERO PUSH2 0xE9E JUMPI PUSH2 0xE9D PUSH2 0xA5B JUMP JUMPDEST JUMPDEST PUSH2 0xEAA DUP5 DUP3 DUP6 ADD PUSH2 0xD6D JUMP JUMPDEST SWAP2 POP POP SWAP3 SWAP2 POP POP JUMP JUMPDEST PUSH1 0x0 PUSH1 0x20 DUP3 ADD SWAP1 POP PUSH2 0xEC8 PUSH1 0x0 DUP4 ADD DUP5 PUSH2 0xB03 JUMP JUMPDEST SWAP3 SWAP2 POP POP JUMP JUMPDEST PUSH2 0xED7 DUP2 PUSH2 0xE34 JUMP JUMPDEST DUP2 EQ PUSH2 0xEE2 JUMPI PUSH1 0x0 DUP1 REVERT JUMPDEST POP JUMP JUMPDEST PUSH1 0x0 DUP2 MLOAD SWAP1 POP PUSH2 0xEF4 DUP2 PUSH2 0xECE JUMP JUMPDEST SWAP3 SWAP2 POP POP JUMP JUMPDEST PUSH1 0x0 DUP2 MLOAD SWAP1 POP PUSH2 0xF09 DUP2 PUSH2 0xA6A JUMP JUMPDEST SWAP3 SWAP2 POP POP JUMP JUMPDEST PUSH1 0x0 DUP1 PUSH1 0x0 DUP1 PUSH1 0x0 DUP1 PUSH1 0x0 DUP1 PUSH1 0x0 DUP1 PUSH2 0x140 DUP12 DUP14 SUB SLT ISZERO PUSH2 0xF33 JUMPI PUSH2 0xF32 PUSH2 0xA56 JUMP JUMPDEST JUMPDEST PUSH1 0x0 PUSH2 0xF41 DUP14 DUP3 DUP15 ADD PUSH2 0xEE5 JUMP JUMPDEST SWAP11 POP POP PUSH1 0x20 PUSH2 0xF52 DUP14 DUP3 DUP15 ADD PUSH2 0xEE5 JUMP JUMPDEST SWAP10 POP POP PUSH1 0x40 PUSH2 0xF63 DUP14 DUP3 DUP15 ADD PUSH2 0xEFA JUMP JUMPDEST SWAP9 POP POP PUSH1 0x60 PUSH2 0xF74 DUP14 DUP3 DUP15 ADD PUSH2 0xEFA JUMP JUMPDEST SWAP8 POP POP PUSH1 0x80 PUSH2 0xF85 DUP14 DUP3 DUP15 ADD PUSH2 0xEFA JUMP JUMPDEST SWAP7 POP POP PUSH1 0xA0 PUSH2 0xF96 DUP14 DUP3 DUP15 ADD PUSH2 0xEFA JUMP JUMPDEST SWAP6 POP POP PUSH1 0xC0 PUSH2 0xFA7 DUP14 DUP3 DUP15 ADD PUSH2 0xEFA JUMP JUMPDEST SWAP5 POP POP PUSH1 0xE0 PUSH2 0xFB8 DUP14 DUP3 DUP15 ADD PUSH2 0xEFA JUMP JUMPDEST SWAP4 POP POP PUSH2 0x100 PUSH2 0xFCA DUP14 DUP3 DUP15 ADD PUSH2 0xEFA JUMP JUMPDEST SWAP3 POP POP PUSH2 0x120 PUSH2 0xFDC DUP14 DUP3 DUP15 ADD PUSH2 0xEFA JUMP JUMPDEST SWAP2 POP POP SWAP3 SWAP6 SWAP9 SWAP12 SWAP2 SWAP5 SWAP8 SWAP11 POP SWAP3 SWAP6 SWAP9 POP JUMP JUMPDEST PUSH32 0x4E487B7100000000000000000000000000000000000000000000000000000000 PUSH1 0x0 MSTORE PUSH1 0x22 PUSH1 0x4 MSTORE PUSH1 0x24 PUSH1 0x0 REVERT JUMPDEST PUSH1 0x0 PUSH1 0x2 DUP3 DIV SWAP1 POP PUSH1 0x1 DUP3 AND DUP1 PUSH2 0x1035 JUMPI PUSH1 0x7F DUP3 AND SWAP2 POP JUMPDEST PUSH1 0x20 DUP3 LT DUP2 SUB PUSH2 0x1048 JUMPI PUSH2 0x1047 PUSH2 0xFEE JUMP JUMPDEST JUMPDEST POP SWAP2 SWAP1 POP JUMP JUMPDEST PUSH32 0x4E487B7100000000000000000000000000000000000000000000000000000000 PUSH1 0x0 MSTORE PUSH1 0x32 PUSH1 0x4 MSTORE PUSH1 0x24 PUSH1 0x0 REVERT JUMPDEST PUSH32 0x4E487B7100000000000000000000000000000000000000000000000000000000 PUSH1 0x0 MSTORE PUSH1 0x12 PUSH1 0x4 MSTORE PUSH1 0x24 PUSH1 0x0 REVERT JUMPDEST PUSH1 0x0 PUSH2 0x10B7 DUP3 PUSH2 0xA60 JUMP JUMPDEST SWAP2 POP PUSH2 0x10C2 DUP4 PUSH2 0xA60 JUMP JUMPDEST SWAP3 POP DUP3 PUSH2 0x10D2 JUMPI PUSH2 0x10D1 PUSH2 0x107D JUMP JUMPDEST JUMPDEST DUP3 DUP3 MOD SWAP1 POP SWAP3 SWAP2 POP POP JUMP JUMPDEST PUSH32 0x4E487B7100000000000000000000000000000000000000000000000000000000 PUSH1 0x0 MSTORE PUSH1 0x11 PUSH1 0x4 MSTORE PUSH1 0x24 PUSH1 0x0 REVERT JUMPDEST PUSH1 0x0 PUSH2 0x1117 DUP3 PUSH2 0xA60 JUMP JUMPDEST SWAP2 POP PUSH2 0x1122 DUP4 PUSH2 0xA60 JUMP JUMPDEST SWAP3 POP DUP3 PUSH32 0xFFFFFFFFFFFFFFFFFFFFFFFFFFFFFFFFFFFFFFFFFFFFFFFFFFFFFFFFFFFFFFFF SUB DUP3 GT ISZERO PUSH2 0x1157 JUMPI PUSH2 0x1156 PUSH2 0x10DD JUMP JUMPDEST JUMPDEST DUP3 DUP3 ADD SWAP1 POP SWAP3 SWAP2 POP POP JUMP JUMPDEST PUSH1 0x0 PUSH2 0x116D DUP3 PUSH2 0xA60 JUMP JUMPDEST SWAP2 POP PUSH2 0x1178 DUP4 PUSH2 0xA60 JUMP JUMPDEST SWAP3 POP DUP3 PUSH2 0x1188 JUMPI PUSH2 0x1187 PUSH2 0x107D JUMP JUMPDEST JUMPDEST DUP3 DUP3 DIV SWAP1 POP SWAP3 SWAP2 POP POP JUMP JUMPDEST PUSH1 0x0 DUP2 SWAP1 POP SWAP3 SWAP2 POP POP JUMP JUMPDEST PUSH32 0x6B69747479000000000000000000000000000000000000000000000000000000 PUSH1 0x0 DUP3 ADD MSTORE POP JUMP JUMPDEST PUSH1 0x0 PUSH2 0x11D4 PUSH1 0x5 DUP4 PUSH2 0x1193 JUMP JUMPDEST SWAP2 POP PUSH2 0x11DF DUP3 PUSH2 0x119E JUMP JUMPDEST PUSH1 0x5 DUP3 ADD SWAP1 POP SWAP2 SWAP1 POP JUMP JUMPDEST PUSH1 0x0 PUSH2 0x11F5 DUP3 PUSH2 0x11C7 JUMP JUMPDEST SWAP2 POP DUP2 SWAP1 POP SWAP2 SWAP1 POP JUMP JUMPDEST PUSH1 0x0 PUSH2 0x120A DUP3 PUSH2 0xB12 JUMP JUMPDEST PUSH2 0x1214 DUP2 DUP6 PUSH2 0x1193 JUMP JUMPDEST SWAP4 POP PUSH2 0x1224 DUP2 DUP6 PUSH1 0x20 DUP7 ADD PUSH2 0xB2E JUMP JUMPDEST DUP1 DUP5 ADD SWAP2 POP POP SWAP3 SWAP2 POP POP JUMP JUMPDEST PUSH1 0x0 PUSH2 0x123C DUP3 DUP5 PUSH2 0x11FF JUMP JUMPDEST SWAP2 POP DUP2 SWAP1 POP SWAP3 SWAP2 POP POP JUMP JUMPDEST PUSH1 0x0 PUSH2 0x1252 DUP3 PUSH2 0xA60 JUMP JUMPDEST SWAP2 POP PUSH2 0x125D DUP4 PUSH2 0xA60 JUMP JUMPDEST SWAP3 POP DUP3 DUP3 LT ISZERO PUSH2 0x1270 JUMPI PUSH2 0x126F PUSH2 0x10DD JUMP JUMPDEST JUMPDEST DUP3 DUP3 SUB SWAP1 POP SWAP3 SWAP2 POP POP JUMP JUMPDEST PUSH1 0x0 PUSH2 0x1286 DUP3 PUSH2 0xA60 JUMP JUMPDEST SWAP2 POP PUSH32 0xFFFFFFFFFFFFFFFFFFFFFFFFFFFFFFFFFFFFFFFFFFFFFFFFFFFFFFFFFFFFFFFF DUP3 SUB PUSH2 0x12B8 JUMPI PUSH2 0x12B7 PUSH2 0x10DD JUMP JUMPDEST JUMPDEST PUSH1 0x1 DUP3 ADD SWAP1 POP SWAP2 SWAP1 POP JUMP JUMPDEST PUSH1 0x0 PUSH1 0x60 DUP3 ADD SWAP1 POP PUSH2 0x12D8 PUSH1 0x0 DUP4 ADD DUP7 PUSH2 0xB03 JUMP JUMPDEST DUP2 DUP2 SUB PUSH1 0x20 DUP4 ADD MSTORE PUSH2 0x12EA DUP2 DUP6 PUSH2 0xB72 JUMP JUMPDEST SWAP1 POP PUSH2 0x12F9 PUSH1 0x40 DUP4 ADD DUP5 PUSH2 0xB03 JUMP JUMPDEST SWAP5 SWAP4 POP POP POP POP JUMP INVALID LOG2 PUSH5 0x6970667358 0x22 SLT KECCAK256 PUSH22 0x32F98A348DE916AEA3BC46F572D41FEEA9D66749F17D DUP16 PUSH4 0x7AC4F842 SUB 0xB2 SWAP9 PUSH5 0x736F6C6343 STOP ADDMOD 0xE STOP CALLER "
				},
				"gasEstimates": {
					"creation": {
						"codeDepositCost": "983800",
						"executionCost": "infinite",
						"totalCost": "infinite"
					},
					"external": {
						"feedAndMultiply(uint256,uint256,string)": "infinite",
						"feedOnKitty(uint256,uint256)": "infinite",
						"generateRandomZombie(string)": "infinite",
						"isOwner()": "2540",
						"owner()": "2544",
						"renounceOwnership()": "30294",
						"setKittyContractAddress(address)": "26972",
						"transferOwnership(address)": "30757",
						"zombies(uint256)": "infinite"
					}
				},
				"methodIdentifiers": {
					"feedAndMultiply(uint256,uint256,string)": "6b0bfc80",
					"feedOnKitty(uint256,uint256)": "17a7f4cc",
					"generateRandomZombie(string)": "c6f15112",
					"isOwner()": "8f32d59b",
					"owner()": "8da5cb5b",
					"renounceOwnership()": "715018a6",
					"setKittyContractAddress(address)": "5f4623f1",
					"transferOwnership(address)": "f2fde38b",
					"zombies(uint256)": "2052465e"
				}
			},
			"storageLayout": {
				"storage": [
					{
						"astId": 4,
						"contract": "contracts/Zombiefeeding.sol:ZombieFeeding",
						"label": "_owner",
						"offset": 0,
						"slot": "0",
						"type": "t_address"
					},
					{
						"astId": 128,
						"contract": "contracts/Zombiefeeding.sol:ZombieFeeding",
						"label": "dnaDigits",
						"offset": 0,
						"slot": "1",
						"type": "t_uint256"
					},
					{
						"astId": 133,
						"contract": "contracts/Zombiefeeding.sol:ZombieFeeding",
						"label": "dnaModulus",
						"offset": 0,
						"slot": "2",
						"type": "t_uint256"
					},
					{
						"astId": 150,
						"contract": "contracts/Zombiefeeding.sol:ZombieFeeding",
						"label": "zombies",
						"offset": 0,
						"slot": "3",
						"type": "t_array(t_struct(Zombie)146_storage)dyn_storage"
					},
					{
						"astId": 154,
						"contract": "contracts/Zombiefeeding.sol:ZombieFeeding",
						"label": "zombieToOwner",
						"offset": 0,
						"slot": "4",
						"type": "t_mapping(t_uint256,t_address)"
					},
					{
						"astId": 158,
						"contract": "contracts/Zombiefeeding.sol:ZombieFeeding",
						"label": "ownerZombieCount",
						"offset": 0,
						"slot": "5",
						"type": "t_mapping(t_address,t_uint256)"
					},
					{
						"astId": 285,
						"contract": "contracts/Zombiefeeding.sol:ZombieFeeding",
						"label": "kittyContract",
						"offset": 0,
						"slot": "6",
						"type": "t_contract(KittyInterface)280"
					}
				],
				"types": {
					"t_address": {
						"encoding": "inplace",
						"label": "address",
						"numberOfBytes": "20"
					},
					"t_array(t_struct(Zombie)146_storage)dyn_storage": {
						"base": "t_struct(Zombie)146_storage",
						"encoding": "dynamic_array",
						"label": "struct ZombieFactory.Zombie[]",
						"numberOfBytes": "32"
					},
					"t_contract(KittyInterface)280": {
						"encoding": "inplace",
						"label": "contract KittyInterface",
						"numberOfBytes": "20"
					},
					"t_mapping(t_address,t_uint256)": {
						"encoding": "mapping",
						"key": "t_address",
						"label": "mapping(address => uint256)",
						"numberOfBytes": "32",
						"value": "t_uint256"
					},
					"t_mapping(t_uint256,t_address)": {
						"encoding": "mapping",
						"key": "t_uint256",
						"label": "mapping(uint256 => address)",
						"numberOfBytes": "32",
						"value": "t_address"
					},
					"t_string_storage": {
						"encoding": "bytes",
						"label": "string",
						"numberOfBytes": "32"
					},
					"t_struct(Zombie)146_storage": {
						"encoding": "inplace",
						"label": "struct ZombieFactory.Zombie",
						"members": [
							{
								"astId": 143,
								"contract": "contracts/Zombiefeeding.sol:ZombieFeeding",
								"label": "dna",
								"offset": 0,
								"slot": "0",
								"type": "t_uint256"
							},
							{
								"astId": 145,
								"contract": "contracts/Zombiefeeding.sol:ZombieFeeding",
								"label": "name",
								"offset": 0,
								"slot": "1",
								"type": "t_string_storage"
							}
						],
						"numberOfBytes": "64"
					},
					"t_uint256": {
						"encoding": "inplace",
						"label": "uint256",
						"numberOfBytes": "32"
					}
				}
			},
			"userdoc": {
				"kind": "user",
				"methods": {
					"renounceOwnership()": {
						"notice": "Renouncing to ownership will leave the contract without an owner. It will not be possible to call the functions with the `onlyOwner` modifier anymore."
					}
				},
				"version": 1
			}
		}
	}
}