{
	"contracts/Zombiefeeding.sol": {
		"ZombieFeeding": {
			"abi": [
				{
					"anonymous": false,
					"inputs": [
						{
							"indexed": false,
							"internalType": "uint256",
							"name": "zombieId",
							"type": "uint256"
						},
						{
							"indexed": false,
							"internalType": "string",
							"name": "name",
							"type": "string"
						},
						{
							"indexed": false,
							"internalType": "uint256",
							"name": "dna",
							"type": "uint256"
						}
					],
					"name": "NewZombie",
					"type": "event"
				},
				{
					"inputs": [
						{
							"internalType": "uint256",
							"name": "_zombieId",
							"type": "uint256"
						},
						{
							"internalType": "uint256",
							"name": "_targetDna",
							"type": "uint256"
						},
						{
							"internalType": "string",
							"name": "_species",
							"type": "string"
						}
					],
					"name": "feedAndMultiply",
					"outputs": [],
					"stateMutability": "nonpayable",
					"type": "function"
				},
				{
					"inputs": [
						{
							"internalType": "uint256",
							"name": "_zombieId",
							"type": "uint256"
						},
						{
							"internalType": "uint256",
							"name": "_kittyId",
							"type": "uint256"
						}
					],
					"name": "feedOnKitty",
					"outputs": [],
					"stateMutability": "nonpayable",
					"type": "function"
				},
				{
					"inputs": [
						{
							"internalType": "string",
							"name": "_name",
							"type": "string"
						}
					],
					"name": "generateRandomZombie",
					"outputs": [],
					"stateMutability": "nonpayable",
					"type": "function"
				},
				{
					"inputs": [
						{
							"internalType": "uint256",
							"name": "",
							"type": "uint256"
						}
					],
					"name": "zombies",
					"outputs": [
						{
							"internalType": "uint256",
							"name": "dna",
							"type": "uint256"
						},
						{
							"internalType": "string",
							"name": "name",
							"type": "string"
						}
					],
					"stateMutability": "view",
					"type": "function"
				}
			],
			"devdoc": {
				"kind": "dev",
				"methods": {},
				"version": 1
			},
			"evm": {
				"assembly": "    /* \"contracts/Zombiefeeding.sol\":485:1440  contract ZombieFeeding is ZombieFactory {... */\n  mstore(0x40, 0x80)\n    /* \"contracts/Zombiefactory.sol\":79:81  16 */\n  0x10\n    /* \"contracts/Zombiefactory.sol\":62:81  uint dnaDigits = 16 */\n  0x00\n  sstore\n    /* \"contracts/Zombiefactory.sol\":160:169  dnaDigits */\n  sload(0x00)\n    /* \"contracts/Zombiefactory.sol\":154:156  10 */\n  0x0a\n    /* \"contracts/Zombiefactory.sol\":154:169  10 ** dnaDigits */\n  tag_1\n  swap2\n  swap1\n  tag_2\n  jump\t// in\ntag_1:\n    /* \"contracts/Zombiefactory.sol\":136:169  uint dnaModulus = 10 ** dnaDigits */\n  0x01\n  sstore\n    /* \"contracts/Zombiefeeding.sol\":551:593  0x06012c8cf97BEaD5deAe237070F9587f8E7A266d */\n  0x06012c8cf97bead5deae237070f9587f8e7a266d\n    /* \"contracts/Zombiefeeding.sol\":531:593  address ckAddress = 0x06012c8cf97BEaD5deAe237070F9587f8E7A266d */\n  0x05\n  exp(0x0100, 0x00)\n  dup2\n  sload\n  dup2\n  0xffffffffffffffffffffffffffffffffffffffff\n  mul\n  not\n  and\n  swap1\n  dup4\n  0xffffffffffffffffffffffffffffffffffffffff\n  and\n  mul\n  or\n  swap1\n  sstore\n  pop\n    /* \"contracts/Zombiefeeding.sol\":646:655  ckAddress */\n  0x05\n  0x00\n  swap1\n  sload\n  swap1\n  0x0100\n  exp\n  swap1\n  div\n  0xffffffffffffffffffffffffffffffffffffffff\n  and\n    /* \"contracts/Zombiefeeding.sol\":600:656  KittyInterface kittyContract = KittyInterface(ckAddress) */\n  0x06\n  exp(0x0100, 0x00)\n  dup2\n  sload\n  dup2\n  0xffffffffffffffffffffffffffffffffffffffff\n  mul\n  not\n  and\n  swap1\n  dup4\n  0xffffffffffffffffffffffffffffffffffffffff\n  and\n  mul\n  or\n  swap1\n  sstore\n  pop\n    /* \"contracts/Zombiefeeding.sol\":485:1440  contract ZombieFeeding is ZombieFactory {... */\n  callvalue\n  dup1\n  iszero\n  tag_3\n  jumpi\n  0x00\n  dup1\n  revert\ntag_3:\n  pop\n  jump(tag_4)\n    /* \"#utility.yul\":7:855   */\ntag_6:\n    /* \"#utility.yul\":68:73   */\n  0x00\n    /* \"#utility.yul\":75:79   */\n  dup1\n    /* \"#utility.yul\":99:105   */\n  dup3\n    /* \"#utility.yul\":90:105   */\n  swap2\n  pop\n    /* \"#utility.yul\":123:128   */\n  dup4\n    /* \"#utility.yul\":114:128   */\n  swap1\n  pop\n    /* \"#utility.yul\":137:849   */\ntag_8:\n    /* \"#utility.yul\":158:159   */\n  0x01\n    /* \"#utility.yul\":148:156   */\n  dup6\n    /* \"#utility.yul\":145:160   */\n  gt\n    /* \"#utility.yul\":137:849   */\n  iszero\n  tag_10\n  jumpi\n    /* \"#utility.yul\":253:257   */\n  dup1\n    /* \"#utility.yul\":248:251   */\n  dup7\n    /* \"#utility.yul\":244:258   */\n  div\n    /* \"#utility.yul\":238:242   */\n  dup2\n    /* \"#utility.yul\":235:259   */\n  gt\n    /* \"#utility.yul\":232:282   */\n  iszero\n  tag_11\n  jumpi\n    /* \"#utility.yul\":262:280   */\n  tag_12\n  tag_13\n  jump\t// in\ntag_12:\n    /* \"#utility.yul\":232:282   */\ntag_11:\n    /* \"#utility.yul\":312:313   */\n  0x01\n    /* \"#utility.yul\":302:310   */\n  dup6\n    /* \"#utility.yul\":298:314   */\n  and\n    /* \"#utility.yul\":295:746   */\n  iszero\n  tag_14\n  jumpi\n    /* \"#utility.yul\":727:731   */\n  dup1\n    /* \"#utility.yul\":720:725   */\n  dup3\n    /* \"#utility.yul\":716:732   */\n  mul\n    /* \"#utility.yul\":707:732   */\n  swap2\n  pop\n    /* \"#utility.yul\":295:746   */\ntag_14:\n    /* \"#utility.yul\":777:781   */\n  dup1\n    /* \"#utility.yul\":771:775   */\n  dup2\n    /* \"#utility.yul\":767:782   */\n  mul\n    /* \"#utility.yul\":759:782   */\n  swap1\n  pop\n    /* \"#utility.yul\":807:839   */\n  tag_15\n    /* \"#utility.yul\":830:838   */\n  dup6\n    /* \"#utility.yul\":807:839   */\n  tag_16\n  jump\t// in\ntag_15:\n    /* \"#utility.yul\":795:839   */\n  swap5\n  pop\n    /* \"#utility.yul\":137:849   */\n  jump(tag_8)\ntag_10:\n    /* \"#utility.yul\":7:855   */\n  swap5\n  pop\n  swap5\n  swap3\n  pop\n  pop\n  pop\n  jump\t// out\n    /* \"#utility.yul\":861:1146   */\ntag_2:\n    /* \"#utility.yul\":921:926   */\n  0x00\n    /* \"#utility.yul\":945:968   */\n  tag_18\n    /* \"#utility.yul\":963:967   */\n  dup3\n    /* \"#utility.yul\":945:968   */\n  tag_19\n  jump\t// in\ntag_18:\n    /* \"#utility.yul\":937:968   */\n  swap2\n  pop\n    /* \"#utility.yul\":989:1016   */\n  tag_20\n    /* \"#utility.yul\":1007:1015   */\n  dup4\n    /* \"#utility.yul\":989:1016   */\n  tag_19\n  jump\t// in\ntag_20:\n    /* \"#utility.yul\":977:1016   */\n  swap3\n  pop\n    /* \"#utility.yul\":1035:1139   */\n  tag_21\n    /* \"#utility.yul\":1072:1138   */\n  0xffffffffffffffffffffffffffffffffffffffffffffffffffffffffffffffff\n    /* \"#utility.yul\":1062:1070   */\n  dup5\n    /* \"#utility.yul\":1056:1060   */\n  dup5\n    /* \"#utility.yul\":1035:1139   */\n  tag_22\n  jump\t// in\ntag_21:\n    /* \"#utility.yul\":1026:1139   */\n  swap1\n  pop\n    /* \"#utility.yul\":861:1146   */\n  swap3\n  swap2\n  pop\n  pop\n  jump\t// out\n    /* \"#utility.yul\":1152:2225   */\ntag_22:\n    /* \"#utility.yul\":1206:1211   */\n  0x00\n    /* \"#utility.yul\":1397:1405   */\n  dup3\n    /* \"#utility.yul\":1387:1427   */\n  tag_24\n  jumpi\n    /* \"#utility.yul\":1418:1419   */\n  0x01\n    /* \"#utility.yul\":1409:1419   */\n  swap1\n  pop\n    /* \"#utility.yul\":1420:1425   */\n  jump(tag_23)\n    /* \"#utility.yul\":1387:1427   */\ntag_24:\n    /* \"#utility.yul\":1446:1450   */\n  dup2\n    /* \"#utility.yul\":1436:1472   */\n  tag_25\n  jumpi\n    /* \"#utility.yul\":1463:1464   */\n  0x00\n    /* \"#utility.yul\":1454:1464   */\n  swap1\n  pop\n    /* \"#utility.yul\":1465:1470   */\n  jump(tag_23)\n    /* \"#utility.yul\":1436:1472   */\ntag_25:\n    /* \"#utility.yul\":1532:1536   */\n  dup2\n    /* \"#utility.yul\":1580:1581   */\n  0x01\n    /* \"#utility.yul\":1575:1602   */\n  dup2\n  eq\n  tag_27\n  jumpi\n    /* \"#utility.yul\":1616:1617   */\n  0x02\n    /* \"#utility.yul\":1611:1802   */\n  dup2\n  eq\n  tag_28\n  jumpi\n    /* \"#utility.yul\":1525:1802   */\n  jump(tag_26)\n    /* \"#utility.yul\":1575:1602   */\ntag_27:\n    /* \"#utility.yul\":1593:1594   */\n  0x01\n    /* \"#utility.yul\":1584:1594   */\n  swap2\n  pop\n    /* \"#utility.yul\":1595:1600   */\n  pop\n  jump(tag_23)\n    /* \"#utility.yul\":1611:1802   */\ntag_28:\n    /* \"#utility.yul\":1656:1659   */\n  0xff\n    /* \"#utility.yul\":1646:1654   */\n  dup5\n    /* \"#utility.yul\":1643:1660   */\n  gt\n    /* \"#utility.yul\":1640:1683   */\n  iszero\n  tag_29\n  jumpi\n    /* \"#utility.yul\":1663:1681   */\n  tag_30\n  tag_13\n  jump\t// in\ntag_30:\n    /* \"#utility.yul\":1640:1683   */\ntag_29:\n    /* \"#utility.yul\":1712:1720   */\n  dup4\n    /* \"#utility.yul\":1709:1710   */\n  0x02\n    /* \"#utility.yul\":1705:1721   */\n  exp\n    /* \"#utility.yul\":1696:1721   */\n  swap2\n  pop\n    /* \"#utility.yul\":1747:1750   */\n  dup5\n    /* \"#utility.yul\":1740:1745   */\n  dup3\n    /* \"#utility.yul\":1737:1751   */\n  gt\n    /* \"#utility.yul\":1734:1774   */\n  iszero\n  tag_31\n  jumpi\n    /* \"#utility.yul\":1754:1772   */\n  tag_32\n  tag_13\n  jump\t// in\ntag_32:\n    /* \"#utility.yul\":1734:1774   */\ntag_31:\n    /* \"#utility.yul\":1787:1792   */\n  pop\n  jump(tag_23)\n    /* \"#utility.yul\":1525:1802   */\ntag_26:\n  pop\n    /* \"#utility.yul\":1911:1913   */\n  0x20\n    /* \"#utility.yul\":1901:1909   */\n  dup4\n    /* \"#utility.yul\":1898:1914   */\n  lt\n    /* \"#utility.yul\":1892:1895   */\n  0x0133\n    /* \"#utility.yul\":1886:1890   */\n  dup4\n    /* \"#utility.yul\":1883:1896   */\n  lt\n    /* \"#utility.yul\":1879:1915   */\n  and\n    /* \"#utility.yul\":1861:1863   */\n  0x4e\n    /* \"#utility.yul\":1851:1859   */\n  dup5\n    /* \"#utility.yul\":1848:1864   */\n  lt\n    /* \"#utility.yul\":1843:1845   */\n  0x0b\n    /* \"#utility.yul\":1837:1841   */\n  dup5\n    /* \"#utility.yul\":1834:1846   */\n  lt\n    /* \"#utility.yul\":1830:1865   */\n  and\n    /* \"#utility.yul\":1814:1925   */\n  or\n    /* \"#utility.yul\":1811:2057   */\n  iszero\n  tag_33\n  jumpi\n    /* \"#utility.yul\":1967:1975   */\n  dup3\n    /* \"#utility.yul\":1961:1965   */\n  dup3\n    /* \"#utility.yul\":1957:1976   */\n  exp\n    /* \"#utility.yul\":1948:1976   */\n  swap1\n  pop\n    /* \"#utility.yul\":2002:2005   */\n  dup4\n    /* \"#utility.yul\":1995:2000   */\n  dup2\n    /* \"#utility.yul\":1992:2006   */\n  gt\n    /* \"#utility.yul\":1989:2029   */\n  iszero\n  tag_34\n  jumpi\n    /* \"#utility.yul\":2009:2027   */\n  tag_35\n  tag_13\n  jump\t// in\ntag_35:\n    /* \"#utility.yul\":1989:2029   */\ntag_34:\n    /* \"#utility.yul\":2042:2047   */\n  jump(tag_23)\n    /* \"#utility.yul\":1811:2057   */\ntag_33:\n    /* \"#utility.yul\":2082:2124   */\n  tag_36\n    /* \"#utility.yul\":2120:2123   */\n  dup5\n    /* \"#utility.yul\":2110:2118   */\n  dup5\n    /* \"#utility.yul\":2104:2108   */\n  dup5\n    /* \"#utility.yul\":2101:2102   */\n  0x01\n    /* \"#utility.yul\":2082:2124   */\n  tag_6\n  jump\t// in\ntag_36:\n    /* \"#utility.yul\":2067:2124   */\n  swap3\n  pop\n  swap1\n  pop\n    /* \"#utility.yul\":2156:2160   */\n  dup2\n    /* \"#utility.yul\":2151:2154   */\n  dup5\n    /* \"#utility.yul\":2147:2161   */\n  div\n    /* \"#utility.yul\":2140:2145   */\n  dup2\n    /* \"#utility.yul\":2137:2162   */\n  gt\n    /* \"#utility.yul\":2134:2185   */\n  iszero\n  tag_37\n  jumpi\n    /* \"#utility.yul\":2165:2183   */\n  tag_38\n  tag_13\n  jump\t// in\ntag_38:\n    /* \"#utility.yul\":2134:2185   */\ntag_37:\n    /* \"#utility.yul\":2214:2218   */\n  dup2\n    /* \"#utility.yul\":2207:2212   */\n  dup2\n    /* \"#utility.yul\":2203:2219   */\n  mul\n    /* \"#utility.yul\":2194:2219   */\n  swap1\n  pop\n    /* \"#utility.yul\":1152:2225   */\ntag_23:\n  swap4\n  swap3\n  pop\n  pop\n  pop\n  jump\t// out\n    /* \"#utility.yul\":2231:2308   */\ntag_19:\n    /* \"#utility.yul\":2268:2275   */\n  0x00\n    /* \"#utility.yul\":2297:2302   */\n  dup2\n    /* \"#utility.yul\":2286:2302   */\n  swap1\n  pop\n    /* \"#utility.yul\":2231:2308   */\n  swap2\n  swap1\n  pop\n  jump\t// out\n    /* \"#utility.yul\":2314:2494   */\ntag_13:\n    /* \"#utility.yul\":2362:2439   */\n  0x4e487b7100000000000000000000000000000000000000000000000000000000\n    /* \"#utility.yul\":2359:2360   */\n  0x00\n    /* \"#utility.yul\":2352:2440   */\n  mstore\n    /* \"#utility.yul\":2459:2463   */\n  0x11\n    /* \"#utility.yul\":2456:2457   */\n  0x04\n    /* \"#utility.yul\":2449:2464   */\n  mstore\n    /* \"#utility.yul\":2483:2487   */\n  0x24\n    /* \"#utility.yul\":2480:2481   */\n  0x00\n    /* \"#utility.yul\":2473:2488   */\n  revert\n    /* \"#utility.yul\":2500:2602   */\ntag_16:\n    /* \"#utility.yul\":2542:2550   */\n  0x00\n    /* \"#utility.yul\":2589:2594   */\n  dup2\n    /* \"#utility.yul\":2586:2587   */\n  0x01\n    /* \"#utility.yul\":2582:2595   */\n  shr\n    /* \"#utility.yul\":2561:2595   */\n  swap1\n  pop\n    /* \"#utility.yul\":2500:2602   */\n  swap2\n  swap1\n  pop\n  jump\t// out\n    /* \"contracts/Zombiefeeding.sol\":485:1440  contract ZombieFeeding is ZombieFactory {... */\ntag_4:\n  dataSize(sub_0)\n  dup1\n  dataOffset(sub_0)\n  0x00\n  codecopy\n  0x00\n  return\nstop\n\nsub_0: assembly {\n        /* \"contracts/Zombiefeeding.sol\":485:1440  contract ZombieFeeding is ZombieFactory {... */\n      mstore(0x40, 0x80)\n      callvalue\n      dup1\n      iszero\n      tag_1\n      jumpi\n      0x00\n      dup1\n      revert\n    tag_1:\n      pop\n      jumpi(tag_2, lt(calldatasize, 0x04))\n      shr(0xe0, calldataload(0x00))\n      dup1\n      0x17a7f4cc\n      eq\n      tag_3\n      jumpi\n      dup1\n      0x2052465e\n      eq\n      tag_4\n      jumpi\n      dup1\n      0x6b0bfc80\n      eq\n      tag_5\n      jumpi\n      dup1\n      0xc6f15112\n      eq\n      tag_6\n      jumpi\n    tag_2:\n      0x00\n      dup1\n      revert\n        /* \"contracts/Zombiefeeding.sol\":1215:1433  function feedOnKitty(uint _zombieId, uint _kittyId) public {... */\n    tag_3:\n      tag_7\n      0x04\n      dup1\n      calldatasize\n      sub\n      dup2\n      add\n      swap1\n      tag_8\n      swap2\n      swap1\n      tag_9\n      jump\t// in\n    tag_8:\n      tag_10\n      jump\t// in\n    tag_7:\n      stop\n        /* \"contracts/Zombiefactory.sol\":378:401  Zombie[] public zombies */\n    tag_4:\n      tag_11\n      0x04\n      dup1\n      calldatasize\n      sub\n      dup2\n      add\n      swap1\n      tag_12\n      swap2\n      swap1\n      tag_13\n      jump\t// in\n    tag_12:\n      tag_14\n      jump\t// in\n    tag_11:\n      mload(0x40)\n      tag_15\n      swap3\n      swap2\n      swap1\n      tag_16\n      jump\t// in\n    tag_15:\n      mload(0x40)\n      dup1\n      swap2\n      sub\n      swap1\n      return\n        /* \"contracts/Zombiefeeding.sol\":663:1209  function feedAndMultiply(uint _zombieId, uint _targetDna, string memory _species) public {... */\n    tag_5:\n      tag_17\n      0x04\n      dup1\n      calldatasize\n      sub\n      dup2\n      add\n      swap1\n      tag_18\n      swap2\n      swap1\n      tag_19\n      jump\t// in\n    tag_18:\n      tag_20\n      jump\t// in\n    tag_17:\n      stop\n        /* \"contracts/Zombiefactory.sol\":1416:1624  function generateRandomZombie(string memory _name) public {... */\n    tag_6:\n      tag_21\n      0x04\n      dup1\n      calldatasize\n      sub\n      dup2\n      add\n      swap1\n      tag_22\n      swap2\n      swap1\n      tag_23\n      jump\t// in\n    tag_22:\n      tag_24\n      jump\t// in\n    tag_21:\n      stop\n        /* \"contracts/Zombiefeeding.sol\":1215:1433  function feedOnKitty(uint _zombieId, uint _kittyId) public {... */\n    tag_10:\n        /* \"contracts/Zombiefeeding.sol\":1284:1297  uint kittyDna */\n      0x00\n        /* \"contracts/Zombiefeeding.sol\":1339:1352  kittyContract */\n      0x06\n      0x00\n      swap1\n      sload\n      swap1\n      0x0100\n      exp\n      swap1\n      div\n      0xffffffffffffffffffffffffffffffffffffffff\n      and\n        /* \"contracts/Zombiefeeding.sol\":1339:1361  kittyContract.getKitty */\n      0xffffffffffffffffffffffffffffffffffffffff\n      and\n      0xe98b7f4d\n        /* \"contracts/Zombiefeeding.sol\":1362:1370  _kittyId */\n      dup4\n        /* \"contracts/Zombiefeeding.sol\":1339:1371  kittyContract.getKitty(_kittyId) */\n      mload(0x40)\n      dup3\n      0xffffffff\n      and\n      0xe0\n      shl\n      dup2\n      mstore\n      0x04\n      add\n      tag_26\n      swap2\n      swap1\n      tag_27\n      jump\t// in\n    tag_26:\n      0x0140\n      mload(0x40)\n      dup1\n      dup4\n      sub\n      dup2\n      dup7\n      dup1\n      extcodesize\n      iszero\n      dup1\n      iszero\n      tag_28\n      jumpi\n      0x00\n      dup1\n      revert\n    tag_28:\n      pop\n      gas\n      staticcall\n      iszero\n      dup1\n      iszero\n      tag_30\n      jumpi\n      returndatasize\n      0x00\n      dup1\n      returndatacopy\n      revert(0x00, returndatasize)\n    tag_30:\n      pop\n      pop\n      pop\n      pop\n      mload(0x40)\n      returndatasize\n      not(0x1f)\n      0x1f\n      dup3\n      add\n      and\n      dup3\n      add\n      dup1\n      0x40\n      mstore\n      pop\n      dup2\n      add\n      swap1\n      tag_31\n      swap2\n      swap1\n      tag_32\n      jump\t// in\n    tag_31:\n        /* \"contracts/Zombiefeeding.sol\":1307:1371  ( , , , , , , , , , kittyDna) = kittyContract.getKitty(_kittyId) */\n      swap1\n      swap2\n      swap3\n      swap4\n      swap5\n      swap6\n      swap7\n      swap8\n      swap9\n      pop\n      swap1\n      swap2\n      swap3\n      swap4\n      swap5\n      swap6\n      swap7\n      swap8\n      pop\n      swap1\n      swap2\n      swap3\n      swap4\n      swap5\n      swap6\n      swap7\n      pop\n      swap1\n      swap2\n      swap3\n      swap4\n      swap5\n      swap6\n      pop\n      swap1\n      swap2\n      swap3\n      swap4\n      swap5\n      pop\n      swap1\n      swap2\n      swap3\n      swap4\n      pop\n      swap1\n      swap2\n      swap3\n      pop\n      swap1\n      swap2\n      pop\n      swap1\n      pop\n      dup1\n      swap2\n      pop\n      pop\n        /* \"contracts/Zombiefeeding.sol\":1381:1426  feedAndMultiply(_zombieId, kittyDna, \"kitty\") */\n      tag_33\n        /* \"contracts/Zombiefeeding.sol\":1397:1406  _zombieId */\n      dup4\n        /* \"contracts/Zombiefeeding.sol\":1408:1416  kittyDna */\n      dup3\n        /* \"contracts/Zombiefeeding.sol\":1381:1426  feedAndMultiply(_zombieId, kittyDna, \"kitty\") */\n      mload(0x40)\n      dup1\n      0x40\n      add\n      0x40\n      mstore\n      dup1\n      0x05\n      dup2\n      mstore\n      0x20\n      add\n      0x6b69747479000000000000000000000000000000000000000000000000000000\n      dup2\n      mstore\n      pop\n        /* \"contracts/Zombiefeeding.sol\":1381:1396  feedAndMultiply */\n      tag_20\n        /* \"contracts/Zombiefeeding.sol\":1381:1426  feedAndMultiply(_zombieId, kittyDna, \"kitty\") */\n      jump\t// in\n    tag_33:\n        /* \"contracts/Zombiefeeding.sol\":1274:1433  {... */\n      pop\n        /* \"contracts/Zombiefeeding.sol\":1215:1433  function feedOnKitty(uint _zombieId, uint _kittyId) public {... */\n      pop\n      pop\n      jump\t// out\n        /* \"contracts/Zombiefactory.sol\":378:401  Zombie[] public zombies */\n    tag_14:\n      0x02\n      dup2\n      dup2\n      sload\n      dup2\n      lt\n      tag_34\n      jumpi\n      0x00\n      dup1\n      revert\n    tag_34:\n      swap1\n      0x00\n      mstore\n      keccak256(0x00, 0x20)\n      swap1\n      0x02\n      mul\n      add\n      0x00\n      swap2\n      pop\n      swap1\n      pop\n      dup1\n      0x00\n      add\n      sload\n      swap1\n      dup1\n      0x01\n      add\n      dup1\n      sload\n      tag_36\n      swap1\n      tag_37\n      jump\t// in\n    tag_36:\n      dup1\n      0x1f\n      add\n      0x20\n      dup1\n      swap2\n      div\n      mul\n      0x20\n      add\n      mload(0x40)\n      swap1\n      dup2\n      add\n      0x40\n      mstore\n      dup1\n      swap3\n      swap2\n      swap1\n      dup2\n      dup2\n      mstore\n      0x20\n      add\n      dup3\n      dup1\n      sload\n      tag_38\n      swap1\n      tag_37\n      jump\t// in\n    tag_38:\n      dup1\n      iszero\n      tag_39\n      jumpi\n      dup1\n      0x1f\n      lt\n      tag_40\n      jumpi\n      0x0100\n      dup1\n      dup4\n      sload\n      div\n      mul\n      dup4\n      mstore\n      swap2\n      0x20\n      add\n      swap2\n      jump(tag_39)\n    tag_40:\n      dup3\n      add\n      swap2\n      swap1\n      0x00\n      mstore\n      keccak256(0x00, 0x20)\n      swap1\n    tag_41:\n      dup2\n      sload\n      dup2\n      mstore\n      swap1\n      0x01\n      add\n      swap1\n      0x20\n      add\n      dup1\n      dup4\n      gt\n      tag_41\n      jumpi\n      dup3\n      swap1\n      sub\n      0x1f\n      and\n      dup3\n      add\n      swap2\n    tag_39:\n      pop\n      pop\n      pop\n      pop\n      pop\n      swap1\n      pop\n      dup3\n      jump\t// out\n        /* \"contracts/Zombiefeeding.sol\":663:1209  function feedAndMultiply(uint _zombieId, uint _targetDna, string memory _species) public {... */\n    tag_20:\n        /* \"contracts/Zombiefeeding.sol\":802:803  0 */\n      0x00\n        /* \"contracts/Zombiefeeding.sol\":770:786  ownerZombieCount */\n      0x04\n        /* \"contracts/Zombiefeeding.sol\":770:798  ownerZombieCount[msg.sender] */\n      0x00\n        /* \"contracts/Zombiefeeding.sol\":787:797  msg.sender */\n      caller\n        /* \"contracts/Zombiefeeding.sol\":770:798  ownerZombieCount[msg.sender] */\n      0xffffffffffffffffffffffffffffffffffffffff\n      and\n      0xffffffffffffffffffffffffffffffffffffffff\n      and\n      dup2\n      mstore\n      0x20\n      add\n      swap1\n      dup2\n      mstore\n      0x20\n      add\n      0x00\n      keccak256\n      sload\n        /* \"contracts/Zombiefeeding.sol\":770:803  ownerZombieCount[msg.sender] == 0 */\n      eq\n        /* \"contracts/Zombiefeeding.sol\":762:804  require(ownerZombieCount[msg.sender] == 0) */\n      tag_43\n      jumpi\n      0x00\n      dup1\n      revert\n    tag_43:\n        /* \"contracts/Zombiefeeding.sol\":841:864  Zombie storage myZombie */\n      0x00\n        /* \"contracts/Zombiefeeding.sol\":867:874  zombies */\n      0x02\n        /* \"contracts/Zombiefeeding.sol\":875:884  _zombieId */\n      dup5\n        /* \"contracts/Zombiefeeding.sol\":867:885  zombies[_zombieId] */\n      dup2\n      sload\n      dup2\n      lt\n      tag_44\n      jumpi\n      tag_45\n      tag_46\n      jump\t// in\n    tag_45:\n    tag_44:\n      swap1\n      0x00\n      mstore\n      keccak256(0x00, 0x20)\n      swap1\n      0x02\n      mul\n      add\n        /* \"contracts/Zombiefeeding.sol\":841:885  Zombie storage myZombie = zombies[_zombieId] */\n      swap1\n      pop\n        /* \"contracts/Zombiefeeding.sol\":921:931  dnaModulus */\n      sload(0x01)\n        /* \"contracts/Zombiefeeding.sol\":908:918  _targetDna */\n      dup4\n        /* \"contracts/Zombiefeeding.sol\":908:931  _targetDna % dnaModulus */\n      tag_48\n      swap2\n      swap1\n      tag_49\n      jump\t// in\n    tag_48:\n        /* \"contracts/Zombiefeeding.sol\":895:931  _targetDna = _targetDna % dnaModulus */\n      swap3\n      pop\n        /* \"contracts/Zombiefeeding.sol\":964:975  uint newDna */\n      0x00\n        /* \"contracts/Zombiefeeding.sol\":1008:1009  2 */\n      0x02\n        /* \"contracts/Zombiefeeding.sol\":992:1000  myZombie */\n      dup3\n        /* \"contracts/Zombiefeeding.sol\":992:1004  myZombie.dna */\n      0x00\n      add\n      sload\n        /* \"contracts/Zombiefeeding.sol\":979:989  _targetDna */\n      dup6\n        /* \"contracts/Zombiefeeding.sol\":979:1004  _targetDna + myZombie.dna */\n      tag_50\n      swap2\n      swap1\n      tag_51\n      jump\t// in\n    tag_50:\n        /* \"contracts/Zombiefeeding.sol\":978:1009  (_targetDna + myZombie.dna) / 2 */\n      tag_52\n      swap2\n      swap1\n      tag_53\n      jump\t// in\n    tag_52:\n        /* \"contracts/Zombiefeeding.sol\":964:1009  uint newDna = (_targetDna + myZombie.dna) / 2 */\n      swap1\n      pop\n        /* \"contracts/Zombiefeeding.sol\":1074:1099  abi.encodePacked(\"kitty\") */\n      add(0x20, mload(0x40))\n      tag_54\n      swap1\n      tag_55\n      jump\t// in\n    tag_54:\n      mload(0x40)\n      0x20\n      dup2\n      dup4\n      sub\n      sub\n      dup2\n      mstore\n      swap1\n      0x40\n      mstore\n        /* \"contracts/Zombiefeeding.sol\":1064:1100  keccak256(abi.encodePacked(\"kitty\")) */\n      dup1\n      mload\n      swap1\n      0x20\n      add\n      keccak256\n        /* \"contracts/Zombiefeeding.sol\":1050:1058  _species */\n      dup4\n        /* \"contracts/Zombiefeeding.sol\":1033:1059  abi.encodePacked(_species) */\n      add(0x20, mload(0x40))\n      tag_56\n      swap2\n      swap1\n      tag_57\n      jump\t// in\n    tag_56:\n      mload(0x40)\n      0x20\n      dup2\n      dup4\n      sub\n      sub\n      dup2\n      mstore\n      swap1\n      0x40\n      mstore\n        /* \"contracts/Zombiefeeding.sol\":1023:1060  keccak256(abi.encodePacked(_species)) */\n      dup1\n      mload\n      swap1\n      0x20\n      add\n      keccak256\n        /* \"contracts/Zombiefeeding.sol\":1023:1100  keccak256(abi.encodePacked(_species)) == keccak256(abi.encodePacked(\"kitty\")) */\n      eq\n        /* \"contracts/Zombiefeeding.sol\":1019:1162  if (keccak256(abi.encodePacked(_species)) == keccak256(abi.encodePacked(\"kitty\"))) {... */\n      iszero\n      tag_58\n      jumpi\n        /* \"contracts/Zombiefeeding.sol\":1149:1151  99 */\n      0x63\n        /* \"contracts/Zombiefeeding.sol\":1143:1146  100 */\n      0x64\n        /* \"contracts/Zombiefeeding.sol\":1134:1140  newDna */\n      dup3\n        /* \"contracts/Zombiefeeding.sol\":1134:1146  newDna % 100 */\n      tag_59\n      swap2\n      swap1\n      tag_49\n      jump\t// in\n    tag_59:\n        /* \"contracts/Zombiefeeding.sol\":1125:1131  newDna */\n      dup3\n        /* \"contracts/Zombiefeeding.sol\":1125:1146  newDna - newDna % 100 */\n      tag_60\n      swap2\n      swap1\n      tag_61\n      jump\t// in\n    tag_60:\n        /* \"contracts/Zombiefeeding.sol\":1125:1151  newDna - newDna % 100 + 99 */\n      tag_62\n      swap2\n      swap1\n      tag_51\n      jump\t// in\n    tag_62:\n        /* \"contracts/Zombiefeeding.sol\":1116:1151  newDna = newDna - newDna % 100 + 99 */\n      swap1\n      pop\n        /* \"contracts/Zombiefeeding.sol\":1019:1162  if (keccak256(abi.encodePacked(_species)) == keccak256(abi.encodePacked(\"kitty\"))) {... */\n    tag_58:\n        /* \"contracts/Zombiefeeding.sol\":1171:1202  _createZombie(\"NoName\", newDna) */\n      tag_63\n      mload(0x40)\n      dup1\n      0x40\n      add\n      0x40\n      mstore\n      dup1\n      0x06\n      dup2\n      mstore\n      0x20\n      add\n      0x4e6f4e616d650000000000000000000000000000000000000000000000000000\n      dup2\n      mstore\n      pop\n        /* \"contracts/Zombiefeeding.sol\":1195:1201  newDna */\n      dup3\n        /* \"contracts/Zombiefeeding.sol\":1171:1184  _createZombie */\n      tag_64\n        /* \"contracts/Zombiefeeding.sol\":1171:1202  _createZombie(\"NoName\", newDna) */\n      jump\t// in\n    tag_63:\n        /* \"contracts/Zombiefeeding.sol\":752:1209  {... */\n      pop\n      pop\n        /* \"contracts/Zombiefeeding.sol\":663:1209  function feedAndMultiply(uint _zombieId, uint _targetDna, string memory _species) public {... */\n      pop\n      pop\n      pop\n      jump\t// out\n        /* \"contracts/Zombiefactory.sol\":1416:1624  function generateRandomZombie(string memory _name) public {... */\n    tag_24:\n        /* \"contracts/Zombiefactory.sol\":1524:1525  0 */\n      0x00\n        /* \"contracts/Zombiefactory.sol\":1492:1508  ownerZombieCount */\n      0x04\n        /* \"contracts/Zombiefactory.sol\":1492:1520  ownerZombieCount[msg.sender] */\n      0x00\n        /* \"contracts/Zombiefactory.sol\":1509:1519  msg.sender */\n      caller\n        /* \"contracts/Zombiefactory.sol\":1492:1520  ownerZombieCount[msg.sender] */\n      0xffffffffffffffffffffffffffffffffffffffff\n      and\n      0xffffffffffffffffffffffffffffffffffffffff\n      and\n      dup2\n      mstore\n      0x20\n      add\n      swap1\n      dup2\n      mstore\n      0x20\n      add\n      0x00\n      keccak256\n      sload\n        /* \"contracts/Zombiefactory.sol\":1492:1525  ownerZombieCount[msg.sender] == 0 */\n      eq\n        /* \"contracts/Zombiefactory.sol\":1484:1526  require(ownerZombieCount[msg.sender] == 0) */\n      tag_66\n      jumpi\n      0x00\n      dup1\n      revert\n    tag_66:\n        /* \"contracts/Zombiefactory.sol\":1538:1550  uint randDna */\n      0x00\n        /* \"contracts/Zombiefactory.sol\":1553:1578  _generateRandomDna(_name) */\n      tag_67\n        /* \"contracts/Zombiefactory.sol\":1572:1577  _name */\n      dup3\n        /* \"contracts/Zombiefactory.sol\":1553:1571  _generateRandomDna */\n      tag_68\n        /* \"contracts/Zombiefactory.sol\":1553:1578  _generateRandomDna(_name) */\n      jump\t// in\n    tag_67:\n        /* \"contracts/Zombiefactory.sol\":1538:1578  uint randDna = _generateRandomDna(_name) */\n      swap1\n      pop\n        /* \"contracts/Zombiefactory.sol\":1588:1617  _createZombie(_name, randDna) */\n      tag_69\n        /* \"contracts/Zombiefactory.sol\":1602:1607  _name */\n      dup3\n        /* \"contracts/Zombiefactory.sol\":1609:1616  randDna */\n      dup3\n        /* \"contracts/Zombiefactory.sol\":1588:1601  _createZombie */\n      tag_64\n        /* \"contracts/Zombiefactory.sol\":1588:1617  _createZombie(_name, randDna) */\n      jump\t// in\n    tag_69:\n        /* \"contracts/Zombiefactory.sol\":1474:1624  {... */\n      pop\n        /* \"contracts/Zombiefactory.sol\":1416:1624  function generateRandomZombie(string memory _name) public {... */\n      pop\n      jump\t// out\n        /* \"contracts/Zombiefactory.sol\":852:1119  function _createZombie(string memory _name, uint _dna) internal {... */\n    tag_64:\n        /* \"contracts/Zombiefactory.sol\":926:933  zombies */\n      0x02\n        /* \"contracts/Zombiefactory.sol\":939:958  Zombie(_dna, _name) */\n      mload(0x40)\n      dup1\n      0x40\n      add\n      0x40\n      mstore\n      dup1\n        /* \"contracts/Zombiefactory.sol\":946:950  _dna */\n      dup4\n        /* \"contracts/Zombiefactory.sol\":939:958  Zombie(_dna, _name) */\n      dup2\n      mstore\n      0x20\n      add\n        /* \"contracts/Zombiefactory.sol\":952:957  _name */\n      dup5\n        /* \"contracts/Zombiefactory.sol\":939:958  Zombie(_dna, _name) */\n      dup2\n      mstore\n      pop\n        /* \"contracts/Zombiefactory.sol\":926:959  zombies.push(Zombie(_dna, _name)) */\n      swap1\n      dup1\n      0x01\n      dup2\n      sload\n      add\n      dup1\n      dup3\n      sstore\n      dup1\n      swap2\n      pop\n      pop\n      0x01\n      swap1\n      sub\n      swap1\n      0x00\n      mstore\n      keccak256(0x00, 0x20)\n      swap1\n      0x02\n      mul\n      add\n      0x00\n      swap1\n      swap2\n      swap1\n      swap2\n      swap1\n      swap2\n      pop\n      0x00\n      dup3\n      add\n      mload\n      dup2\n      0x00\n      add\n      sstore\n      0x20\n      dup3\n      add\n      mload\n      dup2\n      0x01\n      add\n      swap1\n      dup1\n      mload\n      swap1\n      0x20\n      add\n      swap1\n      tag_72\n      swap3\n      swap2\n      swap1\n      tag_73\n      jump\t// in\n    tag_72:\n      pop\n      pop\n      pop\n        /* \"contracts/Zombiefactory.sol\":1005:1015  msg.sender */\n      caller\n        /* \"contracts/Zombiefactory.sol\":969:982  zombieToOwner */\n      0x03\n        /* \"contracts/Zombiefactory.sol\":969:1002  zombieToOwner[zombies.length - 1] */\n      0x00\n        /* \"contracts/Zombiefactory.sol\":1000:1001  1 */\n      0x01\n        /* \"contracts/Zombiefactory.sol\":983:990  zombies */\n      0x02\n        /* \"contracts/Zombiefactory.sol\":983:997  zombies.length */\n      dup1\n      sload\n      swap1\n      pop\n        /* \"contracts/Zombiefactory.sol\":983:1001  zombies.length - 1 */\n      tag_74\n      swap2\n      swap1\n      tag_61\n      jump\t// in\n    tag_74:\n        /* \"contracts/Zombiefactory.sol\":969:1002  zombieToOwner[zombies.length - 1] */\n      dup2\n      mstore\n      0x20\n      add\n      swap1\n      dup2\n      mstore\n      0x20\n      add\n      0x00\n      keccak256\n      0x00\n        /* \"contracts/Zombiefactory.sol\":969:1015  zombieToOwner[zombies.length - 1] = msg.sender */\n      0x0100\n      exp\n      dup2\n      sload\n      dup2\n      0xffffffffffffffffffffffffffffffffffffffff\n      mul\n      not\n      and\n      swap1\n      dup4\n      0xffffffffffffffffffffffffffffffffffffffff\n      and\n      mul\n      or\n      swap1\n      sstore\n      pop\n        /* \"contracts/Zombiefactory.sol\":1025:1041  ownerZombieCount */\n      0x04\n        /* \"contracts/Zombiefactory.sol\":1025:1053  ownerZombieCount[msg.sender] */\n      0x00\n        /* \"contracts/Zombiefactory.sol\":1042:1052  msg.sender */\n      caller\n        /* \"contracts/Zombiefactory.sol\":1025:1053  ownerZombieCount[msg.sender] */\n      0xffffffffffffffffffffffffffffffffffffffff\n      and\n      0xffffffffffffffffffffffffffffffffffffffff\n      and\n      dup2\n      mstore\n      0x20\n      add\n      swap1\n      dup2\n      mstore\n      0x20\n      add\n      0x00\n      keccak256\n      0x00\n        /* \"contracts/Zombiefactory.sol\":1025:1055  ownerZombieCount[msg.sender]++ */\n      dup2\n      sload\n      dup1\n      swap3\n      swap2\n      swap1\n      tag_75\n      swap1\n      tag_76\n      jump\t// in\n    tag_75:\n      swap2\n      swap1\n      pop\n      sstore\n      pop\n        /* \"contracts/Zombiefactory.sol\":1070:1112  NewZombie(zombies.length - 1, _name, _dna) */\n      0x88f026aacbbecc90c18411df4b1185fd8d9be2470f1962f192bf84a27d0704b7\n        /* \"contracts/Zombiefactory.sol\":1097:1098  1 */\n      0x01\n        /* \"contracts/Zombiefactory.sol\":1080:1087  zombies */\n      0x02\n        /* \"contracts/Zombiefactory.sol\":1080:1094  zombies.length */\n      dup1\n      sload\n      swap1\n      pop\n        /* \"contracts/Zombiefactory.sol\":1080:1098  zombies.length - 1 */\n      tag_77\n      swap2\n      swap1\n      tag_61\n      jump\t// in\n    tag_77:\n        /* \"contracts/Zombiefactory.sol\":1100:1105  _name */\n      dup4\n        /* \"contracts/Zombiefactory.sol\":1107:1111  _dna */\n      dup4\n        /* \"contracts/Zombiefactory.sol\":1070:1112  NewZombie(zombies.length - 1, _name, _dna) */\n      mload(0x40)\n      tag_78\n      swap4\n      swap3\n      swap2\n      swap1\n      tag_79\n      jump\t// in\n    tag_78:\n      mload(0x40)\n      dup1\n      swap2\n      sub\n      swap1\n      log1\n        /* \"contracts/Zombiefactory.sol\":852:1119  function _createZombie(string memory _name, uint _dna) internal {... */\n      pop\n      pop\n      jump\t// out\n        /* \"contracts/Zombiefactory.sol\":1230:1410  function _generateRandomDna(string memory _str) private view returns (uint) {... */\n    tag_68:\n        /* \"contracts/Zombiefactory.sol\":1300:1304  uint */\n      0x00\n        /* \"contracts/Zombiefactory.sol\":1316:1325  uint rand */\n      dup1\n        /* \"contracts/Zombiefactory.sol\":1362:1366  _str */\n      dup3\n        /* \"contracts/Zombiefactory.sol\":1345:1367  abi.encodePacked(_str) */\n      add(0x20, mload(0x40))\n      tag_81\n      swap2\n      swap1\n      tag_57\n      jump\t// in\n    tag_81:\n      mload(0x40)\n      0x20\n      dup2\n      dup4\n      sub\n      sub\n      dup2\n      mstore\n      swap1\n      0x40\n      mstore\n        /* \"contracts/Zombiefactory.sol\":1335:1368  keccak256(abi.encodePacked(_str)) */\n      dup1\n      mload\n      swap1\n      0x20\n      add\n      keccak256\n        /* \"contracts/Zombiefactory.sol\":1330:1369  uint(keccak256(abi.encodePacked(_str))) */\n      0x00\n      shr\n        /* \"contracts/Zombiefactory.sol\":1316:1369  uint rand  =  uint(keccak256(abi.encodePacked(_str))) */\n      swap1\n      pop\n        /* \"contracts/Zombiefactory.sol\":1393:1403  dnaModulus */\n      sload(0x01)\n        /* \"contracts/Zombiefactory.sol\":1386:1390  rand */\n      dup2\n        /* \"contracts/Zombiefactory.sol\":1386:1403  rand % dnaModulus */\n      tag_82\n      swap2\n      swap1\n      tag_49\n      jump\t// in\n    tag_82:\n        /* \"contracts/Zombiefactory.sol\":1379:1403  return rand % dnaModulus */\n      swap2\n      pop\n      pop\n        /* \"contracts/Zombiefactory.sol\":1230:1410  function _generateRandomDna(string memory _str) private view returns (uint) {... */\n      swap2\n      swap1\n      pop\n      jump\t// out\n    tag_73:\n      dup3\n      dup1\n      sload\n      tag_83\n      swap1\n      tag_37\n      jump\t// in\n    tag_83:\n      swap1\n      0x00\n      mstore\n      keccak256(0x00, 0x20)\n      swap1\n      0x1f\n      add\n      0x20\n      swap1\n      div\n      dup2\n      add\n      swap3\n      dup3\n      tag_85\n      jumpi\n      0x00\n      dup6\n      sstore\n      jump(tag_84)\n    tag_85:\n      dup3\n      0x1f\n      lt\n      tag_86\n      jumpi\n      dup1\n      mload\n      not(0xff)\n      and\n      dup4\n      dup1\n      add\n      or\n      dup6\n      sstore\n      jump(tag_84)\n    tag_86:\n      dup3\n      dup1\n      add\n      0x01\n      add\n      dup6\n      sstore\n      dup3\n      iszero\n      tag_84\n      jumpi\n      swap2\n      dup3\n      add\n    tag_87:\n      dup3\n      dup2\n      gt\n      iszero\n      tag_88\n      jumpi\n      dup3\n      mload\n      dup3\n      sstore\n      swap2\n      0x20\n      add\n      swap2\n      swap1\n      0x01\n      add\n      swap1\n      jump(tag_87)\n    tag_88:\n    tag_84:\n      pop\n      swap1\n      pop\n      tag_89\n      swap2\n      swap1\n      tag_90\n      jump\t// in\n    tag_89:\n      pop\n      swap1\n      jump\t// out\n    tag_90:\n    tag_91:\n      dup1\n      dup3\n      gt\n      iszero\n      tag_92\n      jumpi\n      0x00\n      dup2\n      0x00\n      swap1\n      sstore\n      pop\n      0x01\n      add\n      jump(tag_91)\n    tag_92:\n      pop\n      swap1\n      jump\t// out\n        /* \"#utility.yul\":7:419   */\n    tag_94:\n        /* \"#utility.yul\":85:90   */\n      0x00\n        /* \"#utility.yul\":110:176   */\n      tag_96\n        /* \"#utility.yul\":126:175   */\n      tag_97\n        /* \"#utility.yul\":168:174   */\n      dup5\n        /* \"#utility.yul\":126:175   */\n      tag_98\n      jump\t// in\n    tag_97:\n        /* \"#utility.yul\":110:176   */\n      tag_99\n      jump\t// in\n    tag_96:\n        /* \"#utility.yul\":101:176   */\n      swap1\n      pop\n        /* \"#utility.yul\":199:205   */\n      dup3\n        /* \"#utility.yul\":192:197   */\n      dup2\n        /* \"#utility.yul\":185:206   */\n      mstore\n        /* \"#utility.yul\":237:241   */\n      0x20\n        /* \"#utility.yul\":230:235   */\n      dup2\n        /* \"#utility.yul\":226:242   */\n      add\n        /* \"#utility.yul\":275:278   */\n      dup5\n        /* \"#utility.yul\":266:272   */\n      dup5\n        /* \"#utility.yul\":261:264   */\n      dup5\n        /* \"#utility.yul\":257:273   */\n      add\n        /* \"#utility.yul\":254:279   */\n      gt\n        /* \"#utility.yul\":251:363   */\n      iszero\n      tag_100\n      jumpi\n        /* \"#utility.yul\":282:361   */\n      tag_101\n      tag_102\n      jump\t// in\n    tag_101:\n        /* \"#utility.yul\":251:363   */\n    tag_100:\n        /* \"#utility.yul\":372:413   */\n      tag_103\n        /* \"#utility.yul\":406:412   */\n      dup5\n        /* \"#utility.yul\":401:404   */\n      dup3\n        /* \"#utility.yul\":396:399   */\n      dup6\n        /* \"#utility.yul\":372:413   */\n      tag_104\n      jump\t// in\n    tag_103:\n        /* \"#utility.yul\":91:419   */\n      pop\n        /* \"#utility.yul\":7:419   */\n      swap4\n      swap3\n      pop\n      pop\n      pop\n      jump\t// out\n        /* \"#utility.yul\":425:562   */\n    tag_105:\n        /* \"#utility.yul\":479:484   */\n      0x00\n        /* \"#utility.yul\":510:516   */\n      dup2\n        /* \"#utility.yul\":504:517   */\n      mload\n        /* \"#utility.yul\":495:517   */\n      swap1\n      pop\n        /* \"#utility.yul\":526:556   */\n      tag_107\n        /* \"#utility.yul\":550:555   */\n      dup2\n        /* \"#utility.yul\":526:556   */\n      tag_108\n      jump\t// in\n    tag_107:\n        /* \"#utility.yul\":425:562   */\n      swap3\n      swap2\n      pop\n      pop\n      jump\t// out\n        /* \"#utility.yul\":582:922   */\n    tag_109:\n        /* \"#utility.yul\":638:643   */\n      0x00\n        /* \"#utility.yul\":687:690   */\n      dup3\n        /* \"#utility.yul\":680:684   */\n      0x1f\n        /* \"#utility.yul\":672:678   */\n      dup4\n        /* \"#utility.yul\":668:685   */\n      add\n        /* \"#utility.yul\":664:691   */\n      slt\n        /* \"#utility.yul\":654:776   */\n      tag_111\n      jumpi\n        /* \"#utility.yul\":695:774   */\n      tag_112\n      tag_113\n      jump\t// in\n    tag_112:\n        /* \"#utility.yul\":654:776   */\n    tag_111:\n        /* \"#utility.yul\":812:818   */\n      dup2\n        /* \"#utility.yul\":799:819   */\n      calldataload\n        /* \"#utility.yul\":837:916   */\n      tag_114\n        /* \"#utility.yul\":912:915   */\n      dup5\n        /* \"#utility.yul\":904:910   */\n      dup3\n        /* \"#utility.yul\":897:901   */\n      0x20\n        /* \"#utility.yul\":889:895   */\n      dup7\n        /* \"#utility.yul\":885:902   */\n      add\n        /* \"#utility.yul\":837:916   */\n      tag_94\n      jump\t// in\n    tag_114:\n        /* \"#utility.yul\":828:916   */\n      swap2\n      pop\n        /* \"#utility.yul\":644:922   */\n      pop\n        /* \"#utility.yul\":582:922   */\n      swap3\n      swap2\n      pop\n      pop\n      jump\t// out\n        /* \"#utility.yul\":928:1067   */\n    tag_115:\n        /* \"#utility.yul\":974:979   */\n      0x00\n        /* \"#utility.yul\":1012:1018   */\n      dup2\n        /* \"#utility.yul\":999:1019   */\n      calldataload\n        /* \"#utility.yul\":990:1019   */\n      swap1\n      pop\n        /* \"#utility.yul\":1028:1061   */\n      tag_117\n        /* \"#utility.yul\":1055:1060   */\n      dup2\n        /* \"#utility.yul\":1028:1061   */\n      tag_118\n      jump\t// in\n    tag_117:\n        /* \"#utility.yul\":928:1067   */\n      swap3\n      swap2\n      pop\n      pop\n      jump\t// out\n        /* \"#utility.yul\":1073:1216   */\n    tag_119:\n        /* \"#utility.yul\":1130:1135   */\n      0x00\n        /* \"#utility.yul\":1161:1167   */\n      dup2\n        /* \"#utility.yul\":1155:1168   */\n      mload\n        /* \"#utility.yul\":1146:1168   */\n      swap1\n      pop\n        /* \"#utility.yul\":1177:1210   */\n      tag_121\n        /* \"#utility.yul\":1204:1209   */\n      dup2\n        /* \"#utility.yul\":1177:1210   */\n      tag_118\n      jump\t// in\n    tag_121:\n        /* \"#utility.yul\":1073:1216   */\n      swap3\n      swap2\n      pop\n      pop\n      jump\t// out\n        /* \"#utility.yul\":1222:2972   */\n    tag_32:\n        /* \"#utility.yul\":1367:1373   */\n      0x00\n        /* \"#utility.yul\":1375:1381   */\n      dup1\n        /* \"#utility.yul\":1383:1389   */\n      0x00\n        /* \"#utility.yul\":1391:1397   */\n      dup1\n        /* \"#utility.yul\":1399:1405   */\n      0x00\n        /* \"#utility.yul\":1407:1413   */\n      dup1\n        /* \"#utility.yul\":1415:1421   */\n      0x00\n        /* \"#utility.yul\":1423:1429   */\n      dup1\n        /* \"#utility.yul\":1431:1437   */\n      0x00\n        /* \"#utility.yul\":1439:1445   */\n      dup1\n        /* \"#utility.yul\":1488:1491   */\n      0x0140\n        /* \"#utility.yul\":1476:1485   */\n      dup12\n        /* \"#utility.yul\":1467:1474   */\n      dup14\n        /* \"#utility.yul\":1463:1486   */\n      sub\n        /* \"#utility.yul\":1459:1492   */\n      slt\n        /* \"#utility.yul\":1456:1576   */\n      iszero\n      tag_123\n      jumpi\n        /* \"#utility.yul\":1495:1574   */\n      tag_124\n      tag_125\n      jump\t// in\n    tag_124:\n        /* \"#utility.yul\":1456:1576   */\n    tag_123:\n        /* \"#utility.yul\":1615:1616   */\n      0x00\n        /* \"#utility.yul\":1640:1701   */\n      tag_126\n        /* \"#utility.yul\":1693:1700   */\n      dup14\n        /* \"#utility.yul\":1684:1690   */\n      dup3\n        /* \"#utility.yul\":1673:1682   */\n      dup15\n        /* \"#utility.yul\":1669:1691   */\n      add\n        /* \"#utility.yul\":1640:1701   */\n      tag_105\n      jump\t// in\n    tag_126:\n        /* \"#utility.yul\":1630:1701   */\n      swap11\n      pop\n        /* \"#utility.yul\":1586:1711   */\n      pop\n        /* \"#utility.yul\":1750:1752   */\n      0x20\n        /* \"#utility.yul\":1776:1837   */\n      tag_127\n        /* \"#utility.yul\":1829:1836   */\n      dup14\n        /* \"#utility.yul\":1820:1826   */\n      dup3\n        /* \"#utility.yul\":1809:1818   */\n      dup15\n        /* \"#utility.yul\":1805:1827   */\n      add\n        /* \"#utility.yul\":1776:1837   */\n      tag_105\n      jump\t// in\n    tag_127:\n        /* \"#utility.yul\":1766:1837   */\n      swap10\n      pop\n        /* \"#utility.yul\":1721:1847   */\n      pop\n        /* \"#utility.yul\":1886:1888   */\n      0x40\n        /* \"#utility.yul\":1912:1976   */\n      tag_128\n        /* \"#utility.yul\":1968:1975   */\n      dup14\n        /* \"#utility.yul\":1959:1965   */\n      dup3\n        /* \"#utility.yul\":1948:1957   */\n      dup15\n        /* \"#utility.yul\":1944:1966   */\n      add\n        /* \"#utility.yul\":1912:1976   */\n      tag_119\n      jump\t// in\n    tag_128:\n        /* \"#utility.yul\":1902:1976   */\n      swap9\n      pop\n        /* \"#utility.yul\":1857:1986   */\n      pop\n        /* \"#utility.yul\":2025:2027   */\n      0x60\n        /* \"#utility.yul\":2051:2115   */\n      tag_129\n        /* \"#utility.yul\":2107:2114   */\n      dup14\n        /* \"#utility.yul\":2098:2104   */\n      dup3\n        /* \"#utility.yul\":2087:2096   */\n      dup15\n        /* \"#utility.yul\":2083:2105   */\n      add\n        /* \"#utility.yul\":2051:2115   */\n      tag_119\n      jump\t// in\n    tag_129:\n        /* \"#utility.yul\":2041:2115   */\n      swap8\n      pop\n        /* \"#utility.yul\":1996:2125   */\n      pop\n        /* \"#utility.yul\":2164:2167   */\n      0x80\n        /* \"#utility.yul\":2191:2255   */\n      tag_130\n        /* \"#utility.yul\":2247:2254   */\n      dup14\n        /* \"#utility.yul\":2238:2244   */\n      dup3\n        /* \"#utility.yul\":2227:2236   */\n      dup15\n        /* \"#utility.yul\":2223:2245   */\n      add\n        /* \"#utility.yul\":2191:2255   */\n      tag_119\n      jump\t// in\n    tag_130:\n        /* \"#utility.yul\":2181:2255   */\n      swap7\n      pop\n        /* \"#utility.yul\":2135:2265   */\n      pop\n        /* \"#utility.yul\":2304:2307   */\n      0xa0\n        /* \"#utility.yul\":2331:2395   */\n      tag_131\n        /* \"#utility.yul\":2387:2394   */\n      dup14\n        /* \"#utility.yul\":2378:2384   */\n      dup3\n        /* \"#utility.yul\":2367:2376   */\n      dup15\n        /* \"#utility.yul\":2363:2385   */\n      add\n        /* \"#utility.yul\":2331:2395   */\n      tag_119\n      jump\t// in\n    tag_131:\n        /* \"#utility.yul\":2321:2395   */\n      swap6\n      pop\n        /* \"#utility.yul\":2275:2405   */\n      pop\n        /* \"#utility.yul\":2444:2447   */\n      0xc0\n        /* \"#utility.yul\":2471:2535   */\n      tag_132\n        /* \"#utility.yul\":2527:2534   */\n      dup14\n        /* \"#utility.yul\":2518:2524   */\n      dup3\n        /* \"#utility.yul\":2507:2516   */\n      dup15\n        /* \"#utility.yul\":2503:2525   */\n      add\n        /* \"#utility.yul\":2471:2535   */\n      tag_119\n      jump\t// in\n    tag_132:\n        /* \"#utility.yul\":2461:2535   */\n      swap5\n      pop\n        /* \"#utility.yul\":2415:2545   */\n      pop\n        /* \"#utility.yul\":2584:2587   */\n      0xe0\n        /* \"#utility.yul\":2611:2675   */\n      tag_133\n        /* \"#utility.yul\":2667:2674   */\n      dup14\n        /* \"#utility.yul\":2658:2664   */\n      dup3\n        /* \"#utility.yul\":2647:2656   */\n      dup15\n        /* \"#utility.yul\":2643:2665   */\n      add\n        /* \"#utility.yul\":2611:2675   */\n      tag_119\n      jump\t// in\n    tag_133:\n        /* \"#utility.yul\":2601:2675   */\n      swap4\n      pop\n        /* \"#utility.yul\":2555:2685   */\n      pop\n        /* \"#utility.yul\":2724:2727   */\n      0x0100\n        /* \"#utility.yul\":2751:2815   */\n      tag_134\n        /* \"#utility.yul\":2807:2814   */\n      dup14\n        /* \"#utility.yul\":2798:2804   */\n      dup3\n        /* \"#utility.yul\":2787:2796   */\n      dup15\n        /* \"#utility.yul\":2783:2805   */\n      add\n        /* \"#utility.yul\":2751:2815   */\n      tag_119\n      jump\t// in\n    tag_134:\n        /* \"#utility.yul\":2741:2815   */\n      swap3\n      pop\n        /* \"#utility.yul\":2695:2825   */\n      pop\n        /* \"#utility.yul\":2864:2867   */\n      0x0120\n        /* \"#utility.yul\":2891:2955   */\n      tag_135\n        /* \"#utility.yul\":2947:2954   */\n      dup14\n        /* \"#utility.yul\":2938:2944   */\n      dup3\n        /* \"#utility.yul\":2927:2936   */\n      dup15\n        /* \"#utility.yul\":2923:2945   */\n      add\n        /* \"#utility.yul\":2891:2955   */\n      tag_119\n      jump\t// in\n    tag_135:\n        /* \"#utility.yul\":2881:2955   */\n      swap2\n      pop\n        /* \"#utility.yul\":2835:2965   */\n      pop\n        /* \"#utility.yul\":1222:2972   */\n      swap3\n      swap6\n      swap9\n      swap12\n      swap2\n      swap5\n      swap8\n      swap11\n      pop\n      swap3\n      swap6\n      swap9\n      pop\n      jump\t// out\n        /* \"#utility.yul\":2978:3487   */\n    tag_23:\n        /* \"#utility.yul\":3047:3053   */\n      0x00\n        /* \"#utility.yul\":3096:3098   */\n      0x20\n        /* \"#utility.yul\":3084:3093   */\n      dup3\n        /* \"#utility.yul\":3075:3082   */\n      dup5\n        /* \"#utility.yul\":3071:3094   */\n      sub\n        /* \"#utility.yul\":3067:3099   */\n      slt\n        /* \"#utility.yul\":3064:3183   */\n      iszero\n      tag_137\n      jumpi\n        /* \"#utility.yul\":3102:3181   */\n      tag_138\n      tag_125\n      jump\t// in\n    tag_138:\n        /* \"#utility.yul\":3064:3183   */\n    tag_137:\n        /* \"#utility.yul\":3250:3251   */\n      0x00\n        /* \"#utility.yul\":3239:3248   */\n      dup3\n        /* \"#utility.yul\":3235:3252   */\n      add\n        /* \"#utility.yul\":3222:3253   */\n      calldataload\n        /* \"#utility.yul\":3280:3298   */\n      0xffffffffffffffff\n        /* \"#utility.yul\":3272:3278   */\n      dup2\n        /* \"#utility.yul\":3269:3299   */\n      gt\n        /* \"#utility.yul\":3266:3383   */\n      iszero\n      tag_139\n      jumpi\n        /* \"#utility.yul\":3302:3381   */\n      tag_140\n      tag_141\n      jump\t// in\n    tag_140:\n        /* \"#utility.yul\":3266:3383   */\n    tag_139:\n        /* \"#utility.yul\":3407:3470   */\n      tag_142\n        /* \"#utility.yul\":3462:3469   */\n      dup5\n        /* \"#utility.yul\":3453:3459   */\n      dup3\n        /* \"#utility.yul\":3442:3451   */\n      dup6\n        /* \"#utility.yul\":3438:3460   */\n      add\n        /* \"#utility.yul\":3407:3470   */\n      tag_109\n      jump\t// in\n    tag_142:\n        /* \"#utility.yul\":3397:3470   */\n      swap2\n      pop\n        /* \"#utility.yul\":3193:3480   */\n      pop\n        /* \"#utility.yul\":2978:3487   */\n      swap3\n      swap2\n      pop\n      pop\n      jump\t// out\n        /* \"#utility.yul\":3493:3822   */\n    tag_13:\n        /* \"#utility.yul\":3552:3558   */\n      0x00\n        /* \"#utility.yul\":3601:3603   */\n      0x20\n        /* \"#utility.yul\":3589:3598   */\n      dup3\n        /* \"#utility.yul\":3580:3587   */\n      dup5\n        /* \"#utility.yul\":3576:3599   */\n      sub\n        /* \"#utility.yul\":3572:3604   */\n      slt\n        /* \"#utility.yul\":3569:3688   */\n      iszero\n      tag_144\n      jumpi\n        /* \"#utility.yul\":3607:3686   */\n      tag_145\n      tag_125\n      jump\t// in\n    tag_145:\n        /* \"#utility.yul\":3569:3688   */\n    tag_144:\n        /* \"#utility.yul\":3727:3728   */\n      0x00\n        /* \"#utility.yul\":3752:3805   */\n      tag_146\n        /* \"#utility.yul\":3797:3804   */\n      dup5\n        /* \"#utility.yul\":3788:3794   */\n      dup3\n        /* \"#utility.yul\":3777:3786   */\n      dup6\n        /* \"#utility.yul\":3773:3795   */\n      add\n        /* \"#utility.yul\":3752:3805   */\n      tag_115\n      jump\t// in\n    tag_146:\n        /* \"#utility.yul\":3742:3805   */\n      swap2\n      pop\n        /* \"#utility.yul\":3698:3815   */\n      pop\n        /* \"#utility.yul\":3493:3822   */\n      swap3\n      swap2\n      pop\n      pop\n      jump\t// out\n        /* \"#utility.yul\":3828:4302   */\n    tag_9:\n        /* \"#utility.yul\":3896:3902   */\n      0x00\n        /* \"#utility.yul\":3904:3910   */\n      dup1\n        /* \"#utility.yul\":3953:3955   */\n      0x40\n        /* \"#utility.yul\":3941:3950   */\n      dup4\n        /* \"#utility.yul\":3932:3939   */\n      dup6\n        /* \"#utility.yul\":3928:3951   */\n      sub\n        /* \"#utility.yul\":3924:3956   */\n      slt\n        /* \"#utility.yul\":3921:4040   */\n      iszero\n      tag_148\n      jumpi\n        /* \"#utility.yul\":3959:4038   */\n      tag_149\n      tag_125\n      jump\t// in\n    tag_149:\n        /* \"#utility.yul\":3921:4040   */\n    tag_148:\n        /* \"#utility.yul\":4079:4080   */\n      0x00\n        /* \"#utility.yul\":4104:4157   */\n      tag_150\n        /* \"#utility.yul\":4149:4156   */\n      dup6\n        /* \"#utility.yul\":4140:4146   */\n      dup3\n        /* \"#utility.yul\":4129:4138   */\n      dup7\n        /* \"#utility.yul\":4125:4147   */\n      add\n        /* \"#utility.yul\":4104:4157   */\n      tag_115\n      jump\t// in\n    tag_150:\n        /* \"#utility.yul\":4094:4157   */\n      swap3\n      pop\n        /* \"#utility.yul\":4050:4167   */\n      pop\n        /* \"#utility.yul\":4206:4208   */\n      0x20\n        /* \"#utility.yul\":4232:4285   */\n      tag_151\n        /* \"#utility.yul\":4277:4284   */\n      dup6\n        /* \"#utility.yul\":4268:4274   */\n      dup3\n        /* \"#utility.yul\":4257:4266   */\n      dup7\n        /* \"#utility.yul\":4253:4275   */\n      add\n        /* \"#utility.yul\":4232:4285   */\n      tag_115\n      jump\t// in\n    tag_151:\n        /* \"#utility.yul\":4222:4285   */\n      swap2\n      pop\n        /* \"#utility.yul\":4177:4295   */\n      pop\n        /* \"#utility.yul\":3828:4302   */\n      swap3\n      pop\n      swap3\n      swap1\n      pop\n      jump\t// out\n        /* \"#utility.yul\":4308:5107   */\n    tag_19:\n        /* \"#utility.yul\":4395:4401   */\n      0x00\n        /* \"#utility.yul\":4403:4409   */\n      dup1\n        /* \"#utility.yul\":4411:4417   */\n      0x00\n        /* \"#utility.yul\":4460:4462   */\n      0x60\n        /* \"#utility.yul\":4448:4457   */\n      dup5\n        /* \"#utility.yul\":4439:4446   */\n      dup7\n        /* \"#utility.yul\":4435:4458   */\n      sub\n        /* \"#utility.yul\":4431:4463   */\n      slt\n        /* \"#utility.yul\":4428:4547   */\n      iszero\n      tag_153\n      jumpi\n        /* \"#utility.yul\":4466:4545   */\n      tag_154\n      tag_125\n      jump\t// in\n    tag_154:\n        /* \"#utility.yul\":4428:4547   */\n    tag_153:\n        /* \"#utility.yul\":4586:4587   */\n      0x00\n        /* \"#utility.yul\":4611:4664   */\n      tag_155\n        /* \"#utility.yul\":4656:4663   */\n      dup7\n        /* \"#utility.yul\":4647:4653   */\n      dup3\n        /* \"#utility.yul\":4636:4645   */\n      dup8\n        /* \"#utility.yul\":4632:4654   */\n      add\n        /* \"#utility.yul\":4611:4664   */\n      tag_115\n      jump\t// in\n    tag_155:\n        /* \"#utility.yul\":4601:4664   */\n      swap4\n      pop\n        /* \"#utility.yul\":4557:4674   */\n      pop\n        /* \"#utility.yul\":4713:4715   */\n      0x20\n        /* \"#utility.yul\":4739:4792   */\n      tag_156\n        /* \"#utility.yul\":4784:4791   */\n      dup7\n        /* \"#utility.yul\":4775:4781   */\n      dup3\n        /* \"#utility.yul\":4764:4773   */\n      dup8\n        /* \"#utility.yul\":4760:4782   */\n      add\n        /* \"#utility.yul\":4739:4792   */\n      tag_115\n      jump\t// in\n    tag_156:\n        /* \"#utility.yul\":4729:4792   */\n      swap3\n      pop\n        /* \"#utility.yul\":4684:4802   */\n      pop\n        /* \"#utility.yul\":4869:4871   */\n      0x40\n        /* \"#utility.yul\":4858:4867   */\n      dup5\n        /* \"#utility.yul\":4854:4872   */\n      add\n        /* \"#utility.yul\":4841:4873   */\n      calldataload\n        /* \"#utility.yul\":4900:4918   */\n      0xffffffffffffffff\n        /* \"#utility.yul\":4892:4898   */\n      dup2\n        /* \"#utility.yul\":4889:4919   */\n      gt\n        /* \"#utility.yul\":4886:5003   */\n      iszero\n      tag_157\n      jumpi\n        /* \"#utility.yul\":4922:5001   */\n      tag_158\n      tag_141\n      jump\t// in\n    tag_158:\n        /* \"#utility.yul\":4886:5003   */\n    tag_157:\n        /* \"#utility.yul\":5027:5090   */\n      tag_159\n        /* \"#utility.yul\":5082:5089   */\n      dup7\n        /* \"#utility.yul\":5073:5079   */\n      dup3\n        /* \"#utility.yul\":5062:5071   */\n      dup8\n        /* \"#utility.yul\":5058:5080   */\n      add\n        /* \"#utility.yul\":5027:5090   */\n      tag_109\n      jump\t// in\n    tag_159:\n        /* \"#utility.yul\":5017:5090   */\n      swap2\n      pop\n        /* \"#utility.yul\":4812:5100   */\n      pop\n        /* \"#utility.yul\":4308:5107   */\n      swap3\n      pop\n      swap3\n      pop\n      swap3\n      jump\t// out\n        /* \"#utility.yul\":5113:5477   */\n    tag_160:\n        /* \"#utility.yul\":5201:5204   */\n      0x00\n        /* \"#utility.yul\":5229:5268   */\n      tag_162\n        /* \"#utility.yul\":5262:5267   */\n      dup3\n        /* \"#utility.yul\":5229:5268   */\n      tag_163\n      jump\t// in\n    tag_162:\n        /* \"#utility.yul\":5284:5355   */\n      tag_164\n        /* \"#utility.yul\":5348:5354   */\n      dup2\n        /* \"#utility.yul\":5343:5346   */\n      dup6\n        /* \"#utility.yul\":5284:5355   */\n      tag_165\n      jump\t// in\n    tag_164:\n        /* \"#utility.yul\":5277:5355   */\n      swap4\n      pop\n        /* \"#utility.yul\":5364:5416   */\n      tag_166\n        /* \"#utility.yul\":5409:5415   */\n      dup2\n        /* \"#utility.yul\":5404:5407   */\n      dup6\n        /* \"#utility.yul\":5397:5401   */\n      0x20\n        /* \"#utility.yul\":5390:5395   */\n      dup7\n        /* \"#utility.yul\":5386:5402   */\n      add\n        /* \"#utility.yul\":5364:5416   */\n      tag_167\n      jump\t// in\n    tag_166:\n        /* \"#utility.yul\":5441:5470   */\n      tag_168\n        /* \"#utility.yul\":5463:5469   */\n      dup2\n        /* \"#utility.yul\":5441:5470   */\n      tag_169\n      jump\t// in\n    tag_168:\n        /* \"#utility.yul\":5436:5439   */\n      dup5\n        /* \"#utility.yul\":5432:5471   */\n      add\n        /* \"#utility.yul\":5425:5471   */\n      swap2\n      pop\n        /* \"#utility.yul\":5205:5477   */\n      pop\n        /* \"#utility.yul\":5113:5477   */\n      swap3\n      swap2\n      pop\n      pop\n      jump\t// out\n        /* \"#utility.yul\":5483:5860   */\n    tag_170:\n        /* \"#utility.yul\":5589:5592   */\n      0x00\n        /* \"#utility.yul\":5617:5656   */\n      tag_172\n        /* \"#utility.yul\":5650:5655   */\n      dup3\n        /* \"#utility.yul\":5617:5656   */\n      tag_163\n      jump\t// in\n    tag_172:\n        /* \"#utility.yul\":5672:5761   */\n      tag_173\n        /* \"#utility.yul\":5754:5760   */\n      dup2\n        /* \"#utility.yul\":5749:5752   */\n      dup6\n        /* \"#utility.yul\":5672:5761   */\n      tag_174\n      jump\t// in\n    tag_173:\n        /* \"#utility.yul\":5665:5761   */\n      swap4\n      pop\n        /* \"#utility.yul\":5770:5822   */\n      tag_175\n        /* \"#utility.yul\":5815:5821   */\n      dup2\n        /* \"#utility.yul\":5810:5813   */\n      dup6\n        /* \"#utility.yul\":5803:5807   */\n      0x20\n        /* \"#utility.yul\":5796:5801   */\n      dup7\n        /* \"#utility.yul\":5792:5808   */\n      add\n        /* \"#utility.yul\":5770:5822   */\n      tag_167\n      jump\t// in\n    tag_175:\n        /* \"#utility.yul\":5847:5853   */\n      dup1\n        /* \"#utility.yul\":5842:5845   */\n      dup5\n        /* \"#utility.yul\":5838:5854   */\n      add\n        /* \"#utility.yul\":5831:5854   */\n      swap2\n      pop\n        /* \"#utility.yul\":5593:5860   */\n      pop\n        /* \"#utility.yul\":5483:5860   */\n      swap3\n      swap2\n      pop\n      pop\n      jump\t// out\n        /* \"#utility.yul\":5866:6266   */\n    tag_176:\n        /* \"#utility.yul\":6026:6029   */\n      0x00\n        /* \"#utility.yul\":6047:6131   */\n      tag_178\n        /* \"#utility.yul\":6129:6130   */\n      0x05\n        /* \"#utility.yul\":6124:6127   */\n      dup4\n        /* \"#utility.yul\":6047:6131   */\n      tag_174\n      jump\t// in\n    tag_178:\n        /* \"#utility.yul\":6040:6131   */\n      swap2\n      pop\n        /* \"#utility.yul\":6140:6233   */\n      tag_179\n        /* \"#utility.yul\":6229:6232   */\n      dup3\n        /* \"#utility.yul\":6140:6233   */\n      tag_180\n      jump\t// in\n    tag_179:\n        /* \"#utility.yul\":6258:6259   */\n      0x05\n        /* \"#utility.yul\":6253:6256   */\n      dup3\n        /* \"#utility.yul\":6249:6260   */\n      add\n        /* \"#utility.yul\":6242:6260   */\n      swap1\n      pop\n        /* \"#utility.yul\":5866:6266   */\n      swap2\n      swap1\n      pop\n      jump\t// out\n        /* \"#utility.yul\":6272:6390   */\n    tag_181:\n        /* \"#utility.yul\":6359:6383   */\n      tag_183\n        /* \"#utility.yul\":6377:6382   */\n      dup2\n        /* \"#utility.yul\":6359:6383   */\n      tag_184\n      jump\t// in\n    tag_183:\n        /* \"#utility.yul\":6354:6357   */\n      dup3\n        /* \"#utility.yul\":6347:6384   */\n      mstore\n        /* \"#utility.yul\":6272:6390   */\n      pop\n      pop\n      jump\t// out\n        /* \"#utility.yul\":6396:6671   */\n    tag_57:\n        /* \"#utility.yul\":6528:6531   */\n      0x00\n        /* \"#utility.yul\":6550:6645   */\n      tag_186\n        /* \"#utility.yul\":6641:6644   */\n      dup3\n        /* \"#utility.yul\":6632:6638   */\n      dup5\n        /* \"#utility.yul\":6550:6645   */\n      tag_170\n      jump\t// in\n    tag_186:\n        /* \"#utility.yul\":6543:6645   */\n      swap2\n      pop\n        /* \"#utility.yul\":6662:6665   */\n      dup2\n        /* \"#utility.yul\":6655:6665   */\n      swap1\n      pop\n        /* \"#utility.yul\":6396:6671   */\n      swap3\n      swap2\n      pop\n      pop\n      jump\t// out\n        /* \"#utility.yul\":6677:7058   */\n    tag_55:\n        /* \"#utility.yul\":6862:6865   */\n      0x00\n        /* \"#utility.yul\":6884:7032   */\n      tag_188\n        /* \"#utility.yul\":7028:7031   */\n      dup3\n        /* \"#utility.yul\":6884:7032   */\n      tag_176\n      jump\t// in\n    tag_188:\n        /* \"#utility.yul\":6877:7032   */\n      swap2\n      pop\n        /* \"#utility.yul\":7049:7052   */\n      dup2\n        /* \"#utility.yul\":7042:7052   */\n      swap1\n      pop\n        /* \"#utility.yul\":6677:7058   */\n      swap2\n      swap1\n      pop\n      jump\t// out\n        /* \"#utility.yul\":7064:7286   */\n    tag_27:\n        /* \"#utility.yul\":7157:7161   */\n      0x00\n        /* \"#utility.yul\":7195:7197   */\n      0x20\n        /* \"#utility.yul\":7184:7193   */\n      dup3\n        /* \"#utility.yul\":7180:7198   */\n      add\n        /* \"#utility.yul\":7172:7198   */\n      swap1\n      pop\n        /* \"#utility.yul\":7208:7279   */\n      tag_190\n        /* \"#utility.yul\":7276:7277   */\n      0x00\n        /* \"#utility.yul\":7265:7274   */\n      dup4\n        /* \"#utility.yul\":7261:7278   */\n      add\n        /* \"#utility.yul\":7252:7258   */\n      dup5\n        /* \"#utility.yul\":7208:7279   */\n      tag_181\n      jump\t// in\n    tag_190:\n        /* \"#utility.yul\":7064:7286   */\n      swap3\n      swap2\n      pop\n      pop\n      jump\t// out\n        /* \"#utility.yul\":7292:7715   */\n    tag_16:\n        /* \"#utility.yul\":7433:7437   */\n      0x00\n        /* \"#utility.yul\":7471:7473   */\n      0x40\n        /* \"#utility.yul\":7460:7469   */\n      dup3\n        /* \"#utility.yul\":7456:7474   */\n      add\n        /* \"#utility.yul\":7448:7474   */\n      swap1\n      pop\n        /* \"#utility.yul\":7484:7555   */\n      tag_192\n        /* \"#utility.yul\":7552:7553   */\n      0x00\n        /* \"#utility.yul\":7541:7550   */\n      dup4\n        /* \"#utility.yul\":7537:7554   */\n      add\n        /* \"#utility.yul\":7528:7534   */\n      dup6\n        /* \"#utility.yul\":7484:7555   */\n      tag_181\n      jump\t// in\n    tag_192:\n        /* \"#utility.yul\":7602:7611   */\n      dup2\n        /* \"#utility.yul\":7596:7600   */\n      dup2\n        /* \"#utility.yul\":7592:7612   */\n      sub\n        /* \"#utility.yul\":7587:7589   */\n      0x20\n        /* \"#utility.yul\":7576:7585   */\n      dup4\n        /* \"#utility.yul\":7572:7590   */\n      add\n        /* \"#utility.yul\":7565:7613   */\n      mstore\n        /* \"#utility.yul\":7630:7708   */\n      tag_193\n        /* \"#utility.yul\":7703:7707   */\n      dup2\n        /* \"#utility.yul\":7694:7700   */\n      dup5\n        /* \"#utility.yul\":7630:7708   */\n      tag_160\n      jump\t// in\n    tag_193:\n        /* \"#utility.yul\":7622:7708   */\n      swap1\n      pop\n        /* \"#utility.yul\":7292:7715   */\n      swap4\n      swap3\n      pop\n      pop\n      pop\n      jump\t// out\n        /* \"#utility.yul\":7721:8254   */\n    tag_79:\n        /* \"#utility.yul\":7890:7894   */\n      0x00\n        /* \"#utility.yul\":7928:7930   */\n      0x60\n        /* \"#utility.yul\":7917:7926   */\n      dup3\n        /* \"#utility.yul\":7913:7931   */\n      add\n        /* \"#utility.yul\":7905:7931   */\n      swap1\n      pop\n        /* \"#utility.yul\":7941:8012   */\n      tag_195\n        /* \"#utility.yul\":8009:8010   */\n      0x00\n        /* \"#utility.yul\":7998:8007   */\n      dup4\n        /* \"#utility.yul\":7994:8011   */\n      add\n        /* \"#utility.yul\":7985:7991   */\n      dup7\n        /* \"#utility.yul\":7941:8012   */\n      tag_181\n      jump\t// in\n    tag_195:\n        /* \"#utility.yul\":8059:8068   */\n      dup2\n        /* \"#utility.yul\":8053:8057   */\n      dup2\n        /* \"#utility.yul\":8049:8069   */\n      sub\n        /* \"#utility.yul\":8044:8046   */\n      0x20\n        /* \"#utility.yul\":8033:8042   */\n      dup4\n        /* \"#utility.yul\":8029:8047   */\n      add\n        /* \"#utility.yul\":8022:8070   */\n      mstore\n        /* \"#utility.yul\":8087:8165   */\n      tag_196\n        /* \"#utility.yul\":8160:8164   */\n      dup2\n        /* \"#utility.yul\":8151:8157   */\n      dup6\n        /* \"#utility.yul\":8087:8165   */\n      tag_160\n      jump\t// in\n    tag_196:\n        /* \"#utility.yul\":8079:8165   */\n      swap1\n      pop\n        /* \"#utility.yul\":8175:8247   */\n      tag_197\n        /* \"#utility.yul\":8243:8245   */\n      0x40\n        /* \"#utility.yul\":8232:8241   */\n      dup4\n        /* \"#utility.yul\":8228:8246   */\n      add\n        /* \"#utility.yul\":8219:8225   */\n      dup5\n        /* \"#utility.yul\":8175:8247   */\n      tag_181\n      jump\t// in\n    tag_197:\n        /* \"#utility.yul\":7721:8254   */\n      swap5\n      swap4\n      pop\n      pop\n      pop\n      pop\n      jump\t// out\n        /* \"#utility.yul\":8260:8389   */\n    tag_99:\n        /* \"#utility.yul\":8294:8300   */\n      0x00\n        /* \"#utility.yul\":8321:8341   */\n      tag_199\n      tag_200\n      jump\t// in\n    tag_199:\n        /* \"#utility.yul\":8311:8341   */\n      swap1\n      pop\n        /* \"#utility.yul\":8350:8383   */\n      tag_201\n        /* \"#utility.yul\":8378:8382   */\n      dup3\n        /* \"#utility.yul\":8370:8376   */\n      dup3\n        /* \"#utility.yul\":8350:8383   */\n      tag_202\n      jump\t// in\n    tag_201:\n        /* \"#utility.yul\":8260:8389   */\n      swap2\n      swap1\n      pop\n      jump\t// out\n        /* \"#utility.yul\":8395:8470   */\n    tag_200:\n        /* \"#utility.yul\":8428:8434   */\n      0x00\n        /* \"#utility.yul\":8461:8463   */\n      0x40\n        /* \"#utility.yul\":8455:8464   */\n      mload\n        /* \"#utility.yul\":8445:8464   */\n      swap1\n      pop\n        /* \"#utility.yul\":8395:8470   */\n      swap1\n      jump\t// out\n        /* \"#utility.yul\":8476:8784   */\n    tag_98:\n        /* \"#utility.yul\":8538:8542   */\n      0x00\n        /* \"#utility.yul\":8628:8646   */\n      0xffffffffffffffff\n        /* \"#utility.yul\":8620:8626   */\n      dup3\n        /* \"#utility.yul\":8617:8647   */\n      gt\n        /* \"#utility.yul\":8614:8670   */\n      iszero\n      tag_205\n      jumpi\n        /* \"#utility.yul\":8650:8668   */\n      tag_206\n      tag_207\n      jump\t// in\n    tag_206:\n        /* \"#utility.yul\":8614:8670   */\n    tag_205:\n        /* \"#utility.yul\":8688:8717   */\n      tag_208\n        /* \"#utility.yul\":8710:8716   */\n      dup3\n        /* \"#utility.yul\":8688:8717   */\n      tag_169\n      jump\t// in\n    tag_208:\n        /* \"#utility.yul\":8680:8717   */\n      swap1\n      pop\n        /* \"#utility.yul\":8772:8776   */\n      0x20\n        /* \"#utility.yul\":8766:8770   */\n      dup2\n        /* \"#utility.yul\":8762:8777   */\n      add\n        /* \"#utility.yul\":8754:8777   */\n      swap1\n      pop\n        /* \"#utility.yul\":8476:8784   */\n      swap2\n      swap1\n      pop\n      jump\t// out\n        /* \"#utility.yul\":8790:8889   */\n    tag_163:\n        /* \"#utility.yul\":8842:8848   */\n      0x00\n        /* \"#utility.yul\":8876:8881   */\n      dup2\n        /* \"#utility.yul\":8870:8882   */\n      mload\n        /* \"#utility.yul\":8860:8882   */\n      swap1\n      pop\n        /* \"#utility.yul\":8790:8889   */\n      swap2\n      swap1\n      pop\n      jump\t// out\n        /* \"#utility.yul\":8895:9064   */\n    tag_165:\n        /* \"#utility.yul\":8979:8990   */\n      0x00\n        /* \"#utility.yul\":9013:9019   */\n      dup3\n        /* \"#utility.yul\":9008:9011   */\n      dup3\n        /* \"#utility.yul\":9001:9020   */\n      mstore\n        /* \"#utility.yul\":9053:9057   */\n      0x20\n        /* \"#utility.yul\":9048:9051   */\n      dup3\n        /* \"#utility.yul\":9044:9058   */\n      add\n        /* \"#utility.yul\":9029:9058   */\n      swap1\n      pop\n        /* \"#utility.yul\":8895:9064   */\n      swap3\n      swap2\n      pop\n      pop\n      jump\t// out\n        /* \"#utility.yul\":9070:9218   */\n    tag_174:\n        /* \"#utility.yul\":9172:9183   */\n      0x00\n        /* \"#utility.yul\":9209:9212   */\n      dup2\n        /* \"#utility.yul\":9194:9212   */\n      swap1\n      pop\n        /* \"#utility.yul\":9070:9218   */\n      swap3\n      swap2\n      pop\n      pop\n      jump\t// out\n        /* \"#utility.yul\":9224:9529   */\n    tag_51:\n        /* \"#utility.yul\":9264:9267   */\n      0x00\n        /* \"#utility.yul\":9283:9303   */\n      tag_213\n        /* \"#utility.yul\":9301:9302   */\n      dup3\n        /* \"#utility.yul\":9283:9303   */\n      tag_184\n      jump\t// in\n    tag_213:\n        /* \"#utility.yul\":9278:9303   */\n      swap2\n      pop\n        /* \"#utility.yul\":9317:9337   */\n      tag_214\n        /* \"#utility.yul\":9335:9336   */\n      dup4\n        /* \"#utility.yul\":9317:9337   */\n      tag_184\n      jump\t// in\n    tag_214:\n        /* \"#utility.yul\":9312:9337   */\n      swap3\n      pop\n        /* \"#utility.yul\":9471:9472   */\n      dup3\n        /* \"#utility.yul\":9403:9469   */\n      0xffffffffffffffffffffffffffffffffffffffffffffffffffffffffffffffff\n        /* \"#utility.yul\":9399:9473   */\n      sub\n        /* \"#utility.yul\":9396:9397   */\n      dup3\n        /* \"#utility.yul\":9393:9474   */\n      gt\n        /* \"#utility.yul\":9390:9497   */\n      iszero\n      tag_215\n      jumpi\n        /* \"#utility.yul\":9477:9495   */\n      tag_216\n      tag_217\n      jump\t// in\n    tag_216:\n        /* \"#utility.yul\":9390:9497   */\n    tag_215:\n        /* \"#utility.yul\":9521:9522   */\n      dup3\n        /* \"#utility.yul\":9518:9519   */\n      dup3\n        /* \"#utility.yul\":9514:9523   */\n      add\n        /* \"#utility.yul\":9507:9523   */\n      swap1\n      pop\n        /* \"#utility.yul\":9224:9529   */\n      swap3\n      swap2\n      pop\n      pop\n      jump\t// out\n        /* \"#utility.yul\":9535:9720   */\n    tag_53:\n        /* \"#utility.yul\":9575:9576   */\n      0x00\n        /* \"#utility.yul\":9592:9612   */\n      tag_219\n        /* \"#utility.yul\":9610:9611   */\n      dup3\n        /* \"#utility.yul\":9592:9612   */\n      tag_184\n      jump\t// in\n    tag_219:\n        /* \"#utility.yul\":9587:9612   */\n      swap2\n      pop\n        /* \"#utility.yul\":9626:9646   */\n      tag_220\n        /* \"#utility.yul\":9644:9645   */\n      dup4\n        /* \"#utility.yul\":9626:9646   */\n      tag_184\n      jump\t// in\n    tag_220:\n        /* \"#utility.yul\":9621:9646   */\n      swap3\n      pop\n        /* \"#utility.yul\":9665:9666   */\n      dup3\n        /* \"#utility.yul\":9655:9690   */\n      tag_221\n      jumpi\n        /* \"#utility.yul\":9670:9688   */\n      tag_222\n      tag_223\n      jump\t// in\n    tag_222:\n        /* \"#utility.yul\":9655:9690   */\n    tag_221:\n        /* \"#utility.yul\":9712:9713   */\n      dup3\n        /* \"#utility.yul\":9709:9710   */\n      dup3\n        /* \"#utility.yul\":9705:9714   */\n      div\n        /* \"#utility.yul\":9700:9714   */\n      swap1\n      pop\n        /* \"#utility.yul\":9535:9720   */\n      swap3\n      swap2\n      pop\n      pop\n      jump\t// out\n        /* \"#utility.yul\":9726:9917   */\n    tag_61:\n        /* \"#utility.yul\":9766:9770   */\n      0x00\n        /* \"#utility.yul\":9786:9806   */\n      tag_225\n        /* \"#utility.yul\":9804:9805   */\n      dup3\n        /* \"#utility.yul\":9786:9806   */\n      tag_184\n      jump\t// in\n    tag_225:\n        /* \"#utility.yul\":9781:9806   */\n      swap2\n      pop\n        /* \"#utility.yul\":9820:9840   */\n      tag_226\n        /* \"#utility.yul\":9838:9839   */\n      dup4\n        /* \"#utility.yul\":9820:9840   */\n      tag_184\n      jump\t// in\n    tag_226:\n        /* \"#utility.yul\":9815:9840   */\n      swap3\n      pop\n        /* \"#utility.yul\":9859:9860   */\n      dup3\n        /* \"#utility.yul\":9856:9857   */\n      dup3\n        /* \"#utility.yul\":9853:9861   */\n      lt\n        /* \"#utility.yul\":9850:9884   */\n      iszero\n      tag_227\n      jumpi\n        /* \"#utility.yul\":9864:9882   */\n      tag_228\n      tag_217\n      jump\t// in\n    tag_228:\n        /* \"#utility.yul\":9850:9884   */\n    tag_227:\n        /* \"#utility.yul\":9909:9910   */\n      dup3\n        /* \"#utility.yul\":9906:9907   */\n      dup3\n        /* \"#utility.yul\":9902:9911   */\n      sub\n        /* \"#utility.yul\":9894:9911   */\n      swap1\n      pop\n        /* \"#utility.yul\":9726:9917   */\n      swap3\n      swap2\n      pop\n      pop\n      jump\t// out\n        /* \"#utility.yul\":9923:10013   */\n    tag_229:\n        /* \"#utility.yul\":9957:9964   */\n      0x00\n        /* \"#utility.yul\":10000:10005   */\n      dup2\n        /* \"#utility.yul\":9993:10006   */\n      iszero\n        /* \"#utility.yul\":9986:10007   */\n      iszero\n        /* \"#utility.yul\":9975:10007   */\n      swap1\n      pop\n        /* \"#utility.yul\":9923:10013   */\n      swap2\n      swap1\n      pop\n      jump\t// out\n        /* \"#utility.yul\":10019:10096   */\n    tag_184:\n        /* \"#utility.yul\":10056:10063   */\n      0x00\n        /* \"#utility.yul\":10085:10090   */\n      dup2\n        /* \"#utility.yul\":10074:10090   */\n      swap1\n      pop\n        /* \"#utility.yul\":10019:10096   */\n      swap2\n      swap1\n      pop\n      jump\t// out\n        /* \"#utility.yul\":10102:10256   */\n    tag_104:\n        /* \"#utility.yul\":10186:10192   */\n      dup3\n        /* \"#utility.yul\":10181:10184   */\n      dup2\n        /* \"#utility.yul\":10176:10179   */\n      dup4\n        /* \"#utility.yul\":10163:10193   */\n      calldatacopy\n        /* \"#utility.yul\":10248:10249   */\n      0x00\n        /* \"#utility.yul\":10239:10245   */\n      dup4\n        /* \"#utility.yul\":10234:10237   */\n      dup4\n        /* \"#utility.yul\":10230:10246   */\n      add\n        /* \"#utility.yul\":10223:10250   */\n      mstore\n        /* \"#utility.yul\":10102:10256   */\n      pop\n      pop\n      pop\n      jump\t// out\n        /* \"#utility.yul\":10262:10569   */\n    tag_167:\n        /* \"#utility.yul\":10330:10331   */\n      0x00\n        /* \"#utility.yul\":10340:10453   */\n    tag_234:\n        /* \"#utility.yul\":10354:10360   */\n      dup4\n        /* \"#utility.yul\":10351:10352   */\n      dup2\n        /* \"#utility.yul\":10348:10361   */\n      lt\n        /* \"#utility.yul\":10340:10453   */\n      iszero\n      tag_236\n      jumpi\n        /* \"#utility.yul\":10439:10440   */\n      dup1\n        /* \"#utility.yul\":10434:10437   */\n      dup3\n        /* \"#utility.yul\":10430:10441   */\n      add\n        /* \"#utility.yul\":10424:10442   */\n      mload\n        /* \"#utility.yul\":10420:10421   */\n      dup2\n        /* \"#utility.yul\":10415:10418   */\n      dup5\n        /* \"#utility.yul\":10411:10422   */\n      add\n        /* \"#utility.yul\":10404:10443   */\n      mstore\n        /* \"#utility.yul\":10376:10378   */\n      0x20\n        /* \"#utility.yul\":10373:10374   */\n      dup2\n        /* \"#utility.yul\":10369:10379   */\n      add\n        /* \"#utility.yul\":10364:10379   */\n      swap1\n      pop\n        /* \"#utility.yul\":10340:10453   */\n      jump(tag_234)\n    tag_236:\n        /* \"#utility.yul\":10471:10477   */\n      dup4\n        /* \"#utility.yul\":10468:10469   */\n      dup2\n        /* \"#utility.yul\":10465:10478   */\n      gt\n        /* \"#utility.yul\":10462:10563   */\n      iszero\n      tag_237\n      jumpi\n        /* \"#utility.yul\":10551:10552   */\n      0x00\n        /* \"#utility.yul\":10542:10548   */\n      dup5\n        /* \"#utility.yul\":10537:10540   */\n      dup5\n        /* \"#utility.yul\":10533:10549   */\n      add\n        /* \"#utility.yul\":10526:10553   */\n      mstore\n        /* \"#utility.yul\":10462:10563   */\n    tag_237:\n        /* \"#utility.yul\":10311:10569   */\n      pop\n        /* \"#utility.yul\":10262:10569   */\n      pop\n      pop\n      pop\n      jump\t// out\n        /* \"#utility.yul\":10575:10895   */\n    tag_37:\n        /* \"#utility.yul\":10619:10625   */\n      0x00\n        /* \"#utility.yul\":10656:10657   */\n      0x02\n        /* \"#utility.yul\":10650:10654   */\n      dup3\n        /* \"#utility.yul\":10646:10658   */\n      div\n        /* \"#utility.yul\":10636:10658   */\n      swap1\n      pop\n        /* \"#utility.yul\":10703:10704   */\n      0x01\n        /* \"#utility.yul\":10697:10701   */\n      dup3\n        /* \"#utility.yul\":10693:10705   */\n      and\n        /* \"#utility.yul\":10724:10742   */\n      dup1\n        /* \"#utility.yul\":10714:10795   */\n      tag_239\n      jumpi\n        /* \"#utility.yul\":10780:10784   */\n      0x7f\n        /* \"#utility.yul\":10772:10778   */\n      dup3\n        /* \"#utility.yul\":10768:10785   */\n      and\n        /* \"#utility.yul\":10758:10785   */\n      swap2\n      pop\n        /* \"#utility.yul\":10714:10795   */\n    tag_239:\n        /* \"#utility.yul\":10842:10844   */\n      0x20\n        /* \"#utility.yul\":10834:10840   */\n      dup3\n        /* \"#utility.yul\":10831:10845   */\n      lt\n        /* \"#utility.yul\":10811:10829   */\n      dup2\n        /* \"#utility.yul\":10808:10846   */\n      eq\n        /* \"#utility.yul\":10805:10889   */\n      iszero\n      tag_240\n      jumpi\n        /* \"#utility.yul\":10861:10879   */\n      tag_241\n      tag_242\n      jump\t// in\n    tag_241:\n        /* \"#utility.yul\":10805:10889   */\n    tag_240:\n        /* \"#utility.yul\":10626:10895   */\n      pop\n        /* \"#utility.yul\":10575:10895   */\n      swap2\n      swap1\n      pop\n      jump\t// out\n        /* \"#utility.yul\":10901:11182   */\n    tag_202:\n        /* \"#utility.yul\":10984:11011   */\n      tag_244\n        /* \"#utility.yul\":11006:11010   */\n      dup3\n        /* \"#utility.yul\":10984:11011   */\n      tag_169\n      jump\t// in\n    tag_244:\n        /* \"#utility.yul\":10976:10982   */\n      dup2\n        /* \"#utility.yul\":10972:11012   */\n      add\n        /* \"#utility.yul\":11114:11120   */\n      dup2\n        /* \"#utility.yul\":11102:11112   */\n      dup2\n        /* \"#utility.yul\":11099:11121   */\n      lt\n        /* \"#utility.yul\":11078:11096   */\n      0xffffffffffffffff\n        /* \"#utility.yul\":11066:11076   */\n      dup3\n        /* \"#utility.yul\":11063:11097   */\n      gt\n        /* \"#utility.yul\":11060:11122   */\n      or\n        /* \"#utility.yul\":11057:11145   */\n      iszero\n      tag_245\n      jumpi\n        /* \"#utility.yul\":11125:11143   */\n      tag_246\n      tag_207\n      jump\t// in\n    tag_246:\n        /* \"#utility.yul\":11057:11145   */\n    tag_245:\n        /* \"#utility.yul\":11165:11175   */\n      dup1\n        /* \"#utility.yul\":11161:11163   */\n      0x40\n        /* \"#utility.yul\":11154:11176   */\n      mstore\n        /* \"#utility.yul\":10944:11182   */\n      pop\n        /* \"#utility.yul\":10901:11182   */\n      pop\n      pop\n      jump\t// out\n        /* \"#utility.yul\":11188:11421   */\n    tag_76:\n        /* \"#utility.yul\":11227:11230   */\n      0x00\n        /* \"#utility.yul\":11250:11274   */\n      tag_248\n        /* \"#utility.yul\":11268:11273   */\n      dup3\n        /* \"#utility.yul\":11250:11274   */\n      tag_184\n      jump\t// in\n    tag_248:\n        /* \"#utility.yul\":11241:11274   */\n      swap2\n      pop\n        /* \"#utility.yul\":11296:11362   */\n      0xffffffffffffffffffffffffffffffffffffffffffffffffffffffffffffffff\n        /* \"#utility.yul\":11289:11294   */\n      dup3\n        /* \"#utility.yul\":11286:11363   */\n      eq\n        /* \"#utility.yul\":11283:11386   */\n      iszero\n      tag_249\n      jumpi\n        /* \"#utility.yul\":11366:11384   */\n      tag_250\n      tag_217\n      jump\t// in\n    tag_250:\n        /* \"#utility.yul\":11283:11386   */\n    tag_249:\n        /* \"#utility.yul\":11413:11414   */\n      0x01\n        /* \"#utility.yul\":11406:11411   */\n      dup3\n        /* \"#utility.yul\":11402:11415   */\n      add\n        /* \"#utility.yul\":11395:11415   */\n      swap1\n      pop\n        /* \"#utility.yul\":11188:11421   */\n      swap2\n      swap1\n      pop\n      jump\t// out\n        /* \"#utility.yul\":11427:11603   */\n    tag_49:\n        /* \"#utility.yul\":11459:11460   */\n      0x00\n        /* \"#utility.yul\":11476:11496   */\n      tag_252\n        /* \"#utility.yul\":11494:11495   */\n      dup3\n        /* \"#utility.yul\":11476:11496   */\n      tag_184\n      jump\t// in\n    tag_252:\n        /* \"#utility.yul\":11471:11496   */\n      swap2\n      pop\n        /* \"#utility.yul\":11510:11530   */\n      tag_253\n        /* \"#utility.yul\":11528:11529   */\n      dup4\n        /* \"#utility.yul\":11510:11530   */\n      tag_184\n      jump\t// in\n    tag_253:\n        /* \"#utility.yul\":11505:11530   */\n      swap3\n      pop\n        /* \"#utility.yul\":11549:11550   */\n      dup3\n        /* \"#utility.yul\":11539:11574   */\n      tag_254\n      jumpi\n        /* \"#utility.yul\":11554:11572   */\n      tag_255\n      tag_223\n      jump\t// in\n    tag_255:\n        /* \"#utility.yul\":11539:11574   */\n    tag_254:\n        /* \"#utility.yul\":11595:11596   */\n      dup3\n        /* \"#utility.yul\":11592:11593   */\n      dup3\n        /* \"#utility.yul\":11588:11597   */\n      mod\n        /* \"#utility.yul\":11583:11597   */\n      swap1\n      pop\n        /* \"#utility.yul\":11427:11603   */\n      swap3\n      swap2\n      pop\n      pop\n      jump\t// out\n        /* \"#utility.yul\":11609:11789   */\n    tag_217:\n        /* \"#utility.yul\":11657:11734   */\n      0x4e487b7100000000000000000000000000000000000000000000000000000000\n        /* \"#utility.yul\":11654:11655   */\n      0x00\n        /* \"#utility.yul\":11647:11735   */\n      mstore\n        /* \"#utility.yul\":11754:11758   */\n      0x11\n        /* \"#utility.yul\":11751:11752   */\n      0x04\n        /* \"#utility.yul\":11744:11759   */\n      mstore\n        /* \"#utility.yul\":11778:11782   */\n      0x24\n        /* \"#utility.yul\":11775:11776   */\n      0x00\n        /* \"#utility.yul\":11768:11783   */\n      revert\n        /* \"#utility.yul\":11795:11975   */\n    tag_223:\n        /* \"#utility.yul\":11843:11920   */\n      0x4e487b7100000000000000000000000000000000000000000000000000000000\n        /* \"#utility.yul\":11840:11841   */\n      0x00\n        /* \"#utility.yul\":11833:11921   */\n      mstore\n        /* \"#utility.yul\":11940:11944   */\n      0x12\n        /* \"#utility.yul\":11937:11938   */\n      0x04\n        /* \"#utility.yul\":11930:11945   */\n      mstore\n        /* \"#utility.yul\":11964:11968   */\n      0x24\n        /* \"#utility.yul\":11961:11962   */\n      0x00\n        /* \"#utility.yul\":11954:11969   */\n      revert\n        /* \"#utility.yul\":11981:12161   */\n    tag_242:\n        /* \"#utility.yul\":12029:12106   */\n      0x4e487b7100000000000000000000000000000000000000000000000000000000\n        /* \"#utility.yul\":12026:12027   */\n      0x00\n        /* \"#utility.yul\":12019:12107   */\n      mstore\n        /* \"#utility.yul\":12126:12130   */\n      0x22\n        /* \"#utility.yul\":12123:12124   */\n      0x04\n        /* \"#utility.yul\":12116:12131   */\n      mstore\n        /* \"#utility.yul\":12150:12154   */\n      0x24\n        /* \"#utility.yul\":12147:12148   */\n      0x00\n        /* \"#utility.yul\":12140:12155   */\n      revert\n        /* \"#utility.yul\":12167:12347   */\n    tag_46:\n        /* \"#utility.yul\":12215:12292   */\n      0x4e487b7100000000000000000000000000000000000000000000000000000000\n        /* \"#utility.yul\":12212:12213   */\n      0x00\n        /* \"#utility.yul\":12205:12293   */\n      mstore\n        /* \"#utility.yul\":12312:12316   */\n      0x32\n        /* \"#utility.yul\":12309:12310   */\n      0x04\n        /* \"#utility.yul\":12302:12317   */\n      mstore\n        /* \"#utility.yul\":12336:12340   */\n      0x24\n        /* \"#utility.yul\":12333:12334   */\n      0x00\n        /* \"#utility.yul\":12326:12341   */\n      revert\n        /* \"#utility.yul\":12353:12533   */\n    tag_207:\n        /* \"#utility.yul\":12401:12478   */\n      0x4e487b7100000000000000000000000000000000000000000000000000000000\n        /* \"#utility.yul\":12398:12399   */\n      0x00\n        /* \"#utility.yul\":12391:12479   */\n      mstore\n        /* \"#utility.yul\":12498:12502   */\n      0x41\n        /* \"#utility.yul\":12495:12496   */\n      0x04\n        /* \"#utility.yul\":12488:12503   */\n      mstore\n        /* \"#utility.yul\":12522:12526   */\n      0x24\n        /* \"#utility.yul\":12519:12520   */\n      0x00\n        /* \"#utility.yul\":12512:12527   */\n      revert\n        /* \"#utility.yul\":12539:12656   */\n    tag_113:\n        /* \"#utility.yul\":12648:12649   */\n      0x00\n        /* \"#utility.yul\":12645:12646   */\n      dup1\n        /* \"#utility.yul\":12638:12650   */\n      revert\n        /* \"#utility.yul\":12662:12779   */\n    tag_102:\n        /* \"#utility.yul\":12771:12772   */\n      0x00\n        /* \"#utility.yul\":12768:12769   */\n      dup1\n        /* \"#utility.yul\":12761:12773   */\n      revert\n        /* \"#utility.yul\":12785:12902   */\n    tag_141:\n        /* \"#utility.yul\":12894:12895   */\n      0x00\n        /* \"#utility.yul\":12891:12892   */\n      dup1\n        /* \"#utility.yul\":12884:12896   */\n      revert\n        /* \"#utility.yul\":12908:13025   */\n    tag_125:\n        /* \"#utility.yul\":13017:13018   */\n      0x00\n        /* \"#utility.yul\":13014:13015   */\n      dup1\n        /* \"#utility.yul\":13007:13019   */\n      revert\n        /* \"#utility.yul\":13031:13133   */\n    tag_169:\n        /* \"#utility.yul\":13072:13078   */\n      0x00\n        /* \"#utility.yul\":13123:13125   */\n      0x1f\n        /* \"#utility.yul\":13119:13126   */\n      not\n        /* \"#utility.yul\":13114:13116   */\n      0x1f\n        /* \"#utility.yul\":13107:13112   */\n      dup4\n        /* \"#utility.yul\":13103:13117   */\n      add\n        /* \"#utility.yul\":13099:13127   */\n      and\n        /* \"#utility.yul\":13089:13127   */\n      swap1\n      pop\n        /* \"#utility.yul\":13031:13133   */\n      swap2\n      swap1\n      pop\n      jump\t// out\n        /* \"#utility.yul\":13139:13294   */\n    tag_180:\n        /* \"#utility.yul\":13279:13286   */\n      0x6b69747479000000000000000000000000000000000000000000000000000000\n        /* \"#utility.yul\":13275:13276   */\n      0x00\n        /* \"#utility.yul\":13267:13273   */\n      dup3\n        /* \"#utility.yul\":13263:13277   */\n      add\n        /* \"#utility.yul\":13256:13287   */\n      mstore\n        /* \"#utility.yul\":13139:13294   */\n      pop\n      jump\t// out\n        /* \"#utility.yul\":13300:13416   */\n    tag_108:\n        /* \"#utility.yul\":13370:13391   */\n      tag_268\n        /* \"#utility.yul\":13385:13390   */\n      dup2\n        /* \"#utility.yul\":13370:13391   */\n      tag_229\n      jump\t// in\n    tag_268:\n        /* \"#utility.yul\":13363:13368   */\n      dup2\n        /* \"#utility.yul\":13360:13392   */\n      eq\n        /* \"#utility.yul\":13350:13410   */\n      tag_269\n      jumpi\n        /* \"#utility.yul\":13406:13407   */\n      0x00\n        /* \"#utility.yul\":13403:13404   */\n      dup1\n        /* \"#utility.yul\":13396:13408   */\n      revert\n        /* \"#utility.yul\":13350:13410   */\n    tag_269:\n        /* \"#utility.yul\":13300:13416   */\n      pop\n      jump\t// out\n        /* \"#utility.yul\":13422:13544   */\n    tag_118:\n        /* \"#utility.yul\":13495:13519   */\n      tag_271\n        /* \"#utility.yul\":13513:13518   */\n      dup2\n        /* \"#utility.yul\":13495:13519   */\n      tag_184\n      jump\t// in\n    tag_271:\n        /* \"#utility.yul\":13488:13493   */\n      dup2\n        /* \"#utility.yul\":13485:13520   */\n      eq\n        /* \"#utility.yul\":13475:13538   */\n      tag_272\n      jumpi\n        /* \"#utility.yul\":13534:13535   */\n      0x00\n        /* \"#utility.yul\":13531:13532   */\n      dup1\n        /* \"#utility.yul\":13524:13536   */\n      revert\n        /* \"#utility.yul\":13475:13538   */\n    tag_272:\n        /* \"#utility.yul\":13422:13544   */\n      pop\n      jump\t// out\n\n    auxdata: 0xa2646970667358221220c17b578e99fe7f415eebc074cad84f65acc7259be0de041521ca781a6060779b64736f6c63430008070033\n}\n",
				"bytecode": {
					"linkReferences": {},
					"object": "60806040526010600055600054600a6200001a919062000144565b6001557306012c8cf97bead5deae237070f9587f8e7a266d600560006101000a81548173ffffffffffffffffffffffffffffffffffffffff021916908373ffffffffffffffffffffffffffffffffffffffff160217905550600560009054906101000a900473ffffffffffffffffffffffffffffffffffffffff16600660006101000a81548173ffffffffffffffffffffffffffffffffffffffff021916908373ffffffffffffffffffffffffffffffffffffffff160217905550348015620000e257600080fd5b50620002c7565b6000808291508390505b60018511156200013b578086048111156200011357620001126200028b565b5b6001851615620001235780820291505b80810290506200013385620002ba565b9450620000f3565b94509492505050565b6000620001518262000281565b91506200015e8362000281565b92506200018d7fffffffffffffffffffffffffffffffffffffffffffffffffffffffffffffffff848462000195565b905092915050565b600082620001a757600190506200027a565b81620001b757600090506200027a565b8160018114620001d05760028114620001db5762000211565b60019150506200027a565b60ff841115620001f057620001ef6200028b565b5b8360020a9150848211156200020a57620002096200028b565b5b506200027a565b5060208310610133831016604e8410600b84101617156200024b5782820a9050838111156200024557620002446200028b565b5b6200027a565b6200025a8484846001620000e9565b925090508184048111156200027457620002736200028b565b5b81810290505b9392505050565b6000819050919050565b7f4e487b7100000000000000000000000000000000000000000000000000000000600052601160045260246000fd5b60008160011c9050919050565b610eee80620002d76000396000f3fe608060405234801561001057600080fd5b506004361061004c5760003560e01c806317a7f4cc146100515780632052465e1461006d5780636b0bfc801461009e578063c6f15112146100ba575b600080fd5b61006b600480360381019061006691906108e4565b6100d6565b005b610087600480360381019061008291906108b7565b610203565b604051610095929190610a76565b60405180910390f35b6100b860048036038101906100b39190610924565b6102bf565b005b6100d460048036038101906100cf919061086e565b610420565b005b6000600660009054906101000a900473ffffffffffffffffffffffffffffffffffffffff1673ffffffffffffffffffffffffffffffffffffffff1663e98b7f4d836040518263ffffffff1660e01b81526004016101339190610a5b565b6101406040518083038186803b15801561014c57600080fd5b505afa158015610160573d6000803e3d6000fd5b505050506040513d601f19601f82011682018060405250810190610184919061078f565b909192939495969798509091929394959697509091929394959650909192939495509091929394509091929350909192509091509050809150506101fe83826040518060400160405280600581526020017f6b697474790000000000000000000000000000000000000000000000000000008152506102bf565b505050565b6002818154811061021357600080fd5b906000526020600020906002020160009150905080600001549080600101805461023c90610c74565b80601f016020809104026020016040519081016040528092919081815260200182805461026890610c74565b80156102b55780601f1061028a576101008083540402835291602001916102b5565b820191906000526020600020905b81548152906001019060200180831161029857829003601f168201915b5050505050905082565b6000600460003373ffffffffffffffffffffffffffffffffffffffff1673ffffffffffffffffffffffffffffffffffffffff168152602001908152602001600020541461030b57600080fd5b60006002848154811061032157610320610dde565b5b906000526020600020906002020190506001548361033f9190610d20565b9250600060028260000154856103559190610b61565b61035f9190610bb7565b905060405160200161037090610a46565b60405160208183030381529060405280519060200120836040516020016103979190610a2f565b6040516020818303038152906040528051906020012014156103da5760636064826103c29190610d20565b826103cd9190610be8565b6103d79190610b61565b90505b6104196040518060400160405280600681526020017f4e6f4e616d65000000000000000000000000000000000000000000000000000081525082610487565b5050505050565b6000600460003373ffffffffffffffffffffffffffffffffffffffff1673ffffffffffffffffffffffffffffffffffffffff168152602001908152602001600020541461046c57600080fd5b6000610477826105f8565b90506104838282610487565b5050565b600260405180604001604052808381526020018481525090806001815401808255809150506001900390600052602060002090600202016000909190919091506000820151816000015560208201518160010190805190602001906104ed92919061063d565b505050336003600060016002805490506105079190610be8565b815260200190815260200160002060006101000a81548173ffffffffffffffffffffffffffffffffffffffff021916908373ffffffffffffffffffffffffffffffffffffffff160217905550600460003373ffffffffffffffffffffffffffffffffffffffff1673ffffffffffffffffffffffffffffffffffffffff16815260200190815260200160002060008154809291906105a390610cd7565b91905055507f88f026aacbbecc90c18411df4b1185fd8d9be2470f1962f192bf84a27d0704b760016002805490506105db9190610be8565b83836040516105ec93929190610aa6565b60405180910390a15050565b6000808260405160200161060c9190610a2f565b6040516020818303038152906040528051906020012060001c9050600154816106359190610d20565b915050919050565b82805461064990610c74565b90600052602060002090601f01602090048101928261066b57600085556106b2565b82601f1061068457805160ff19168380011785556106b2565b828001600101855582156106b2579182015b828111156106b1578251825591602001919060010190610696565b5b5090506106bf91906106c3565b5090565b5b808211156106dc5760008160009055506001016106c4565b5090565b60006106f36106ee84610b09565b610ae4565b90508281526020810184848401111561070f5761070e610e41565b5b61071a848285610c32565b509392505050565b60008151905061073181610e8a565b92915050565b600082601f83011261074c5761074b610e3c565b5b813561075c8482602086016106e0565b91505092915050565b60008135905061077481610ea1565b92915050565b60008151905061078981610ea1565b92915050565b6000806000806000806000806000806101408b8d0312156107b3576107b2610e4b565b5b60006107c18d828e01610722565b9a505060206107d28d828e01610722565b99505060406107e38d828e0161077a565b98505060606107f48d828e0161077a565b97505060806108058d828e0161077a565b96505060a06108168d828e0161077a565b95505060c06108278d828e0161077a565b94505060e06108388d828e0161077a565b93505061010061084a8d828e0161077a565b92505061012061085c8d828e0161077a565b9150509295989b9194979a5092959850565b60006020828403121561088457610883610e4b565b5b600082013567ffffffffffffffff8111156108a2576108a1610e46565b5b6108ae84828501610737565b91505092915050565b6000602082840312156108cd576108cc610e4b565b5b60006108db84828501610765565b91505092915050565b600080604083850312156108fb576108fa610e4b565b5b600061090985828601610765565b925050602061091a85828601610765565b9150509250929050565b60008060006060848603121561093d5761093c610e4b565b5b600061094b86828701610765565b935050602061095c86828701610765565b925050604084013567ffffffffffffffff81111561097d5761097c610e46565b5b61098986828701610737565b9150509250925092565b600061099e82610b3a565b6109a88185610b45565b93506109b8818560208601610c41565b6109c181610e50565b840191505092915050565b60006109d782610b3a565b6109e18185610b56565b93506109f1818560208601610c41565b80840191505092915050565b6000610a0a600583610b56565b9150610a1582610e61565b600582019050919050565b610a2981610c28565b82525050565b6000610a3b82846109cc565b915081905092915050565b6000610a51826109fd565b9150819050919050565b6000602082019050610a706000830184610a20565b92915050565b6000604082019050610a8b6000830185610a20565b8181036020830152610a9d8184610993565b90509392505050565b6000606082019050610abb6000830186610a20565b8181036020830152610acd8185610993565b9050610adc6040830184610a20565b949350505050565b6000610aee610aff565b9050610afa8282610ca6565b919050565b6000604051905090565b600067ffffffffffffffff821115610b2457610b23610e0d565b5b610b2d82610e50565b9050602081019050919050565b600081519050919050565b600082825260208201905092915050565b600081905092915050565b6000610b6c82610c28565b9150610b7783610c28565b9250827fffffffffffffffffffffffffffffffffffffffffffffffffffffffffffffffff03821115610bac57610bab610d51565b5b828201905092915050565b6000610bc282610c28565b9150610bcd83610c28565b925082610bdd57610bdc610d80565b5b828204905092915050565b6000610bf382610c28565b9150610bfe83610c28565b925082821015610c1157610c10610d51565b5b828203905092915050565b60008115159050919050565b6000819050919050565b82818337600083830152505050565b60005b83811015610c5f578082015181840152602081019050610c44565b83811115610c6e576000848401525b50505050565b60006002820490506001821680610c8c57607f821691505b60208210811415610ca057610c9f610daf565b5b50919050565b610caf82610e50565b810181811067ffffffffffffffff82111715610cce57610ccd610e0d565b5b80604052505050565b6000610ce282610c28565b91507fffffffffffffffffffffffffffffffffffffffffffffffffffffffffffffffff821415610d1557610d14610d51565b5b600182019050919050565b6000610d2b82610c28565b9150610d3683610c28565b925082610d4657610d45610d80565b5b828206905092915050565b7f4e487b7100000000000000000000000000000000000000000000000000000000600052601160045260246000fd5b7f4e487b7100000000000000000000000000000000000000000000000000000000600052601260045260246000fd5b7f4e487b7100000000000000000000000000000000000000000000000000000000600052602260045260246000fd5b7f4e487b7100000000000000000000000000000000000000000000000000000000600052603260045260246000fd5b7f4e487b7100000000000000000000000000000000000000000000000000000000600052604160045260246000fd5b600080fd5b600080fd5b600080fd5b600080fd5b6000601f19601f8301169050919050565b7f6b69747479000000000000000000000000000000000000000000000000000000600082015250565b610e9381610c1c565b8114610e9e57600080fd5b50565b610eaa81610c28565b8114610eb557600080fd5b5056fea2646970667358221220c17b578e99fe7f415eebc074cad84f65acc7259be0de041521ca781a6060779b64736f6c63430008070033",
					"opcodes": "PUSH1 0x80 PUSH1 0x40 MSTORE PUSH1 0x10 PUSH1 0x0 SSTORE PUSH1 0x0 SLOAD PUSH1 0xA PUSH3 0x1A SWAP2 SWAP1 PUSH3 0x144 JUMP JUMPDEST PUSH1 0x1 SSTORE PUSH20 0x6012C8CF97BEAD5DEAE237070F9587F8E7A266D PUSH1 0x5 PUSH1 0x0 PUSH2 0x100 EXP DUP2 SLOAD DUP2 PUSH20 0xFFFFFFFFFFFFFFFFFFFFFFFFFFFFFFFFFFFFFFFF MUL NOT AND SWAP1 DUP4 PUSH20 0xFFFFFFFFFFFFFFFFFFFFFFFFFFFFFFFFFFFFFFFF AND MUL OR SWAP1 SSTORE POP PUSH1 0x5 PUSH1 0x0 SWAP1 SLOAD SWAP1 PUSH2 0x100 EXP SWAP1 DIV PUSH20 0xFFFFFFFFFFFFFFFFFFFFFFFFFFFFFFFFFFFFFFFF AND PUSH1 0x6 PUSH1 0x0 PUSH2 0x100 EXP DUP2 SLOAD DUP2 PUSH20 0xFFFFFFFFFFFFFFFFFFFFFFFFFFFFFFFFFFFFFFFF MUL NOT AND SWAP1 DUP4 PUSH20 0xFFFFFFFFFFFFFFFFFFFFFFFFFFFFFFFFFFFFFFFF AND MUL OR SWAP1 SSTORE POP CALLVALUE DUP1 ISZERO PUSH3 0xE2 JUMPI PUSH1 0x0 DUP1 REVERT JUMPDEST POP PUSH3 0x2C7 JUMP JUMPDEST PUSH1 0x0 DUP1 DUP3 SWAP2 POP DUP4 SWAP1 POP JUMPDEST PUSH1 0x1 DUP6 GT ISZERO PUSH3 0x13B JUMPI DUP1 DUP7 DIV DUP2 GT ISZERO PUSH3 0x113 JUMPI PUSH3 0x112 PUSH3 0x28B JUMP JUMPDEST JUMPDEST PUSH1 0x1 DUP6 AND ISZERO PUSH3 0x123 JUMPI DUP1 DUP3 MUL SWAP2 POP JUMPDEST DUP1 DUP2 MUL SWAP1 POP PUSH3 0x133 DUP6 PUSH3 0x2BA JUMP JUMPDEST SWAP5 POP PUSH3 0xF3 JUMP JUMPDEST SWAP5 POP SWAP5 SWAP3 POP POP POP JUMP JUMPDEST PUSH1 0x0 PUSH3 0x151 DUP3 PUSH3 0x281 JUMP JUMPDEST SWAP2 POP PUSH3 0x15E DUP4 PUSH3 0x281 JUMP JUMPDEST SWAP3 POP PUSH3 0x18D PUSH32 0xFFFFFFFFFFFFFFFFFFFFFFFFFFFFFFFFFFFFFFFFFFFFFFFFFFFFFFFFFFFFFFFF DUP5 DUP5 PUSH3 0x195 JUMP JUMPDEST SWAP1 POP SWAP3 SWAP2 POP POP JUMP JUMPDEST PUSH1 0x0 DUP3 PUSH3 0x1A7 JUMPI PUSH1 0x1 SWAP1 POP PUSH3 0x27A JUMP JUMPDEST DUP2 PUSH3 0x1B7 JUMPI PUSH1 0x0 SWAP1 POP PUSH3 0x27A JUMP JUMPDEST DUP2 PUSH1 0x1 DUP2 EQ PUSH3 0x1D0 JUMPI PUSH1 0x2 DUP2 EQ PUSH3 0x1DB JUMPI PUSH3 0x211 JUMP JUMPDEST PUSH1 0x1 SWAP2 POP POP PUSH3 0x27A JUMP JUMPDEST PUSH1 0xFF DUP5 GT ISZERO PUSH3 0x1F0 JUMPI PUSH3 0x1EF PUSH3 0x28B JUMP JUMPDEST JUMPDEST DUP4 PUSH1 0x2 EXP SWAP2 POP DUP5 DUP3 GT ISZERO PUSH3 0x20A JUMPI PUSH3 0x209 PUSH3 0x28B JUMP JUMPDEST JUMPDEST POP PUSH3 0x27A JUMP JUMPDEST POP PUSH1 0x20 DUP4 LT PUSH2 0x133 DUP4 LT AND PUSH1 0x4E DUP5 LT PUSH1 0xB DUP5 LT AND OR ISZERO PUSH3 0x24B JUMPI DUP3 DUP3 EXP SWAP1 POP DUP4 DUP2 GT ISZERO PUSH3 0x245 JUMPI PUSH3 0x244 PUSH3 0x28B JUMP JUMPDEST JUMPDEST PUSH3 0x27A JUMP JUMPDEST PUSH3 0x25A DUP5 DUP5 DUP5 PUSH1 0x1 PUSH3 0xE9 JUMP JUMPDEST SWAP3 POP SWAP1 POP DUP2 DUP5 DIV DUP2 GT ISZERO PUSH3 0x274 JUMPI PUSH3 0x273 PUSH3 0x28B JUMP JUMPDEST JUMPDEST DUP2 DUP2 MUL SWAP1 POP JUMPDEST SWAP4 SWAP3 POP POP POP JUMP JUMPDEST PUSH1 0x0 DUP2 SWAP1 POP SWAP2 SWAP1 POP JUMP JUMPDEST PUSH32 0x4E487B7100000000000000000000000000000000000000000000000000000000 PUSH1 0x0 MSTORE PUSH1 0x11 PUSH1 0x4 MSTORE PUSH1 0x24 PUSH1 0x0 REVERT JUMPDEST PUSH1 0x0 DUP2 PUSH1 0x1 SHR SWAP1 POP SWAP2 SWAP1 POP JUMP JUMPDEST PUSH2 0xEEE DUP1 PUSH3 0x2D7 PUSH1 0x0 CODECOPY PUSH1 0x0 RETURN INVALID PUSH1 0x80 PUSH1 0x40 MSTORE CALLVALUE DUP1 ISZERO PUSH2 0x10 JUMPI PUSH1 0x0 DUP1 REVERT JUMPDEST POP PUSH1 0x4 CALLDATASIZE LT PUSH2 0x4C JUMPI PUSH1 0x0 CALLDATALOAD PUSH1 0xE0 SHR DUP1 PUSH4 0x17A7F4CC EQ PUSH2 0x51 JUMPI DUP1 PUSH4 0x2052465E EQ PUSH2 0x6D JUMPI DUP1 PUSH4 0x6B0BFC80 EQ PUSH2 0x9E JUMPI DUP1 PUSH4 0xC6F15112 EQ PUSH2 0xBA JUMPI JUMPDEST PUSH1 0x0 DUP1 REVERT JUMPDEST PUSH2 0x6B PUSH1 0x4 DUP1 CALLDATASIZE SUB DUP2 ADD SWAP1 PUSH2 0x66 SWAP2 SWAP1 PUSH2 0x8E4 JUMP JUMPDEST PUSH2 0xD6 JUMP JUMPDEST STOP JUMPDEST PUSH2 0x87 PUSH1 0x4 DUP1 CALLDATASIZE SUB DUP2 ADD SWAP1 PUSH2 0x82 SWAP2 SWAP1 PUSH2 0x8B7 JUMP JUMPDEST PUSH2 0x203 JUMP JUMPDEST PUSH1 0x40 MLOAD PUSH2 0x95 SWAP3 SWAP2 SWAP1 PUSH2 0xA76 JUMP JUMPDEST PUSH1 0x40 MLOAD DUP1 SWAP2 SUB SWAP1 RETURN JUMPDEST PUSH2 0xB8 PUSH1 0x4 DUP1 CALLDATASIZE SUB DUP2 ADD SWAP1 PUSH2 0xB3 SWAP2 SWAP1 PUSH2 0x924 JUMP JUMPDEST PUSH2 0x2BF JUMP JUMPDEST STOP JUMPDEST PUSH2 0xD4 PUSH1 0x4 DUP1 CALLDATASIZE SUB DUP2 ADD SWAP1 PUSH2 0xCF SWAP2 SWAP1 PUSH2 0x86E JUMP JUMPDEST PUSH2 0x420 JUMP JUMPDEST STOP JUMPDEST PUSH1 0x0 PUSH1 0x6 PUSH1 0x0 SWAP1 SLOAD SWAP1 PUSH2 0x100 EXP SWAP1 DIV PUSH20 0xFFFFFFFFFFFFFFFFFFFFFFFFFFFFFFFFFFFFFFFF AND PUSH20 0xFFFFFFFFFFFFFFFFFFFFFFFFFFFFFFFFFFFFFFFF AND PUSH4 0xE98B7F4D DUP4 PUSH1 0x40 MLOAD DUP3 PUSH4 0xFFFFFFFF AND PUSH1 0xE0 SHL DUP2 MSTORE PUSH1 0x4 ADD PUSH2 0x133 SWAP2 SWAP1 PUSH2 0xA5B JUMP JUMPDEST PUSH2 0x140 PUSH1 0x40 MLOAD DUP1 DUP4 SUB DUP2 DUP7 DUP1 EXTCODESIZE ISZERO DUP1 ISZERO PUSH2 0x14C JUMPI PUSH1 0x0 DUP1 REVERT JUMPDEST POP GAS STATICCALL ISZERO DUP1 ISZERO PUSH2 0x160 JUMPI RETURNDATASIZE PUSH1 0x0 DUP1 RETURNDATACOPY RETURNDATASIZE PUSH1 0x0 REVERT JUMPDEST POP POP POP POP PUSH1 0x40 MLOAD RETURNDATASIZE PUSH1 0x1F NOT PUSH1 0x1F DUP3 ADD AND DUP3 ADD DUP1 PUSH1 0x40 MSTORE POP DUP2 ADD SWAP1 PUSH2 0x184 SWAP2 SWAP1 PUSH2 0x78F JUMP JUMPDEST SWAP1 SWAP2 SWAP3 SWAP4 SWAP5 SWAP6 SWAP7 SWAP8 SWAP9 POP SWAP1 SWAP2 SWAP3 SWAP4 SWAP5 SWAP6 SWAP7 SWAP8 POP SWAP1 SWAP2 SWAP3 SWAP4 SWAP5 SWAP6 SWAP7 POP SWAP1 SWAP2 SWAP3 SWAP4 SWAP5 SWAP6 POP SWAP1 SWAP2 SWAP3 SWAP4 SWAP5 POP SWAP1 SWAP2 SWAP3 SWAP4 POP SWAP1 SWAP2 SWAP3 POP SWAP1 SWAP2 POP SWAP1 POP DUP1 SWAP2 POP POP PUSH2 0x1FE DUP4 DUP3 PUSH1 0x40 MLOAD DUP1 PUSH1 0x40 ADD PUSH1 0x40 MSTORE DUP1 PUSH1 0x5 DUP2 MSTORE PUSH1 0x20 ADD PUSH32 0x6B69747479000000000000000000000000000000000000000000000000000000 DUP2 MSTORE POP PUSH2 0x2BF JUMP JUMPDEST POP POP POP JUMP JUMPDEST PUSH1 0x2 DUP2 DUP2 SLOAD DUP2 LT PUSH2 0x213 JUMPI PUSH1 0x0 DUP1 REVERT JUMPDEST SWAP1 PUSH1 0x0 MSTORE PUSH1 0x20 PUSH1 0x0 KECCAK256 SWAP1 PUSH1 0x2 MUL ADD PUSH1 0x0 SWAP2 POP SWAP1 POP DUP1 PUSH1 0x0 ADD SLOAD SWAP1 DUP1 PUSH1 0x1 ADD DUP1 SLOAD PUSH2 0x23C SWAP1 PUSH2 0xC74 JUMP JUMPDEST DUP1 PUSH1 0x1F ADD PUSH1 0x20 DUP1 SWAP2 DIV MUL PUSH1 0x20 ADD PUSH1 0x40 MLOAD SWAP1 DUP2 ADD PUSH1 0x40 MSTORE DUP1 SWAP3 SWAP2 SWAP1 DUP2 DUP2 MSTORE PUSH1 0x20 ADD DUP3 DUP1 SLOAD PUSH2 0x268 SWAP1 PUSH2 0xC74 JUMP JUMPDEST DUP1 ISZERO PUSH2 0x2B5 JUMPI DUP1 PUSH1 0x1F LT PUSH2 0x28A JUMPI PUSH2 0x100 DUP1 DUP4 SLOAD DIV MUL DUP4 MSTORE SWAP2 PUSH1 0x20 ADD SWAP2 PUSH2 0x2B5 JUMP JUMPDEST DUP3 ADD SWAP2 SWAP1 PUSH1 0x0 MSTORE PUSH1 0x20 PUSH1 0x0 KECCAK256 SWAP1 JUMPDEST DUP2 SLOAD DUP2 MSTORE SWAP1 PUSH1 0x1 ADD SWAP1 PUSH1 0x20 ADD DUP1 DUP4 GT PUSH2 0x298 JUMPI DUP3 SWAP1 SUB PUSH1 0x1F AND DUP3 ADD SWAP2 JUMPDEST POP POP POP POP POP SWAP1 POP DUP3 JUMP JUMPDEST PUSH1 0x0 PUSH1 0x4 PUSH1 0x0 CALLER PUSH20 0xFFFFFFFFFFFFFFFFFFFFFFFFFFFFFFFFFFFFFFFF AND PUSH20 0xFFFFFFFFFFFFFFFFFFFFFFFFFFFFFFFFFFFFFFFF AND DUP2 MSTORE PUSH1 0x20 ADD SWAP1 DUP2 MSTORE PUSH1 0x20 ADD PUSH1 0x0 KECCAK256 SLOAD EQ PUSH2 0x30B JUMPI PUSH1 0x0 DUP1 REVERT JUMPDEST PUSH1 0x0 PUSH1 0x2 DUP5 DUP2 SLOAD DUP2 LT PUSH2 0x321 JUMPI PUSH2 0x320 PUSH2 0xDDE JUMP JUMPDEST JUMPDEST SWAP1 PUSH1 0x0 MSTORE PUSH1 0x20 PUSH1 0x0 KECCAK256 SWAP1 PUSH1 0x2 MUL ADD SWAP1 POP PUSH1 0x1 SLOAD DUP4 PUSH2 0x33F SWAP2 SWAP1 PUSH2 0xD20 JUMP JUMPDEST SWAP3 POP PUSH1 0x0 PUSH1 0x2 DUP3 PUSH1 0x0 ADD SLOAD DUP6 PUSH2 0x355 SWAP2 SWAP1 PUSH2 0xB61 JUMP JUMPDEST PUSH2 0x35F SWAP2 SWAP1 PUSH2 0xBB7 JUMP JUMPDEST SWAP1 POP PUSH1 0x40 MLOAD PUSH1 0x20 ADD PUSH2 0x370 SWAP1 PUSH2 0xA46 JUMP JUMPDEST PUSH1 0x40 MLOAD PUSH1 0x20 DUP2 DUP4 SUB SUB DUP2 MSTORE SWAP1 PUSH1 0x40 MSTORE DUP1 MLOAD SWAP1 PUSH1 0x20 ADD KECCAK256 DUP4 PUSH1 0x40 MLOAD PUSH1 0x20 ADD PUSH2 0x397 SWAP2 SWAP1 PUSH2 0xA2F JUMP JUMPDEST PUSH1 0x40 MLOAD PUSH1 0x20 DUP2 DUP4 SUB SUB DUP2 MSTORE SWAP1 PUSH1 0x40 MSTORE DUP1 MLOAD SWAP1 PUSH1 0x20 ADD KECCAK256 EQ ISZERO PUSH2 0x3DA JUMPI PUSH1 0x63 PUSH1 0x64 DUP3 PUSH2 0x3C2 SWAP2 SWAP1 PUSH2 0xD20 JUMP JUMPDEST DUP3 PUSH2 0x3CD SWAP2 SWAP1 PUSH2 0xBE8 JUMP JUMPDEST PUSH2 0x3D7 SWAP2 SWAP1 PUSH2 0xB61 JUMP JUMPDEST SWAP1 POP JUMPDEST PUSH2 0x419 PUSH1 0x40 MLOAD DUP1 PUSH1 0x40 ADD PUSH1 0x40 MSTORE DUP1 PUSH1 0x6 DUP2 MSTORE PUSH1 0x20 ADD PUSH32 0x4E6F4E616D650000000000000000000000000000000000000000000000000000 DUP2 MSTORE POP DUP3 PUSH2 0x487 JUMP JUMPDEST POP POP POP POP POP JUMP JUMPDEST PUSH1 0x0 PUSH1 0x4 PUSH1 0x0 CALLER PUSH20 0xFFFFFFFFFFFFFFFFFFFFFFFFFFFFFFFFFFFFFFFF AND PUSH20 0xFFFFFFFFFFFFFFFFFFFFFFFFFFFFFFFFFFFFFFFF AND DUP2 MSTORE PUSH1 0x20 ADD SWAP1 DUP2 MSTORE PUSH1 0x20 ADD PUSH1 0x0 KECCAK256 SLOAD EQ PUSH2 0x46C JUMPI PUSH1 0x0 DUP1 REVERT JUMPDEST PUSH1 0x0 PUSH2 0x477 DUP3 PUSH2 0x5F8 JUMP JUMPDEST SWAP1 POP PUSH2 0x483 DUP3 DUP3 PUSH2 0x487 JUMP JUMPDEST POP POP JUMP JUMPDEST PUSH1 0x2 PUSH1 0x40 MLOAD DUP1 PUSH1 0x40 ADD PUSH1 0x40 MSTORE DUP1 DUP4 DUP2 MSTORE PUSH1 0x20 ADD DUP5 DUP2 MSTORE POP SWAP1 DUP1 PUSH1 0x1 DUP2 SLOAD ADD DUP1 DUP3 SSTORE DUP1 SWAP2 POP POP PUSH1 0x1 SWAP1 SUB SWAP1 PUSH1 0x0 MSTORE PUSH1 0x20 PUSH1 0x0 KECCAK256 SWAP1 PUSH1 0x2 MUL ADD PUSH1 0x0 SWAP1 SWAP2 SWAP1 SWAP2 SWAP1 SWAP2 POP PUSH1 0x0 DUP3 ADD MLOAD DUP2 PUSH1 0x0 ADD SSTORE PUSH1 0x20 DUP3 ADD MLOAD DUP2 PUSH1 0x1 ADD SWAP1 DUP1 MLOAD SWAP1 PUSH1 0x20 ADD SWAP1 PUSH2 0x4ED SWAP3 SWAP2 SWAP1 PUSH2 0x63D JUMP JUMPDEST POP POP POP CALLER PUSH1 0x3 PUSH1 0x0 PUSH1 0x1 PUSH1 0x2 DUP1 SLOAD SWAP1 POP PUSH2 0x507 SWAP2 SWAP1 PUSH2 0xBE8 JUMP JUMPDEST DUP2 MSTORE PUSH1 0x20 ADD SWAP1 DUP2 MSTORE PUSH1 0x20 ADD PUSH1 0x0 KECCAK256 PUSH1 0x0 PUSH2 0x100 EXP DUP2 SLOAD DUP2 PUSH20 0xFFFFFFFFFFFFFFFFFFFFFFFFFFFFFFFFFFFFFFFF MUL NOT AND SWAP1 DUP4 PUSH20 0xFFFFFFFFFFFFFFFFFFFFFFFFFFFFFFFFFFFFFFFF AND MUL OR SWAP1 SSTORE POP PUSH1 0x4 PUSH1 0x0 CALLER PUSH20 0xFFFFFFFFFFFFFFFFFFFFFFFFFFFFFFFFFFFFFFFF AND PUSH20 0xFFFFFFFFFFFFFFFFFFFFFFFFFFFFFFFFFFFFFFFF AND DUP2 MSTORE PUSH1 0x20 ADD SWAP1 DUP2 MSTORE PUSH1 0x20 ADD PUSH1 0x0 KECCAK256 PUSH1 0x0 DUP2 SLOAD DUP1 SWAP3 SWAP2 SWAP1 PUSH2 0x5A3 SWAP1 PUSH2 0xCD7 JUMP JUMPDEST SWAP2 SWAP1 POP SSTORE POP PUSH32 0x88F026AACBBECC90C18411DF4B1185FD8D9BE2470F1962F192BF84A27D0704B7 PUSH1 0x1 PUSH1 0x2 DUP1 SLOAD SWAP1 POP PUSH2 0x5DB SWAP2 SWAP1 PUSH2 0xBE8 JUMP JUMPDEST DUP4 DUP4 PUSH1 0x40 MLOAD PUSH2 0x5EC SWAP4 SWAP3 SWAP2 SWAP1 PUSH2 0xAA6 JUMP JUMPDEST PUSH1 0x40 MLOAD DUP1 SWAP2 SUB SWAP1 LOG1 POP POP JUMP JUMPDEST PUSH1 0x0 DUP1 DUP3 PUSH1 0x40 MLOAD PUSH1 0x20 ADD PUSH2 0x60C SWAP2 SWAP1 PUSH2 0xA2F JUMP JUMPDEST PUSH1 0x40 MLOAD PUSH1 0x20 DUP2 DUP4 SUB SUB DUP2 MSTORE SWAP1 PUSH1 0x40 MSTORE DUP1 MLOAD SWAP1 PUSH1 0x20 ADD KECCAK256 PUSH1 0x0 SHR SWAP1 POP PUSH1 0x1 SLOAD DUP2 PUSH2 0x635 SWAP2 SWAP1 PUSH2 0xD20 JUMP JUMPDEST SWAP2 POP POP SWAP2 SWAP1 POP JUMP JUMPDEST DUP3 DUP1 SLOAD PUSH2 0x649 SWAP1 PUSH2 0xC74 JUMP JUMPDEST SWAP1 PUSH1 0x0 MSTORE PUSH1 0x20 PUSH1 0x0 KECCAK256 SWAP1 PUSH1 0x1F ADD PUSH1 0x20 SWAP1 DIV DUP2 ADD SWAP3 DUP3 PUSH2 0x66B JUMPI PUSH1 0x0 DUP6 SSTORE PUSH2 0x6B2 JUMP JUMPDEST DUP3 PUSH1 0x1F LT PUSH2 0x684 JUMPI DUP1 MLOAD PUSH1 0xFF NOT AND DUP4 DUP1 ADD OR DUP6 SSTORE PUSH2 0x6B2 JUMP JUMPDEST DUP3 DUP1 ADD PUSH1 0x1 ADD DUP6 SSTORE DUP3 ISZERO PUSH2 0x6B2 JUMPI SWAP2 DUP3 ADD JUMPDEST DUP3 DUP2 GT ISZERO PUSH2 0x6B1 JUMPI DUP3 MLOAD DUP3 SSTORE SWAP2 PUSH1 0x20 ADD SWAP2 SWAP1 PUSH1 0x1 ADD SWAP1 PUSH2 0x696 JUMP JUMPDEST JUMPDEST POP SWAP1 POP PUSH2 0x6BF SWAP2 SWAP1 PUSH2 0x6C3 JUMP JUMPDEST POP SWAP1 JUMP JUMPDEST JUMPDEST DUP1 DUP3 GT ISZERO PUSH2 0x6DC JUMPI PUSH1 0x0 DUP2 PUSH1 0x0 SWAP1 SSTORE POP PUSH1 0x1 ADD PUSH2 0x6C4 JUMP JUMPDEST POP SWAP1 JUMP JUMPDEST PUSH1 0x0 PUSH2 0x6F3 PUSH2 0x6EE DUP5 PUSH2 0xB09 JUMP JUMPDEST PUSH2 0xAE4 JUMP JUMPDEST SWAP1 POP DUP3 DUP2 MSTORE PUSH1 0x20 DUP2 ADD DUP5 DUP5 DUP5 ADD GT ISZERO PUSH2 0x70F JUMPI PUSH2 0x70E PUSH2 0xE41 JUMP JUMPDEST JUMPDEST PUSH2 0x71A DUP5 DUP3 DUP6 PUSH2 0xC32 JUMP JUMPDEST POP SWAP4 SWAP3 POP POP POP JUMP JUMPDEST PUSH1 0x0 DUP2 MLOAD SWAP1 POP PUSH2 0x731 DUP2 PUSH2 0xE8A JUMP JUMPDEST SWAP3 SWAP2 POP POP JUMP JUMPDEST PUSH1 0x0 DUP3 PUSH1 0x1F DUP4 ADD SLT PUSH2 0x74C JUMPI PUSH2 0x74B PUSH2 0xE3C JUMP JUMPDEST JUMPDEST DUP2 CALLDATALOAD PUSH2 0x75C DUP5 DUP3 PUSH1 0x20 DUP7 ADD PUSH2 0x6E0 JUMP JUMPDEST SWAP2 POP POP SWAP3 SWAP2 POP POP JUMP JUMPDEST PUSH1 0x0 DUP2 CALLDATALOAD SWAP1 POP PUSH2 0x774 DUP2 PUSH2 0xEA1 JUMP JUMPDEST SWAP3 SWAP2 POP POP JUMP JUMPDEST PUSH1 0x0 DUP2 MLOAD SWAP1 POP PUSH2 0x789 DUP2 PUSH2 0xEA1 JUMP JUMPDEST SWAP3 SWAP2 POP POP JUMP JUMPDEST PUSH1 0x0 DUP1 PUSH1 0x0 DUP1 PUSH1 0x0 DUP1 PUSH1 0x0 DUP1 PUSH1 0x0 DUP1 PUSH2 0x140 DUP12 DUP14 SUB SLT ISZERO PUSH2 0x7B3 JUMPI PUSH2 0x7B2 PUSH2 0xE4B JUMP JUMPDEST JUMPDEST PUSH1 0x0 PUSH2 0x7C1 DUP14 DUP3 DUP15 ADD PUSH2 0x722 JUMP JUMPDEST SWAP11 POP POP PUSH1 0x20 PUSH2 0x7D2 DUP14 DUP3 DUP15 ADD PUSH2 0x722 JUMP JUMPDEST SWAP10 POP POP PUSH1 0x40 PUSH2 0x7E3 DUP14 DUP3 DUP15 ADD PUSH2 0x77A JUMP JUMPDEST SWAP9 POP POP PUSH1 0x60 PUSH2 0x7F4 DUP14 DUP3 DUP15 ADD PUSH2 0x77A JUMP JUMPDEST SWAP8 POP POP PUSH1 0x80 PUSH2 0x805 DUP14 DUP3 DUP15 ADD PUSH2 0x77A JUMP JUMPDEST SWAP7 POP POP PUSH1 0xA0 PUSH2 0x816 DUP14 DUP3 DUP15 ADD PUSH2 0x77A JUMP JUMPDEST SWAP6 POP POP PUSH1 0xC0 PUSH2 0x827 DUP14 DUP3 DUP15 ADD PUSH2 0x77A JUMP JUMPDEST SWAP5 POP POP PUSH1 0xE0 PUSH2 0x838 DUP14 DUP3 DUP15 ADD PUSH2 0x77A JUMP JUMPDEST SWAP4 POP POP PUSH2 0x100 PUSH2 0x84A DUP14 DUP3 DUP15 ADD PUSH2 0x77A JUMP JUMPDEST SWAP3 POP POP PUSH2 0x120 PUSH2 0x85C DUP14 DUP3 DUP15 ADD PUSH2 0x77A JUMP JUMPDEST SWAP2 POP POP SWAP3 SWAP6 SWAP9 SWAP12 SWAP2 SWAP5 SWAP8 SWAP11 POP SWAP3 SWAP6 SWAP9 POP JUMP JUMPDEST PUSH1 0x0 PUSH1 0x20 DUP3 DUP5 SUB SLT ISZERO PUSH2 0x884 JUMPI PUSH2 0x883 PUSH2 0xE4B JUMP JUMPDEST JUMPDEST PUSH1 0x0 DUP3 ADD CALLDATALOAD PUSH8 0xFFFFFFFFFFFFFFFF DUP2 GT ISZERO PUSH2 0x8A2 JUMPI PUSH2 0x8A1 PUSH2 0xE46 JUMP JUMPDEST JUMPDEST PUSH2 0x8AE DUP5 DUP3 DUP6 ADD PUSH2 0x737 JUMP JUMPDEST SWAP2 POP POP SWAP3 SWAP2 POP POP JUMP JUMPDEST PUSH1 0x0 PUSH1 0x20 DUP3 DUP5 SUB SLT ISZERO PUSH2 0x8CD JUMPI PUSH2 0x8CC PUSH2 0xE4B JUMP JUMPDEST JUMPDEST PUSH1 0x0 PUSH2 0x8DB DUP5 DUP3 DUP6 ADD PUSH2 0x765 JUMP JUMPDEST SWAP2 POP POP SWAP3 SWAP2 POP POP JUMP JUMPDEST PUSH1 0x0 DUP1 PUSH1 0x40 DUP4 DUP6 SUB SLT ISZERO PUSH2 0x8FB JUMPI PUSH2 0x8FA PUSH2 0xE4B JUMP JUMPDEST JUMPDEST PUSH1 0x0 PUSH2 0x909 DUP6 DUP3 DUP7 ADD PUSH2 0x765 JUMP JUMPDEST SWAP3 POP POP PUSH1 0x20 PUSH2 0x91A DUP6 DUP3 DUP7 ADD PUSH2 0x765 JUMP JUMPDEST SWAP2 POP POP SWAP3 POP SWAP3 SWAP1 POP JUMP JUMPDEST PUSH1 0x0 DUP1 PUSH1 0x0 PUSH1 0x60 DUP5 DUP7 SUB SLT ISZERO PUSH2 0x93D JUMPI PUSH2 0x93C PUSH2 0xE4B JUMP JUMPDEST JUMPDEST PUSH1 0x0 PUSH2 0x94B DUP7 DUP3 DUP8 ADD PUSH2 0x765 JUMP JUMPDEST SWAP4 POP POP PUSH1 0x20 PUSH2 0x95C DUP7 DUP3 DUP8 ADD PUSH2 0x765 JUMP JUMPDEST SWAP3 POP POP PUSH1 0x40 DUP5 ADD CALLDATALOAD PUSH8 0xFFFFFFFFFFFFFFFF DUP2 GT ISZERO PUSH2 0x97D JUMPI PUSH2 0x97C PUSH2 0xE46 JUMP JUMPDEST JUMPDEST PUSH2 0x989 DUP7 DUP3 DUP8 ADD PUSH2 0x737 JUMP JUMPDEST SWAP2 POP POP SWAP3 POP SWAP3 POP SWAP3 JUMP JUMPDEST PUSH1 0x0 PUSH2 0x99E DUP3 PUSH2 0xB3A JUMP JUMPDEST PUSH2 0x9A8 DUP2 DUP6 PUSH2 0xB45 JUMP JUMPDEST SWAP4 POP PUSH2 0x9B8 DUP2 DUP6 PUSH1 0x20 DUP7 ADD PUSH2 0xC41 JUMP JUMPDEST PUSH2 0x9C1 DUP2 PUSH2 0xE50 JUMP JUMPDEST DUP5 ADD SWAP2 POP POP SWAP3 SWAP2 POP POP JUMP JUMPDEST PUSH1 0x0 PUSH2 0x9D7 DUP3 PUSH2 0xB3A JUMP JUMPDEST PUSH2 0x9E1 DUP2 DUP6 PUSH2 0xB56 JUMP JUMPDEST SWAP4 POP PUSH2 0x9F1 DUP2 DUP6 PUSH1 0x20 DUP7 ADD PUSH2 0xC41 JUMP JUMPDEST DUP1 DUP5 ADD SWAP2 POP POP SWAP3 SWAP2 POP POP JUMP JUMPDEST PUSH1 0x0 PUSH2 0xA0A PUSH1 0x5 DUP4 PUSH2 0xB56 JUMP JUMPDEST SWAP2 POP PUSH2 0xA15 DUP3 PUSH2 0xE61 JUMP JUMPDEST PUSH1 0x5 DUP3 ADD SWAP1 POP SWAP2 SWAP1 POP JUMP JUMPDEST PUSH2 0xA29 DUP2 PUSH2 0xC28 JUMP JUMPDEST DUP3 MSTORE POP POP JUMP JUMPDEST PUSH1 0x0 PUSH2 0xA3B DUP3 DUP5 PUSH2 0x9CC JUMP JUMPDEST SWAP2 POP DUP2 SWAP1 POP SWAP3 SWAP2 POP POP JUMP JUMPDEST PUSH1 0x0 PUSH2 0xA51 DUP3 PUSH2 0x9FD JUMP JUMPDEST SWAP2 POP DUP2 SWAP1 POP SWAP2 SWAP1 POP JUMP JUMPDEST PUSH1 0x0 PUSH1 0x20 DUP3 ADD SWAP1 POP PUSH2 0xA70 PUSH1 0x0 DUP4 ADD DUP5 PUSH2 0xA20 JUMP JUMPDEST SWAP3 SWAP2 POP POP JUMP JUMPDEST PUSH1 0x0 PUSH1 0x40 DUP3 ADD SWAP1 POP PUSH2 0xA8B PUSH1 0x0 DUP4 ADD DUP6 PUSH2 0xA20 JUMP JUMPDEST DUP2 DUP2 SUB PUSH1 0x20 DUP4 ADD MSTORE PUSH2 0xA9D DUP2 DUP5 PUSH2 0x993 JUMP JUMPDEST SWAP1 POP SWAP4 SWAP3 POP POP POP JUMP JUMPDEST PUSH1 0x0 PUSH1 0x60 DUP3 ADD SWAP1 POP PUSH2 0xABB PUSH1 0x0 DUP4 ADD DUP7 PUSH2 0xA20 JUMP JUMPDEST DUP2 DUP2 SUB PUSH1 0x20 DUP4 ADD MSTORE PUSH2 0xACD DUP2 DUP6 PUSH2 0x993 JUMP JUMPDEST SWAP1 POP PUSH2 0xADC PUSH1 0x40 DUP4 ADD DUP5 PUSH2 0xA20 JUMP JUMPDEST SWAP5 SWAP4 POP POP POP POP JUMP JUMPDEST PUSH1 0x0 PUSH2 0xAEE PUSH2 0xAFF JUMP JUMPDEST SWAP1 POP PUSH2 0xAFA DUP3 DUP3 PUSH2 0xCA6 JUMP JUMPDEST SWAP2 SWAP1 POP JUMP JUMPDEST PUSH1 0x0 PUSH1 0x40 MLOAD SWAP1 POP SWAP1 JUMP JUMPDEST PUSH1 0x0 PUSH8 0xFFFFFFFFFFFFFFFF DUP3 GT ISZERO PUSH2 0xB24 JUMPI PUSH2 0xB23 PUSH2 0xE0D JUMP JUMPDEST JUMPDEST PUSH2 0xB2D DUP3 PUSH2 0xE50 JUMP JUMPDEST SWAP1 POP PUSH1 0x20 DUP2 ADD SWAP1 POP SWAP2 SWAP1 POP JUMP JUMPDEST PUSH1 0x0 DUP2 MLOAD SWAP1 POP SWAP2 SWAP1 POP JUMP JUMPDEST PUSH1 0x0 DUP3 DUP3 MSTORE PUSH1 0x20 DUP3 ADD SWAP1 POP SWAP3 SWAP2 POP POP JUMP JUMPDEST PUSH1 0x0 DUP2 SWAP1 POP SWAP3 SWAP2 POP POP JUMP JUMPDEST PUSH1 0x0 PUSH2 0xB6C DUP3 PUSH2 0xC28 JUMP JUMPDEST SWAP2 POP PUSH2 0xB77 DUP4 PUSH2 0xC28 JUMP JUMPDEST SWAP3 POP DUP3 PUSH32 0xFFFFFFFFFFFFFFFFFFFFFFFFFFFFFFFFFFFFFFFFFFFFFFFFFFFFFFFFFFFFFFFF SUB DUP3 GT ISZERO PUSH2 0xBAC JUMPI PUSH2 0xBAB PUSH2 0xD51 JUMP JUMPDEST JUMPDEST DUP3 DUP3 ADD SWAP1 POP SWAP3 SWAP2 POP POP JUMP JUMPDEST PUSH1 0x0 PUSH2 0xBC2 DUP3 PUSH2 0xC28 JUMP JUMPDEST SWAP2 POP PUSH2 0xBCD DUP4 PUSH2 0xC28 JUMP JUMPDEST SWAP3 POP DUP3 PUSH2 0xBDD JUMPI PUSH2 0xBDC PUSH2 0xD80 JUMP JUMPDEST JUMPDEST DUP3 DUP3 DIV SWAP1 POP SWAP3 SWAP2 POP POP JUMP JUMPDEST PUSH1 0x0 PUSH2 0xBF3 DUP3 PUSH2 0xC28 JUMP JUMPDEST SWAP2 POP PUSH2 0xBFE DUP4 PUSH2 0xC28 JUMP JUMPDEST SWAP3 POP DUP3 DUP3 LT ISZERO PUSH2 0xC11 JUMPI PUSH2 0xC10 PUSH2 0xD51 JUMP JUMPDEST JUMPDEST DUP3 DUP3 SUB SWAP1 POP SWAP3 SWAP2 POP POP JUMP JUMPDEST PUSH1 0x0 DUP2 ISZERO ISZERO SWAP1 POP SWAP2 SWAP1 POP JUMP JUMPDEST PUSH1 0x0 DUP2 SWAP1 POP SWAP2 SWAP1 POP JUMP JUMPDEST DUP3 DUP2 DUP4 CALLDATACOPY PUSH1 0x0 DUP4 DUP4 ADD MSTORE POP POP POP JUMP JUMPDEST PUSH1 0x0 JUMPDEST DUP4 DUP2 LT ISZERO PUSH2 0xC5F JUMPI DUP1 DUP3 ADD MLOAD DUP2 DUP5 ADD MSTORE PUSH1 0x20 DUP2 ADD SWAP1 POP PUSH2 0xC44 JUMP JUMPDEST DUP4 DUP2 GT ISZERO PUSH2 0xC6E JUMPI PUSH1 0x0 DUP5 DUP5 ADD MSTORE JUMPDEST POP POP POP POP JUMP JUMPDEST PUSH1 0x0 PUSH1 0x2 DUP3 DIV SWAP1 POP PUSH1 0x1 DUP3 AND DUP1 PUSH2 0xC8C JUMPI PUSH1 0x7F DUP3 AND SWAP2 POP JUMPDEST PUSH1 0x20 DUP3 LT DUP2 EQ ISZERO PUSH2 0xCA0 JUMPI PUSH2 0xC9F PUSH2 0xDAF JUMP JUMPDEST JUMPDEST POP SWAP2 SWAP1 POP JUMP JUMPDEST PUSH2 0xCAF DUP3 PUSH2 0xE50 JUMP JUMPDEST DUP2 ADD DUP2 DUP2 LT PUSH8 0xFFFFFFFFFFFFFFFF DUP3 GT OR ISZERO PUSH2 0xCCE JUMPI PUSH2 0xCCD PUSH2 0xE0D JUMP JUMPDEST JUMPDEST DUP1 PUSH1 0x40 MSTORE POP POP POP JUMP JUMPDEST PUSH1 0x0 PUSH2 0xCE2 DUP3 PUSH2 0xC28 JUMP JUMPDEST SWAP2 POP PUSH32 0xFFFFFFFFFFFFFFFFFFFFFFFFFFFFFFFFFFFFFFFFFFFFFFFFFFFFFFFFFFFFFFFF DUP3 EQ ISZERO PUSH2 0xD15 JUMPI PUSH2 0xD14 PUSH2 0xD51 JUMP JUMPDEST JUMPDEST PUSH1 0x1 DUP3 ADD SWAP1 POP SWAP2 SWAP1 POP JUMP JUMPDEST PUSH1 0x0 PUSH2 0xD2B DUP3 PUSH2 0xC28 JUMP JUMPDEST SWAP2 POP PUSH2 0xD36 DUP4 PUSH2 0xC28 JUMP JUMPDEST SWAP3 POP DUP3 PUSH2 0xD46 JUMPI PUSH2 0xD45 PUSH2 0xD80 JUMP JUMPDEST JUMPDEST DUP3 DUP3 MOD SWAP1 POP SWAP3 SWAP2 POP POP JUMP JUMPDEST PUSH32 0x4E487B7100000000000000000000000000000000000000000000000000000000 PUSH1 0x0 MSTORE PUSH1 0x11 PUSH1 0x4 MSTORE PUSH1 0x24 PUSH1 0x0 REVERT JUMPDEST PUSH32 0x4E487B7100000000000000000000000000000000000000000000000000000000 PUSH1 0x0 MSTORE PUSH1 0x12 PUSH1 0x4 MSTORE PUSH1 0x24 PUSH1 0x0 REVERT JUMPDEST PUSH32 0x4E487B7100000000000000000000000000000000000000000000000000000000 PUSH1 0x0 MSTORE PUSH1 0x22 PUSH1 0x4 MSTORE PUSH1 0x24 PUSH1 0x0 REVERT JUMPDEST PUSH32 0x4E487B7100000000000000000000000000000000000000000000000000000000 PUSH1 0x0 MSTORE PUSH1 0x32 PUSH1 0x4 MSTORE PUSH1 0x24 PUSH1 0x0 REVERT JUMPDEST PUSH32 0x4E487B7100000000000000000000000000000000000000000000000000000000 PUSH1 0x0 MSTORE PUSH1 0x41 PUSH1 0x4 MSTORE PUSH1 0x24 PUSH1 0x0 REVERT JUMPDEST PUSH1 0x0 DUP1 REVERT JUMPDEST PUSH1 0x0 DUP1 REVERT JUMPDEST PUSH1 0x0 DUP1 REVERT JUMPDEST PUSH1 0x0 DUP1 REVERT JUMPDEST PUSH1 0x0 PUSH1 0x1F NOT PUSH1 0x1F DUP4 ADD AND SWAP1 POP SWAP2 SWAP1 POP JUMP JUMPDEST PUSH32 0x6B69747479000000000000000000000000000000000000000000000000000000 PUSH1 0x0 DUP3 ADD MSTORE POP JUMP JUMPDEST PUSH2 0xE93 DUP2 PUSH2 0xC1C JUMP JUMPDEST DUP2 EQ PUSH2 0xE9E JUMPI PUSH1 0x0 DUP1 REVERT JUMPDEST POP JUMP JUMPDEST PUSH2 0xEAA DUP2 PUSH2 0xC28 JUMP JUMPDEST DUP2 EQ PUSH2 0xEB5 JUMPI PUSH1 0x0 DUP1 REVERT JUMPDEST POP JUMP INVALID LOG2 PUSH5 0x6970667358 0x22 SLT KECCAK256 0xC1 PUSH28 0x578E99FE7F415EEBC074CAD84F65ACC7259BE0DE041521CA781A6060 PUSH24 0x9B64736F6C63430008070033000000000000000000000000 "
				},
				"gasEstimates": {
					"creation": {
						"codeDepositCost": "764400",
						"executionCost": "infinite",
						"totalCost": "infinite"
					},
					"external": {
						"feedAndMultiply(uint256,uint256,string)": "infinite",
						"feedOnKitty(uint256,uint256)": "infinite",
						"generateRandomZombie(string)": "infinite",
						"zombies(uint256)": "infinite"
					}
				},
				"methodIdentifiers": {
					"feedAndMultiply(uint256,uint256,string)": "6b0bfc80",
					"feedOnKitty(uint256,uint256)": "17a7f4cc",
					"generateRandomZombie(string)": "c6f15112",
					"zombies(uint256)": "2052465e"
				}
			},
			"storageLayout": {
				"storage": [
					{
						"astId": 4,
						"contract": "contracts/Zombiefeeding.sol:ZombieFeeding",
						"label": "dnaDigits",
						"offset": 0,
						"slot": "0",
						"type": "t_uint256"
					},
					{
						"astId": 9,
						"contract": "contracts/Zombiefeeding.sol:ZombieFeeding",
						"label": "dnaModulus",
						"offset": 0,
						"slot": "1",
						"type": "t_uint256"
					},
					{
						"astId": 26,
						"contract": "contracts/Zombiefeeding.sol:ZombieFeeding",
						"label": "zombies",
						"offset": 0,
						"slot": "2",
						"type": "t_array(t_struct(Zombie)22_storage)dyn_storage"
					},
					{
						"astId": 30,
						"contract": "contracts/Zombiefeeding.sol:ZombieFeeding",
						"label": "zombieToOwner",
						"offset": 0,
						"slot": "3",
						"type": "t_mapping(t_uint256,t_address)"
					},
					{
						"astId": 34,
						"contract": "contracts/Zombiefeeding.sol:ZombieFeeding",
						"label": "ownerZombieCount",
						"offset": 0,
						"slot": "4",
						"type": "t_mapping(t_address,t_uint256)"
					},
					{
						"astId": 161,
						"contract": "contracts/Zombiefeeding.sol:ZombieFeeding",
						"label": "ckAddress",
						"offset": 0,
						"slot": "5",
						"type": "t_address"
					},
					{
						"astId": 167,
						"contract": "contracts/Zombiefeeding.sol:ZombieFeeding",
						"label": "kittyContract",
						"offset": 0,
						"slot": "6",
						"type": "t_contract(KittyInterface)156"
					}
				],
				"types": {
					"t_address": {
						"encoding": "inplace",
						"label": "address",
						"numberOfBytes": "20"
					},
					"t_array(t_struct(Zombie)22_storage)dyn_storage": {
						"base": "t_struct(Zombie)22_storage",
						"encoding": "dynamic_array",
						"label": "struct ZombieFactory.Zombie[]",
						"numberOfBytes": "32"
					},
					"t_contract(KittyInterface)156": {
						"encoding": "inplace",
						"label": "contract KittyInterface",
						"numberOfBytes": "20"
					},
					"t_mapping(t_address,t_uint256)": {
						"encoding": "mapping",
						"key": "t_address",
						"label": "mapping(address => uint256)",
						"numberOfBytes": "32",
						"value": "t_uint256"
					},
					"t_mapping(t_uint256,t_address)": {
						"encoding": "mapping",
						"key": "t_uint256",
						"label": "mapping(uint256 => address)",
						"numberOfBytes": "32",
						"value": "t_address"
					},
					"t_string_storage": {
						"encoding": "bytes",
						"label": "string",
						"numberOfBytes": "32"
					},
					"t_struct(Zombie)22_storage": {
						"encoding": "inplace",
						"label": "struct ZombieFactory.Zombie",
						"members": [
							{
								"astId": 19,
								"contract": "contracts/Zombiefeeding.sol:ZombieFeeding",
								"label": "dna",
								"offset": 0,
								"slot": "0",
								"type": "t_uint256"
							},
							{
								"astId": 21,
								"contract": "contracts/Zombiefeeding.sol:ZombieFeeding",
								"label": "name",
								"offset": 0,
								"slot": "1",
								"type": "t_string_storage"
							}
						],
						"numberOfBytes": "64"
					},
					"t_uint256": {
						"encoding": "inplace",
						"label": "uint256",
						"numberOfBytes": "32"
					}
				}
			},
			"userdoc": {
				"kind": "user",
				"methods": {},
				"version": 1
			}
		}
	}
}