{
	"contracts/Zombiefactory.sol": {
		"ZombieFactory": {
			"abi": [
				{
					"anonymous": false,
					"inputs": [
						{
							"indexed": false,
							"internalType": "uint256",
							"name": "zombieId",
							"type": "uint256"
						},
						{
							"indexed": false,
							"internalType": "string",
							"name": "name",
							"type": "string"
						},
						{
							"indexed": false,
							"internalType": "uint256",
							"name": "dna",
							"type": "uint256"
						}
					],
					"name": "NewZombie",
					"type": "event"
				},
				{
					"inputs": [
						{
							"internalType": "string",
							"name": "_name",
							"type": "string"
						},
						{
							"internalType": "uint256",
							"name": "_dna",
							"type": "uint256"
						}
					],
					"name": "createZombie",
					"outputs": [],
					"stateMutability": "nonpayable",
					"type": "function"
				},
				{
					"inputs": [
						{
							"internalType": "string",
							"name": "_name",
							"type": "string"
						}
					],
					"name": "generateRandomZombie",
					"outputs": [],
					"stateMutability": "nonpayable",
					"type": "function"
				},
				{
					"inputs": [
						{
							"internalType": "uint256",
							"name": "",
							"type": "uint256"
						}
					],
					"name": "zombies",
					"outputs": [
						{
							"internalType": "uint256",
							"name": "dna",
							"type": "uint256"
						},
						{
							"internalType": "string",
							"name": "name",
							"type": "string"
						}
					],
					"stateMutability": "view",
					"type": "function"
				}
			],
			"devdoc": {
				"kind": "dev",
				"methods": {},
				"version": 1
			},
			"evm": {
				"assembly": "    /* \"contracts/Zombiefactory.sol\":33:1736  contract ZombieFactory {... */\n  mstore(0x40, 0x80)\n    /* \"contracts/Zombiefactory.sol\":79:81  16 */\n  0x10\n    /* \"contracts/Zombiefactory.sol\":62:81  uint dnaDigits = 16 */\n  0x00\n  sstore\n    /* \"contracts/Zombiefactory.sol\":160:169  dnaDigits */\n  sload(0x00)\n    /* \"contracts/Zombiefactory.sol\":154:156  10 */\n  0x0a\n    /* \"contracts/Zombiefactory.sol\":154:169  10 ** dnaDigits */\n  tag_1\n  swap2\n  swap1\n  tag_2\n  jump\t// in\ntag_1:\n    /* \"contracts/Zombiefactory.sol\":136:169  uint dnaModulus = 10 ** dnaDigits */\n  0x01\n  sstore\n    /* \"contracts/Zombiefactory.sol\":33:1736  contract ZombieFactory {... */\n  callvalue\n  dup1\n  iszero\n  tag_3\n  jumpi\n  0x00\n  dup1\n  revert\ntag_3:\n  pop\n  jump(tag_4)\n    /* \"#utility.yul\":7:855   */\ntag_6:\n    /* \"#utility.yul\":68:73   */\n  0x00\n    /* \"#utility.yul\":75:79   */\n  dup1\n    /* \"#utility.yul\":99:105   */\n  dup3\n    /* \"#utility.yul\":90:105   */\n  swap2\n  pop\n    /* \"#utility.yul\":123:128   */\n  dup4\n    /* \"#utility.yul\":114:128   */\n  swap1\n  pop\n    /* \"#utility.yul\":137:849   */\ntag_8:\n    /* \"#utility.yul\":158:159   */\n  0x01\n    /* \"#utility.yul\":148:156   */\n  dup6\n    /* \"#utility.yul\":145:160   */\n  gt\n    /* \"#utility.yul\":137:849   */\n  iszero\n  tag_10\n  jumpi\n    /* \"#utility.yul\":253:257   */\n  dup1\n    /* \"#utility.yul\":248:251   */\n  dup7\n    /* \"#utility.yul\":244:258   */\n  div\n    /* \"#utility.yul\":238:242   */\n  dup2\n    /* \"#utility.yul\":235:259   */\n  gt\n    /* \"#utility.yul\":232:282   */\n  iszero\n  tag_11\n  jumpi\n    /* \"#utility.yul\":262:280   */\n  tag_12\n  tag_13\n  jump\t// in\ntag_12:\n    /* \"#utility.yul\":232:282   */\ntag_11:\n    /* \"#utility.yul\":312:313   */\n  0x01\n    /* \"#utility.yul\":302:310   */\n  dup6\n    /* \"#utility.yul\":298:314   */\n  and\n    /* \"#utility.yul\":295:746   */\n  iszero\n  tag_14\n  jumpi\n    /* \"#utility.yul\":727:731   */\n  dup1\n    /* \"#utility.yul\":720:725   */\n  dup3\n    /* \"#utility.yul\":716:732   */\n  mul\n    /* \"#utility.yul\":707:732   */\n  swap2\n  pop\n    /* \"#utility.yul\":295:746   */\ntag_14:\n    /* \"#utility.yul\":777:781   */\n  dup1\n    /* \"#utility.yul\":771:775   */\n  dup2\n    /* \"#utility.yul\":767:782   */\n  mul\n    /* \"#utility.yul\":759:782   */\n  swap1\n  pop\n    /* \"#utility.yul\":807:839   */\n  tag_15\n    /* \"#utility.yul\":830:838   */\n  dup6\n    /* \"#utility.yul\":807:839   */\n  tag_16\n  jump\t// in\ntag_15:\n    /* \"#utility.yul\":795:839   */\n  swap5\n  pop\n    /* \"#utility.yul\":137:849   */\n  jump(tag_8)\ntag_10:\n    /* \"#utility.yul\":7:855   */\n  swap5\n  pop\n  swap5\n  swap3\n  pop\n  pop\n  pop\n  jump\t// out\n    /* \"#utility.yul\":861:1146   */\ntag_2:\n    /* \"#utility.yul\":921:926   */\n  0x00\n    /* \"#utility.yul\":945:968   */\n  tag_18\n    /* \"#utility.yul\":963:967   */\n  dup3\n    /* \"#utility.yul\":945:968   */\n  tag_19\n  jump\t// in\ntag_18:\n    /* \"#utility.yul\":937:968   */\n  swap2\n  pop\n    /* \"#utility.yul\":989:1016   */\n  tag_20\n    /* \"#utility.yul\":1007:1015   */\n  dup4\n    /* \"#utility.yul\":989:1016   */\n  tag_19\n  jump\t// in\ntag_20:\n    /* \"#utility.yul\":977:1016   */\n  swap3\n  pop\n    /* \"#utility.yul\":1035:1139   */\n  tag_21\n    /* \"#utility.yul\":1072:1138   */\n  0xffffffffffffffffffffffffffffffffffffffffffffffffffffffffffffffff\n    /* \"#utility.yul\":1062:1070   */\n  dup5\n    /* \"#utility.yul\":1056:1060   */\n  dup5\n    /* \"#utility.yul\":1035:1139   */\n  tag_22\n  jump\t// in\ntag_21:\n    /* \"#utility.yul\":1026:1139   */\n  swap1\n  pop\n    /* \"#utility.yul\":861:1146   */\n  swap3\n  swap2\n  pop\n  pop\n  jump\t// out\n    /* \"#utility.yul\":1152:2225   */\ntag_22:\n    /* \"#utility.yul\":1206:1211   */\n  0x00\n    /* \"#utility.yul\":1397:1405   */\n  dup3\n    /* \"#utility.yul\":1387:1427   */\n  tag_24\n  jumpi\n    /* \"#utility.yul\":1418:1419   */\n  0x01\n    /* \"#utility.yul\":1409:1419   */\n  swap1\n  pop\n    /* \"#utility.yul\":1420:1425   */\n  jump(tag_23)\n    /* \"#utility.yul\":1387:1427   */\ntag_24:\n    /* \"#utility.yul\":1446:1450   */\n  dup2\n    /* \"#utility.yul\":1436:1472   */\n  tag_25\n  jumpi\n    /* \"#utility.yul\":1463:1464   */\n  0x00\n    /* \"#utility.yul\":1454:1464   */\n  swap1\n  pop\n    /* \"#utility.yul\":1465:1470   */\n  jump(tag_23)\n    /* \"#utility.yul\":1436:1472   */\ntag_25:\n    /* \"#utility.yul\":1532:1536   */\n  dup2\n    /* \"#utility.yul\":1580:1581   */\n  0x01\n    /* \"#utility.yul\":1575:1602   */\n  dup2\n  eq\n  tag_27\n  jumpi\n    /* \"#utility.yul\":1616:1617   */\n  0x02\n    /* \"#utility.yul\":1611:1802   */\n  dup2\n  eq\n  tag_28\n  jumpi\n    /* \"#utility.yul\":1525:1802   */\n  jump(tag_26)\n    /* \"#utility.yul\":1575:1602   */\ntag_27:\n    /* \"#utility.yul\":1593:1594   */\n  0x01\n    /* \"#utility.yul\":1584:1594   */\n  swap2\n  pop\n    /* \"#utility.yul\":1595:1600   */\n  pop\n  jump(tag_23)\n    /* \"#utility.yul\":1611:1802   */\ntag_28:\n    /* \"#utility.yul\":1656:1659   */\n  0xff\n    /* \"#utility.yul\":1646:1654   */\n  dup5\n    /* \"#utility.yul\":1643:1660   */\n  gt\n    /* \"#utility.yul\":1640:1683   */\n  iszero\n  tag_29\n  jumpi\n    /* \"#utility.yul\":1663:1681   */\n  tag_30\n  tag_13\n  jump\t// in\ntag_30:\n    /* \"#utility.yul\":1640:1683   */\ntag_29:\n    /* \"#utility.yul\":1712:1720   */\n  dup4\n    /* \"#utility.yul\":1709:1710   */\n  0x02\n    /* \"#utility.yul\":1705:1721   */\n  exp\n    /* \"#utility.yul\":1696:1721   */\n  swap2\n  pop\n    /* \"#utility.yul\":1747:1750   */\n  dup5\n    /* \"#utility.yul\":1740:1745   */\n  dup3\n    /* \"#utility.yul\":1737:1751   */\n  gt\n    /* \"#utility.yul\":1734:1774   */\n  iszero\n  tag_31\n  jumpi\n    /* \"#utility.yul\":1754:1772   */\n  tag_32\n  tag_13\n  jump\t// in\ntag_32:\n    /* \"#utility.yul\":1734:1774   */\ntag_31:\n    /* \"#utility.yul\":1787:1792   */\n  pop\n  jump(tag_23)\n    /* \"#utility.yul\":1525:1802   */\ntag_26:\n  pop\n    /* \"#utility.yul\":1911:1913   */\n  0x20\n    /* \"#utility.yul\":1901:1909   */\n  dup4\n    /* \"#utility.yul\":1898:1914   */\n  lt\n    /* \"#utility.yul\":1892:1895   */\n  0x0133\n    /* \"#utility.yul\":1886:1890   */\n  dup4\n    /* \"#utility.yul\":1883:1896   */\n  lt\n    /* \"#utility.yul\":1879:1915   */\n  and\n    /* \"#utility.yul\":1861:1863   */\n  0x4e\n    /* \"#utility.yul\":1851:1859   */\n  dup5\n    /* \"#utility.yul\":1848:1864   */\n  lt\n    /* \"#utility.yul\":1843:1845   */\n  0x0b\n    /* \"#utility.yul\":1837:1841   */\n  dup5\n    /* \"#utility.yul\":1834:1846   */\n  lt\n    /* \"#utility.yul\":1830:1865   */\n  and\n    /* \"#utility.yul\":1814:1925   */\n  or\n    /* \"#utility.yul\":1811:2057   */\n  iszero\n  tag_33\n  jumpi\n    /* \"#utility.yul\":1967:1975   */\n  dup3\n    /* \"#utility.yul\":1961:1965   */\n  dup3\n    /* \"#utility.yul\":1957:1976   */\n  exp\n    /* \"#utility.yul\":1948:1976   */\n  swap1\n  pop\n    /* \"#utility.yul\":2002:2005   */\n  dup4\n    /* \"#utility.yul\":1995:2000   */\n  dup2\n    /* \"#utility.yul\":1992:2006   */\n  gt\n    /* \"#utility.yul\":1989:2029   */\n  iszero\n  tag_34\n  jumpi\n    /* \"#utility.yul\":2009:2027   */\n  tag_35\n  tag_13\n  jump\t// in\ntag_35:\n    /* \"#utility.yul\":1989:2029   */\ntag_34:\n    /* \"#utility.yul\":2042:2047   */\n  jump(tag_23)\n    /* \"#utility.yul\":1811:2057   */\ntag_33:\n    /* \"#utility.yul\":2082:2124   */\n  tag_36\n    /* \"#utility.yul\":2120:2123   */\n  dup5\n    /* \"#utility.yul\":2110:2118   */\n  dup5\n    /* \"#utility.yul\":2104:2108   */\n  dup5\n    /* \"#utility.yul\":2101:2102   */\n  0x01\n    /* \"#utility.yul\":2082:2124   */\n  tag_6\n  jump\t// in\ntag_36:\n    /* \"#utility.yul\":2067:2124   */\n  swap3\n  pop\n  swap1\n  pop\n    /* \"#utility.yul\":2156:2160   */\n  dup2\n    /* \"#utility.yul\":2151:2154   */\n  dup5\n    /* \"#utility.yul\":2147:2161   */\n  div\n    /* \"#utility.yul\":2140:2145   */\n  dup2\n    /* \"#utility.yul\":2137:2162   */\n  gt\n    /* \"#utility.yul\":2134:2185   */\n  iszero\n  tag_37\n  jumpi\n    /* \"#utility.yul\":2165:2183   */\n  tag_38\n  tag_13\n  jump\t// in\ntag_38:\n    /* \"#utility.yul\":2134:2185   */\ntag_37:\n    /* \"#utility.yul\":2214:2218   */\n  dup2\n    /* \"#utility.yul\":2207:2212   */\n  dup2\n    /* \"#utility.yul\":2203:2219   */\n  mul\n    /* \"#utility.yul\":2194:2219   */\n  swap1\n  pop\n    /* \"#utility.yul\":1152:2225   */\ntag_23:\n  swap4\n  swap3\n  pop\n  pop\n  pop\n  jump\t// out\n    /* \"#utility.yul\":2231:2308   */\ntag_19:\n    /* \"#utility.yul\":2268:2275   */\n  0x00\n    /* \"#utility.yul\":2297:2302   */\n  dup2\n    /* \"#utility.yul\":2286:2302   */\n  swap1\n  pop\n    /* \"#utility.yul\":2231:2308   */\n  swap2\n  swap1\n  pop\n  jump\t// out\n    /* \"#utility.yul\":2314:2494   */\ntag_13:\n    /* \"#utility.yul\":2362:2439   */\n  0x4e487b7100000000000000000000000000000000000000000000000000000000\n    /* \"#utility.yul\":2359:2360   */\n  0x00\n    /* \"#utility.yul\":2352:2440   */\n  mstore\n    /* \"#utility.yul\":2459:2463   */\n  0x11\n    /* \"#utility.yul\":2456:2457   */\n  0x04\n    /* \"#utility.yul\":2449:2464   */\n  mstore\n    /* \"#utility.yul\":2483:2487   */\n  0x24\n    /* \"#utility.yul\":2480:2481   */\n  0x00\n    /* \"#utility.yul\":2473:2488   */\n  revert\n    /* \"#utility.yul\":2500:2602   */\ntag_16:\n    /* \"#utility.yul\":2542:2550   */\n  0x00\n    /* \"#utility.yul\":2589:2594   */\n  dup2\n    /* \"#utility.yul\":2586:2587   */\n  0x01\n    /* \"#utility.yul\":2582:2595   */\n  shr\n    /* \"#utility.yul\":2561:2595   */\n  swap1\n  pop\n    /* \"#utility.yul\":2500:2602   */\n  swap2\n  swap1\n  pop\n  jump\t// out\n    /* \"contracts/Zombiefactory.sol\":33:1736  contract ZombieFactory {... */\ntag_4:\n  dataSize(sub_0)\n  dup1\n  dataOffset(sub_0)\n  0x00\n  codecopy\n  0x00\n  return\nstop\n\nsub_0: assembly {\n        /* \"contracts/Zombiefactory.sol\":33:1736  contract ZombieFactory {... */\n      mstore(0x40, 0x80)\n      callvalue\n      dup1\n      iszero\n      tag_1\n      jumpi\n      0x00\n      dup1\n      revert\n    tag_1:\n      pop\n      jumpi(tag_2, lt(calldatasize, 0x04))\n      shr(0xe0, calldataload(0x00))\n      dup1\n      0x09639373\n      eq\n      tag_3\n      jumpi\n      dup1\n      0x2052465e\n      eq\n      tag_4\n      jumpi\n      dup1\n      0xc6f15112\n      eq\n      tag_5\n      jumpi\n    tag_2:\n      0x00\n      dup1\n      revert\n        /* \"contracts/Zombiefactory.sol\":1124:1228  function createZombie(string memory _name, uint _dna) public {... */\n    tag_3:\n      tag_6\n      0x04\n      dup1\n      calldatasize\n      sub\n      dup2\n      add\n      swap1\n      tag_7\n      swap2\n      swap1\n      tag_8\n      jump\t// in\n    tag_7:\n      tag_9\n      jump\t// in\n    tag_6:\n      stop\n        /* \"contracts/Zombiefactory.sol\":378:401  Zombie[] public zombies */\n    tag_4:\n      tag_10\n      0x04\n      dup1\n      calldatasize\n      sub\n      dup2\n      add\n      swap1\n      tag_11\n      swap2\n      swap1\n      tag_12\n      jump\t// in\n    tag_11:\n      tag_13\n      jump\t// in\n    tag_10:\n      mload(0x40)\n      tag_14\n      swap3\n      swap2\n      swap1\n      tag_15\n      jump\t// in\n    tag_14:\n      mload(0x40)\n      dup1\n      swap2\n      sub\n      swap1\n      return\n        /* \"contracts/Zombiefactory.sol\":1525:1733  function generateRandomZombie(string memory _name) public {... */\n    tag_5:\n      tag_16\n      0x04\n      dup1\n      calldatasize\n      sub\n      dup2\n      add\n      swap1\n      tag_17\n      swap2\n      swap1\n      tag_18\n      jump\t// in\n    tag_17:\n      tag_19\n      jump\t// in\n    tag_16:\n      stop\n        /* \"contracts/Zombiefactory.sol\":1124:1228  function createZombie(string memory _name, uint _dna) public {... */\n    tag_9:\n        /* \"contracts/Zombiefactory.sol\":1195:1221  _createZombie(_name, _dna) */\n      tag_21\n        /* \"contracts/Zombiefactory.sol\":1209:1214  _name */\n      dup3\n        /* \"contracts/Zombiefactory.sol\":1216:1220  _dna */\n      dup3\n        /* \"contracts/Zombiefactory.sol\":1195:1208  _createZombie */\n      tag_22\n        /* \"contracts/Zombiefactory.sol\":1195:1221  _createZombie(_name, _dna) */\n      jump\t// in\n    tag_21:\n        /* \"contracts/Zombiefactory.sol\":1124:1228  function createZombie(string memory _name, uint _dna) public {... */\n      pop\n      pop\n      jump\t// out\n        /* \"contracts/Zombiefactory.sol\":378:401  Zombie[] public zombies */\n    tag_13:\n      0x02\n      dup2\n      dup2\n      sload\n      dup2\n      lt\n      tag_23\n      jumpi\n      0x00\n      dup1\n      revert\n    tag_23:\n      swap1\n      0x00\n      mstore\n      keccak256(0x00, 0x20)\n      swap1\n      0x02\n      mul\n      add\n      0x00\n      swap2\n      pop\n      swap1\n      pop\n      dup1\n      0x00\n      add\n      sload\n      swap1\n      dup1\n      0x01\n      add\n      dup1\n      sload\n      tag_25\n      swap1\n      tag_26\n      jump\t// in\n    tag_25:\n      dup1\n      0x1f\n      add\n      0x20\n      dup1\n      swap2\n      div\n      mul\n      0x20\n      add\n      mload(0x40)\n      swap1\n      dup2\n      add\n      0x40\n      mstore\n      dup1\n      swap3\n      swap2\n      swap1\n      dup2\n      dup2\n      mstore\n      0x20\n      add\n      dup3\n      dup1\n      sload\n      tag_27\n      swap1\n      tag_26\n      jump\t// in\n    tag_27:\n      dup1\n      iszero\n      tag_28\n      jumpi\n      dup1\n      0x1f\n      lt\n      tag_29\n      jumpi\n      0x0100\n      dup1\n      dup4\n      sload\n      div\n      mul\n      dup4\n      mstore\n      swap2\n      0x20\n      add\n      swap2\n      jump(tag_28)\n    tag_29:\n      dup3\n      add\n      swap2\n      swap1\n      0x00\n      mstore\n      keccak256(0x00, 0x20)\n      swap1\n    tag_30:\n      dup2\n      sload\n      dup2\n      mstore\n      swap1\n      0x01\n      add\n      swap1\n      0x20\n      add\n      dup1\n      dup4\n      gt\n      tag_30\n      jumpi\n      dup3\n      swap1\n      sub\n      0x1f\n      and\n      dup3\n      add\n      swap2\n    tag_28:\n      pop\n      pop\n      pop\n      pop\n      pop\n      swap1\n      pop\n      dup3\n      jump\t// out\n        /* \"contracts/Zombiefactory.sol\":1525:1733  function generateRandomZombie(string memory _name) public {... */\n    tag_19:\n        /* \"contracts/Zombiefactory.sol\":1633:1634  0 */\n      0x00\n        /* \"contracts/Zombiefactory.sol\":1601:1617  ownerZombieCount */\n      0x04\n        /* \"contracts/Zombiefactory.sol\":1601:1629  ownerZombieCount[msg.sender] */\n      0x00\n        /* \"contracts/Zombiefactory.sol\":1618:1628  msg.sender */\n      caller\n        /* \"contracts/Zombiefactory.sol\":1601:1629  ownerZombieCount[msg.sender] */\n      0xffffffffffffffffffffffffffffffffffffffff\n      and\n      0xffffffffffffffffffffffffffffffffffffffff\n      and\n      dup2\n      mstore\n      0x20\n      add\n      swap1\n      dup2\n      mstore\n      0x20\n      add\n      0x00\n      keccak256\n      sload\n        /* \"contracts/Zombiefactory.sol\":1601:1634  ownerZombieCount[msg.sender] == 0 */\n      eq\n        /* \"contracts/Zombiefactory.sol\":1593:1635  require(ownerZombieCount[msg.sender] == 0) */\n      tag_32\n      jumpi\n      0x00\n      dup1\n      revert\n    tag_32:\n        /* \"contracts/Zombiefactory.sol\":1647:1659  uint randDna */\n      0x00\n        /* \"contracts/Zombiefactory.sol\":1662:1687  _generateRandomDna(_name) */\n      tag_33\n        /* \"contracts/Zombiefactory.sol\":1681:1686  _name */\n      dup3\n        /* \"contracts/Zombiefactory.sol\":1662:1680  _generateRandomDna */\n      tag_34\n        /* \"contracts/Zombiefactory.sol\":1662:1687  _generateRandomDna(_name) */\n      jump\t// in\n    tag_33:\n        /* \"contracts/Zombiefactory.sol\":1647:1687  uint randDna = _generateRandomDna(_name) */\n      swap1\n      pop\n        /* \"contracts/Zombiefactory.sol\":1697:1726  _createZombie(_name, randDna) */\n      tag_35\n        /* \"contracts/Zombiefactory.sol\":1711:1716  _name */\n      dup3\n        /* \"contracts/Zombiefactory.sol\":1718:1725  randDna */\n      dup3\n        /* \"contracts/Zombiefactory.sol\":1697:1710  _createZombie */\n      tag_22\n        /* \"contracts/Zombiefactory.sol\":1697:1726  _createZombie(_name, randDna) */\n      jump\t// in\n    tag_35:\n        /* \"contracts/Zombiefactory.sol\":1583:1733  {... */\n      pop\n        /* \"contracts/Zombiefactory.sol\":1525:1733  function generateRandomZombie(string memory _name) public {... */\n      pop\n      jump\t// out\n        /* \"contracts/Zombiefactory.sol\":852:1118  function _createZombie(string memory _name, uint _dna) private {... */\n    tag_22:\n        /* \"contracts/Zombiefactory.sol\":925:932  zombies */\n      0x02\n        /* \"contracts/Zombiefactory.sol\":938:957  Zombie(_dna, _name) */\n      mload(0x40)\n      dup1\n      0x40\n      add\n      0x40\n      mstore\n      dup1\n        /* \"contracts/Zombiefactory.sol\":945:949  _dna */\n      dup4\n        /* \"contracts/Zombiefactory.sol\":938:957  Zombie(_dna, _name) */\n      dup2\n      mstore\n      0x20\n      add\n        /* \"contracts/Zombiefactory.sol\":951:956  _name */\n      dup5\n        /* \"contracts/Zombiefactory.sol\":938:957  Zombie(_dna, _name) */\n      dup2\n      mstore\n      pop\n        /* \"contracts/Zombiefactory.sol\":925:958  zombies.push(Zombie(_dna, _name)) */\n      swap1\n      dup1\n      0x01\n      dup2\n      sload\n      add\n      dup1\n      dup3\n      sstore\n      dup1\n      swap2\n      pop\n      pop\n      0x01\n      swap1\n      sub\n      swap1\n      0x00\n      mstore\n      keccak256(0x00, 0x20)\n      swap1\n      0x02\n      mul\n      add\n      0x00\n      swap1\n      swap2\n      swap1\n      swap2\n      swap1\n      swap2\n      pop\n      0x00\n      dup3\n      add\n      mload\n      dup2\n      0x00\n      add\n      sstore\n      0x20\n      dup3\n      add\n      mload\n      dup2\n      0x01\n      add\n      swap1\n      dup1\n      mload\n      swap1\n      0x20\n      add\n      swap1\n      tag_38\n      swap3\n      swap2\n      swap1\n      tag_39\n      jump\t// in\n    tag_38:\n      pop\n      pop\n      pop\n        /* \"contracts/Zombiefactory.sol\":1004:1014  msg.sender */\n      caller\n        /* \"contracts/Zombiefactory.sol\":968:981  zombieToOwner */\n      0x03\n        /* \"contracts/Zombiefactory.sol\":968:1001  zombieToOwner[zombies.length - 1] */\n      0x00\n        /* \"contracts/Zombiefactory.sol\":999:1000  1 */\n      0x01\n        /* \"contracts/Zombiefactory.sol\":982:989  zombies */\n      0x02\n        /* \"contracts/Zombiefactory.sol\":982:996  zombies.length */\n      dup1\n      sload\n      swap1\n      pop\n        /* \"contracts/Zombiefactory.sol\":982:1000  zombies.length - 1 */\n      tag_40\n      swap2\n      swap1\n      tag_41\n      jump\t// in\n    tag_40:\n        /* \"contracts/Zombiefactory.sol\":968:1001  zombieToOwner[zombies.length - 1] */\n      dup2\n      mstore\n      0x20\n      add\n      swap1\n      dup2\n      mstore\n      0x20\n      add\n      0x00\n      keccak256\n      0x00\n        /* \"contracts/Zombiefactory.sol\":968:1014  zombieToOwner[zombies.length - 1] = msg.sender */\n      0x0100\n      exp\n      dup2\n      sload\n      dup2\n      0xffffffffffffffffffffffffffffffffffffffff\n      mul\n      not\n      and\n      swap1\n      dup4\n      0xffffffffffffffffffffffffffffffffffffffff\n      and\n      mul\n      or\n      swap1\n      sstore\n      pop\n        /* \"contracts/Zombiefactory.sol\":1024:1040  ownerZombieCount */\n      0x04\n        /* \"contracts/Zombiefactory.sol\":1024:1052  ownerZombieCount[msg.sender] */\n      0x00\n        /* \"contracts/Zombiefactory.sol\":1041:1051  msg.sender */\n      caller\n        /* \"contracts/Zombiefactory.sol\":1024:1052  ownerZombieCount[msg.sender] */\n      0xffffffffffffffffffffffffffffffffffffffff\n      and\n      0xffffffffffffffffffffffffffffffffffffffff\n      and\n      dup2\n      mstore\n      0x20\n      add\n      swap1\n      dup2\n      mstore\n      0x20\n      add\n      0x00\n      keccak256\n      0x00\n        /* \"contracts/Zombiefactory.sol\":1024:1054  ownerZombieCount[msg.sender]++ */\n      dup2\n      sload\n      dup1\n      swap3\n      swap2\n      swap1\n      tag_42\n      swap1\n      tag_43\n      jump\t// in\n    tag_42:\n      swap2\n      swap1\n      pop\n      sstore\n      pop\n        /* \"contracts/Zombiefactory.sol\":1069:1111  NewZombie(zombies.length - 1, _name, _dna) */\n      0x88f026aacbbecc90c18411df4b1185fd8d9be2470f1962f192bf84a27d0704b7\n        /* \"contracts/Zombiefactory.sol\":1096:1097  1 */\n      0x01\n        /* \"contracts/Zombiefactory.sol\":1079:1086  zombies */\n      0x02\n        /* \"contracts/Zombiefactory.sol\":1079:1093  zombies.length */\n      dup1\n      sload\n      swap1\n      pop\n        /* \"contracts/Zombiefactory.sol\":1079:1097  zombies.length - 1 */\n      tag_44\n      swap2\n      swap1\n      tag_41\n      jump\t// in\n    tag_44:\n        /* \"contracts/Zombiefactory.sol\":1099:1104  _name */\n      dup4\n        /* \"contracts/Zombiefactory.sol\":1106:1110  _dna */\n      dup4\n        /* \"contracts/Zombiefactory.sol\":1069:1111  NewZombie(zombies.length - 1, _name, _dna) */\n      mload(0x40)\n      tag_45\n      swap4\n      swap3\n      swap2\n      swap1\n      tag_46\n      jump\t// in\n    tag_45:\n      mload(0x40)\n      dup1\n      swap2\n      sub\n      swap1\n      log1\n        /* \"contracts/Zombiefactory.sol\":852:1118  function _createZombie(string memory _name, uint _dna) private {... */\n      pop\n      pop\n      jump\t// out\n        /* \"contracts/Zombiefactory.sol\":1339:1519  function _generateRandomDna(string memory _str) private view returns (uint) {... */\n    tag_34:\n        /* \"contracts/Zombiefactory.sol\":1409:1413  uint */\n      0x00\n        /* \"contracts/Zombiefactory.sol\":1425:1434  uint rand */\n      dup1\n        /* \"contracts/Zombiefactory.sol\":1471:1475  _str */\n      dup3\n        /* \"contracts/Zombiefactory.sol\":1454:1476  abi.encodePacked(_str) */\n      add(0x20, mload(0x40))\n      tag_48\n      swap2\n      swap1\n      tag_49\n      jump\t// in\n    tag_48:\n      mload(0x40)\n      0x20\n      dup2\n      dup4\n      sub\n      sub\n      dup2\n      mstore\n      swap1\n      0x40\n      mstore\n        /* \"contracts/Zombiefactory.sol\":1444:1477  keccak256(abi.encodePacked(_str)) */\n      dup1\n      mload\n      swap1\n      0x20\n      add\n      keccak256\n        /* \"contracts/Zombiefactory.sol\":1439:1478  uint(keccak256(abi.encodePacked(_str))) */\n      0x00\n      shr\n        /* \"contracts/Zombiefactory.sol\":1425:1478  uint rand  =  uint(keccak256(abi.encodePacked(_str))) */\n      swap1\n      pop\n        /* \"contracts/Zombiefactory.sol\":1502:1512  dnaModulus */\n      sload(0x01)\n        /* \"contracts/Zombiefactory.sol\":1495:1499  rand */\n      dup2\n        /* \"contracts/Zombiefactory.sol\":1495:1512  rand % dnaModulus */\n      tag_50\n      swap2\n      swap1\n      tag_51\n      jump\t// in\n    tag_50:\n        /* \"contracts/Zombiefactory.sol\":1488:1512  return rand % dnaModulus */\n      swap2\n      pop\n      pop\n        /* \"contracts/Zombiefactory.sol\":1339:1519  function _generateRandomDna(string memory _str) private view returns (uint) {... */\n      swap2\n      swap1\n      pop\n      jump\t// out\n    tag_39:\n      dup3\n      dup1\n      sload\n      tag_52\n      swap1\n      tag_26\n      jump\t// in\n    tag_52:\n      swap1\n      0x00\n      mstore\n      keccak256(0x00, 0x20)\n      swap1\n      0x1f\n      add\n      0x20\n      swap1\n      div\n      dup2\n      add\n      swap3\n      dup3\n      tag_54\n      jumpi\n      0x00\n      dup6\n      sstore\n      jump(tag_53)\n    tag_54:\n      dup3\n      0x1f\n      lt\n      tag_55\n      jumpi\n      dup1\n      mload\n      not(0xff)\n      and\n      dup4\n      dup1\n      add\n      or\n      dup6\n      sstore\n      jump(tag_53)\n    tag_55:\n      dup3\n      dup1\n      add\n      0x01\n      add\n      dup6\n      sstore\n      dup3\n      iszero\n      tag_53\n      jumpi\n      swap2\n      dup3\n      add\n    tag_56:\n      dup3\n      dup2\n      gt\n      iszero\n      tag_57\n      jumpi\n      dup3\n      mload\n      dup3\n      sstore\n      swap2\n      0x20\n      add\n      swap2\n      swap1\n      0x01\n      add\n      swap1\n      jump(tag_56)\n    tag_57:\n    tag_53:\n      pop\n      swap1\n      pop\n      tag_58\n      swap2\n      swap1\n      tag_59\n      jump\t// in\n    tag_58:\n      pop\n      swap1\n      jump\t// out\n    tag_59:\n    tag_60:\n      dup1\n      dup3\n      gt\n      iszero\n      tag_61\n      jumpi\n      0x00\n      dup2\n      0x00\n      swap1\n      sstore\n      pop\n      0x01\n      add\n      jump(tag_60)\n    tag_61:\n      pop\n      swap1\n      jump\t// out\n        /* \"#utility.yul\":7:419   */\n    tag_63:\n        /* \"#utility.yul\":85:90   */\n      0x00\n        /* \"#utility.yul\":110:176   */\n      tag_65\n        /* \"#utility.yul\":126:175   */\n      tag_66\n        /* \"#utility.yul\":168:174   */\n      dup5\n        /* \"#utility.yul\":126:175   */\n      tag_67\n      jump\t// in\n    tag_66:\n        /* \"#utility.yul\":110:176   */\n      tag_68\n      jump\t// in\n    tag_65:\n        /* \"#utility.yul\":101:176   */\n      swap1\n      pop\n        /* \"#utility.yul\":199:205   */\n      dup3\n        /* \"#utility.yul\":192:197   */\n      dup2\n        /* \"#utility.yul\":185:206   */\n      mstore\n        /* \"#utility.yul\":237:241   */\n      0x20\n        /* \"#utility.yul\":230:235   */\n      dup2\n        /* \"#utility.yul\":226:242   */\n      add\n        /* \"#utility.yul\":275:278   */\n      dup5\n        /* \"#utility.yul\":266:272   */\n      dup5\n        /* \"#utility.yul\":261:264   */\n      dup5\n        /* \"#utility.yul\":257:273   */\n      add\n        /* \"#utility.yul\":254:279   */\n      gt\n        /* \"#utility.yul\":251:363   */\n      iszero\n      tag_69\n      jumpi\n        /* \"#utility.yul\":282:361   */\n      tag_70\n      tag_71\n      jump\t// in\n    tag_70:\n        /* \"#utility.yul\":251:363   */\n    tag_69:\n        /* \"#utility.yul\":372:413   */\n      tag_72\n        /* \"#utility.yul\":406:412   */\n      dup5\n        /* \"#utility.yul\":401:404   */\n      dup3\n        /* \"#utility.yul\":396:399   */\n      dup6\n        /* \"#utility.yul\":372:413   */\n      tag_73\n      jump\t// in\n    tag_72:\n        /* \"#utility.yul\":91:419   */\n      pop\n        /* \"#utility.yul\":7:419   */\n      swap4\n      swap3\n      pop\n      pop\n      pop\n      jump\t// out\n        /* \"#utility.yul\":439:779   */\n    tag_74:\n        /* \"#utility.yul\":495:500   */\n      0x00\n        /* \"#utility.yul\":544:547   */\n      dup3\n        /* \"#utility.yul\":537:541   */\n      0x1f\n        /* \"#utility.yul\":529:535   */\n      dup4\n        /* \"#utility.yul\":525:542   */\n      add\n        /* \"#utility.yul\":521:548   */\n      slt\n        /* \"#utility.yul\":511:633   */\n      tag_76\n      jumpi\n        /* \"#utility.yul\":552:631   */\n      tag_77\n      tag_78\n      jump\t// in\n    tag_77:\n        /* \"#utility.yul\":511:633   */\n    tag_76:\n        /* \"#utility.yul\":669:675   */\n      dup2\n        /* \"#utility.yul\":656:676   */\n      calldataload\n        /* \"#utility.yul\":694:773   */\n      tag_79\n        /* \"#utility.yul\":769:772   */\n      dup5\n        /* \"#utility.yul\":761:767   */\n      dup3\n        /* \"#utility.yul\":754:758   */\n      0x20\n        /* \"#utility.yul\":746:752   */\n      dup7\n        /* \"#utility.yul\":742:759   */\n      add\n        /* \"#utility.yul\":694:773   */\n      tag_63\n      jump\t// in\n    tag_79:\n        /* \"#utility.yul\":685:773   */\n      swap2\n      pop\n        /* \"#utility.yul\":501:779   */\n      pop\n        /* \"#utility.yul\":439:779   */\n      swap3\n      swap2\n      pop\n      pop\n      jump\t// out\n        /* \"#utility.yul\":785:924   */\n    tag_80:\n        /* \"#utility.yul\":831:836   */\n      0x00\n        /* \"#utility.yul\":869:875   */\n      dup2\n        /* \"#utility.yul\":856:876   */\n      calldataload\n        /* \"#utility.yul\":847:876   */\n      swap1\n      pop\n        /* \"#utility.yul\":885:918   */\n      tag_82\n        /* \"#utility.yul\":912:917   */\n      dup2\n        /* \"#utility.yul\":885:918   */\n      tag_83\n      jump\t// in\n    tag_82:\n        /* \"#utility.yul\":785:924   */\n      swap3\n      swap2\n      pop\n      pop\n      jump\t// out\n        /* \"#utility.yul\":930:1439   */\n    tag_18:\n        /* \"#utility.yul\":999:1005   */\n      0x00\n        /* \"#utility.yul\":1048:1050   */\n      0x20\n        /* \"#utility.yul\":1036:1045   */\n      dup3\n        /* \"#utility.yul\":1027:1034   */\n      dup5\n        /* \"#utility.yul\":1023:1046   */\n      sub\n        /* \"#utility.yul\":1019:1051   */\n      slt\n        /* \"#utility.yul\":1016:1135   */\n      iszero\n      tag_85\n      jumpi\n        /* \"#utility.yul\":1054:1133   */\n      tag_86\n      tag_87\n      jump\t// in\n    tag_86:\n        /* \"#utility.yul\":1016:1135   */\n    tag_85:\n        /* \"#utility.yul\":1202:1203   */\n      0x00\n        /* \"#utility.yul\":1191:1200   */\n      dup3\n        /* \"#utility.yul\":1187:1204   */\n      add\n        /* \"#utility.yul\":1174:1205   */\n      calldataload\n        /* \"#utility.yul\":1232:1250   */\n      0xffffffffffffffff\n        /* \"#utility.yul\":1224:1230   */\n      dup2\n        /* \"#utility.yul\":1221:1251   */\n      gt\n        /* \"#utility.yul\":1218:1335   */\n      iszero\n      tag_88\n      jumpi\n        /* \"#utility.yul\":1254:1333   */\n      tag_89\n      tag_90\n      jump\t// in\n    tag_89:\n        /* \"#utility.yul\":1218:1335   */\n    tag_88:\n        /* \"#utility.yul\":1359:1422   */\n      tag_91\n        /* \"#utility.yul\":1414:1421   */\n      dup5\n        /* \"#utility.yul\":1405:1411   */\n      dup3\n        /* \"#utility.yul\":1394:1403   */\n      dup6\n        /* \"#utility.yul\":1390:1412   */\n      add\n        /* \"#utility.yul\":1359:1422   */\n      tag_74\n      jump\t// in\n    tag_91:\n        /* \"#utility.yul\":1349:1422   */\n      swap2\n      pop\n        /* \"#utility.yul\":1145:1432   */\n      pop\n        /* \"#utility.yul\":930:1439   */\n      swap3\n      swap2\n      pop\n      pop\n      jump\t// out\n        /* \"#utility.yul\":1445:2099   */\n    tag_8:\n        /* \"#utility.yul\":1523:1529   */\n      0x00\n        /* \"#utility.yul\":1531:1537   */\n      dup1\n        /* \"#utility.yul\":1580:1582   */\n      0x40\n        /* \"#utility.yul\":1568:1577   */\n      dup4\n        /* \"#utility.yul\":1559:1566   */\n      dup6\n        /* \"#utility.yul\":1555:1578   */\n      sub\n        /* \"#utility.yul\":1551:1583   */\n      slt\n        /* \"#utility.yul\":1548:1667   */\n      iszero\n      tag_93\n      jumpi\n        /* \"#utility.yul\":1586:1665   */\n      tag_94\n      tag_87\n      jump\t// in\n    tag_94:\n        /* \"#utility.yul\":1548:1667   */\n    tag_93:\n        /* \"#utility.yul\":1734:1735   */\n      0x00\n        /* \"#utility.yul\":1723:1732   */\n      dup4\n        /* \"#utility.yul\":1719:1736   */\n      add\n        /* \"#utility.yul\":1706:1737   */\n      calldataload\n        /* \"#utility.yul\":1764:1782   */\n      0xffffffffffffffff\n        /* \"#utility.yul\":1756:1762   */\n      dup2\n        /* \"#utility.yul\":1753:1783   */\n      gt\n        /* \"#utility.yul\":1750:1867   */\n      iszero\n      tag_95\n      jumpi\n        /* \"#utility.yul\":1786:1865   */\n      tag_96\n      tag_90\n      jump\t// in\n    tag_96:\n        /* \"#utility.yul\":1750:1867   */\n    tag_95:\n        /* \"#utility.yul\":1891:1954   */\n      tag_97\n        /* \"#utility.yul\":1946:1953   */\n      dup6\n        /* \"#utility.yul\":1937:1943   */\n      dup3\n        /* \"#utility.yul\":1926:1935   */\n      dup7\n        /* \"#utility.yul\":1922:1944   */\n      add\n        /* \"#utility.yul\":1891:1954   */\n      tag_74\n      jump\t// in\n    tag_97:\n        /* \"#utility.yul\":1881:1954   */\n      swap3\n      pop\n        /* \"#utility.yul\":1677:1964   */\n      pop\n        /* \"#utility.yul\":2003:2005   */\n      0x20\n        /* \"#utility.yul\":2029:2082   */\n      tag_98\n        /* \"#utility.yul\":2074:2081   */\n      dup6\n        /* \"#utility.yul\":2065:2071   */\n      dup3\n        /* \"#utility.yul\":2054:2063   */\n      dup7\n        /* \"#utility.yul\":2050:2072   */\n      add\n        /* \"#utility.yul\":2029:2082   */\n      tag_80\n      jump\t// in\n    tag_98:\n        /* \"#utility.yul\":2019:2082   */\n      swap2\n      pop\n        /* \"#utility.yul\":1974:2092   */\n      pop\n        /* \"#utility.yul\":1445:2099   */\n      swap3\n      pop\n      swap3\n      swap1\n      pop\n      jump\t// out\n        /* \"#utility.yul\":2105:2434   */\n    tag_12:\n        /* \"#utility.yul\":2164:2170   */\n      0x00\n        /* \"#utility.yul\":2213:2215   */\n      0x20\n        /* \"#utility.yul\":2201:2210   */\n      dup3\n        /* \"#utility.yul\":2192:2199   */\n      dup5\n        /* \"#utility.yul\":2188:2211   */\n      sub\n        /* \"#utility.yul\":2184:2216   */\n      slt\n        /* \"#utility.yul\":2181:2300   */\n      iszero\n      tag_100\n      jumpi\n        /* \"#utility.yul\":2219:2298   */\n      tag_101\n      tag_87\n      jump\t// in\n    tag_101:\n        /* \"#utility.yul\":2181:2300   */\n    tag_100:\n        /* \"#utility.yul\":2339:2340   */\n      0x00\n        /* \"#utility.yul\":2364:2417   */\n      tag_102\n        /* \"#utility.yul\":2409:2416   */\n      dup5\n        /* \"#utility.yul\":2400:2406   */\n      dup3\n        /* \"#utility.yul\":2389:2398   */\n      dup6\n        /* \"#utility.yul\":2385:2407   */\n      add\n        /* \"#utility.yul\":2364:2417   */\n      tag_80\n      jump\t// in\n    tag_102:\n        /* \"#utility.yul\":2354:2417   */\n      swap2\n      pop\n        /* \"#utility.yul\":2310:2427   */\n      pop\n        /* \"#utility.yul\":2105:2434   */\n      swap3\n      swap2\n      pop\n      pop\n      jump\t// out\n        /* \"#utility.yul\":2440:2804   */\n    tag_103:\n        /* \"#utility.yul\":2528:2531   */\n      0x00\n        /* \"#utility.yul\":2556:2595   */\n      tag_105\n        /* \"#utility.yul\":2589:2594   */\n      dup3\n        /* \"#utility.yul\":2556:2595   */\n      tag_106\n      jump\t// in\n    tag_105:\n        /* \"#utility.yul\":2611:2682   */\n      tag_107\n        /* \"#utility.yul\":2675:2681   */\n      dup2\n        /* \"#utility.yul\":2670:2673   */\n      dup6\n        /* \"#utility.yul\":2611:2682   */\n      tag_108\n      jump\t// in\n    tag_107:\n        /* \"#utility.yul\":2604:2682   */\n      swap4\n      pop\n        /* \"#utility.yul\":2691:2743   */\n      tag_109\n        /* \"#utility.yul\":2736:2742   */\n      dup2\n        /* \"#utility.yul\":2731:2734   */\n      dup6\n        /* \"#utility.yul\":2724:2728   */\n      0x20\n        /* \"#utility.yul\":2717:2722   */\n      dup7\n        /* \"#utility.yul\":2713:2729   */\n      add\n        /* \"#utility.yul\":2691:2743   */\n      tag_110\n      jump\t// in\n    tag_109:\n        /* \"#utility.yul\":2768:2797   */\n      tag_111\n        /* \"#utility.yul\":2790:2796   */\n      dup2\n        /* \"#utility.yul\":2768:2797   */\n      tag_112\n      jump\t// in\n    tag_111:\n        /* \"#utility.yul\":2763:2766   */\n      dup5\n        /* \"#utility.yul\":2759:2798   */\n      add\n        /* \"#utility.yul\":2752:2798   */\n      swap2\n      pop\n        /* \"#utility.yul\":2532:2804   */\n      pop\n        /* \"#utility.yul\":2440:2804   */\n      swap3\n      swap2\n      pop\n      pop\n      jump\t// out\n        /* \"#utility.yul\":2810:3187   */\n    tag_113:\n        /* \"#utility.yul\":2916:2919   */\n      0x00\n        /* \"#utility.yul\":2944:2983   */\n      tag_115\n        /* \"#utility.yul\":2977:2982   */\n      dup3\n        /* \"#utility.yul\":2944:2983   */\n      tag_106\n      jump\t// in\n    tag_115:\n        /* \"#utility.yul\":2999:3088   */\n      tag_116\n        /* \"#utility.yul\":3081:3087   */\n      dup2\n        /* \"#utility.yul\":3076:3079   */\n      dup6\n        /* \"#utility.yul\":2999:3088   */\n      tag_117\n      jump\t// in\n    tag_116:\n        /* \"#utility.yul\":2992:3088   */\n      swap4\n      pop\n        /* \"#utility.yul\":3097:3149   */\n      tag_118\n        /* \"#utility.yul\":3142:3148   */\n      dup2\n        /* \"#utility.yul\":3137:3140   */\n      dup6\n        /* \"#utility.yul\":3130:3134   */\n      0x20\n        /* \"#utility.yul\":3123:3128   */\n      dup7\n        /* \"#utility.yul\":3119:3135   */\n      add\n        /* \"#utility.yul\":3097:3149   */\n      tag_110\n      jump\t// in\n    tag_118:\n        /* \"#utility.yul\":3174:3180   */\n      dup1\n        /* \"#utility.yul\":3169:3172   */\n      dup5\n        /* \"#utility.yul\":3165:3181   */\n      add\n        /* \"#utility.yul\":3158:3181   */\n      swap2\n      pop\n        /* \"#utility.yul\":2920:3187   */\n      pop\n        /* \"#utility.yul\":2810:3187   */\n      swap3\n      swap2\n      pop\n      pop\n      jump\t// out\n        /* \"#utility.yul\":3193:3311   */\n    tag_119:\n        /* \"#utility.yul\":3280:3304   */\n      tag_121\n        /* \"#utility.yul\":3298:3303   */\n      dup2\n        /* \"#utility.yul\":3280:3304   */\n      tag_122\n      jump\t// in\n    tag_121:\n        /* \"#utility.yul\":3275:3278   */\n      dup3\n        /* \"#utility.yul\":3268:3305   */\n      mstore\n        /* \"#utility.yul\":3193:3311   */\n      pop\n      pop\n      jump\t// out\n        /* \"#utility.yul\":3317:3592   */\n    tag_49:\n        /* \"#utility.yul\":3449:3452   */\n      0x00\n        /* \"#utility.yul\":3471:3566   */\n      tag_124\n        /* \"#utility.yul\":3562:3565   */\n      dup3\n        /* \"#utility.yul\":3553:3559   */\n      dup5\n        /* \"#utility.yul\":3471:3566   */\n      tag_113\n      jump\t// in\n    tag_124:\n        /* \"#utility.yul\":3464:3566   */\n      swap2\n      pop\n        /* \"#utility.yul\":3583:3586   */\n      dup2\n        /* \"#utility.yul\":3576:3586   */\n      swap1\n      pop\n        /* \"#utility.yul\":3317:3592   */\n      swap3\n      swap2\n      pop\n      pop\n      jump\t// out\n        /* \"#utility.yul\":3598:4021   */\n    tag_15:\n        /* \"#utility.yul\":3739:3743   */\n      0x00\n        /* \"#utility.yul\":3777:3779   */\n      0x40\n        /* \"#utility.yul\":3766:3775   */\n      dup3\n        /* \"#utility.yul\":3762:3780   */\n      add\n        /* \"#utility.yul\":3754:3780   */\n      swap1\n      pop\n        /* \"#utility.yul\":3790:3861   */\n      tag_126\n        /* \"#utility.yul\":3858:3859   */\n      0x00\n        /* \"#utility.yul\":3847:3856   */\n      dup4\n        /* \"#utility.yul\":3843:3860   */\n      add\n        /* \"#utility.yul\":3834:3840   */\n      dup6\n        /* \"#utility.yul\":3790:3861   */\n      tag_119\n      jump\t// in\n    tag_126:\n        /* \"#utility.yul\":3908:3917   */\n      dup2\n        /* \"#utility.yul\":3902:3906   */\n      dup2\n        /* \"#utility.yul\":3898:3918   */\n      sub\n        /* \"#utility.yul\":3893:3895   */\n      0x20\n        /* \"#utility.yul\":3882:3891   */\n      dup4\n        /* \"#utility.yul\":3878:3896   */\n      add\n        /* \"#utility.yul\":3871:3919   */\n      mstore\n        /* \"#utility.yul\":3936:4014   */\n      tag_127\n        /* \"#utility.yul\":4009:4013   */\n      dup2\n        /* \"#utility.yul\":4000:4006   */\n      dup5\n        /* \"#utility.yul\":3936:4014   */\n      tag_103\n      jump\t// in\n    tag_127:\n        /* \"#utility.yul\":3928:4014   */\n      swap1\n      pop\n        /* \"#utility.yul\":3598:4021   */\n      swap4\n      swap3\n      pop\n      pop\n      pop\n      jump\t// out\n        /* \"#utility.yul\":4027:4560   */\n    tag_46:\n        /* \"#utility.yul\":4196:4200   */\n      0x00\n        /* \"#utility.yul\":4234:4236   */\n      0x60\n        /* \"#utility.yul\":4223:4232   */\n      dup3\n        /* \"#utility.yul\":4219:4237   */\n      add\n        /* \"#utility.yul\":4211:4237   */\n      swap1\n      pop\n        /* \"#utility.yul\":4247:4318   */\n      tag_129\n        /* \"#utility.yul\":4315:4316   */\n      0x00\n        /* \"#utility.yul\":4304:4313   */\n      dup4\n        /* \"#utility.yul\":4300:4317   */\n      add\n        /* \"#utility.yul\":4291:4297   */\n      dup7\n        /* \"#utility.yul\":4247:4318   */\n      tag_119\n      jump\t// in\n    tag_129:\n        /* \"#utility.yul\":4365:4374   */\n      dup2\n        /* \"#utility.yul\":4359:4363   */\n      dup2\n        /* \"#utility.yul\":4355:4375   */\n      sub\n        /* \"#utility.yul\":4350:4352   */\n      0x20\n        /* \"#utility.yul\":4339:4348   */\n      dup4\n        /* \"#utility.yul\":4335:4353   */\n      add\n        /* \"#utility.yul\":4328:4376   */\n      mstore\n        /* \"#utility.yul\":4393:4471   */\n      tag_130\n        /* \"#utility.yul\":4466:4470   */\n      dup2\n        /* \"#utility.yul\":4457:4463   */\n      dup6\n        /* \"#utility.yul\":4393:4471   */\n      tag_103\n      jump\t// in\n    tag_130:\n        /* \"#utility.yul\":4385:4471   */\n      swap1\n      pop\n        /* \"#utility.yul\":4481:4553   */\n      tag_131\n        /* \"#utility.yul\":4549:4551   */\n      0x40\n        /* \"#utility.yul\":4538:4547   */\n      dup4\n        /* \"#utility.yul\":4534:4552   */\n      add\n        /* \"#utility.yul\":4525:4531   */\n      dup5\n        /* \"#utility.yul\":4481:4553   */\n      tag_119\n      jump\t// in\n    tag_131:\n        /* \"#utility.yul\":4027:4560   */\n      swap5\n      swap4\n      pop\n      pop\n      pop\n      pop\n      jump\t// out\n        /* \"#utility.yul\":4566:4695   */\n    tag_68:\n        /* \"#utility.yul\":4600:4606   */\n      0x00\n        /* \"#utility.yul\":4627:4647   */\n      tag_133\n      tag_134\n      jump\t// in\n    tag_133:\n        /* \"#utility.yul\":4617:4647   */\n      swap1\n      pop\n        /* \"#utility.yul\":4656:4689   */\n      tag_135\n        /* \"#utility.yul\":4684:4688   */\n      dup3\n        /* \"#utility.yul\":4676:4682   */\n      dup3\n        /* \"#utility.yul\":4656:4689   */\n      tag_136\n      jump\t// in\n    tag_135:\n        /* \"#utility.yul\":4566:4695   */\n      swap2\n      swap1\n      pop\n      jump\t// out\n        /* \"#utility.yul\":4701:4776   */\n    tag_134:\n        /* \"#utility.yul\":4734:4740   */\n      0x00\n        /* \"#utility.yul\":4767:4769   */\n      0x40\n        /* \"#utility.yul\":4761:4770   */\n      mload\n        /* \"#utility.yul\":4751:4770   */\n      swap1\n      pop\n        /* \"#utility.yul\":4701:4776   */\n      swap1\n      jump\t// out\n        /* \"#utility.yul\":4782:5090   */\n    tag_67:\n        /* \"#utility.yul\":4844:4848   */\n      0x00\n        /* \"#utility.yul\":4934:4952   */\n      0xffffffffffffffff\n        /* \"#utility.yul\":4926:4932   */\n      dup3\n        /* \"#utility.yul\":4923:4953   */\n      gt\n        /* \"#utility.yul\":4920:4976   */\n      iszero\n      tag_139\n      jumpi\n        /* \"#utility.yul\":4956:4974   */\n      tag_140\n      tag_141\n      jump\t// in\n    tag_140:\n        /* \"#utility.yul\":4920:4976   */\n    tag_139:\n        /* \"#utility.yul\":4994:5023   */\n      tag_142\n        /* \"#utility.yul\":5016:5022   */\n      dup3\n        /* \"#utility.yul\":4994:5023   */\n      tag_112\n      jump\t// in\n    tag_142:\n        /* \"#utility.yul\":4986:5023   */\n      swap1\n      pop\n        /* \"#utility.yul\":5078:5082   */\n      0x20\n        /* \"#utility.yul\":5072:5076   */\n      dup2\n        /* \"#utility.yul\":5068:5083   */\n      add\n        /* \"#utility.yul\":5060:5083   */\n      swap1\n      pop\n        /* \"#utility.yul\":4782:5090   */\n      swap2\n      swap1\n      pop\n      jump\t// out\n        /* \"#utility.yul\":5096:5195   */\n    tag_106:\n        /* \"#utility.yul\":5148:5154   */\n      0x00\n        /* \"#utility.yul\":5182:5187   */\n      dup2\n        /* \"#utility.yul\":5176:5188   */\n      mload\n        /* \"#utility.yul\":5166:5188   */\n      swap1\n      pop\n        /* \"#utility.yul\":5096:5195   */\n      swap2\n      swap1\n      pop\n      jump\t// out\n        /* \"#utility.yul\":5201:5370   */\n    tag_108:\n        /* \"#utility.yul\":5285:5296   */\n      0x00\n        /* \"#utility.yul\":5319:5325   */\n      dup3\n        /* \"#utility.yul\":5314:5317   */\n      dup3\n        /* \"#utility.yul\":5307:5326   */\n      mstore\n        /* \"#utility.yul\":5359:5363   */\n      0x20\n        /* \"#utility.yul\":5354:5357   */\n      dup3\n        /* \"#utility.yul\":5350:5364   */\n      add\n        /* \"#utility.yul\":5335:5364   */\n      swap1\n      pop\n        /* \"#utility.yul\":5201:5370   */\n      swap3\n      swap2\n      pop\n      pop\n      jump\t// out\n        /* \"#utility.yul\":5376:5524   */\n    tag_117:\n        /* \"#utility.yul\":5478:5489   */\n      0x00\n        /* \"#utility.yul\":5515:5518   */\n      dup2\n        /* \"#utility.yul\":5500:5518   */\n      swap1\n      pop\n        /* \"#utility.yul\":5376:5524   */\n      swap3\n      swap2\n      pop\n      pop\n      jump\t// out\n        /* \"#utility.yul\":5530:5721   */\n    tag_41:\n        /* \"#utility.yul\":5570:5574   */\n      0x00\n        /* \"#utility.yul\":5590:5610   */\n      tag_147\n        /* \"#utility.yul\":5608:5609   */\n      dup3\n        /* \"#utility.yul\":5590:5610   */\n      tag_122\n      jump\t// in\n    tag_147:\n        /* \"#utility.yul\":5585:5610   */\n      swap2\n      pop\n        /* \"#utility.yul\":5624:5644   */\n      tag_148\n        /* \"#utility.yul\":5642:5643   */\n      dup4\n        /* \"#utility.yul\":5624:5644   */\n      tag_122\n      jump\t// in\n    tag_148:\n        /* \"#utility.yul\":5619:5644   */\n      swap3\n      pop\n        /* \"#utility.yul\":5663:5664   */\n      dup3\n        /* \"#utility.yul\":5660:5661   */\n      dup3\n        /* \"#utility.yul\":5657:5665   */\n      lt\n        /* \"#utility.yul\":5654:5688   */\n      iszero\n      tag_149\n      jumpi\n        /* \"#utility.yul\":5668:5686   */\n      tag_150\n      tag_151\n      jump\t// in\n    tag_150:\n        /* \"#utility.yul\":5654:5688   */\n    tag_149:\n        /* \"#utility.yul\":5713:5714   */\n      dup3\n        /* \"#utility.yul\":5710:5711   */\n      dup3\n        /* \"#utility.yul\":5706:5715   */\n      sub\n        /* \"#utility.yul\":5698:5715   */\n      swap1\n      pop\n        /* \"#utility.yul\":5530:5721   */\n      swap3\n      swap2\n      pop\n      pop\n      jump\t// out\n        /* \"#utility.yul\":5727:5804   */\n    tag_122:\n        /* \"#utility.yul\":5764:5771   */\n      0x00\n        /* \"#utility.yul\":5793:5798   */\n      dup2\n        /* \"#utility.yul\":5782:5798   */\n      swap1\n      pop\n        /* \"#utility.yul\":5727:5804   */\n      swap2\n      swap1\n      pop\n      jump\t// out\n        /* \"#utility.yul\":5810:5964   */\n    tag_73:\n        /* \"#utility.yul\":5894:5900   */\n      dup3\n        /* \"#utility.yul\":5889:5892   */\n      dup2\n        /* \"#utility.yul\":5884:5887   */\n      dup4\n        /* \"#utility.yul\":5871:5901   */\n      calldatacopy\n        /* \"#utility.yul\":5956:5957   */\n      0x00\n        /* \"#utility.yul\":5947:5953   */\n      dup4\n        /* \"#utility.yul\":5942:5945   */\n      dup4\n        /* \"#utility.yul\":5938:5954   */\n      add\n        /* \"#utility.yul\":5931:5958   */\n      mstore\n        /* \"#utility.yul\":5810:5964   */\n      pop\n      pop\n      pop\n      jump\t// out\n        /* \"#utility.yul\":5970:6277   */\n    tag_110:\n        /* \"#utility.yul\":6038:6039   */\n      0x00\n        /* \"#utility.yul\":6048:6161   */\n    tag_155:\n        /* \"#utility.yul\":6062:6068   */\n      dup4\n        /* \"#utility.yul\":6059:6060   */\n      dup2\n        /* \"#utility.yul\":6056:6069   */\n      lt\n        /* \"#utility.yul\":6048:6161   */\n      iszero\n      tag_157\n      jumpi\n        /* \"#utility.yul\":6147:6148   */\n      dup1\n        /* \"#utility.yul\":6142:6145   */\n      dup3\n        /* \"#utility.yul\":6138:6149   */\n      add\n        /* \"#utility.yul\":6132:6150   */\n      mload\n        /* \"#utility.yul\":6128:6129   */\n      dup2\n        /* \"#utility.yul\":6123:6126   */\n      dup5\n        /* \"#utility.yul\":6119:6130   */\n      add\n        /* \"#utility.yul\":6112:6151   */\n      mstore\n        /* \"#utility.yul\":6084:6086   */\n      0x20\n        /* \"#utility.yul\":6081:6082   */\n      dup2\n        /* \"#utility.yul\":6077:6087   */\n      add\n        /* \"#utility.yul\":6072:6087   */\n      swap1\n      pop\n        /* \"#utility.yul\":6048:6161   */\n      jump(tag_155)\n    tag_157:\n        /* \"#utility.yul\":6179:6185   */\n      dup4\n        /* \"#utility.yul\":6176:6177   */\n      dup2\n        /* \"#utility.yul\":6173:6186   */\n      gt\n        /* \"#utility.yul\":6170:6271   */\n      iszero\n      tag_158\n      jumpi\n        /* \"#utility.yul\":6259:6260   */\n      0x00\n        /* \"#utility.yul\":6250:6256   */\n      dup5\n        /* \"#utility.yul\":6245:6248   */\n      dup5\n        /* \"#utility.yul\":6241:6257   */\n      add\n        /* \"#utility.yul\":6234:6261   */\n      mstore\n        /* \"#utility.yul\":6170:6271   */\n    tag_158:\n        /* \"#utility.yul\":6019:6277   */\n      pop\n        /* \"#utility.yul\":5970:6277   */\n      pop\n      pop\n      pop\n      jump\t// out\n        /* \"#utility.yul\":6283:6603   */\n    tag_26:\n        /* \"#utility.yul\":6327:6333   */\n      0x00\n        /* \"#utility.yul\":6364:6365   */\n      0x02\n        /* \"#utility.yul\":6358:6362   */\n      dup3\n        /* \"#utility.yul\":6354:6366   */\n      div\n        /* \"#utility.yul\":6344:6366   */\n      swap1\n      pop\n        /* \"#utility.yul\":6411:6412   */\n      0x01\n        /* \"#utility.yul\":6405:6409   */\n      dup3\n        /* \"#utility.yul\":6401:6413   */\n      and\n        /* \"#utility.yul\":6432:6450   */\n      dup1\n        /* \"#utility.yul\":6422:6503   */\n      tag_160\n      jumpi\n        /* \"#utility.yul\":6488:6492   */\n      0x7f\n        /* \"#utility.yul\":6480:6486   */\n      dup3\n        /* \"#utility.yul\":6476:6493   */\n      and\n        /* \"#utility.yul\":6466:6493   */\n      swap2\n      pop\n        /* \"#utility.yul\":6422:6503   */\n    tag_160:\n        /* \"#utility.yul\":6550:6552   */\n      0x20\n        /* \"#utility.yul\":6542:6548   */\n      dup3\n        /* \"#utility.yul\":6539:6553   */\n      lt\n        /* \"#utility.yul\":6519:6537   */\n      dup2\n        /* \"#utility.yul\":6516:6554   */\n      eq\n        /* \"#utility.yul\":6513:6597   */\n      iszero\n      tag_161\n      jumpi\n        /* \"#utility.yul\":6569:6587   */\n      tag_162\n      tag_163\n      jump\t// in\n    tag_162:\n        /* \"#utility.yul\":6513:6597   */\n    tag_161:\n        /* \"#utility.yul\":6334:6603   */\n      pop\n        /* \"#utility.yul\":6283:6603   */\n      swap2\n      swap1\n      pop\n      jump\t// out\n        /* \"#utility.yul\":6609:6890   */\n    tag_136:\n        /* \"#utility.yul\":6692:6719   */\n      tag_165\n        /* \"#utility.yul\":6714:6718   */\n      dup3\n        /* \"#utility.yul\":6692:6719   */\n      tag_112\n      jump\t// in\n    tag_165:\n        /* \"#utility.yul\":6684:6690   */\n      dup2\n        /* \"#utility.yul\":6680:6720   */\n      add\n        /* \"#utility.yul\":6822:6828   */\n      dup2\n        /* \"#utility.yul\":6810:6820   */\n      dup2\n        /* \"#utility.yul\":6807:6829   */\n      lt\n        /* \"#utility.yul\":6786:6804   */\n      0xffffffffffffffff\n        /* \"#utility.yul\":6774:6784   */\n      dup3\n        /* \"#utility.yul\":6771:6805   */\n      gt\n        /* \"#utility.yul\":6768:6830   */\n      or\n        /* \"#utility.yul\":6765:6853   */\n      iszero\n      tag_166\n      jumpi\n        /* \"#utility.yul\":6833:6851   */\n      tag_167\n      tag_141\n      jump\t// in\n    tag_167:\n        /* \"#utility.yul\":6765:6853   */\n    tag_166:\n        /* \"#utility.yul\":6873:6883   */\n      dup1\n        /* \"#utility.yul\":6869:6871   */\n      0x40\n        /* \"#utility.yul\":6862:6884   */\n      mstore\n        /* \"#utility.yul\":6652:6890   */\n      pop\n        /* \"#utility.yul\":6609:6890   */\n      pop\n      pop\n      jump\t// out\n        /* \"#utility.yul\":6896:7129   */\n    tag_43:\n        /* \"#utility.yul\":6935:6938   */\n      0x00\n        /* \"#utility.yul\":6958:6982   */\n      tag_169\n        /* \"#utility.yul\":6976:6981   */\n      dup3\n        /* \"#utility.yul\":6958:6982   */\n      tag_122\n      jump\t// in\n    tag_169:\n        /* \"#utility.yul\":6949:6982   */\n      swap2\n      pop\n        /* \"#utility.yul\":7004:7070   */\n      0xffffffffffffffffffffffffffffffffffffffffffffffffffffffffffffffff\n        /* \"#utility.yul\":6997:7002   */\n      dup3\n        /* \"#utility.yul\":6994:7071   */\n      eq\n        /* \"#utility.yul\":6991:7094   */\n      iszero\n      tag_170\n      jumpi\n        /* \"#utility.yul\":7074:7092   */\n      tag_171\n      tag_151\n      jump\t// in\n    tag_171:\n        /* \"#utility.yul\":6991:7094   */\n    tag_170:\n        /* \"#utility.yul\":7121:7122   */\n      0x01\n        /* \"#utility.yul\":7114:7119   */\n      dup3\n        /* \"#utility.yul\":7110:7123   */\n      add\n        /* \"#utility.yul\":7103:7123   */\n      swap1\n      pop\n        /* \"#utility.yul\":6896:7129   */\n      swap2\n      swap1\n      pop\n      jump\t// out\n        /* \"#utility.yul\":7135:7311   */\n    tag_51:\n        /* \"#utility.yul\":7167:7168   */\n      0x00\n        /* \"#utility.yul\":7184:7204   */\n      tag_173\n        /* \"#utility.yul\":7202:7203   */\n      dup3\n        /* \"#utility.yul\":7184:7204   */\n      tag_122\n      jump\t// in\n    tag_173:\n        /* \"#utility.yul\":7179:7204   */\n      swap2\n      pop\n        /* \"#utility.yul\":7218:7238   */\n      tag_174\n        /* \"#utility.yul\":7236:7237   */\n      dup4\n        /* \"#utility.yul\":7218:7238   */\n      tag_122\n      jump\t// in\n    tag_174:\n        /* \"#utility.yul\":7213:7238   */\n      swap3\n      pop\n        /* \"#utility.yul\":7257:7258   */\n      dup3\n        /* \"#utility.yul\":7247:7282   */\n      tag_175\n      jumpi\n        /* \"#utility.yul\":7262:7280   */\n      tag_176\n      tag_177\n      jump\t// in\n    tag_176:\n        /* \"#utility.yul\":7247:7282   */\n    tag_175:\n        /* \"#utility.yul\":7303:7304   */\n      dup3\n        /* \"#utility.yul\":7300:7301   */\n      dup3\n        /* \"#utility.yul\":7296:7305   */\n      mod\n        /* \"#utility.yul\":7291:7305   */\n      swap1\n      pop\n        /* \"#utility.yul\":7135:7311   */\n      swap3\n      swap2\n      pop\n      pop\n      jump\t// out\n        /* \"#utility.yul\":7317:7497   */\n    tag_151:\n        /* \"#utility.yul\":7365:7442   */\n      0x4e487b7100000000000000000000000000000000000000000000000000000000\n        /* \"#utility.yul\":7362:7363   */\n      0x00\n        /* \"#utility.yul\":7355:7443   */\n      mstore\n        /* \"#utility.yul\":7462:7466   */\n      0x11\n        /* \"#utility.yul\":7459:7460   */\n      0x04\n        /* \"#utility.yul\":7452:7467   */\n      mstore\n        /* \"#utility.yul\":7486:7490   */\n      0x24\n        /* \"#utility.yul\":7483:7484   */\n      0x00\n        /* \"#utility.yul\":7476:7491   */\n      revert\n        /* \"#utility.yul\":7503:7683   */\n    tag_177:\n        /* \"#utility.yul\":7551:7628   */\n      0x4e487b7100000000000000000000000000000000000000000000000000000000\n        /* \"#utility.yul\":7548:7549   */\n      0x00\n        /* \"#utility.yul\":7541:7629   */\n      mstore\n        /* \"#utility.yul\":7648:7652   */\n      0x12\n        /* \"#utility.yul\":7645:7646   */\n      0x04\n        /* \"#utility.yul\":7638:7653   */\n      mstore\n        /* \"#utility.yul\":7672:7676   */\n      0x24\n        /* \"#utility.yul\":7669:7670   */\n      0x00\n        /* \"#utility.yul\":7662:7677   */\n      revert\n        /* \"#utility.yul\":7689:7869   */\n    tag_163:\n        /* \"#utility.yul\":7737:7814   */\n      0x4e487b7100000000000000000000000000000000000000000000000000000000\n        /* \"#utility.yul\":7734:7735   */\n      0x00\n        /* \"#utility.yul\":7727:7815   */\n      mstore\n        /* \"#utility.yul\":7834:7838   */\n      0x22\n        /* \"#utility.yul\":7831:7832   */\n      0x04\n        /* \"#utility.yul\":7824:7839   */\n      mstore\n        /* \"#utility.yul\":7858:7862   */\n      0x24\n        /* \"#utility.yul\":7855:7856   */\n      0x00\n        /* \"#utility.yul\":7848:7863   */\n      revert\n        /* \"#utility.yul\":7875:8055   */\n    tag_141:\n        /* \"#utility.yul\":7923:8000   */\n      0x4e487b7100000000000000000000000000000000000000000000000000000000\n        /* \"#utility.yul\":7920:7921   */\n      0x00\n        /* \"#utility.yul\":7913:8001   */\n      mstore\n        /* \"#utility.yul\":8020:8024   */\n      0x41\n        /* \"#utility.yul\":8017:8018   */\n      0x04\n        /* \"#utility.yul\":8010:8025   */\n      mstore\n        /* \"#utility.yul\":8044:8048   */\n      0x24\n        /* \"#utility.yul\":8041:8042   */\n      0x00\n        /* \"#utility.yul\":8034:8049   */\n      revert\n        /* \"#utility.yul\":8061:8178   */\n    tag_78:\n        /* \"#utility.yul\":8170:8171   */\n      0x00\n        /* \"#utility.yul\":8167:8168   */\n      dup1\n        /* \"#utility.yul\":8160:8172   */\n      revert\n        /* \"#utility.yul\":8184:8301   */\n    tag_71:\n        /* \"#utility.yul\":8293:8294   */\n      0x00\n        /* \"#utility.yul\":8290:8291   */\n      dup1\n        /* \"#utility.yul\":8283:8295   */\n      revert\n        /* \"#utility.yul\":8307:8424   */\n    tag_90:\n        /* \"#utility.yul\":8416:8417   */\n      0x00\n        /* \"#utility.yul\":8413:8414   */\n      dup1\n        /* \"#utility.yul\":8406:8418   */\n      revert\n        /* \"#utility.yul\":8430:8547   */\n    tag_87:\n        /* \"#utility.yul\":8539:8540   */\n      0x00\n        /* \"#utility.yul\":8536:8537   */\n      dup1\n        /* \"#utility.yul\":8529:8541   */\n      revert\n        /* \"#utility.yul\":8553:8655   */\n    tag_112:\n        /* \"#utility.yul\":8594:8600   */\n      0x00\n        /* \"#utility.yul\":8645:8647   */\n      0x1f\n        /* \"#utility.yul\":8641:8648   */\n      not\n        /* \"#utility.yul\":8636:8638   */\n      0x1f\n        /* \"#utility.yul\":8629:8634   */\n      dup4\n        /* \"#utility.yul\":8625:8639   */\n      add\n        /* \"#utility.yul\":8621:8649   */\n      and\n        /* \"#utility.yul\":8611:8649   */\n      swap1\n      pop\n        /* \"#utility.yul\":8553:8655   */\n      swap2\n      swap1\n      pop\n      jump\t// out\n        /* \"#utility.yul\":8661:8783   */\n    tag_83:\n        /* \"#utility.yul\":8734:8758   */\n      tag_188\n        /* \"#utility.yul\":8752:8757   */\n      dup2\n        /* \"#utility.yul\":8734:8758   */\n      tag_122\n      jump\t// in\n    tag_188:\n        /* \"#utility.yul\":8727:8732   */\n      dup2\n        /* \"#utility.yul\":8724:8759   */\n      eq\n        /* \"#utility.yul\":8714:8777   */\n      tag_189\n      jumpi\n        /* \"#utility.yul\":8773:8774   */\n      0x00\n        /* \"#utility.yul\":8770:8771   */\n      dup1\n        /* \"#utility.yul\":8763:8775   */\n      revert\n        /* \"#utility.yul\":8714:8777   */\n    tag_189:\n        /* \"#utility.yul\":8661:8783   */\n      pop\n      jump\t// out\n\n    auxdata: 0xa26469706673582212205d9f91094ed2fa19aba804a42cd81c21b3db9e4b320b3baed66976a9ccd4811e64736f6c63430008070033\n}\n",
				"bytecode": {
					"linkReferences": {},
					"object": "60806040526010600055600054600a6200001a91906200008c565b6001553480156200002a57600080fd5b506200020f565b6000808291508390505b600185111562000083578086048111156200005b576200005a620001d3565b5b60018516156200006b5780820291505b80810290506200007b8562000202565b94506200003b565b94509492505050565b60006200009982620001c9565b9150620000a683620001c9565b9250620000d57fffffffffffffffffffffffffffffffffffffffffffffffffffffffffffffffff8484620000dd565b905092915050565b600082620000ef5760019050620001c2565b81620000ff5760009050620001c2565b8160018114620001185760028114620001235762000159565b6001915050620001c2565b60ff841115620001385762000137620001d3565b5b8360020a915084821115620001525762000151620001d3565b5b50620001c2565b5060208310610133831016604e8410600b8410161715620001935782820a9050838111156200018d576200018c620001d3565b5b620001c2565b620001a2848484600162000031565b92509050818404811115620001bc57620001bb620001d3565b5b81810290505b9392505050565b6000819050919050565b7f4e487b7100000000000000000000000000000000000000000000000000000000600052601160045260246000fd5b60008160011c9050919050565b610996806200021f6000396000f3fe608060405234801561001057600080fd5b50600436106100415760003560e01c806309639373146100465780632052465e14610062578063c6f1511214610093575b600080fd5b610060600480360381019061005b9190610507565b6100af565b005b61007c60048036038101906100779190610563565b6100bd565b60405161008a929190610620565b60405180910390f35b6100ad60048036038101906100a891906104be565b610179565b005b6100b982826101e0565b5050565b600281815481106100cd57600080fd5b90600052602060002090600202016000915090508060000154908060010180546100f69061078b565b80601f01602080910402602001604051908101604052809291908181526020018280546101229061078b565b801561016f5780601f106101445761010080835404028352916020019161016f565b820191906000526020600020905b81548152906001019060200180831161015257829003601f168201915b5050505050905082565b6000600460003373ffffffffffffffffffffffffffffffffffffffff1673ffffffffffffffffffffffffffffffffffffffff16815260200190815260200160002054146101c557600080fd5b60006101d082610351565b90506101dc82826101e0565b5050565b60026040518060400160405280838152602001848152509080600181540180825580915050600190039060005260206000209060020201600090919091909150600082015181600001556020820151816001019080519060200190610246929190610396565b50505033600360006001600280549050610260919061070b565b815260200190815260200160002060006101000a81548173ffffffffffffffffffffffffffffffffffffffff021916908373ffffffffffffffffffffffffffffffffffffffff160217905550600460003373ffffffffffffffffffffffffffffffffffffffff1673ffffffffffffffffffffffffffffffffffffffff16815260200190815260200160002060008154809291906102fc906107ee565b91905055507f88f026aacbbecc90c18411df4b1185fd8d9be2470f1962f192bf84a27d0704b76001600280549050610334919061070b565b838360405161034593929190610650565b60405180910390a15050565b600080826040516020016103659190610609565b6040516020818303038152906040528051906020012060001c90506001548161038e9190610837565b915050919050565b8280546103a29061078b565b90600052602060002090601f0160209004810192826103c4576000855561040b565b82601f106103dd57805160ff191683800117855561040b565b8280016001018555821561040b579182015b8281111561040a5782518255916020019190600101906103ef565b5b509050610418919061041c565b5090565b5b8082111561043557600081600090555060010161041d565b5090565b600061044c610447846106b3565b61068e565b90508281526020810184848401111561046857610467610929565b5b610473848285610749565b509392505050565b600082601f8301126104905761048f610924565b5b81356104a0848260208601610439565b91505092915050565b6000813590506104b881610949565b92915050565b6000602082840312156104d4576104d3610933565b5b600082013567ffffffffffffffff8111156104f2576104f161092e565b5b6104fe8482850161047b565b91505092915050565b6000806040838503121561051e5761051d610933565b5b600083013567ffffffffffffffff81111561053c5761053b61092e565b5b6105488582860161047b565b9250506020610559858286016104a9565b9150509250929050565b60006020828403121561057957610578610933565b5b6000610587848285016104a9565b91505092915050565b600061059b826106e4565b6105a581856106ef565b93506105b5818560208601610758565b6105be81610938565b840191505092915050565b60006105d4826106e4565b6105de8185610700565b93506105ee818560208601610758565b80840191505092915050565b6106038161073f565b82525050565b600061061582846105c9565b915081905092915050565b600060408201905061063560008301856105fa565b81810360208301526106478184610590565b90509392505050565b600060608201905061066560008301866105fa565b81810360208301526106778185610590565b905061068660408301846105fa565b949350505050565b60006106986106a9565b90506106a482826107bd565b919050565b6000604051905090565b600067ffffffffffffffff8211156106ce576106cd6108f5565b5b6106d782610938565b9050602081019050919050565b600081519050919050565b600082825260208201905092915050565b600081905092915050565b60006107168261073f565b91506107218361073f565b92508282101561073457610733610868565b5b828203905092915050565b6000819050919050565b82818337600083830152505050565b60005b8381101561077657808201518184015260208101905061075b565b83811115610785576000848401525b50505050565b600060028204905060018216806107a357607f821691505b602082108114156107b7576107b66108c6565b5b50919050565b6107c682610938565b810181811067ffffffffffffffff821117156107e5576107e46108f5565b5b80604052505050565b60006107f98261073f565b91507fffffffffffffffffffffffffffffffffffffffffffffffffffffffffffffffff82141561082c5761082b610868565b5b600182019050919050565b60006108428261073f565b915061084d8361073f565b92508261085d5761085c610897565b5b828206905092915050565b7f4e487b7100000000000000000000000000000000000000000000000000000000600052601160045260246000fd5b7f4e487b7100000000000000000000000000000000000000000000000000000000600052601260045260246000fd5b7f4e487b7100000000000000000000000000000000000000000000000000000000600052602260045260246000fd5b7f4e487b7100000000000000000000000000000000000000000000000000000000600052604160045260246000fd5b600080fd5b600080fd5b600080fd5b600080fd5b6000601f19601f8301169050919050565b6109528161073f565b811461095d57600080fd5b5056fea26469706673582212205d9f91094ed2fa19aba804a42cd81c21b3db9e4b320b3baed66976a9ccd4811e64736f6c63430008070033",
					"opcodes": "PUSH1 0x80 PUSH1 0x40 MSTORE PUSH1 0x10 PUSH1 0x0 SSTORE PUSH1 0x0 SLOAD PUSH1 0xA PUSH3 0x1A SWAP2 SWAP1 PUSH3 0x8C JUMP JUMPDEST PUSH1 0x1 SSTORE CALLVALUE DUP1 ISZERO PUSH3 0x2A JUMPI PUSH1 0x0 DUP1 REVERT JUMPDEST POP PUSH3 0x20F JUMP JUMPDEST PUSH1 0x0 DUP1 DUP3 SWAP2 POP DUP4 SWAP1 POP JUMPDEST PUSH1 0x1 DUP6 GT ISZERO PUSH3 0x83 JUMPI DUP1 DUP7 DIV DUP2 GT ISZERO PUSH3 0x5B JUMPI PUSH3 0x5A PUSH3 0x1D3 JUMP JUMPDEST JUMPDEST PUSH1 0x1 DUP6 AND ISZERO PUSH3 0x6B JUMPI DUP1 DUP3 MUL SWAP2 POP JUMPDEST DUP1 DUP2 MUL SWAP1 POP PUSH3 0x7B DUP6 PUSH3 0x202 JUMP JUMPDEST SWAP5 POP PUSH3 0x3B JUMP JUMPDEST SWAP5 POP SWAP5 SWAP3 POP POP POP JUMP JUMPDEST PUSH1 0x0 PUSH3 0x99 DUP3 PUSH3 0x1C9 JUMP JUMPDEST SWAP2 POP PUSH3 0xA6 DUP4 PUSH3 0x1C9 JUMP JUMPDEST SWAP3 POP PUSH3 0xD5 PUSH32 0xFFFFFFFFFFFFFFFFFFFFFFFFFFFFFFFFFFFFFFFFFFFFFFFFFFFFFFFFFFFFFFFF DUP5 DUP5 PUSH3 0xDD JUMP JUMPDEST SWAP1 POP SWAP3 SWAP2 POP POP JUMP JUMPDEST PUSH1 0x0 DUP3 PUSH3 0xEF JUMPI PUSH1 0x1 SWAP1 POP PUSH3 0x1C2 JUMP JUMPDEST DUP2 PUSH3 0xFF JUMPI PUSH1 0x0 SWAP1 POP PUSH3 0x1C2 JUMP JUMPDEST DUP2 PUSH1 0x1 DUP2 EQ PUSH3 0x118 JUMPI PUSH1 0x2 DUP2 EQ PUSH3 0x123 JUMPI PUSH3 0x159 JUMP JUMPDEST PUSH1 0x1 SWAP2 POP POP PUSH3 0x1C2 JUMP JUMPDEST PUSH1 0xFF DUP5 GT ISZERO PUSH3 0x138 JUMPI PUSH3 0x137 PUSH3 0x1D3 JUMP JUMPDEST JUMPDEST DUP4 PUSH1 0x2 EXP SWAP2 POP DUP5 DUP3 GT ISZERO PUSH3 0x152 JUMPI PUSH3 0x151 PUSH3 0x1D3 JUMP JUMPDEST JUMPDEST POP PUSH3 0x1C2 JUMP JUMPDEST POP PUSH1 0x20 DUP4 LT PUSH2 0x133 DUP4 LT AND PUSH1 0x4E DUP5 LT PUSH1 0xB DUP5 LT AND OR ISZERO PUSH3 0x193 JUMPI DUP3 DUP3 EXP SWAP1 POP DUP4 DUP2 GT ISZERO PUSH3 0x18D JUMPI PUSH3 0x18C PUSH3 0x1D3 JUMP JUMPDEST JUMPDEST PUSH3 0x1C2 JUMP JUMPDEST PUSH3 0x1A2 DUP5 DUP5 DUP5 PUSH1 0x1 PUSH3 0x31 JUMP JUMPDEST SWAP3 POP SWAP1 POP DUP2 DUP5 DIV DUP2 GT ISZERO PUSH3 0x1BC JUMPI PUSH3 0x1BB PUSH3 0x1D3 JUMP JUMPDEST JUMPDEST DUP2 DUP2 MUL SWAP1 POP JUMPDEST SWAP4 SWAP3 POP POP POP JUMP JUMPDEST PUSH1 0x0 DUP2 SWAP1 POP SWAP2 SWAP1 POP JUMP JUMPDEST PUSH32 0x4E487B7100000000000000000000000000000000000000000000000000000000 PUSH1 0x0 MSTORE PUSH1 0x11 PUSH1 0x4 MSTORE PUSH1 0x24 PUSH1 0x0 REVERT JUMPDEST PUSH1 0x0 DUP2 PUSH1 0x1 SHR SWAP1 POP SWAP2 SWAP1 POP JUMP JUMPDEST PUSH2 0x996 DUP1 PUSH3 0x21F PUSH1 0x0 CODECOPY PUSH1 0x0 RETURN INVALID PUSH1 0x80 PUSH1 0x40 MSTORE CALLVALUE DUP1 ISZERO PUSH2 0x10 JUMPI PUSH1 0x0 DUP1 REVERT JUMPDEST POP PUSH1 0x4 CALLDATASIZE LT PUSH2 0x41 JUMPI PUSH1 0x0 CALLDATALOAD PUSH1 0xE0 SHR DUP1 PUSH4 0x9639373 EQ PUSH2 0x46 JUMPI DUP1 PUSH4 0x2052465E EQ PUSH2 0x62 JUMPI DUP1 PUSH4 0xC6F15112 EQ PUSH2 0x93 JUMPI JUMPDEST PUSH1 0x0 DUP1 REVERT JUMPDEST PUSH2 0x60 PUSH1 0x4 DUP1 CALLDATASIZE SUB DUP2 ADD SWAP1 PUSH2 0x5B SWAP2 SWAP1 PUSH2 0x507 JUMP JUMPDEST PUSH2 0xAF JUMP JUMPDEST STOP JUMPDEST PUSH2 0x7C PUSH1 0x4 DUP1 CALLDATASIZE SUB DUP2 ADD SWAP1 PUSH2 0x77 SWAP2 SWAP1 PUSH2 0x563 JUMP JUMPDEST PUSH2 0xBD JUMP JUMPDEST PUSH1 0x40 MLOAD PUSH2 0x8A SWAP3 SWAP2 SWAP1 PUSH2 0x620 JUMP JUMPDEST PUSH1 0x40 MLOAD DUP1 SWAP2 SUB SWAP1 RETURN JUMPDEST PUSH2 0xAD PUSH1 0x4 DUP1 CALLDATASIZE SUB DUP2 ADD SWAP1 PUSH2 0xA8 SWAP2 SWAP1 PUSH2 0x4BE JUMP JUMPDEST PUSH2 0x179 JUMP JUMPDEST STOP JUMPDEST PUSH2 0xB9 DUP3 DUP3 PUSH2 0x1E0 JUMP JUMPDEST POP POP JUMP JUMPDEST PUSH1 0x2 DUP2 DUP2 SLOAD DUP2 LT PUSH2 0xCD JUMPI PUSH1 0x0 DUP1 REVERT JUMPDEST SWAP1 PUSH1 0x0 MSTORE PUSH1 0x20 PUSH1 0x0 KECCAK256 SWAP1 PUSH1 0x2 MUL ADD PUSH1 0x0 SWAP2 POP SWAP1 POP DUP1 PUSH1 0x0 ADD SLOAD SWAP1 DUP1 PUSH1 0x1 ADD DUP1 SLOAD PUSH2 0xF6 SWAP1 PUSH2 0x78B JUMP JUMPDEST DUP1 PUSH1 0x1F ADD PUSH1 0x20 DUP1 SWAP2 DIV MUL PUSH1 0x20 ADD PUSH1 0x40 MLOAD SWAP1 DUP2 ADD PUSH1 0x40 MSTORE DUP1 SWAP3 SWAP2 SWAP1 DUP2 DUP2 MSTORE PUSH1 0x20 ADD DUP3 DUP1 SLOAD PUSH2 0x122 SWAP1 PUSH2 0x78B JUMP JUMPDEST DUP1 ISZERO PUSH2 0x16F JUMPI DUP1 PUSH1 0x1F LT PUSH2 0x144 JUMPI PUSH2 0x100 DUP1 DUP4 SLOAD DIV MUL DUP4 MSTORE SWAP2 PUSH1 0x20 ADD SWAP2 PUSH2 0x16F JUMP JUMPDEST DUP3 ADD SWAP2 SWAP1 PUSH1 0x0 MSTORE PUSH1 0x20 PUSH1 0x0 KECCAK256 SWAP1 JUMPDEST DUP2 SLOAD DUP2 MSTORE SWAP1 PUSH1 0x1 ADD SWAP1 PUSH1 0x20 ADD DUP1 DUP4 GT PUSH2 0x152 JUMPI DUP3 SWAP1 SUB PUSH1 0x1F AND DUP3 ADD SWAP2 JUMPDEST POP POP POP POP POP SWAP1 POP DUP3 JUMP JUMPDEST PUSH1 0x0 PUSH1 0x4 PUSH1 0x0 CALLER PUSH20 0xFFFFFFFFFFFFFFFFFFFFFFFFFFFFFFFFFFFFFFFF AND PUSH20 0xFFFFFFFFFFFFFFFFFFFFFFFFFFFFFFFFFFFFFFFF AND DUP2 MSTORE PUSH1 0x20 ADD SWAP1 DUP2 MSTORE PUSH1 0x20 ADD PUSH1 0x0 KECCAK256 SLOAD EQ PUSH2 0x1C5 JUMPI PUSH1 0x0 DUP1 REVERT JUMPDEST PUSH1 0x0 PUSH2 0x1D0 DUP3 PUSH2 0x351 JUMP JUMPDEST SWAP1 POP PUSH2 0x1DC DUP3 DUP3 PUSH2 0x1E0 JUMP JUMPDEST POP POP JUMP JUMPDEST PUSH1 0x2 PUSH1 0x40 MLOAD DUP1 PUSH1 0x40 ADD PUSH1 0x40 MSTORE DUP1 DUP4 DUP2 MSTORE PUSH1 0x20 ADD DUP5 DUP2 MSTORE POP SWAP1 DUP1 PUSH1 0x1 DUP2 SLOAD ADD DUP1 DUP3 SSTORE DUP1 SWAP2 POP POP PUSH1 0x1 SWAP1 SUB SWAP1 PUSH1 0x0 MSTORE PUSH1 0x20 PUSH1 0x0 KECCAK256 SWAP1 PUSH1 0x2 MUL ADD PUSH1 0x0 SWAP1 SWAP2 SWAP1 SWAP2 SWAP1 SWAP2 POP PUSH1 0x0 DUP3 ADD MLOAD DUP2 PUSH1 0x0 ADD SSTORE PUSH1 0x20 DUP3 ADD MLOAD DUP2 PUSH1 0x1 ADD SWAP1 DUP1 MLOAD SWAP1 PUSH1 0x20 ADD SWAP1 PUSH2 0x246 SWAP3 SWAP2 SWAP1 PUSH2 0x396 JUMP JUMPDEST POP POP POP CALLER PUSH1 0x3 PUSH1 0x0 PUSH1 0x1 PUSH1 0x2 DUP1 SLOAD SWAP1 POP PUSH2 0x260 SWAP2 SWAP1 PUSH2 0x70B JUMP JUMPDEST DUP2 MSTORE PUSH1 0x20 ADD SWAP1 DUP2 MSTORE PUSH1 0x20 ADD PUSH1 0x0 KECCAK256 PUSH1 0x0 PUSH2 0x100 EXP DUP2 SLOAD DUP2 PUSH20 0xFFFFFFFFFFFFFFFFFFFFFFFFFFFFFFFFFFFFFFFF MUL NOT AND SWAP1 DUP4 PUSH20 0xFFFFFFFFFFFFFFFFFFFFFFFFFFFFFFFFFFFFFFFF AND MUL OR SWAP1 SSTORE POP PUSH1 0x4 PUSH1 0x0 CALLER PUSH20 0xFFFFFFFFFFFFFFFFFFFFFFFFFFFFFFFFFFFFFFFF AND PUSH20 0xFFFFFFFFFFFFFFFFFFFFFFFFFFFFFFFFFFFFFFFF AND DUP2 MSTORE PUSH1 0x20 ADD SWAP1 DUP2 MSTORE PUSH1 0x20 ADD PUSH1 0x0 KECCAK256 PUSH1 0x0 DUP2 SLOAD DUP1 SWAP3 SWAP2 SWAP1 PUSH2 0x2FC SWAP1 PUSH2 0x7EE JUMP JUMPDEST SWAP2 SWAP1 POP SSTORE POP PUSH32 0x88F026AACBBECC90C18411DF4B1185FD8D9BE2470F1962F192BF84A27D0704B7 PUSH1 0x1 PUSH1 0x2 DUP1 SLOAD SWAP1 POP PUSH2 0x334 SWAP2 SWAP1 PUSH2 0x70B JUMP JUMPDEST DUP4 DUP4 PUSH1 0x40 MLOAD PUSH2 0x345 SWAP4 SWAP3 SWAP2 SWAP1 PUSH2 0x650 JUMP JUMPDEST PUSH1 0x40 MLOAD DUP1 SWAP2 SUB SWAP1 LOG1 POP POP JUMP JUMPDEST PUSH1 0x0 DUP1 DUP3 PUSH1 0x40 MLOAD PUSH1 0x20 ADD PUSH2 0x365 SWAP2 SWAP1 PUSH2 0x609 JUMP JUMPDEST PUSH1 0x40 MLOAD PUSH1 0x20 DUP2 DUP4 SUB SUB DUP2 MSTORE SWAP1 PUSH1 0x40 MSTORE DUP1 MLOAD SWAP1 PUSH1 0x20 ADD KECCAK256 PUSH1 0x0 SHR SWAP1 POP PUSH1 0x1 SLOAD DUP2 PUSH2 0x38E SWAP2 SWAP1 PUSH2 0x837 JUMP JUMPDEST SWAP2 POP POP SWAP2 SWAP1 POP JUMP JUMPDEST DUP3 DUP1 SLOAD PUSH2 0x3A2 SWAP1 PUSH2 0x78B JUMP JUMPDEST SWAP1 PUSH1 0x0 MSTORE PUSH1 0x20 PUSH1 0x0 KECCAK256 SWAP1 PUSH1 0x1F ADD PUSH1 0x20 SWAP1 DIV DUP2 ADD SWAP3 DUP3 PUSH2 0x3C4 JUMPI PUSH1 0x0 DUP6 SSTORE PUSH2 0x40B JUMP JUMPDEST DUP3 PUSH1 0x1F LT PUSH2 0x3DD JUMPI DUP1 MLOAD PUSH1 0xFF NOT AND DUP4 DUP1 ADD OR DUP6 SSTORE PUSH2 0x40B JUMP JUMPDEST DUP3 DUP1 ADD PUSH1 0x1 ADD DUP6 SSTORE DUP3 ISZERO PUSH2 0x40B JUMPI SWAP2 DUP3 ADD JUMPDEST DUP3 DUP2 GT ISZERO PUSH2 0x40A JUMPI DUP3 MLOAD DUP3 SSTORE SWAP2 PUSH1 0x20 ADD SWAP2 SWAP1 PUSH1 0x1 ADD SWAP1 PUSH2 0x3EF JUMP JUMPDEST JUMPDEST POP SWAP1 POP PUSH2 0x418 SWAP2 SWAP1 PUSH2 0x41C JUMP JUMPDEST POP SWAP1 JUMP JUMPDEST JUMPDEST DUP1 DUP3 GT ISZERO PUSH2 0x435 JUMPI PUSH1 0x0 DUP2 PUSH1 0x0 SWAP1 SSTORE POP PUSH1 0x1 ADD PUSH2 0x41D JUMP JUMPDEST POP SWAP1 JUMP JUMPDEST PUSH1 0x0 PUSH2 0x44C PUSH2 0x447 DUP5 PUSH2 0x6B3 JUMP JUMPDEST PUSH2 0x68E JUMP JUMPDEST SWAP1 POP DUP3 DUP2 MSTORE PUSH1 0x20 DUP2 ADD DUP5 DUP5 DUP5 ADD GT ISZERO PUSH2 0x468 JUMPI PUSH2 0x467 PUSH2 0x929 JUMP JUMPDEST JUMPDEST PUSH2 0x473 DUP5 DUP3 DUP6 PUSH2 0x749 JUMP JUMPDEST POP SWAP4 SWAP3 POP POP POP JUMP JUMPDEST PUSH1 0x0 DUP3 PUSH1 0x1F DUP4 ADD SLT PUSH2 0x490 JUMPI PUSH2 0x48F PUSH2 0x924 JUMP JUMPDEST JUMPDEST DUP2 CALLDATALOAD PUSH2 0x4A0 DUP5 DUP3 PUSH1 0x20 DUP7 ADD PUSH2 0x439 JUMP JUMPDEST SWAP2 POP POP SWAP3 SWAP2 POP POP JUMP JUMPDEST PUSH1 0x0 DUP2 CALLDATALOAD SWAP1 POP PUSH2 0x4B8 DUP2 PUSH2 0x949 JUMP JUMPDEST SWAP3 SWAP2 POP POP JUMP JUMPDEST PUSH1 0x0 PUSH1 0x20 DUP3 DUP5 SUB SLT ISZERO PUSH2 0x4D4 JUMPI PUSH2 0x4D3 PUSH2 0x933 JUMP JUMPDEST JUMPDEST PUSH1 0x0 DUP3 ADD CALLDATALOAD PUSH8 0xFFFFFFFFFFFFFFFF DUP2 GT ISZERO PUSH2 0x4F2 JUMPI PUSH2 0x4F1 PUSH2 0x92E JUMP JUMPDEST JUMPDEST PUSH2 0x4FE DUP5 DUP3 DUP6 ADD PUSH2 0x47B JUMP JUMPDEST SWAP2 POP POP SWAP3 SWAP2 POP POP JUMP JUMPDEST PUSH1 0x0 DUP1 PUSH1 0x40 DUP4 DUP6 SUB SLT ISZERO PUSH2 0x51E JUMPI PUSH2 0x51D PUSH2 0x933 JUMP JUMPDEST JUMPDEST PUSH1 0x0 DUP4 ADD CALLDATALOAD PUSH8 0xFFFFFFFFFFFFFFFF DUP2 GT ISZERO PUSH2 0x53C JUMPI PUSH2 0x53B PUSH2 0x92E JUMP JUMPDEST JUMPDEST PUSH2 0x548 DUP6 DUP3 DUP7 ADD PUSH2 0x47B JUMP JUMPDEST SWAP3 POP POP PUSH1 0x20 PUSH2 0x559 DUP6 DUP3 DUP7 ADD PUSH2 0x4A9 JUMP JUMPDEST SWAP2 POP POP SWAP3 POP SWAP3 SWAP1 POP JUMP JUMPDEST PUSH1 0x0 PUSH1 0x20 DUP3 DUP5 SUB SLT ISZERO PUSH2 0x579 JUMPI PUSH2 0x578 PUSH2 0x933 JUMP JUMPDEST JUMPDEST PUSH1 0x0 PUSH2 0x587 DUP5 DUP3 DUP6 ADD PUSH2 0x4A9 JUMP JUMPDEST SWAP2 POP POP SWAP3 SWAP2 POP POP JUMP JUMPDEST PUSH1 0x0 PUSH2 0x59B DUP3 PUSH2 0x6E4 JUMP JUMPDEST PUSH2 0x5A5 DUP2 DUP6 PUSH2 0x6EF JUMP JUMPDEST SWAP4 POP PUSH2 0x5B5 DUP2 DUP6 PUSH1 0x20 DUP7 ADD PUSH2 0x758 JUMP JUMPDEST PUSH2 0x5BE DUP2 PUSH2 0x938 JUMP JUMPDEST DUP5 ADD SWAP2 POP POP SWAP3 SWAP2 POP POP JUMP JUMPDEST PUSH1 0x0 PUSH2 0x5D4 DUP3 PUSH2 0x6E4 JUMP JUMPDEST PUSH2 0x5DE DUP2 DUP6 PUSH2 0x700 JUMP JUMPDEST SWAP4 POP PUSH2 0x5EE DUP2 DUP6 PUSH1 0x20 DUP7 ADD PUSH2 0x758 JUMP JUMPDEST DUP1 DUP5 ADD SWAP2 POP POP SWAP3 SWAP2 POP POP JUMP JUMPDEST PUSH2 0x603 DUP2 PUSH2 0x73F JUMP JUMPDEST DUP3 MSTORE POP POP JUMP JUMPDEST PUSH1 0x0 PUSH2 0x615 DUP3 DUP5 PUSH2 0x5C9 JUMP JUMPDEST SWAP2 POP DUP2 SWAP1 POP SWAP3 SWAP2 POP POP JUMP JUMPDEST PUSH1 0x0 PUSH1 0x40 DUP3 ADD SWAP1 POP PUSH2 0x635 PUSH1 0x0 DUP4 ADD DUP6 PUSH2 0x5FA JUMP JUMPDEST DUP2 DUP2 SUB PUSH1 0x20 DUP4 ADD MSTORE PUSH2 0x647 DUP2 DUP5 PUSH2 0x590 JUMP JUMPDEST SWAP1 POP SWAP4 SWAP3 POP POP POP JUMP JUMPDEST PUSH1 0x0 PUSH1 0x60 DUP3 ADD SWAP1 POP PUSH2 0x665 PUSH1 0x0 DUP4 ADD DUP7 PUSH2 0x5FA JUMP JUMPDEST DUP2 DUP2 SUB PUSH1 0x20 DUP4 ADD MSTORE PUSH2 0x677 DUP2 DUP6 PUSH2 0x590 JUMP JUMPDEST SWAP1 POP PUSH2 0x686 PUSH1 0x40 DUP4 ADD DUP5 PUSH2 0x5FA JUMP JUMPDEST SWAP5 SWAP4 POP POP POP POP JUMP JUMPDEST PUSH1 0x0 PUSH2 0x698 PUSH2 0x6A9 JUMP JUMPDEST SWAP1 POP PUSH2 0x6A4 DUP3 DUP3 PUSH2 0x7BD JUMP JUMPDEST SWAP2 SWAP1 POP JUMP JUMPDEST PUSH1 0x0 PUSH1 0x40 MLOAD SWAP1 POP SWAP1 JUMP JUMPDEST PUSH1 0x0 PUSH8 0xFFFFFFFFFFFFFFFF DUP3 GT ISZERO PUSH2 0x6CE JUMPI PUSH2 0x6CD PUSH2 0x8F5 JUMP JUMPDEST JUMPDEST PUSH2 0x6D7 DUP3 PUSH2 0x938 JUMP JUMPDEST SWAP1 POP PUSH1 0x20 DUP2 ADD SWAP1 POP SWAP2 SWAP1 POP JUMP JUMPDEST PUSH1 0x0 DUP2 MLOAD SWAP1 POP SWAP2 SWAP1 POP JUMP JUMPDEST PUSH1 0x0 DUP3 DUP3 MSTORE PUSH1 0x20 DUP3 ADD SWAP1 POP SWAP3 SWAP2 POP POP JUMP JUMPDEST PUSH1 0x0 DUP2 SWAP1 POP SWAP3 SWAP2 POP POP JUMP JUMPDEST PUSH1 0x0 PUSH2 0x716 DUP3 PUSH2 0x73F JUMP JUMPDEST SWAP2 POP PUSH2 0x721 DUP4 PUSH2 0x73F JUMP JUMPDEST SWAP3 POP DUP3 DUP3 LT ISZERO PUSH2 0x734 JUMPI PUSH2 0x733 PUSH2 0x868 JUMP JUMPDEST JUMPDEST DUP3 DUP3 SUB SWAP1 POP SWAP3 SWAP2 POP POP JUMP JUMPDEST PUSH1 0x0 DUP2 SWAP1 POP SWAP2 SWAP1 POP JUMP JUMPDEST DUP3 DUP2 DUP4 CALLDATACOPY PUSH1 0x0 DUP4 DUP4 ADD MSTORE POP POP POP JUMP JUMPDEST PUSH1 0x0 JUMPDEST DUP4 DUP2 LT ISZERO PUSH2 0x776 JUMPI DUP1 DUP3 ADD MLOAD DUP2 DUP5 ADD MSTORE PUSH1 0x20 DUP2 ADD SWAP1 POP PUSH2 0x75B JUMP JUMPDEST DUP4 DUP2 GT ISZERO PUSH2 0x785 JUMPI PUSH1 0x0 DUP5 DUP5 ADD MSTORE JUMPDEST POP POP POP POP JUMP JUMPDEST PUSH1 0x0 PUSH1 0x2 DUP3 DIV SWAP1 POP PUSH1 0x1 DUP3 AND DUP1 PUSH2 0x7A3 JUMPI PUSH1 0x7F DUP3 AND SWAP2 POP JUMPDEST PUSH1 0x20 DUP3 LT DUP2 EQ ISZERO PUSH2 0x7B7 JUMPI PUSH2 0x7B6 PUSH2 0x8C6 JUMP JUMPDEST JUMPDEST POP SWAP2 SWAP1 POP JUMP JUMPDEST PUSH2 0x7C6 DUP3 PUSH2 0x938 JUMP JUMPDEST DUP2 ADD DUP2 DUP2 LT PUSH8 0xFFFFFFFFFFFFFFFF DUP3 GT OR ISZERO PUSH2 0x7E5 JUMPI PUSH2 0x7E4 PUSH2 0x8F5 JUMP JUMPDEST JUMPDEST DUP1 PUSH1 0x40 MSTORE POP POP POP JUMP JUMPDEST PUSH1 0x0 PUSH2 0x7F9 DUP3 PUSH2 0x73F JUMP JUMPDEST SWAP2 POP PUSH32 0xFFFFFFFFFFFFFFFFFFFFFFFFFFFFFFFFFFFFFFFFFFFFFFFFFFFFFFFFFFFFFFFF DUP3 EQ ISZERO PUSH2 0x82C JUMPI PUSH2 0x82B PUSH2 0x868 JUMP JUMPDEST JUMPDEST PUSH1 0x1 DUP3 ADD SWAP1 POP SWAP2 SWAP1 POP JUMP JUMPDEST PUSH1 0x0 PUSH2 0x842 DUP3 PUSH2 0x73F JUMP JUMPDEST SWAP2 POP PUSH2 0x84D DUP4 PUSH2 0x73F JUMP JUMPDEST SWAP3 POP DUP3 PUSH2 0x85D JUMPI PUSH2 0x85C PUSH2 0x897 JUMP JUMPDEST JUMPDEST DUP3 DUP3 MOD SWAP1 POP SWAP3 SWAP2 POP POP JUMP JUMPDEST PUSH32 0x4E487B7100000000000000000000000000000000000000000000000000000000 PUSH1 0x0 MSTORE PUSH1 0x11 PUSH1 0x4 MSTORE PUSH1 0x24 PUSH1 0x0 REVERT JUMPDEST PUSH32 0x4E487B7100000000000000000000000000000000000000000000000000000000 PUSH1 0x0 MSTORE PUSH1 0x12 PUSH1 0x4 MSTORE PUSH1 0x24 PUSH1 0x0 REVERT JUMPDEST PUSH32 0x4E487B7100000000000000000000000000000000000000000000000000000000 PUSH1 0x0 MSTORE PUSH1 0x22 PUSH1 0x4 MSTORE PUSH1 0x24 PUSH1 0x0 REVERT JUMPDEST PUSH32 0x4E487B7100000000000000000000000000000000000000000000000000000000 PUSH1 0x0 MSTORE PUSH1 0x41 PUSH1 0x4 MSTORE PUSH1 0x24 PUSH1 0x0 REVERT JUMPDEST PUSH1 0x0 DUP1 REVERT JUMPDEST PUSH1 0x0 DUP1 REVERT JUMPDEST PUSH1 0x0 DUP1 REVERT JUMPDEST PUSH1 0x0 DUP1 REVERT JUMPDEST PUSH1 0x0 PUSH1 0x1F NOT PUSH1 0x1F DUP4 ADD AND SWAP1 POP SWAP2 SWAP1 POP JUMP JUMPDEST PUSH2 0x952 DUP2 PUSH2 0x73F JUMP JUMPDEST DUP2 EQ PUSH2 0x95D JUMPI PUSH1 0x0 DUP1 REVERT JUMPDEST POP JUMP INVALID LOG2 PUSH5 0x6970667358 0x22 SLT KECCAK256 0x5D SWAP16 SWAP2 MULMOD 0x4E 0xD2 STATICCALL NOT 0xAB 0xA8 DIV LOG4 0x2C 0xD8 SHR 0x21 0xB3 0xDB SWAP15 0x4B ORIGIN SIGNEXTEND EXTCODESIZE 0xAE 0xD6 PUSH10 0x76A9CCD4811E64736F6C PUSH4 0x43000807 STOP CALLER "
				},
				"gasEstimates": {
					"creation": {
						"codeDepositCost": "490800",
						"executionCost": "infinite",
						"totalCost": "infinite"
					},
					"external": {
						"createZombie(string,uint256)": "infinite",
						"generateRandomZombie(string)": "infinite",
						"zombies(uint256)": "infinite"
					},
					"internal": {
						"_createZombie(string memory,uint256)": "infinite",
						"_generateRandomDna(string memory)": "infinite"
					}
				},
				"methodIdentifiers": {
					"createZombie(string,uint256)": "09639373",
					"generateRandomZombie(string)": "c6f15112",
					"zombies(uint256)": "2052465e"
				}
			},
			"storageLayout": {
				"storage": [
					{
						"astId": 4,
						"contract": "contracts/Zombiefactory.sol:ZombieFactory",
						"label": "dnaDigits",
						"offset": 0,
						"slot": "0",
						"type": "t_uint256"
					},
					{
						"astId": 9,
						"contract": "contracts/Zombiefactory.sol:ZombieFactory",
						"label": "dnaModulus",
						"offset": 0,
						"slot": "1",
						"type": "t_uint256"
					},
					{
						"astId": 26,
						"contract": "contracts/Zombiefactory.sol:ZombieFactory",
						"label": "zombies",
						"offset": 0,
						"slot": "2",
						"type": "t_array(t_struct(Zombie)22_storage)dyn_storage"
					},
					{
						"astId": 30,
						"contract": "contracts/Zombiefactory.sol:ZombieFactory",
						"label": "zombieToOwner",
						"offset": 0,
						"slot": "3",
						"type": "t_mapping(t_uint256,t_address)"
					},
					{
						"astId": 34,
						"contract": "contracts/Zombiefactory.sol:ZombieFactory",
						"label": "ownerZombieCount",
						"offset": 0,
						"slot": "4",
						"type": "t_mapping(t_address,t_uint256)"
					}
				],
				"types": {
					"t_address": {
						"encoding": "inplace",
						"label": "address",
						"numberOfBytes": "20"
					},
					"t_array(t_struct(Zombie)22_storage)dyn_storage": {
						"base": "t_struct(Zombie)22_storage",
						"encoding": "dynamic_array",
						"label": "struct ZombieFactory.Zombie[]",
						"numberOfBytes": "32"
					},
					"t_mapping(t_address,t_uint256)": {
						"encoding": "mapping",
						"key": "t_address",
						"label": "mapping(address => uint256)",
						"numberOfBytes": "32",
						"value": "t_uint256"
					},
					"t_mapping(t_uint256,t_address)": {
						"encoding": "mapping",
						"key": "t_uint256",
						"label": "mapping(uint256 => address)",
						"numberOfBytes": "32",
						"value": "t_address"
					},
					"t_string_storage": {
						"encoding": "bytes",
						"label": "string",
						"numberOfBytes": "32"
					},
					"t_struct(Zombie)22_storage": {
						"encoding": "inplace",
						"label": "struct ZombieFactory.Zombie",
						"members": [
							{
								"astId": 19,
								"contract": "contracts/Zombiefactory.sol:ZombieFactory",
								"label": "dna",
								"offset": 0,
								"slot": "0",
								"type": "t_uint256"
							},
							{
								"astId": 21,
								"contract": "contracts/Zombiefactory.sol:ZombieFactory",
								"label": "name",
								"offset": 0,
								"slot": "1",
								"type": "t_string_storage"
							}
						],
						"numberOfBytes": "64"
					},
					"t_uint256": {
						"encoding": "inplace",
						"label": "uint256",
						"numberOfBytes": "32"
					}
				}
			},
			"userdoc": {
				"kind": "user",
				"methods": {},
				"version": 1
			}
		}
	}
}