{
	"contracts/Zombiefeeding.sol": {
		"ZombieFeeding": {
			"abi": [
				{
					"anonymous": false,
					"inputs": [
						{
							"indexed": false,
							"internalType": "uint256",
							"name": "zombieId",
							"type": "uint256"
						},
						{
							"indexed": false,
							"internalType": "string",
							"name": "name",
							"type": "string"
						},
						{
							"indexed": false,
							"internalType": "uint256",
							"name": "dna",
							"type": "uint256"
						}
					],
					"name": "NewZombie",
					"type": "event"
				},
				{
					"inputs": [
						{
							"internalType": "string",
							"name": "_name",
							"type": "string"
						},
						{
							"internalType": "uint256",
							"name": "_dna",
							"type": "uint256"
						}
					],
					"name": "createZombie",
					"outputs": [],
					"stateMutability": "nonpayable",
					"type": "function"
				},
				{
					"inputs": [
						{
							"internalType": "uint256",
							"name": "_zombieId",
							"type": "uint256"
						},
						{
							"internalType": "uint256",
							"name": "_targetDna",
							"type": "uint256"
						}
					],
					"name": "feedAndMultiply",
					"outputs": [],
					"stateMutability": "nonpayable",
					"type": "function"
				},
				{
					"inputs": [
						{
							"internalType": "string",
							"name": "_name",
							"type": "string"
						}
					],
					"name": "generateRandomZombie",
					"outputs": [],
					"stateMutability": "nonpayable",
					"type": "function"
				},
				{
					"inputs": [
						{
							"internalType": "uint256",
							"name": "",
							"type": "uint256"
						}
					],
					"name": "zombies",
					"outputs": [
						{
							"internalType": "uint256",
							"name": "dna",
							"type": "uint256"
						},
						{
							"internalType": "string",
							"name": "name",
							"type": "string"
						}
					],
					"stateMutability": "view",
					"type": "function"
				}
			],
			"devdoc": {
				"kind": "dev",
				"methods": {},
				"version": 1
			},
			"evm": {
				"assembly": "    /* \"contracts/Zombiefeeding.sol\":64:458  contract ZombieFeeding is ZombieFactory {... */\n  mstore(0x40, 0x80)\n    /* \"contracts/Zombiefactory.sol\":79:81  16 */\n  0x10\n    /* \"contracts/Zombiefactory.sol\":62:81  uint dnaDigits = 16 */\n  0x00\n  sstore\n    /* \"contracts/Zombiefactory.sol\":160:169  dnaDigits */\n  sload(0x00)\n    /* \"contracts/Zombiefactory.sol\":154:156  10 */\n  0x0a\n    /* \"contracts/Zombiefactory.sol\":154:169  10 ** dnaDigits */\n  tag_1\n  swap2\n  swap1\n  tag_2\n  jump\t// in\ntag_1:\n    /* \"contracts/Zombiefactory.sol\":136:169  uint dnaModulus = 10 ** dnaDigits */\n  0x01\n  sstore\n    /* \"contracts/Zombiefeeding.sol\":64:458  contract ZombieFeeding is ZombieFactory {... */\n  callvalue\n  dup1\n  iszero\n  tag_3\n  jumpi\n  0x00\n  dup1\n  revert\ntag_3:\n  pop\n  jump(tag_4)\n    /* \"#utility.yul\":7:855   */\ntag_6:\n    /* \"#utility.yul\":68:73   */\n  0x00\n    /* \"#utility.yul\":75:79   */\n  dup1\n    /* \"#utility.yul\":99:105   */\n  dup3\n    /* \"#utility.yul\":90:105   */\n  swap2\n  pop\n    /* \"#utility.yul\":123:128   */\n  dup4\n    /* \"#utility.yul\":114:128   */\n  swap1\n  pop\n    /* \"#utility.yul\":137:849   */\ntag_8:\n    /* \"#utility.yul\":158:159   */\n  0x01\n    /* \"#utility.yul\":148:156   */\n  dup6\n    /* \"#utility.yul\":145:160   */\n  gt\n    /* \"#utility.yul\":137:849   */\n  iszero\n  tag_10\n  jumpi\n    /* \"#utility.yul\":253:257   */\n  dup1\n    /* \"#utility.yul\":248:251   */\n  dup7\n    /* \"#utility.yul\":244:258   */\n  div\n    /* \"#utility.yul\":238:242   */\n  dup2\n    /* \"#utility.yul\":235:259   */\n  gt\n    /* \"#utility.yul\":232:282   */\n  iszero\n  tag_11\n  jumpi\n    /* \"#utility.yul\":262:280   */\n  tag_12\n  tag_13\n  jump\t// in\ntag_12:\n    /* \"#utility.yul\":232:282   */\ntag_11:\n    /* \"#utility.yul\":312:313   */\n  0x01\n    /* \"#utility.yul\":302:310   */\n  dup6\n    /* \"#utility.yul\":298:314   */\n  and\n    /* \"#utility.yul\":295:746   */\n  iszero\n  tag_14\n  jumpi\n    /* \"#utility.yul\":727:731   */\n  dup1\n    /* \"#utility.yul\":720:725   */\n  dup3\n    /* \"#utility.yul\":716:732   */\n  mul\n    /* \"#utility.yul\":707:732   */\n  swap2\n  pop\n    /* \"#utility.yul\":295:746   */\ntag_14:\n    /* \"#utility.yul\":777:781   */\n  dup1\n    /* \"#utility.yul\":771:775   */\n  dup2\n    /* \"#utility.yul\":767:782   */\n  mul\n    /* \"#utility.yul\":759:782   */\n  swap1\n  pop\n    /* \"#utility.yul\":807:839   */\n  tag_15\n    /* \"#utility.yul\":830:838   */\n  dup6\n    /* \"#utility.yul\":807:839   */\n  tag_16\n  jump\t// in\ntag_15:\n    /* \"#utility.yul\":795:839   */\n  swap5\n  pop\n    /* \"#utility.yul\":137:849   */\n  jump(tag_8)\ntag_10:\n    /* \"#utility.yul\":7:855   */\n  swap5\n  pop\n  swap5\n  swap3\n  pop\n  pop\n  pop\n  jump\t// out\n    /* \"#utility.yul\":861:1146   */\ntag_2:\n    /* \"#utility.yul\":921:926   */\n  0x00\n    /* \"#utility.yul\":945:968   */\n  tag_18\n    /* \"#utility.yul\":963:967   */\n  dup3\n    /* \"#utility.yul\":945:968   */\n  tag_19\n  jump\t// in\ntag_18:\n    /* \"#utility.yul\":937:968   */\n  swap2\n  pop\n    /* \"#utility.yul\":989:1016   */\n  tag_20\n    /* \"#utility.yul\":1007:1015   */\n  dup4\n    /* \"#utility.yul\":989:1016   */\n  tag_19\n  jump\t// in\ntag_20:\n    /* \"#utility.yul\":977:1016   */\n  swap3\n  pop\n    /* \"#utility.yul\":1035:1139   */\n  tag_21\n    /* \"#utility.yul\":1072:1138   */\n  0xffffffffffffffffffffffffffffffffffffffffffffffffffffffffffffffff\n    /* \"#utility.yul\":1062:1070   */\n  dup5\n    /* \"#utility.yul\":1056:1060   */\n  dup5\n    /* \"#utility.yul\":1035:1139   */\n  tag_22\n  jump\t// in\ntag_21:\n    /* \"#utility.yul\":1026:1139   */\n  swap1\n  pop\n    /* \"#utility.yul\":861:1146   */\n  swap3\n  swap2\n  pop\n  pop\n  jump\t// out\n    /* \"#utility.yul\":1152:2225   */\ntag_22:\n    /* \"#utility.yul\":1206:1211   */\n  0x00\n    /* \"#utility.yul\":1397:1405   */\n  dup3\n    /* \"#utility.yul\":1387:1427   */\n  tag_24\n  jumpi\n    /* \"#utility.yul\":1418:1419   */\n  0x01\n    /* \"#utility.yul\":1409:1419   */\n  swap1\n  pop\n    /* \"#utility.yul\":1420:1425   */\n  jump(tag_23)\n    /* \"#utility.yul\":1387:1427   */\ntag_24:\n    /* \"#utility.yul\":1446:1450   */\n  dup2\n    /* \"#utility.yul\":1436:1472   */\n  tag_25\n  jumpi\n    /* \"#utility.yul\":1463:1464   */\n  0x00\n    /* \"#utility.yul\":1454:1464   */\n  swap1\n  pop\n    /* \"#utility.yul\":1465:1470   */\n  jump(tag_23)\n    /* \"#utility.yul\":1436:1472   */\ntag_25:\n    /* \"#utility.yul\":1532:1536   */\n  dup2\n    /* \"#utility.yul\":1580:1581   */\n  0x01\n    /* \"#utility.yul\":1575:1602   */\n  dup2\n  eq\n  tag_27\n  jumpi\n    /* \"#utility.yul\":1616:1617   */\n  0x02\n    /* \"#utility.yul\":1611:1802   */\n  dup2\n  eq\n  tag_28\n  jumpi\n    /* \"#utility.yul\":1525:1802   */\n  jump(tag_26)\n    /* \"#utility.yul\":1575:1602   */\ntag_27:\n    /* \"#utility.yul\":1593:1594   */\n  0x01\n    /* \"#utility.yul\":1584:1594   */\n  swap2\n  pop\n    /* \"#utility.yul\":1595:1600   */\n  pop\n  jump(tag_23)\n    /* \"#utility.yul\":1611:1802   */\ntag_28:\n    /* \"#utility.yul\":1656:1659   */\n  0xff\n    /* \"#utility.yul\":1646:1654   */\n  dup5\n    /* \"#utility.yul\":1643:1660   */\n  gt\n    /* \"#utility.yul\":1640:1683   */\n  iszero\n  tag_29\n  jumpi\n    /* \"#utility.yul\":1663:1681   */\n  tag_30\n  tag_13\n  jump\t// in\ntag_30:\n    /* \"#utility.yul\":1640:1683   */\ntag_29:\n    /* \"#utility.yul\":1712:1720   */\n  dup4\n    /* \"#utility.yul\":1709:1710   */\n  0x02\n    /* \"#utility.yul\":1705:1721   */\n  exp\n    /* \"#utility.yul\":1696:1721   */\n  swap2\n  pop\n    /* \"#utility.yul\":1747:1750   */\n  dup5\n    /* \"#utility.yul\":1740:1745   */\n  dup3\n    /* \"#utility.yul\":1737:1751   */\n  gt\n    /* \"#utility.yul\":1734:1774   */\n  iszero\n  tag_31\n  jumpi\n    /* \"#utility.yul\":1754:1772   */\n  tag_32\n  tag_13\n  jump\t// in\ntag_32:\n    /* \"#utility.yul\":1734:1774   */\ntag_31:\n    /* \"#utility.yul\":1787:1792   */\n  pop\n  jump(tag_23)\n    /* \"#utility.yul\":1525:1802   */\ntag_26:\n  pop\n    /* \"#utility.yul\":1911:1913   */\n  0x20\n    /* \"#utility.yul\":1901:1909   */\n  dup4\n    /* \"#utility.yul\":1898:1914   */\n  lt\n    /* \"#utility.yul\":1892:1895   */\n  0x0133\n    /* \"#utility.yul\":1886:1890   */\n  dup4\n    /* \"#utility.yul\":1883:1896   */\n  lt\n    /* \"#utility.yul\":1879:1915   */\n  and\n    /* \"#utility.yul\":1861:1863   */\n  0x4e\n    /* \"#utility.yul\":1851:1859   */\n  dup5\n    /* \"#utility.yul\":1848:1864   */\n  lt\n    /* \"#utility.yul\":1843:1845   */\n  0x0b\n    /* \"#utility.yul\":1837:1841   */\n  dup5\n    /* \"#utility.yul\":1834:1846   */\n  lt\n    /* \"#utility.yul\":1830:1865   */\n  and\n    /* \"#utility.yul\":1814:1925   */\n  or\n    /* \"#utility.yul\":1811:2057   */\n  iszero\n  tag_33\n  jumpi\n    /* \"#utility.yul\":1967:1975   */\n  dup3\n    /* \"#utility.yul\":1961:1965   */\n  dup3\n    /* \"#utility.yul\":1957:1976   */\n  exp\n    /* \"#utility.yul\":1948:1976   */\n  swap1\n  pop\n    /* \"#utility.yul\":2002:2005   */\n  dup4\n    /* \"#utility.yul\":1995:2000   */\n  dup2\n    /* \"#utility.yul\":1992:2006   */\n  gt\n    /* \"#utility.yul\":1989:2029   */\n  iszero\n  tag_34\n  jumpi\n    /* \"#utility.yul\":2009:2027   */\n  tag_35\n  tag_13\n  jump\t// in\ntag_35:\n    /* \"#utility.yul\":1989:2029   */\ntag_34:\n    /* \"#utility.yul\":2042:2047   */\n  jump(tag_23)\n    /* \"#utility.yul\":1811:2057   */\ntag_33:\n    /* \"#utility.yul\":2082:2124   */\n  tag_36\n    /* \"#utility.yul\":2120:2123   */\n  dup5\n    /* \"#utility.yul\":2110:2118   */\n  dup5\n    /* \"#utility.yul\":2104:2108   */\n  dup5\n    /* \"#utility.yul\":2101:2102   */\n  0x01\n    /* \"#utility.yul\":2082:2124   */\n  tag_6\n  jump\t// in\ntag_36:\n    /* \"#utility.yul\":2067:2124   */\n  swap3\n  pop\n  swap1\n  pop\n    /* \"#utility.yul\":2156:2160   */\n  dup2\n    /* \"#utility.yul\":2151:2154   */\n  dup5\n    /* \"#utility.yul\":2147:2161   */\n  div\n    /* \"#utility.yul\":2140:2145   */\n  dup2\n    /* \"#utility.yul\":2137:2162   */\n  gt\n    /* \"#utility.yul\":2134:2185   */\n  iszero\n  tag_37\n  jumpi\n    /* \"#utility.yul\":2165:2183   */\n  tag_38\n  tag_13\n  jump\t// in\ntag_38:\n    /* \"#utility.yul\":2134:2185   */\ntag_37:\n    /* \"#utility.yul\":2214:2218   */\n  dup2\n    /* \"#utility.yul\":2207:2212   */\n  dup2\n    /* \"#utility.yul\":2203:2219   */\n  mul\n    /* \"#utility.yul\":2194:2219   */\n  swap1\n  pop\n    /* \"#utility.yul\":1152:2225   */\ntag_23:\n  swap4\n  swap3\n  pop\n  pop\n  pop\n  jump\t// out\n    /* \"#utility.yul\":2231:2308   */\ntag_19:\n    /* \"#utility.yul\":2268:2275   */\n  0x00\n    /* \"#utility.yul\":2297:2302   */\n  dup2\n    /* \"#utility.yul\":2286:2302   */\n  swap1\n  pop\n    /* \"#utility.yul\":2231:2308   */\n  swap2\n  swap1\n  pop\n  jump\t// out\n    /* \"#utility.yul\":2314:2494   */\ntag_13:\n    /* \"#utility.yul\":2362:2439   */\n  0x4e487b7100000000000000000000000000000000000000000000000000000000\n    /* \"#utility.yul\":2359:2360   */\n  0x00\n    /* \"#utility.yul\":2352:2440   */\n  mstore\n    /* \"#utility.yul\":2459:2463   */\n  0x11\n    /* \"#utility.yul\":2456:2457   */\n  0x04\n    /* \"#utility.yul\":2449:2464   */\n  mstore\n    /* \"#utility.yul\":2483:2487   */\n  0x24\n    /* \"#utility.yul\":2480:2481   */\n  0x00\n    /* \"#utility.yul\":2473:2488   */\n  revert\n    /* \"#utility.yul\":2500:2602   */\ntag_16:\n    /* \"#utility.yul\":2542:2550   */\n  0x00\n    /* \"#utility.yul\":2589:2594   */\n  dup2\n    /* \"#utility.yul\":2586:2587   */\n  0x01\n    /* \"#utility.yul\":2582:2595   */\n  shr\n    /* \"#utility.yul\":2561:2595   */\n  swap1\n  pop\n    /* \"#utility.yul\":2500:2602   */\n  swap2\n  swap1\n  pop\n  jump\t// out\n    /* \"contracts/Zombiefeeding.sol\":64:458  contract ZombieFeeding is ZombieFactory {... */\ntag_4:\n  dataSize(sub_0)\n  dup1\n  dataOffset(sub_0)\n  0x00\n  codecopy\n  0x00\n  return\nstop\n\nsub_0: assembly {\n        /* \"contracts/Zombiefeeding.sol\":64:458  contract ZombieFeeding is ZombieFactory {... */\n      mstore(0x40, 0x80)\n      callvalue\n      dup1\n      iszero\n      tag_1\n      jumpi\n      0x00\n      dup1\n      revert\n    tag_1:\n      pop\n      jumpi(tag_2, lt(calldatasize, 0x04))\n      shr(0xe0, calldataload(0x00))\n      dup1\n      0x09639373\n      eq\n      tag_3\n      jumpi\n      dup1\n      0x0dedffb8\n      eq\n      tag_4\n      jumpi\n      dup1\n      0x2052465e\n      eq\n      tag_5\n      jumpi\n      dup1\n      0xc6f15112\n      eq\n      tag_6\n      jumpi\n    tag_2:\n      0x00\n      dup1\n      revert\n        /* \"contracts/Zombiefactory.sol\":1124:1228  function createZombie(string memory _name, uint _dna) public {... */\n    tag_3:\n      tag_7\n      0x04\n      dup1\n      calldatasize\n      sub\n      dup2\n      add\n      swap1\n      tag_8\n      swap2\n      swap1\n      tag_9\n      jump\t// in\n    tag_8:\n      tag_10\n      jump\t// in\n    tag_7:\n      stop\n        /* \"contracts/Zombiefeeding.sol\":110:456  function feedAndMultiply(uint _zombieId, uint _targetDna) public {... */\n    tag_4:\n      tag_11\n      0x04\n      dup1\n      calldatasize\n      sub\n      dup2\n      add\n      swap1\n      tag_12\n      swap2\n      swap1\n      tag_13\n      jump\t// in\n    tag_12:\n      tag_14\n      jump\t// in\n    tag_11:\n      stop\n        /* \"contracts/Zombiefactory.sol\":378:401  Zombie[] public zombies */\n    tag_5:\n      tag_15\n      0x04\n      dup1\n      calldatasize\n      sub\n      dup2\n      add\n      swap1\n      tag_16\n      swap2\n      swap1\n      tag_17\n      jump\t// in\n    tag_16:\n      tag_18\n      jump\t// in\n    tag_15:\n      mload(0x40)\n      tag_19\n      swap3\n      swap2\n      swap1\n      tag_20\n      jump\t// in\n    tag_19:\n      mload(0x40)\n      dup1\n      swap2\n      sub\n      swap1\n      return\n        /* \"contracts/Zombiefactory.sol\":1525:1733  function generateRandomZombie(string memory _name) public {... */\n    tag_6:\n      tag_21\n      0x04\n      dup1\n      calldatasize\n      sub\n      dup2\n      add\n      swap1\n      tag_22\n      swap2\n      swap1\n      tag_23\n      jump\t// in\n    tag_22:\n      tag_24\n      jump\t// in\n    tag_21:\n      stop\n        /* \"contracts/Zombiefactory.sol\":1124:1228  function createZombie(string memory _name, uint _dna) public {... */\n    tag_10:\n        /* \"contracts/Zombiefactory.sol\":1195:1221  _createZombie(_name, _dna) */\n      tag_26\n        /* \"contracts/Zombiefactory.sol\":1209:1214  _name */\n      dup3\n        /* \"contracts/Zombiefactory.sol\":1216:1220  _dna */\n      dup3\n        /* \"contracts/Zombiefactory.sol\":1195:1208  _createZombie */\n      tag_27\n        /* \"contracts/Zombiefactory.sol\":1195:1221  _createZombie(_name, _dna) */\n      jump\t// in\n    tag_26:\n        /* \"contracts/Zombiefactory.sol\":1124:1228  function createZombie(string memory _name, uint _dna) public {... */\n      pop\n      pop\n      jump\t// out\n        /* \"contracts/Zombiefeeding.sol\":110:456  function feedAndMultiply(uint _zombieId, uint _targetDna) public {... */\n    tag_14:\n        /* \"contracts/Zombiefeeding.sol\":225:226  0 */\n      0x00\n        /* \"contracts/Zombiefeeding.sol\":193:209  ownerZombieCount */\n      0x04\n        /* \"contracts/Zombiefeeding.sol\":193:221  ownerZombieCount[msg.sender] */\n      0x00\n        /* \"contracts/Zombiefeeding.sol\":210:220  msg.sender */\n      caller\n        /* \"contracts/Zombiefeeding.sol\":193:221  ownerZombieCount[msg.sender] */\n      0xffffffffffffffffffffffffffffffffffffffff\n      and\n      0xffffffffffffffffffffffffffffffffffffffff\n      and\n      dup2\n      mstore\n      0x20\n      add\n      swap1\n      dup2\n      mstore\n      0x20\n      add\n      0x00\n      keccak256\n      sload\n        /* \"contracts/Zombiefeeding.sol\":193:226  ownerZombieCount[msg.sender] == 0 */\n      eq\n        /* \"contracts/Zombiefeeding.sol\":185:227  require(ownerZombieCount[msg.sender] == 0) */\n      tag_29\n      jumpi\n      0x00\n      dup1\n      revert\n    tag_29:\n        /* \"contracts/Zombiefeeding.sol\":264:287  Zombie storage myZombie */\n      0x00\n        /* \"contracts/Zombiefeeding.sol\":290:297  zombies */\n      0x02\n        /* \"contracts/Zombiefeeding.sol\":298:307  _zombieId */\n      dup4\n        /* \"contracts/Zombiefeeding.sol\":290:308  zombies[_zombieId] */\n      dup2\n      sload\n      dup2\n      lt\n      tag_30\n      jumpi\n      tag_31\n      tag_32\n      jump\t// in\n    tag_31:\n    tag_30:\n      swap1\n      0x00\n      mstore\n      keccak256(0x00, 0x20)\n      swap1\n      0x02\n      mul\n      add\n        /* \"contracts/Zombiefeeding.sol\":264:308  Zombie storage myZombie = zombies[_zombieId] */\n      swap1\n      pop\n        /* \"contracts/Zombiefeeding.sol\":344:354  dnaModulus */\n      sload(0x01)\n        /* \"contracts/Zombiefeeding.sol\":331:341  _targetDna */\n      dup3\n        /* \"contracts/Zombiefeeding.sol\":331:354  _targetDna % dnaModulus */\n      tag_34\n      swap2\n      swap1\n      tag_35\n      jump\t// in\n    tag_34:\n        /* \"contracts/Zombiefeeding.sol\":318:354  _targetDna = _targetDna % dnaModulus */\n      swap2\n      pop\n        /* \"contracts/Zombiefeeding.sol\":364:375  uint newDna */\n      0x00\n        /* \"contracts/Zombiefeeding.sol\":408:409  2 */\n      0x02\n        /* \"contracts/Zombiefeeding.sol\":392:400  myZombie */\n      dup3\n        /* \"contracts/Zombiefeeding.sol\":392:404  myZombie.dna */\n      0x00\n      add\n      sload\n        /* \"contracts/Zombiefeeding.sol\":379:389  _targetDna */\n      dup5\n        /* \"contracts/Zombiefeeding.sol\":379:404  _targetDna + myZombie.dna */\n      tag_36\n      swap2\n      swap1\n      tag_37\n      jump\t// in\n    tag_36:\n        /* \"contracts/Zombiefeeding.sol\":378:409  (_targetDna + myZombie.dna) / 2 */\n      tag_38\n      swap2\n      swap1\n      tag_39\n      jump\t// in\n    tag_38:\n        /* \"contracts/Zombiefeeding.sol\":364:409  uint newDna = (_targetDna + myZombie.dna) / 2 */\n      swap1\n      pop\n        /* \"contracts/Zombiefeeding.sol\":419:449  createZombie(\"NoName\", newDna) */\n      tag_40\n      mload(0x40)\n      dup1\n      0x40\n      add\n      0x40\n      mstore\n      dup1\n      0x06\n      dup2\n      mstore\n      0x20\n      add\n      0x4e6f4e616d650000000000000000000000000000000000000000000000000000\n      dup2\n      mstore\n      pop\n        /* \"contracts/Zombiefeeding.sol\":442:448  newDna */\n      dup3\n        /* \"contracts/Zombiefeeding.sol\":419:431  createZombie */\n      tag_10\n        /* \"contracts/Zombiefeeding.sol\":419:449  createZombie(\"NoName\", newDna) */\n      jump\t// in\n    tag_40:\n        /* \"contracts/Zombiefeeding.sol\":175:456  {... */\n      pop\n      pop\n        /* \"contracts/Zombiefeeding.sol\":110:456  function feedAndMultiply(uint _zombieId, uint _targetDna) public {... */\n      pop\n      pop\n      jump\t// out\n        /* \"contracts/Zombiefactory.sol\":378:401  Zombie[] public zombies */\n    tag_18:\n      0x02\n      dup2\n      dup2\n      sload\n      dup2\n      lt\n      tag_41\n      jumpi\n      0x00\n      dup1\n      revert\n    tag_41:\n      swap1\n      0x00\n      mstore\n      keccak256(0x00, 0x20)\n      swap1\n      0x02\n      mul\n      add\n      0x00\n      swap2\n      pop\n      swap1\n      pop\n      dup1\n      0x00\n      add\n      sload\n      swap1\n      dup1\n      0x01\n      add\n      dup1\n      sload\n      tag_43\n      swap1\n      tag_44\n      jump\t// in\n    tag_43:\n      dup1\n      0x1f\n      add\n      0x20\n      dup1\n      swap2\n      div\n      mul\n      0x20\n      add\n      mload(0x40)\n      swap1\n      dup2\n      add\n      0x40\n      mstore\n      dup1\n      swap3\n      swap2\n      swap1\n      dup2\n      dup2\n      mstore\n      0x20\n      add\n      dup3\n      dup1\n      sload\n      tag_45\n      swap1\n      tag_44\n      jump\t// in\n    tag_45:\n      dup1\n      iszero\n      tag_46\n      jumpi\n      dup1\n      0x1f\n      lt\n      tag_47\n      jumpi\n      0x0100\n      dup1\n      dup4\n      sload\n      div\n      mul\n      dup4\n      mstore\n      swap2\n      0x20\n      add\n      swap2\n      jump(tag_46)\n    tag_47:\n      dup3\n      add\n      swap2\n      swap1\n      0x00\n      mstore\n      keccak256(0x00, 0x20)\n      swap1\n    tag_48:\n      dup2\n      sload\n      dup2\n      mstore\n      swap1\n      0x01\n      add\n      swap1\n      0x20\n      add\n      dup1\n      dup4\n      gt\n      tag_48\n      jumpi\n      dup3\n      swap1\n      sub\n      0x1f\n      and\n      dup3\n      add\n      swap2\n    tag_46:\n      pop\n      pop\n      pop\n      pop\n      pop\n      swap1\n      pop\n      dup3\n      jump\t// out\n        /* \"contracts/Zombiefactory.sol\":1525:1733  function generateRandomZombie(string memory _name) public {... */\n    tag_24:\n        /* \"contracts/Zombiefactory.sol\":1633:1634  0 */\n      0x00\n        /* \"contracts/Zombiefactory.sol\":1601:1617  ownerZombieCount */\n      0x04\n        /* \"contracts/Zombiefactory.sol\":1601:1629  ownerZombieCount[msg.sender] */\n      0x00\n        /* \"contracts/Zombiefactory.sol\":1618:1628  msg.sender */\n      caller\n        /* \"contracts/Zombiefactory.sol\":1601:1629  ownerZombieCount[msg.sender] */\n      0xffffffffffffffffffffffffffffffffffffffff\n      and\n      0xffffffffffffffffffffffffffffffffffffffff\n      and\n      dup2\n      mstore\n      0x20\n      add\n      swap1\n      dup2\n      mstore\n      0x20\n      add\n      0x00\n      keccak256\n      sload\n        /* \"contracts/Zombiefactory.sol\":1601:1634  ownerZombieCount[msg.sender] == 0 */\n      eq\n        /* \"contracts/Zombiefactory.sol\":1593:1635  require(ownerZombieCount[msg.sender] == 0) */\n      tag_50\n      jumpi\n      0x00\n      dup1\n      revert\n    tag_50:\n        /* \"contracts/Zombiefactory.sol\":1647:1659  uint randDna */\n      0x00\n        /* \"contracts/Zombiefactory.sol\":1662:1687  _generateRandomDna(_name) */\n      tag_51\n        /* \"contracts/Zombiefactory.sol\":1681:1686  _name */\n      dup3\n        /* \"contracts/Zombiefactory.sol\":1662:1680  _generateRandomDna */\n      tag_52\n        /* \"contracts/Zombiefactory.sol\":1662:1687  _generateRandomDna(_name) */\n      jump\t// in\n    tag_51:\n        /* \"contracts/Zombiefactory.sol\":1647:1687  uint randDna = _generateRandomDna(_name) */\n      swap1\n      pop\n        /* \"contracts/Zombiefactory.sol\":1697:1726  _createZombie(_name, randDna) */\n      tag_53\n        /* \"contracts/Zombiefactory.sol\":1711:1716  _name */\n      dup3\n        /* \"contracts/Zombiefactory.sol\":1718:1725  randDna */\n      dup3\n        /* \"contracts/Zombiefactory.sol\":1697:1710  _createZombie */\n      tag_27\n        /* \"contracts/Zombiefactory.sol\":1697:1726  _createZombie(_name, randDna) */\n      jump\t// in\n    tag_53:\n        /* \"contracts/Zombiefactory.sol\":1583:1733  {... */\n      pop\n        /* \"contracts/Zombiefactory.sol\":1525:1733  function generateRandomZombie(string memory _name) public {... */\n      pop\n      jump\t// out\n        /* \"contracts/Zombiefactory.sol\":852:1118  function _createZombie(string memory _name, uint _dna) private {... */\n    tag_27:\n        /* \"contracts/Zombiefactory.sol\":925:932  zombies */\n      0x02\n        /* \"contracts/Zombiefactory.sol\":938:957  Zombie(_dna, _name) */\n      mload(0x40)\n      dup1\n      0x40\n      add\n      0x40\n      mstore\n      dup1\n        /* \"contracts/Zombiefactory.sol\":945:949  _dna */\n      dup4\n        /* \"contracts/Zombiefactory.sol\":938:957  Zombie(_dna, _name) */\n      dup2\n      mstore\n      0x20\n      add\n        /* \"contracts/Zombiefactory.sol\":951:956  _name */\n      dup5\n        /* \"contracts/Zombiefactory.sol\":938:957  Zombie(_dna, _name) */\n      dup2\n      mstore\n      pop\n        /* \"contracts/Zombiefactory.sol\":925:958  zombies.push(Zombie(_dna, _name)) */\n      swap1\n      dup1\n      0x01\n      dup2\n      sload\n      add\n      dup1\n      dup3\n      sstore\n      dup1\n      swap2\n      pop\n      pop\n      0x01\n      swap1\n      sub\n      swap1\n      0x00\n      mstore\n      keccak256(0x00, 0x20)\n      swap1\n      0x02\n      mul\n      add\n      0x00\n      swap1\n      swap2\n      swap1\n      swap2\n      swap1\n      swap2\n      pop\n      0x00\n      dup3\n      add\n      mload\n      dup2\n      0x00\n      add\n      sstore\n      0x20\n      dup3\n      add\n      mload\n      dup2\n      0x01\n      add\n      swap1\n      dup1\n      mload\n      swap1\n      0x20\n      add\n      swap1\n      tag_56\n      swap3\n      swap2\n      swap1\n      tag_57\n      jump\t// in\n    tag_56:\n      pop\n      pop\n      pop\n        /* \"contracts/Zombiefactory.sol\":1004:1014  msg.sender */\n      caller\n        /* \"contracts/Zombiefactory.sol\":968:981  zombieToOwner */\n      0x03\n        /* \"contracts/Zombiefactory.sol\":968:1001  zombieToOwner[zombies.length - 1] */\n      0x00\n        /* \"contracts/Zombiefactory.sol\":999:1000  1 */\n      0x01\n        /* \"contracts/Zombiefactory.sol\":982:989  zombies */\n      0x02\n        /* \"contracts/Zombiefactory.sol\":982:996  zombies.length */\n      dup1\n      sload\n      swap1\n      pop\n        /* \"contracts/Zombiefactory.sol\":982:1000  zombies.length - 1 */\n      tag_58\n      swap2\n      swap1\n      tag_59\n      jump\t// in\n    tag_58:\n        /* \"contracts/Zombiefactory.sol\":968:1001  zombieToOwner[zombies.length - 1] */\n      dup2\n      mstore\n      0x20\n      add\n      swap1\n      dup2\n      mstore\n      0x20\n      add\n      0x00\n      keccak256\n      0x00\n        /* \"contracts/Zombiefactory.sol\":968:1014  zombieToOwner[zombies.length - 1] = msg.sender */\n      0x0100\n      exp\n      dup2\n      sload\n      dup2\n      0xffffffffffffffffffffffffffffffffffffffff\n      mul\n      not\n      and\n      swap1\n      dup4\n      0xffffffffffffffffffffffffffffffffffffffff\n      and\n      mul\n      or\n      swap1\n      sstore\n      pop\n        /* \"contracts/Zombiefactory.sol\":1024:1040  ownerZombieCount */\n      0x04\n        /* \"contracts/Zombiefactory.sol\":1024:1052  ownerZombieCount[msg.sender] */\n      0x00\n        /* \"contracts/Zombiefactory.sol\":1041:1051  msg.sender */\n      caller\n        /* \"contracts/Zombiefactory.sol\":1024:1052  ownerZombieCount[msg.sender] */\n      0xffffffffffffffffffffffffffffffffffffffff\n      and\n      0xffffffffffffffffffffffffffffffffffffffff\n      and\n      dup2\n      mstore\n      0x20\n      add\n      swap1\n      dup2\n      mstore\n      0x20\n      add\n      0x00\n      keccak256\n      0x00\n        /* \"contracts/Zombiefactory.sol\":1024:1054  ownerZombieCount[msg.sender]++ */\n      dup2\n      sload\n      dup1\n      swap3\n      swap2\n      swap1\n      tag_60\n      swap1\n      tag_61\n      jump\t// in\n    tag_60:\n      swap2\n      swap1\n      pop\n      sstore\n      pop\n        /* \"contracts/Zombiefactory.sol\":1069:1111  NewZombie(zombies.length - 1, _name, _dna) */\n      0x88f026aacbbecc90c18411df4b1185fd8d9be2470f1962f192bf84a27d0704b7\n        /* \"contracts/Zombiefactory.sol\":1096:1097  1 */\n      0x01\n        /* \"contracts/Zombiefactory.sol\":1079:1086  zombies */\n      0x02\n        /* \"contracts/Zombiefactory.sol\":1079:1093  zombies.length */\n      dup1\n      sload\n      swap1\n      pop\n        /* \"contracts/Zombiefactory.sol\":1079:1097  zombies.length - 1 */\n      tag_62\n      swap2\n      swap1\n      tag_59\n      jump\t// in\n    tag_62:\n        /* \"contracts/Zombiefactory.sol\":1099:1104  _name */\n      dup4\n        /* \"contracts/Zombiefactory.sol\":1106:1110  _dna */\n      dup4\n        /* \"contracts/Zombiefactory.sol\":1069:1111  NewZombie(zombies.length - 1, _name, _dna) */\n      mload(0x40)\n      tag_63\n      swap4\n      swap3\n      swap2\n      swap1\n      tag_64\n      jump\t// in\n    tag_63:\n      mload(0x40)\n      dup1\n      swap2\n      sub\n      swap1\n      log1\n        /* \"contracts/Zombiefactory.sol\":852:1118  function _createZombie(string memory _name, uint _dna) private {... */\n      pop\n      pop\n      jump\t// out\n        /* \"contracts/Zombiefactory.sol\":1339:1519  function _generateRandomDna(string memory _str) private view returns (uint) {... */\n    tag_52:\n        /* \"contracts/Zombiefactory.sol\":1409:1413  uint */\n      0x00\n        /* \"contracts/Zombiefactory.sol\":1425:1434  uint rand */\n      dup1\n        /* \"contracts/Zombiefactory.sol\":1471:1475  _str */\n      dup3\n        /* \"contracts/Zombiefactory.sol\":1454:1476  abi.encodePacked(_str) */\n      add(0x20, mload(0x40))\n      tag_66\n      swap2\n      swap1\n      tag_67\n      jump\t// in\n    tag_66:\n      mload(0x40)\n      0x20\n      dup2\n      dup4\n      sub\n      sub\n      dup2\n      mstore\n      swap1\n      0x40\n      mstore\n        /* \"contracts/Zombiefactory.sol\":1444:1477  keccak256(abi.encodePacked(_str)) */\n      dup1\n      mload\n      swap1\n      0x20\n      add\n      keccak256\n        /* \"contracts/Zombiefactory.sol\":1439:1478  uint(keccak256(abi.encodePacked(_str))) */\n      0x00\n      shr\n        /* \"contracts/Zombiefactory.sol\":1425:1478  uint rand  =  uint(keccak256(abi.encodePacked(_str))) */\n      swap1\n      pop\n        /* \"contracts/Zombiefactory.sol\":1502:1512  dnaModulus */\n      sload(0x01)\n        /* \"contracts/Zombiefactory.sol\":1495:1499  rand */\n      dup2\n        /* \"contracts/Zombiefactory.sol\":1495:1512  rand % dnaModulus */\n      tag_68\n      swap2\n      swap1\n      tag_35\n      jump\t// in\n    tag_68:\n        /* \"contracts/Zombiefactory.sol\":1488:1512  return rand % dnaModulus */\n      swap2\n      pop\n      pop\n        /* \"contracts/Zombiefactory.sol\":1339:1519  function _generateRandomDna(string memory _str) private view returns (uint) {... */\n      swap2\n      swap1\n      pop\n      jump\t// out\n    tag_57:\n      dup3\n      dup1\n      sload\n      tag_69\n      swap1\n      tag_44\n      jump\t// in\n    tag_69:\n      swap1\n      0x00\n      mstore\n      keccak256(0x00, 0x20)\n      swap1\n      0x1f\n      add\n      0x20\n      swap1\n      div\n      dup2\n      add\n      swap3\n      dup3\n      tag_71\n      jumpi\n      0x00\n      dup6\n      sstore\n      jump(tag_70)\n    tag_71:\n      dup3\n      0x1f\n      lt\n      tag_72\n      jumpi\n      dup1\n      mload\n      not(0xff)\n      and\n      dup4\n      dup1\n      add\n      or\n      dup6\n      sstore\n      jump(tag_70)\n    tag_72:\n      dup3\n      dup1\n      add\n      0x01\n      add\n      dup6\n      sstore\n      dup3\n      iszero\n      tag_70\n      jumpi\n      swap2\n      dup3\n      add\n    tag_73:\n      dup3\n      dup2\n      gt\n      iszero\n      tag_74\n      jumpi\n      dup3\n      mload\n      dup3\n      sstore\n      swap2\n      0x20\n      add\n      swap2\n      swap1\n      0x01\n      add\n      swap1\n      jump(tag_73)\n    tag_74:\n    tag_70:\n      pop\n      swap1\n      pop\n      tag_75\n      swap2\n      swap1\n      tag_76\n      jump\t// in\n    tag_75:\n      pop\n      swap1\n      jump\t// out\n    tag_76:\n    tag_77:\n      dup1\n      dup3\n      gt\n      iszero\n      tag_78\n      jumpi\n      0x00\n      dup2\n      0x00\n      swap1\n      sstore\n      pop\n      0x01\n      add\n      jump(tag_77)\n    tag_78:\n      pop\n      swap1\n      jump\t// out\n        /* \"#utility.yul\":7:419   */\n    tag_80:\n        /* \"#utility.yul\":85:90   */\n      0x00\n        /* \"#utility.yul\":110:176   */\n      tag_82\n        /* \"#utility.yul\":126:175   */\n      tag_83\n        /* \"#utility.yul\":168:174   */\n      dup5\n        /* \"#utility.yul\":126:175   */\n      tag_84\n      jump\t// in\n    tag_83:\n        /* \"#utility.yul\":110:176   */\n      tag_85\n      jump\t// in\n    tag_82:\n        /* \"#utility.yul\":101:176   */\n      swap1\n      pop\n        /* \"#utility.yul\":199:205   */\n      dup3\n        /* \"#utility.yul\":192:197   */\n      dup2\n        /* \"#utility.yul\":185:206   */\n      mstore\n        /* \"#utility.yul\":237:241   */\n      0x20\n        /* \"#utility.yul\":230:235   */\n      dup2\n        /* \"#utility.yul\":226:242   */\n      add\n        /* \"#utility.yul\":275:278   */\n      dup5\n        /* \"#utility.yul\":266:272   */\n      dup5\n        /* \"#utility.yul\":261:264   */\n      dup5\n        /* \"#utility.yul\":257:273   */\n      add\n        /* \"#utility.yul\":254:279   */\n      gt\n        /* \"#utility.yul\":251:363   */\n      iszero\n      tag_86\n      jumpi\n        /* \"#utility.yul\":282:361   */\n      tag_87\n      tag_88\n      jump\t// in\n    tag_87:\n        /* \"#utility.yul\":251:363   */\n    tag_86:\n        /* \"#utility.yul\":372:413   */\n      tag_89\n        /* \"#utility.yul\":406:412   */\n      dup5\n        /* \"#utility.yul\":401:404   */\n      dup3\n        /* \"#utility.yul\":396:399   */\n      dup6\n        /* \"#utility.yul\":372:413   */\n      tag_90\n      jump\t// in\n    tag_89:\n        /* \"#utility.yul\":91:419   */\n      pop\n        /* \"#utility.yul\":7:419   */\n      swap4\n      swap3\n      pop\n      pop\n      pop\n      jump\t// out\n        /* \"#utility.yul\":439:779   */\n    tag_91:\n        /* \"#utility.yul\":495:500   */\n      0x00\n        /* \"#utility.yul\":544:547   */\n      dup3\n        /* \"#utility.yul\":537:541   */\n      0x1f\n        /* \"#utility.yul\":529:535   */\n      dup4\n        /* \"#utility.yul\":525:542   */\n      add\n        /* \"#utility.yul\":521:548   */\n      slt\n        /* \"#utility.yul\":511:633   */\n      tag_93\n      jumpi\n        /* \"#utility.yul\":552:631   */\n      tag_94\n      tag_95\n      jump\t// in\n    tag_94:\n        /* \"#utility.yul\":511:633   */\n    tag_93:\n        /* \"#utility.yul\":669:675   */\n      dup2\n        /* \"#utility.yul\":656:676   */\n      calldataload\n        /* \"#utility.yul\":694:773   */\n      tag_96\n        /* \"#utility.yul\":769:772   */\n      dup5\n        /* \"#utility.yul\":761:767   */\n      dup3\n        /* \"#utility.yul\":754:758   */\n      0x20\n        /* \"#utility.yul\":746:752   */\n      dup7\n        /* \"#utility.yul\":742:759   */\n      add\n        /* \"#utility.yul\":694:773   */\n      tag_80\n      jump\t// in\n    tag_96:\n        /* \"#utility.yul\":685:773   */\n      swap2\n      pop\n        /* \"#utility.yul\":501:779   */\n      pop\n        /* \"#utility.yul\":439:779   */\n      swap3\n      swap2\n      pop\n      pop\n      jump\t// out\n        /* \"#utility.yul\":785:924   */\n    tag_97:\n        /* \"#utility.yul\":831:836   */\n      0x00\n        /* \"#utility.yul\":869:875   */\n      dup2\n        /* \"#utility.yul\":856:876   */\n      calldataload\n        /* \"#utility.yul\":847:876   */\n      swap1\n      pop\n        /* \"#utility.yul\":885:918   */\n      tag_99\n        /* \"#utility.yul\":912:917   */\n      dup2\n        /* \"#utility.yul\":885:918   */\n      tag_100\n      jump\t// in\n    tag_99:\n        /* \"#utility.yul\":785:924   */\n      swap3\n      swap2\n      pop\n      pop\n      jump\t// out\n        /* \"#utility.yul\":930:1439   */\n    tag_23:\n        /* \"#utility.yul\":999:1005   */\n      0x00\n        /* \"#utility.yul\":1048:1050   */\n      0x20\n        /* \"#utility.yul\":1036:1045   */\n      dup3\n        /* \"#utility.yul\":1027:1034   */\n      dup5\n        /* \"#utility.yul\":1023:1046   */\n      sub\n        /* \"#utility.yul\":1019:1051   */\n      slt\n        /* \"#utility.yul\":1016:1135   */\n      iszero\n      tag_102\n      jumpi\n        /* \"#utility.yul\":1054:1133   */\n      tag_103\n      tag_104\n      jump\t// in\n    tag_103:\n        /* \"#utility.yul\":1016:1135   */\n    tag_102:\n        /* \"#utility.yul\":1202:1203   */\n      0x00\n        /* \"#utility.yul\":1191:1200   */\n      dup3\n        /* \"#utility.yul\":1187:1204   */\n      add\n        /* \"#utility.yul\":1174:1205   */\n      calldataload\n        /* \"#utility.yul\":1232:1250   */\n      0xffffffffffffffff\n        /* \"#utility.yul\":1224:1230   */\n      dup2\n        /* \"#utility.yul\":1221:1251   */\n      gt\n        /* \"#utility.yul\":1218:1335   */\n      iszero\n      tag_105\n      jumpi\n        /* \"#utility.yul\":1254:1333   */\n      tag_106\n      tag_107\n      jump\t// in\n    tag_106:\n        /* \"#utility.yul\":1218:1335   */\n    tag_105:\n        /* \"#utility.yul\":1359:1422   */\n      tag_108\n        /* \"#utility.yul\":1414:1421   */\n      dup5\n        /* \"#utility.yul\":1405:1411   */\n      dup3\n        /* \"#utility.yul\":1394:1403   */\n      dup6\n        /* \"#utility.yul\":1390:1412   */\n      add\n        /* \"#utility.yul\":1359:1422   */\n      tag_91\n      jump\t// in\n    tag_108:\n        /* \"#utility.yul\":1349:1422   */\n      swap2\n      pop\n        /* \"#utility.yul\":1145:1432   */\n      pop\n        /* \"#utility.yul\":930:1439   */\n      swap3\n      swap2\n      pop\n      pop\n      jump\t// out\n        /* \"#utility.yul\":1445:2099   */\n    tag_9:\n        /* \"#utility.yul\":1523:1529   */\n      0x00\n        /* \"#utility.yul\":1531:1537   */\n      dup1\n        /* \"#utility.yul\":1580:1582   */\n      0x40\n        /* \"#utility.yul\":1568:1577   */\n      dup4\n        /* \"#utility.yul\":1559:1566   */\n      dup6\n        /* \"#utility.yul\":1555:1578   */\n      sub\n        /* \"#utility.yul\":1551:1583   */\n      slt\n        /* \"#utility.yul\":1548:1667   */\n      iszero\n      tag_110\n      jumpi\n        /* \"#utility.yul\":1586:1665   */\n      tag_111\n      tag_104\n      jump\t// in\n    tag_111:\n        /* \"#utility.yul\":1548:1667   */\n    tag_110:\n        /* \"#utility.yul\":1734:1735   */\n      0x00\n        /* \"#utility.yul\":1723:1732   */\n      dup4\n        /* \"#utility.yul\":1719:1736   */\n      add\n        /* \"#utility.yul\":1706:1737   */\n      calldataload\n        /* \"#utility.yul\":1764:1782   */\n      0xffffffffffffffff\n        /* \"#utility.yul\":1756:1762   */\n      dup2\n        /* \"#utility.yul\":1753:1783   */\n      gt\n        /* \"#utility.yul\":1750:1867   */\n      iszero\n      tag_112\n      jumpi\n        /* \"#utility.yul\":1786:1865   */\n      tag_113\n      tag_107\n      jump\t// in\n    tag_113:\n        /* \"#utility.yul\":1750:1867   */\n    tag_112:\n        /* \"#utility.yul\":1891:1954   */\n      tag_114\n        /* \"#utility.yul\":1946:1953   */\n      dup6\n        /* \"#utility.yul\":1937:1943   */\n      dup3\n        /* \"#utility.yul\":1926:1935   */\n      dup7\n        /* \"#utility.yul\":1922:1944   */\n      add\n        /* \"#utility.yul\":1891:1954   */\n      tag_91\n      jump\t// in\n    tag_114:\n        /* \"#utility.yul\":1881:1954   */\n      swap3\n      pop\n        /* \"#utility.yul\":1677:1964   */\n      pop\n        /* \"#utility.yul\":2003:2005   */\n      0x20\n        /* \"#utility.yul\":2029:2082   */\n      tag_115\n        /* \"#utility.yul\":2074:2081   */\n      dup6\n        /* \"#utility.yul\":2065:2071   */\n      dup3\n        /* \"#utility.yul\":2054:2063   */\n      dup7\n        /* \"#utility.yul\":2050:2072   */\n      add\n        /* \"#utility.yul\":2029:2082   */\n      tag_97\n      jump\t// in\n    tag_115:\n        /* \"#utility.yul\":2019:2082   */\n      swap2\n      pop\n        /* \"#utility.yul\":1974:2092   */\n      pop\n        /* \"#utility.yul\":1445:2099   */\n      swap3\n      pop\n      swap3\n      swap1\n      pop\n      jump\t// out\n        /* \"#utility.yul\":2105:2434   */\n    tag_17:\n        /* \"#utility.yul\":2164:2170   */\n      0x00\n        /* \"#utility.yul\":2213:2215   */\n      0x20\n        /* \"#utility.yul\":2201:2210   */\n      dup3\n        /* \"#utility.yul\":2192:2199   */\n      dup5\n        /* \"#utility.yul\":2188:2211   */\n      sub\n        /* \"#utility.yul\":2184:2216   */\n      slt\n        /* \"#utility.yul\":2181:2300   */\n      iszero\n      tag_117\n      jumpi\n        /* \"#utility.yul\":2219:2298   */\n      tag_118\n      tag_104\n      jump\t// in\n    tag_118:\n        /* \"#utility.yul\":2181:2300   */\n    tag_117:\n        /* \"#utility.yul\":2339:2340   */\n      0x00\n        /* \"#utility.yul\":2364:2417   */\n      tag_119\n        /* \"#utility.yul\":2409:2416   */\n      dup5\n        /* \"#utility.yul\":2400:2406   */\n      dup3\n        /* \"#utility.yul\":2389:2398   */\n      dup6\n        /* \"#utility.yul\":2385:2407   */\n      add\n        /* \"#utility.yul\":2364:2417   */\n      tag_97\n      jump\t// in\n    tag_119:\n        /* \"#utility.yul\":2354:2417   */\n      swap2\n      pop\n        /* \"#utility.yul\":2310:2427   */\n      pop\n        /* \"#utility.yul\":2105:2434   */\n      swap3\n      swap2\n      pop\n      pop\n      jump\t// out\n        /* \"#utility.yul\":2440:2914   */\n    tag_13:\n        /* \"#utility.yul\":2508:2514   */\n      0x00\n        /* \"#utility.yul\":2516:2522   */\n      dup1\n        /* \"#utility.yul\":2565:2567   */\n      0x40\n        /* \"#utility.yul\":2553:2562   */\n      dup4\n        /* \"#utility.yul\":2544:2551   */\n      dup6\n        /* \"#utility.yul\":2540:2563   */\n      sub\n        /* \"#utility.yul\":2536:2568   */\n      slt\n        /* \"#utility.yul\":2533:2652   */\n      iszero\n      tag_121\n      jumpi\n        /* \"#utility.yul\":2571:2650   */\n      tag_122\n      tag_104\n      jump\t// in\n    tag_122:\n        /* \"#utility.yul\":2533:2652   */\n    tag_121:\n        /* \"#utility.yul\":2691:2692   */\n      0x00\n        /* \"#utility.yul\":2716:2769   */\n      tag_123\n        /* \"#utility.yul\":2761:2768   */\n      dup6\n        /* \"#utility.yul\":2752:2758   */\n      dup3\n        /* \"#utility.yul\":2741:2750   */\n      dup7\n        /* \"#utility.yul\":2737:2759   */\n      add\n        /* \"#utility.yul\":2716:2769   */\n      tag_97\n      jump\t// in\n    tag_123:\n        /* \"#utility.yul\":2706:2769   */\n      swap3\n      pop\n        /* \"#utility.yul\":2662:2779   */\n      pop\n        /* \"#utility.yul\":2818:2820   */\n      0x20\n        /* \"#utility.yul\":2844:2897   */\n      tag_124\n        /* \"#utility.yul\":2889:2896   */\n      dup6\n        /* \"#utility.yul\":2880:2886   */\n      dup3\n        /* \"#utility.yul\":2869:2878   */\n      dup7\n        /* \"#utility.yul\":2865:2887   */\n      add\n        /* \"#utility.yul\":2844:2897   */\n      tag_97\n      jump\t// in\n    tag_124:\n        /* \"#utility.yul\":2834:2897   */\n      swap2\n      pop\n        /* \"#utility.yul\":2789:2907   */\n      pop\n        /* \"#utility.yul\":2440:2914   */\n      swap3\n      pop\n      swap3\n      swap1\n      pop\n      jump\t// out\n        /* \"#utility.yul\":2920:3284   */\n    tag_125:\n        /* \"#utility.yul\":3008:3011   */\n      0x00\n        /* \"#utility.yul\":3036:3075   */\n      tag_127\n        /* \"#utility.yul\":3069:3074   */\n      dup3\n        /* \"#utility.yul\":3036:3075   */\n      tag_128\n      jump\t// in\n    tag_127:\n        /* \"#utility.yul\":3091:3162   */\n      tag_129\n        /* \"#utility.yul\":3155:3161   */\n      dup2\n        /* \"#utility.yul\":3150:3153   */\n      dup6\n        /* \"#utility.yul\":3091:3162   */\n      tag_130\n      jump\t// in\n    tag_129:\n        /* \"#utility.yul\":3084:3162   */\n      swap4\n      pop\n        /* \"#utility.yul\":3171:3223   */\n      tag_131\n        /* \"#utility.yul\":3216:3222   */\n      dup2\n        /* \"#utility.yul\":3211:3214   */\n      dup6\n        /* \"#utility.yul\":3204:3208   */\n      0x20\n        /* \"#utility.yul\":3197:3202   */\n      dup7\n        /* \"#utility.yul\":3193:3209   */\n      add\n        /* \"#utility.yul\":3171:3223   */\n      tag_132\n      jump\t// in\n    tag_131:\n        /* \"#utility.yul\":3248:3277   */\n      tag_133\n        /* \"#utility.yul\":3270:3276   */\n      dup2\n        /* \"#utility.yul\":3248:3277   */\n      tag_134\n      jump\t// in\n    tag_133:\n        /* \"#utility.yul\":3243:3246   */\n      dup5\n        /* \"#utility.yul\":3239:3278   */\n      add\n        /* \"#utility.yul\":3232:3278   */\n      swap2\n      pop\n        /* \"#utility.yul\":3012:3284   */\n      pop\n        /* \"#utility.yul\":2920:3284   */\n      swap3\n      swap2\n      pop\n      pop\n      jump\t// out\n        /* \"#utility.yul\":3290:3667   */\n    tag_135:\n        /* \"#utility.yul\":3396:3399   */\n      0x00\n        /* \"#utility.yul\":3424:3463   */\n      tag_137\n        /* \"#utility.yul\":3457:3462   */\n      dup3\n        /* \"#utility.yul\":3424:3463   */\n      tag_128\n      jump\t// in\n    tag_137:\n        /* \"#utility.yul\":3479:3568   */\n      tag_138\n        /* \"#utility.yul\":3561:3567   */\n      dup2\n        /* \"#utility.yul\":3556:3559   */\n      dup6\n        /* \"#utility.yul\":3479:3568   */\n      tag_139\n      jump\t// in\n    tag_138:\n        /* \"#utility.yul\":3472:3568   */\n      swap4\n      pop\n        /* \"#utility.yul\":3577:3629   */\n      tag_140\n        /* \"#utility.yul\":3622:3628   */\n      dup2\n        /* \"#utility.yul\":3617:3620   */\n      dup6\n        /* \"#utility.yul\":3610:3614   */\n      0x20\n        /* \"#utility.yul\":3603:3608   */\n      dup7\n        /* \"#utility.yul\":3599:3615   */\n      add\n        /* \"#utility.yul\":3577:3629   */\n      tag_132\n      jump\t// in\n    tag_140:\n        /* \"#utility.yul\":3654:3660   */\n      dup1\n        /* \"#utility.yul\":3649:3652   */\n      dup5\n        /* \"#utility.yul\":3645:3661   */\n      add\n        /* \"#utility.yul\":3638:3661   */\n      swap2\n      pop\n        /* \"#utility.yul\":3400:3667   */\n      pop\n        /* \"#utility.yul\":3290:3667   */\n      swap3\n      swap2\n      pop\n      pop\n      jump\t// out\n        /* \"#utility.yul\":3673:3791   */\n    tag_141:\n        /* \"#utility.yul\":3760:3784   */\n      tag_143\n        /* \"#utility.yul\":3778:3783   */\n      dup2\n        /* \"#utility.yul\":3760:3784   */\n      tag_144\n      jump\t// in\n    tag_143:\n        /* \"#utility.yul\":3755:3758   */\n      dup3\n        /* \"#utility.yul\":3748:3785   */\n      mstore\n        /* \"#utility.yul\":3673:3791   */\n      pop\n      pop\n      jump\t// out\n        /* \"#utility.yul\":3797:4072   */\n    tag_67:\n        /* \"#utility.yul\":3929:3932   */\n      0x00\n        /* \"#utility.yul\":3951:4046   */\n      tag_146\n        /* \"#utility.yul\":4042:4045   */\n      dup3\n        /* \"#utility.yul\":4033:4039   */\n      dup5\n        /* \"#utility.yul\":3951:4046   */\n      tag_135\n      jump\t// in\n    tag_146:\n        /* \"#utility.yul\":3944:4046   */\n      swap2\n      pop\n        /* \"#utility.yul\":4063:4066   */\n      dup2\n        /* \"#utility.yul\":4056:4066   */\n      swap1\n      pop\n        /* \"#utility.yul\":3797:4072   */\n      swap3\n      swap2\n      pop\n      pop\n      jump\t// out\n        /* \"#utility.yul\":4078:4501   */\n    tag_20:\n        /* \"#utility.yul\":4219:4223   */\n      0x00\n        /* \"#utility.yul\":4257:4259   */\n      0x40\n        /* \"#utility.yul\":4246:4255   */\n      dup3\n        /* \"#utility.yul\":4242:4260   */\n      add\n        /* \"#utility.yul\":4234:4260   */\n      swap1\n      pop\n        /* \"#utility.yul\":4270:4341   */\n      tag_148\n        /* \"#utility.yul\":4338:4339   */\n      0x00\n        /* \"#utility.yul\":4327:4336   */\n      dup4\n        /* \"#utility.yul\":4323:4340   */\n      add\n        /* \"#utility.yul\":4314:4320   */\n      dup6\n        /* \"#utility.yul\":4270:4341   */\n      tag_141\n      jump\t// in\n    tag_148:\n        /* \"#utility.yul\":4388:4397   */\n      dup2\n        /* \"#utility.yul\":4382:4386   */\n      dup2\n        /* \"#utility.yul\":4378:4398   */\n      sub\n        /* \"#utility.yul\":4373:4375   */\n      0x20\n        /* \"#utility.yul\":4362:4371   */\n      dup4\n        /* \"#utility.yul\":4358:4376   */\n      add\n        /* \"#utility.yul\":4351:4399   */\n      mstore\n        /* \"#utility.yul\":4416:4494   */\n      tag_149\n        /* \"#utility.yul\":4489:4493   */\n      dup2\n        /* \"#utility.yul\":4480:4486   */\n      dup5\n        /* \"#utility.yul\":4416:4494   */\n      tag_125\n      jump\t// in\n    tag_149:\n        /* \"#utility.yul\":4408:4494   */\n      swap1\n      pop\n        /* \"#utility.yul\":4078:4501   */\n      swap4\n      swap3\n      pop\n      pop\n      pop\n      jump\t// out\n        /* \"#utility.yul\":4507:5040   */\n    tag_64:\n        /* \"#utility.yul\":4676:4680   */\n      0x00\n        /* \"#utility.yul\":4714:4716   */\n      0x60\n        /* \"#utility.yul\":4703:4712   */\n      dup3\n        /* \"#utility.yul\":4699:4717   */\n      add\n        /* \"#utility.yul\":4691:4717   */\n      swap1\n      pop\n        /* \"#utility.yul\":4727:4798   */\n      tag_151\n        /* \"#utility.yul\":4795:4796   */\n      0x00\n        /* \"#utility.yul\":4784:4793   */\n      dup4\n        /* \"#utility.yul\":4780:4797   */\n      add\n        /* \"#utility.yul\":4771:4777   */\n      dup7\n        /* \"#utility.yul\":4727:4798   */\n      tag_141\n      jump\t// in\n    tag_151:\n        /* \"#utility.yul\":4845:4854   */\n      dup2\n        /* \"#utility.yul\":4839:4843   */\n      dup2\n        /* \"#utility.yul\":4835:4855   */\n      sub\n        /* \"#utility.yul\":4830:4832   */\n      0x20\n        /* \"#utility.yul\":4819:4828   */\n      dup4\n        /* \"#utility.yul\":4815:4833   */\n      add\n        /* \"#utility.yul\":4808:4856   */\n      mstore\n        /* \"#utility.yul\":4873:4951   */\n      tag_152\n        /* \"#utility.yul\":4946:4950   */\n      dup2\n        /* \"#utility.yul\":4937:4943   */\n      dup6\n        /* \"#utility.yul\":4873:4951   */\n      tag_125\n      jump\t// in\n    tag_152:\n        /* \"#utility.yul\":4865:4951   */\n      swap1\n      pop\n        /* \"#utility.yul\":4961:5033   */\n      tag_153\n        /* \"#utility.yul\":5029:5031   */\n      0x40\n        /* \"#utility.yul\":5018:5027   */\n      dup4\n        /* \"#utility.yul\":5014:5032   */\n      add\n        /* \"#utility.yul\":5005:5011   */\n      dup5\n        /* \"#utility.yul\":4961:5033   */\n      tag_141\n      jump\t// in\n    tag_153:\n        /* \"#utility.yul\":4507:5040   */\n      swap5\n      swap4\n      pop\n      pop\n      pop\n      pop\n      jump\t// out\n        /* \"#utility.yul\":5046:5175   */\n    tag_85:\n        /* \"#utility.yul\":5080:5086   */\n      0x00\n        /* \"#utility.yul\":5107:5127   */\n      tag_155\n      tag_156\n      jump\t// in\n    tag_155:\n        /* \"#utility.yul\":5097:5127   */\n      swap1\n      pop\n        /* \"#utility.yul\":5136:5169   */\n      tag_157\n        /* \"#utility.yul\":5164:5168   */\n      dup3\n        /* \"#utility.yul\":5156:5162   */\n      dup3\n        /* \"#utility.yul\":5136:5169   */\n      tag_158\n      jump\t// in\n    tag_157:\n        /* \"#utility.yul\":5046:5175   */\n      swap2\n      swap1\n      pop\n      jump\t// out\n        /* \"#utility.yul\":5181:5256   */\n    tag_156:\n        /* \"#utility.yul\":5214:5220   */\n      0x00\n        /* \"#utility.yul\":5247:5249   */\n      0x40\n        /* \"#utility.yul\":5241:5250   */\n      mload\n        /* \"#utility.yul\":5231:5250   */\n      swap1\n      pop\n        /* \"#utility.yul\":5181:5256   */\n      swap1\n      jump\t// out\n        /* \"#utility.yul\":5262:5570   */\n    tag_84:\n        /* \"#utility.yul\":5324:5328   */\n      0x00\n        /* \"#utility.yul\":5414:5432   */\n      0xffffffffffffffff\n        /* \"#utility.yul\":5406:5412   */\n      dup3\n        /* \"#utility.yul\":5403:5433   */\n      gt\n        /* \"#utility.yul\":5400:5456   */\n      iszero\n      tag_161\n      jumpi\n        /* \"#utility.yul\":5436:5454   */\n      tag_162\n      tag_163\n      jump\t// in\n    tag_162:\n        /* \"#utility.yul\":5400:5456   */\n    tag_161:\n        /* \"#utility.yul\":5474:5503   */\n      tag_164\n        /* \"#utility.yul\":5496:5502   */\n      dup3\n        /* \"#utility.yul\":5474:5503   */\n      tag_134\n      jump\t// in\n    tag_164:\n        /* \"#utility.yul\":5466:5503   */\n      swap1\n      pop\n        /* \"#utility.yul\":5558:5562   */\n      0x20\n        /* \"#utility.yul\":5552:5556   */\n      dup2\n        /* \"#utility.yul\":5548:5563   */\n      add\n        /* \"#utility.yul\":5540:5563   */\n      swap1\n      pop\n        /* \"#utility.yul\":5262:5570   */\n      swap2\n      swap1\n      pop\n      jump\t// out\n        /* \"#utility.yul\":5576:5675   */\n    tag_128:\n        /* \"#utility.yul\":5628:5634   */\n      0x00\n        /* \"#utility.yul\":5662:5667   */\n      dup2\n        /* \"#utility.yul\":5656:5668   */\n      mload\n        /* \"#utility.yul\":5646:5668   */\n      swap1\n      pop\n        /* \"#utility.yul\":5576:5675   */\n      swap2\n      swap1\n      pop\n      jump\t// out\n        /* \"#utility.yul\":5681:5850   */\n    tag_130:\n        /* \"#utility.yul\":5765:5776   */\n      0x00\n        /* \"#utility.yul\":5799:5805   */\n      dup3\n        /* \"#utility.yul\":5794:5797   */\n      dup3\n        /* \"#utility.yul\":5787:5806   */\n      mstore\n        /* \"#utility.yul\":5839:5843   */\n      0x20\n        /* \"#utility.yul\":5834:5837   */\n      dup3\n        /* \"#utility.yul\":5830:5844   */\n      add\n        /* \"#utility.yul\":5815:5844   */\n      swap1\n      pop\n        /* \"#utility.yul\":5681:5850   */\n      swap3\n      swap2\n      pop\n      pop\n      jump\t// out\n        /* \"#utility.yul\":5856:6004   */\n    tag_139:\n        /* \"#utility.yul\":5958:5969   */\n      0x00\n        /* \"#utility.yul\":5995:5998   */\n      dup2\n        /* \"#utility.yul\":5980:5998   */\n      swap1\n      pop\n        /* \"#utility.yul\":5856:6004   */\n      swap3\n      swap2\n      pop\n      pop\n      jump\t// out\n        /* \"#utility.yul\":6010:6315   */\n    tag_37:\n        /* \"#utility.yul\":6050:6053   */\n      0x00\n        /* \"#utility.yul\":6069:6089   */\n      tag_169\n        /* \"#utility.yul\":6087:6088   */\n      dup3\n        /* \"#utility.yul\":6069:6089   */\n      tag_144\n      jump\t// in\n    tag_169:\n        /* \"#utility.yul\":6064:6089   */\n      swap2\n      pop\n        /* \"#utility.yul\":6103:6123   */\n      tag_170\n        /* \"#utility.yul\":6121:6122   */\n      dup4\n        /* \"#utility.yul\":6103:6123   */\n      tag_144\n      jump\t// in\n    tag_170:\n        /* \"#utility.yul\":6098:6123   */\n      swap3\n      pop\n        /* \"#utility.yul\":6257:6258   */\n      dup3\n        /* \"#utility.yul\":6189:6255   */\n      0xffffffffffffffffffffffffffffffffffffffffffffffffffffffffffffffff\n        /* \"#utility.yul\":6185:6259   */\n      sub\n        /* \"#utility.yul\":6182:6183   */\n      dup3\n        /* \"#utility.yul\":6179:6260   */\n      gt\n        /* \"#utility.yul\":6176:6283   */\n      iszero\n      tag_171\n      jumpi\n        /* \"#utility.yul\":6263:6281   */\n      tag_172\n      tag_173\n      jump\t// in\n    tag_172:\n        /* \"#utility.yul\":6176:6283   */\n    tag_171:\n        /* \"#utility.yul\":6307:6308   */\n      dup3\n        /* \"#utility.yul\":6304:6305   */\n      dup3\n        /* \"#utility.yul\":6300:6309   */\n      add\n        /* \"#utility.yul\":6293:6309   */\n      swap1\n      pop\n        /* \"#utility.yul\":6010:6315   */\n      swap3\n      swap2\n      pop\n      pop\n      jump\t// out\n        /* \"#utility.yul\":6321:6506   */\n    tag_39:\n        /* \"#utility.yul\":6361:6362   */\n      0x00\n        /* \"#utility.yul\":6378:6398   */\n      tag_175\n        /* \"#utility.yul\":6396:6397   */\n      dup3\n        /* \"#utility.yul\":6378:6398   */\n      tag_144\n      jump\t// in\n    tag_175:\n        /* \"#utility.yul\":6373:6398   */\n      swap2\n      pop\n        /* \"#utility.yul\":6412:6432   */\n      tag_176\n        /* \"#utility.yul\":6430:6431   */\n      dup4\n        /* \"#utility.yul\":6412:6432   */\n      tag_144\n      jump\t// in\n    tag_176:\n        /* \"#utility.yul\":6407:6432   */\n      swap3\n      pop\n        /* \"#utility.yul\":6451:6452   */\n      dup3\n        /* \"#utility.yul\":6441:6476   */\n      tag_177\n      jumpi\n        /* \"#utility.yul\":6456:6474   */\n      tag_178\n      tag_179\n      jump\t// in\n    tag_178:\n        /* \"#utility.yul\":6441:6476   */\n    tag_177:\n        /* \"#utility.yul\":6498:6499   */\n      dup3\n        /* \"#utility.yul\":6495:6496   */\n      dup3\n        /* \"#utility.yul\":6491:6500   */\n      div\n        /* \"#utility.yul\":6486:6500   */\n      swap1\n      pop\n        /* \"#utility.yul\":6321:6506   */\n      swap3\n      swap2\n      pop\n      pop\n      jump\t// out\n        /* \"#utility.yul\":6512:6703   */\n    tag_59:\n        /* \"#utility.yul\":6552:6556   */\n      0x00\n        /* \"#utility.yul\":6572:6592   */\n      tag_181\n        /* \"#utility.yul\":6590:6591   */\n      dup3\n        /* \"#utility.yul\":6572:6592   */\n      tag_144\n      jump\t// in\n    tag_181:\n        /* \"#utility.yul\":6567:6592   */\n      swap2\n      pop\n        /* \"#utility.yul\":6606:6626   */\n      tag_182\n        /* \"#utility.yul\":6624:6625   */\n      dup4\n        /* \"#utility.yul\":6606:6626   */\n      tag_144\n      jump\t// in\n    tag_182:\n        /* \"#utility.yul\":6601:6626   */\n      swap3\n      pop\n        /* \"#utility.yul\":6645:6646   */\n      dup3\n        /* \"#utility.yul\":6642:6643   */\n      dup3\n        /* \"#utility.yul\":6639:6647   */\n      lt\n        /* \"#utility.yul\":6636:6670   */\n      iszero\n      tag_183\n      jumpi\n        /* \"#utility.yul\":6650:6668   */\n      tag_184\n      tag_173\n      jump\t// in\n    tag_184:\n        /* \"#utility.yul\":6636:6670   */\n    tag_183:\n        /* \"#utility.yul\":6695:6696   */\n      dup3\n        /* \"#utility.yul\":6692:6693   */\n      dup3\n        /* \"#utility.yul\":6688:6697   */\n      sub\n        /* \"#utility.yul\":6680:6697   */\n      swap1\n      pop\n        /* \"#utility.yul\":6512:6703   */\n      swap3\n      swap2\n      pop\n      pop\n      jump\t// out\n        /* \"#utility.yul\":6709:6786   */\n    tag_144:\n        /* \"#utility.yul\":6746:6753   */\n      0x00\n        /* \"#utility.yul\":6775:6780   */\n      dup2\n        /* \"#utility.yul\":6764:6780   */\n      swap1\n      pop\n        /* \"#utility.yul\":6709:6786   */\n      swap2\n      swap1\n      pop\n      jump\t// out\n        /* \"#utility.yul\":6792:6946   */\n    tag_90:\n        /* \"#utility.yul\":6876:6882   */\n      dup3\n        /* \"#utility.yul\":6871:6874   */\n      dup2\n        /* \"#utility.yul\":6866:6869   */\n      dup4\n        /* \"#utility.yul\":6853:6883   */\n      calldatacopy\n        /* \"#utility.yul\":6938:6939   */\n      0x00\n        /* \"#utility.yul\":6929:6935   */\n      dup4\n        /* \"#utility.yul\":6924:6927   */\n      dup4\n        /* \"#utility.yul\":6920:6936   */\n      add\n        /* \"#utility.yul\":6913:6940   */\n      mstore\n        /* \"#utility.yul\":6792:6946   */\n      pop\n      pop\n      pop\n      jump\t// out\n        /* \"#utility.yul\":6952:7259   */\n    tag_132:\n        /* \"#utility.yul\":7020:7021   */\n      0x00\n        /* \"#utility.yul\":7030:7143   */\n    tag_188:\n        /* \"#utility.yul\":7044:7050   */\n      dup4\n        /* \"#utility.yul\":7041:7042   */\n      dup2\n        /* \"#utility.yul\":7038:7051   */\n      lt\n        /* \"#utility.yul\":7030:7143   */\n      iszero\n      tag_190\n      jumpi\n        /* \"#utility.yul\":7129:7130   */\n      dup1\n        /* \"#utility.yul\":7124:7127   */\n      dup3\n        /* \"#utility.yul\":7120:7131   */\n      add\n        /* \"#utility.yul\":7114:7132   */\n      mload\n        /* \"#utility.yul\":7110:7111   */\n      dup2\n        /* \"#utility.yul\":7105:7108   */\n      dup5\n        /* \"#utility.yul\":7101:7112   */\n      add\n        /* \"#utility.yul\":7094:7133   */\n      mstore\n        /* \"#utility.yul\":7066:7068   */\n      0x20\n        /* \"#utility.yul\":7063:7064   */\n      dup2\n        /* \"#utility.yul\":7059:7069   */\n      add\n        /* \"#utility.yul\":7054:7069   */\n      swap1\n      pop\n        /* \"#utility.yul\":7030:7143   */\n      jump(tag_188)\n    tag_190:\n        /* \"#utility.yul\":7161:7167   */\n      dup4\n        /* \"#utility.yul\":7158:7159   */\n      dup2\n        /* \"#utility.yul\":7155:7168   */\n      gt\n        /* \"#utility.yul\":7152:7253   */\n      iszero\n      tag_191\n      jumpi\n        /* \"#utility.yul\":7241:7242   */\n      0x00\n        /* \"#utility.yul\":7232:7238   */\n      dup5\n        /* \"#utility.yul\":7227:7230   */\n      dup5\n        /* \"#utility.yul\":7223:7239   */\n      add\n        /* \"#utility.yul\":7216:7243   */\n      mstore\n        /* \"#utility.yul\":7152:7253   */\n    tag_191:\n        /* \"#utility.yul\":7001:7259   */\n      pop\n        /* \"#utility.yul\":6952:7259   */\n      pop\n      pop\n      pop\n      jump\t// out\n        /* \"#utility.yul\":7265:7585   */\n    tag_44:\n        /* \"#utility.yul\":7309:7315   */\n      0x00\n        /* \"#utility.yul\":7346:7347   */\n      0x02\n        /* \"#utility.yul\":7340:7344   */\n      dup3\n        /* \"#utility.yul\":7336:7348   */\n      div\n        /* \"#utility.yul\":7326:7348   */\n      swap1\n      pop\n        /* \"#utility.yul\":7393:7394   */\n      0x01\n        /* \"#utility.yul\":7387:7391   */\n      dup3\n        /* \"#utility.yul\":7383:7395   */\n      and\n        /* \"#utility.yul\":7414:7432   */\n      dup1\n        /* \"#utility.yul\":7404:7485   */\n      tag_193\n      jumpi\n        /* \"#utility.yul\":7470:7474   */\n      0x7f\n        /* \"#utility.yul\":7462:7468   */\n      dup3\n        /* \"#utility.yul\":7458:7475   */\n      and\n        /* \"#utility.yul\":7448:7475   */\n      swap2\n      pop\n        /* \"#utility.yul\":7404:7485   */\n    tag_193:\n        /* \"#utility.yul\":7532:7534   */\n      0x20\n        /* \"#utility.yul\":7524:7530   */\n      dup3\n        /* \"#utility.yul\":7521:7535   */\n      lt\n        /* \"#utility.yul\":7501:7519   */\n      dup2\n        /* \"#utility.yul\":7498:7536   */\n      eq\n        /* \"#utility.yul\":7495:7579   */\n      iszero\n      tag_194\n      jumpi\n        /* \"#utility.yul\":7551:7569   */\n      tag_195\n      tag_196\n      jump\t// in\n    tag_195:\n        /* \"#utility.yul\":7495:7579   */\n    tag_194:\n        /* \"#utility.yul\":7316:7585   */\n      pop\n        /* \"#utility.yul\":7265:7585   */\n      swap2\n      swap1\n      pop\n      jump\t// out\n        /* \"#utility.yul\":7591:7872   */\n    tag_158:\n        /* \"#utility.yul\":7674:7701   */\n      tag_198\n        /* \"#utility.yul\":7696:7700   */\n      dup3\n        /* \"#utility.yul\":7674:7701   */\n      tag_134\n      jump\t// in\n    tag_198:\n        /* \"#utility.yul\":7666:7672   */\n      dup2\n        /* \"#utility.yul\":7662:7702   */\n      add\n        /* \"#utility.yul\":7804:7810   */\n      dup2\n        /* \"#utility.yul\":7792:7802   */\n      dup2\n        /* \"#utility.yul\":7789:7811   */\n      lt\n        /* \"#utility.yul\":7768:7786   */\n      0xffffffffffffffff\n        /* \"#utility.yul\":7756:7766   */\n      dup3\n        /* \"#utility.yul\":7753:7787   */\n      gt\n        /* \"#utility.yul\":7750:7812   */\n      or\n        /* \"#utility.yul\":7747:7835   */\n      iszero\n      tag_199\n      jumpi\n        /* \"#utility.yul\":7815:7833   */\n      tag_200\n      tag_163\n      jump\t// in\n    tag_200:\n        /* \"#utility.yul\":7747:7835   */\n    tag_199:\n        /* \"#utility.yul\":7855:7865   */\n      dup1\n        /* \"#utility.yul\":7851:7853   */\n      0x40\n        /* \"#utility.yul\":7844:7866   */\n      mstore\n        /* \"#utility.yul\":7634:7872   */\n      pop\n        /* \"#utility.yul\":7591:7872   */\n      pop\n      pop\n      jump\t// out\n        /* \"#utility.yul\":7878:8111   */\n    tag_61:\n        /* \"#utility.yul\":7917:7920   */\n      0x00\n        /* \"#utility.yul\":7940:7964   */\n      tag_202\n        /* \"#utility.yul\":7958:7963   */\n      dup3\n        /* \"#utility.yul\":7940:7964   */\n      tag_144\n      jump\t// in\n    tag_202:\n        /* \"#utility.yul\":7931:7964   */\n      swap2\n      pop\n        /* \"#utility.yul\":7986:8052   */\n      0xffffffffffffffffffffffffffffffffffffffffffffffffffffffffffffffff\n        /* \"#utility.yul\":7979:7984   */\n      dup3\n        /* \"#utility.yul\":7976:8053   */\n      eq\n        /* \"#utility.yul\":7973:8076   */\n      iszero\n      tag_203\n      jumpi\n        /* \"#utility.yul\":8056:8074   */\n      tag_204\n      tag_173\n      jump\t// in\n    tag_204:\n        /* \"#utility.yul\":7973:8076   */\n    tag_203:\n        /* \"#utility.yul\":8103:8104   */\n      0x01\n        /* \"#utility.yul\":8096:8101   */\n      dup3\n        /* \"#utility.yul\":8092:8105   */\n      add\n        /* \"#utility.yul\":8085:8105   */\n      swap1\n      pop\n        /* \"#utility.yul\":7878:8111   */\n      swap2\n      swap1\n      pop\n      jump\t// out\n        /* \"#utility.yul\":8117:8293   */\n    tag_35:\n        /* \"#utility.yul\":8149:8150   */\n      0x00\n        /* \"#utility.yul\":8166:8186   */\n      tag_206\n        /* \"#utility.yul\":8184:8185   */\n      dup3\n        /* \"#utility.yul\":8166:8186   */\n      tag_144\n      jump\t// in\n    tag_206:\n        /* \"#utility.yul\":8161:8186   */\n      swap2\n      pop\n        /* \"#utility.yul\":8200:8220   */\n      tag_207\n        /* \"#utility.yul\":8218:8219   */\n      dup4\n        /* \"#utility.yul\":8200:8220   */\n      tag_144\n      jump\t// in\n    tag_207:\n        /* \"#utility.yul\":8195:8220   */\n      swap3\n      pop\n        /* \"#utility.yul\":8239:8240   */\n      dup3\n        /* \"#utility.yul\":8229:8264   */\n      tag_208\n      jumpi\n        /* \"#utility.yul\":8244:8262   */\n      tag_209\n      tag_179\n      jump\t// in\n    tag_209:\n        /* \"#utility.yul\":8229:8264   */\n    tag_208:\n        /* \"#utility.yul\":8285:8286   */\n      dup3\n        /* \"#utility.yul\":8282:8283   */\n      dup3\n        /* \"#utility.yul\":8278:8287   */\n      mod\n        /* \"#utility.yul\":8273:8287   */\n      swap1\n      pop\n        /* \"#utility.yul\":8117:8293   */\n      swap3\n      swap2\n      pop\n      pop\n      jump\t// out\n        /* \"#utility.yul\":8299:8479   */\n    tag_173:\n        /* \"#utility.yul\":8347:8424   */\n      0x4e487b7100000000000000000000000000000000000000000000000000000000\n        /* \"#utility.yul\":8344:8345   */\n      0x00\n        /* \"#utility.yul\":8337:8425   */\n      mstore\n        /* \"#utility.yul\":8444:8448   */\n      0x11\n        /* \"#utility.yul\":8441:8442   */\n      0x04\n        /* \"#utility.yul\":8434:8449   */\n      mstore\n        /* \"#utility.yul\":8468:8472   */\n      0x24\n        /* \"#utility.yul\":8465:8466   */\n      0x00\n        /* \"#utility.yul\":8458:8473   */\n      revert\n        /* \"#utility.yul\":8485:8665   */\n    tag_179:\n        /* \"#utility.yul\":8533:8610   */\n      0x4e487b7100000000000000000000000000000000000000000000000000000000\n        /* \"#utility.yul\":8530:8531   */\n      0x00\n        /* \"#utility.yul\":8523:8611   */\n      mstore\n        /* \"#utility.yul\":8630:8634   */\n      0x12\n        /* \"#utility.yul\":8627:8628   */\n      0x04\n        /* \"#utility.yul\":8620:8635   */\n      mstore\n        /* \"#utility.yul\":8654:8658   */\n      0x24\n        /* \"#utility.yul\":8651:8652   */\n      0x00\n        /* \"#utility.yul\":8644:8659   */\n      revert\n        /* \"#utility.yul\":8671:8851   */\n    tag_196:\n        /* \"#utility.yul\":8719:8796   */\n      0x4e487b7100000000000000000000000000000000000000000000000000000000\n        /* \"#utility.yul\":8716:8717   */\n      0x00\n        /* \"#utility.yul\":8709:8797   */\n      mstore\n        /* \"#utility.yul\":8816:8820   */\n      0x22\n        /* \"#utility.yul\":8813:8814   */\n      0x04\n        /* \"#utility.yul\":8806:8821   */\n      mstore\n        /* \"#utility.yul\":8840:8844   */\n      0x24\n        /* \"#utility.yul\":8837:8838   */\n      0x00\n        /* \"#utility.yul\":8830:8845   */\n      revert\n        /* \"#utility.yul\":8857:9037   */\n    tag_32:\n        /* \"#utility.yul\":8905:8982   */\n      0x4e487b7100000000000000000000000000000000000000000000000000000000\n        /* \"#utility.yul\":8902:8903   */\n      0x00\n        /* \"#utility.yul\":8895:8983   */\n      mstore\n        /* \"#utility.yul\":9002:9006   */\n      0x32\n        /* \"#utility.yul\":8999:9000   */\n      0x04\n        /* \"#utility.yul\":8992:9007   */\n      mstore\n        /* \"#utility.yul\":9026:9030   */\n      0x24\n        /* \"#utility.yul\":9023:9024   */\n      0x00\n        /* \"#utility.yul\":9016:9031   */\n      revert\n        /* \"#utility.yul\":9043:9223   */\n    tag_163:\n        /* \"#utility.yul\":9091:9168   */\n      0x4e487b7100000000000000000000000000000000000000000000000000000000\n        /* \"#utility.yul\":9088:9089   */\n      0x00\n        /* \"#utility.yul\":9081:9169   */\n      mstore\n        /* \"#utility.yul\":9188:9192   */\n      0x41\n        /* \"#utility.yul\":9185:9186   */\n      0x04\n        /* \"#utility.yul\":9178:9193   */\n      mstore\n        /* \"#utility.yul\":9212:9216   */\n      0x24\n        /* \"#utility.yul\":9209:9210   */\n      0x00\n        /* \"#utility.yul\":9202:9217   */\n      revert\n        /* \"#utility.yul\":9229:9346   */\n    tag_95:\n        /* \"#utility.yul\":9338:9339   */\n      0x00\n        /* \"#utility.yul\":9335:9336   */\n      dup1\n        /* \"#utility.yul\":9328:9340   */\n      revert\n        /* \"#utility.yul\":9352:9469   */\n    tag_88:\n        /* \"#utility.yul\":9461:9462   */\n      0x00\n        /* \"#utility.yul\":9458:9459   */\n      dup1\n        /* \"#utility.yul\":9451:9463   */\n      revert\n        /* \"#utility.yul\":9475:9592   */\n    tag_107:\n        /* \"#utility.yul\":9584:9585   */\n      0x00\n        /* \"#utility.yul\":9581:9582   */\n      dup1\n        /* \"#utility.yul\":9574:9586   */\n      revert\n        /* \"#utility.yul\":9598:9715   */\n    tag_104:\n        /* \"#utility.yul\":9707:9708   */\n      0x00\n        /* \"#utility.yul\":9704:9705   */\n      dup1\n        /* \"#utility.yul\":9697:9709   */\n      revert\n        /* \"#utility.yul\":9721:9823   */\n    tag_134:\n        /* \"#utility.yul\":9762:9768   */\n      0x00\n        /* \"#utility.yul\":9813:9815   */\n      0x1f\n        /* \"#utility.yul\":9809:9816   */\n      not\n        /* \"#utility.yul\":9804:9806   */\n      0x1f\n        /* \"#utility.yul\":9797:9802   */\n      dup4\n        /* \"#utility.yul\":9793:9807   */\n      add\n        /* \"#utility.yul\":9789:9817   */\n      and\n        /* \"#utility.yul\":9779:9817   */\n      swap1\n      pop\n        /* \"#utility.yul\":9721:9823   */\n      swap2\n      swap1\n      pop\n      jump\t// out\n        /* \"#utility.yul\":9829:9951   */\n    tag_100:\n        /* \"#utility.yul\":9902:9926   */\n      tag_221\n        /* \"#utility.yul\":9920:9925   */\n      dup2\n        /* \"#utility.yul\":9902:9926   */\n      tag_144\n      jump\t// in\n    tag_221:\n        /* \"#utility.yul\":9895:9900   */\n      dup2\n        /* \"#utility.yul\":9892:9927   */\n      eq\n        /* \"#utility.yul\":9882:9945   */\n      tag_222\n      jumpi\n        /* \"#utility.yul\":9941:9942   */\n      0x00\n        /* \"#utility.yul\":9938:9939   */\n      dup1\n        /* \"#utility.yul\":9931:9943   */\n      revert\n        /* \"#utility.yul\":9882:9945   */\n    tag_222:\n        /* \"#utility.yul\":9829:9951   */\n      pop\n      jump\t// out\n\n    auxdata: 0xa26469706673582212207026a55f55ba41f17f3f2dd856eaa825629ef90c40332246926d67843a834f4464736f6c63430008070033\n}\n",
				"bytecode": {
					"linkReferences": {},
					"object": "60806040526010600055600054600a6200001a91906200008c565b6001553480156200002a57600080fd5b506200020f565b6000808291508390505b600185111562000083578086048111156200005b576200005a620001d3565b5b60018516156200006b5780820291505b80810290506200007b8562000202565b94506200003b565b94509492505050565b60006200009982620001c9565b9150620000a683620001c9565b9250620000d57fffffffffffffffffffffffffffffffffffffffffffffffffffffffffffffffff8484620000dd565b905092915050565b600082620000ef5760019050620001c2565b81620000ff5760009050620001c2565b8160018114620001185760028114620001235762000159565b6001915050620001c2565b60ff841115620001385762000137620001d3565b5b8360020a915084821115620001525762000151620001d3565b5b50620001c2565b5060208310610133831016604e8410600b8410161715620001935782820a9050838111156200018d576200018c620001d3565b5b620001c2565b620001a2848484600162000031565b92509050818404811115620001bc57620001bb620001d3565b5b81810290505b9392505050565b6000819050919050565b7f4e487b7100000000000000000000000000000000000000000000000000000000600052601160045260246000fd5b60008160011c9050919050565b610b9a806200021f6000396000f3fe608060405234801561001057600080fd5b506004361061004c5760003560e01c806309639373146100515780630dedffb81461006d5780632052465e14610089578063c6f15112146100ba575b600080fd5b61006b60048036038101906100669190610615565b6100d6565b005b6100876004803603810190610082919061069e565b6100e4565b005b6100a3600480360381019061009e9190610671565b6101cb565b6040516100b192919061076e565b60405180910390f35b6100d460048036038101906100cf91906105cc565b610287565b005b6100e082826102ee565b5050565b6000600460003373ffffffffffffffffffffffffffffffffffffffff1673ffffffffffffffffffffffffffffffffffffffff168152602001908152602001600020541461013057600080fd5b60006002838154811061014657610145610aca565b5b90600052602060002090600202019050600154826101649190610a0c565b91506000600282600001548461017a9190610859565b61018491906108af565b90506101c56040518060400160405280600681526020017f4e6f4e616d650000000000000000000000000000000000000000000000000000815250826100d6565b50505050565b600281815481106101db57600080fd5b906000526020600020906002020160009150905080600001549080600101805461020490610960565b80601f016020809104026020016040519081016040528092919081815260200182805461023090610960565b801561027d5780601f106102525761010080835404028352916020019161027d565b820191906000526020600020905b81548152906001019060200180831161026057829003601f168201915b5050505050905082565b6000600460003373ffffffffffffffffffffffffffffffffffffffff1673ffffffffffffffffffffffffffffffffffffffff16815260200190815260200160002054146102d357600080fd5b60006102de8261045f565b90506102ea82826102ee565b5050565b600260405180604001604052808381526020018481525090806001815401808255809150506001900390600052602060002090600202016000909190919091506000820151816000015560208201518160010190805190602001906103549291906104a4565b5050503360036000600160028054905061036e91906108e0565b815260200190815260200160002060006101000a81548173ffffffffffffffffffffffffffffffffffffffff021916908373ffffffffffffffffffffffffffffffffffffffff160217905550600460003373ffffffffffffffffffffffffffffffffffffffff1673ffffffffffffffffffffffffffffffffffffffff168152602001908152602001600020600081548092919061040a906109c3565b91905055507f88f026aacbbecc90c18411df4b1185fd8d9be2470f1962f192bf84a27d0704b7600160028054905061044291906108e0565b83836040516104539392919061079e565b60405180910390a15050565b600080826040516020016104739190610757565b6040516020818303038152906040528051906020012060001c90506001548161049c9190610a0c565b915050919050565b8280546104b090610960565b90600052602060002090601f0160209004810192826104d25760008555610519565b82601f106104eb57805160ff1916838001178555610519565b82800160010185558215610519579182015b828111156105185782518255916020019190600101906104fd565b5b509050610526919061052a565b5090565b5b8082111561054357600081600090555060010161052b565b5090565b600061055a61055584610801565b6107dc565b90508281526020810184848401111561057657610575610b2d565b5b61058184828561091e565b509392505050565b600082601f83011261059e5761059d610b28565b5b81356105ae848260208601610547565b91505092915050565b6000813590506105c681610b4d565b92915050565b6000602082840312156105e2576105e1610b37565b5b600082013567ffffffffffffffff811115610600576105ff610b32565b5b61060c84828501610589565b91505092915050565b6000806040838503121561062c5761062b610b37565b5b600083013567ffffffffffffffff81111561064a57610649610b32565b5b61065685828601610589565b9250506020610667858286016105b7565b9150509250929050565b60006020828403121561068757610686610b37565b5b6000610695848285016105b7565b91505092915050565b600080604083850312156106b5576106b4610b37565b5b60006106c3858286016105b7565b92505060206106d4858286016105b7565b9150509250929050565b60006106e982610832565b6106f3818561083d565b935061070381856020860161092d565b61070c81610b3c565b840191505092915050565b600061072282610832565b61072c818561084e565b935061073c81856020860161092d565b80840191505092915050565b61075181610914565b82525050565b60006107638284610717565b915081905092915050565b60006040820190506107836000830185610748565b818103602083015261079581846106de565b90509392505050565b60006060820190506107b36000830186610748565b81810360208301526107c581856106de565b90506107d46040830184610748565b949350505050565b60006107e66107f7565b90506107f28282610992565b919050565b6000604051905090565b600067ffffffffffffffff82111561081c5761081b610af9565b5b61082582610b3c565b9050602081019050919050565b600081519050919050565b600082825260208201905092915050565b600081905092915050565b600061086482610914565b915061086f83610914565b9250827fffffffffffffffffffffffffffffffffffffffffffffffffffffffffffffffff038211156108a4576108a3610a3d565b5b828201905092915050565b60006108ba82610914565b91506108c583610914565b9250826108d5576108d4610a6c565b5b828204905092915050565b60006108eb82610914565b91506108f683610914565b92508282101561090957610908610a3d565b5b828203905092915050565b6000819050919050565b82818337600083830152505050565b60005b8381101561094b578082015181840152602081019050610930565b8381111561095a576000848401525b50505050565b6000600282049050600182168061097857607f821691505b6020821081141561098c5761098b610a9b565b5b50919050565b61099b82610b3c565b810181811067ffffffffffffffff821117156109ba576109b9610af9565b5b80604052505050565b60006109ce82610914565b91507fffffffffffffffffffffffffffffffffffffffffffffffffffffffffffffffff821415610a0157610a00610a3d565b5b600182019050919050565b6000610a1782610914565b9150610a2283610914565b925082610a3257610a31610a6c565b5b828206905092915050565b7f4e487b7100000000000000000000000000000000000000000000000000000000600052601160045260246000fd5b7f4e487b7100000000000000000000000000000000000000000000000000000000600052601260045260246000fd5b7f4e487b7100000000000000000000000000000000000000000000000000000000600052602260045260246000fd5b7f4e487b7100000000000000000000000000000000000000000000000000000000600052603260045260246000fd5b7f4e487b7100000000000000000000000000000000000000000000000000000000600052604160045260246000fd5b600080fd5b600080fd5b600080fd5b600080fd5b6000601f19601f8301169050919050565b610b5681610914565b8114610b6157600080fd5b5056fea26469706673582212207026a55f55ba41f17f3f2dd856eaa825629ef90c40332246926d67843a834f4464736f6c63430008070033",
					"opcodes": "PUSH1 0x80 PUSH1 0x40 MSTORE PUSH1 0x10 PUSH1 0x0 SSTORE PUSH1 0x0 SLOAD PUSH1 0xA PUSH3 0x1A SWAP2 SWAP1 PUSH3 0x8C JUMP JUMPDEST PUSH1 0x1 SSTORE CALLVALUE DUP1 ISZERO PUSH3 0x2A JUMPI PUSH1 0x0 DUP1 REVERT JUMPDEST POP PUSH3 0x20F JUMP JUMPDEST PUSH1 0x0 DUP1 DUP3 SWAP2 POP DUP4 SWAP1 POP JUMPDEST PUSH1 0x1 DUP6 GT ISZERO PUSH3 0x83 JUMPI DUP1 DUP7 DIV DUP2 GT ISZERO PUSH3 0x5B JUMPI PUSH3 0x5A PUSH3 0x1D3 JUMP JUMPDEST JUMPDEST PUSH1 0x1 DUP6 AND ISZERO PUSH3 0x6B JUMPI DUP1 DUP3 MUL SWAP2 POP JUMPDEST DUP1 DUP2 MUL SWAP1 POP PUSH3 0x7B DUP6 PUSH3 0x202 JUMP JUMPDEST SWAP5 POP PUSH3 0x3B JUMP JUMPDEST SWAP5 POP SWAP5 SWAP3 POP POP POP JUMP JUMPDEST PUSH1 0x0 PUSH3 0x99 DUP3 PUSH3 0x1C9 JUMP JUMPDEST SWAP2 POP PUSH3 0xA6 DUP4 PUSH3 0x1C9 JUMP JUMPDEST SWAP3 POP PUSH3 0xD5 PUSH32 0xFFFFFFFFFFFFFFFFFFFFFFFFFFFFFFFFFFFFFFFFFFFFFFFFFFFFFFFFFFFFFFFF DUP5 DUP5 PUSH3 0xDD JUMP JUMPDEST SWAP1 POP SWAP3 SWAP2 POP POP JUMP JUMPDEST PUSH1 0x0 DUP3 PUSH3 0xEF JUMPI PUSH1 0x1 SWAP1 POP PUSH3 0x1C2 JUMP JUMPDEST DUP2 PUSH3 0xFF JUMPI PUSH1 0x0 SWAP1 POP PUSH3 0x1C2 JUMP JUMPDEST DUP2 PUSH1 0x1 DUP2 EQ PUSH3 0x118 JUMPI PUSH1 0x2 DUP2 EQ PUSH3 0x123 JUMPI PUSH3 0x159 JUMP JUMPDEST PUSH1 0x1 SWAP2 POP POP PUSH3 0x1C2 JUMP JUMPDEST PUSH1 0xFF DUP5 GT ISZERO PUSH3 0x138 JUMPI PUSH3 0x137 PUSH3 0x1D3 JUMP JUMPDEST JUMPDEST DUP4 PUSH1 0x2 EXP SWAP2 POP DUP5 DUP3 GT ISZERO PUSH3 0x152 JUMPI PUSH3 0x151 PUSH3 0x1D3 JUMP JUMPDEST JUMPDEST POP PUSH3 0x1C2 JUMP JUMPDEST POP PUSH1 0x20 DUP4 LT PUSH2 0x133 DUP4 LT AND PUSH1 0x4E DUP5 LT PUSH1 0xB DUP5 LT AND OR ISZERO PUSH3 0x193 JUMPI DUP3 DUP3 EXP SWAP1 POP DUP4 DUP2 GT ISZERO PUSH3 0x18D JUMPI PUSH3 0x18C PUSH3 0x1D3 JUMP JUMPDEST JUMPDEST PUSH3 0x1C2 JUMP JUMPDEST PUSH3 0x1A2 DUP5 DUP5 DUP5 PUSH1 0x1 PUSH3 0x31 JUMP JUMPDEST SWAP3 POP SWAP1 POP DUP2 DUP5 DIV DUP2 GT ISZERO PUSH3 0x1BC JUMPI PUSH3 0x1BB PUSH3 0x1D3 JUMP JUMPDEST JUMPDEST DUP2 DUP2 MUL SWAP1 POP JUMPDEST SWAP4 SWAP3 POP POP POP JUMP JUMPDEST PUSH1 0x0 DUP2 SWAP1 POP SWAP2 SWAP1 POP JUMP JUMPDEST PUSH32 0x4E487B7100000000000000000000000000000000000000000000000000000000 PUSH1 0x0 MSTORE PUSH1 0x11 PUSH1 0x4 MSTORE PUSH1 0x24 PUSH1 0x0 REVERT JUMPDEST PUSH1 0x0 DUP2 PUSH1 0x1 SHR SWAP1 POP SWAP2 SWAP1 POP JUMP JUMPDEST PUSH2 0xB9A DUP1 PUSH3 0x21F PUSH1 0x0 CODECOPY PUSH1 0x0 RETURN INVALID PUSH1 0x80 PUSH1 0x40 MSTORE CALLVALUE DUP1 ISZERO PUSH2 0x10 JUMPI PUSH1 0x0 DUP1 REVERT JUMPDEST POP PUSH1 0x4 CALLDATASIZE LT PUSH2 0x4C JUMPI PUSH1 0x0 CALLDATALOAD PUSH1 0xE0 SHR DUP1 PUSH4 0x9639373 EQ PUSH2 0x51 JUMPI DUP1 PUSH4 0xDEDFFB8 EQ PUSH2 0x6D JUMPI DUP1 PUSH4 0x2052465E EQ PUSH2 0x89 JUMPI DUP1 PUSH4 0xC6F15112 EQ PUSH2 0xBA JUMPI JUMPDEST PUSH1 0x0 DUP1 REVERT JUMPDEST PUSH2 0x6B PUSH1 0x4 DUP1 CALLDATASIZE SUB DUP2 ADD SWAP1 PUSH2 0x66 SWAP2 SWAP1 PUSH2 0x615 JUMP JUMPDEST PUSH2 0xD6 JUMP JUMPDEST STOP JUMPDEST PUSH2 0x87 PUSH1 0x4 DUP1 CALLDATASIZE SUB DUP2 ADD SWAP1 PUSH2 0x82 SWAP2 SWAP1 PUSH2 0x69E JUMP JUMPDEST PUSH2 0xE4 JUMP JUMPDEST STOP JUMPDEST PUSH2 0xA3 PUSH1 0x4 DUP1 CALLDATASIZE SUB DUP2 ADD SWAP1 PUSH2 0x9E SWAP2 SWAP1 PUSH2 0x671 JUMP JUMPDEST PUSH2 0x1CB JUMP JUMPDEST PUSH1 0x40 MLOAD PUSH2 0xB1 SWAP3 SWAP2 SWAP1 PUSH2 0x76E JUMP JUMPDEST PUSH1 0x40 MLOAD DUP1 SWAP2 SUB SWAP1 RETURN JUMPDEST PUSH2 0xD4 PUSH1 0x4 DUP1 CALLDATASIZE SUB DUP2 ADD SWAP1 PUSH2 0xCF SWAP2 SWAP1 PUSH2 0x5CC JUMP JUMPDEST PUSH2 0x287 JUMP JUMPDEST STOP JUMPDEST PUSH2 0xE0 DUP3 DUP3 PUSH2 0x2EE JUMP JUMPDEST POP POP JUMP JUMPDEST PUSH1 0x0 PUSH1 0x4 PUSH1 0x0 CALLER PUSH20 0xFFFFFFFFFFFFFFFFFFFFFFFFFFFFFFFFFFFFFFFF AND PUSH20 0xFFFFFFFFFFFFFFFFFFFFFFFFFFFFFFFFFFFFFFFF AND DUP2 MSTORE PUSH1 0x20 ADD SWAP1 DUP2 MSTORE PUSH1 0x20 ADD PUSH1 0x0 KECCAK256 SLOAD EQ PUSH2 0x130 JUMPI PUSH1 0x0 DUP1 REVERT JUMPDEST PUSH1 0x0 PUSH1 0x2 DUP4 DUP2 SLOAD DUP2 LT PUSH2 0x146 JUMPI PUSH2 0x145 PUSH2 0xACA JUMP JUMPDEST JUMPDEST SWAP1 PUSH1 0x0 MSTORE PUSH1 0x20 PUSH1 0x0 KECCAK256 SWAP1 PUSH1 0x2 MUL ADD SWAP1 POP PUSH1 0x1 SLOAD DUP3 PUSH2 0x164 SWAP2 SWAP1 PUSH2 0xA0C JUMP JUMPDEST SWAP2 POP PUSH1 0x0 PUSH1 0x2 DUP3 PUSH1 0x0 ADD SLOAD DUP5 PUSH2 0x17A SWAP2 SWAP1 PUSH2 0x859 JUMP JUMPDEST PUSH2 0x184 SWAP2 SWAP1 PUSH2 0x8AF JUMP JUMPDEST SWAP1 POP PUSH2 0x1C5 PUSH1 0x40 MLOAD DUP1 PUSH1 0x40 ADD PUSH1 0x40 MSTORE DUP1 PUSH1 0x6 DUP2 MSTORE PUSH1 0x20 ADD PUSH32 0x4E6F4E616D650000000000000000000000000000000000000000000000000000 DUP2 MSTORE POP DUP3 PUSH2 0xD6 JUMP JUMPDEST POP POP POP POP JUMP JUMPDEST PUSH1 0x2 DUP2 DUP2 SLOAD DUP2 LT PUSH2 0x1DB JUMPI PUSH1 0x0 DUP1 REVERT JUMPDEST SWAP1 PUSH1 0x0 MSTORE PUSH1 0x20 PUSH1 0x0 KECCAK256 SWAP1 PUSH1 0x2 MUL ADD PUSH1 0x0 SWAP2 POP SWAP1 POP DUP1 PUSH1 0x0 ADD SLOAD SWAP1 DUP1 PUSH1 0x1 ADD DUP1 SLOAD PUSH2 0x204 SWAP1 PUSH2 0x960 JUMP JUMPDEST DUP1 PUSH1 0x1F ADD PUSH1 0x20 DUP1 SWAP2 DIV MUL PUSH1 0x20 ADD PUSH1 0x40 MLOAD SWAP1 DUP2 ADD PUSH1 0x40 MSTORE DUP1 SWAP3 SWAP2 SWAP1 DUP2 DUP2 MSTORE PUSH1 0x20 ADD DUP3 DUP1 SLOAD PUSH2 0x230 SWAP1 PUSH2 0x960 JUMP JUMPDEST DUP1 ISZERO PUSH2 0x27D JUMPI DUP1 PUSH1 0x1F LT PUSH2 0x252 JUMPI PUSH2 0x100 DUP1 DUP4 SLOAD DIV MUL DUP4 MSTORE SWAP2 PUSH1 0x20 ADD SWAP2 PUSH2 0x27D JUMP JUMPDEST DUP3 ADD SWAP2 SWAP1 PUSH1 0x0 MSTORE PUSH1 0x20 PUSH1 0x0 KECCAK256 SWAP1 JUMPDEST DUP2 SLOAD DUP2 MSTORE SWAP1 PUSH1 0x1 ADD SWAP1 PUSH1 0x20 ADD DUP1 DUP4 GT PUSH2 0x260 JUMPI DUP3 SWAP1 SUB PUSH1 0x1F AND DUP3 ADD SWAP2 JUMPDEST POP POP POP POP POP SWAP1 POP DUP3 JUMP JUMPDEST PUSH1 0x0 PUSH1 0x4 PUSH1 0x0 CALLER PUSH20 0xFFFFFFFFFFFFFFFFFFFFFFFFFFFFFFFFFFFFFFFF AND PUSH20 0xFFFFFFFFFFFFFFFFFFFFFFFFFFFFFFFFFFFFFFFF AND DUP2 MSTORE PUSH1 0x20 ADD SWAP1 DUP2 MSTORE PUSH1 0x20 ADD PUSH1 0x0 KECCAK256 SLOAD EQ PUSH2 0x2D3 JUMPI PUSH1 0x0 DUP1 REVERT JUMPDEST PUSH1 0x0 PUSH2 0x2DE DUP3 PUSH2 0x45F JUMP JUMPDEST SWAP1 POP PUSH2 0x2EA DUP3 DUP3 PUSH2 0x2EE JUMP JUMPDEST POP POP JUMP JUMPDEST PUSH1 0x2 PUSH1 0x40 MLOAD DUP1 PUSH1 0x40 ADD PUSH1 0x40 MSTORE DUP1 DUP4 DUP2 MSTORE PUSH1 0x20 ADD DUP5 DUP2 MSTORE POP SWAP1 DUP1 PUSH1 0x1 DUP2 SLOAD ADD DUP1 DUP3 SSTORE DUP1 SWAP2 POP POP PUSH1 0x1 SWAP1 SUB SWAP1 PUSH1 0x0 MSTORE PUSH1 0x20 PUSH1 0x0 KECCAK256 SWAP1 PUSH1 0x2 MUL ADD PUSH1 0x0 SWAP1 SWAP2 SWAP1 SWAP2 SWAP1 SWAP2 POP PUSH1 0x0 DUP3 ADD MLOAD DUP2 PUSH1 0x0 ADD SSTORE PUSH1 0x20 DUP3 ADD MLOAD DUP2 PUSH1 0x1 ADD SWAP1 DUP1 MLOAD SWAP1 PUSH1 0x20 ADD SWAP1 PUSH2 0x354 SWAP3 SWAP2 SWAP1 PUSH2 0x4A4 JUMP JUMPDEST POP POP POP CALLER PUSH1 0x3 PUSH1 0x0 PUSH1 0x1 PUSH1 0x2 DUP1 SLOAD SWAP1 POP PUSH2 0x36E SWAP2 SWAP1 PUSH2 0x8E0 JUMP JUMPDEST DUP2 MSTORE PUSH1 0x20 ADD SWAP1 DUP2 MSTORE PUSH1 0x20 ADD PUSH1 0x0 KECCAK256 PUSH1 0x0 PUSH2 0x100 EXP DUP2 SLOAD DUP2 PUSH20 0xFFFFFFFFFFFFFFFFFFFFFFFFFFFFFFFFFFFFFFFF MUL NOT AND SWAP1 DUP4 PUSH20 0xFFFFFFFFFFFFFFFFFFFFFFFFFFFFFFFFFFFFFFFF AND MUL OR SWAP1 SSTORE POP PUSH1 0x4 PUSH1 0x0 CALLER PUSH20 0xFFFFFFFFFFFFFFFFFFFFFFFFFFFFFFFFFFFFFFFF AND PUSH20 0xFFFFFFFFFFFFFFFFFFFFFFFFFFFFFFFFFFFFFFFF AND DUP2 MSTORE PUSH1 0x20 ADD SWAP1 DUP2 MSTORE PUSH1 0x20 ADD PUSH1 0x0 KECCAK256 PUSH1 0x0 DUP2 SLOAD DUP1 SWAP3 SWAP2 SWAP1 PUSH2 0x40A SWAP1 PUSH2 0x9C3 JUMP JUMPDEST SWAP2 SWAP1 POP SSTORE POP PUSH32 0x88F026AACBBECC90C18411DF4B1185FD8D9BE2470F1962F192BF84A27D0704B7 PUSH1 0x1 PUSH1 0x2 DUP1 SLOAD SWAP1 POP PUSH2 0x442 SWAP2 SWAP1 PUSH2 0x8E0 JUMP JUMPDEST DUP4 DUP4 PUSH1 0x40 MLOAD PUSH2 0x453 SWAP4 SWAP3 SWAP2 SWAP1 PUSH2 0x79E JUMP JUMPDEST PUSH1 0x40 MLOAD DUP1 SWAP2 SUB SWAP1 LOG1 POP POP JUMP JUMPDEST PUSH1 0x0 DUP1 DUP3 PUSH1 0x40 MLOAD PUSH1 0x20 ADD PUSH2 0x473 SWAP2 SWAP1 PUSH2 0x757 JUMP JUMPDEST PUSH1 0x40 MLOAD PUSH1 0x20 DUP2 DUP4 SUB SUB DUP2 MSTORE SWAP1 PUSH1 0x40 MSTORE DUP1 MLOAD SWAP1 PUSH1 0x20 ADD KECCAK256 PUSH1 0x0 SHR SWAP1 POP PUSH1 0x1 SLOAD DUP2 PUSH2 0x49C SWAP2 SWAP1 PUSH2 0xA0C JUMP JUMPDEST SWAP2 POP POP SWAP2 SWAP1 POP JUMP JUMPDEST DUP3 DUP1 SLOAD PUSH2 0x4B0 SWAP1 PUSH2 0x960 JUMP JUMPDEST SWAP1 PUSH1 0x0 MSTORE PUSH1 0x20 PUSH1 0x0 KECCAK256 SWAP1 PUSH1 0x1F ADD PUSH1 0x20 SWAP1 DIV DUP2 ADD SWAP3 DUP3 PUSH2 0x4D2 JUMPI PUSH1 0x0 DUP6 SSTORE PUSH2 0x519 JUMP JUMPDEST DUP3 PUSH1 0x1F LT PUSH2 0x4EB JUMPI DUP1 MLOAD PUSH1 0xFF NOT AND DUP4 DUP1 ADD OR DUP6 SSTORE PUSH2 0x519 JUMP JUMPDEST DUP3 DUP1 ADD PUSH1 0x1 ADD DUP6 SSTORE DUP3 ISZERO PUSH2 0x519 JUMPI SWAP2 DUP3 ADD JUMPDEST DUP3 DUP2 GT ISZERO PUSH2 0x518 JUMPI DUP3 MLOAD DUP3 SSTORE SWAP2 PUSH1 0x20 ADD SWAP2 SWAP1 PUSH1 0x1 ADD SWAP1 PUSH2 0x4FD JUMP JUMPDEST JUMPDEST POP SWAP1 POP PUSH2 0x526 SWAP2 SWAP1 PUSH2 0x52A JUMP JUMPDEST POP SWAP1 JUMP JUMPDEST JUMPDEST DUP1 DUP3 GT ISZERO PUSH2 0x543 JUMPI PUSH1 0x0 DUP2 PUSH1 0x0 SWAP1 SSTORE POP PUSH1 0x1 ADD PUSH2 0x52B JUMP JUMPDEST POP SWAP1 JUMP JUMPDEST PUSH1 0x0 PUSH2 0x55A PUSH2 0x555 DUP5 PUSH2 0x801 JUMP JUMPDEST PUSH2 0x7DC JUMP JUMPDEST SWAP1 POP DUP3 DUP2 MSTORE PUSH1 0x20 DUP2 ADD DUP5 DUP5 DUP5 ADD GT ISZERO PUSH2 0x576 JUMPI PUSH2 0x575 PUSH2 0xB2D JUMP JUMPDEST JUMPDEST PUSH2 0x581 DUP5 DUP3 DUP6 PUSH2 0x91E JUMP JUMPDEST POP SWAP4 SWAP3 POP POP POP JUMP JUMPDEST PUSH1 0x0 DUP3 PUSH1 0x1F DUP4 ADD SLT PUSH2 0x59E JUMPI PUSH2 0x59D PUSH2 0xB28 JUMP JUMPDEST JUMPDEST DUP2 CALLDATALOAD PUSH2 0x5AE DUP5 DUP3 PUSH1 0x20 DUP7 ADD PUSH2 0x547 JUMP JUMPDEST SWAP2 POP POP SWAP3 SWAP2 POP POP JUMP JUMPDEST PUSH1 0x0 DUP2 CALLDATALOAD SWAP1 POP PUSH2 0x5C6 DUP2 PUSH2 0xB4D JUMP JUMPDEST SWAP3 SWAP2 POP POP JUMP JUMPDEST PUSH1 0x0 PUSH1 0x20 DUP3 DUP5 SUB SLT ISZERO PUSH2 0x5E2 JUMPI PUSH2 0x5E1 PUSH2 0xB37 JUMP JUMPDEST JUMPDEST PUSH1 0x0 DUP3 ADD CALLDATALOAD PUSH8 0xFFFFFFFFFFFFFFFF DUP2 GT ISZERO PUSH2 0x600 JUMPI PUSH2 0x5FF PUSH2 0xB32 JUMP JUMPDEST JUMPDEST PUSH2 0x60C DUP5 DUP3 DUP6 ADD PUSH2 0x589 JUMP JUMPDEST SWAP2 POP POP SWAP3 SWAP2 POP POP JUMP JUMPDEST PUSH1 0x0 DUP1 PUSH1 0x40 DUP4 DUP6 SUB SLT ISZERO PUSH2 0x62C JUMPI PUSH2 0x62B PUSH2 0xB37 JUMP JUMPDEST JUMPDEST PUSH1 0x0 DUP4 ADD CALLDATALOAD PUSH8 0xFFFFFFFFFFFFFFFF DUP2 GT ISZERO PUSH2 0x64A JUMPI PUSH2 0x649 PUSH2 0xB32 JUMP JUMPDEST JUMPDEST PUSH2 0x656 DUP6 DUP3 DUP7 ADD PUSH2 0x589 JUMP JUMPDEST SWAP3 POP POP PUSH1 0x20 PUSH2 0x667 DUP6 DUP3 DUP7 ADD PUSH2 0x5B7 JUMP JUMPDEST SWAP2 POP POP SWAP3 POP SWAP3 SWAP1 POP JUMP JUMPDEST PUSH1 0x0 PUSH1 0x20 DUP3 DUP5 SUB SLT ISZERO PUSH2 0x687 JUMPI PUSH2 0x686 PUSH2 0xB37 JUMP JUMPDEST JUMPDEST PUSH1 0x0 PUSH2 0x695 DUP5 DUP3 DUP6 ADD PUSH2 0x5B7 JUMP JUMPDEST SWAP2 POP POP SWAP3 SWAP2 POP POP JUMP JUMPDEST PUSH1 0x0 DUP1 PUSH1 0x40 DUP4 DUP6 SUB SLT ISZERO PUSH2 0x6B5 JUMPI PUSH2 0x6B4 PUSH2 0xB37 JUMP JUMPDEST JUMPDEST PUSH1 0x0 PUSH2 0x6C3 DUP6 DUP3 DUP7 ADD PUSH2 0x5B7 JUMP JUMPDEST SWAP3 POP POP PUSH1 0x20 PUSH2 0x6D4 DUP6 DUP3 DUP7 ADD PUSH2 0x5B7 JUMP JUMPDEST SWAP2 POP POP SWAP3 POP SWAP3 SWAP1 POP JUMP JUMPDEST PUSH1 0x0 PUSH2 0x6E9 DUP3 PUSH2 0x832 JUMP JUMPDEST PUSH2 0x6F3 DUP2 DUP6 PUSH2 0x83D JUMP JUMPDEST SWAP4 POP PUSH2 0x703 DUP2 DUP6 PUSH1 0x20 DUP7 ADD PUSH2 0x92D JUMP JUMPDEST PUSH2 0x70C DUP2 PUSH2 0xB3C JUMP JUMPDEST DUP5 ADD SWAP2 POP POP SWAP3 SWAP2 POP POP JUMP JUMPDEST PUSH1 0x0 PUSH2 0x722 DUP3 PUSH2 0x832 JUMP JUMPDEST PUSH2 0x72C DUP2 DUP6 PUSH2 0x84E JUMP JUMPDEST SWAP4 POP PUSH2 0x73C DUP2 DUP6 PUSH1 0x20 DUP7 ADD PUSH2 0x92D JUMP JUMPDEST DUP1 DUP5 ADD SWAP2 POP POP SWAP3 SWAP2 POP POP JUMP JUMPDEST PUSH2 0x751 DUP2 PUSH2 0x914 JUMP JUMPDEST DUP3 MSTORE POP POP JUMP JUMPDEST PUSH1 0x0 PUSH2 0x763 DUP3 DUP5 PUSH2 0x717 JUMP JUMPDEST SWAP2 POP DUP2 SWAP1 POP SWAP3 SWAP2 POP POP JUMP JUMPDEST PUSH1 0x0 PUSH1 0x40 DUP3 ADD SWAP1 POP PUSH2 0x783 PUSH1 0x0 DUP4 ADD DUP6 PUSH2 0x748 JUMP JUMPDEST DUP2 DUP2 SUB PUSH1 0x20 DUP4 ADD MSTORE PUSH2 0x795 DUP2 DUP5 PUSH2 0x6DE JUMP JUMPDEST SWAP1 POP SWAP4 SWAP3 POP POP POP JUMP JUMPDEST PUSH1 0x0 PUSH1 0x60 DUP3 ADD SWAP1 POP PUSH2 0x7B3 PUSH1 0x0 DUP4 ADD DUP7 PUSH2 0x748 JUMP JUMPDEST DUP2 DUP2 SUB PUSH1 0x20 DUP4 ADD MSTORE PUSH2 0x7C5 DUP2 DUP6 PUSH2 0x6DE JUMP JUMPDEST SWAP1 POP PUSH2 0x7D4 PUSH1 0x40 DUP4 ADD DUP5 PUSH2 0x748 JUMP JUMPDEST SWAP5 SWAP4 POP POP POP POP JUMP JUMPDEST PUSH1 0x0 PUSH2 0x7E6 PUSH2 0x7F7 JUMP JUMPDEST SWAP1 POP PUSH2 0x7F2 DUP3 DUP3 PUSH2 0x992 JUMP JUMPDEST SWAP2 SWAP1 POP JUMP JUMPDEST PUSH1 0x0 PUSH1 0x40 MLOAD SWAP1 POP SWAP1 JUMP JUMPDEST PUSH1 0x0 PUSH8 0xFFFFFFFFFFFFFFFF DUP3 GT ISZERO PUSH2 0x81C JUMPI PUSH2 0x81B PUSH2 0xAF9 JUMP JUMPDEST JUMPDEST PUSH2 0x825 DUP3 PUSH2 0xB3C JUMP JUMPDEST SWAP1 POP PUSH1 0x20 DUP2 ADD SWAP1 POP SWAP2 SWAP1 POP JUMP JUMPDEST PUSH1 0x0 DUP2 MLOAD SWAP1 POP SWAP2 SWAP1 POP JUMP JUMPDEST PUSH1 0x0 DUP3 DUP3 MSTORE PUSH1 0x20 DUP3 ADD SWAP1 POP SWAP3 SWAP2 POP POP JUMP JUMPDEST PUSH1 0x0 DUP2 SWAP1 POP SWAP3 SWAP2 POP POP JUMP JUMPDEST PUSH1 0x0 PUSH2 0x864 DUP3 PUSH2 0x914 JUMP JUMPDEST SWAP2 POP PUSH2 0x86F DUP4 PUSH2 0x914 JUMP JUMPDEST SWAP3 POP DUP3 PUSH32 0xFFFFFFFFFFFFFFFFFFFFFFFFFFFFFFFFFFFFFFFFFFFFFFFFFFFFFFFFFFFFFFFF SUB DUP3 GT ISZERO PUSH2 0x8A4 JUMPI PUSH2 0x8A3 PUSH2 0xA3D JUMP JUMPDEST JUMPDEST DUP3 DUP3 ADD SWAP1 POP SWAP3 SWAP2 POP POP JUMP JUMPDEST PUSH1 0x0 PUSH2 0x8BA DUP3 PUSH2 0x914 JUMP JUMPDEST SWAP2 POP PUSH2 0x8C5 DUP4 PUSH2 0x914 JUMP JUMPDEST SWAP3 POP DUP3 PUSH2 0x8D5 JUMPI PUSH2 0x8D4 PUSH2 0xA6C JUMP JUMPDEST JUMPDEST DUP3 DUP3 DIV SWAP1 POP SWAP3 SWAP2 POP POP JUMP JUMPDEST PUSH1 0x0 PUSH2 0x8EB DUP3 PUSH2 0x914 JUMP JUMPDEST SWAP2 POP PUSH2 0x8F6 DUP4 PUSH2 0x914 JUMP JUMPDEST SWAP3 POP DUP3 DUP3 LT ISZERO PUSH2 0x909 JUMPI PUSH2 0x908 PUSH2 0xA3D JUMP JUMPDEST JUMPDEST DUP3 DUP3 SUB SWAP1 POP SWAP3 SWAP2 POP POP JUMP JUMPDEST PUSH1 0x0 DUP2 SWAP1 POP SWAP2 SWAP1 POP JUMP JUMPDEST DUP3 DUP2 DUP4 CALLDATACOPY PUSH1 0x0 DUP4 DUP4 ADD MSTORE POP POP POP JUMP JUMPDEST PUSH1 0x0 JUMPDEST DUP4 DUP2 LT ISZERO PUSH2 0x94B JUMPI DUP1 DUP3 ADD MLOAD DUP2 DUP5 ADD MSTORE PUSH1 0x20 DUP2 ADD SWAP1 POP PUSH2 0x930 JUMP JUMPDEST DUP4 DUP2 GT ISZERO PUSH2 0x95A JUMPI PUSH1 0x0 DUP5 DUP5 ADD MSTORE JUMPDEST POP POP POP POP JUMP JUMPDEST PUSH1 0x0 PUSH1 0x2 DUP3 DIV SWAP1 POP PUSH1 0x1 DUP3 AND DUP1 PUSH2 0x978 JUMPI PUSH1 0x7F DUP3 AND SWAP2 POP JUMPDEST PUSH1 0x20 DUP3 LT DUP2 EQ ISZERO PUSH2 0x98C JUMPI PUSH2 0x98B PUSH2 0xA9B JUMP JUMPDEST JUMPDEST POP SWAP2 SWAP1 POP JUMP JUMPDEST PUSH2 0x99B DUP3 PUSH2 0xB3C JUMP JUMPDEST DUP2 ADD DUP2 DUP2 LT PUSH8 0xFFFFFFFFFFFFFFFF DUP3 GT OR ISZERO PUSH2 0x9BA JUMPI PUSH2 0x9B9 PUSH2 0xAF9 JUMP JUMPDEST JUMPDEST DUP1 PUSH1 0x40 MSTORE POP POP POP JUMP JUMPDEST PUSH1 0x0 PUSH2 0x9CE DUP3 PUSH2 0x914 JUMP JUMPDEST SWAP2 POP PUSH32 0xFFFFFFFFFFFFFFFFFFFFFFFFFFFFFFFFFFFFFFFFFFFFFFFFFFFFFFFFFFFFFFFF DUP3 EQ ISZERO PUSH2 0xA01 JUMPI PUSH2 0xA00 PUSH2 0xA3D JUMP JUMPDEST JUMPDEST PUSH1 0x1 DUP3 ADD SWAP1 POP SWAP2 SWAP1 POP JUMP JUMPDEST PUSH1 0x0 PUSH2 0xA17 DUP3 PUSH2 0x914 JUMP JUMPDEST SWAP2 POP PUSH2 0xA22 DUP4 PUSH2 0x914 JUMP JUMPDEST SWAP3 POP DUP3 PUSH2 0xA32 JUMPI PUSH2 0xA31 PUSH2 0xA6C JUMP JUMPDEST JUMPDEST DUP3 DUP3 MOD SWAP1 POP SWAP3 SWAP2 POP POP JUMP JUMPDEST PUSH32 0x4E487B7100000000000000000000000000000000000000000000000000000000 PUSH1 0x0 MSTORE PUSH1 0x11 PUSH1 0x4 MSTORE PUSH1 0x24 PUSH1 0x0 REVERT JUMPDEST PUSH32 0x4E487B7100000000000000000000000000000000000000000000000000000000 PUSH1 0x0 MSTORE PUSH1 0x12 PUSH1 0x4 MSTORE PUSH1 0x24 PUSH1 0x0 REVERT JUMPDEST PUSH32 0x4E487B7100000000000000000000000000000000000000000000000000000000 PUSH1 0x0 MSTORE PUSH1 0x22 PUSH1 0x4 MSTORE PUSH1 0x24 PUSH1 0x0 REVERT JUMPDEST PUSH32 0x4E487B7100000000000000000000000000000000000000000000000000000000 PUSH1 0x0 MSTORE PUSH1 0x32 PUSH1 0x4 MSTORE PUSH1 0x24 PUSH1 0x0 REVERT JUMPDEST PUSH32 0x4E487B7100000000000000000000000000000000000000000000000000000000 PUSH1 0x0 MSTORE PUSH1 0x41 PUSH1 0x4 MSTORE PUSH1 0x24 PUSH1 0x0 REVERT JUMPDEST PUSH1 0x0 DUP1 REVERT JUMPDEST PUSH1 0x0 DUP1 REVERT JUMPDEST PUSH1 0x0 DUP1 REVERT JUMPDEST PUSH1 0x0 DUP1 REVERT JUMPDEST PUSH1 0x0 PUSH1 0x1F NOT PUSH1 0x1F DUP4 ADD AND SWAP1 POP SWAP2 SWAP1 POP JUMP JUMPDEST PUSH2 0xB56 DUP2 PUSH2 0x914 JUMP JUMPDEST DUP2 EQ PUSH2 0xB61 JUMPI PUSH1 0x0 DUP1 REVERT JUMPDEST POP JUMP INVALID LOG2 PUSH5 0x6970667358 0x22 SLT KECCAK256 PUSH17 0x26A55F55BA41F17F3F2DD856EAA825629E 0xF9 0xC BLOCKHASH CALLER 0x22 CHAINID SWAP3 PUSH14 0x67843A834F4464736F6C63430008 SMOD STOP CALLER "
				},
				"gasEstimates": {
					"creation": {
						"codeDepositCost": "594000",
						"executionCost": "infinite",
						"totalCost": "infinite"
					},
					"external": {
						"createZombie(string,uint256)": "infinite",
						"feedAndMultiply(uint256,uint256)": "infinite",
						"generateRandomZombie(string)": "infinite",
						"zombies(uint256)": "infinite"
					}
				},
				"methodIdentifiers": {
					"createZombie(string,uint256)": "09639373",
					"feedAndMultiply(uint256,uint256)": "0dedffb8",
					"generateRandomZombie(string)": "c6f15112",
					"zombies(uint256)": "2052465e"
				}
			},
			"storageLayout": {
				"storage": [
					{
						"astId": 4,
						"contract": "contracts/Zombiefeeding.sol:ZombieFeeding",
						"label": "dnaDigits",
						"offset": 0,
						"slot": "0",
						"type": "t_uint256"
					},
					{
						"astId": 9,
						"contract": "contracts/Zombiefeeding.sol:ZombieFeeding",
						"label": "dnaModulus",
						"offset": 0,
						"slot": "1",
						"type": "t_uint256"
					},
					{
						"astId": 26,
						"contract": "contracts/Zombiefeeding.sol:ZombieFeeding",
						"label": "zombies",
						"offset": 0,
						"slot": "2",
						"type": "t_array(t_struct(Zombie)22_storage)dyn_storage"
					},
					{
						"astId": 30,
						"contract": "contracts/Zombiefeeding.sol:ZombieFeeding",
						"label": "zombieToOwner",
						"offset": 0,
						"slot": "3",
						"type": "t_mapping(t_uint256,t_address)"
					},
					{
						"astId": 34,
						"contract": "contracts/Zombiefeeding.sol:ZombieFeeding",
						"label": "ownerZombieCount",
						"offset": 0,
						"slot": "4",
						"type": "t_mapping(t_address,t_uint256)"
					}
				],
				"types": {
					"t_address": {
						"encoding": "inplace",
						"label": "address",
						"numberOfBytes": "20"
					},
					"t_array(t_struct(Zombie)22_storage)dyn_storage": {
						"base": "t_struct(Zombie)22_storage",
						"encoding": "dynamic_array",
						"label": "struct ZombieFactory.Zombie[]",
						"numberOfBytes": "32"
					},
					"t_mapping(t_address,t_uint256)": {
						"encoding": "mapping",
						"key": "t_address",
						"label": "mapping(address => uint256)",
						"numberOfBytes": "32",
						"value": "t_uint256"
					},
					"t_mapping(t_uint256,t_address)": {
						"encoding": "mapping",
						"key": "t_uint256",
						"label": "mapping(uint256 => address)",
						"numberOfBytes": "32",
						"value": "t_address"
					},
					"t_string_storage": {
						"encoding": "bytes",
						"label": "string",
						"numberOfBytes": "32"
					},
					"t_struct(Zombie)22_storage": {
						"encoding": "inplace",
						"label": "struct ZombieFactory.Zombie",
						"members": [
							{
								"astId": 19,
								"contract": "contracts/Zombiefeeding.sol:ZombieFeeding",
								"label": "dna",
								"offset": 0,
								"slot": "0",
								"type": "t_uint256"
							},
							{
								"astId": 21,
								"contract": "contracts/Zombiefeeding.sol:ZombieFeeding",
								"label": "name",
								"offset": 0,
								"slot": "1",
								"type": "t_string_storage"
							}
						],
						"numberOfBytes": "64"
					},
					"t_uint256": {
						"encoding": "inplace",
						"label": "uint256",
						"numberOfBytes": "32"
					}
				}
			},
			"userdoc": {
				"kind": "user",
				"methods": {},
				"version": 1
			}
		}
	}
}