{
	"data": {
		"bytecode": {
			"linkReferences": {},
			"object": "60806040526010600055600054600a6200001a91906200008c565b6001553480156200002a57600080fd5b506200020f565b6000808291508390505b600185111562000083578086048111156200005b576200005a620001d3565b5b60018516156200006b5780820291505b80810290506200007b8562000202565b94506200003b565b94509492505050565b60006200009982620001c9565b9150620000a683620001c9565b9250620000d57fffffffffffffffffffffffffffffffffffffffffffffffffffffffffffffffff8484620000dd565b905092915050565b600082620000ef5760019050620001c2565b81620000ff5760009050620001c2565b8160018114620001185760028114620001235762000159565b6001915050620001c2565b60ff841115620001385762000137620001d3565b5b8360020a915084821115620001525762000151620001d3565b5b50620001c2565b5060208310610133831016604e8410600b8410161715620001935782820a9050838111156200018d576200018c620001d3565b5b620001c2565b620001a2848484600162000031565b92509050818404811115620001bc57620001bb620001d3565b5b81810290505b9392505050565b6000819050919050565b7f4e487b7100000000000000000000000000000000000000000000000000000000600052601160045260246000fd5b60008160011c9050919050565b6109bc806200021f6000396000f3fe608060405234801561001057600080fd5b50600436106100415760003560e01c80630dedffb8146100465780632052465e14610062578063c6f1511214610093575b600080fd5b610060600480360381019061005b9190610576565b6100af565b005b61007c60048036038101906100779190610549565b6100ff565b60405161008a929190610646565b60405180910390f35b6100ad60048036038101906100a89190610500565b6101bb565b005b6000600460003373ffffffffffffffffffffffffffffffffffffffff1673ffffffffffffffffffffffffffffffffffffffff16815260200190815260200160002054146100fb57600080fd5b5050565b6002818154811061010f57600080fd5b9060005260206000209060020201600091509050806000015490806001018054610138906107b1565b80601f0160208091040260200160405190810160405280929190818152602001828054610164906107b1565b80156101b15780601f10610186576101008083540402835291602001916101b1565b820191906000526020600020905b81548152906001019060200180831161019457829003601f168201915b5050505050905082565b6000600460003373ffffffffffffffffffffffffffffffffffffffff1673ffffffffffffffffffffffffffffffffffffffff168152602001908152602001600020541461020757600080fd5b600061021282610222565b905061021e8282610267565b5050565b60008082604051602001610236919061062f565b6040516020818303038152906040528051906020012060001c90506001548161025f919061085d565b915050919050565b600260405180604001604052808381526020018481525090806001815401808255809150506001900390600052602060002090600202016000909190919091506000820151816000015560208201518160010190805190602001906102cd9291906103d8565b505050336003600060016002805490506102e79190610731565b815260200190815260200160002060006101000a81548173ffffffffffffffffffffffffffffffffffffffff021916908373ffffffffffffffffffffffffffffffffffffffff160217905550600460003373ffffffffffffffffffffffffffffffffffffffff1673ffffffffffffffffffffffffffffffffffffffff168152602001908152602001600020600081548092919061038390610814565b91905055507f88f026aacbbecc90c18411df4b1185fd8d9be2470f1962f192bf84a27d0704b760016002805490506103bb9190610731565b83836040516103cc93929190610676565b60405180910390a15050565b8280546103e4906107b1565b90600052602060002090601f016020900481019282610406576000855561044d565b82601f1061041f57805160ff191683800117855561044d565b8280016001018555821561044d579182015b8281111561044c578251825591602001919060010190610431565b5b50905061045a919061045e565b5090565b5b8082111561047757600081600090555060010161045f565b5090565b600061048e610489846106d9565b6106b4565b9050828152602081018484840111156104aa576104a961094f565b5b6104b584828561076f565b509392505050565b600082601f8301126104d2576104d161094a565b5b81356104e284826020860161047b565b91505092915050565b6000813590506104fa8161096f565b92915050565b60006020828403121561051657610515610959565b5b600082013567ffffffffffffffff81111561053457610533610954565b5b610540848285016104bd565b91505092915050565b60006020828403121561055f5761055e610959565b5b600061056d848285016104eb565b91505092915050565b6000806040838503121561058d5761058c610959565b5b600061059b858286016104eb565b92505060206105ac858286016104eb565b9150509250929050565b60006105c18261070a565b6105cb8185610715565b93506105db81856020860161077e565b6105e48161095e565b840191505092915050565b60006105fa8261070a565b6106048185610726565b935061061481856020860161077e565b80840191505092915050565b61062981610765565b82525050565b600061063b82846105ef565b915081905092915050565b600060408201905061065b6000830185610620565b818103602083015261066d81846105b6565b90509392505050565b600060608201905061068b6000830186610620565b818103602083015261069d81856105b6565b90506106ac6040830184610620565b949350505050565b60006106be6106cf565b90506106ca82826107e3565b919050565b6000604051905090565b600067ffffffffffffffff8211156106f4576106f361091b565b5b6106fd8261095e565b9050602081019050919050565b600081519050919050565b600082825260208201905092915050565b600081905092915050565b600061073c82610765565b915061074783610765565b92508282101561075a5761075961088e565b5b828203905092915050565b6000819050919050565b82818337600083830152505050565b60005b8381101561079c578082015181840152602081019050610781565b838111156107ab576000848401525b50505050565b600060028204905060018216806107c957607f821691505b602082108114156107dd576107dc6108ec565b5b50919050565b6107ec8261095e565b810181811067ffffffffffffffff8211171561080b5761080a61091b565b5b80604052505050565b600061081f82610765565b91507fffffffffffffffffffffffffffffffffffffffffffffffffffffffffffffffff8214156108525761085161088e565b5b600182019050919050565b600061086882610765565b915061087383610765565b925082610883576108826108bd565b5b828206905092915050565b7f4e487b7100000000000000000000000000000000000000000000000000000000600052601160045260246000fd5b7f4e487b7100000000000000000000000000000000000000000000000000000000600052601260045260246000fd5b7f4e487b7100000000000000000000000000000000000000000000000000000000600052602260045260246000fd5b7f4e487b7100000000000000000000000000000000000000000000000000000000600052604160045260246000fd5b600080fd5b600080fd5b600080fd5b600080fd5b6000601f19601f8301169050919050565b61097881610765565b811461098357600080fd5b5056fea26469706673582212200837b6679dcc6b68aa95a2c768ce7d343d7176f3151bcb0bf137eef9cd14501b64736f6c63430008070033",
			"opcodes": "PUSH1 0x80 PUSH1 0x40 MSTORE PUSH1 0x10 PUSH1 0x0 SSTORE PUSH1 0x0 SLOAD PUSH1 0xA PUSH3 0x1A SWAP2 SWAP1 PUSH3 0x8C JUMP JUMPDEST PUSH1 0x1 SSTORE CALLVALUE DUP1 ISZERO PUSH3 0x2A JUMPI PUSH1 0x0 DUP1 REVERT JUMPDEST POP PUSH3 0x20F JUMP JUMPDEST PUSH1 0x0 DUP1 DUP3 SWAP2 POP DUP4 SWAP1 POP JUMPDEST PUSH1 0x1 DUP6 GT ISZERO PUSH3 0x83 JUMPI DUP1 DUP7 DIV DUP2 GT ISZERO PUSH3 0x5B JUMPI PUSH3 0x5A PUSH3 0x1D3 JUMP JUMPDEST JUMPDEST PUSH1 0x1 DUP6 AND ISZERO PUSH3 0x6B JUMPI DUP1 DUP3 MUL SWAP2 POP JUMPDEST DUP1 DUP2 MUL SWAP1 POP PUSH3 0x7B DUP6 PUSH3 0x202 JUMP JUMPDEST SWAP5 POP PUSH3 0x3B JUMP JUMPDEST SWAP5 POP SWAP5 SWAP3 POP POP POP JUMP JUMPDEST PUSH1 0x0 PUSH3 0x99 DUP3 PUSH3 0x1C9 JUMP JUMPDEST SWAP2 POP PUSH3 0xA6 DUP4 PUSH3 0x1C9 JUMP JUMPDEST SWAP3 POP PUSH3 0xD5 PUSH32 0xFFFFFFFFFFFFFFFFFFFFFFFFFFFFFFFFFFFFFFFFFFFFFFFFFFFFFFFFFFFFFFFF DUP5 DUP5 PUSH3 0xDD JUMP JUMPDEST SWAP1 POP SWAP3 SWAP2 POP POP JUMP JUMPDEST PUSH1 0x0 DUP3 PUSH3 0xEF JUMPI PUSH1 0x1 SWAP1 POP PUSH3 0x1C2 JUMP JUMPDEST DUP2 PUSH3 0xFF JUMPI PUSH1 0x0 SWAP1 POP PUSH3 0x1C2 JUMP JUMPDEST DUP2 PUSH1 0x1 DUP2 EQ PUSH3 0x118 JUMPI PUSH1 0x2 DUP2 EQ PUSH3 0x123 JUMPI PUSH3 0x159 JUMP JUMPDEST PUSH1 0x1 SWAP2 POP POP PUSH3 0x1C2 JUMP JUMPDEST PUSH1 0xFF DUP5 GT ISZERO PUSH3 0x138 JUMPI PUSH3 0x137 PUSH3 0x1D3 JUMP JUMPDEST JUMPDEST DUP4 PUSH1 0x2 EXP SWAP2 POP DUP5 DUP3 GT ISZERO PUSH3 0x152 JUMPI PUSH3 0x151 PUSH3 0x1D3 JUMP JUMPDEST JUMPDEST POP PUSH3 0x1C2 JUMP JUMPDEST POP PUSH1 0x20 DUP4 LT PUSH2 0x133 DUP4 LT AND PUSH1 0x4E DUP5 LT PUSH1 0xB DUP5 LT AND OR ISZERO PUSH3 0x193 JUMPI DUP3 DUP3 EXP SWAP1 POP DUP4 DUP2 GT ISZERO PUSH3 0x18D JUMPI PUSH3 0x18C PUSH3 0x1D3 JUMP JUMPDEST JUMPDEST PUSH3 0x1C2 JUMP JUMPDEST PUSH3 0x1A2 DUP5 DUP5 DUP5 PUSH1 0x1 PUSH3 0x31 JUMP JUMPDEST SWAP3 POP SWAP1 POP DUP2 DUP5 DIV DUP2 GT ISZERO PUSH3 0x1BC JUMPI PUSH3 0x1BB PUSH3 0x1D3 JUMP JUMPDEST JUMPDEST DUP2 DUP2 MUL SWAP1 POP JUMPDEST SWAP4 SWAP3 POP POP POP JUMP JUMPDEST PUSH1 0x0 DUP2 SWAP1 POP SWAP2 SWAP1 POP JUMP JUMPDEST PUSH32 0x4E487B7100000000000000000000000000000000000000000000000000000000 PUSH1 0x0 MSTORE PUSH1 0x11 PUSH1 0x4 MSTORE PUSH1 0x24 PUSH1 0x0 REVERT JUMPDEST PUSH1 0x0 DUP2 PUSH1 0x1 SHR SWAP1 POP SWAP2 SWAP1 POP JUMP JUMPDEST PUSH2 0x9BC DUP1 PUSH3 0x21F PUSH1 0x0 CODECOPY PUSH1 0x0 RETURN INVALID PUSH1 0x80 PUSH1 0x40 MSTORE CALLVALUE DUP1 ISZERO PUSH2 0x10 JUMPI PUSH1 0x0 DUP1 REVERT JUMPDEST POP PUSH1 0x4 CALLDATASIZE LT PUSH2 0x41 JUMPI PUSH1 0x0 CALLDATALOAD PUSH1 0xE0 SHR DUP1 PUSH4 0xDEDFFB8 EQ PUSH2 0x46 JUMPI DUP1 PUSH4 0x2052465E EQ PUSH2 0x62 JUMPI DUP1 PUSH4 0xC6F15112 EQ PUSH2 0x93 JUMPI JUMPDEST PUSH1 0x0 DUP1 REVERT JUMPDEST PUSH2 0x60 PUSH1 0x4 DUP1 CALLDATASIZE SUB DUP2 ADD SWAP1 PUSH2 0x5B SWAP2 SWAP1 PUSH2 0x576 JUMP JUMPDEST PUSH2 0xAF JUMP JUMPDEST STOP JUMPDEST PUSH2 0x7C PUSH1 0x4 DUP1 CALLDATASIZE SUB DUP2 ADD SWAP1 PUSH2 0x77 SWAP2 SWAP1 PUSH2 0x549 JUMP JUMPDEST PUSH2 0xFF JUMP JUMPDEST PUSH1 0x40 MLOAD PUSH2 0x8A SWAP3 SWAP2 SWAP1 PUSH2 0x646 JUMP JUMPDEST PUSH1 0x40 MLOAD DUP1 SWAP2 SUB SWAP1 RETURN JUMPDEST PUSH2 0xAD PUSH1 0x4 DUP1 CALLDATASIZE SUB DUP2 ADD SWAP1 PUSH2 0xA8 SWAP2 SWAP1 PUSH2 0x500 JUMP JUMPDEST PUSH2 0x1BB JUMP JUMPDEST STOP JUMPDEST PUSH1 0x0 PUSH1 0x4 PUSH1 0x0 CALLER PUSH20 0xFFFFFFFFFFFFFFFFFFFFFFFFFFFFFFFFFFFFFFFF AND PUSH20 0xFFFFFFFFFFFFFFFFFFFFFFFFFFFFFFFFFFFFFFFF AND DUP2 MSTORE PUSH1 0x20 ADD SWAP1 DUP2 MSTORE PUSH1 0x20 ADD PUSH1 0x0 KECCAK256 SLOAD EQ PUSH2 0xFB JUMPI PUSH1 0x0 DUP1 REVERT JUMPDEST POP POP JUMP JUMPDEST PUSH1 0x2 DUP2 DUP2 SLOAD DUP2 LT PUSH2 0x10F JUMPI PUSH1 0x0 DUP1 REVERT JUMPDEST SWAP1 PUSH1 0x0 MSTORE PUSH1 0x20 PUSH1 0x0 KECCAK256 SWAP1 PUSH1 0x2 MUL ADD PUSH1 0x0 SWAP2 POP SWAP1 POP DUP1 PUSH1 0x0 ADD SLOAD SWAP1 DUP1 PUSH1 0x1 ADD DUP1 SLOAD PUSH2 0x138 SWAP1 PUSH2 0x7B1 JUMP JUMPDEST DUP1 PUSH1 0x1F ADD PUSH1 0x20 DUP1 SWAP2 DIV MUL PUSH1 0x20 ADD PUSH1 0x40 MLOAD SWAP1 DUP2 ADD PUSH1 0x40 MSTORE DUP1 SWAP3 SWAP2 SWAP1 DUP2 DUP2 MSTORE PUSH1 0x20 ADD DUP3 DUP1 SLOAD PUSH2 0x164 SWAP1 PUSH2 0x7B1 JUMP JUMPDEST DUP1 ISZERO PUSH2 0x1B1 JUMPI DUP1 PUSH1 0x1F LT PUSH2 0x186 JUMPI PUSH2 0x100 DUP1 DUP4 SLOAD DIV MUL DUP4 MSTORE SWAP2 PUSH1 0x20 ADD SWAP2 PUSH2 0x1B1 JUMP JUMPDEST DUP3 ADD SWAP2 SWAP1 PUSH1 0x0 MSTORE PUSH1 0x20 PUSH1 0x0 KECCAK256 SWAP1 JUMPDEST DUP2 SLOAD DUP2 MSTORE SWAP1 PUSH1 0x1 ADD SWAP1 PUSH1 0x20 ADD DUP1 DUP4 GT PUSH2 0x194 JUMPI DUP3 SWAP1 SUB PUSH1 0x1F AND DUP3 ADD SWAP2 JUMPDEST POP POP POP POP POP SWAP1 POP DUP3 JUMP JUMPDEST PUSH1 0x0 PUSH1 0x4 PUSH1 0x0 CALLER PUSH20 0xFFFFFFFFFFFFFFFFFFFFFFFFFFFFFFFFFFFFFFFF AND PUSH20 0xFFFFFFFFFFFFFFFFFFFFFFFFFFFFFFFFFFFFFFFF AND DUP2 MSTORE PUSH1 0x20 ADD SWAP1 DUP2 MSTORE PUSH1 0x20 ADD PUSH1 0x0 KECCAK256 SLOAD EQ PUSH2 0x207 JUMPI PUSH1 0x0 DUP1 REVERT JUMPDEST PUSH1 0x0 PUSH2 0x212 DUP3 PUSH2 0x222 JUMP JUMPDEST SWAP1 POP PUSH2 0x21E DUP3 DUP3 PUSH2 0x267 JUMP JUMPDEST POP POP JUMP JUMPDEST PUSH1 0x0 DUP1 DUP3 PUSH1 0x40 MLOAD PUSH1 0x20 ADD PUSH2 0x236 SWAP2 SWAP1 PUSH2 0x62F JUMP JUMPDEST PUSH1 0x40 MLOAD PUSH1 0x20 DUP2 DUP4 SUB SUB DUP2 MSTORE SWAP1 PUSH1 0x40 MSTORE DUP1 MLOAD SWAP1 PUSH1 0x20 ADD KECCAK256 PUSH1 0x0 SHR SWAP1 POP PUSH1 0x1 SLOAD DUP2 PUSH2 0x25F SWAP2 SWAP1 PUSH2 0x85D JUMP JUMPDEST SWAP2 POP POP SWAP2 SWAP1 POP JUMP JUMPDEST PUSH1 0x2 PUSH1 0x40 MLOAD DUP1 PUSH1 0x40 ADD PUSH1 0x40 MSTORE DUP1 DUP4 DUP2 MSTORE PUSH1 0x20 ADD DUP5 DUP2 MSTORE POP SWAP1 DUP1 PUSH1 0x1 DUP2 SLOAD ADD DUP1 DUP3 SSTORE DUP1 SWAP2 POP POP PUSH1 0x1 SWAP1 SUB SWAP1 PUSH1 0x0 MSTORE PUSH1 0x20 PUSH1 0x0 KECCAK256 SWAP1 PUSH1 0x2 MUL ADD PUSH1 0x0 SWAP1 SWAP2 SWAP1 SWAP2 SWAP1 SWAP2 POP PUSH1 0x0 DUP3 ADD MLOAD DUP2 PUSH1 0x0 ADD SSTORE PUSH1 0x20 DUP3 ADD MLOAD DUP2 PUSH1 0x1 ADD SWAP1 DUP1 MLOAD SWAP1 PUSH1 0x20 ADD SWAP1 PUSH2 0x2CD SWAP3 SWAP2 SWAP1 PUSH2 0x3D8 JUMP JUMPDEST POP POP POP CALLER PUSH1 0x3 PUSH1 0x0 PUSH1 0x1 PUSH1 0x2 DUP1 SLOAD SWAP1 POP PUSH2 0x2E7 SWAP2 SWAP1 PUSH2 0x731 JUMP JUMPDEST DUP2 MSTORE PUSH1 0x20 ADD SWAP1 DUP2 MSTORE PUSH1 0x20 ADD PUSH1 0x0 KECCAK256 PUSH1 0x0 PUSH2 0x100 EXP DUP2 SLOAD DUP2 PUSH20 0xFFFFFFFFFFFFFFFFFFFFFFFFFFFFFFFFFFFFFFFF MUL NOT AND SWAP1 DUP4 PUSH20 0xFFFFFFFFFFFFFFFFFFFFFFFFFFFFFFFFFFFFFFFF AND MUL OR SWAP1 SSTORE POP PUSH1 0x4 PUSH1 0x0 CALLER PUSH20 0xFFFFFFFFFFFFFFFFFFFFFFFFFFFFFFFFFFFFFFFF AND PUSH20 0xFFFFFFFFFFFFFFFFFFFFFFFFFFFFFFFFFFFFFFFF AND DUP2 MSTORE PUSH1 0x20 ADD SWAP1 DUP2 MSTORE PUSH1 0x20 ADD PUSH1 0x0 KECCAK256 PUSH1 0x0 DUP2 SLOAD DUP1 SWAP3 SWAP2 SWAP1 PUSH2 0x383 SWAP1 PUSH2 0x814 JUMP JUMPDEST SWAP2 SWAP1 POP SSTORE POP PUSH32 0x88F026AACBBECC90C18411DF4B1185FD8D9BE2470F1962F192BF84A27D0704B7 PUSH1 0x1 PUSH1 0x2 DUP1 SLOAD SWAP1 POP PUSH2 0x3BB SWAP2 SWAP1 PUSH2 0x731 JUMP JUMPDEST DUP4 DUP4 PUSH1 0x40 MLOAD PUSH2 0x3CC SWAP4 SWAP3 SWAP2 SWAP1 PUSH2 0x676 JUMP JUMPDEST PUSH1 0x40 MLOAD DUP1 SWAP2 SUB SWAP1 LOG1 POP POP JUMP JUMPDEST DUP3 DUP1 SLOAD PUSH2 0x3E4 SWAP1 PUSH2 0x7B1 JUMP JUMPDEST SWAP1 PUSH1 0x0 MSTORE PUSH1 0x20 PUSH1 0x0 KECCAK256 SWAP1 PUSH1 0x1F ADD PUSH1 0x20 SWAP1 DIV DUP2 ADD SWAP3 DUP3 PUSH2 0x406 JUMPI PUSH1 0x0 DUP6 SSTORE PUSH2 0x44D JUMP JUMPDEST DUP3 PUSH1 0x1F LT PUSH2 0x41F JUMPI DUP1 MLOAD PUSH1 0xFF NOT AND DUP4 DUP1 ADD OR DUP6 SSTORE PUSH2 0x44D JUMP JUMPDEST DUP3 DUP1 ADD PUSH1 0x1 ADD DUP6 SSTORE DUP3 ISZERO PUSH2 0x44D JUMPI SWAP2 DUP3 ADD JUMPDEST DUP3 DUP2 GT ISZERO PUSH2 0x44C JUMPI DUP3 MLOAD DUP3 SSTORE SWAP2 PUSH1 0x20 ADD SWAP2 SWAP1 PUSH1 0x1 ADD SWAP1 PUSH2 0x431 JUMP JUMPDEST JUMPDEST POP SWAP1 POP PUSH2 0x45A SWAP2 SWAP1 PUSH2 0x45E JUMP JUMPDEST POP SWAP1 JUMP JUMPDEST JUMPDEST DUP1 DUP3 GT ISZERO PUSH2 0x477 JUMPI PUSH1 0x0 DUP2 PUSH1 0x0 SWAP1 SSTORE POP PUSH1 0x1 ADD PUSH2 0x45F JUMP JUMPDEST POP SWAP1 JUMP JUMPDEST PUSH1 0x0 PUSH2 0x48E PUSH2 0x489 DUP5 PUSH2 0x6D9 JUMP JUMPDEST PUSH2 0x6B4 JUMP JUMPDEST SWAP1 POP DUP3 DUP2 MSTORE PUSH1 0x20 DUP2 ADD DUP5 DUP5 DUP5 ADD GT ISZERO PUSH2 0x4AA JUMPI PUSH2 0x4A9 PUSH2 0x94F JUMP JUMPDEST JUMPDEST PUSH2 0x4B5 DUP5 DUP3 DUP6 PUSH2 0x76F JUMP JUMPDEST POP SWAP4 SWAP3 POP POP POP JUMP JUMPDEST PUSH1 0x0 DUP3 PUSH1 0x1F DUP4 ADD SLT PUSH2 0x4D2 JUMPI PUSH2 0x4D1 PUSH2 0x94A JUMP JUMPDEST JUMPDEST DUP2 CALLDATALOAD PUSH2 0x4E2 DUP5 DUP3 PUSH1 0x20 DUP7 ADD PUSH2 0x47B JUMP JUMPDEST SWAP2 POP POP SWAP3 SWAP2 POP POP JUMP JUMPDEST PUSH1 0x0 DUP2 CALLDATALOAD SWAP1 POP PUSH2 0x4FA DUP2 PUSH2 0x96F JUMP JUMPDEST SWAP3 SWAP2 POP POP JUMP JUMPDEST PUSH1 0x0 PUSH1 0x20 DUP3 DUP5 SUB SLT ISZERO PUSH2 0x516 JUMPI PUSH2 0x515 PUSH2 0x959 JUMP JUMPDEST JUMPDEST PUSH1 0x0 DUP3 ADD CALLDATALOAD PUSH8 0xFFFFFFFFFFFFFFFF DUP2 GT ISZERO PUSH2 0x534 JUMPI PUSH2 0x533 PUSH2 0x954 JUMP JUMPDEST JUMPDEST PUSH2 0x540 DUP5 DUP3 DUP6 ADD PUSH2 0x4BD JUMP JUMPDEST SWAP2 POP POP SWAP3 SWAP2 POP POP JUMP JUMPDEST PUSH1 0x0 PUSH1 0x20 DUP3 DUP5 SUB SLT ISZERO PUSH2 0x55F JUMPI PUSH2 0x55E PUSH2 0x959 JUMP JUMPDEST JUMPDEST PUSH1 0x0 PUSH2 0x56D DUP5 DUP3 DUP6 ADD PUSH2 0x4EB JUMP JUMPDEST SWAP2 POP POP SWAP3 SWAP2 POP POP JUMP JUMPDEST PUSH1 0x0 DUP1 PUSH1 0x40 DUP4 DUP6 SUB SLT ISZERO PUSH2 0x58D JUMPI PUSH2 0x58C PUSH2 0x959 JUMP JUMPDEST JUMPDEST PUSH1 0x0 PUSH2 0x59B DUP6 DUP3 DUP7 ADD PUSH2 0x4EB JUMP JUMPDEST SWAP3 POP POP PUSH1 0x20 PUSH2 0x5AC DUP6 DUP3 DUP7 ADD PUSH2 0x4EB JUMP JUMPDEST SWAP2 POP POP SWAP3 POP SWAP3 SWAP1 POP JUMP JUMPDEST PUSH1 0x0 PUSH2 0x5C1 DUP3 PUSH2 0x70A JUMP JUMPDEST PUSH2 0x5CB DUP2 DUP6 PUSH2 0x715 JUMP JUMPDEST SWAP4 POP PUSH2 0x5DB DUP2 DUP6 PUSH1 0x20 DUP7 ADD PUSH2 0x77E JUMP JUMPDEST PUSH2 0x5E4 DUP2 PUSH2 0x95E JUMP JUMPDEST DUP5 ADD SWAP2 POP POP SWAP3 SWAP2 POP POP JUMP JUMPDEST PUSH1 0x0 PUSH2 0x5FA DUP3 PUSH2 0x70A JUMP JUMPDEST PUSH2 0x604 DUP2 DUP6 PUSH2 0x726 JUMP JUMPDEST SWAP4 POP PUSH2 0x614 DUP2 DUP6 PUSH1 0x20 DUP7 ADD PUSH2 0x77E JUMP JUMPDEST DUP1 DUP5 ADD SWAP2 POP POP SWAP3 SWAP2 POP POP JUMP JUMPDEST PUSH2 0x629 DUP2 PUSH2 0x765 JUMP JUMPDEST DUP3 MSTORE POP POP JUMP JUMPDEST PUSH1 0x0 PUSH2 0x63B DUP3 DUP5 PUSH2 0x5EF JUMP JUMPDEST SWAP2 POP DUP2 SWAP1 POP SWAP3 SWAP2 POP POP JUMP JUMPDEST PUSH1 0x0 PUSH1 0x40 DUP3 ADD SWAP1 POP PUSH2 0x65B PUSH1 0x0 DUP4 ADD DUP6 PUSH2 0x620 JUMP JUMPDEST DUP2 DUP2 SUB PUSH1 0x20 DUP4 ADD MSTORE PUSH2 0x66D DUP2 DUP5 PUSH2 0x5B6 JUMP JUMPDEST SWAP1 POP SWAP4 SWAP3 POP POP POP JUMP JUMPDEST PUSH1 0x0 PUSH1 0x60 DUP3 ADD SWAP1 POP PUSH2 0x68B PUSH1 0x0 DUP4 ADD DUP7 PUSH2 0x620 JUMP JUMPDEST DUP2 DUP2 SUB PUSH1 0x20 DUP4 ADD MSTORE PUSH2 0x69D DUP2 DUP6 PUSH2 0x5B6 JUMP JUMPDEST SWAP1 POP PUSH2 0x6AC PUSH1 0x40 DUP4 ADD DUP5 PUSH2 0x620 JUMP JUMPDEST SWAP5 SWAP4 POP POP POP POP JUMP JUMPDEST PUSH1 0x0 PUSH2 0x6BE PUSH2 0x6CF JUMP JUMPDEST SWAP1 POP PUSH2 0x6CA DUP3 DUP3 PUSH2 0x7E3 JUMP JUMPDEST SWAP2 SWAP1 POP JUMP JUMPDEST PUSH1 0x0 PUSH1 0x40 MLOAD SWAP1 POP SWAP1 JUMP JUMPDEST PUSH1 0x0 PUSH8 0xFFFFFFFFFFFFFFFF DUP3 GT ISZERO PUSH2 0x6F4 JUMPI PUSH2 0x6F3 PUSH2 0x91B JUMP JUMPDEST JUMPDEST PUSH2 0x6FD DUP3 PUSH2 0x95E JUMP JUMPDEST SWAP1 POP PUSH1 0x20 DUP2 ADD SWAP1 POP SWAP2 SWAP1 POP JUMP JUMPDEST PUSH1 0x0 DUP2 MLOAD SWAP1 POP SWAP2 SWAP1 POP JUMP JUMPDEST PUSH1 0x0 DUP3 DUP3 MSTORE PUSH1 0x20 DUP3 ADD SWAP1 POP SWAP3 SWAP2 POP POP JUMP JUMPDEST PUSH1 0x0 DUP2 SWAP1 POP SWAP3 SWAP2 POP POP JUMP JUMPDEST PUSH1 0x0 PUSH2 0x73C DUP3 PUSH2 0x765 JUMP JUMPDEST SWAP2 POP PUSH2 0x747 DUP4 PUSH2 0x765 JUMP JUMPDEST SWAP3 POP DUP3 DUP3 LT ISZERO PUSH2 0x75A JUMPI PUSH2 0x759 PUSH2 0x88E JUMP JUMPDEST JUMPDEST DUP3 DUP3 SUB SWAP1 POP SWAP3 SWAP2 POP POP JUMP JUMPDEST PUSH1 0x0 DUP2 SWAP1 POP SWAP2 SWAP1 POP JUMP JUMPDEST DUP3 DUP2 DUP4 CALLDATACOPY PUSH1 0x0 DUP4 DUP4 ADD MSTORE POP POP POP JUMP JUMPDEST PUSH1 0x0 JUMPDEST DUP4 DUP2 LT ISZERO PUSH2 0x79C JUMPI DUP1 DUP3 ADD MLOAD DUP2 DUP5 ADD MSTORE PUSH1 0x20 DUP2 ADD SWAP1 POP PUSH2 0x781 JUMP JUMPDEST DUP4 DUP2 GT ISZERO PUSH2 0x7AB JUMPI PUSH1 0x0 DUP5 DUP5 ADD MSTORE JUMPDEST POP POP POP POP JUMP JUMPDEST PUSH1 0x0 PUSH1 0x2 DUP3 DIV SWAP1 POP PUSH1 0x1 DUP3 AND DUP1 PUSH2 0x7C9 JUMPI PUSH1 0x7F DUP3 AND SWAP2 POP JUMPDEST PUSH1 0x20 DUP3 LT DUP2 EQ ISZERO PUSH2 0x7DD JUMPI PUSH2 0x7DC PUSH2 0x8EC JUMP JUMPDEST JUMPDEST POP SWAP2 SWAP1 POP JUMP JUMPDEST PUSH2 0x7EC DUP3 PUSH2 0x95E JUMP JUMPDEST DUP2 ADD DUP2 DUP2 LT PUSH8 0xFFFFFFFFFFFFFFFF DUP3 GT OR ISZERO PUSH2 0x80B JUMPI PUSH2 0x80A PUSH2 0x91B JUMP JUMPDEST JUMPDEST DUP1 PUSH1 0x40 MSTORE POP POP POP JUMP JUMPDEST PUSH1 0x0 PUSH2 0x81F DUP3 PUSH2 0x765 JUMP JUMPDEST SWAP2 POP PUSH32 0xFFFFFFFFFFFFFFFFFFFFFFFFFFFFFFFFFFFFFFFFFFFFFFFFFFFFFFFFFFFFFFFF DUP3 EQ ISZERO PUSH2 0x852 JUMPI PUSH2 0x851 PUSH2 0x88E JUMP JUMPDEST JUMPDEST PUSH1 0x1 DUP3 ADD SWAP1 POP SWAP2 SWAP1 POP JUMP JUMPDEST PUSH1 0x0 PUSH2 0x868 DUP3 PUSH2 0x765 JUMP JUMPDEST SWAP2 POP PUSH2 0x873 DUP4 PUSH2 0x765 JUMP JUMPDEST SWAP3 POP DUP3 PUSH2 0x883 JUMPI PUSH2 0x882 PUSH2 0x8BD JUMP JUMPDEST JUMPDEST DUP3 DUP3 MOD SWAP1 POP SWAP3 SWAP2 POP POP JUMP JUMPDEST PUSH32 0x4E487B7100000000000000000000000000000000000000000000000000000000 PUSH1 0x0 MSTORE PUSH1 0x11 PUSH1 0x4 MSTORE PUSH1 0x24 PUSH1 0x0 REVERT JUMPDEST PUSH32 0x4E487B7100000000000000000000000000000000000000000000000000000000 PUSH1 0x0 MSTORE PUSH1 0x12 PUSH1 0x4 MSTORE PUSH1 0x24 PUSH1 0x0 REVERT JUMPDEST PUSH32 0x4E487B7100000000000000000000000000000000000000000000000000000000 PUSH1 0x0 MSTORE PUSH1 0x22 PUSH1 0x4 MSTORE PUSH1 0x24 PUSH1 0x0 REVERT JUMPDEST PUSH32 0x4E487B7100000000000000000000000000000000000000000000000000000000 PUSH1 0x0 MSTORE PUSH1 0x41 PUSH1 0x4 MSTORE PUSH1 0x24 PUSH1 0x0 REVERT JUMPDEST PUSH1 0x0 DUP1 REVERT JUMPDEST PUSH1 0x0 DUP1 REVERT JUMPDEST PUSH1 0x0 DUP1 REVERT JUMPDEST PUSH1 0x0 DUP1 REVERT JUMPDEST PUSH1 0x0 PUSH1 0x1F NOT PUSH1 0x1F DUP4 ADD AND SWAP1 POP SWAP2 SWAP1 POP JUMP JUMPDEST PUSH2 0x978 DUP2 PUSH2 0x765 JUMP JUMPDEST DUP2 EQ PUSH2 0x983 JUMPI PUSH1 0x0 DUP1 REVERT JUMPDEST POP JUMP INVALID LOG2 PUSH5 0x6970667358 0x22 SLT KECCAK256 ADDMOD CALLDATACOPY 0xB6 PUSH8 0x9DCC6B68AA95A2C7 PUSH9 0xCE7D343D7176F3151B 0xCB SIGNEXTEND CALL CALLDATACOPY 0xEE 0xF9 0xCD EQ POP SHL PUSH5 0x736F6C6343 STOP ADDMOD SMOD STOP CALLER "
		},
		"gasEstimates": {
			"creation": {
				"codeDepositCost": "498400",
				"executionCost": "infinite",
				"totalCost": "infinite"
			},
			"external": {
				"feedAndMultiply(uint256,uint256)": "infinite",
				"generateRandomZombie(string)": "infinite",
				"zombies(uint256)": "infinite"
			}
		},
		"methodIdentifiers": {
			"feedAndMultiply(uint256,uint256)": "0dedffb8",
			"generateRandomZombie(string)": "c6f15112",
			"zombies(uint256)": "2052465e"
		}
	},
	"abi": [
		{
			"anonymous": false,
			"inputs": [
				{
					"indexed": false,
					"internalType": "uint256",
					"name": "zombieId",
					"type": "uint256"
				},
				{
					"indexed": false,
					"internalType": "string",
					"name": "name",
					"type": "string"
				},
				{
					"indexed": false,
					"internalType": "uint256",
					"name": "dna",
					"type": "uint256"
				}
			],
			"name": "NewZombie",
			"type": "event"
		},
		{
			"inputs": [
				{
					"internalType": "uint256",
					"name": "_zombieId",
					"type": "uint256"
				},
				{
					"internalType": "uint256",
					"name": "_targetDna",
					"type": "uint256"
				}
			],
			"name": "feedAndMultiply",
			"outputs": [],
			"stateMutability": "nonpayable",
			"type": "function"
		},
		{
			"inputs": [
				{
					"internalType": "string",
					"name": "_name",
					"type": "string"
				}
			],
			"name": "generateRandomZombie",
			"outputs": [],
			"stateMutability": "nonpayable",
			"type": "function"
		},
		{
			"inputs": [
				{
					"internalType": "uint256",
					"name": "",
					"type": "uint256"
				}
			],
			"name": "zombies",
			"outputs": [
				{
					"internalType": "uint256",
					"name": "dna",
					"type": "uint256"
				},
				{
					"internalType": "string",
					"name": "name",
					"type": "string"
				}
			],
			"stateMutability": "view",
			"type": "function"
		}
	]
}