{
	"data": {
		"bytecode": {
			"linkReferences": {},
			"object": "60806040526010600055600054600a6200001a9190620001be565b6001553480156200002a57600080fd5b506200020f565b7f4e487b7100000000000000000000000000000000000000000000000000000000600052601160045260246000fd5b60008160011c9050919050565b6000808291508390505b6001851115620000bf5780860481111562000097576200009662000031565b5b6001851615620000a75780820291505b8081029050620000b78562000060565b945062000077565b94509492505050565b600082620000da5760019050620001ad565b81620000ea5760009050620001ad565b81600181146200010357600281146200010e5762000144565b6001915050620001ad565b60ff84111562000123576200012262000031565b5b8360020a9150848211156200013d576200013c62000031565b5b50620001ad565b5060208310610133831016604e8410600b84101617156200017e5782820a90508381111562000178576200017762000031565b5b620001ad565b6200018d84848460016200006d565b92509050818404811115620001a757620001a662000031565b5b81810290505b9392505050565b6000819050919050565b6000620001cb82620001b4565b9150620001d883620001b4565b9250620002077fffffffffffffffffffffffffffffffffffffffffffffffffffffffffffffffff8484620000c8565b905092915050565b610fd2806200021f6000396000f3fe608060405234801561001057600080fd5b50600436106100575760003560e01c806317a7f4cc1461005c5780632052465e146100785780635f4623f1146100a95780636b0bfc80146100c5578063c6f15112146100e1575b600080fd5b61007660048036038101906100719190610785565b6100fd565b005b610092600480360381019061008d91906107c5565b61021b565b6040516100a092919061089a565b60405180910390f35b6100c360048036038101906100be9190610928565b6102d7565b005b6100df60048036038101906100da9190610a8a565b61031b565b005b6100fb60048036038101906100f69190610af9565b61047b565b005b6000600560009054906101000a900473ffffffffffffffffffffffffffffffffffffffff1673ffffffffffffffffffffffffffffffffffffffff1663e98b7f4d836040518263ffffffff1660e01b815260040161015a9190610b42565b61014060405180830381865afa158015610178573d6000803e3d6000fd5b505050506040513d601f19601f8201168201806040525081019061019c9190610baa565b9091929394959697985090919293949596975090919293949596509091929394955090919293945090919293509091925090915090508091505061021683826040518060400160405280600581526020017f6b6974747900000000000000000000000000000000000000000000000000000081525061031b565b505050565b6002818154811061022b57600080fd5b906000526020600020906002020160009150905080600001549080600101805461025490610cb8565b80601f016020809104026020016040519081016040528092919081815260200182805461028090610cb8565b80156102cd5780601f106102a2576101008083540402835291602001916102cd565b820191906000526020600020905b8154815290600101906020018083116102b057829003601f168201915b5050505050905082565b80600560006101000a81548173ffffffffffffffffffffffffffffffffffffffff021916908373ffffffffffffffffffffffffffffffffffffffff16021790555050565b6000600460003373ffffffffffffffffffffffffffffffffffffffff1673ffffffffffffffffffffffffffffffffffffffff168152602001908152602001600020541461036757600080fd5b60006002848154811061037d5761037c610ce9565b5b906000526020600020906002020190506001548361039b9190610d47565b9250600060028260000154856103b19190610da7565b6103bb9190610dfd565b90506040516020016103cc90610e85565b60405160208183030381529060405280519060200120836040516020016103f39190610ecb565b604051602081830303815290604052805190602001200361043557606360648261041d9190610d47565b826104289190610ee2565b6104329190610da7565b90505b6104746040518060400160405280600681526020017f4e6f4e616d650000000000000000000000000000000000000000000000000000815250826104e2565b5050505050565b6000600460003373ffffffffffffffffffffffffffffffffffffffff1673ffffffffffffffffffffffffffffffffffffffff16815260200190815260200160002054146104c757600080fd5b60006104d282610653565b90506104de82826104e2565b5050565b60026040518060400160405280838152602001848152509080600181540180825580915050600190039060005260206000209060020201600090919091909150600082015181600001556020820151816001019080519060200190610548929190610698565b505050336003600060016002805490506105629190610ee2565b815260200190815260200160002060006101000a81548173ffffffffffffffffffffffffffffffffffffffff021916908373ffffffffffffffffffffffffffffffffffffffff160217905550600460003373ffffffffffffffffffffffffffffffffffffffff1673ffffffffffffffffffffffffffffffffffffffff16815260200190815260200160002060008154809291906105fe90610f16565b91905055507f88f026aacbbecc90c18411df4b1185fd8d9be2470f1962f192bf84a27d0704b760016002805490506106369190610ee2565b838360405161064793929190610f5e565b60405180910390a15050565b600080826040516020016106679190610ecb565b6040516020818303038152906040528051906020012060001c9050600154816106909190610d47565b915050919050565b8280546106a490610cb8565b90600052602060002090601f0160209004810192826106c6576000855561070d565b82601f106106df57805160ff191683800117855561070d565b8280016001018555821561070d579182015b8281111561070c5782518255916020019190600101906106f1565b5b50905061071a919061071e565b5090565b5b8082111561073757600081600090555060010161071f565b5090565b6000604051905090565b600080fd5b600080fd5b6000819050919050565b6107628161074f565b811461076d57600080fd5b50565b60008135905061077f81610759565b92915050565b6000806040838503121561079c5761079b610745565b5b60006107aa85828601610770565b92505060206107bb85828601610770565b9150509250929050565b6000602082840312156107db576107da610745565b5b60006107e984828501610770565b91505092915050565b6107fb8161074f565b82525050565b600081519050919050565b600082825260208201905092915050565b60005b8381101561083b578082015181840152602081019050610820565b8381111561084a576000848401525b50505050565b6000601f19601f8301169050919050565b600061086c82610801565b610876818561080c565b935061088681856020860161081d565b61088f81610850565b840191505092915050565b60006040820190506108af60008301856107f2565b81810360208301526108c18184610861565b90509392505050565b600073ffffffffffffffffffffffffffffffffffffffff82169050919050565b60006108f5826108ca565b9050919050565b610905816108ea565b811461091057600080fd5b50565b600081359050610922816108fc565b92915050565b60006020828403121561093e5761093d610745565b5b600061094c84828501610913565b91505092915050565b600080fd5b600080fd5b7f4e487b7100000000000000000000000000000000000000000000000000000000600052604160045260246000fd5b61099782610850565b810181811067ffffffffffffffff821117156109b6576109b561095f565b5b80604052505050565b60006109c961073b565b90506109d5828261098e565b919050565b600067ffffffffffffffff8211156109f5576109f461095f565b5b6109fe82610850565b9050602081019050919050565b82818337600083830152505050565b6000610a2d610a28846109da565b6109bf565b905082815260208101848484011115610a4957610a4861095a565b5b610a54848285610a0b565b509392505050565b600082601f830112610a7157610a70610955565b5b8135610a81848260208601610a1a565b91505092915050565b600080600060608486031215610aa357610aa2610745565b5b6000610ab186828701610770565b9350506020610ac286828701610770565b925050604084013567ffffffffffffffff811115610ae357610ae261074a565b5b610aef86828701610a5c565b9150509250925092565b600060208284031215610b0f57610b0e610745565b5b600082013567ffffffffffffffff811115610b2d57610b2c61074a565b5b610b3984828501610a5c565b91505092915050565b6000602082019050610b5760008301846107f2565b92915050565b60008115159050919050565b610b7281610b5d565b8114610b7d57600080fd5b50565b600081519050610b8f81610b69565b92915050565b600081519050610ba481610759565b92915050565b6000806000806000806000806000806101408b8d031215610bce57610bcd610745565b5b6000610bdc8d828e01610b80565b9a50506020610bed8d828e01610b80565b9950506040610bfe8d828e01610b95565b9850506060610c0f8d828e01610b95565b9750506080610c208d828e01610b95565b96505060a0610c318d828e01610b95565b95505060c0610c428d828e01610b95565b94505060e0610c538d828e01610b95565b935050610100610c658d828e01610b95565b925050610120610c778d828e01610b95565b9150509295989b9194979a5092959850565b7f4e487b7100000000000000000000000000000000000000000000000000000000600052602260045260246000fd5b60006002820490506001821680610cd057607f821691505b602082108103610ce357610ce2610c89565b5b50919050565b7f4e487b7100000000000000000000000000000000000000000000000000000000600052603260045260246000fd5b7f4e487b7100000000000000000000000000000000000000000000000000000000600052601260045260246000fd5b6000610d528261074f565b9150610d5d8361074f565b925082610d6d57610d6c610d18565b5b828206905092915050565b7f4e487b7100000000000000000000000000000000000000000000000000000000600052601160045260246000fd5b6000610db28261074f565b9150610dbd8361074f565b9250827fffffffffffffffffffffffffffffffffffffffffffffffffffffffffffffffff03821115610df257610df1610d78565b5b828201905092915050565b6000610e088261074f565b9150610e138361074f565b925082610e2357610e22610d18565b5b828204905092915050565b600081905092915050565b7f6b69747479000000000000000000000000000000000000000000000000000000600082015250565b6000610e6f600583610e2e565b9150610e7a82610e39565b600582019050919050565b6000610e9082610e62565b9150819050919050565b6000610ea582610801565b610eaf8185610e2e565b9350610ebf81856020860161081d565b80840191505092915050565b6000610ed78284610e9a565b915081905092915050565b6000610eed8261074f565b9150610ef88361074f565b925082821015610f0b57610f0a610d78565b5b828203905092915050565b6000610f218261074f565b91507fffffffffffffffffffffffffffffffffffffffffffffffffffffffffffffffff8203610f5357610f52610d78565b5b600182019050919050565b6000606082019050610f7360008301866107f2565b8181036020830152610f858185610861565b9050610f9460408301846107f2565b94935050505056fea2646970667358221220c47c3b2dda9623e9b033ad263ed5fc70ecc59ca2ae80102793c36efcd72b6f6364736f6c634300080e0033",
			"opcodes": "PUSH1 0x80 PUSH1 0x40 MSTORE PUSH1 0x10 PUSH1 0x0 SSTORE PUSH1 0x0 SLOAD PUSH1 0xA PUSH3 0x1A SWAP2 SWAP1 PUSH3 0x1BE JUMP JUMPDEST PUSH1 0x1 SSTORE CALLVALUE DUP1 ISZERO PUSH3 0x2A JUMPI PUSH1 0x0 DUP1 REVERT JUMPDEST POP PUSH3 0x20F JUMP JUMPDEST PUSH32 0x4E487B7100000000000000000000000000000000000000000000000000000000 PUSH1 0x0 MSTORE PUSH1 0x11 PUSH1 0x4 MSTORE PUSH1 0x24 PUSH1 0x0 REVERT JUMPDEST PUSH1 0x0 DUP2 PUSH1 0x1 SHR SWAP1 POP SWAP2 SWAP1 POP JUMP JUMPDEST PUSH1 0x0 DUP1 DUP3 SWAP2 POP DUP4 SWAP1 POP JUMPDEST PUSH1 0x1 DUP6 GT ISZERO PUSH3 0xBF JUMPI DUP1 DUP7 DIV DUP2 GT ISZERO PUSH3 0x97 JUMPI PUSH3 0x96 PUSH3 0x31 JUMP JUMPDEST JUMPDEST PUSH1 0x1 DUP6 AND ISZERO PUSH3 0xA7 JUMPI DUP1 DUP3 MUL SWAP2 POP JUMPDEST DUP1 DUP2 MUL SWAP1 POP PUSH3 0xB7 DUP6 PUSH3 0x60 JUMP JUMPDEST SWAP5 POP PUSH3 0x77 JUMP JUMPDEST SWAP5 POP SWAP5 SWAP3 POP POP POP JUMP JUMPDEST PUSH1 0x0 DUP3 PUSH3 0xDA JUMPI PUSH1 0x1 SWAP1 POP PUSH3 0x1AD JUMP JUMPDEST DUP2 PUSH3 0xEA JUMPI PUSH1 0x0 SWAP1 POP PUSH3 0x1AD JUMP JUMPDEST DUP2 PUSH1 0x1 DUP2 EQ PUSH3 0x103 JUMPI PUSH1 0x2 DUP2 EQ PUSH3 0x10E JUMPI PUSH3 0x144 JUMP JUMPDEST PUSH1 0x1 SWAP2 POP POP PUSH3 0x1AD JUMP JUMPDEST PUSH1 0xFF DUP5 GT ISZERO PUSH3 0x123 JUMPI PUSH3 0x122 PUSH3 0x31 JUMP JUMPDEST JUMPDEST DUP4 PUSH1 0x2 EXP SWAP2 POP DUP5 DUP3 GT ISZERO PUSH3 0x13D JUMPI PUSH3 0x13C PUSH3 0x31 JUMP JUMPDEST JUMPDEST POP PUSH3 0x1AD JUMP JUMPDEST POP PUSH1 0x20 DUP4 LT PUSH2 0x133 DUP4 LT AND PUSH1 0x4E DUP5 LT PUSH1 0xB DUP5 LT AND OR ISZERO PUSH3 0x17E JUMPI DUP3 DUP3 EXP SWAP1 POP DUP4 DUP2 GT ISZERO PUSH3 0x178 JUMPI PUSH3 0x177 PUSH3 0x31 JUMP JUMPDEST JUMPDEST PUSH3 0x1AD JUMP JUMPDEST PUSH3 0x18D DUP5 DUP5 DUP5 PUSH1 0x1 PUSH3 0x6D JUMP JUMPDEST SWAP3 POP SWAP1 POP DUP2 DUP5 DIV DUP2 GT ISZERO PUSH3 0x1A7 JUMPI PUSH3 0x1A6 PUSH3 0x31 JUMP JUMPDEST JUMPDEST DUP2 DUP2 MUL SWAP1 POP JUMPDEST SWAP4 SWAP3 POP POP POP JUMP JUMPDEST PUSH1 0x0 DUP2 SWAP1 POP SWAP2 SWAP1 POP JUMP JUMPDEST PUSH1 0x0 PUSH3 0x1CB DUP3 PUSH3 0x1B4 JUMP JUMPDEST SWAP2 POP PUSH3 0x1D8 DUP4 PUSH3 0x1B4 JUMP JUMPDEST SWAP3 POP PUSH3 0x207 PUSH32 0xFFFFFFFFFFFFFFFFFFFFFFFFFFFFFFFFFFFFFFFFFFFFFFFFFFFFFFFFFFFFFFFF DUP5 DUP5 PUSH3 0xC8 JUMP JUMPDEST SWAP1 POP SWAP3 SWAP2 POP POP JUMP JUMPDEST PUSH2 0xFD2 DUP1 PUSH3 0x21F PUSH1 0x0 CODECOPY PUSH1 0x0 RETURN INVALID PUSH1 0x80 PUSH1 0x40 MSTORE CALLVALUE DUP1 ISZERO PUSH2 0x10 JUMPI PUSH1 0x0 DUP1 REVERT JUMPDEST POP PUSH1 0x4 CALLDATASIZE LT PUSH2 0x57 JUMPI PUSH1 0x0 CALLDATALOAD PUSH1 0xE0 SHR DUP1 PUSH4 0x17A7F4CC EQ PUSH2 0x5C JUMPI DUP1 PUSH4 0x2052465E EQ PUSH2 0x78 JUMPI DUP1 PUSH4 0x5F4623F1 EQ PUSH2 0xA9 JUMPI DUP1 PUSH4 0x6B0BFC80 EQ PUSH2 0xC5 JUMPI DUP1 PUSH4 0xC6F15112 EQ PUSH2 0xE1 JUMPI JUMPDEST PUSH1 0x0 DUP1 REVERT JUMPDEST PUSH2 0x76 PUSH1 0x4 DUP1 CALLDATASIZE SUB DUP2 ADD SWAP1 PUSH2 0x71 SWAP2 SWAP1 PUSH2 0x785 JUMP JUMPDEST PUSH2 0xFD JUMP JUMPDEST STOP JUMPDEST PUSH2 0x92 PUSH1 0x4 DUP1 CALLDATASIZE SUB DUP2 ADD SWAP1 PUSH2 0x8D SWAP2 SWAP1 PUSH2 0x7C5 JUMP JUMPDEST PUSH2 0x21B JUMP JUMPDEST PUSH1 0x40 MLOAD PUSH2 0xA0 SWAP3 SWAP2 SWAP1 PUSH2 0x89A JUMP JUMPDEST PUSH1 0x40 MLOAD DUP1 SWAP2 SUB SWAP1 RETURN JUMPDEST PUSH2 0xC3 PUSH1 0x4 DUP1 CALLDATASIZE SUB DUP2 ADD SWAP1 PUSH2 0xBE SWAP2 SWAP1 PUSH2 0x928 JUMP JUMPDEST PUSH2 0x2D7 JUMP JUMPDEST STOP JUMPDEST PUSH2 0xDF PUSH1 0x4 DUP1 CALLDATASIZE SUB DUP2 ADD SWAP1 PUSH2 0xDA SWAP2 SWAP1 PUSH2 0xA8A JUMP JUMPDEST PUSH2 0x31B JUMP JUMPDEST STOP JUMPDEST PUSH2 0xFB PUSH1 0x4 DUP1 CALLDATASIZE SUB DUP2 ADD SWAP1 PUSH2 0xF6 SWAP2 SWAP1 PUSH2 0xAF9 JUMP JUMPDEST PUSH2 0x47B JUMP JUMPDEST STOP JUMPDEST PUSH1 0x0 PUSH1 0x5 PUSH1 0x0 SWAP1 SLOAD SWAP1 PUSH2 0x100 EXP SWAP1 DIV PUSH20 0xFFFFFFFFFFFFFFFFFFFFFFFFFFFFFFFFFFFFFFFF AND PUSH20 0xFFFFFFFFFFFFFFFFFFFFFFFFFFFFFFFFFFFFFFFF AND PUSH4 0xE98B7F4D DUP4 PUSH1 0x40 MLOAD DUP3 PUSH4 0xFFFFFFFF AND PUSH1 0xE0 SHL DUP2 MSTORE PUSH1 0x4 ADD PUSH2 0x15A SWAP2 SWAP1 PUSH2 0xB42 JUMP JUMPDEST PUSH2 0x140 PUSH1 0x40 MLOAD DUP1 DUP4 SUB DUP2 DUP7 GAS STATICCALL ISZERO DUP1 ISZERO PUSH2 0x178 JUMPI RETURNDATASIZE PUSH1 0x0 DUP1 RETURNDATACOPY RETURNDATASIZE PUSH1 0x0 REVERT JUMPDEST POP POP POP POP PUSH1 0x40 MLOAD RETURNDATASIZE PUSH1 0x1F NOT PUSH1 0x1F DUP3 ADD AND DUP3 ADD DUP1 PUSH1 0x40 MSTORE POP DUP2 ADD SWAP1 PUSH2 0x19C SWAP2 SWAP1 PUSH2 0xBAA JUMP JUMPDEST SWAP1 SWAP2 SWAP3 SWAP4 SWAP5 SWAP6 SWAP7 SWAP8 SWAP9 POP SWAP1 SWAP2 SWAP3 SWAP4 SWAP5 SWAP6 SWAP7 SWAP8 POP SWAP1 SWAP2 SWAP3 SWAP4 SWAP5 SWAP6 SWAP7 POP SWAP1 SWAP2 SWAP3 SWAP4 SWAP5 SWAP6 POP SWAP1 SWAP2 SWAP3 SWAP4 SWAP5 POP SWAP1 SWAP2 SWAP3 SWAP4 POP SWAP1 SWAP2 SWAP3 POP SWAP1 SWAP2 POP SWAP1 POP DUP1 SWAP2 POP POP PUSH2 0x216 DUP4 DUP3 PUSH1 0x40 MLOAD DUP1 PUSH1 0x40 ADD PUSH1 0x40 MSTORE DUP1 PUSH1 0x5 DUP2 MSTORE PUSH1 0x20 ADD PUSH32 0x6B69747479000000000000000000000000000000000000000000000000000000 DUP2 MSTORE POP PUSH2 0x31B JUMP JUMPDEST POP POP POP JUMP JUMPDEST PUSH1 0x2 DUP2 DUP2 SLOAD DUP2 LT PUSH2 0x22B JUMPI PUSH1 0x0 DUP1 REVERT JUMPDEST SWAP1 PUSH1 0x0 MSTORE PUSH1 0x20 PUSH1 0x0 KECCAK256 SWAP1 PUSH1 0x2 MUL ADD PUSH1 0x0 SWAP2 POP SWAP1 POP DUP1 PUSH1 0x0 ADD SLOAD SWAP1 DUP1 PUSH1 0x1 ADD DUP1 SLOAD PUSH2 0x254 SWAP1 PUSH2 0xCB8 JUMP JUMPDEST DUP1 PUSH1 0x1F ADD PUSH1 0x20 DUP1 SWAP2 DIV MUL PUSH1 0x20 ADD PUSH1 0x40 MLOAD SWAP1 DUP2 ADD PUSH1 0x40 MSTORE DUP1 SWAP3 SWAP2 SWAP1 DUP2 DUP2 MSTORE PUSH1 0x20 ADD DUP3 DUP1 SLOAD PUSH2 0x280 SWAP1 PUSH2 0xCB8 JUMP JUMPDEST DUP1 ISZERO PUSH2 0x2CD JUMPI DUP1 PUSH1 0x1F LT PUSH2 0x2A2 JUMPI PUSH2 0x100 DUP1 DUP4 SLOAD DIV MUL DUP4 MSTORE SWAP2 PUSH1 0x20 ADD SWAP2 PUSH2 0x2CD JUMP JUMPDEST DUP3 ADD SWAP2 SWAP1 PUSH1 0x0 MSTORE PUSH1 0x20 PUSH1 0x0 KECCAK256 SWAP1 JUMPDEST DUP2 SLOAD DUP2 MSTORE SWAP1 PUSH1 0x1 ADD SWAP1 PUSH1 0x20 ADD DUP1 DUP4 GT PUSH2 0x2B0 JUMPI DUP3 SWAP1 SUB PUSH1 0x1F AND DUP3 ADD SWAP2 JUMPDEST POP POP POP POP POP SWAP1 POP DUP3 JUMP JUMPDEST DUP1 PUSH1 0x5 PUSH1 0x0 PUSH2 0x100 EXP DUP2 SLOAD DUP2 PUSH20 0xFFFFFFFFFFFFFFFFFFFFFFFFFFFFFFFFFFFFFFFF MUL NOT AND SWAP1 DUP4 PUSH20 0xFFFFFFFFFFFFFFFFFFFFFFFFFFFFFFFFFFFFFFFF AND MUL OR SWAP1 SSTORE POP POP JUMP JUMPDEST PUSH1 0x0 PUSH1 0x4 PUSH1 0x0 CALLER PUSH20 0xFFFFFFFFFFFFFFFFFFFFFFFFFFFFFFFFFFFFFFFF AND PUSH20 0xFFFFFFFFFFFFFFFFFFFFFFFFFFFFFFFFFFFFFFFF AND DUP2 MSTORE PUSH1 0x20 ADD SWAP1 DUP2 MSTORE PUSH1 0x20 ADD PUSH1 0x0 KECCAK256 SLOAD EQ PUSH2 0x367 JUMPI PUSH1 0x0 DUP1 REVERT JUMPDEST PUSH1 0x0 PUSH1 0x2 DUP5 DUP2 SLOAD DUP2 LT PUSH2 0x37D JUMPI PUSH2 0x37C PUSH2 0xCE9 JUMP JUMPDEST JUMPDEST SWAP1 PUSH1 0x0 MSTORE PUSH1 0x20 PUSH1 0x0 KECCAK256 SWAP1 PUSH1 0x2 MUL ADD SWAP1 POP PUSH1 0x1 SLOAD DUP4 PUSH2 0x39B SWAP2 SWAP1 PUSH2 0xD47 JUMP JUMPDEST SWAP3 POP PUSH1 0x0 PUSH1 0x2 DUP3 PUSH1 0x0 ADD SLOAD DUP6 PUSH2 0x3B1 SWAP2 SWAP1 PUSH2 0xDA7 JUMP JUMPDEST PUSH2 0x3BB SWAP2 SWAP1 PUSH2 0xDFD JUMP JUMPDEST SWAP1 POP PUSH1 0x40 MLOAD PUSH1 0x20 ADD PUSH2 0x3CC SWAP1 PUSH2 0xE85 JUMP JUMPDEST PUSH1 0x40 MLOAD PUSH1 0x20 DUP2 DUP4 SUB SUB DUP2 MSTORE SWAP1 PUSH1 0x40 MSTORE DUP1 MLOAD SWAP1 PUSH1 0x20 ADD KECCAK256 DUP4 PUSH1 0x40 MLOAD PUSH1 0x20 ADD PUSH2 0x3F3 SWAP2 SWAP1 PUSH2 0xECB JUMP JUMPDEST PUSH1 0x40 MLOAD PUSH1 0x20 DUP2 DUP4 SUB SUB DUP2 MSTORE SWAP1 PUSH1 0x40 MSTORE DUP1 MLOAD SWAP1 PUSH1 0x20 ADD KECCAK256 SUB PUSH2 0x435 JUMPI PUSH1 0x63 PUSH1 0x64 DUP3 PUSH2 0x41D SWAP2 SWAP1 PUSH2 0xD47 JUMP JUMPDEST DUP3 PUSH2 0x428 SWAP2 SWAP1 PUSH2 0xEE2 JUMP JUMPDEST PUSH2 0x432 SWAP2 SWAP1 PUSH2 0xDA7 JUMP JUMPDEST SWAP1 POP JUMPDEST PUSH2 0x474 PUSH1 0x40 MLOAD DUP1 PUSH1 0x40 ADD PUSH1 0x40 MSTORE DUP1 PUSH1 0x6 DUP2 MSTORE PUSH1 0x20 ADD PUSH32 0x4E6F4E616D650000000000000000000000000000000000000000000000000000 DUP2 MSTORE POP DUP3 PUSH2 0x4E2 JUMP JUMPDEST POP POP POP POP POP JUMP JUMPDEST PUSH1 0x0 PUSH1 0x4 PUSH1 0x0 CALLER PUSH20 0xFFFFFFFFFFFFFFFFFFFFFFFFFFFFFFFFFFFFFFFF AND PUSH20 0xFFFFFFFFFFFFFFFFFFFFFFFFFFFFFFFFFFFFFFFF AND DUP2 MSTORE PUSH1 0x20 ADD SWAP1 DUP2 MSTORE PUSH1 0x20 ADD PUSH1 0x0 KECCAK256 SLOAD EQ PUSH2 0x4C7 JUMPI PUSH1 0x0 DUP1 REVERT JUMPDEST PUSH1 0x0 PUSH2 0x4D2 DUP3 PUSH2 0x653 JUMP JUMPDEST SWAP1 POP PUSH2 0x4DE DUP3 DUP3 PUSH2 0x4E2 JUMP JUMPDEST POP POP JUMP JUMPDEST PUSH1 0x2 PUSH1 0x40 MLOAD DUP1 PUSH1 0x40 ADD PUSH1 0x40 MSTORE DUP1 DUP4 DUP2 MSTORE PUSH1 0x20 ADD DUP5 DUP2 MSTORE POP SWAP1 DUP1 PUSH1 0x1 DUP2 SLOAD ADD DUP1 DUP3 SSTORE DUP1 SWAP2 POP POP PUSH1 0x1 SWAP1 SUB SWAP1 PUSH1 0x0 MSTORE PUSH1 0x20 PUSH1 0x0 KECCAK256 SWAP1 PUSH1 0x2 MUL ADD PUSH1 0x0 SWAP1 SWAP2 SWAP1 SWAP2 SWAP1 SWAP2 POP PUSH1 0x0 DUP3 ADD MLOAD DUP2 PUSH1 0x0 ADD SSTORE PUSH1 0x20 DUP3 ADD MLOAD DUP2 PUSH1 0x1 ADD SWAP1 DUP1 MLOAD SWAP1 PUSH1 0x20 ADD SWAP1 PUSH2 0x548 SWAP3 SWAP2 SWAP1 PUSH2 0x698 JUMP JUMPDEST POP POP POP CALLER PUSH1 0x3 PUSH1 0x0 PUSH1 0x1 PUSH1 0x2 DUP1 SLOAD SWAP1 POP PUSH2 0x562 SWAP2 SWAP1 PUSH2 0xEE2 JUMP JUMPDEST DUP2 MSTORE PUSH1 0x20 ADD SWAP1 DUP2 MSTORE PUSH1 0x20 ADD PUSH1 0x0 KECCAK256 PUSH1 0x0 PUSH2 0x100 EXP DUP2 SLOAD DUP2 PUSH20 0xFFFFFFFFFFFFFFFFFFFFFFFFFFFFFFFFFFFFFFFF MUL NOT AND SWAP1 DUP4 PUSH20 0xFFFFFFFFFFFFFFFFFFFFFFFFFFFFFFFFFFFFFFFF AND MUL OR SWAP1 SSTORE POP PUSH1 0x4 PUSH1 0x0 CALLER PUSH20 0xFFFFFFFFFFFFFFFFFFFFFFFFFFFFFFFFFFFFFFFF AND PUSH20 0xFFFFFFFFFFFFFFFFFFFFFFFFFFFFFFFFFFFFFFFF AND DUP2 MSTORE PUSH1 0x20 ADD SWAP1 DUP2 MSTORE PUSH1 0x20 ADD PUSH1 0x0 KECCAK256 PUSH1 0x0 DUP2 SLOAD DUP1 SWAP3 SWAP2 SWAP1 PUSH2 0x5FE SWAP1 PUSH2 0xF16 JUMP JUMPDEST SWAP2 SWAP1 POP SSTORE POP PUSH32 0x88F026AACBBECC90C18411DF4B1185FD8D9BE2470F1962F192BF84A27D0704B7 PUSH1 0x1 PUSH1 0x2 DUP1 SLOAD SWAP1 POP PUSH2 0x636 SWAP2 SWAP1 PUSH2 0xEE2 JUMP JUMPDEST DUP4 DUP4 PUSH1 0x40 MLOAD PUSH2 0x647 SWAP4 SWAP3 SWAP2 SWAP1 PUSH2 0xF5E JUMP JUMPDEST PUSH1 0x40 MLOAD DUP1 SWAP2 SUB SWAP1 LOG1 POP POP JUMP JUMPDEST PUSH1 0x0 DUP1 DUP3 PUSH1 0x40 MLOAD PUSH1 0x20 ADD PUSH2 0x667 SWAP2 SWAP1 PUSH2 0xECB JUMP JUMPDEST PUSH1 0x40 MLOAD PUSH1 0x20 DUP2 DUP4 SUB SUB DUP2 MSTORE SWAP1 PUSH1 0x40 MSTORE DUP1 MLOAD SWAP1 PUSH1 0x20 ADD KECCAK256 PUSH1 0x0 SHR SWAP1 POP PUSH1 0x1 SLOAD DUP2 PUSH2 0x690 SWAP2 SWAP1 PUSH2 0xD47 JUMP JUMPDEST SWAP2 POP POP SWAP2 SWAP1 POP JUMP JUMPDEST DUP3 DUP1 SLOAD PUSH2 0x6A4 SWAP1 PUSH2 0xCB8 JUMP JUMPDEST SWAP1 PUSH1 0x0 MSTORE PUSH1 0x20 PUSH1 0x0 KECCAK256 SWAP1 PUSH1 0x1F ADD PUSH1 0x20 SWAP1 DIV DUP2 ADD SWAP3 DUP3 PUSH2 0x6C6 JUMPI PUSH1 0x0 DUP6 SSTORE PUSH2 0x70D JUMP JUMPDEST DUP3 PUSH1 0x1F LT PUSH2 0x6DF JUMPI DUP1 MLOAD PUSH1 0xFF NOT AND DUP4 DUP1 ADD OR DUP6 SSTORE PUSH2 0x70D JUMP JUMPDEST DUP3 DUP1 ADD PUSH1 0x1 ADD DUP6 SSTORE DUP3 ISZERO PUSH2 0x70D JUMPI SWAP2 DUP3 ADD JUMPDEST DUP3 DUP2 GT ISZERO PUSH2 0x70C JUMPI DUP3 MLOAD DUP3 SSTORE SWAP2 PUSH1 0x20 ADD SWAP2 SWAP1 PUSH1 0x1 ADD SWAP1 PUSH2 0x6F1 JUMP JUMPDEST JUMPDEST POP SWAP1 POP PUSH2 0x71A SWAP2 SWAP1 PUSH2 0x71E JUMP JUMPDEST POP SWAP1 JUMP JUMPDEST JUMPDEST DUP1 DUP3 GT ISZERO PUSH2 0x737 JUMPI PUSH1 0x0 DUP2 PUSH1 0x0 SWAP1 SSTORE POP PUSH1 0x1 ADD PUSH2 0x71F JUMP JUMPDEST POP SWAP1 JUMP JUMPDEST PUSH1 0x0 PUSH1 0x40 MLOAD SWAP1 POP SWAP1 JUMP JUMPDEST PUSH1 0x0 DUP1 REVERT JUMPDEST PUSH1 0x0 DUP1 REVERT JUMPDEST PUSH1 0x0 DUP2 SWAP1 POP SWAP2 SWAP1 POP JUMP JUMPDEST PUSH2 0x762 DUP2 PUSH2 0x74F JUMP JUMPDEST DUP2 EQ PUSH2 0x76D JUMPI PUSH1 0x0 DUP1 REVERT JUMPDEST POP JUMP JUMPDEST PUSH1 0x0 DUP2 CALLDATALOAD SWAP1 POP PUSH2 0x77F DUP2 PUSH2 0x759 JUMP JUMPDEST SWAP3 SWAP2 POP POP JUMP JUMPDEST PUSH1 0x0 DUP1 PUSH1 0x40 DUP4 DUP6 SUB SLT ISZERO PUSH2 0x79C JUMPI PUSH2 0x79B PUSH2 0x745 JUMP JUMPDEST JUMPDEST PUSH1 0x0 PUSH2 0x7AA DUP6 DUP3 DUP7 ADD PUSH2 0x770 JUMP JUMPDEST SWAP3 POP POP PUSH1 0x20 PUSH2 0x7BB DUP6 DUP3 DUP7 ADD PUSH2 0x770 JUMP JUMPDEST SWAP2 POP POP SWAP3 POP SWAP3 SWAP1 POP JUMP JUMPDEST PUSH1 0x0 PUSH1 0x20 DUP3 DUP5 SUB SLT ISZERO PUSH2 0x7DB JUMPI PUSH2 0x7DA PUSH2 0x745 JUMP JUMPDEST JUMPDEST PUSH1 0x0 PUSH2 0x7E9 DUP5 DUP3 DUP6 ADD PUSH2 0x770 JUMP JUMPDEST SWAP2 POP POP SWAP3 SWAP2 POP POP JUMP JUMPDEST PUSH2 0x7FB DUP2 PUSH2 0x74F JUMP JUMPDEST DUP3 MSTORE POP POP JUMP JUMPDEST PUSH1 0x0 DUP2 MLOAD SWAP1 POP SWAP2 SWAP1 POP JUMP JUMPDEST PUSH1 0x0 DUP3 DUP3 MSTORE PUSH1 0x20 DUP3 ADD SWAP1 POP SWAP3 SWAP2 POP POP JUMP JUMPDEST PUSH1 0x0 JUMPDEST DUP4 DUP2 LT ISZERO PUSH2 0x83B JUMPI DUP1 DUP3 ADD MLOAD DUP2 DUP5 ADD MSTORE PUSH1 0x20 DUP2 ADD SWAP1 POP PUSH2 0x820 JUMP JUMPDEST DUP4 DUP2 GT ISZERO PUSH2 0x84A JUMPI PUSH1 0x0 DUP5 DUP5 ADD MSTORE JUMPDEST POP POP POP POP JUMP JUMPDEST PUSH1 0x0 PUSH1 0x1F NOT PUSH1 0x1F DUP4 ADD AND SWAP1 POP SWAP2 SWAP1 POP JUMP JUMPDEST PUSH1 0x0 PUSH2 0x86C DUP3 PUSH2 0x801 JUMP JUMPDEST PUSH2 0x876 DUP2 DUP6 PUSH2 0x80C JUMP JUMPDEST SWAP4 POP PUSH2 0x886 DUP2 DUP6 PUSH1 0x20 DUP7 ADD PUSH2 0x81D JUMP JUMPDEST PUSH2 0x88F DUP2 PUSH2 0x850 JUMP JUMPDEST DUP5 ADD SWAP2 POP POP SWAP3 SWAP2 POP POP JUMP JUMPDEST PUSH1 0x0 PUSH1 0x40 DUP3 ADD SWAP1 POP PUSH2 0x8AF PUSH1 0x0 DUP4 ADD DUP6 PUSH2 0x7F2 JUMP JUMPDEST DUP2 DUP2 SUB PUSH1 0x20 DUP4 ADD MSTORE PUSH2 0x8C1 DUP2 DUP5 PUSH2 0x861 JUMP JUMPDEST SWAP1 POP SWAP4 SWAP3 POP POP POP JUMP JUMPDEST PUSH1 0x0 PUSH20 0xFFFFFFFFFFFFFFFFFFFFFFFFFFFFFFFFFFFFFFFF DUP3 AND SWAP1 POP SWAP2 SWAP1 POP JUMP JUMPDEST PUSH1 0x0 PUSH2 0x8F5 DUP3 PUSH2 0x8CA JUMP JUMPDEST SWAP1 POP SWAP2 SWAP1 POP JUMP JUMPDEST PUSH2 0x905 DUP2 PUSH2 0x8EA JUMP JUMPDEST DUP2 EQ PUSH2 0x910 JUMPI PUSH1 0x0 DUP1 REVERT JUMPDEST POP JUMP JUMPDEST PUSH1 0x0 DUP2 CALLDATALOAD SWAP1 POP PUSH2 0x922 DUP2 PUSH2 0x8FC JUMP JUMPDEST SWAP3 SWAP2 POP POP JUMP JUMPDEST PUSH1 0x0 PUSH1 0x20 DUP3 DUP5 SUB SLT ISZERO PUSH2 0x93E JUMPI PUSH2 0x93D PUSH2 0x745 JUMP JUMPDEST JUMPDEST PUSH1 0x0 PUSH2 0x94C DUP5 DUP3 DUP6 ADD PUSH2 0x913 JUMP JUMPDEST SWAP2 POP POP SWAP3 SWAP2 POP POP JUMP JUMPDEST PUSH1 0x0 DUP1 REVERT JUMPDEST PUSH1 0x0 DUP1 REVERT JUMPDEST PUSH32 0x4E487B7100000000000000000000000000000000000000000000000000000000 PUSH1 0x0 MSTORE PUSH1 0x41 PUSH1 0x4 MSTORE PUSH1 0x24 PUSH1 0x0 REVERT JUMPDEST PUSH2 0x997 DUP3 PUSH2 0x850 JUMP JUMPDEST DUP2 ADD DUP2 DUP2 LT PUSH8 0xFFFFFFFFFFFFFFFF DUP3 GT OR ISZERO PUSH2 0x9B6 JUMPI PUSH2 0x9B5 PUSH2 0x95F JUMP JUMPDEST JUMPDEST DUP1 PUSH1 0x40 MSTORE POP POP POP JUMP JUMPDEST PUSH1 0x0 PUSH2 0x9C9 PUSH2 0x73B JUMP JUMPDEST SWAP1 POP PUSH2 0x9D5 DUP3 DUP3 PUSH2 0x98E JUMP JUMPDEST SWAP2 SWAP1 POP JUMP JUMPDEST PUSH1 0x0 PUSH8 0xFFFFFFFFFFFFFFFF DUP3 GT ISZERO PUSH2 0x9F5 JUMPI PUSH2 0x9F4 PUSH2 0x95F JUMP JUMPDEST JUMPDEST PUSH2 0x9FE DUP3 PUSH2 0x850 JUMP JUMPDEST SWAP1 POP PUSH1 0x20 DUP2 ADD SWAP1 POP SWAP2 SWAP1 POP JUMP JUMPDEST DUP3 DUP2 DUP4 CALLDATACOPY PUSH1 0x0 DUP4 DUP4 ADD MSTORE POP POP POP JUMP JUMPDEST PUSH1 0x0 PUSH2 0xA2D PUSH2 0xA28 DUP5 PUSH2 0x9DA JUMP JUMPDEST PUSH2 0x9BF JUMP JUMPDEST SWAP1 POP DUP3 DUP2 MSTORE PUSH1 0x20 DUP2 ADD DUP5 DUP5 DUP5 ADD GT ISZERO PUSH2 0xA49 JUMPI PUSH2 0xA48 PUSH2 0x95A JUMP JUMPDEST JUMPDEST PUSH2 0xA54 DUP5 DUP3 DUP6 PUSH2 0xA0B JUMP JUMPDEST POP SWAP4 SWAP3 POP POP POP JUMP JUMPDEST PUSH1 0x0 DUP3 PUSH1 0x1F DUP4 ADD SLT PUSH2 0xA71 JUMPI PUSH2 0xA70 PUSH2 0x955 JUMP JUMPDEST JUMPDEST DUP2 CALLDATALOAD PUSH2 0xA81 DUP5 DUP3 PUSH1 0x20 DUP7 ADD PUSH2 0xA1A JUMP JUMPDEST SWAP2 POP POP SWAP3 SWAP2 POP POP JUMP JUMPDEST PUSH1 0x0 DUP1 PUSH1 0x0 PUSH1 0x60 DUP5 DUP7 SUB SLT ISZERO PUSH2 0xAA3 JUMPI PUSH2 0xAA2 PUSH2 0x745 JUMP JUMPDEST JUMPDEST PUSH1 0x0 PUSH2 0xAB1 DUP7 DUP3 DUP8 ADD PUSH2 0x770 JUMP JUMPDEST SWAP4 POP POP PUSH1 0x20 PUSH2 0xAC2 DUP7 DUP3 DUP8 ADD PUSH2 0x770 JUMP JUMPDEST SWAP3 POP POP PUSH1 0x40 DUP5 ADD CALLDATALOAD PUSH8 0xFFFFFFFFFFFFFFFF DUP2 GT ISZERO PUSH2 0xAE3 JUMPI PUSH2 0xAE2 PUSH2 0x74A JUMP JUMPDEST JUMPDEST PUSH2 0xAEF DUP7 DUP3 DUP8 ADD PUSH2 0xA5C JUMP JUMPDEST SWAP2 POP POP SWAP3 POP SWAP3 POP SWAP3 JUMP JUMPDEST PUSH1 0x0 PUSH1 0x20 DUP3 DUP5 SUB SLT ISZERO PUSH2 0xB0F JUMPI PUSH2 0xB0E PUSH2 0x745 JUMP JUMPDEST JUMPDEST PUSH1 0x0 DUP3 ADD CALLDATALOAD PUSH8 0xFFFFFFFFFFFFFFFF DUP2 GT ISZERO PUSH2 0xB2D JUMPI PUSH2 0xB2C PUSH2 0x74A JUMP JUMPDEST JUMPDEST PUSH2 0xB39 DUP5 DUP3 DUP6 ADD PUSH2 0xA5C JUMP JUMPDEST SWAP2 POP POP SWAP3 SWAP2 POP POP JUMP JUMPDEST PUSH1 0x0 PUSH1 0x20 DUP3 ADD SWAP1 POP PUSH2 0xB57 PUSH1 0x0 DUP4 ADD DUP5 PUSH2 0x7F2 JUMP JUMPDEST SWAP3 SWAP2 POP POP JUMP JUMPDEST PUSH1 0x0 DUP2 ISZERO ISZERO SWAP1 POP SWAP2 SWAP1 POP JUMP JUMPDEST PUSH2 0xB72 DUP2 PUSH2 0xB5D JUMP JUMPDEST DUP2 EQ PUSH2 0xB7D JUMPI PUSH1 0x0 DUP1 REVERT JUMPDEST POP JUMP JUMPDEST PUSH1 0x0 DUP2 MLOAD SWAP1 POP PUSH2 0xB8F DUP2 PUSH2 0xB69 JUMP JUMPDEST SWAP3 SWAP2 POP POP JUMP JUMPDEST PUSH1 0x0 DUP2 MLOAD SWAP1 POP PUSH2 0xBA4 DUP2 PUSH2 0x759 JUMP JUMPDEST SWAP3 SWAP2 POP POP JUMP JUMPDEST PUSH1 0x0 DUP1 PUSH1 0x0 DUP1 PUSH1 0x0 DUP1 PUSH1 0x0 DUP1 PUSH1 0x0 DUP1 PUSH2 0x140 DUP12 DUP14 SUB SLT ISZERO PUSH2 0xBCE JUMPI PUSH2 0xBCD PUSH2 0x745 JUMP JUMPDEST JUMPDEST PUSH1 0x0 PUSH2 0xBDC DUP14 DUP3 DUP15 ADD PUSH2 0xB80 JUMP JUMPDEST SWAP11 POP POP PUSH1 0x20 PUSH2 0xBED DUP14 DUP3 DUP15 ADD PUSH2 0xB80 JUMP JUMPDEST SWAP10 POP POP PUSH1 0x40 PUSH2 0xBFE DUP14 DUP3 DUP15 ADD PUSH2 0xB95 JUMP JUMPDEST SWAP9 POP POP PUSH1 0x60 PUSH2 0xC0F DUP14 DUP3 DUP15 ADD PUSH2 0xB95 JUMP JUMPDEST SWAP8 POP POP PUSH1 0x80 PUSH2 0xC20 DUP14 DUP3 DUP15 ADD PUSH2 0xB95 JUMP JUMPDEST SWAP7 POP POP PUSH1 0xA0 PUSH2 0xC31 DUP14 DUP3 DUP15 ADD PUSH2 0xB95 JUMP JUMPDEST SWAP6 POP POP PUSH1 0xC0 PUSH2 0xC42 DUP14 DUP3 DUP15 ADD PUSH2 0xB95 JUMP JUMPDEST SWAP5 POP POP PUSH1 0xE0 PUSH2 0xC53 DUP14 DUP3 DUP15 ADD PUSH2 0xB95 JUMP JUMPDEST SWAP4 POP POP PUSH2 0x100 PUSH2 0xC65 DUP14 DUP3 DUP15 ADD PUSH2 0xB95 JUMP JUMPDEST SWAP3 POP POP PUSH2 0x120 PUSH2 0xC77 DUP14 DUP3 DUP15 ADD PUSH2 0xB95 JUMP JUMPDEST SWAP2 POP POP SWAP3 SWAP6 SWAP9 SWAP12 SWAP2 SWAP5 SWAP8 SWAP11 POP SWAP3 SWAP6 SWAP9 POP JUMP JUMPDEST PUSH32 0x4E487B7100000000000000000000000000000000000000000000000000000000 PUSH1 0x0 MSTORE PUSH1 0x22 PUSH1 0x4 MSTORE PUSH1 0x24 PUSH1 0x0 REVERT JUMPDEST PUSH1 0x0 PUSH1 0x2 DUP3 DIV SWAP1 POP PUSH1 0x1 DUP3 AND DUP1 PUSH2 0xCD0 JUMPI PUSH1 0x7F DUP3 AND SWAP2 POP JUMPDEST PUSH1 0x20 DUP3 LT DUP2 SUB PUSH2 0xCE3 JUMPI PUSH2 0xCE2 PUSH2 0xC89 JUMP JUMPDEST JUMPDEST POP SWAP2 SWAP1 POP JUMP JUMPDEST PUSH32 0x4E487B7100000000000000000000000000000000000000000000000000000000 PUSH1 0x0 MSTORE PUSH1 0x32 PUSH1 0x4 MSTORE PUSH1 0x24 PUSH1 0x0 REVERT JUMPDEST PUSH32 0x4E487B7100000000000000000000000000000000000000000000000000000000 PUSH1 0x0 MSTORE PUSH1 0x12 PUSH1 0x4 MSTORE PUSH1 0x24 PUSH1 0x0 REVERT JUMPDEST PUSH1 0x0 PUSH2 0xD52 DUP3 PUSH2 0x74F JUMP JUMPDEST SWAP2 POP PUSH2 0xD5D DUP4 PUSH2 0x74F JUMP JUMPDEST SWAP3 POP DUP3 PUSH2 0xD6D JUMPI PUSH2 0xD6C PUSH2 0xD18 JUMP JUMPDEST JUMPDEST DUP3 DUP3 MOD SWAP1 POP SWAP3 SWAP2 POP POP JUMP JUMPDEST PUSH32 0x4E487B7100000000000000000000000000000000000000000000000000000000 PUSH1 0x0 MSTORE PUSH1 0x11 PUSH1 0x4 MSTORE PUSH1 0x24 PUSH1 0x0 REVERT JUMPDEST PUSH1 0x0 PUSH2 0xDB2 DUP3 PUSH2 0x74F JUMP JUMPDEST SWAP2 POP PUSH2 0xDBD DUP4 PUSH2 0x74F JUMP JUMPDEST SWAP3 POP DUP3 PUSH32 0xFFFFFFFFFFFFFFFFFFFFFFFFFFFFFFFFFFFFFFFFFFFFFFFFFFFFFFFFFFFFFFFF SUB DUP3 GT ISZERO PUSH2 0xDF2 JUMPI PUSH2 0xDF1 PUSH2 0xD78 JUMP JUMPDEST JUMPDEST DUP3 DUP3 ADD SWAP1 POP SWAP3 SWAP2 POP POP JUMP JUMPDEST PUSH1 0x0 PUSH2 0xE08 DUP3 PUSH2 0x74F JUMP JUMPDEST SWAP2 POP PUSH2 0xE13 DUP4 PUSH2 0x74F JUMP JUMPDEST SWAP3 POP DUP3 PUSH2 0xE23 JUMPI PUSH2 0xE22 PUSH2 0xD18 JUMP JUMPDEST JUMPDEST DUP3 DUP3 DIV SWAP1 POP SWAP3 SWAP2 POP POP JUMP JUMPDEST PUSH1 0x0 DUP2 SWAP1 POP SWAP3 SWAP2 POP POP JUMP JUMPDEST PUSH32 0x6B69747479000000000000000000000000000000000000000000000000000000 PUSH1 0x0 DUP3 ADD MSTORE POP JUMP JUMPDEST PUSH1 0x0 PUSH2 0xE6F PUSH1 0x5 DUP4 PUSH2 0xE2E JUMP JUMPDEST SWAP2 POP PUSH2 0xE7A DUP3 PUSH2 0xE39 JUMP JUMPDEST PUSH1 0x5 DUP3 ADD SWAP1 POP SWAP2 SWAP1 POP JUMP JUMPDEST PUSH1 0x0 PUSH2 0xE90 DUP3 PUSH2 0xE62 JUMP JUMPDEST SWAP2 POP DUP2 SWAP1 POP SWAP2 SWAP1 POP JUMP JUMPDEST PUSH1 0x0 PUSH2 0xEA5 DUP3 PUSH2 0x801 JUMP JUMPDEST PUSH2 0xEAF DUP2 DUP6 PUSH2 0xE2E JUMP JUMPDEST SWAP4 POP PUSH2 0xEBF DUP2 DUP6 PUSH1 0x20 DUP7 ADD PUSH2 0x81D JUMP JUMPDEST DUP1 DUP5 ADD SWAP2 POP POP SWAP3 SWAP2 POP POP JUMP JUMPDEST PUSH1 0x0 PUSH2 0xED7 DUP3 DUP5 PUSH2 0xE9A JUMP JUMPDEST SWAP2 POP DUP2 SWAP1 POP SWAP3 SWAP2 POP POP JUMP JUMPDEST PUSH1 0x0 PUSH2 0xEED DUP3 PUSH2 0x74F JUMP JUMPDEST SWAP2 POP PUSH2 0xEF8 DUP4 PUSH2 0x74F JUMP JUMPDEST SWAP3 POP DUP3 DUP3 LT ISZERO PUSH2 0xF0B JUMPI PUSH2 0xF0A PUSH2 0xD78 JUMP JUMPDEST JUMPDEST DUP3 DUP3 SUB SWAP1 POP SWAP3 SWAP2 POP POP JUMP JUMPDEST PUSH1 0x0 PUSH2 0xF21 DUP3 PUSH2 0x74F JUMP JUMPDEST SWAP2 POP PUSH32 0xFFFFFFFFFFFFFFFFFFFFFFFFFFFFFFFFFFFFFFFFFFFFFFFFFFFFFFFFFFFFFFFF DUP3 SUB PUSH2 0xF53 JUMPI PUSH2 0xF52 PUSH2 0xD78 JUMP JUMPDEST JUMPDEST PUSH1 0x1 DUP3 ADD SWAP1 POP SWAP2 SWAP1 POP JUMP JUMPDEST PUSH1 0x0 PUSH1 0x60 DUP3 ADD SWAP1 POP PUSH2 0xF73 PUSH1 0x0 DUP4 ADD DUP7 PUSH2 0x7F2 JUMP JUMPDEST DUP2 DUP2 SUB PUSH1 0x20 DUP4 ADD MSTORE PUSH2 0xF85 DUP2 DUP6 PUSH2 0x861 JUMP JUMPDEST SWAP1 POP PUSH2 0xF94 PUSH1 0x40 DUP4 ADD DUP5 PUSH2 0x7F2 JUMP JUMPDEST SWAP5 SWAP4 POP POP POP POP JUMP INVALID LOG2 PUSH5 0x6970667358 0x22 SLT KECCAK256 0xC4 PUSH29 0x3B2DDA9623E9B033AD263ED5FC70ECC59CA2AE80102793C36EFCD72B6F PUSH4 0x64736F6C PUSH4 0x4300080E STOP CALLER "
		},
		"gasEstimates": {
			"creation": {
				"codeDepositCost": "810000",
				"executionCost": "infinite",
				"totalCost": "infinite"
			},
			"external": {
				"feedAndMultiply(uint256,uint256,string)": "infinite",
				"feedOnKitty(uint256,uint256)": "infinite",
				"generateRandomZombie(string)": "infinite",
				"setKittyContractAddress(address)": "24744",
				"zombies(uint256)": "infinite"
			}
		},
		"methodIdentifiers": {
			"feedAndMultiply(uint256,uint256,string)": "6b0bfc80",
			"feedOnKitty(uint256,uint256)": "17a7f4cc",
			"generateRandomZombie(string)": "c6f15112",
			"setKittyContractAddress(address)": "5f4623f1",
			"zombies(uint256)": "2052465e"
		}
	},
	"abi": [
		{
			"anonymous": false,
			"inputs": [
				{
					"indexed": false,
					"internalType": "uint256",
					"name": "zombieId",
					"type": "uint256"
				},
				{
					"indexed": false,
					"internalType": "string",
					"name": "name",
					"type": "string"
				},
				{
					"indexed": false,
					"internalType": "uint256",
					"name": "dna",
					"type": "uint256"
				}
			],
			"name": "NewZombie",
			"type": "event"
		},
		{
			"inputs": [
				{
					"internalType": "uint256",
					"name": "_zombieId",
					"type": "uint256"
				},
				{
					"internalType": "uint256",
					"name": "_targetDna",
					"type": "uint256"
				},
				{
					"internalType": "string",
					"name": "_species",
					"type": "string"
				}
			],
			"name": "feedAndMultiply",
			"outputs": [],
			"stateMutability": "nonpayable",
			"type": "function"
		},
		{
			"inputs": [
				{
					"internalType": "uint256",
					"name": "_zombieId",
					"type": "uint256"
				},
				{
					"internalType": "uint256",
					"name": "_kittyId",
					"type": "uint256"
				}
			],
			"name": "feedOnKitty",
			"outputs": [],
			"stateMutability": "nonpayable",
			"type": "function"
		},
		{
			"inputs": [
				{
					"internalType": "string",
					"name": "_name",
					"type": "string"
				}
			],
			"name": "generateRandomZombie",
			"outputs": [],
			"stateMutability": "nonpayable",
			"type": "function"
		},
		{
			"inputs": [
				{
					"internalType": "address",
					"name": "_address",
					"type": "address"
				}
			],
			"name": "setKittyContractAddress",
			"outputs": [],
			"stateMutability": "nonpayable",
			"type": "function"
		},
		{
			"inputs": [
				{
					"internalType": "uint256",
					"name": "",
					"type": "uint256"
				}
			],
			"name": "zombies",
			"outputs": [
				{
					"internalType": "uint256",
					"name": "dna",
					"type": "uint256"
				},
				{
					"internalType": "string",
					"name": "name",
					"type": "string"
				}
			],
			"stateMutability": "view",
			"type": "function"
		}
	]
}